{
	"contracts/1_Power.sol": {
		"Power": {
			"abi": [
				{
					"inputs": [],
					"stateMutability": "nonpayable",
					"type": "constructor"
				},
				{
					"inputs": [],
					"name": "version",
					"outputs": [
						{
							"internalType": "string",
							"name": "",
							"type": "string"
						}
					],
					"stateMutability": "view",
					"type": "function"
				}
			],
			"devdoc": {
				"details": "https://github.com/bancorprotocol/contracts Modified from the original by Slava Balasanov & Tarrence van As Split Power.sol out from BancorFormula.sol https://github.com/bancorprotocol/contracts/blob/c9adc95e82fdfb3a0ada102514beb8ae00147f5d/solidity/contracts/converter/BancorFormula.sol Licensed to the Apache Software Foundation (ASF) under one or more contributor license agreements; and to You under the Apache License, Version 2.0. \"",
				"kind": "dev",
				"methods": {},
				"title": "Power function by Bancor",
				"version": 1
			},
			"evm": {
				"assembly": "    /* \"contracts/1_Power.sol\":588:24421  contract Power {\r... */\n  mstore(0x40, 0x80)\n    /* \"contracts/1_Power.sol\":608:637  string public version = \"0.3\" */\n  mload(0x40)\n  dup1\n  0x40\n  add\n  0x40\n  mstore\n  dup1\n  0x03\n  dup2\n  mstore\n  0x20\n  add\n  0x302e330000000000000000000000000000000000000000000000000000000000\n  dup2\n  mstore\n  pop\n  0x00\n  swap1\n  dup1\n  mload\n  swap1\n  0x20\n  add\n  swap1\n  tag_1\n  swap3\n  swap2\n  swap1\n  tag_2\n  jump\t// in\ntag_1:\n  pop\n    /* \"contracts/1_Power.sol\":2009:9855  constructor() {\r... */\n  callvalue\n  dup1\n  iszero\n  tag_3\n  jumpi\n  0x00\n  dup1\n  revert\ntag_3:\n  pop\n    /* \"contracts/1_Power.sol\":3990:4026  0x1c35fedd14ffffffffffffffffffffffff */\n  0x1c35fedd14ffffffffffffffffffffffff\n    /* \"contracts/1_Power.sol\":3972:3983  maxExpArray */\n  0x01\n    /* \"contracts/1_Power.sol\":3984:3986  32 */\n  0x20\n    /* \"contracts/1_Power.sol\":3972:3987  maxExpArray[32] */\n  0x80\n  dup2\n  lt\n  tag_6\n  jumpi\n  tag_7\n  tag_8\n  jump\t// in\ntag_7:\ntag_6:\n  add\n    /* \"contracts/1_Power.sol\":3972:4026  maxExpArray[32] = 0x1c35fedd14ffffffffffffffffffffffff */\n  dup2\n  swap1\n  sstore\n  pop\n    /* \"contracts/1_Power.sol\":4051:4087  0x1b0ce43b323fffffffffffffffffffffff */\n  0x1b0ce43b323fffffffffffffffffffffff\n    /* \"contracts/1_Power.sol\":4033:4044  maxExpArray */\n  0x01\n    /* \"contracts/1_Power.sol\":4045:4047  33 */\n  0x21\n    /* \"contracts/1_Power.sol\":4033:4048  maxExpArray[33] */\n  0x80\n  dup2\n  lt\n  tag_10\n  jumpi\n  tag_11\n  tag_8\n  jump\t// in\ntag_11:\ntag_10:\n  add\n    /* \"contracts/1_Power.sol\":4033:4087  maxExpArray[33] = 0x1b0ce43b323fffffffffffffffffffffff */\n  dup2\n  swap1\n  sstore\n  pop\n    /* \"contracts/1_Power.sol\":4112:4148  0x19f0028ec1ffffffffffffffffffffffff */\n  0x19f0028ec1ffffffffffffffffffffffff\n    /* \"contracts/1_Power.sol\":4094:4105  maxExpArray */\n  0x01\n    /* \"contracts/1_Power.sol\":4106:4108  34 */\n  0x22\n    /* \"contracts/1_Power.sol\":4094:4109  maxExpArray[34] */\n  0x80\n  dup2\n  lt\n  tag_13\n  jumpi\n  tag_14\n  tag_8\n  jump\t// in\ntag_14:\ntag_13:\n  add\n    /* \"contracts/1_Power.sol\":4094:4148  maxExpArray[34] = 0x19f0028ec1ffffffffffffffffffffffff */\n  dup2\n  swap1\n  sstore\n  pop\n    /* \"contracts/1_Power.sol\":4173:4209  0x18ded91f0e7fffffffffffffffffffffff */\n  0x18ded91f0e7fffffffffffffffffffffff\n    /* \"contracts/1_Power.sol\":4155:4166  maxExpArray */\n  0x01\n    /* \"contracts/1_Power.sol\":4167:4169  35 */\n  0x23\n    /* \"contracts/1_Power.sol\":4155:4170  maxExpArray[35] */\n  0x80\n  dup2\n  lt\n  tag_16\n  jumpi\n  tag_17\n  tag_8\n  jump\t// in\ntag_17:\ntag_16:\n  add\n    /* \"contracts/1_Power.sol\":4155:4209  maxExpArray[35] = 0x18ded91f0e7fffffffffffffffffffffff */\n  dup2\n  swap1\n  sstore\n  pop\n    /* \"contracts/1_Power.sol\":4234:4270  0x17d8ec7f0417ffffffffffffffffffffff */\n  0x17d8ec7f0417ffffffffffffffffffffff\n    /* \"contracts/1_Power.sol\":4216:4227  maxExpArray */\n  0x01\n    /* \"contracts/1_Power.sol\":4228:4230  36 */\n  0x24\n    /* \"contracts/1_Power.sol\":4216:4231  maxExpArray[36] */\n  0x80\n  dup2\n  lt\n  tag_19\n  jumpi\n  tag_20\n  tag_8\n  jump\t// in\ntag_20:\ntag_19:\n  add\n    /* \"contracts/1_Power.sol\":4216:4270  maxExpArray[36] = 0x17d8ec7f0417ffffffffffffffffffffff */\n  dup2\n  swap1\n  sstore\n  pop\n    /* \"contracts/1_Power.sol\":4295:4331  0x16ddc6556cdbffffffffffffffffffffff */\n  0x16ddc6556cdbffffffffffffffffffffff\n    /* \"contracts/1_Power.sol\":4277:4288  maxExpArray */\n  0x01\n    /* \"contracts/1_Power.sol\":4289:4291  37 */\n  0x25\n    /* \"contracts/1_Power.sol\":4277:4292  maxExpArray[37] */\n  0x80\n  dup2\n  lt\n  tag_22\n  jumpi\n  tag_23\n  tag_8\n  jump\t// in\ntag_23:\ntag_22:\n  add\n    /* \"contracts/1_Power.sol\":4277:4331  maxExpArray[37] = 0x16ddc6556cdbffffffffffffffffffffff */\n  dup2\n  swap1\n  sstore\n  pop\n    /* \"contracts/1_Power.sol\":4356:4392  0x15ecf52776a1ffffffffffffffffffffff */\n  0x15ecf52776a1ffffffffffffffffffffff\n    /* \"contracts/1_Power.sol\":4338:4349  maxExpArray */\n  0x01\n    /* \"contracts/1_Power.sol\":4350:4352  38 */\n  0x26\n    /* \"contracts/1_Power.sol\":4338:4353  maxExpArray[38] */\n  0x80\n  dup2\n  lt\n  tag_25\n  jumpi\n  tag_26\n  tag_8\n  jump\t// in\ntag_26:\ntag_25:\n  add\n    /* \"contracts/1_Power.sol\":4338:4392  maxExpArray[38] = 0x15ecf52776a1ffffffffffffffffffffff */\n  dup2\n  swap1\n  sstore\n  pop\n    /* \"contracts/1_Power.sol\":4417:4453  0x15060c256cb2ffffffffffffffffffffff */\n  0x15060c256cb2ffffffffffffffffffffff\n    /* \"contracts/1_Power.sol\":4399:4410  maxExpArray */\n  0x01\n    /* \"contracts/1_Power.sol\":4411:4413  39 */\n  0x27\n    /* \"contracts/1_Power.sol\":4399:4414  maxExpArray[39] */\n  0x80\n  dup2\n  lt\n  tag_28\n  jumpi\n  tag_29\n  tag_8\n  jump\t// in\ntag_29:\ntag_28:\n  add\n    /* \"contracts/1_Power.sol\":4399:4453  maxExpArray[39] = 0x15060c256cb2ffffffffffffffffffffff */\n  dup2\n  swap1\n  sstore\n  pop\n    /* \"contracts/1_Power.sol\":4478:4514  0x1428a2f98d72ffffffffffffffffffffff */\n  0x1428a2f98d72ffffffffffffffffffffff\n    /* \"contracts/1_Power.sol\":4460:4471  maxExpArray */\n  0x01\n    /* \"contracts/1_Power.sol\":4472:4474  40 */\n  0x28\n    /* \"contracts/1_Power.sol\":4460:4475  maxExpArray[40] */\n  0x80\n  dup2\n  lt\n  tag_31\n  jumpi\n  tag_32\n  tag_8\n  jump\t// in\ntag_32:\ntag_31:\n  add\n    /* \"contracts/1_Power.sol\":4460:4514  maxExpArray[40] = 0x1428a2f98d72ffffffffffffffffffffff */\n  dup2\n  swap1\n  sstore\n  pop\n    /* \"contracts/1_Power.sol\":4539:4575  0x13545598e5c23fffffffffffffffffffff */\n  0x13545598e5c23fffffffffffffffffffff\n    /* \"contracts/1_Power.sol\":4521:4532  maxExpArray */\n  0x01\n    /* \"contracts/1_Power.sol\":4533:4535  41 */\n  0x29\n    /* \"contracts/1_Power.sol\":4521:4536  maxExpArray[41] */\n  0x80\n  dup2\n  lt\n  tag_34\n  jumpi\n  tag_35\n  tag_8\n  jump\t// in\ntag_35:\ntag_34:\n  add\n    /* \"contracts/1_Power.sol\":4521:4575  maxExpArray[41] = 0x13545598e5c23fffffffffffffffffffff */\n  dup2\n  swap1\n  sstore\n  pop\n    /* \"contracts/1_Power.sol\":4600:4636  0x1288c4161ce1dfffffffffffffffffffff */\n  0x1288c4161ce1dfffffffffffffffffffff\n    /* \"contracts/1_Power.sol\":4582:4593  maxExpArray */\n  0x01\n    /* \"contracts/1_Power.sol\":4594:4596  42 */\n  0x2a\n    /* \"contracts/1_Power.sol\":4582:4597  maxExpArray[42] */\n  0x80\n  dup2\n  lt\n  tag_37\n  jumpi\n  tag_38\n  tag_8\n  jump\t// in\ntag_38:\ntag_37:\n  add\n    /* \"contracts/1_Power.sol\":4582:4636  maxExpArray[42] = 0x1288c4161ce1dfffffffffffffffffffff */\n  dup2\n  swap1\n  sstore\n  pop\n    /* \"contracts/1_Power.sol\":4661:4697  0x11c592761c666fffffffffffffffffffff */\n  0x11c592761c666fffffffffffffffffffff\n    /* \"contracts/1_Power.sol\":4643:4654  maxExpArray */\n  0x01\n    /* \"contracts/1_Power.sol\":4655:4657  43 */\n  0x2b\n    /* \"contracts/1_Power.sol\":4643:4658  maxExpArray[43] */\n  0x80\n  dup2\n  lt\n  tag_40\n  jumpi\n  tag_41\n  tag_8\n  jump\t// in\ntag_41:\ntag_40:\n  add\n    /* \"contracts/1_Power.sol\":4643:4697  maxExpArray[43] = 0x11c592761c666fffffffffffffffffffff */\n  dup2\n  swap1\n  sstore\n  pop\n    /* \"contracts/1_Power.sol\":4722:4758  0x110a688680a757ffffffffffffffffffff */\n  0x110a688680a757ffffffffffffffffffff\n    /* \"contracts/1_Power.sol\":4704:4715  maxExpArray */\n  0x01\n    /* \"contracts/1_Power.sol\":4716:4718  44 */\n  0x2c\n    /* \"contracts/1_Power.sol\":4704:4719  maxExpArray[44] */\n  0x80\n  dup2\n  lt\n  tag_43\n  jumpi\n  tag_44\n  tag_8\n  jump\t// in\ntag_44:\ntag_43:\n  add\n    /* \"contracts/1_Power.sol\":4704:4758  maxExpArray[44] = 0x110a688680a757ffffffffffffffffffff */\n  dup2\n  swap1\n  sstore\n  pop\n    /* \"contracts/1_Power.sol\":4783:4819  0x1056f1b5bedf77ffffffffffffffffffff */\n  0x1056f1b5bedf77ffffffffffffffffffff\n    /* \"contracts/1_Power.sol\":4765:4776  maxExpArray */\n  0x01\n    /* \"contracts/1_Power.sol\":4777:4779  45 */\n  0x2d\n    /* \"contracts/1_Power.sol\":4765:4780  maxExpArray[45] */\n  0x80\n  dup2\n  lt\n  tag_46\n  jumpi\n  tag_47\n  tag_8\n  jump\t// in\ntag_47:\ntag_46:\n  add\n    /* \"contracts/1_Power.sol\":4765:4819  maxExpArray[45] = 0x1056f1b5bedf77ffffffffffffffffffff */\n  dup2\n  swap1\n  sstore\n  pop\n    /* \"contracts/1_Power.sol\":4844:4880  0x0faadceceeff8bffffffffffffffffffff */\n  0x0faadceceeff8bffffffffffffffffffff\n    /* \"contracts/1_Power.sol\":4826:4837  maxExpArray */\n  0x01\n    /* \"contracts/1_Power.sol\":4838:4840  46 */\n  0x2e\n    /* \"contracts/1_Power.sol\":4826:4841  maxExpArray[46] */\n  0x80\n  dup2\n  lt\n  tag_49\n  jumpi\n  tag_50\n  tag_8\n  jump\t// in\ntag_50:\ntag_49:\n  add\n    /* \"contracts/1_Power.sol\":4826:4880  maxExpArray[46] = 0x0faadceceeff8bffffffffffffffffffff */\n  dup2\n  swap1\n  sstore\n  pop\n    /* \"contracts/1_Power.sol\":4905:4941  0x0f05dc6b27edadffffffffffffffffffff */\n  0x0f05dc6b27edadffffffffffffffffffff\n    /* \"contracts/1_Power.sol\":4887:4898  maxExpArray */\n  0x01\n    /* \"contracts/1_Power.sol\":4899:4901  47 */\n  0x2f\n    /* \"contracts/1_Power.sol\":4887:4902  maxExpArray[47] */\n  0x80\n  dup2\n  lt\n  tag_52\n  jumpi\n  tag_53\n  tag_8\n  jump\t// in\ntag_53:\ntag_52:\n  add\n    /* \"contracts/1_Power.sol\":4887:4941  maxExpArray[47] = 0x0f05dc6b27edadffffffffffffffffffff */\n  dup2\n  swap1\n  sstore\n  pop\n    /* \"contracts/1_Power.sol\":4966:5002  0x0e67a5a25da4107fffffffffffffffffff */\n  0x0e67a5a25da4107fffffffffffffffffff\n    /* \"contracts/1_Power.sol\":4948:4959  maxExpArray */\n  0x01\n    /* \"contracts/1_Power.sol\":4960:4962  48 */\n  0x30\n    /* \"contracts/1_Power.sol\":4948:4963  maxExpArray[48] */\n  0x80\n  dup2\n  lt\n  tag_55\n  jumpi\n  tag_56\n  tag_8\n  jump\t// in\ntag_56:\ntag_55:\n  add\n    /* \"contracts/1_Power.sol\":4948:5002  maxExpArray[48] = 0x0e67a5a25da4107fffffffffffffffffff */\n  dup2\n  swap1\n  sstore\n  pop\n    /* \"contracts/1_Power.sol\":5027:5063  0x0dcff115b14eedffffffffffffffffffff */\n  0x0dcff115b14eedffffffffffffffffffff\n    /* \"contracts/1_Power.sol\":5009:5020  maxExpArray */\n  0x01\n    /* \"contracts/1_Power.sol\":5021:5023  49 */\n  0x31\n    /* \"contracts/1_Power.sol\":5009:5024  maxExpArray[49] */\n  0x80\n  dup2\n  lt\n  tag_58\n  jumpi\n  tag_59\n  tag_8\n  jump\t// in\ntag_59:\ntag_58:\n  add\n    /* \"contracts/1_Power.sol\":5009:5063  maxExpArray[49] = 0x0dcff115b14eedffffffffffffffffffff */\n  dup2\n  swap1\n  sstore\n  pop\n    /* \"contracts/1_Power.sol\":5088:5124  0x0d3e7a392431239fffffffffffffffffff */\n  0x0d3e7a392431239fffffffffffffffffff\n    /* \"contracts/1_Power.sol\":5070:5081  maxExpArray */\n  0x01\n    /* \"contracts/1_Power.sol\":5082:5084  50 */\n  0x32\n    /* \"contracts/1_Power.sol\":5070:5085  maxExpArray[50] */\n  0x80\n  dup2\n  lt\n  tag_61\n  jumpi\n  tag_62\n  tag_8\n  jump\t// in\ntag_62:\ntag_61:\n  add\n    /* \"contracts/1_Power.sol\":5070:5124  maxExpArray[50] = 0x0d3e7a392431239fffffffffffffffffff */\n  dup2\n  swap1\n  sstore\n  pop\n    /* \"contracts/1_Power.sol\":5149:5185  0x0cb2ff529eb71e4fffffffffffffffffff */\n  0x0cb2ff529eb71e4fffffffffffffffffff\n    /* \"contracts/1_Power.sol\":5131:5142  maxExpArray */\n  0x01\n    /* \"contracts/1_Power.sol\":5143:5145  51 */\n  0x33\n    /* \"contracts/1_Power.sol\":5131:5146  maxExpArray[51] */\n  0x80\n  dup2\n  lt\n  tag_64\n  jumpi\n  tag_65\n  tag_8\n  jump\t// in\ntag_65:\ntag_64:\n  add\n    /* \"contracts/1_Power.sol\":5131:5185  maxExpArray[51] = 0x0cb2ff529eb71e4fffffffffffffffffff */\n  dup2\n  swap1\n  sstore\n  pop\n    /* \"contracts/1_Power.sol\":5210:5246  0x0c2d415c3db974afffffffffffffffffff */\n  0x0c2d415c3db974afffffffffffffffffff\n    /* \"contracts/1_Power.sol\":5192:5203  maxExpArray */\n  0x01\n    /* \"contracts/1_Power.sol\":5204:5206  52 */\n  0x34\n    /* \"contracts/1_Power.sol\":5192:5207  maxExpArray[52] */\n  0x80\n  dup2\n  lt\n  tag_67\n  jumpi\n  tag_68\n  tag_8\n  jump\t// in\ntag_68:\ntag_67:\n  add\n    /* \"contracts/1_Power.sol\":5192:5246  maxExpArray[52] = 0x0c2d415c3db974afffffffffffffffffff */\n  dup2\n  swap1\n  sstore\n  pop\n    /* \"contracts/1_Power.sol\":5271:5307  0x0bad03e7d883f69bffffffffffffffffff */\n  0x0bad03e7d883f69bffffffffffffffffff\n    /* \"contracts/1_Power.sol\":5253:5264  maxExpArray */\n  0x01\n    /* \"contracts/1_Power.sol\":5265:5267  53 */\n  0x35\n    /* \"contracts/1_Power.sol\":5253:5268  maxExpArray[53] */\n  0x80\n  dup2\n  lt\n  tag_70\n  jumpi\n  tag_71\n  tag_8\n  jump\t// in\ntag_71:\ntag_70:\n  add\n    /* \"contracts/1_Power.sol\":5253:5307  maxExpArray[53] = 0x0bad03e7d883f69bffffffffffffffffff */\n  dup2\n  swap1\n  sstore\n  pop\n    /* \"contracts/1_Power.sol\":5332:5368  0x0b320d03b2c343d5ffffffffffffffffff */\n  0x0b320d03b2c343d5ffffffffffffffffff\n    /* \"contracts/1_Power.sol\":5314:5325  maxExpArray */\n  0x01\n    /* \"contracts/1_Power.sol\":5326:5328  54 */\n  0x36\n    /* \"contracts/1_Power.sol\":5314:5329  maxExpArray[54] */\n  0x80\n  dup2\n  lt\n  tag_73\n  jumpi\n  tag_74\n  tag_8\n  jump\t// in\ntag_74:\ntag_73:\n  add\n    /* \"contracts/1_Power.sol\":5314:5368  maxExpArray[54] = 0x0b320d03b2c343d5ffffffffffffffffff */\n  dup2\n  swap1\n  sstore\n  pop\n    /* \"contracts/1_Power.sol\":5393:5429  0x0abc25204e02828dffffffffffffffffff */\n  0x0abc25204e02828dffffffffffffffffff\n    /* \"contracts/1_Power.sol\":5375:5386  maxExpArray */\n  0x01\n    /* \"contracts/1_Power.sol\":5387:5389  55 */\n  0x37\n    /* \"contracts/1_Power.sol\":5375:5390  maxExpArray[55] */\n  0x80\n  dup2\n  lt\n  tag_76\n  jumpi\n  tag_77\n  tag_8\n  jump\t// in\ntag_77:\ntag_76:\n  add\n    /* \"contracts/1_Power.sol\":5375:5429  maxExpArray[55] = 0x0abc25204e02828dffffffffffffffffff */\n  dup2\n  swap1\n  sstore\n  pop\n    /* \"contracts/1_Power.sol\":5454:5490  0x0a4b16f74ee4bb207fffffffffffffffff */\n  0x0a4b16f74ee4bb207fffffffffffffffff\n    /* \"contracts/1_Power.sol\":5436:5447  maxExpArray */\n  0x01\n    /* \"contracts/1_Power.sol\":5448:5450  56 */\n  0x38\n    /* \"contracts/1_Power.sol\":5436:5451  maxExpArray[56] */\n  0x80\n  dup2\n  lt\n  tag_79\n  jumpi\n  tag_80\n  tag_8\n  jump\t// in\ntag_80:\ntag_79:\n  add\n    /* \"contracts/1_Power.sol\":5436:5490  maxExpArray[56] = 0x0a4b16f74ee4bb207fffffffffffffffff */\n  dup2\n  swap1\n  sstore\n  pop\n    /* \"contracts/1_Power.sol\":5515:5551  0x09deaf736ac1f569ffffffffffffffffff */\n  0x09deaf736ac1f569ffffffffffffffffff\n    /* \"contracts/1_Power.sol\":5497:5508  maxExpArray */\n  0x01\n    /* \"contracts/1_Power.sol\":5509:5511  57 */\n  0x39\n    /* \"contracts/1_Power.sol\":5497:5512  maxExpArray[57] */\n  0x80\n  dup2\n  lt\n  tag_82\n  jumpi\n  tag_83\n  tag_8\n  jump\t// in\ntag_83:\ntag_82:\n  add\n    /* \"contracts/1_Power.sol\":5497:5551  maxExpArray[57] = 0x09deaf736ac1f569ffffffffffffffffff */\n  dup2\n  swap1\n  sstore\n  pop\n    /* \"contracts/1_Power.sol\":5576:5612  0x0976bd9952c7aa957fffffffffffffffff */\n  0x0976bd9952c7aa957fffffffffffffffff\n    /* \"contracts/1_Power.sol\":5558:5569  maxExpArray */\n  0x01\n    /* \"contracts/1_Power.sol\":5570:5572  58 */\n  0x3a\n    /* \"contracts/1_Power.sol\":5558:5573  maxExpArray[58] */\n  0x80\n  dup2\n  lt\n  tag_85\n  jumpi\n  tag_86\n  tag_8\n  jump\t// in\ntag_86:\ntag_85:\n  add\n    /* \"contracts/1_Power.sol\":5558:5612  maxExpArray[58] = 0x0976bd9952c7aa957fffffffffffffffff */\n  dup2\n  swap1\n  sstore\n  pop\n    /* \"contracts/1_Power.sol\":5637:5673  0x09131271922eaa606fffffffffffffffff */\n  0x09131271922eaa606fffffffffffffffff\n    /* \"contracts/1_Power.sol\":5619:5630  maxExpArray */\n  0x01\n    /* \"contracts/1_Power.sol\":5631:5633  59 */\n  0x3b\n    /* \"contracts/1_Power.sol\":5619:5634  maxExpArray[59] */\n  0x80\n  dup2\n  lt\n  tag_88\n  jumpi\n  tag_89\n  tag_8\n  jump\t// in\ntag_89:\ntag_88:\n  add\n    /* \"contracts/1_Power.sol\":5619:5673  maxExpArray[59] = 0x09131271922eaa606fffffffffffffffff */\n  dup2\n  swap1\n  sstore\n  pop\n    /* \"contracts/1_Power.sol\":5698:5734  0x08b380f3558668c46fffffffffffffffff */\n  0x08b380f3558668c46fffffffffffffffff\n    /* \"contracts/1_Power.sol\":5680:5691  maxExpArray */\n  0x01\n    /* \"contracts/1_Power.sol\":5692:5694  60 */\n  0x3c\n    /* \"contracts/1_Power.sol\":5680:5695  maxExpArray[60] */\n  0x80\n  dup2\n  lt\n  tag_91\n  jumpi\n  tag_92\n  tag_8\n  jump\t// in\ntag_92:\ntag_91:\n  add\n    /* \"contracts/1_Power.sol\":5680:5734  maxExpArray[60] = 0x08b380f3558668c46fffffffffffffffff */\n  dup2\n  swap1\n  sstore\n  pop\n    /* \"contracts/1_Power.sol\":5759:5795  0x0857ddf0117efa215bffffffffffffffff */\n  0x0857ddf0117efa215bffffffffffffffff\n    /* \"contracts/1_Power.sol\":5741:5752  maxExpArray */\n  0x01\n    /* \"contracts/1_Power.sol\":5753:5755  61 */\n  0x3d\n    /* \"contracts/1_Power.sol\":5741:5756  maxExpArray[61] */\n  0x80\n  dup2\n  lt\n  tag_94\n  jumpi\n  tag_95\n  tag_8\n  jump\t// in\ntag_95:\ntag_94:\n  add\n    /* \"contracts/1_Power.sol\":5741:5795  maxExpArray[61] = 0x0857ddf0117efa215bffffffffffffffff */\n  dup2\n  swap1\n  sstore\n  pop\n    /* \"contracts/1_Power.sol\":5820:5856  0x07ffffffffffffffffffffffffffffffff */\n  0x07ffffffffffffffffffffffffffffffff\n    /* \"contracts/1_Power.sol\":5802:5813  maxExpArray */\n  0x01\n    /* \"contracts/1_Power.sol\":5814:5816  62 */\n  0x3e\n    /* \"contracts/1_Power.sol\":5802:5817  maxExpArray[62] */\n  0x80\n  dup2\n  lt\n  tag_97\n  jumpi\n  tag_98\n  tag_8\n  jump\t// in\ntag_98:\ntag_97:\n  add\n    /* \"contracts/1_Power.sol\":5802:5856  maxExpArray[62] = 0x07ffffffffffffffffffffffffffffffff */\n  dup2\n  swap1\n  sstore\n  pop\n    /* \"contracts/1_Power.sol\":5881:5917  0x07abbf6f6abb9d087fffffffffffffffff */\n  0x07abbf6f6abb9d087fffffffffffffffff\n    /* \"contracts/1_Power.sol\":5863:5874  maxExpArray */\n  0x01\n    /* \"contracts/1_Power.sol\":5875:5877  63 */\n  0x3f\n    /* \"contracts/1_Power.sol\":5863:5878  maxExpArray[63] */\n  0x80\n  dup2\n  lt\n  tag_100\n  jumpi\n  tag_101\n  tag_8\n  jump\t// in\ntag_101:\ntag_100:\n  add\n    /* \"contracts/1_Power.sol\":5863:5917  maxExpArray[63] = 0x07abbf6f6abb9d087fffffffffffffffff */\n  dup2\n  swap1\n  sstore\n  pop\n    /* \"contracts/1_Power.sol\":5942:5978  0x075af62cbac95f7dfa7fffffffffffffff */\n  0x075af62cbac95f7dfa7fffffffffffffff\n    /* \"contracts/1_Power.sol\":5924:5935  maxExpArray */\n  0x01\n    /* \"contracts/1_Power.sol\":5936:5938  64 */\n  0x40\n    /* \"contracts/1_Power.sol\":5924:5939  maxExpArray[64] */\n  0x80\n  dup2\n  lt\n  tag_103\n  jumpi\n  tag_104\n  tag_8\n  jump\t// in\ntag_104:\ntag_103:\n  add\n    /* \"contracts/1_Power.sol\":5924:5978  maxExpArray[64] = 0x075af62cbac95f7dfa7fffffffffffffff */\n  dup2\n  swap1\n  sstore\n  pop\n    /* \"contracts/1_Power.sol\":6003:6039  0x070d7fb7452e187ac13fffffffffffffff */\n  0x070d7fb7452e187ac13fffffffffffffff\n    /* \"contracts/1_Power.sol\":5985:5996  maxExpArray */\n  0x01\n    /* \"contracts/1_Power.sol\":5997:5999  65 */\n  0x41\n    /* \"contracts/1_Power.sol\":5985:6000  maxExpArray[65] */\n  0x80\n  dup2\n  lt\n  tag_106\n  jumpi\n  tag_107\n  tag_8\n  jump\t// in\ntag_107:\ntag_106:\n  add\n    /* \"contracts/1_Power.sol\":5985:6039  maxExpArray[65] = 0x070d7fb7452e187ac13fffffffffffffff */\n  dup2\n  swap1\n  sstore\n  pop\n    /* \"contracts/1_Power.sol\":6064:6100  0x06c3390ecc8af379295fffffffffffffff */\n  0x06c3390ecc8af379295fffffffffffffff\n    /* \"contracts/1_Power.sol\":6046:6057  maxExpArray */\n  0x01\n    /* \"contracts/1_Power.sol\":6058:6060  66 */\n  0x42\n    /* \"contracts/1_Power.sol\":6046:6061  maxExpArray[66] */\n  0x80\n  dup2\n  lt\n  tag_109\n  jumpi\n  tag_110\n  tag_8\n  jump\t// in\ntag_110:\ntag_109:\n  add\n    /* \"contracts/1_Power.sol\":6046:6100  maxExpArray[66] = 0x06c3390ecc8af379295fffffffffffffff */\n  dup2\n  swap1\n  sstore\n  pop\n    /* \"contracts/1_Power.sol\":6125:6161  0x067c00a3b07ffc01fd6fffffffffffffff */\n  0x067c00a3b07ffc01fd6fffffffffffffff\n    /* \"contracts/1_Power.sol\":6107:6118  maxExpArray */\n  0x01\n    /* \"contracts/1_Power.sol\":6119:6121  67 */\n  0x43\n    /* \"contracts/1_Power.sol\":6107:6122  maxExpArray[67] */\n  0x80\n  dup2\n  lt\n  tag_112\n  jumpi\n  tag_113\n  tag_8\n  jump\t// in\ntag_113:\ntag_112:\n  add\n    /* \"contracts/1_Power.sol\":6107:6161  maxExpArray[67] = 0x067c00a3b07ffc01fd6fffffffffffffff */\n  dup2\n  swap1\n  sstore\n  pop\n    /* \"contracts/1_Power.sol\":6186:6222  0x0637b647c39cbb9d3d27ffffffffffffff */\n  0x0637b647c39cbb9d3d27ffffffffffffff\n    /* \"contracts/1_Power.sol\":6168:6179  maxExpArray */\n  0x01\n    /* \"contracts/1_Power.sol\":6180:6182  68 */\n  0x44\n    /* \"contracts/1_Power.sol\":6168:6183  maxExpArray[68] */\n  0x80\n  dup2\n  lt\n  tag_115\n  jumpi\n  tag_116\n  tag_8\n  jump\t// in\ntag_116:\ntag_115:\n  add\n    /* \"contracts/1_Power.sol\":6168:6222  maxExpArray[68] = 0x0637b647c39cbb9d3d27ffffffffffffff */\n  dup2\n  swap1\n  sstore\n  pop\n    /* \"contracts/1_Power.sol\":6247:6283  0x05f63b1fc104dbd39587ffffffffffffff */\n  0x05f63b1fc104dbd39587ffffffffffffff\n    /* \"contracts/1_Power.sol\":6229:6240  maxExpArray */\n  0x01\n    /* \"contracts/1_Power.sol\":6241:6243  69 */\n  0x45\n    /* \"contracts/1_Power.sol\":6229:6244  maxExpArray[69] */\n  0x80\n  dup2\n  lt\n  tag_118\n  jumpi\n  tag_119\n  tag_8\n  jump\t// in\ntag_119:\ntag_118:\n  add\n    /* \"contracts/1_Power.sol\":6229:6283  maxExpArray[69] = 0x05f63b1fc104dbd39587ffffffffffffff */\n  dup2\n  swap1\n  sstore\n  pop\n    /* \"contracts/1_Power.sol\":6308:6344  0x05b771955b36e12f7235ffffffffffffff */\n  0x05b771955b36e12f7235ffffffffffffff\n    /* \"contracts/1_Power.sol\":6290:6301  maxExpArray */\n  0x01\n    /* \"contracts/1_Power.sol\":6302:6304  70 */\n  0x46\n    /* \"contracts/1_Power.sol\":6290:6305  maxExpArray[70] */\n  0x80\n  dup2\n  lt\n  tag_121\n  jumpi\n  tag_122\n  tag_8\n  jump\t// in\ntag_122:\ntag_121:\n  add\n    /* \"contracts/1_Power.sol\":6290:6344  maxExpArray[70] = 0x05b771955b36e12f7235ffffffffffffff */\n  dup2\n  swap1\n  sstore\n  pop\n    /* \"contracts/1_Power.sol\":6369:6405  0x057b3d49dda84556d6f6ffffffffffffff */\n  0x057b3d49dda84556d6f6ffffffffffffff\n    /* \"contracts/1_Power.sol\":6351:6362  maxExpArray */\n  0x01\n    /* \"contracts/1_Power.sol\":6363:6365  71 */\n  0x47\n    /* \"contracts/1_Power.sol\":6351:6366  maxExpArray[71] */\n  0x80\n  dup2\n  lt\n  tag_124\n  jumpi\n  tag_125\n  tag_8\n  jump\t// in\ntag_125:\ntag_124:\n  add\n    /* \"contracts/1_Power.sol\":6351:6405  maxExpArray[71] = 0x057b3d49dda84556d6f6ffffffffffffff */\n  dup2\n  swap1\n  sstore\n  pop\n    /* \"contracts/1_Power.sol\":6430:6466  0x054183095b2c8ececf30ffffffffffffff */\n  0x054183095b2c8ececf30ffffffffffffff\n    /* \"contracts/1_Power.sol\":6412:6423  maxExpArray */\n  0x01\n    /* \"contracts/1_Power.sol\":6424:6426  72 */\n  0x48\n    /* \"contracts/1_Power.sol\":6412:6427  maxExpArray[72] */\n  0x80\n  dup2\n  lt\n  tag_127\n  jumpi\n  tag_128\n  tag_8\n  jump\t// in\ntag_128:\ntag_127:\n  add\n    /* \"contracts/1_Power.sol\":6412:6466  maxExpArray[72] = 0x054183095b2c8ececf30ffffffffffffff */\n  dup2\n  swap1\n  sstore\n  pop\n    /* \"contracts/1_Power.sol\":6491:6527  0x050a28be635ca2b888f77fffffffffffff */\n  0x050a28be635ca2b888f77fffffffffffff\n    /* \"contracts/1_Power.sol\":6473:6484  maxExpArray */\n  0x01\n    /* \"contracts/1_Power.sol\":6485:6487  73 */\n  0x49\n    /* \"contracts/1_Power.sol\":6473:6488  maxExpArray[73] */\n  0x80\n  dup2\n  lt\n  tag_130\n  jumpi\n  tag_131\n  tag_8\n  jump\t// in\ntag_131:\ntag_130:\n  add\n    /* \"contracts/1_Power.sol\":6473:6527  maxExpArray[73] = 0x050a28be635ca2b888f77fffffffffffff */\n  dup2\n  swap1\n  sstore\n  pop\n    /* \"contracts/1_Power.sol\":6552:6588  0x04d5156639708c9db33c3fffffffffffff */\n  0x04d5156639708c9db33c3fffffffffffff\n    /* \"contracts/1_Power.sol\":6534:6545  maxExpArray */\n  0x01\n    /* \"contracts/1_Power.sol\":6546:6548  74 */\n  0x4a\n    /* \"contracts/1_Power.sol\":6534:6549  maxExpArray[74] */\n  0x80\n  dup2\n  lt\n  tag_133\n  jumpi\n  tag_134\n  tag_8\n  jump\t// in\ntag_134:\ntag_133:\n  add\n    /* \"contracts/1_Power.sol\":6534:6588  maxExpArray[74] = 0x04d5156639708c9db33c3fffffffffffff */\n  dup2\n  swap1\n  sstore\n  pop\n    /* \"contracts/1_Power.sol\":6613:6649  0x04a23105873875bd52dfdfffffffffffff */\n  0x04a23105873875bd52dfdfffffffffffff\n    /* \"contracts/1_Power.sol\":6595:6606  maxExpArray */\n  0x01\n    /* \"contracts/1_Power.sol\":6607:6609  75 */\n  0x4b\n    /* \"contracts/1_Power.sol\":6595:6610  maxExpArray[75] */\n  0x80\n  dup2\n  lt\n  tag_136\n  jumpi\n  tag_137\n  tag_8\n  jump\t// in\ntag_137:\ntag_136:\n  add\n    /* \"contracts/1_Power.sol\":6595:6649  maxExpArray[75] = 0x04a23105873875bd52dfdfffffffffffff */\n  dup2\n  swap1\n  sstore\n  pop\n    /* \"contracts/1_Power.sol\":6674:6710  0x0471649d87199aa990756fffffffffffff */\n  0x0471649d87199aa990756fffffffffffff\n    /* \"contracts/1_Power.sol\":6656:6667  maxExpArray */\n  0x01\n    /* \"contracts/1_Power.sol\":6668:6670  76 */\n  0x4c\n    /* \"contracts/1_Power.sol\":6656:6671  maxExpArray[76] */\n  0x80\n  dup2\n  lt\n  tag_139\n  jumpi\n  tag_140\n  tag_8\n  jump\t// in\ntag_140:\ntag_139:\n  add\n    /* \"contracts/1_Power.sol\":6656:6710  maxExpArray[76] = 0x0471649d87199aa990756fffffffffffff */\n  dup2\n  swap1\n  sstore\n  pop\n    /* \"contracts/1_Power.sol\":6735:6771  0x04429a21a029d4c1457cfbffffffffffff */\n  0x04429a21a029d4c1457cfbffffffffffff\n    /* \"contracts/1_Power.sol\":6717:6728  maxExpArray */\n  0x01\n    /* \"contracts/1_Power.sol\":6729:6731  77 */\n  0x4d\n    /* \"contracts/1_Power.sol\":6717:6732  maxExpArray[77] */\n  0x80\n  dup2\n  lt\n  tag_142\n  jumpi\n  tag_143\n  tag_8\n  jump\t// in\ntag_143:\ntag_142:\n  add\n    /* \"contracts/1_Power.sol\":6717:6771  maxExpArray[77] = 0x04429a21a029d4c1457cfbffffffffffff */\n  dup2\n  swap1\n  sstore\n  pop\n    /* \"contracts/1_Power.sol\":6796:6832  0x0415bc6d6fb7dd71af2cb3ffffffffffff */\n  0x0415bc6d6fb7dd71af2cb3ffffffffffff\n    /* \"contracts/1_Power.sol\":6778:6789  maxExpArray */\n  0x01\n    /* \"contracts/1_Power.sol\":6790:6792  78 */\n  0x4e\n    /* \"contracts/1_Power.sol\":6778:6793  maxExpArray[78] */\n  0x80\n  dup2\n  lt\n  tag_145\n  jumpi\n  tag_146\n  tag_8\n  jump\t// in\ntag_146:\ntag_145:\n  add\n    /* \"contracts/1_Power.sol\":6778:6832  maxExpArray[78] = 0x0415bc6d6fb7dd71af2cb3ffffffffffff */\n  dup2\n  swap1\n  sstore\n  pop\n    /* \"contracts/1_Power.sol\":6857:6893  0x03eab73b3bbfe282243ce1ffffffffffff */\n  0x03eab73b3bbfe282243ce1ffffffffffff\n    /* \"contracts/1_Power.sol\":6839:6850  maxExpArray */\n  0x01\n    /* \"contracts/1_Power.sol\":6851:6853  79 */\n  0x4f\n    /* \"contracts/1_Power.sol\":6839:6854  maxExpArray[79] */\n  0x80\n  dup2\n  lt\n  tag_148\n  jumpi\n  tag_149\n  tag_8\n  jump\t// in\ntag_149:\ntag_148:\n  add\n    /* \"contracts/1_Power.sol\":6839:6893  maxExpArray[79] = 0x03eab73b3bbfe282243ce1ffffffffffff */\n  dup2\n  swap1\n  sstore\n  pop\n    /* \"contracts/1_Power.sol\":6918:6954  0x03c1771ac9fb6b4c18e229ffffffffffff */\n  0x03c1771ac9fb6b4c18e229ffffffffffff\n    /* \"contracts/1_Power.sol\":6900:6911  maxExpArray */\n  0x01\n    /* \"contracts/1_Power.sol\":6912:6914  80 */\n  0x50\n    /* \"contracts/1_Power.sol\":6900:6915  maxExpArray[80] */\n  0x80\n  dup2\n  lt\n  tag_151\n  jumpi\n  tag_152\n  tag_8\n  jump\t// in\ntag_152:\ntag_151:\n  add\n    /* \"contracts/1_Power.sol\":6900:6954  maxExpArray[80] = 0x03c1771ac9fb6b4c18e229ffffffffffff */\n  dup2\n  swap1\n  sstore\n  pop\n    /* \"contracts/1_Power.sol\":6979:7015  0x0399e96897690418f785257fffffffffff */\n  0x0399e96897690418f785257fffffffffff\n    /* \"contracts/1_Power.sol\":6961:6972  maxExpArray */\n  0x01\n    /* \"contracts/1_Power.sol\":6973:6975  81 */\n  0x51\n    /* \"contracts/1_Power.sol\":6961:6976  maxExpArray[81] */\n  0x80\n  dup2\n  lt\n  tag_154\n  jumpi\n  tag_155\n  tag_8\n  jump\t// in\ntag_155:\ntag_154:\n  add\n    /* \"contracts/1_Power.sol\":6961:7015  maxExpArray[81] = 0x0399e96897690418f785257fffffffffff */\n  dup2\n  swap1\n  sstore\n  pop\n    /* \"contracts/1_Power.sol\":7040:7076  0x0373fc456c53bb779bf0ea9fffffffffff */\n  0x0373fc456c53bb779bf0ea9fffffffffff\n    /* \"contracts/1_Power.sol\":7022:7033  maxExpArray */\n  0x01\n    /* \"contracts/1_Power.sol\":7034:7036  82 */\n  0x52\n    /* \"contracts/1_Power.sol\":7022:7037  maxExpArray[82] */\n  0x80\n  dup2\n  lt\n  tag_157\n  jumpi\n  tag_158\n  tag_8\n  jump\t// in\ntag_158:\ntag_157:\n  add\n    /* \"contracts/1_Power.sol\":7022:7076  maxExpArray[82] = 0x0373fc456c53bb779bf0ea9fffffffffff */\n  dup2\n  swap1\n  sstore\n  pop\n    /* \"contracts/1_Power.sol\":7101:7137  0x034f9e8e490c48e67e6ab8bfffffffffff */\n  0x034f9e8e490c48e67e6ab8bfffffffffff\n    /* \"contracts/1_Power.sol\":7083:7094  maxExpArray */\n  0x01\n    /* \"contracts/1_Power.sol\":7095:7097  83 */\n  0x53\n    /* \"contracts/1_Power.sol\":7083:7098  maxExpArray[83] */\n  0x80\n  dup2\n  lt\n  tag_160\n  jumpi\n  tag_161\n  tag_8\n  jump\t// in\ntag_161:\ntag_160:\n  add\n    /* \"contracts/1_Power.sol\":7083:7137  maxExpArray[83] = 0x034f9e8e490c48e67e6ab8bfffffffffff */\n  dup2\n  swap1\n  sstore\n  pop\n    /* \"contracts/1_Power.sol\":7162:7198  0x032cbfd4a7adc790560b3337ffffffffff */\n  0x032cbfd4a7adc790560b3337ffffffffff\n    /* \"contracts/1_Power.sol\":7144:7155  maxExpArray */\n  0x01\n    /* \"contracts/1_Power.sol\":7156:7158  84 */\n  0x54\n    /* \"contracts/1_Power.sol\":7144:7159  maxExpArray[84] */\n  0x80\n  dup2\n  lt\n  tag_163\n  jumpi\n  tag_164\n  tag_8\n  jump\t// in\ntag_164:\ntag_163:\n  add\n    /* \"contracts/1_Power.sol\":7144:7198  maxExpArray[84] = 0x032cbfd4a7adc790560b3337ffffffffff */\n  dup2\n  swap1\n  sstore\n  pop\n    /* \"contracts/1_Power.sol\":7223:7259  0x030b50570f6e5d2acca94613ffffffffff */\n  0x030b50570f6e5d2acca94613ffffffffff\n    /* \"contracts/1_Power.sol\":7205:7216  maxExpArray */\n  0x01\n    /* \"contracts/1_Power.sol\":7217:7219  85 */\n  0x55\n    /* \"contracts/1_Power.sol\":7205:7220  maxExpArray[85] */\n  0x80\n  dup2\n  lt\n  tag_166\n  jumpi\n  tag_167\n  tag_8\n  jump\t// in\ntag_167:\ntag_166:\n  add\n    /* \"contracts/1_Power.sol\":7205:7259  maxExpArray[85] = 0x030b50570f6e5d2acca94613ffffffffff */\n  dup2\n  swap1\n  sstore\n  pop\n    /* \"contracts/1_Power.sol\":7284:7320  0x02eb40f9f620fda6b56c2861ffffffffff */\n  0x02eb40f9f620fda6b56c2861ffffffffff\n    /* \"contracts/1_Power.sol\":7266:7277  maxExpArray */\n  0x01\n    /* \"contracts/1_Power.sol\":7278:7280  86 */\n  0x56\n    /* \"contracts/1_Power.sol\":7266:7281  maxExpArray[86] */\n  0x80\n  dup2\n  lt\n  tag_169\n  jumpi\n  tag_170\n  tag_8\n  jump\t// in\ntag_170:\ntag_169:\n  add\n    /* \"contracts/1_Power.sol\":7266:7320  maxExpArray[86] = 0x02eb40f9f620fda6b56c2861ffffffffff */\n  dup2\n  swap1\n  sstore\n  pop\n    /* \"contracts/1_Power.sol\":7345:7381  0x02cc8340ecb0d0f520a6af58ffffffffff */\n  0x02cc8340ecb0d0f520a6af58ffffffffff\n    /* \"contracts/1_Power.sol\":7327:7338  maxExpArray */\n  0x01\n    /* \"contracts/1_Power.sol\":7339:7341  87 */\n  0x57\n    /* \"contracts/1_Power.sol\":7327:7342  maxExpArray[87] */\n  0x80\n  dup2\n  lt\n  tag_172\n  jumpi\n  tag_173\n  tag_8\n  jump\t// in\ntag_173:\ntag_172:\n  add\n    /* \"contracts/1_Power.sol\":7327:7381  maxExpArray[87] = 0x02cc8340ecb0d0f520a6af58ffffffffff */\n  dup2\n  swap1\n  sstore\n  pop\n    /* \"contracts/1_Power.sol\":7406:7442  0x02af09481380a0a35cf1ba02ffffffffff */\n  0x02af09481380a0a35cf1ba02ffffffffff\n    /* \"contracts/1_Power.sol\":7388:7399  maxExpArray */\n  0x01\n    /* \"contracts/1_Power.sol\":7400:7402  88 */\n  0x58\n    /* \"contracts/1_Power.sol\":7388:7403  maxExpArray[88] */\n  0x80\n  dup2\n  lt\n  tag_175\n  jumpi\n  tag_176\n  tag_8\n  jump\t// in\ntag_176:\ntag_175:\n  add\n    /* \"contracts/1_Power.sol\":7388:7442  maxExpArray[88] = 0x02af09481380a0a35cf1ba02ffffffffff */\n  dup2\n  swap1\n  sstore\n  pop\n    /* \"contracts/1_Power.sol\":7467:7503  0x0292c5bdd3b92ec810287b1b3fffffffff */\n  0x0292c5bdd3b92ec810287b1b3fffffffff\n    /* \"contracts/1_Power.sol\":7449:7460  maxExpArray */\n  0x01\n    /* \"contracts/1_Power.sol\":7461:7463  89 */\n  0x59\n    /* \"contracts/1_Power.sol\":7449:7464  maxExpArray[89] */\n  0x80\n  dup2\n  lt\n  tag_178\n  jumpi\n  tag_179\n  tag_8\n  jump\t// in\ntag_179:\ntag_178:\n  add\n    /* \"contracts/1_Power.sol\":7449:7503  maxExpArray[89] = 0x0292c5bdd3b92ec810287b1b3fffffffff */\n  dup2\n  swap1\n  sstore\n  pop\n    /* \"contracts/1_Power.sol\":7528:7564  0x0277abdcdab07d5a77ac6d6b9fffffffff */\n  0x0277abdcdab07d5a77ac6d6b9fffffffff\n    /* \"contracts/1_Power.sol\":7510:7521  maxExpArray */\n  0x01\n    /* \"contracts/1_Power.sol\":7522:7524  90 */\n  0x5a\n    /* \"contracts/1_Power.sol\":7510:7525  maxExpArray[90] */\n  0x80\n  dup2\n  lt\n  tag_181\n  jumpi\n  tag_182\n  tag_8\n  jump\t// in\ntag_182:\ntag_181:\n  add\n    /* \"contracts/1_Power.sol\":7510:7564  maxExpArray[90] = 0x0277abdcdab07d5a77ac6d6b9fffffffff */\n  dup2\n  swap1\n  sstore\n  pop\n    /* \"contracts/1_Power.sol\":7589:7625  0x025daf6654b1eaa55fd64df5efffffffff */\n  0x025daf6654b1eaa55fd64df5efffffffff\n    /* \"contracts/1_Power.sol\":7571:7582  maxExpArray */\n  0x01\n    /* \"contracts/1_Power.sol\":7583:7585  91 */\n  0x5b\n    /* \"contracts/1_Power.sol\":7571:7586  maxExpArray[91] */\n  0x80\n  dup2\n  lt\n  tag_184\n  jumpi\n  tag_185\n  tag_8\n  jump\t// in\ntag_185:\ntag_184:\n  add\n    /* \"contracts/1_Power.sol\":7571:7625  maxExpArray[91] = 0x025daf6654b1eaa55fd64df5efffffffff */\n  dup2\n  swap1\n  sstore\n  pop\n    /* \"contracts/1_Power.sol\":7650:7686  0x0244c49c648baa98192dce88b7ffffffff */\n  0x0244c49c648baa98192dce88b7ffffffff\n    /* \"contracts/1_Power.sol\":7632:7643  maxExpArray */\n  0x01\n    /* \"contracts/1_Power.sol\":7644:7646  92 */\n  0x5c\n    /* \"contracts/1_Power.sol\":7632:7647  maxExpArray[92] */\n  0x80\n  dup2\n  lt\n  tag_187\n  jumpi\n  tag_188\n  tag_8\n  jump\t// in\ntag_188:\ntag_187:\n  add\n    /* \"contracts/1_Power.sol\":7632:7686  maxExpArray[92] = 0x0244c49c648baa98192dce88b7ffffffff */\n  dup2\n  swap1\n  sstore\n  pop\n    /* \"contracts/1_Power.sol\":7711:7747  0x022ce03cd5619a311b2471268bffffffff */\n  0x022ce03cd5619a311b2471268bffffffff\n    /* \"contracts/1_Power.sol\":7693:7704  maxExpArray */\n  0x01\n    /* \"contracts/1_Power.sol\":7705:7707  93 */\n  0x5d\n    /* \"contracts/1_Power.sol\":7693:7708  maxExpArray[93] */\n  0x80\n  dup2\n  lt\n  tag_190\n  jumpi\n  tag_191\n  tag_8\n  jump\t// in\ntag_191:\ntag_190:\n  add\n    /* \"contracts/1_Power.sol\":7693:7747  maxExpArray[93] = 0x022ce03cd5619a311b2471268bffffffff */\n  dup2\n  swap1\n  sstore\n  pop\n    /* \"contracts/1_Power.sol\":7772:7808  0x0215f77c045fbe885654a44a0fffffffff */\n  0x0215f77c045fbe885654a44a0fffffffff\n    /* \"contracts/1_Power.sol\":7754:7765  maxExpArray */\n  0x01\n    /* \"contracts/1_Power.sol\":7766:7768  94 */\n  0x5e\n    /* \"contracts/1_Power.sol\":7754:7769  maxExpArray[94] */\n  0x80\n  dup2\n  lt\n  tag_193\n  jumpi\n  tag_194\n  tag_8\n  jump\t// in\ntag_194:\ntag_193:\n  add\n    /* \"contracts/1_Power.sol\":7754:7808  maxExpArray[94] = 0x0215f77c045fbe885654a44a0fffffffff */\n  dup2\n  swap1\n  sstore\n  pop\n    /* \"contracts/1_Power.sol\":7833:7869  0x01ffffffffffffffffffffffffffffffff */\n  0x01ffffffffffffffffffffffffffffffff\n    /* \"contracts/1_Power.sol\":7815:7826  maxExpArray */\n  0x01\n    /* \"contracts/1_Power.sol\":7827:7829  95 */\n  0x5f\n    /* \"contracts/1_Power.sol\":7815:7830  maxExpArray[95] */\n  0x80\n  dup2\n  lt\n  tag_196\n  jumpi\n  tag_197\n  tag_8\n  jump\t// in\ntag_197:\ntag_196:\n  add\n    /* \"contracts/1_Power.sol\":7815:7869  maxExpArray[95] = 0x01ffffffffffffffffffffffffffffffff */\n  dup2\n  swap1\n  sstore\n  pop\n    /* \"contracts/1_Power.sol\":7894:7930  0x01eaefdbdaaee7421fc4d3ede5ffffffff */\n  0x01eaefdbdaaee7421fc4d3ede5ffffffff\n    /* \"contracts/1_Power.sol\":7876:7887  maxExpArray */\n  0x01\n    /* \"contracts/1_Power.sol\":7888:7890  96 */\n  0x60\n    /* \"contracts/1_Power.sol\":7876:7891  maxExpArray[96] */\n  0x80\n  dup2\n  lt\n  tag_199\n  jumpi\n  tag_200\n  tag_8\n  jump\t// in\ntag_200:\ntag_199:\n  add\n    /* \"contracts/1_Power.sol\":7876:7930  maxExpArray[96] = 0x01eaefdbdaaee7421fc4d3ede5ffffffff */\n  dup2\n  swap1\n  sstore\n  pop\n    /* \"contracts/1_Power.sol\":7955:7991  0x01d6bd8b2eb257df7e8ca57b09bfffffff */\n  0x01d6bd8b2eb257df7e8ca57b09bfffffff\n    /* \"contracts/1_Power.sol\":7937:7948  maxExpArray */\n  0x01\n    /* \"contracts/1_Power.sol\":7949:7951  97 */\n  0x61\n    /* \"contracts/1_Power.sol\":7937:7952  maxExpArray[97] */\n  0x80\n  dup2\n  lt\n  tag_202\n  jumpi\n  tag_203\n  tag_8\n  jump\t// in\ntag_203:\ntag_202:\n  add\n    /* \"contracts/1_Power.sol\":7937:7991  maxExpArray[97] = 0x01d6bd8b2eb257df7e8ca57b09bfffffff */\n  dup2\n  swap1\n  sstore\n  pop\n    /* \"contracts/1_Power.sol\":8016:8052  0x01c35fedd14b861eb0443f7f133fffffff */\n  0x01c35fedd14b861eb0443f7f133fffffff\n    /* \"contracts/1_Power.sol\":7998:8009  maxExpArray */\n  0x01\n    /* \"contracts/1_Power.sol\":8010:8012  98 */\n  0x62\n    /* \"contracts/1_Power.sol\":7998:8013  maxExpArray[98] */\n  0x80\n  dup2\n  lt\n  tag_205\n  jumpi\n  tag_206\n  tag_8\n  jump\t// in\ntag_206:\ntag_205:\n  add\n    /* \"contracts/1_Power.sol\":7998:8052  maxExpArray[98] = 0x01c35fedd14b861eb0443f7f133fffffff */\n  dup2\n  swap1\n  sstore\n  pop\n    /* \"contracts/1_Power.sol\":8077:8113  0x01b0ce43b322bcde4a56e8ada5afffffff */\n  0x01b0ce43b322bcde4a56e8ada5afffffff\n    /* \"contracts/1_Power.sol\":8059:8070  maxExpArray */\n  0x01\n    /* \"contracts/1_Power.sol\":8071:8073  99 */\n  0x63\n    /* \"contracts/1_Power.sol\":8059:8074  maxExpArray[99] */\n  0x80\n  dup2\n  lt\n  tag_208\n  jumpi\n  tag_209\n  tag_8\n  jump\t// in\ntag_209:\ntag_208:\n  add\n    /* \"contracts/1_Power.sol\":8059:8113  maxExpArray[99] = 0x01b0ce43b322bcde4a56e8ada5afffffff */\n  dup2\n  swap1\n  sstore\n  pop\n    /* \"contracts/1_Power.sol\":8139:8175  0x019f0028ec1fff007f5a195a39dfffffff */\n  0x019f0028ec1fff007f5a195a39dfffffff\n    /* \"contracts/1_Power.sol\":8120:8131  maxExpArray */\n  0x01\n    /* \"contracts/1_Power.sol\":8132:8135  100 */\n  0x64\n    /* \"contracts/1_Power.sol\":8120:8136  maxExpArray[100] */\n  0x80\n  dup2\n  lt\n  tag_211\n  jumpi\n  tag_212\n  tag_8\n  jump\t// in\ntag_212:\ntag_211:\n  add\n    /* \"contracts/1_Power.sol\":8120:8175  maxExpArray[100] = 0x019f0028ec1fff007f5a195a39dfffffff */\n  dup2\n  swap1\n  sstore\n  pop\n    /* \"contracts/1_Power.sol\":8201:8237  0x018ded91f0e72ee74f49b15ba527ffffff */\n  0x018ded91f0e72ee74f49b15ba527ffffff\n    /* \"contracts/1_Power.sol\":8182:8193  maxExpArray */\n  0x01\n    /* \"contracts/1_Power.sol\":8194:8197  101 */\n  0x65\n    /* \"contracts/1_Power.sol\":8182:8198  maxExpArray[101] */\n  0x80\n  dup2\n  lt\n  tag_214\n  jumpi\n  tag_215\n  tag_8\n  jump\t// in\ntag_215:\ntag_214:\n  add\n    /* \"contracts/1_Power.sol\":8182:8237  maxExpArray[101] = 0x018ded91f0e72ee74f49b15ba527ffffff */\n  dup2\n  swap1\n  sstore\n  pop\n    /* \"contracts/1_Power.sol\":8263:8299  0x017d8ec7f04136f4e5615fd41a63ffffff */\n  0x017d8ec7f04136f4e5615fd41a63ffffff\n    /* \"contracts/1_Power.sol\":8244:8255  maxExpArray */\n  0x01\n    /* \"contracts/1_Power.sol\":8256:8259  102 */\n  0x66\n    /* \"contracts/1_Power.sol\":8244:8260  maxExpArray[102] */\n  0x80\n  dup2\n  lt\n  tag_217\n  jumpi\n  tag_218\n  tag_8\n  jump\t// in\ntag_218:\ntag_217:\n  add\n    /* \"contracts/1_Power.sol\":8244:8299  maxExpArray[102] = 0x017d8ec7f04136f4e5615fd41a63ffffff */\n  dup2\n  swap1\n  sstore\n  pop\n    /* \"contracts/1_Power.sol\":8325:8361  0x016ddc6556cdb84bdc8d12d22e6fffffff */\n  0x016ddc6556cdb84bdc8d12d22e6fffffff\n    /* \"contracts/1_Power.sol\":8306:8317  maxExpArray */\n  0x01\n    /* \"contracts/1_Power.sol\":8318:8321  103 */\n  0x67\n    /* \"contracts/1_Power.sol\":8306:8322  maxExpArray[103] */\n  0x80\n  dup2\n  lt\n  tag_220\n  jumpi\n  tag_221\n  tag_8\n  jump\t// in\ntag_221:\ntag_220:\n  add\n    /* \"contracts/1_Power.sol\":8306:8361  maxExpArray[103] = 0x016ddc6556cdb84bdc8d12d22e6fffffff */\n  dup2\n  swap1\n  sstore\n  pop\n    /* \"contracts/1_Power.sol\":8387:8423  0x015ecf52776a1155b5bd8395814f7fffff */\n  0x015ecf52776a1155b5bd8395814f7fffff\n    /* \"contracts/1_Power.sol\":8368:8379  maxExpArray */\n  0x01\n    /* \"contracts/1_Power.sol\":8380:8383  104 */\n  0x68\n    /* \"contracts/1_Power.sol\":8368:8384  maxExpArray[104] */\n  0x80\n  dup2\n  lt\n  tag_223\n  jumpi\n  tag_224\n  tag_8\n  jump\t// in\ntag_224:\ntag_223:\n  add\n    /* \"contracts/1_Power.sol\":8368:8423  maxExpArray[104] = 0x015ecf52776a1155b5bd8395814f7fffff */\n  dup2\n  swap1\n  sstore\n  pop\n    /* \"contracts/1_Power.sol\":8449:8485  0x015060c256cb23b3b3cc3754cf40ffffff */\n  0x015060c256cb23b3b3cc3754cf40ffffff\n    /* \"contracts/1_Power.sol\":8430:8441  maxExpArray */\n  0x01\n    /* \"contracts/1_Power.sol\":8442:8445  105 */\n  0x69\n    /* \"contracts/1_Power.sol\":8430:8446  maxExpArray[105] */\n  0x80\n  dup2\n  lt\n  tag_226\n  jumpi\n  tag_227\n  tag_8\n  jump\t// in\ntag_227:\ntag_226:\n  add\n    /* \"contracts/1_Power.sol\":8430:8485  maxExpArray[105] = 0x015060c256cb23b3b3cc3754cf40ffffff */\n  dup2\n  swap1\n  sstore\n  pop\n    /* \"contracts/1_Power.sol\":8511:8547  0x01428a2f98d728ae223ddab715be3fffff */\n  0x01428a2f98d728ae223ddab715be3fffff\n    /* \"contracts/1_Power.sol\":8492:8503  maxExpArray */\n  0x01\n    /* \"contracts/1_Power.sol\":8504:8507  106 */\n  0x6a\n    /* \"contracts/1_Power.sol\":8492:8508  maxExpArray[106] */\n  0x80\n  dup2\n  lt\n  tag_229\n  jumpi\n  tag_230\n  tag_8\n  jump\t// in\ntag_230:\ntag_229:\n  add\n    /* \"contracts/1_Power.sol\":8492:8547  maxExpArray[106] = 0x01428a2f98d728ae223ddab715be3fffff */\n  dup2\n  swap1\n  sstore\n  pop\n    /* \"contracts/1_Power.sol\":8573:8609  0x013545598e5c23276ccf0ede68034fffff */\n  0x013545598e5c23276ccf0ede68034fffff\n    /* \"contracts/1_Power.sol\":8554:8565  maxExpArray */\n  0x01\n    /* \"contracts/1_Power.sol\":8566:8569  107 */\n  0x6b\n    /* \"contracts/1_Power.sol\":8554:8570  maxExpArray[107] */\n  0x80\n  dup2\n  lt\n  tag_232\n  jumpi\n  tag_233\n  tag_8\n  jump\t// in\ntag_233:\ntag_232:\n  add\n    /* \"contracts/1_Power.sol\":8554:8609  maxExpArray[107] = 0x013545598e5c23276ccf0ede68034fffff */\n  dup2\n  swap1\n  sstore\n  pop\n    /* \"contracts/1_Power.sol\":8635:8671  0x01288c4161ce1d6f54b7f61081194fffff */\n  0x01288c4161ce1d6f54b7f61081194fffff\n    /* \"contracts/1_Power.sol\":8616:8627  maxExpArray */\n  0x01\n    /* \"contracts/1_Power.sol\":8628:8631  108 */\n  0x6c\n    /* \"contracts/1_Power.sol\":8616:8632  maxExpArray[108] */\n  0x80\n  dup2\n  lt\n  tag_235\n  jumpi\n  tag_236\n  tag_8\n  jump\t// in\ntag_236:\ntag_235:\n  add\n    /* \"contracts/1_Power.sol\":8616:8671  maxExpArray[108] = 0x01288c4161ce1d6f54b7f61081194fffff */\n  dup2\n  swap1\n  sstore\n  pop\n    /* \"contracts/1_Power.sol\":8697:8733  0x011c592761c666aa641d5a01a40f17ffff */\n  0x011c592761c666aa641d5a01a40f17ffff\n    /* \"contracts/1_Power.sol\":8678:8689  maxExpArray */\n  0x01\n    /* \"contracts/1_Power.sol\":8690:8693  109 */\n  0x6d\n    /* \"contracts/1_Power.sol\":8678:8694  maxExpArray[109] */\n  0x80\n  dup2\n  lt\n  tag_238\n  jumpi\n  tag_239\n  tag_8\n  jump\t// in\ntag_239:\ntag_238:\n  add\n    /* \"contracts/1_Power.sol\":8678:8733  maxExpArray[109] = 0x011c592761c666aa641d5a01a40f17ffff */\n  dup2\n  swap1\n  sstore\n  pop\n    /* \"contracts/1_Power.sol\":8759:8795  0x0110a688680a7530515f3e6e6cfdcdffff */\n  0x0110a688680a7530515f3e6e6cfdcdffff\n    /* \"contracts/1_Power.sol\":8740:8751  maxExpArray */\n  0x01\n    /* \"contracts/1_Power.sol\":8752:8755  110 */\n  0x6e\n    /* \"contracts/1_Power.sol\":8740:8756  maxExpArray[110] */\n  0x80\n  dup2\n  lt\n  tag_241\n  jumpi\n  tag_242\n  tag_8\n  jump\t// in\ntag_242:\ntag_241:\n  add\n    /* \"contracts/1_Power.sol\":8740:8795  maxExpArray[110] = 0x0110a688680a7530515f3e6e6cfdcdffff */\n  dup2\n  swap1\n  sstore\n  pop\n    /* \"contracts/1_Power.sol\":8821:8857  0x01056f1b5bedf75c6bcb2ce8aed428ffff */\n  0x01056f1b5bedf75c6bcb2ce8aed428ffff\n    /* \"contracts/1_Power.sol\":8802:8813  maxExpArray */\n  0x01\n    /* \"contracts/1_Power.sol\":8814:8817  111 */\n  0x6f\n    /* \"contracts/1_Power.sol\":8802:8818  maxExpArray[111] */\n  0x80\n  dup2\n  lt\n  tag_244\n  jumpi\n  tag_245\n  tag_8\n  jump\t// in\ntag_245:\ntag_244:\n  add\n    /* \"contracts/1_Power.sol\":8802:8857  maxExpArray[111] = 0x01056f1b5bedf75c6bcb2ce8aed428ffff */\n  dup2\n  swap1\n  sstore\n  pop\n    /* \"contracts/1_Power.sol\":8883:8919  0x00faadceceeff8a0890f3875f008277fff */\n  0xfaadceceeff8a0890f3875f008277fff\n    /* \"contracts/1_Power.sol\":8864:8875  maxExpArray */\n  0x01\n    /* \"contracts/1_Power.sol\":8876:8879  112 */\n  0x70\n    /* \"contracts/1_Power.sol\":8864:8880  maxExpArray[112] */\n  0x80\n  dup2\n  lt\n  tag_247\n  jumpi\n  tag_248\n  tag_8\n  jump\t// in\ntag_248:\ntag_247:\n  add\n    /* \"contracts/1_Power.sol\":8864:8919  maxExpArray[112] = 0x00faadceceeff8a0890f3875f008277fff */\n  dup2\n  swap1\n  sstore\n  pop\n    /* \"contracts/1_Power.sol\":8945:8981  0x00f05dc6b27edad306388a600f6ba0bfff */\n  0xf05dc6b27edad306388a600f6ba0bfff\n    /* \"contracts/1_Power.sol\":8926:8937  maxExpArray */\n  0x01\n    /* \"contracts/1_Power.sol\":8938:8941  113 */\n  0x71\n    /* \"contracts/1_Power.sol\":8926:8942  maxExpArray[113] */\n  0x80\n  dup2\n  lt\n  tag_250\n  jumpi\n  tag_251\n  tag_8\n  jump\t// in\ntag_251:\ntag_250:\n  add\n    /* \"contracts/1_Power.sol\":8926:8981  maxExpArray[113] = 0x00f05dc6b27edad306388a600f6ba0bfff */\n  dup2\n  swap1\n  sstore\n  pop\n    /* \"contracts/1_Power.sol\":9007:9043  0x00e67a5a25da41063de1495d5b18cdbfff */\n  0xe67a5a25da41063de1495d5b18cdbfff\n    /* \"contracts/1_Power.sol\":8988:8999  maxExpArray */\n  0x01\n    /* \"contracts/1_Power.sol\":9000:9003  114 */\n  0x72\n    /* \"contracts/1_Power.sol\":8988:9004  maxExpArray[114] */\n  0x80\n  dup2\n  lt\n  tag_253\n  jumpi\n  tag_254\n  tag_8\n  jump\t// in\ntag_254:\ntag_253:\n  add\n    /* \"contracts/1_Power.sol\":8988:9043  maxExpArray[114] = 0x00e67a5a25da41063de1495d5b18cdbfff */\n  dup2\n  swap1\n  sstore\n  pop\n    /* \"contracts/1_Power.sol\":9069:9105  0x00dcff115b14eedde6fc3aa5353f2e4fff */\n  0xdcff115b14eedde6fc3aa5353f2e4fff\n    /* \"contracts/1_Power.sol\":9050:9061  maxExpArray */\n  0x01\n    /* \"contracts/1_Power.sol\":9062:9065  115 */\n  0x73\n    /* \"contracts/1_Power.sol\":9050:9066  maxExpArray[115] */\n  0x80\n  dup2\n  lt\n  tag_256\n  jumpi\n  tag_257\n  tag_8\n  jump\t// in\ntag_257:\ntag_256:\n  add\n    /* \"contracts/1_Power.sol\":9050:9105  maxExpArray[115] = 0x00dcff115b14eedde6fc3aa5353f2e4fff */\n  dup2\n  swap1\n  sstore\n  pop\n    /* \"contracts/1_Power.sol\":9131:9167  0x00d3e7a3924312399f9aae2e0f868f8fff */\n  0xd3e7a3924312399f9aae2e0f868f8fff\n    /* \"contracts/1_Power.sol\":9112:9123  maxExpArray */\n  0x01\n    /* \"contracts/1_Power.sol\":9124:9127  116 */\n  0x74\n    /* \"contracts/1_Power.sol\":9112:9128  maxExpArray[116] */\n  0x80\n  dup2\n  lt\n  tag_259\n  jumpi\n  tag_260\n  tag_8\n  jump\t// in\ntag_260:\ntag_259:\n  add\n    /* \"contracts/1_Power.sol\":9112:9167  maxExpArray[116] = 0x00d3e7a3924312399f9aae2e0f868f8fff */\n  dup2\n  swap1\n  sstore\n  pop\n    /* \"contracts/1_Power.sol\":9193:9229  0x00cb2ff529eb71e41582cccd5a1ee26fff */\n  0xcb2ff529eb71e41582cccd5a1ee26fff\n    /* \"contracts/1_Power.sol\":9174:9185  maxExpArray */\n  0x01\n    /* \"contracts/1_Power.sol\":9186:9189  117 */\n  0x75\n    /* \"contracts/1_Power.sol\":9174:9190  maxExpArray[117] */\n  0x80\n  dup2\n  lt\n  tag_262\n  jumpi\n  tag_263\n  tag_8\n  jump\t// in\ntag_263:\ntag_262:\n  add\n    /* \"contracts/1_Power.sol\":9174:9229  maxExpArray[117] = 0x00cb2ff529eb71e41582cccd5a1ee26fff */\n  dup2\n  swap1\n  sstore\n  pop\n    /* \"contracts/1_Power.sol\":9255:9291  0x00c2d415c3db974ab32a51840c0b67edff */\n  0xc2d415c3db974ab32a51840c0b67edff\n    /* \"contracts/1_Power.sol\":9236:9247  maxExpArray */\n  0x01\n    /* \"contracts/1_Power.sol\":9248:9251  118 */\n  0x76\n    /* \"contracts/1_Power.sol\":9236:9252  maxExpArray[118] */\n  0x80\n  dup2\n  lt\n  tag_265\n  jumpi\n  tag_266\n  tag_8\n  jump\t// in\ntag_266:\ntag_265:\n  add\n    /* \"contracts/1_Power.sol\":9236:9291  maxExpArray[118] = 0x00c2d415c3db974ab32a51840c0b67edff */\n  dup2\n  swap1\n  sstore\n  pop\n    /* \"contracts/1_Power.sol\":9317:9353  0x00bad03e7d883f69ad5b0a186184e06bff */\n  0xbad03e7d883f69ad5b0a186184e06bff\n    /* \"contracts/1_Power.sol\":9298:9309  maxExpArray */\n  0x01\n    /* \"contracts/1_Power.sol\":9310:9313  119 */\n  0x77\n    /* \"contracts/1_Power.sol\":9298:9314  maxExpArray[119] */\n  0x80\n  dup2\n  lt\n  tag_268\n  jumpi\n  tag_269\n  tag_8\n  jump\t// in\ntag_269:\ntag_268:\n  add\n    /* \"contracts/1_Power.sol\":9298:9353  maxExpArray[119] = 0x00bad03e7d883f69ad5b0a186184e06bff */\n  dup2\n  swap1\n  sstore\n  pop\n    /* \"contracts/1_Power.sol\":9379:9415  0x00b320d03b2c343d4829abd6075f0cc5ff */\n  0xb320d03b2c343d4829abd6075f0cc5ff\n    /* \"contracts/1_Power.sol\":9360:9371  maxExpArray */\n  0x01\n    /* \"contracts/1_Power.sol\":9372:9375  120 */\n  0x78\n    /* \"contracts/1_Power.sol\":9360:9376  maxExpArray[120] */\n  0x80\n  dup2\n  lt\n  tag_271\n  jumpi\n  tag_272\n  tag_8\n  jump\t// in\ntag_272:\ntag_271:\n  add\n    /* \"contracts/1_Power.sol\":9360:9415  maxExpArray[120] = 0x00b320d03b2c343d4829abd6075f0cc5ff */\n  dup2\n  swap1\n  sstore\n  pop\n    /* \"contracts/1_Power.sol\":9441:9477  0x00abc25204e02828d73c6e80bcdb1a95bf */\n  0xabc25204e02828d73c6e80bcdb1a95bf\n    /* \"contracts/1_Power.sol\":9422:9433  maxExpArray */\n  0x01\n    /* \"contracts/1_Power.sol\":9434:9437  121 */\n  0x79\n    /* \"contracts/1_Power.sol\":9422:9438  maxExpArray[121] */\n  0x80\n  dup2\n  lt\n  tag_274\n  jumpi\n  tag_275\n  tag_8\n  jump\t// in\ntag_275:\ntag_274:\n  add\n    /* \"contracts/1_Power.sol\":9422:9477  maxExpArray[121] = 0x00abc25204e02828d73c6e80bcdb1a95bf */\n  dup2\n  swap1\n  sstore\n  pop\n    /* \"contracts/1_Power.sol\":9503:9539  0x00a4b16f74ee4bb2040a1ec6c15fbbf2df */\n  0xa4b16f74ee4bb2040a1ec6c15fbbf2df\n    /* \"contracts/1_Power.sol\":9484:9495  maxExpArray */\n  0x01\n    /* \"contracts/1_Power.sol\":9496:9499  122 */\n  0x7a\n    /* \"contracts/1_Power.sol\":9484:9500  maxExpArray[122] */\n  0x80\n  dup2\n  lt\n  tag_277\n  jumpi\n  tag_278\n  tag_8\n  jump\t// in\ntag_278:\ntag_277:\n  add\n    /* \"contracts/1_Power.sol\":9484:9539  maxExpArray[122] = 0x00a4b16f74ee4bb2040a1ec6c15fbbf2df */\n  dup2\n  swap1\n  sstore\n  pop\n    /* \"contracts/1_Power.sol\":9565:9601  0x009deaf736ac1f569deb1b5ae3f36c130f */\n  0x9deaf736ac1f569deb1b5ae3f36c130f\n    /* \"contracts/1_Power.sol\":9546:9557  maxExpArray */\n  0x01\n    /* \"contracts/1_Power.sol\":9558:9561  123 */\n  0x7b\n    /* \"contracts/1_Power.sol\":9546:9562  maxExpArray[123] */\n  0x80\n  dup2\n  lt\n  tag_280\n  jumpi\n  tag_281\n  tag_8\n  jump\t// in\ntag_281:\ntag_280:\n  add\n    /* \"contracts/1_Power.sol\":9546:9601  maxExpArray[123] = 0x009deaf736ac1f569deb1b5ae3f36c130f */\n  dup2\n  swap1\n  sstore\n  pop\n    /* \"contracts/1_Power.sol\":9627:9663  0x00976bd9952c7aa957f5937d790ef65037 */\n  0x976bd9952c7aa957f5937d790ef65037\n    /* \"contracts/1_Power.sol\":9608:9619  maxExpArray */\n  0x01\n    /* \"contracts/1_Power.sol\":9620:9623  124 */\n  0x7c\n    /* \"contracts/1_Power.sol\":9608:9624  maxExpArray[124] */\n  0x80\n  dup2\n  lt\n  tag_283\n  jumpi\n  tag_284\n  tag_8\n  jump\t// in\ntag_284:\ntag_283:\n  add\n    /* \"contracts/1_Power.sol\":9608:9663  maxExpArray[124] = 0x00976bd9952c7aa957f5937d790ef65037 */\n  dup2\n  swap1\n  sstore\n  pop\n    /* \"contracts/1_Power.sol\":9689:9725  0x009131271922eaa6064b73a22d0bd4f2bf */\n  0x9131271922eaa6064b73a22d0bd4f2bf\n    /* \"contracts/1_Power.sol\":9670:9681  maxExpArray */\n  0x01\n    /* \"contracts/1_Power.sol\":9682:9685  125 */\n  0x7d\n    /* \"contracts/1_Power.sol\":9670:9686  maxExpArray[125] */\n  0x80\n  dup2\n  lt\n  tag_286\n  jumpi\n  tag_287\n  tag_8\n  jump\t// in\ntag_287:\ntag_286:\n  add\n    /* \"contracts/1_Power.sol\":9670:9725  maxExpArray[125] = 0x009131271922eaa6064b73a22d0bd4f2bf */\n  dup2\n  swap1\n  sstore\n  pop\n    /* \"contracts/1_Power.sol\":9751:9787  0x008b380f3558668c46c91c49a2f8e967b9 */\n  0x8b380f3558668c46c91c49a2f8e967b9\n    /* \"contracts/1_Power.sol\":9732:9743  maxExpArray */\n  0x01\n    /* \"contracts/1_Power.sol\":9744:9747  126 */\n  0x7e\n    /* \"contracts/1_Power.sol\":9732:9748  maxExpArray[126] */\n  0x80\n  dup2\n  lt\n  tag_289\n  jumpi\n  tag_290\n  tag_8\n  jump\t// in\ntag_290:\ntag_289:\n  add\n    /* \"contracts/1_Power.sol\":9732:9787  maxExpArray[126] = 0x008b380f3558668c46c91c49a2f8e967b9 */\n  dup2\n  swap1\n  sstore\n  pop\n    /* \"contracts/1_Power.sol\":9813:9849  0x00857ddf0117efa215952912839f6473e6 */\n  0x857ddf0117efa215952912839f6473e6\n    /* \"contracts/1_Power.sol\":9794:9805  maxExpArray */\n  0x01\n    /* \"contracts/1_Power.sol\":9806:9809  127 */\n  0x7f\n    /* \"contracts/1_Power.sol\":9794:9810  maxExpArray[127] */\n  0x80\n  dup2\n  lt\n  tag_292\n  jumpi\n  tag_293\n  tag_8\n  jump\t// in\ntag_293:\ntag_292:\n  add\n    /* \"contracts/1_Power.sol\":9794:9849  maxExpArray[127] = 0x00857ddf0117efa215952912839f6473e6 */\n  dup2\n  swap1\n  sstore\n  pop\n    /* \"contracts/1_Power.sol\":588:24421  contract Power {\r... */\n  jump(tag_295)\ntag_2:\n  dup3\n  dup1\n  sload\n  tag_296\n  swap1\n  tag_297\n  jump\t// in\ntag_296:\n  swap1\n  0x00\n  mstore\n  keccak256(0x00, 0x20)\n  swap1\n  0x1f\n  add\n  0x20\n  swap1\n  div\n  dup2\n  add\n  swap3\n  dup3\n  tag_299\n  jumpi\n  0x00\n  dup6\n  sstore\n  jump(tag_298)\ntag_299:\n  dup3\n  0x1f\n  lt\n  tag_300\n  jumpi\n  dup1\n  mload\n  not(0xff)\n  and\n  dup4\n  dup1\n  add\n  or\n  dup6\n  sstore\n  jump(tag_298)\ntag_300:\n  dup3\n  dup1\n  add\n  0x01\n  add\n  dup6\n  sstore\n  dup3\n  iszero\n  tag_298\n  jumpi\n  swap2\n  dup3\n  add\ntag_301:\n  dup3\n  dup2\n  gt\n  iszero\n  tag_302\n  jumpi\n  dup3\n  mload\n  dup3\n  sstore\n  swap2\n  0x20\n  add\n  swap2\n  swap1\n  0x01\n  add\n  swap1\n  jump(tag_301)\ntag_302:\ntag_298:\n  pop\n  swap1\n  pop\n  tag_303\n  swap2\n  swap1\n  tag_304\n  jump\t// in\ntag_303:\n  pop\n  swap1\n  jump\t// out\ntag_304:\ntag_305:\n  dup1\n  dup3\n  gt\n  iszero\n  tag_306\n  jumpi\n  0x00\n  dup2\n  0x00\n  swap1\n  sstore\n  pop\n  0x01\n  add\n  jump(tag_305)\ntag_306:\n  pop\n  swap1\n  jump\t// out\n    /* \"#utility.yul\":7:327   */\ntag_297:\n    /* \"#utility.yul\":51:57   */\n  0x00\n    /* \"#utility.yul\":88:89   */\n  0x02\n    /* \"#utility.yul\":82:86   */\n  dup3\n    /* \"#utility.yul\":78:90   */\n  div\n    /* \"#utility.yul\":68:90   */\n  swap1\n  pop\n    /* \"#utility.yul\":135:136   */\n  0x01\n    /* \"#utility.yul\":129:133   */\n  dup3\n    /* \"#utility.yul\":125:137   */\n  and\n    /* \"#utility.yul\":156:174   */\n  dup1\n    /* \"#utility.yul\":146:227   */\n  tag_309\n  jumpi\n    /* \"#utility.yul\":212:216   */\n  0x7f\n    /* \"#utility.yul\":204:210   */\n  dup3\n    /* \"#utility.yul\":200:217   */\n  and\n    /* \"#utility.yul\":190:217   */\n  swap2\n  pop\n    /* \"#utility.yul\":146:227   */\ntag_309:\n    /* \"#utility.yul\":274:276   */\n  0x20\n    /* \"#utility.yul\":266:272   */\n  dup3\n    /* \"#utility.yul\":263:277   */\n  lt\n    /* \"#utility.yul\":243:261   */\n  dup2\n    /* \"#utility.yul\":240:278   */\n  eq\n    /* \"#utility.yul\":237:321   */\n  iszero\n  tag_310\n  jumpi\n    /* \"#utility.yul\":293:311   */\n  tag_311\n  tag_312\n  jump\t// in\ntag_311:\n    /* \"#utility.yul\":237:321   */\ntag_310:\n    /* \"#utility.yul\":58:327   */\n  pop\n    /* \"#utility.yul\":7:327   */\n  swap2\n  swap1\n  pop\n  jump\t// out\n    /* \"#utility.yul\":333:513   */\ntag_312:\n    /* \"#utility.yul\":381:458   */\n  0x4e487b7100000000000000000000000000000000000000000000000000000000\n    /* \"#utility.yul\":378:379   */\n  0x00\n    /* \"#utility.yul\":371:459   */\n  mstore\n    /* \"#utility.yul\":478:482   */\n  0x22\n    /* \"#utility.yul\":475:476   */\n  0x04\n    /* \"#utility.yul\":468:483   */\n  mstore\n    /* \"#utility.yul\":502:506   */\n  0x24\n    /* \"#utility.yul\":499:500   */\n  0x00\n    /* \"#utility.yul\":492:507   */\n  revert\n    /* \"#utility.yul\":519:699   */\ntag_8:\n    /* \"#utility.yul\":567:644   */\n  0x4e487b7100000000000000000000000000000000000000000000000000000000\n    /* \"#utility.yul\":564:565   */\n  0x00\n    /* \"#utility.yul\":557:645   */\n  mstore\n    /* \"#utility.yul\":664:668   */\n  0x32\n    /* \"#utility.yul\":661:662   */\n  0x04\n    /* \"#utility.yul\":654:669   */\n  mstore\n    /* \"#utility.yul\":688:692   */\n  0x24\n    /* \"#utility.yul\":685:686   */\n  0x00\n    /* \"#utility.yul\":678:693   */\n  revert\n    /* \"contracts/1_Power.sol\":588:24421  contract Power {\r... */\ntag_295:\n  dataSize(sub_0)\n  dup1\n  dataOffset(sub_0)\n  0x00\n  codecopy\n  0x00\n  return\nstop\n\nsub_0: assembly {\n        /* \"contracts/1_Power.sol\":588:24421  contract Power {\r... */\n      mstore(0x40, 0x80)\n      callvalue\n      dup1\n      iszero\n      tag_1\n      jumpi\n      0x00\n      dup1\n      revert\n    tag_1:\n      pop\n      jumpi(tag_2, lt(calldatasize, 0x04))\n      shr(0xe0, calldataload(0x00))\n      dup1\n      0x54fd4d50\n      eq\n      tag_3\n      jumpi\n    tag_2:\n      0x00\n      dup1\n      revert\n        /* \"contracts/1_Power.sol\":608:637  string public version = \"0.3\" */\n    tag_3:\n      tag_4\n      tag_5\n      jump\t// in\n    tag_4:\n      mload(0x40)\n      tag_6\n      swap2\n      swap1\n      tag_7\n      jump\t// in\n    tag_6:\n      mload(0x40)\n      dup1\n      swap2\n      sub\n      swap1\n      return\n    tag_5:\n      0x00\n      dup1\n      sload\n      tag_8\n      swap1\n      tag_9\n      jump\t// in\n    tag_8:\n      dup1\n      0x1f\n      add\n      0x20\n      dup1\n      swap2\n      div\n      mul\n      0x20\n      add\n      mload(0x40)\n      swap1\n      dup2\n      add\n      0x40\n      mstore\n      dup1\n      swap3\n      swap2\n      swap1\n      dup2\n      dup2\n      mstore\n      0x20\n      add\n      dup3\n      dup1\n      sload\n      tag_10\n      swap1\n      tag_9\n      jump\t// in\n    tag_10:\n      dup1\n      iszero\n      tag_11\n      jumpi\n      dup1\n      0x1f\n      lt\n      tag_12\n      jumpi\n      0x0100\n      dup1\n      dup4\n      sload\n      div\n      mul\n      dup4\n      mstore\n      swap2\n      0x20\n      add\n      swap2\n      jump(tag_11)\n    tag_12:\n      dup3\n      add\n      swap2\n      swap1\n      0x00\n      mstore\n      keccak256(0x00, 0x20)\n      swap1\n    tag_13:\n      dup2\n      sload\n      dup2\n      mstore\n      swap1\n      0x01\n      add\n      swap1\n      0x20\n      add\n      dup1\n      dup4\n      gt\n      tag_13\n      jumpi\n      dup3\n      swap1\n      sub\n      0x1f\n      and\n      dup3\n      add\n      swap2\n    tag_11:\n      pop\n      pop\n      pop\n      pop\n      pop\n      dup2\n      jump\t// out\n        /* \"#utility.yul\":7:371   */\n    tag_15:\n        /* \"#utility.yul\":95:98   */\n      0x00\n        /* \"#utility.yul\":123:162   */\n      tag_17\n        /* \"#utility.yul\":156:161   */\n      dup3\n        /* \"#utility.yul\":123:162   */\n      tag_18\n      jump\t// in\n    tag_17:\n        /* \"#utility.yul\":178:249   */\n      tag_19\n        /* \"#utility.yul\":242:248   */\n      dup2\n        /* \"#utility.yul\":237:240   */\n      dup6\n        /* \"#utility.yul\":178:249   */\n      tag_20\n      jump\t// in\n    tag_19:\n        /* \"#utility.yul\":171:249   */\n      swap4\n      pop\n        /* \"#utility.yul\":258:310   */\n      tag_21\n        /* \"#utility.yul\":303:309   */\n      dup2\n        /* \"#utility.yul\":298:301   */\n      dup6\n        /* \"#utility.yul\":291:295   */\n      0x20\n        /* \"#utility.yul\":284:289   */\n      dup7\n        /* \"#utility.yul\":280:296   */\n      add\n        /* \"#utility.yul\":258:310   */\n      tag_22\n      jump\t// in\n    tag_21:\n        /* \"#utility.yul\":335:364   */\n      tag_23\n        /* \"#utility.yul\":357:363   */\n      dup2\n        /* \"#utility.yul\":335:364   */\n      tag_24\n      jump\t// in\n    tag_23:\n        /* \"#utility.yul\":330:333   */\n      dup5\n        /* \"#utility.yul\":326:365   */\n      add\n        /* \"#utility.yul\":319:365   */\n      swap2\n      pop\n        /* \"#utility.yul\":99:371   */\n      pop\n        /* \"#utility.yul\":7:371   */\n      swap3\n      swap2\n      pop\n      pop\n      jump\t// out\n        /* \"#utility.yul\":377:690   */\n    tag_7:\n        /* \"#utility.yul\":490:494   */\n      0x00\n        /* \"#utility.yul\":528:530   */\n      0x20\n        /* \"#utility.yul\":517:526   */\n      dup3\n        /* \"#utility.yul\":513:531   */\n      add\n        /* \"#utility.yul\":505:531   */\n      swap1\n      pop\n        /* \"#utility.yul\":577:586   */\n      dup2\n        /* \"#utility.yul\":571:575   */\n      dup2\n        /* \"#utility.yul\":567:587   */\n      sub\n        /* \"#utility.yul\":563:564   */\n      0x00\n        /* \"#utility.yul\":552:561   */\n      dup4\n        /* \"#utility.yul\":548:565   */\n      add\n        /* \"#utility.yul\":541:588   */\n      mstore\n        /* \"#utility.yul\":605:683   */\n      tag_26\n        /* \"#utility.yul\":678:682   */\n      dup2\n        /* \"#utility.yul\":669:675   */\n      dup5\n        /* \"#utility.yul\":605:683   */\n      tag_15\n      jump\t// in\n    tag_26:\n        /* \"#utility.yul\":597:683   */\n      swap1\n      pop\n        /* \"#utility.yul\":377:690   */\n      swap3\n      swap2\n      pop\n      pop\n      jump\t// out\n        /* \"#utility.yul\":696:795   */\n    tag_18:\n        /* \"#utility.yul\":748:754   */\n      0x00\n        /* \"#utility.yul\":782:787   */\n      dup2\n        /* \"#utility.yul\":776:788   */\n      mload\n        /* \"#utility.yul\":766:788   */\n      swap1\n      pop\n        /* \"#utility.yul\":696:795   */\n      swap2\n      swap1\n      pop\n      jump\t// out\n        /* \"#utility.yul\":801:970   */\n    tag_20:\n        /* \"#utility.yul\":885:896   */\n      0x00\n        /* \"#utility.yul\":919:925   */\n      dup3\n        /* \"#utility.yul\":914:917   */\n      dup3\n        /* \"#utility.yul\":907:926   */\n      mstore\n        /* \"#utility.yul\":959:963   */\n      0x20\n        /* \"#utility.yul\":954:957   */\n      dup3\n        /* \"#utility.yul\":950:964   */\n      add\n        /* \"#utility.yul\":935:964   */\n      swap1\n      pop\n        /* \"#utility.yul\":801:970   */\n      swap3\n      swap2\n      pop\n      pop\n      jump\t// out\n        /* \"#utility.yul\":976:1283   */\n    tag_22:\n        /* \"#utility.yul\":1044:1045   */\n      0x00\n        /* \"#utility.yul\":1054:1167   */\n    tag_30:\n        /* \"#utility.yul\":1068:1074   */\n      dup4\n        /* \"#utility.yul\":1065:1066   */\n      dup2\n        /* \"#utility.yul\":1062:1075   */\n      lt\n        /* \"#utility.yul\":1054:1167   */\n      iszero\n      tag_32\n      jumpi\n        /* \"#utility.yul\":1153:1154   */\n      dup1\n        /* \"#utility.yul\":1148:1151   */\n      dup3\n        /* \"#utility.yul\":1144:1155   */\n      add\n        /* \"#utility.yul\":1138:1156   */\n      mload\n        /* \"#utility.yul\":1134:1135   */\n      dup2\n        /* \"#utility.yul\":1129:1132   */\n      dup5\n        /* \"#utility.yul\":1125:1136   */\n      add\n        /* \"#utility.yul\":1118:1157   */\n      mstore\n        /* \"#utility.yul\":1090:1092   */\n      0x20\n        /* \"#utility.yul\":1087:1088   */\n      dup2\n        /* \"#utility.yul\":1083:1093   */\n      add\n        /* \"#utility.yul\":1078:1093   */\n      swap1\n      pop\n        /* \"#utility.yul\":1054:1167   */\n      jump(tag_30)\n    tag_32:\n        /* \"#utility.yul\":1185:1191   */\n      dup4\n        /* \"#utility.yul\":1182:1183   */\n      dup2\n        /* \"#utility.yul\":1179:1192   */\n      gt\n        /* \"#utility.yul\":1176:1277   */\n      iszero\n      tag_33\n      jumpi\n        /* \"#utility.yul\":1265:1266   */\n      0x00\n        /* \"#utility.yul\":1256:1262   */\n      dup5\n        /* \"#utility.yul\":1251:1254   */\n      dup5\n        /* \"#utility.yul\":1247:1263   */\n      add\n        /* \"#utility.yul\":1240:1267   */\n      mstore\n        /* \"#utility.yul\":1176:1277   */\n    tag_33:\n        /* \"#utility.yul\":1025:1283   */\n      pop\n        /* \"#utility.yul\":976:1283   */\n      pop\n      pop\n      pop\n      jump\t// out\n        /* \"#utility.yul\":1289:1609   */\n    tag_9:\n        /* \"#utility.yul\":1333:1339   */\n      0x00\n        /* \"#utility.yul\":1370:1371   */\n      0x02\n        /* \"#utility.yul\":1364:1368   */\n      dup3\n        /* \"#utility.yul\":1360:1372   */\n      div\n        /* \"#utility.yul\":1350:1372   */\n      swap1\n      pop\n        /* \"#utility.yul\":1417:1418   */\n      0x01\n        /* \"#utility.yul\":1411:1415   */\n      dup3\n        /* \"#utility.yul\":1407:1419   */\n      and\n        /* \"#utility.yul\":1438:1456   */\n      dup1\n        /* \"#utility.yul\":1428:1509   */\n      tag_35\n      jumpi\n        /* \"#utility.yul\":1494:1498   */\n      0x7f\n        /* \"#utility.yul\":1486:1492   */\n      dup3\n        /* \"#utility.yul\":1482:1499   */\n      and\n        /* \"#utility.yul\":1472:1499   */\n      swap2\n      pop\n        /* \"#utility.yul\":1428:1509   */\n    tag_35:\n        /* \"#utility.yul\":1556:1558   */\n      0x20\n        /* \"#utility.yul\":1548:1554   */\n      dup3\n        /* \"#utility.yul\":1545:1559   */\n      lt\n        /* \"#utility.yul\":1525:1543   */\n      dup2\n        /* \"#utility.yul\":1522:1560   */\n      eq\n        /* \"#utility.yul\":1519:1603   */\n      iszero\n      tag_36\n      jumpi\n        /* \"#utility.yul\":1575:1593   */\n      tag_37\n      tag_38\n      jump\t// in\n    tag_37:\n        /* \"#utility.yul\":1519:1603   */\n    tag_36:\n        /* \"#utility.yul\":1340:1609   */\n      pop\n        /* \"#utility.yul\":1289:1609   */\n      swap2\n      swap1\n      pop\n      jump\t// out\n        /* \"#utility.yul\":1615:1795   */\n    tag_38:\n        /* \"#utility.yul\":1663:1740   */\n      0x4e487b7100000000000000000000000000000000000000000000000000000000\n        /* \"#utility.yul\":1660:1661   */\n      0x00\n        /* \"#utility.yul\":1653:1741   */\n      mstore\n        /* \"#utility.yul\":1760:1764   */\n      0x22\n        /* \"#utility.yul\":1757:1758   */\n      0x04\n        /* \"#utility.yul\":1750:1765   */\n      mstore\n        /* \"#utility.yul\":1784:1788   */\n      0x24\n        /* \"#utility.yul\":1781:1782   */\n      0x00\n        /* \"#utility.yul\":1774:1789   */\n      revert\n        /* \"#utility.yul\":1801:1903   */\n    tag_24:\n        /* \"#utility.yul\":1842:1848   */\n      0x00\n        /* \"#utility.yul\":1893:1895   */\n      0x1f\n        /* \"#utility.yul\":1889:1896   */\n      not\n        /* \"#utility.yul\":1884:1886   */\n      0x1f\n        /* \"#utility.yul\":1877:1882   */\n      dup4\n        /* \"#utility.yul\":1873:1887   */\n      add\n        /* \"#utility.yul\":1869:1897   */\n      and\n        /* \"#utility.yul\":1859:1897   */\n      swap1\n      pop\n        /* \"#utility.yul\":1801:1903   */\n      swap2\n      swap1\n      pop\n      jump\t// out\n\n    auxdata: 0xa2646970667358221220867a26bec764136fedf41e96e0b645caf32aae434aa983ba33062e75a2f45c6464736f6c63430008070033\n}\n",
				"bytecode": {
					"linkReferences": {},
					"object": "60806040526040518060400160405280600381526020017f302e3300000000000000000000000000000000000000000000000000000000008152506000908051906020019062000051929190620011f6565b503480156200005f57600080fd5b50701c35fedd14ffffffffffffffffffffffff60016020608081106200008a57620000896200130b565b5b0181905550701b0ce43b323fffffffffffffffffffffff6001602160808110620000b957620000b86200130b565b5b01819055507019f0028ec1ffffffffffffffffffffffff6001602260808110620000e857620000e76200130b565b5b01819055507018ded91f0e7fffffffffffffffffffffff60016023608081106200011757620001166200130b565b5b01819055507017d8ec7f0417ffffffffffffffffffffff60016024608081106200014657620001456200130b565b5b01819055507016ddc6556cdbffffffffffffffffffffff60016025608081106200017557620001746200130b565b5b01819055507015ecf52776a1ffffffffffffffffffffff6001602660808110620001a457620001a36200130b565b5b01819055507015060c256cb2ffffffffffffffffffffff6001602760808110620001d357620001d26200130b565b5b0181905550701428a2f98d72ffffffffffffffffffffff60016028608081106200020257620002016200130b565b5b01819055507013545598e5c23fffffffffffffffffffff60016029608081106200023157620002306200130b565b5b0181905550701288c4161ce1dfffffffffffffffffffff6001602a6080811062000260576200025f6200130b565b5b01819055507011c592761c666fffffffffffffffffffff6001602b608081106200028f576200028e6200130b565b5b018190555070110a688680a757ffffffffffffffffffff6001602c60808110620002be57620002bd6200130b565b5b0181905550701056f1b5bedf77ffffffffffffffffffff6001602d60808110620002ed57620002ec6200130b565b5b0181905550700faadceceeff8bffffffffffffffffffff6001602e608081106200031c576200031b6200130b565b5b0181905550700f05dc6b27edadffffffffffffffffffff6001602f608081106200034b576200034a6200130b565b5b0181905550700e67a5a25da4107fffffffffffffffffff60016030608081106200037a57620003796200130b565b5b0181905550700dcff115b14eedffffffffffffffffffff6001603160808110620003a957620003a86200130b565b5b0181905550700d3e7a392431239fffffffffffffffffff6001603260808110620003d857620003d76200130b565b5b0181905550700cb2ff529eb71e4fffffffffffffffffff60016033608081106200040757620004066200130b565b5b0181905550700c2d415c3db974afffffffffffffffffff60016034608081106200043657620004356200130b565b5b0181905550700bad03e7d883f69bffffffffffffffffff60016035608081106200046557620004646200130b565b5b0181905550700b320d03b2c343d5ffffffffffffffffff60016036608081106200049457620004936200130b565b5b0181905550700abc25204e02828dffffffffffffffffff6001603760808110620004c357620004c26200130b565b5b0181905550700a4b16f74ee4bb207fffffffffffffffff6001603860808110620004f257620004f16200130b565b5b01819055507009deaf736ac1f569ffffffffffffffffff60016039608081106200052157620005206200130b565b5b0181905550700976bd9952c7aa957fffffffffffffffff6001603a6080811062000550576200054f6200130b565b5b01819055507009131271922eaa606fffffffffffffffff6001603b608081106200057f576200057e6200130b565b5b01819055507008b380f3558668c46fffffffffffffffff6001603c60808110620005ae57620005ad6200130b565b5b0181905550700857ddf0117efa215bffffffffffffffff6001603d60808110620005dd57620005dc6200130b565b5b01819055507007ffffffffffffffffffffffffffffffff6001603e608081106200060c576200060b6200130b565b5b01819055507007abbf6f6abb9d087fffffffffffffffff6001603f608081106200063b576200063a6200130b565b5b018190555070075af62cbac95f7dfa7fffffffffffffff60016040608081106200066a57620006696200130b565b5b018190555070070d7fb7452e187ac13fffffffffffffff60016041608081106200069957620006986200130b565b5b01819055507006c3390ecc8af379295fffffffffffffff6001604260808110620006c857620006c76200130b565b5b018190555070067c00a3b07ffc01fd6fffffffffffffff6001604360808110620006f757620006f66200130b565b5b0181905550700637b647c39cbb9d3d27ffffffffffffff60016044608081106200072657620007256200130b565b5b01819055507005f63b1fc104dbd39587ffffffffffffff60016045608081106200075557620007546200130b565b5b01819055507005b771955b36e12f7235ffffffffffffff60016046608081106200078457620007836200130b565b5b018190555070057b3d49dda84556d6f6ffffffffffffff6001604760808110620007b357620007b26200130b565b5b018190555070054183095b2c8ececf30ffffffffffffff6001604860808110620007e257620007e16200130b565b5b018190555070050a28be635ca2b888f77fffffffffffff60016049608081106200081157620008106200130b565b5b01819055507004d5156639708c9db33c3fffffffffffff6001604a6080811062000840576200083f6200130b565b5b01819055507004a23105873875bd52dfdfffffffffffff6001604b608081106200086f576200086e6200130b565b5b0181905550700471649d87199aa990756fffffffffffff6001604c608081106200089e576200089d6200130b565b5b01819055507004429a21a029d4c1457cfbffffffffffff6001604d60808110620008cd57620008cc6200130b565b5b0181905550700415bc6d6fb7dd71af2cb3ffffffffffff6001604e60808110620008fc57620008fb6200130b565b5b01819055507003eab73b3bbfe282243ce1ffffffffffff6001604f608081106200092b576200092a6200130b565b5b01819055507003c1771ac9fb6b4c18e229ffffffffffff60016050608081106200095a57620009596200130b565b5b0181905550700399e96897690418f785257fffffffffff60016051608081106200098957620009886200130b565b5b0181905550700373fc456c53bb779bf0ea9fffffffffff6001605260808110620009b857620009b76200130b565b5b018190555070034f9e8e490c48e67e6ab8bfffffffffff6001605360808110620009e757620009e66200130b565b5b018190555070032cbfd4a7adc790560b3337ffffffffff600160546080811062000a165762000a156200130b565b5b018190555070030b50570f6e5d2acca94613ffffffffff600160556080811062000a455762000a446200130b565b5b01819055507002eb40f9f620fda6b56c2861ffffffffff600160566080811062000a745762000a736200130b565b5b01819055507002cc8340ecb0d0f520a6af58ffffffffff600160576080811062000aa35762000aa26200130b565b5b01819055507002af09481380a0a35cf1ba02ffffffffff600160586080811062000ad25762000ad16200130b565b5b0181905550700292c5bdd3b92ec810287b1b3fffffffff600160596080811062000b015762000b006200130b565b5b0181905550700277abdcdab07d5a77ac6d6b9fffffffff6001605a6080811062000b305762000b2f6200130b565b5b018190555070025daf6654b1eaa55fd64df5efffffffff6001605b6080811062000b5f5762000b5e6200130b565b5b0181905550700244c49c648baa98192dce88b7ffffffff6001605c6080811062000b8e5762000b8d6200130b565b5b018190555070022ce03cd5619a311b2471268bffffffff6001605d6080811062000bbd5762000bbc6200130b565b5b0181905550700215f77c045fbe885654a44a0fffffffff6001605e6080811062000bec5762000beb6200130b565b5b01819055507001ffffffffffffffffffffffffffffffff6001605f6080811062000c1b5762000c1a6200130b565b5b01819055507001eaefdbdaaee7421fc4d3ede5ffffffff600160606080811062000c4a5762000c496200130b565b5b01819055507001d6bd8b2eb257df7e8ca57b09bfffffff600160616080811062000c795762000c786200130b565b5b01819055507001c35fedd14b861eb0443f7f133fffffff600160626080811062000ca85762000ca76200130b565b5b01819055507001b0ce43b322bcde4a56e8ada5afffffff600160636080811062000cd75762000cd66200130b565b5b018190555070019f0028ec1fff007f5a195a39dfffffff600160646080811062000d065762000d056200130b565b5b018190555070018ded91f0e72ee74f49b15ba527ffffff600160656080811062000d355762000d346200130b565b5b018190555070017d8ec7f04136f4e5615fd41a63ffffff600160666080811062000d645762000d636200130b565b5b018190555070016ddc6556cdb84bdc8d12d22e6fffffff600160676080811062000d935762000d926200130b565b5b018190555070015ecf52776a1155b5bd8395814f7fffff600160686080811062000dc25762000dc16200130b565b5b018190555070015060c256cb23b3b3cc3754cf40ffffff600160696080811062000df15762000df06200130b565b5b01819055507001428a2f98d728ae223ddab715be3fffff6001606a6080811062000e205762000e1f6200130b565b5b018190555070013545598e5c23276ccf0ede68034fffff6001606b6080811062000e4f5762000e4e6200130b565b5b01819055507001288c4161ce1d6f54b7f61081194fffff6001606c6080811062000e7e5762000e7d6200130b565b5b018190555070011c592761c666aa641d5a01a40f17ffff6001606d6080811062000ead5762000eac6200130b565b5b0181905550700110a688680a7530515f3e6e6cfdcdffff6001606e6080811062000edc5762000edb6200130b565b5b01819055507001056f1b5bedf75c6bcb2ce8aed428ffff6001606f6080811062000f0b5762000f0a6200130b565b5b01819055506ffaadceceeff8a0890f3875f008277fff600160706080811062000f395762000f386200130b565b5b01819055506ff05dc6b27edad306388a600f6ba0bfff600160716080811062000f675762000f666200130b565b5b01819055506fe67a5a25da41063de1495d5b18cdbfff600160726080811062000f955762000f946200130b565b5b01819055506fdcff115b14eedde6fc3aa5353f2e4fff600160736080811062000fc35762000fc26200130b565b5b01819055506fd3e7a3924312399f9aae2e0f868f8fff600160746080811062000ff15762000ff06200130b565b5b01819055506fcb2ff529eb71e41582cccd5a1ee26fff60016075608081106200101f576200101e6200130b565b5b01819055506fc2d415c3db974ab32a51840c0b67edff60016076608081106200104d576200104c6200130b565b5b01819055506fbad03e7d883f69ad5b0a186184e06bff60016077608081106200107b576200107a6200130b565b5b01819055506fb320d03b2c343d4829abd6075f0cc5ff6001607860808110620010a957620010a86200130b565b5b01819055506fabc25204e02828d73c6e80bcdb1a95bf6001607960808110620010d757620010d66200130b565b5b01819055506fa4b16f74ee4bb2040a1ec6c15fbbf2df6001607a608081106200110557620011046200130b565b5b01819055506f9deaf736ac1f569deb1b5ae3f36c130f6001607b608081106200113357620011326200130b565b5b01819055506f976bd9952c7aa957f5937d790ef650376001607c608081106200116157620011606200130b565b5b01819055506f9131271922eaa6064b73a22d0bd4f2bf6001607d608081106200118f576200118e6200130b565b5b01819055506f8b380f3558668c46c91c49a2f8e967b96001607e60808110620011bd57620011bc6200130b565b5b01819055506f857ddf0117efa215952912839f6473e66001607f60808110620011eb57620011ea6200130b565b5b01819055506200133a565b8280546200120490620012a6565b90600052602060002090601f01602090048101928262001228576000855562001274565b82601f106200124357805160ff191683800117855562001274565b8280016001018555821562001274579182015b828111156200127357825182559160200191906001019062001256565b5b50905062001283919062001287565b5090565b5b80821115620012a257600081600090555060010162001288565b5090565b60006002820490506001821680620012bf57607f821691505b60208210811415620012d657620012d5620012dc565b5b50919050565b7f4e487b7100000000000000000000000000000000000000000000000000000000600052602260045260246000fd5b7f4e487b7100000000000000000000000000000000000000000000000000000000600052603260045260246000fd5b61022e806200134a6000396000f3fe608060405234801561001057600080fd5b506004361061002b5760003560e01c806354fd4d5014610030575b600080fd5b61003861004e565b6040516100459190610115565b60405180910390f35b6000805461005b90610186565b80601f016020809104026020016040519081016040528092919081815260200182805461008790610186565b80156100d45780601f106100a9576101008083540402835291602001916100d4565b820191906000526020600020905b8154815290600101906020018083116100b757829003601f168201915b505050505081565b60006100e782610137565b6100f18185610142565b9350610101818560208601610153565b61010a816101e7565b840191505092915050565b6000602082019050818103600083015261012f81846100dc565b905092915050565b600081519050919050565b600082825260208201905092915050565b60005b83811015610171578082015181840152602081019050610156565b83811115610180576000848401525b50505050565b6000600282049050600182168061019e57607f821691505b602082108114156101b2576101b16101b8565b5b50919050565b7f4e487b7100000000000000000000000000000000000000000000000000000000600052602260045260246000fd5b6000601f19601f830116905091905056fea2646970667358221220867a26bec764136fedf41e96e0b645caf32aae434aa983ba33062e75a2f45c6464736f6c63430008070033",
					"opcodes": "PUSH1 0x80 PUSH1 0x40 MSTORE PUSH1 0x40 MLOAD DUP1 PUSH1 0x40 ADD PUSH1 0x40 MSTORE DUP1 PUSH1 0x3 DUP2 MSTORE PUSH1 0x20 ADD PUSH32 0x302E330000000000000000000000000000000000000000000000000000000000 DUP2 MSTORE POP PUSH1 0x0 SWAP1 DUP1 MLOAD SWAP1 PUSH1 0x20 ADD SWAP1 PUSH3 0x51 SWAP3 SWAP2 SWAP1 PUSH3 0x11F6 JUMP JUMPDEST POP CALLVALUE DUP1 ISZERO PUSH3 0x5F JUMPI PUSH1 0x0 DUP1 REVERT JUMPDEST POP PUSH17 0x1C35FEDD14FFFFFFFFFFFFFFFFFFFFFFFF PUSH1 0x1 PUSH1 0x20 PUSH1 0x80 DUP2 LT PUSH3 0x8A JUMPI PUSH3 0x89 PUSH3 0x130B JUMP JUMPDEST JUMPDEST ADD DUP2 SWAP1 SSTORE POP PUSH17 0x1B0CE43B323FFFFFFFFFFFFFFFFFFFFFFF PUSH1 0x1 PUSH1 0x21 PUSH1 0x80 DUP2 LT PUSH3 0xB9 JUMPI PUSH3 0xB8 PUSH3 0x130B JUMP JUMPDEST JUMPDEST ADD DUP2 SWAP1 SSTORE POP PUSH17 0x19F0028EC1FFFFFFFFFFFFFFFFFFFFFFFF PUSH1 0x1 PUSH1 0x22 PUSH1 0x80 DUP2 LT PUSH3 0xE8 JUMPI PUSH3 0xE7 PUSH3 0x130B JUMP JUMPDEST JUMPDEST ADD DUP2 SWAP1 SSTORE POP PUSH17 0x18DED91F0E7FFFFFFFFFFFFFFFFFFFFFFF PUSH1 0x1 PUSH1 0x23 PUSH1 0x80 DUP2 LT PUSH3 0x117 JUMPI PUSH3 0x116 PUSH3 0x130B JUMP JUMPDEST JUMPDEST ADD DUP2 SWAP1 SSTORE POP PUSH17 0x17D8EC7F0417FFFFFFFFFFFFFFFFFFFFFF PUSH1 0x1 PUSH1 0x24 PUSH1 0x80 DUP2 LT PUSH3 0x146 JUMPI PUSH3 0x145 PUSH3 0x130B JUMP JUMPDEST JUMPDEST ADD DUP2 SWAP1 SSTORE POP PUSH17 0x16DDC6556CDBFFFFFFFFFFFFFFFFFFFFFF PUSH1 0x1 PUSH1 0x25 PUSH1 0x80 DUP2 LT PUSH3 0x175 JUMPI PUSH3 0x174 PUSH3 0x130B JUMP JUMPDEST JUMPDEST ADD DUP2 SWAP1 SSTORE POP PUSH17 0x15ECF52776A1FFFFFFFFFFFFFFFFFFFFFF PUSH1 0x1 PUSH1 0x26 PUSH1 0x80 DUP2 LT PUSH3 0x1A4 JUMPI PUSH3 0x1A3 PUSH3 0x130B JUMP JUMPDEST JUMPDEST ADD DUP2 SWAP1 SSTORE POP PUSH17 0x15060C256CB2FFFFFFFFFFFFFFFFFFFFFF PUSH1 0x1 PUSH1 0x27 PUSH1 0x80 DUP2 LT PUSH3 0x1D3 JUMPI PUSH3 0x1D2 PUSH3 0x130B JUMP JUMPDEST JUMPDEST ADD DUP2 SWAP1 SSTORE POP PUSH17 0x1428A2F98D72FFFFFFFFFFFFFFFFFFFFFF PUSH1 0x1 PUSH1 0x28 PUSH1 0x80 DUP2 LT PUSH3 0x202 JUMPI PUSH3 0x201 PUSH3 0x130B JUMP JUMPDEST JUMPDEST ADD DUP2 SWAP1 SSTORE POP PUSH17 0x13545598E5C23FFFFFFFFFFFFFFFFFFFFF PUSH1 0x1 PUSH1 0x29 PUSH1 0x80 DUP2 LT PUSH3 0x231 JUMPI PUSH3 0x230 PUSH3 0x130B JUMP JUMPDEST JUMPDEST ADD DUP2 SWAP1 SSTORE POP PUSH17 0x1288C4161CE1DFFFFFFFFFFFFFFFFFFFFF PUSH1 0x1 PUSH1 0x2A PUSH1 0x80 DUP2 LT PUSH3 0x260 JUMPI PUSH3 0x25F PUSH3 0x130B JUMP JUMPDEST JUMPDEST ADD DUP2 SWAP1 SSTORE POP PUSH17 0x11C592761C666FFFFFFFFFFFFFFFFFFFFF PUSH1 0x1 PUSH1 0x2B PUSH1 0x80 DUP2 LT PUSH3 0x28F JUMPI PUSH3 0x28E PUSH3 0x130B JUMP JUMPDEST JUMPDEST ADD DUP2 SWAP1 SSTORE POP PUSH17 0x110A688680A757FFFFFFFFFFFFFFFFFFFF PUSH1 0x1 PUSH1 0x2C PUSH1 0x80 DUP2 LT PUSH3 0x2BE JUMPI PUSH3 0x2BD PUSH3 0x130B JUMP JUMPDEST JUMPDEST ADD DUP2 SWAP1 SSTORE POP PUSH17 0x1056F1B5BEDF77FFFFFFFFFFFFFFFFFFFF PUSH1 0x1 PUSH1 0x2D PUSH1 0x80 DUP2 LT PUSH3 0x2ED JUMPI PUSH3 0x2EC PUSH3 0x130B JUMP JUMPDEST JUMPDEST ADD DUP2 SWAP1 SSTORE POP PUSH17 0xFAADCECEEFF8BFFFFFFFFFFFFFFFFFFFF PUSH1 0x1 PUSH1 0x2E PUSH1 0x80 DUP2 LT PUSH3 0x31C JUMPI PUSH3 0x31B PUSH3 0x130B JUMP JUMPDEST JUMPDEST ADD DUP2 SWAP1 SSTORE POP PUSH17 0xF05DC6B27EDADFFFFFFFFFFFFFFFFFFFF PUSH1 0x1 PUSH1 0x2F PUSH1 0x80 DUP2 LT PUSH3 0x34B JUMPI PUSH3 0x34A PUSH3 0x130B JUMP JUMPDEST JUMPDEST ADD DUP2 SWAP1 SSTORE POP PUSH17 0xE67A5A25DA4107FFFFFFFFFFFFFFFFFFF PUSH1 0x1 PUSH1 0x30 PUSH1 0x80 DUP2 LT PUSH3 0x37A JUMPI PUSH3 0x379 PUSH3 0x130B JUMP JUMPDEST JUMPDEST ADD DUP2 SWAP1 SSTORE POP PUSH17 0xDCFF115B14EEDFFFFFFFFFFFFFFFFFFFF PUSH1 0x1 PUSH1 0x31 PUSH1 0x80 DUP2 LT PUSH3 0x3A9 JUMPI PUSH3 0x3A8 PUSH3 0x130B JUMP JUMPDEST JUMPDEST ADD DUP2 SWAP1 SSTORE POP PUSH17 0xD3E7A392431239FFFFFFFFFFFFFFFFFFF PUSH1 0x1 PUSH1 0x32 PUSH1 0x80 DUP2 LT PUSH3 0x3D8 JUMPI PUSH3 0x3D7 PUSH3 0x130B JUMP JUMPDEST JUMPDEST ADD DUP2 SWAP1 SSTORE POP PUSH17 0xCB2FF529EB71E4FFFFFFFFFFFFFFFFFFF PUSH1 0x1 PUSH1 0x33 PUSH1 0x80 DUP2 LT PUSH3 0x407 JUMPI PUSH3 0x406 PUSH3 0x130B JUMP JUMPDEST JUMPDEST ADD DUP2 SWAP1 SSTORE POP PUSH17 0xC2D415C3DB974AFFFFFFFFFFFFFFFFFFF PUSH1 0x1 PUSH1 0x34 PUSH1 0x80 DUP2 LT PUSH3 0x436 JUMPI PUSH3 0x435 PUSH3 0x130B JUMP JUMPDEST JUMPDEST ADD DUP2 SWAP1 SSTORE POP PUSH17 0xBAD03E7D883F69BFFFFFFFFFFFFFFFFFF PUSH1 0x1 PUSH1 0x35 PUSH1 0x80 DUP2 LT PUSH3 0x465 JUMPI PUSH3 0x464 PUSH3 0x130B JUMP JUMPDEST JUMPDEST ADD DUP2 SWAP1 SSTORE POP PUSH17 0xB320D03B2C343D5FFFFFFFFFFFFFFFFFF PUSH1 0x1 PUSH1 0x36 PUSH1 0x80 DUP2 LT PUSH3 0x494 JUMPI PUSH3 0x493 PUSH3 0x130B JUMP JUMPDEST JUMPDEST ADD DUP2 SWAP1 SSTORE POP PUSH17 0xABC25204E02828DFFFFFFFFFFFFFFFFFF PUSH1 0x1 PUSH1 0x37 PUSH1 0x80 DUP2 LT PUSH3 0x4C3 JUMPI PUSH3 0x4C2 PUSH3 0x130B JUMP JUMPDEST JUMPDEST ADD DUP2 SWAP1 SSTORE POP PUSH17 0xA4B16F74EE4BB207FFFFFFFFFFFFFFFFF PUSH1 0x1 PUSH1 0x38 PUSH1 0x80 DUP2 LT PUSH3 0x4F2 JUMPI PUSH3 0x4F1 PUSH3 0x130B JUMP JUMPDEST JUMPDEST ADD DUP2 SWAP1 SSTORE POP PUSH17 0x9DEAF736AC1F569FFFFFFFFFFFFFFFFFF PUSH1 0x1 PUSH1 0x39 PUSH1 0x80 DUP2 LT PUSH3 0x521 JUMPI PUSH3 0x520 PUSH3 0x130B JUMP JUMPDEST JUMPDEST ADD DUP2 SWAP1 SSTORE POP PUSH17 0x976BD9952C7AA957FFFFFFFFFFFFFFFFF PUSH1 0x1 PUSH1 0x3A PUSH1 0x80 DUP2 LT PUSH3 0x550 JUMPI PUSH3 0x54F PUSH3 0x130B JUMP JUMPDEST JUMPDEST ADD DUP2 SWAP1 SSTORE POP PUSH17 0x9131271922EAA606FFFFFFFFFFFFFFFFF PUSH1 0x1 PUSH1 0x3B PUSH1 0x80 DUP2 LT PUSH3 0x57F JUMPI PUSH3 0x57E PUSH3 0x130B JUMP JUMPDEST JUMPDEST ADD DUP2 SWAP1 SSTORE POP PUSH17 0x8B380F3558668C46FFFFFFFFFFFFFFFFF PUSH1 0x1 PUSH1 0x3C PUSH1 0x80 DUP2 LT PUSH3 0x5AE JUMPI PUSH3 0x5AD PUSH3 0x130B JUMP JUMPDEST JUMPDEST ADD DUP2 SWAP1 SSTORE POP PUSH17 0x857DDF0117EFA215BFFFFFFFFFFFFFFFF PUSH1 0x1 PUSH1 0x3D PUSH1 0x80 DUP2 LT PUSH3 0x5DD JUMPI PUSH3 0x5DC PUSH3 0x130B JUMP JUMPDEST JUMPDEST ADD DUP2 SWAP1 SSTORE POP PUSH17 0x7FFFFFFFFFFFFFFFFFFFFFFFFFFFFFFFF PUSH1 0x1 PUSH1 0x3E PUSH1 0x80 DUP2 LT PUSH3 0x60C JUMPI PUSH3 0x60B PUSH3 0x130B JUMP JUMPDEST JUMPDEST ADD DUP2 SWAP1 SSTORE POP PUSH17 0x7ABBF6F6ABB9D087FFFFFFFFFFFFFFFFF PUSH1 0x1 PUSH1 0x3F PUSH1 0x80 DUP2 LT PUSH3 0x63B JUMPI PUSH3 0x63A PUSH3 0x130B JUMP JUMPDEST JUMPDEST ADD DUP2 SWAP1 SSTORE POP PUSH17 0x75AF62CBAC95F7DFA7FFFFFFFFFFFFFFF PUSH1 0x1 PUSH1 0x40 PUSH1 0x80 DUP2 LT PUSH3 0x66A JUMPI PUSH3 0x669 PUSH3 0x130B JUMP JUMPDEST JUMPDEST ADD DUP2 SWAP1 SSTORE POP PUSH17 0x70D7FB7452E187AC13FFFFFFFFFFFFFFF PUSH1 0x1 PUSH1 0x41 PUSH1 0x80 DUP2 LT PUSH3 0x699 JUMPI PUSH3 0x698 PUSH3 0x130B JUMP JUMPDEST JUMPDEST ADD DUP2 SWAP1 SSTORE POP PUSH17 0x6C3390ECC8AF379295FFFFFFFFFFFFFFF PUSH1 0x1 PUSH1 0x42 PUSH1 0x80 DUP2 LT PUSH3 0x6C8 JUMPI PUSH3 0x6C7 PUSH3 0x130B JUMP JUMPDEST JUMPDEST ADD DUP2 SWAP1 SSTORE POP PUSH17 0x67C00A3B07FFC01FD6FFFFFFFFFFFFFFF PUSH1 0x1 PUSH1 0x43 PUSH1 0x80 DUP2 LT PUSH3 0x6F7 JUMPI PUSH3 0x6F6 PUSH3 0x130B JUMP JUMPDEST JUMPDEST ADD DUP2 SWAP1 SSTORE POP PUSH17 0x637B647C39CBB9D3D27FFFFFFFFFFFFFF PUSH1 0x1 PUSH1 0x44 PUSH1 0x80 DUP2 LT PUSH3 0x726 JUMPI PUSH3 0x725 PUSH3 0x130B JUMP JUMPDEST JUMPDEST ADD DUP2 SWAP1 SSTORE POP PUSH17 0x5F63B1FC104DBD39587FFFFFFFFFFFFFF PUSH1 0x1 PUSH1 0x45 PUSH1 0x80 DUP2 LT PUSH3 0x755 JUMPI PUSH3 0x754 PUSH3 0x130B JUMP JUMPDEST JUMPDEST ADD DUP2 SWAP1 SSTORE POP PUSH17 0x5B771955B36E12F7235FFFFFFFFFFFFFF PUSH1 0x1 PUSH1 0x46 PUSH1 0x80 DUP2 LT PUSH3 0x784 JUMPI PUSH3 0x783 PUSH3 0x130B JUMP JUMPDEST JUMPDEST ADD DUP2 SWAP1 SSTORE POP PUSH17 0x57B3D49DDA84556D6F6FFFFFFFFFFFFFF PUSH1 0x1 PUSH1 0x47 PUSH1 0x80 DUP2 LT PUSH3 0x7B3 JUMPI PUSH3 0x7B2 PUSH3 0x130B JUMP JUMPDEST JUMPDEST ADD DUP2 SWAP1 SSTORE POP PUSH17 0x54183095B2C8ECECF30FFFFFFFFFFFFFF PUSH1 0x1 PUSH1 0x48 PUSH1 0x80 DUP2 LT PUSH3 0x7E2 JUMPI PUSH3 0x7E1 PUSH3 0x130B JUMP JUMPDEST JUMPDEST ADD DUP2 SWAP1 SSTORE POP PUSH17 0x50A28BE635CA2B888F77FFFFFFFFFFFFF PUSH1 0x1 PUSH1 0x49 PUSH1 0x80 DUP2 LT PUSH3 0x811 JUMPI PUSH3 0x810 PUSH3 0x130B JUMP JUMPDEST JUMPDEST ADD DUP2 SWAP1 SSTORE POP PUSH17 0x4D5156639708C9DB33C3FFFFFFFFFFFFF PUSH1 0x1 PUSH1 0x4A PUSH1 0x80 DUP2 LT PUSH3 0x840 JUMPI PUSH3 0x83F PUSH3 0x130B JUMP JUMPDEST JUMPDEST ADD DUP2 SWAP1 SSTORE POP PUSH17 0x4A23105873875BD52DFDFFFFFFFFFFFFF PUSH1 0x1 PUSH1 0x4B PUSH1 0x80 DUP2 LT PUSH3 0x86F JUMPI PUSH3 0x86E PUSH3 0x130B JUMP JUMPDEST JUMPDEST ADD DUP2 SWAP1 SSTORE POP PUSH17 0x471649D87199AA990756FFFFFFFFFFFFF PUSH1 0x1 PUSH1 0x4C PUSH1 0x80 DUP2 LT PUSH3 0x89E JUMPI PUSH3 0x89D PUSH3 0x130B JUMP JUMPDEST JUMPDEST ADD DUP2 SWAP1 SSTORE POP PUSH17 0x4429A21A029D4C1457CFBFFFFFFFFFFFF PUSH1 0x1 PUSH1 0x4D PUSH1 0x80 DUP2 LT PUSH3 0x8CD JUMPI PUSH3 0x8CC PUSH3 0x130B JUMP JUMPDEST JUMPDEST ADD DUP2 SWAP1 SSTORE POP PUSH17 0x415BC6D6FB7DD71AF2CB3FFFFFFFFFFFF PUSH1 0x1 PUSH1 0x4E PUSH1 0x80 DUP2 LT PUSH3 0x8FC JUMPI PUSH3 0x8FB PUSH3 0x130B JUMP JUMPDEST JUMPDEST ADD DUP2 SWAP1 SSTORE POP PUSH17 0x3EAB73B3BBFE282243CE1FFFFFFFFFFFF PUSH1 0x1 PUSH1 0x4F PUSH1 0x80 DUP2 LT PUSH3 0x92B JUMPI PUSH3 0x92A PUSH3 0x130B JUMP JUMPDEST JUMPDEST ADD DUP2 SWAP1 SSTORE POP PUSH17 0x3C1771AC9FB6B4C18E229FFFFFFFFFFFF PUSH1 0x1 PUSH1 0x50 PUSH1 0x80 DUP2 LT PUSH3 0x95A JUMPI PUSH3 0x959 PUSH3 0x130B JUMP JUMPDEST JUMPDEST ADD DUP2 SWAP1 SSTORE POP PUSH17 0x399E96897690418F785257FFFFFFFFFFF PUSH1 0x1 PUSH1 0x51 PUSH1 0x80 DUP2 LT PUSH3 0x989 JUMPI PUSH3 0x988 PUSH3 0x130B JUMP JUMPDEST JUMPDEST ADD DUP2 SWAP1 SSTORE POP PUSH17 0x373FC456C53BB779BF0EA9FFFFFFFFFFF PUSH1 0x1 PUSH1 0x52 PUSH1 0x80 DUP2 LT PUSH3 0x9B8 JUMPI PUSH3 0x9B7 PUSH3 0x130B JUMP JUMPDEST JUMPDEST ADD DUP2 SWAP1 SSTORE POP PUSH17 0x34F9E8E490C48E67E6AB8BFFFFFFFFFFF PUSH1 0x1 PUSH1 0x53 PUSH1 0x80 DUP2 LT PUSH3 0x9E7 JUMPI PUSH3 0x9E6 PUSH3 0x130B JUMP JUMPDEST JUMPDEST ADD DUP2 SWAP1 SSTORE POP PUSH17 0x32CBFD4A7ADC790560B3337FFFFFFFFFF PUSH1 0x1 PUSH1 0x54 PUSH1 0x80 DUP2 LT PUSH3 0xA16 JUMPI PUSH3 0xA15 PUSH3 0x130B JUMP JUMPDEST JUMPDEST ADD DUP2 SWAP1 SSTORE POP PUSH17 0x30B50570F6E5D2ACCA94613FFFFFFFFFF PUSH1 0x1 PUSH1 0x55 PUSH1 0x80 DUP2 LT PUSH3 0xA45 JUMPI PUSH3 0xA44 PUSH3 0x130B JUMP JUMPDEST JUMPDEST ADD DUP2 SWAP1 SSTORE POP PUSH17 0x2EB40F9F620FDA6B56C2861FFFFFFFFFF PUSH1 0x1 PUSH1 0x56 PUSH1 0x80 DUP2 LT PUSH3 0xA74 JUMPI PUSH3 0xA73 PUSH3 0x130B JUMP JUMPDEST JUMPDEST ADD DUP2 SWAP1 SSTORE POP PUSH17 0x2CC8340ECB0D0F520A6AF58FFFFFFFFFF PUSH1 0x1 PUSH1 0x57 PUSH1 0x80 DUP2 LT PUSH3 0xAA3 JUMPI PUSH3 0xAA2 PUSH3 0x130B JUMP JUMPDEST JUMPDEST ADD DUP2 SWAP1 SSTORE POP PUSH17 0x2AF09481380A0A35CF1BA02FFFFFFFFFF PUSH1 0x1 PUSH1 0x58 PUSH1 0x80 DUP2 LT PUSH3 0xAD2 JUMPI PUSH3 0xAD1 PUSH3 0x130B JUMP JUMPDEST JUMPDEST ADD DUP2 SWAP1 SSTORE POP PUSH17 0x292C5BDD3B92EC810287B1B3FFFFFFFFF PUSH1 0x1 PUSH1 0x59 PUSH1 0x80 DUP2 LT PUSH3 0xB01 JUMPI PUSH3 0xB00 PUSH3 0x130B JUMP JUMPDEST JUMPDEST ADD DUP2 SWAP1 SSTORE POP PUSH17 0x277ABDCDAB07D5A77AC6D6B9FFFFFFFFF PUSH1 0x1 PUSH1 0x5A PUSH1 0x80 DUP2 LT PUSH3 0xB30 JUMPI PUSH3 0xB2F PUSH3 0x130B JUMP JUMPDEST JUMPDEST ADD DUP2 SWAP1 SSTORE POP PUSH17 0x25DAF6654B1EAA55FD64DF5EFFFFFFFFF PUSH1 0x1 PUSH1 0x5B PUSH1 0x80 DUP2 LT PUSH3 0xB5F JUMPI PUSH3 0xB5E PUSH3 0x130B JUMP JUMPDEST JUMPDEST ADD DUP2 SWAP1 SSTORE POP PUSH17 0x244C49C648BAA98192DCE88B7FFFFFFFF PUSH1 0x1 PUSH1 0x5C PUSH1 0x80 DUP2 LT PUSH3 0xB8E JUMPI PUSH3 0xB8D PUSH3 0x130B JUMP JUMPDEST JUMPDEST ADD DUP2 SWAP1 SSTORE POP PUSH17 0x22CE03CD5619A311B2471268BFFFFFFFF PUSH1 0x1 PUSH1 0x5D PUSH1 0x80 DUP2 LT PUSH3 0xBBD JUMPI PUSH3 0xBBC PUSH3 0x130B JUMP JUMPDEST JUMPDEST ADD DUP2 SWAP1 SSTORE POP PUSH17 0x215F77C045FBE885654A44A0FFFFFFFFF PUSH1 0x1 PUSH1 0x5E PUSH1 0x80 DUP2 LT PUSH3 0xBEC JUMPI PUSH3 0xBEB PUSH3 0x130B JUMP JUMPDEST JUMPDEST ADD DUP2 SWAP1 SSTORE POP PUSH17 0x1FFFFFFFFFFFFFFFFFFFFFFFFFFFFFFFF PUSH1 0x1 PUSH1 0x5F PUSH1 0x80 DUP2 LT PUSH3 0xC1B JUMPI PUSH3 0xC1A PUSH3 0x130B JUMP JUMPDEST JUMPDEST ADD DUP2 SWAP1 SSTORE POP PUSH17 0x1EAEFDBDAAEE7421FC4D3EDE5FFFFFFFF PUSH1 0x1 PUSH1 0x60 PUSH1 0x80 DUP2 LT PUSH3 0xC4A JUMPI PUSH3 0xC49 PUSH3 0x130B JUMP JUMPDEST JUMPDEST ADD DUP2 SWAP1 SSTORE POP PUSH17 0x1D6BD8B2EB257DF7E8CA57B09BFFFFFFF PUSH1 0x1 PUSH1 0x61 PUSH1 0x80 DUP2 LT PUSH3 0xC79 JUMPI PUSH3 0xC78 PUSH3 0x130B JUMP JUMPDEST JUMPDEST ADD DUP2 SWAP1 SSTORE POP PUSH17 0x1C35FEDD14B861EB0443F7F133FFFFFFF PUSH1 0x1 PUSH1 0x62 PUSH1 0x80 DUP2 LT PUSH3 0xCA8 JUMPI PUSH3 0xCA7 PUSH3 0x130B JUMP JUMPDEST JUMPDEST ADD DUP2 SWAP1 SSTORE POP PUSH17 0x1B0CE43B322BCDE4A56E8ADA5AFFFFFFF PUSH1 0x1 PUSH1 0x63 PUSH1 0x80 DUP2 LT PUSH3 0xCD7 JUMPI PUSH3 0xCD6 PUSH3 0x130B JUMP JUMPDEST JUMPDEST ADD DUP2 SWAP1 SSTORE POP PUSH17 0x19F0028EC1FFF007F5A195A39DFFFFFFF PUSH1 0x1 PUSH1 0x64 PUSH1 0x80 DUP2 LT PUSH3 0xD06 JUMPI PUSH3 0xD05 PUSH3 0x130B JUMP JUMPDEST JUMPDEST ADD DUP2 SWAP1 SSTORE POP PUSH17 0x18DED91F0E72EE74F49B15BA527FFFFFF PUSH1 0x1 PUSH1 0x65 PUSH1 0x80 DUP2 LT PUSH3 0xD35 JUMPI PUSH3 0xD34 PUSH3 0x130B JUMP JUMPDEST JUMPDEST ADD DUP2 SWAP1 SSTORE POP PUSH17 0x17D8EC7F04136F4E5615FD41A63FFFFFF PUSH1 0x1 PUSH1 0x66 PUSH1 0x80 DUP2 LT PUSH3 0xD64 JUMPI PUSH3 0xD63 PUSH3 0x130B JUMP JUMPDEST JUMPDEST ADD DUP2 SWAP1 SSTORE POP PUSH17 0x16DDC6556CDB84BDC8D12D22E6FFFFFFF PUSH1 0x1 PUSH1 0x67 PUSH1 0x80 DUP2 LT PUSH3 0xD93 JUMPI PUSH3 0xD92 PUSH3 0x130B JUMP JUMPDEST JUMPDEST ADD DUP2 SWAP1 SSTORE POP PUSH17 0x15ECF52776A1155B5BD8395814F7FFFFF PUSH1 0x1 PUSH1 0x68 PUSH1 0x80 DUP2 LT PUSH3 0xDC2 JUMPI PUSH3 0xDC1 PUSH3 0x130B JUMP JUMPDEST JUMPDEST ADD DUP2 SWAP1 SSTORE POP PUSH17 0x15060C256CB23B3B3CC3754CF40FFFFFF PUSH1 0x1 PUSH1 0x69 PUSH1 0x80 DUP2 LT PUSH3 0xDF1 JUMPI PUSH3 0xDF0 PUSH3 0x130B JUMP JUMPDEST JUMPDEST ADD DUP2 SWAP1 SSTORE POP PUSH17 0x1428A2F98D728AE223DDAB715BE3FFFFF PUSH1 0x1 PUSH1 0x6A PUSH1 0x80 DUP2 LT PUSH3 0xE20 JUMPI PUSH3 0xE1F PUSH3 0x130B JUMP JUMPDEST JUMPDEST ADD DUP2 SWAP1 SSTORE POP PUSH17 0x13545598E5C23276CCF0EDE68034FFFFF PUSH1 0x1 PUSH1 0x6B PUSH1 0x80 DUP2 LT PUSH3 0xE4F JUMPI PUSH3 0xE4E PUSH3 0x130B JUMP JUMPDEST JUMPDEST ADD DUP2 SWAP1 SSTORE POP PUSH17 0x1288C4161CE1D6F54B7F61081194FFFFF PUSH1 0x1 PUSH1 0x6C PUSH1 0x80 DUP2 LT PUSH3 0xE7E JUMPI PUSH3 0xE7D PUSH3 0x130B JUMP JUMPDEST JUMPDEST ADD DUP2 SWAP1 SSTORE POP PUSH17 0x11C592761C666AA641D5A01A40F17FFFF PUSH1 0x1 PUSH1 0x6D PUSH1 0x80 DUP2 LT PUSH3 0xEAD JUMPI PUSH3 0xEAC PUSH3 0x130B JUMP JUMPDEST JUMPDEST ADD DUP2 SWAP1 SSTORE POP PUSH17 0x110A688680A7530515F3E6E6CFDCDFFFF PUSH1 0x1 PUSH1 0x6E PUSH1 0x80 DUP2 LT PUSH3 0xEDC JUMPI PUSH3 0xEDB PUSH3 0x130B JUMP JUMPDEST JUMPDEST ADD DUP2 SWAP1 SSTORE POP PUSH17 0x1056F1B5BEDF75C6BCB2CE8AED428FFFF PUSH1 0x1 PUSH1 0x6F PUSH1 0x80 DUP2 LT PUSH3 0xF0B JUMPI PUSH3 0xF0A PUSH3 0x130B JUMP JUMPDEST JUMPDEST ADD DUP2 SWAP1 SSTORE POP PUSH16 0xFAADCECEEFF8A0890F3875F008277FFF PUSH1 0x1 PUSH1 0x70 PUSH1 0x80 DUP2 LT PUSH3 0xF39 JUMPI PUSH3 0xF38 PUSH3 0x130B JUMP JUMPDEST JUMPDEST ADD DUP2 SWAP1 SSTORE POP PUSH16 0xF05DC6B27EDAD306388A600F6BA0BFFF PUSH1 0x1 PUSH1 0x71 PUSH1 0x80 DUP2 LT PUSH3 0xF67 JUMPI PUSH3 0xF66 PUSH3 0x130B JUMP JUMPDEST JUMPDEST ADD DUP2 SWAP1 SSTORE POP PUSH16 0xE67A5A25DA41063DE1495D5B18CDBFFF PUSH1 0x1 PUSH1 0x72 PUSH1 0x80 DUP2 LT PUSH3 0xF95 JUMPI PUSH3 0xF94 PUSH3 0x130B JUMP JUMPDEST JUMPDEST ADD DUP2 SWAP1 SSTORE POP PUSH16 0xDCFF115B14EEDDE6FC3AA5353F2E4FFF PUSH1 0x1 PUSH1 0x73 PUSH1 0x80 DUP2 LT PUSH3 0xFC3 JUMPI PUSH3 0xFC2 PUSH3 0x130B JUMP JUMPDEST JUMPDEST ADD DUP2 SWAP1 SSTORE POP PUSH16 0xD3E7A3924312399F9AAE2E0F868F8FFF PUSH1 0x1 PUSH1 0x74 PUSH1 0x80 DUP2 LT PUSH3 0xFF1 JUMPI PUSH3 0xFF0 PUSH3 0x130B JUMP JUMPDEST JUMPDEST ADD DUP2 SWAP1 SSTORE POP PUSH16 0xCB2FF529EB71E41582CCCD5A1EE26FFF PUSH1 0x1 PUSH1 0x75 PUSH1 0x80 DUP2 LT PUSH3 0x101F JUMPI PUSH3 0x101E PUSH3 0x130B JUMP JUMPDEST JUMPDEST ADD DUP2 SWAP1 SSTORE POP PUSH16 0xC2D415C3DB974AB32A51840C0B67EDFF PUSH1 0x1 PUSH1 0x76 PUSH1 0x80 DUP2 LT PUSH3 0x104D JUMPI PUSH3 0x104C PUSH3 0x130B JUMP JUMPDEST JUMPDEST ADD DUP2 SWAP1 SSTORE POP PUSH16 0xBAD03E7D883F69AD5B0A186184E06BFF PUSH1 0x1 PUSH1 0x77 PUSH1 0x80 DUP2 LT PUSH3 0x107B JUMPI PUSH3 0x107A PUSH3 0x130B JUMP JUMPDEST JUMPDEST ADD DUP2 SWAP1 SSTORE POP PUSH16 0xB320D03B2C343D4829ABD6075F0CC5FF PUSH1 0x1 PUSH1 0x78 PUSH1 0x80 DUP2 LT PUSH3 0x10A9 JUMPI PUSH3 0x10A8 PUSH3 0x130B JUMP JUMPDEST JUMPDEST ADD DUP2 SWAP1 SSTORE POP PUSH16 0xABC25204E02828D73C6E80BCDB1A95BF PUSH1 0x1 PUSH1 0x79 PUSH1 0x80 DUP2 LT PUSH3 0x10D7 JUMPI PUSH3 0x10D6 PUSH3 0x130B JUMP JUMPDEST JUMPDEST ADD DUP2 SWAP1 SSTORE POP PUSH16 0xA4B16F74EE4BB2040A1EC6C15FBBF2DF PUSH1 0x1 PUSH1 0x7A PUSH1 0x80 DUP2 LT PUSH3 0x1105 JUMPI PUSH3 0x1104 PUSH3 0x130B JUMP JUMPDEST JUMPDEST ADD DUP2 SWAP1 SSTORE POP PUSH16 0x9DEAF736AC1F569DEB1B5AE3F36C130F PUSH1 0x1 PUSH1 0x7B PUSH1 0x80 DUP2 LT PUSH3 0x1133 JUMPI PUSH3 0x1132 PUSH3 0x130B JUMP JUMPDEST JUMPDEST ADD DUP2 SWAP1 SSTORE POP PUSH16 0x976BD9952C7AA957F5937D790EF65037 PUSH1 0x1 PUSH1 0x7C PUSH1 0x80 DUP2 LT PUSH3 0x1161 JUMPI PUSH3 0x1160 PUSH3 0x130B JUMP JUMPDEST JUMPDEST ADD DUP2 SWAP1 SSTORE POP PUSH16 0x9131271922EAA6064B73A22D0BD4F2BF PUSH1 0x1 PUSH1 0x7D PUSH1 0x80 DUP2 LT PUSH3 0x118F JUMPI PUSH3 0x118E PUSH3 0x130B JUMP JUMPDEST JUMPDEST ADD DUP2 SWAP1 SSTORE POP PUSH16 0x8B380F3558668C46C91C49A2F8E967B9 PUSH1 0x1 PUSH1 0x7E PUSH1 0x80 DUP2 LT PUSH3 0x11BD JUMPI PUSH3 0x11BC PUSH3 0x130B JUMP JUMPDEST JUMPDEST ADD DUP2 SWAP1 SSTORE POP PUSH16 0x857DDF0117EFA215952912839F6473E6 PUSH1 0x1 PUSH1 0x7F PUSH1 0x80 DUP2 LT PUSH3 0x11EB JUMPI PUSH3 0x11EA PUSH3 0x130B JUMP JUMPDEST JUMPDEST ADD DUP2 SWAP1 SSTORE POP PUSH3 0x133A JUMP JUMPDEST DUP3 DUP1 SLOAD PUSH3 0x1204 SWAP1 PUSH3 0x12A6 JUMP JUMPDEST SWAP1 PUSH1 0x0 MSTORE PUSH1 0x20 PUSH1 0x0 KECCAK256 SWAP1 PUSH1 0x1F ADD PUSH1 0x20 SWAP1 DIV DUP2 ADD SWAP3 DUP3 PUSH3 0x1228 JUMPI PUSH1 0x0 DUP6 SSTORE PUSH3 0x1274 JUMP JUMPDEST DUP3 PUSH1 0x1F LT PUSH3 0x1243 JUMPI DUP1 MLOAD PUSH1 0xFF NOT AND DUP4 DUP1 ADD OR DUP6 SSTORE PUSH3 0x1274 JUMP JUMPDEST DUP3 DUP1 ADD PUSH1 0x1 ADD DUP6 SSTORE DUP3 ISZERO PUSH3 0x1274 JUMPI SWAP2 DUP3 ADD JUMPDEST DUP3 DUP2 GT ISZERO PUSH3 0x1273 JUMPI DUP3 MLOAD DUP3 SSTORE SWAP2 PUSH1 0x20 ADD SWAP2 SWAP1 PUSH1 0x1 ADD SWAP1 PUSH3 0x1256 JUMP JUMPDEST JUMPDEST POP SWAP1 POP PUSH3 0x1283 SWAP2 SWAP1 PUSH3 0x1287 JUMP JUMPDEST POP SWAP1 JUMP JUMPDEST JUMPDEST DUP1 DUP3 GT ISZERO PUSH3 0x12A2 JUMPI PUSH1 0x0 DUP2 PUSH1 0x0 SWAP1 SSTORE POP PUSH1 0x1 ADD PUSH3 0x1288 JUMP JUMPDEST POP SWAP1 JUMP JUMPDEST PUSH1 0x0 PUSH1 0x2 DUP3 DIV SWAP1 POP PUSH1 0x1 DUP3 AND DUP1 PUSH3 0x12BF JUMPI PUSH1 0x7F DUP3 AND SWAP2 POP JUMPDEST PUSH1 0x20 DUP3 LT DUP2 EQ ISZERO PUSH3 0x12D6 JUMPI PUSH3 0x12D5 PUSH3 0x12DC JUMP JUMPDEST JUMPDEST POP SWAP2 SWAP1 POP JUMP JUMPDEST PUSH32 0x4E487B7100000000000000000000000000000000000000000000000000000000 PUSH1 0x0 MSTORE PUSH1 0x22 PUSH1 0x4 MSTORE PUSH1 0x24 PUSH1 0x0 REVERT JUMPDEST PUSH32 0x4E487B7100000000000000000000000000000000000000000000000000000000 PUSH1 0x0 MSTORE PUSH1 0x32 PUSH1 0x4 MSTORE PUSH1 0x24 PUSH1 0x0 REVERT JUMPDEST PUSH2 0x22E DUP1 PUSH3 0x134A PUSH1 0x0 CODECOPY PUSH1 0x0 RETURN INVALID PUSH1 0x80 PUSH1 0x40 MSTORE CALLVALUE DUP1 ISZERO PUSH2 0x10 JUMPI PUSH1 0x0 DUP1 REVERT JUMPDEST POP PUSH1 0x4 CALLDATASIZE LT PUSH2 0x2B JUMPI PUSH1 0x0 CALLDATALOAD PUSH1 0xE0 SHR DUP1 PUSH4 0x54FD4D50 EQ PUSH2 0x30 JUMPI JUMPDEST PUSH1 0x0 DUP1 REVERT JUMPDEST PUSH2 0x38 PUSH2 0x4E JUMP JUMPDEST PUSH1 0x40 MLOAD PUSH2 0x45 SWAP2 SWAP1 PUSH2 0x115 JUMP JUMPDEST PUSH1 0x40 MLOAD DUP1 SWAP2 SUB SWAP1 RETURN JUMPDEST PUSH1 0x0 DUP1 SLOAD PUSH2 0x5B SWAP1 PUSH2 0x186 JUMP JUMPDEST DUP1 PUSH1 0x1F ADD PUSH1 0x20 DUP1 SWAP2 DIV MUL PUSH1 0x20 ADD PUSH1 0x40 MLOAD SWAP1 DUP2 ADD PUSH1 0x40 MSTORE DUP1 SWAP3 SWAP2 SWAP1 DUP2 DUP2 MSTORE PUSH1 0x20 ADD DUP3 DUP1 SLOAD PUSH2 0x87 SWAP1 PUSH2 0x186 JUMP JUMPDEST DUP1 ISZERO PUSH2 0xD4 JUMPI DUP1 PUSH1 0x1F LT PUSH2 0xA9 JUMPI PUSH2 0x100 DUP1 DUP4 SLOAD DIV MUL DUP4 MSTORE SWAP2 PUSH1 0x20 ADD SWAP2 PUSH2 0xD4 JUMP JUMPDEST DUP3 ADD SWAP2 SWAP1 PUSH1 0x0 MSTORE PUSH1 0x20 PUSH1 0x0 KECCAK256 SWAP1 JUMPDEST DUP2 SLOAD DUP2 MSTORE SWAP1 PUSH1 0x1 ADD SWAP1 PUSH1 0x20 ADD DUP1 DUP4 GT PUSH2 0xB7 JUMPI DUP3 SWAP1 SUB PUSH1 0x1F AND DUP3 ADD SWAP2 JUMPDEST POP POP POP POP POP DUP2 JUMP JUMPDEST PUSH1 0x0 PUSH2 0xE7 DUP3 PUSH2 0x137 JUMP JUMPDEST PUSH2 0xF1 DUP2 DUP6 PUSH2 0x142 JUMP JUMPDEST SWAP4 POP PUSH2 0x101 DUP2 DUP6 PUSH1 0x20 DUP7 ADD PUSH2 0x153 JUMP JUMPDEST PUSH2 0x10A DUP2 PUSH2 0x1E7 JUMP JUMPDEST DUP5 ADD SWAP2 POP POP SWAP3 SWAP2 POP POP JUMP JUMPDEST PUSH1 0x0 PUSH1 0x20 DUP3 ADD SWAP1 POP DUP2 DUP2 SUB PUSH1 0x0 DUP4 ADD MSTORE PUSH2 0x12F DUP2 DUP5 PUSH2 0xDC JUMP JUMPDEST SWAP1 POP SWAP3 SWAP2 POP POP JUMP JUMPDEST PUSH1 0x0 DUP2 MLOAD SWAP1 POP SWAP2 SWAP1 POP JUMP JUMPDEST PUSH1 0x0 DUP3 DUP3 MSTORE PUSH1 0x20 DUP3 ADD SWAP1 POP SWAP3 SWAP2 POP POP JUMP JUMPDEST PUSH1 0x0 JUMPDEST DUP4 DUP2 LT ISZERO PUSH2 0x171 JUMPI DUP1 DUP3 ADD MLOAD DUP2 DUP5 ADD MSTORE PUSH1 0x20 DUP2 ADD SWAP1 POP PUSH2 0x156 JUMP JUMPDEST DUP4 DUP2 GT ISZERO PUSH2 0x180 JUMPI PUSH1 0x0 DUP5 DUP5 ADD MSTORE JUMPDEST POP POP POP POP JUMP JUMPDEST PUSH1 0x0 PUSH1 0x2 DUP3 DIV SWAP1 POP PUSH1 0x1 DUP3 AND DUP1 PUSH2 0x19E JUMPI PUSH1 0x7F DUP3 AND SWAP2 POP JUMPDEST PUSH1 0x20 DUP3 LT DUP2 EQ ISZERO PUSH2 0x1B2 JUMPI PUSH2 0x1B1 PUSH2 0x1B8 JUMP JUMPDEST JUMPDEST POP SWAP2 SWAP1 POP JUMP JUMPDEST PUSH32 0x4E487B7100000000000000000000000000000000000000000000000000000000 PUSH1 0x0 MSTORE PUSH1 0x22 PUSH1 0x4 MSTORE PUSH1 0x24 PUSH1 0x0 REVERT JUMPDEST PUSH1 0x0 PUSH1 0x1F NOT PUSH1 0x1F DUP4 ADD AND SWAP1 POP SWAP2 SWAP1 POP JUMP INVALID LOG2 PUSH5 0x6970667358 0x22 SLT KECCAK256 DUP7 PUSH27 0x26BEC764136FEDF41E96E0B645CAF32AAE434AA983BA33062E75A2 DELEGATECALL 0x5C PUSH5 0x64736F6C63 NUMBER STOP ADDMOD SMOD STOP CALLER "
				},
				"gasEstimates": {
					"creation": {
						"codeDepositCost": "111600",
						"executionCost": "infinite",
						"totalCost": "infinite"
					},
					"external": {
						"version()": "infinite"
					},
					"internal": {
						"findPositionInMaxExpArray(uint256)": "infinite",
						"floorLog2(uint256)": "infinite",
						"generalExp(uint256,uint8)": "infinite",
						"generalLog(uint256)": "infinite",
						"optimalExp(uint256)": "infinite",
						"optimalLog(uint256)": "infinite",
						"power(uint256,uint256,uint32,uint32)": "infinite"
					}
				},
				"methodIdentifiers": {
					"version()": "54fd4d50"
				}
			},
			"storageLayout": {
				"storage": [
					{
						"astId": 5,
						"contract": "contracts/1_Power.sol:Power",
						"label": "version",
						"offset": 0,
						"slot": "0",
						"type": "t_string_storage"
					},
					{
						"astId": 46,
						"contract": "contracts/1_Power.sol:Power",
						"label": "maxExpArray",
						"offset": 0,
						"slot": "1",
						"type": "t_array(t_uint256)128_storage"
					}
				],
				"types": {
					"t_array(t_uint256)128_storage": {
						"base": "t_uint256",
						"encoding": "inplace",
						"label": "uint256[128]",
						"numberOfBytes": "4096"
					},
					"t_string_storage": {
						"encoding": "bytes",
						"label": "string",
						"numberOfBytes": "32"
					},
					"t_uint256": {
						"encoding": "inplace",
						"label": "uint256",
						"numberOfBytes": "32"
					}
				}
			},
			"userdoc": {
				"kind": "user",
				"methods": {},
				"version": 1
			}
		}
	}
}