{
	"contracts/2_BancorBondingCurve.sol": {
		"BancorBondingCurve": {
			"abi": [
				{
					"inputs": [
						{
							"internalType": "uint256",
							"name": "_supply",
							"type": "uint256"
						},
						{
							"internalType": "uint256",
							"name": "_reserveBalance",
							"type": "uint256"
						},
						{
							"internalType": "uint32",
							"name": "_reserveRatio",
							"type": "uint32"
						},
						{
							"internalType": "uint256",
							"name": "_depositAmount",
							"type": "uint256"
						}
					],
					"name": "calculatePurchaseReturn",
					"outputs": [
						{
							"internalType": "uint256",
							"name": "",
							"type": "uint256"
						}
					],
					"stateMutability": "view",
					"type": "function"
				},
				{
					"inputs": [
						{
							"internalType": "uint256",
							"name": "_supply",
							"type": "uint256"
						},
						{
							"internalType": "uint256",
							"name": "_reserveBalance",
							"type": "uint256"
						},
						{
							"internalType": "uint32",
							"name": "_reserveRatio",
							"type": "uint32"
						},
						{
							"internalType": "uint256",
							"name": "_sellAmount",
							"type": "uint256"
						}
					],
					"name": "calculateSaleReturn",
					"outputs": [
						{
							"internalType": "uint256",
							"name": "",
							"type": "uint256"
						}
					],
					"stateMutability": "view",
					"type": "function"
				},
				{
					"inputs": [],
					"name": "version",
					"outputs": [
						{
							"internalType": "string",
							"name": "",
							"type": "string"
						}
					],
					"stateMutability": "view",
					"type": "function"
				}
			],
			"devdoc": {
				"kind": "dev",
				"methods": {
					"calculatePurchaseReturn(uint256,uint256,uint32,uint256)": {
						"details": "given a continuous token supply, reserve token balance, reserve ratio, and a deposit amount (in the reserve token), calculates the return for a given conversion (in the continuous token) Formula: Return = _supply * ((1 + _depositAmount / _reserveBalance) ^ (_reserveRatio / MAX_RESERVE_RATIO) - 1)",
						"params": {
							"_depositAmount": "deposit amount, in reserve token",
							"_reserveBalance": "total reserve token balance",
							"_reserveRatio": "reserve ratio, represented in ppm, 1-1000000",
							"_supply": "continuous token total supply"
						},
						"returns": {
							"_0": "purchase return amount"
						}
					},
					"calculateSaleReturn(uint256,uint256,uint32,uint256)": {
						"details": "given a continuous token supply, reserve token balance, reserve ratio and a sell amount (in the continuous token), calculates the return for a given conversion (in the reserve token) Formula: Return = _reserveBalance * (1 - (1 - _sellAmount / _supply) ^ (1 / (_reserveRatio / MAX_RESERVE_RATIO)))",
						"params": {
							"_reserveBalance": "total reserve token balance",
							"_reserveRatio": "constant reserve ratio, represented in ppm, 1-1000000",
							"_sellAmount": "sell amount, in the continuous token itself",
							"_supply": "continuous token total supply"
						},
						"returns": {
							"_0": "sale return amount"
						}
					}
				},
				"version": 1
			},
			"evm": {
				"assembly": "    /* \"contracts/2_BancorBondingCurve.sol\":86:3814  contract BancorBondingCurve is Power {\r... */\n  mstore(0x40, 0x80)\n    /* \"contracts/1_Power.sol\":608:637  string public version = \"0.3\" */\n  mload(0x40)\n  dup1\n  0x40\n  add\n  0x40\n  mstore\n  dup1\n  0x03\n  dup2\n  mstore\n  0x20\n  add\n  0x302e330000000000000000000000000000000000000000000000000000000000\n  dup2\n  mstore\n  pop\n  0x00\n  swap1\n  dup1\n  mload\n  swap1\n  0x20\n  add\n  swap1\n  tag_1\n  swap3\n  swap2\n  swap1\n  tag_2\n  jump\t// in\ntag_1:\n  pop\n    /* \"contracts/2_BancorBondingCurve.sol\":86:3814  contract BancorBondingCurve is Power {\r... */\n  callvalue\n  dup1\n  iszero\n  tag_3\n  jumpi\n  0x00\n  dup1\n  revert\ntag_3:\n  pop\n    /* \"contracts/1_Power.sol\":3990:4026  0x1c35fedd14ffffffffffffffffffffffff */\n  0x1c35fedd14ffffffffffffffffffffffff\n    /* \"contracts/1_Power.sol\":3972:3983  maxExpArray */\n  0x01\n    /* \"contracts/1_Power.sol\":3984:3986  32 */\n  0x20\n    /* \"contracts/1_Power.sol\":3972:3987  maxExpArray[32] */\n  0x80\n  dup2\n  lt\n  tag_6\n  jumpi\n  tag_7\n  tag_8\n  jump\t// in\ntag_7:\ntag_6:\n  add\n    /* \"contracts/1_Power.sol\":3972:4026  maxExpArray[32] = 0x1c35fedd14ffffffffffffffffffffffff */\n  dup2\n  swap1\n  sstore\n  pop\n    /* \"contracts/1_Power.sol\":4051:4087  0x1b0ce43b323fffffffffffffffffffffff */\n  0x1b0ce43b323fffffffffffffffffffffff\n    /* \"contracts/1_Power.sol\":4033:4044  maxExpArray */\n  0x01\n    /* \"contracts/1_Power.sol\":4045:4047  33 */\n  0x21\n    /* \"contracts/1_Power.sol\":4033:4048  maxExpArray[33] */\n  0x80\n  dup2\n  lt\n  tag_10\n  jumpi\n  tag_11\n  tag_8\n  jump\t// in\ntag_11:\ntag_10:\n  add\n    /* \"contracts/1_Power.sol\":4033:4087  maxExpArray[33] = 0x1b0ce43b323fffffffffffffffffffffff */\n  dup2\n  swap1\n  sstore\n  pop\n    /* \"contracts/1_Power.sol\":4112:4148  0x19f0028ec1ffffffffffffffffffffffff */\n  0x19f0028ec1ffffffffffffffffffffffff\n    /* \"contracts/1_Power.sol\":4094:4105  maxExpArray */\n  0x01\n    /* \"contracts/1_Power.sol\":4106:4108  34 */\n  0x22\n    /* \"contracts/1_Power.sol\":4094:4109  maxExpArray[34] */\n  0x80\n  dup2\n  lt\n  tag_13\n  jumpi\n  tag_14\n  tag_8\n  jump\t// in\ntag_14:\ntag_13:\n  add\n    /* \"contracts/1_Power.sol\":4094:4148  maxExpArray[34] = 0x19f0028ec1ffffffffffffffffffffffff */\n  dup2\n  swap1\n  sstore\n  pop\n    /* \"contracts/1_Power.sol\":4173:4209  0x18ded91f0e7fffffffffffffffffffffff */\n  0x18ded91f0e7fffffffffffffffffffffff\n    /* \"contracts/1_Power.sol\":4155:4166  maxExpArray */\n  0x01\n    /* \"contracts/1_Power.sol\":4167:4169  35 */\n  0x23\n    /* \"contracts/1_Power.sol\":4155:4170  maxExpArray[35] */\n  0x80\n  dup2\n  lt\n  tag_16\n  jumpi\n  tag_17\n  tag_8\n  jump\t// in\ntag_17:\ntag_16:\n  add\n    /* \"contracts/1_Power.sol\":4155:4209  maxExpArray[35] = 0x18ded91f0e7fffffffffffffffffffffff */\n  dup2\n  swap1\n  sstore\n  pop\n    /* \"contracts/1_Power.sol\":4234:4270  0x17d8ec7f0417ffffffffffffffffffffff */\n  0x17d8ec7f0417ffffffffffffffffffffff\n    /* \"contracts/1_Power.sol\":4216:4227  maxExpArray */\n  0x01\n    /* \"contracts/1_Power.sol\":4228:4230  36 */\n  0x24\n    /* \"contracts/1_Power.sol\":4216:4231  maxExpArray[36] */\n  0x80\n  dup2\n  lt\n  tag_19\n  jumpi\n  tag_20\n  tag_8\n  jump\t// in\ntag_20:\ntag_19:\n  add\n    /* \"contracts/1_Power.sol\":4216:4270  maxExpArray[36] = 0x17d8ec7f0417ffffffffffffffffffffff */\n  dup2\n  swap1\n  sstore\n  pop\n    /* \"contracts/1_Power.sol\":4295:4331  0x16ddc6556cdbffffffffffffffffffffff */\n  0x16ddc6556cdbffffffffffffffffffffff\n    /* \"contracts/1_Power.sol\":4277:4288  maxExpArray */\n  0x01\n    /* \"contracts/1_Power.sol\":4289:4291  37 */\n  0x25\n    /* \"contracts/1_Power.sol\":4277:4292  maxExpArray[37] */\n  0x80\n  dup2\n  lt\n  tag_22\n  jumpi\n  tag_23\n  tag_8\n  jump\t// in\ntag_23:\ntag_22:\n  add\n    /* \"contracts/1_Power.sol\":4277:4331  maxExpArray[37] = 0x16ddc6556cdbffffffffffffffffffffff */\n  dup2\n  swap1\n  sstore\n  pop\n    /* \"contracts/1_Power.sol\":4356:4392  0x15ecf52776a1ffffffffffffffffffffff */\n  0x15ecf52776a1ffffffffffffffffffffff\n    /* \"contracts/1_Power.sol\":4338:4349  maxExpArray */\n  0x01\n    /* \"contracts/1_Power.sol\":4350:4352  38 */\n  0x26\n    /* \"contracts/1_Power.sol\":4338:4353  maxExpArray[38] */\n  0x80\n  dup2\n  lt\n  tag_25\n  jumpi\n  tag_26\n  tag_8\n  jump\t// in\ntag_26:\ntag_25:\n  add\n    /* \"contracts/1_Power.sol\":4338:4392  maxExpArray[38] = 0x15ecf52776a1ffffffffffffffffffffff */\n  dup2\n  swap1\n  sstore\n  pop\n    /* \"contracts/1_Power.sol\":4417:4453  0x15060c256cb2ffffffffffffffffffffff */\n  0x15060c256cb2ffffffffffffffffffffff\n    /* \"contracts/1_Power.sol\":4399:4410  maxExpArray */\n  0x01\n    /* \"contracts/1_Power.sol\":4411:4413  39 */\n  0x27\n    /* \"contracts/1_Power.sol\":4399:4414  maxExpArray[39] */\n  0x80\n  dup2\n  lt\n  tag_28\n  jumpi\n  tag_29\n  tag_8\n  jump\t// in\ntag_29:\ntag_28:\n  add\n    /* \"contracts/1_Power.sol\":4399:4453  maxExpArray[39] = 0x15060c256cb2ffffffffffffffffffffff */\n  dup2\n  swap1\n  sstore\n  pop\n    /* \"contracts/1_Power.sol\":4478:4514  0x1428a2f98d72ffffffffffffffffffffff */\n  0x1428a2f98d72ffffffffffffffffffffff\n    /* \"contracts/1_Power.sol\":4460:4471  maxExpArray */\n  0x01\n    /* \"contracts/1_Power.sol\":4472:4474  40 */\n  0x28\n    /* \"contracts/1_Power.sol\":4460:4475  maxExpArray[40] */\n  0x80\n  dup2\n  lt\n  tag_31\n  jumpi\n  tag_32\n  tag_8\n  jump\t// in\ntag_32:\ntag_31:\n  add\n    /* \"contracts/1_Power.sol\":4460:4514  maxExpArray[40] = 0x1428a2f98d72ffffffffffffffffffffff */\n  dup2\n  swap1\n  sstore\n  pop\n    /* \"contracts/1_Power.sol\":4539:4575  0x13545598e5c23fffffffffffffffffffff */\n  0x13545598e5c23fffffffffffffffffffff\n    /* \"contracts/1_Power.sol\":4521:4532  maxExpArray */\n  0x01\n    /* \"contracts/1_Power.sol\":4533:4535  41 */\n  0x29\n    /* \"contracts/1_Power.sol\":4521:4536  maxExpArray[41] */\n  0x80\n  dup2\n  lt\n  tag_34\n  jumpi\n  tag_35\n  tag_8\n  jump\t// in\ntag_35:\ntag_34:\n  add\n    /* \"contracts/1_Power.sol\":4521:4575  maxExpArray[41] = 0x13545598e5c23fffffffffffffffffffff */\n  dup2\n  swap1\n  sstore\n  pop\n    /* \"contracts/1_Power.sol\":4600:4636  0x1288c4161ce1dfffffffffffffffffffff */\n  0x1288c4161ce1dfffffffffffffffffffff\n    /* \"contracts/1_Power.sol\":4582:4593  maxExpArray */\n  0x01\n    /* \"contracts/1_Power.sol\":4594:4596  42 */\n  0x2a\n    /* \"contracts/1_Power.sol\":4582:4597  maxExpArray[42] */\n  0x80\n  dup2\n  lt\n  tag_37\n  jumpi\n  tag_38\n  tag_8\n  jump\t// in\ntag_38:\ntag_37:\n  add\n    /* \"contracts/1_Power.sol\":4582:4636  maxExpArray[42] = 0x1288c4161ce1dfffffffffffffffffffff */\n  dup2\n  swap1\n  sstore\n  pop\n    /* \"contracts/1_Power.sol\":4661:4697  0x11c592761c666fffffffffffffffffffff */\n  0x11c592761c666fffffffffffffffffffff\n    /* \"contracts/1_Power.sol\":4643:4654  maxExpArray */\n  0x01\n    /* \"contracts/1_Power.sol\":4655:4657  43 */\n  0x2b\n    /* \"contracts/1_Power.sol\":4643:4658  maxExpArray[43] */\n  0x80\n  dup2\n  lt\n  tag_40\n  jumpi\n  tag_41\n  tag_8\n  jump\t// in\ntag_41:\ntag_40:\n  add\n    /* \"contracts/1_Power.sol\":4643:4697  maxExpArray[43] = 0x11c592761c666fffffffffffffffffffff */\n  dup2\n  swap1\n  sstore\n  pop\n    /* \"contracts/1_Power.sol\":4722:4758  0x110a688680a757ffffffffffffffffffff */\n  0x110a688680a757ffffffffffffffffffff\n    /* \"contracts/1_Power.sol\":4704:4715  maxExpArray */\n  0x01\n    /* \"contracts/1_Power.sol\":4716:4718  44 */\n  0x2c\n    /* \"contracts/1_Power.sol\":4704:4719  maxExpArray[44] */\n  0x80\n  dup2\n  lt\n  tag_43\n  jumpi\n  tag_44\n  tag_8\n  jump\t// in\ntag_44:\ntag_43:\n  add\n    /* \"contracts/1_Power.sol\":4704:4758  maxExpArray[44] = 0x110a688680a757ffffffffffffffffffff */\n  dup2\n  swap1\n  sstore\n  pop\n    /* \"contracts/1_Power.sol\":4783:4819  0x1056f1b5bedf77ffffffffffffffffffff */\n  0x1056f1b5bedf77ffffffffffffffffffff\n    /* \"contracts/1_Power.sol\":4765:4776  maxExpArray */\n  0x01\n    /* \"contracts/1_Power.sol\":4777:4779  45 */\n  0x2d\n    /* \"contracts/1_Power.sol\":4765:4780  maxExpArray[45] */\n  0x80\n  dup2\n  lt\n  tag_46\n  jumpi\n  tag_47\n  tag_8\n  jump\t// in\ntag_47:\ntag_46:\n  add\n    /* \"contracts/1_Power.sol\":4765:4819  maxExpArray[45] = 0x1056f1b5bedf77ffffffffffffffffffff */\n  dup2\n  swap1\n  sstore\n  pop\n    /* \"contracts/1_Power.sol\":4844:4880  0x0faadceceeff8bffffffffffffffffffff */\n  0x0faadceceeff8bffffffffffffffffffff\n    /* \"contracts/1_Power.sol\":4826:4837  maxExpArray */\n  0x01\n    /* \"contracts/1_Power.sol\":4838:4840  46 */\n  0x2e\n    /* \"contracts/1_Power.sol\":4826:4841  maxExpArray[46] */\n  0x80\n  dup2\n  lt\n  tag_49\n  jumpi\n  tag_50\n  tag_8\n  jump\t// in\ntag_50:\ntag_49:\n  add\n    /* \"contracts/1_Power.sol\":4826:4880  maxExpArray[46] = 0x0faadceceeff8bffffffffffffffffffff */\n  dup2\n  swap1\n  sstore\n  pop\n    /* \"contracts/1_Power.sol\":4905:4941  0x0f05dc6b27edadffffffffffffffffffff */\n  0x0f05dc6b27edadffffffffffffffffffff\n    /* \"contracts/1_Power.sol\":4887:4898  maxExpArray */\n  0x01\n    /* \"contracts/1_Power.sol\":4899:4901  47 */\n  0x2f\n    /* \"contracts/1_Power.sol\":4887:4902  maxExpArray[47] */\n  0x80\n  dup2\n  lt\n  tag_52\n  jumpi\n  tag_53\n  tag_8\n  jump\t// in\ntag_53:\ntag_52:\n  add\n    /* \"contracts/1_Power.sol\":4887:4941  maxExpArray[47] = 0x0f05dc6b27edadffffffffffffffffffff */\n  dup2\n  swap1\n  sstore\n  pop\n    /* \"contracts/1_Power.sol\":4966:5002  0x0e67a5a25da4107fffffffffffffffffff */\n  0x0e67a5a25da4107fffffffffffffffffff\n    /* \"contracts/1_Power.sol\":4948:4959  maxExpArray */\n  0x01\n    /* \"contracts/1_Power.sol\":4960:4962  48 */\n  0x30\n    /* \"contracts/1_Power.sol\":4948:4963  maxExpArray[48] */\n  0x80\n  dup2\n  lt\n  tag_55\n  jumpi\n  tag_56\n  tag_8\n  jump\t// in\ntag_56:\ntag_55:\n  add\n    /* \"contracts/1_Power.sol\":4948:5002  maxExpArray[48] = 0x0e67a5a25da4107fffffffffffffffffff */\n  dup2\n  swap1\n  sstore\n  pop\n    /* \"contracts/1_Power.sol\":5027:5063  0x0dcff115b14eedffffffffffffffffffff */\n  0x0dcff115b14eedffffffffffffffffffff\n    /* \"contracts/1_Power.sol\":5009:5020  maxExpArray */\n  0x01\n    /* \"contracts/1_Power.sol\":5021:5023  49 */\n  0x31\n    /* \"contracts/1_Power.sol\":5009:5024  maxExpArray[49] */\n  0x80\n  dup2\n  lt\n  tag_58\n  jumpi\n  tag_59\n  tag_8\n  jump\t// in\ntag_59:\ntag_58:\n  add\n    /* \"contracts/1_Power.sol\":5009:5063  maxExpArray[49] = 0x0dcff115b14eedffffffffffffffffffff */\n  dup2\n  swap1\n  sstore\n  pop\n    /* \"contracts/1_Power.sol\":5088:5124  0x0d3e7a392431239fffffffffffffffffff */\n  0x0d3e7a392431239fffffffffffffffffff\n    /* \"contracts/1_Power.sol\":5070:5081  maxExpArray */\n  0x01\n    /* \"contracts/1_Power.sol\":5082:5084  50 */\n  0x32\n    /* \"contracts/1_Power.sol\":5070:5085  maxExpArray[50] */\n  0x80\n  dup2\n  lt\n  tag_61\n  jumpi\n  tag_62\n  tag_8\n  jump\t// in\ntag_62:\ntag_61:\n  add\n    /* \"contracts/1_Power.sol\":5070:5124  maxExpArray[50] = 0x0d3e7a392431239fffffffffffffffffff */\n  dup2\n  swap1\n  sstore\n  pop\n    /* \"contracts/1_Power.sol\":5149:5185  0x0cb2ff529eb71e4fffffffffffffffffff */\n  0x0cb2ff529eb71e4fffffffffffffffffff\n    /* \"contracts/1_Power.sol\":5131:5142  maxExpArray */\n  0x01\n    /* \"contracts/1_Power.sol\":5143:5145  51 */\n  0x33\n    /* \"contracts/1_Power.sol\":5131:5146  maxExpArray[51] */\n  0x80\n  dup2\n  lt\n  tag_64\n  jumpi\n  tag_65\n  tag_8\n  jump\t// in\ntag_65:\ntag_64:\n  add\n    /* \"contracts/1_Power.sol\":5131:5185  maxExpArray[51] = 0x0cb2ff529eb71e4fffffffffffffffffff */\n  dup2\n  swap1\n  sstore\n  pop\n    /* \"contracts/1_Power.sol\":5210:5246  0x0c2d415c3db974afffffffffffffffffff */\n  0x0c2d415c3db974afffffffffffffffffff\n    /* \"contracts/1_Power.sol\":5192:5203  maxExpArray */\n  0x01\n    /* \"contracts/1_Power.sol\":5204:5206  52 */\n  0x34\n    /* \"contracts/1_Power.sol\":5192:5207  maxExpArray[52] */\n  0x80\n  dup2\n  lt\n  tag_67\n  jumpi\n  tag_68\n  tag_8\n  jump\t// in\ntag_68:\ntag_67:\n  add\n    /* \"contracts/1_Power.sol\":5192:5246  maxExpArray[52] = 0x0c2d415c3db974afffffffffffffffffff */\n  dup2\n  swap1\n  sstore\n  pop\n    /* \"contracts/1_Power.sol\":5271:5307  0x0bad03e7d883f69bffffffffffffffffff */\n  0x0bad03e7d883f69bffffffffffffffffff\n    /* \"contracts/1_Power.sol\":5253:5264  maxExpArray */\n  0x01\n    /* \"contracts/1_Power.sol\":5265:5267  53 */\n  0x35\n    /* \"contracts/1_Power.sol\":5253:5268  maxExpArray[53] */\n  0x80\n  dup2\n  lt\n  tag_70\n  jumpi\n  tag_71\n  tag_8\n  jump\t// in\ntag_71:\ntag_70:\n  add\n    /* \"contracts/1_Power.sol\":5253:5307  maxExpArray[53] = 0x0bad03e7d883f69bffffffffffffffffff */\n  dup2\n  swap1\n  sstore\n  pop\n    /* \"contracts/1_Power.sol\":5332:5368  0x0b320d03b2c343d5ffffffffffffffffff */\n  0x0b320d03b2c343d5ffffffffffffffffff\n    /* \"contracts/1_Power.sol\":5314:5325  maxExpArray */\n  0x01\n    /* \"contracts/1_Power.sol\":5326:5328  54 */\n  0x36\n    /* \"contracts/1_Power.sol\":5314:5329  maxExpArray[54] */\n  0x80\n  dup2\n  lt\n  tag_73\n  jumpi\n  tag_74\n  tag_8\n  jump\t// in\ntag_74:\ntag_73:\n  add\n    /* \"contracts/1_Power.sol\":5314:5368  maxExpArray[54] = 0x0b320d03b2c343d5ffffffffffffffffff */\n  dup2\n  swap1\n  sstore\n  pop\n    /* \"contracts/1_Power.sol\":5393:5429  0x0abc25204e02828dffffffffffffffffff */\n  0x0abc25204e02828dffffffffffffffffff\n    /* \"contracts/1_Power.sol\":5375:5386  maxExpArray */\n  0x01\n    /* \"contracts/1_Power.sol\":5387:5389  55 */\n  0x37\n    /* \"contracts/1_Power.sol\":5375:5390  maxExpArray[55] */\n  0x80\n  dup2\n  lt\n  tag_76\n  jumpi\n  tag_77\n  tag_8\n  jump\t// in\ntag_77:\ntag_76:\n  add\n    /* \"contracts/1_Power.sol\":5375:5429  maxExpArray[55] = 0x0abc25204e02828dffffffffffffffffff */\n  dup2\n  swap1\n  sstore\n  pop\n    /* \"contracts/1_Power.sol\":5454:5490  0x0a4b16f74ee4bb207fffffffffffffffff */\n  0x0a4b16f74ee4bb207fffffffffffffffff\n    /* \"contracts/1_Power.sol\":5436:5447  maxExpArray */\n  0x01\n    /* \"contracts/1_Power.sol\":5448:5450  56 */\n  0x38\n    /* \"contracts/1_Power.sol\":5436:5451  maxExpArray[56] */\n  0x80\n  dup2\n  lt\n  tag_79\n  jumpi\n  tag_80\n  tag_8\n  jump\t// in\ntag_80:\ntag_79:\n  add\n    /* \"contracts/1_Power.sol\":5436:5490  maxExpArray[56] = 0x0a4b16f74ee4bb207fffffffffffffffff */\n  dup2\n  swap1\n  sstore\n  pop\n    /* \"contracts/1_Power.sol\":5515:5551  0x09deaf736ac1f569ffffffffffffffffff */\n  0x09deaf736ac1f569ffffffffffffffffff\n    /* \"contracts/1_Power.sol\":5497:5508  maxExpArray */\n  0x01\n    /* \"contracts/1_Power.sol\":5509:5511  57 */\n  0x39\n    /* \"contracts/1_Power.sol\":5497:5512  maxExpArray[57] */\n  0x80\n  dup2\n  lt\n  tag_82\n  jumpi\n  tag_83\n  tag_8\n  jump\t// in\ntag_83:\ntag_82:\n  add\n    /* \"contracts/1_Power.sol\":5497:5551  maxExpArray[57] = 0x09deaf736ac1f569ffffffffffffffffff */\n  dup2\n  swap1\n  sstore\n  pop\n    /* \"contracts/1_Power.sol\":5576:5612  0x0976bd9952c7aa957fffffffffffffffff */\n  0x0976bd9952c7aa957fffffffffffffffff\n    /* \"contracts/1_Power.sol\":5558:5569  maxExpArray */\n  0x01\n    /* \"contracts/1_Power.sol\":5570:5572  58 */\n  0x3a\n    /* \"contracts/1_Power.sol\":5558:5573  maxExpArray[58] */\n  0x80\n  dup2\n  lt\n  tag_85\n  jumpi\n  tag_86\n  tag_8\n  jump\t// in\ntag_86:\ntag_85:\n  add\n    /* \"contracts/1_Power.sol\":5558:5612  maxExpArray[58] = 0x0976bd9952c7aa957fffffffffffffffff */\n  dup2\n  swap1\n  sstore\n  pop\n    /* \"contracts/1_Power.sol\":5637:5673  0x09131271922eaa606fffffffffffffffff */\n  0x09131271922eaa606fffffffffffffffff\n    /* \"contracts/1_Power.sol\":5619:5630  maxExpArray */\n  0x01\n    /* \"contracts/1_Power.sol\":5631:5633  59 */\n  0x3b\n    /* \"contracts/1_Power.sol\":5619:5634  maxExpArray[59] */\n  0x80\n  dup2\n  lt\n  tag_88\n  jumpi\n  tag_89\n  tag_8\n  jump\t// in\ntag_89:\ntag_88:\n  add\n    /* \"contracts/1_Power.sol\":5619:5673  maxExpArray[59] = 0x09131271922eaa606fffffffffffffffff */\n  dup2\n  swap1\n  sstore\n  pop\n    /* \"contracts/1_Power.sol\":5698:5734  0x08b380f3558668c46fffffffffffffffff */\n  0x08b380f3558668c46fffffffffffffffff\n    /* \"contracts/1_Power.sol\":5680:5691  maxExpArray */\n  0x01\n    /* \"contracts/1_Power.sol\":5692:5694  60 */\n  0x3c\n    /* \"contracts/1_Power.sol\":5680:5695  maxExpArray[60] */\n  0x80\n  dup2\n  lt\n  tag_91\n  jumpi\n  tag_92\n  tag_8\n  jump\t// in\ntag_92:\ntag_91:\n  add\n    /* \"contracts/1_Power.sol\":5680:5734  maxExpArray[60] = 0x08b380f3558668c46fffffffffffffffff */\n  dup2\n  swap1\n  sstore\n  pop\n    /* \"contracts/1_Power.sol\":5759:5795  0x0857ddf0117efa215bffffffffffffffff */\n  0x0857ddf0117efa215bffffffffffffffff\n    /* \"contracts/1_Power.sol\":5741:5752  maxExpArray */\n  0x01\n    /* \"contracts/1_Power.sol\":5753:5755  61 */\n  0x3d\n    /* \"contracts/1_Power.sol\":5741:5756  maxExpArray[61] */\n  0x80\n  dup2\n  lt\n  tag_94\n  jumpi\n  tag_95\n  tag_8\n  jump\t// in\ntag_95:\ntag_94:\n  add\n    /* \"contracts/1_Power.sol\":5741:5795  maxExpArray[61] = 0x0857ddf0117efa215bffffffffffffffff */\n  dup2\n  swap1\n  sstore\n  pop\n    /* \"contracts/1_Power.sol\":5820:5856  0x07ffffffffffffffffffffffffffffffff */\n  0x07ffffffffffffffffffffffffffffffff\n    /* \"contracts/1_Power.sol\":5802:5813  maxExpArray */\n  0x01\n    /* \"contracts/1_Power.sol\":5814:5816  62 */\n  0x3e\n    /* \"contracts/1_Power.sol\":5802:5817  maxExpArray[62] */\n  0x80\n  dup2\n  lt\n  tag_97\n  jumpi\n  tag_98\n  tag_8\n  jump\t// in\ntag_98:\ntag_97:\n  add\n    /* \"contracts/1_Power.sol\":5802:5856  maxExpArray[62] = 0x07ffffffffffffffffffffffffffffffff */\n  dup2\n  swap1\n  sstore\n  pop\n    /* \"contracts/1_Power.sol\":5881:5917  0x07abbf6f6abb9d087fffffffffffffffff */\n  0x07abbf6f6abb9d087fffffffffffffffff\n    /* \"contracts/1_Power.sol\":5863:5874  maxExpArray */\n  0x01\n    /* \"contracts/1_Power.sol\":5875:5877  63 */\n  0x3f\n    /* \"contracts/1_Power.sol\":5863:5878  maxExpArray[63] */\n  0x80\n  dup2\n  lt\n  tag_100\n  jumpi\n  tag_101\n  tag_8\n  jump\t// in\ntag_101:\ntag_100:\n  add\n    /* \"contracts/1_Power.sol\":5863:5917  maxExpArray[63] = 0x07abbf6f6abb9d087fffffffffffffffff */\n  dup2\n  swap1\n  sstore\n  pop\n    /* \"contracts/1_Power.sol\":5942:5978  0x075af62cbac95f7dfa7fffffffffffffff */\n  0x075af62cbac95f7dfa7fffffffffffffff\n    /* \"contracts/1_Power.sol\":5924:5935  maxExpArray */\n  0x01\n    /* \"contracts/1_Power.sol\":5936:5938  64 */\n  0x40\n    /* \"contracts/1_Power.sol\":5924:5939  maxExpArray[64] */\n  0x80\n  dup2\n  lt\n  tag_103\n  jumpi\n  tag_104\n  tag_8\n  jump\t// in\ntag_104:\ntag_103:\n  add\n    /* \"contracts/1_Power.sol\":5924:5978  maxExpArray[64] = 0x075af62cbac95f7dfa7fffffffffffffff */\n  dup2\n  swap1\n  sstore\n  pop\n    /* \"contracts/1_Power.sol\":6003:6039  0x070d7fb7452e187ac13fffffffffffffff */\n  0x070d7fb7452e187ac13fffffffffffffff\n    /* \"contracts/1_Power.sol\":5985:5996  maxExpArray */\n  0x01\n    /* \"contracts/1_Power.sol\":5997:5999  65 */\n  0x41\n    /* \"contracts/1_Power.sol\":5985:6000  maxExpArray[65] */\n  0x80\n  dup2\n  lt\n  tag_106\n  jumpi\n  tag_107\n  tag_8\n  jump\t// in\ntag_107:\ntag_106:\n  add\n    /* \"contracts/1_Power.sol\":5985:6039  maxExpArray[65] = 0x070d7fb7452e187ac13fffffffffffffff */\n  dup2\n  swap1\n  sstore\n  pop\n    /* \"contracts/1_Power.sol\":6064:6100  0x06c3390ecc8af379295fffffffffffffff */\n  0x06c3390ecc8af379295fffffffffffffff\n    /* \"contracts/1_Power.sol\":6046:6057  maxExpArray */\n  0x01\n    /* \"contracts/1_Power.sol\":6058:6060  66 */\n  0x42\n    /* \"contracts/1_Power.sol\":6046:6061  maxExpArray[66] */\n  0x80\n  dup2\n  lt\n  tag_109\n  jumpi\n  tag_110\n  tag_8\n  jump\t// in\ntag_110:\ntag_109:\n  add\n    /* \"contracts/1_Power.sol\":6046:6100  maxExpArray[66] = 0x06c3390ecc8af379295fffffffffffffff */\n  dup2\n  swap1\n  sstore\n  pop\n    /* \"contracts/1_Power.sol\":6125:6161  0x067c00a3b07ffc01fd6fffffffffffffff */\n  0x067c00a3b07ffc01fd6fffffffffffffff\n    /* \"contracts/1_Power.sol\":6107:6118  maxExpArray */\n  0x01\n    /* \"contracts/1_Power.sol\":6119:6121  67 */\n  0x43\n    /* \"contracts/1_Power.sol\":6107:6122  maxExpArray[67] */\n  0x80\n  dup2\n  lt\n  tag_112\n  jumpi\n  tag_113\n  tag_8\n  jump\t// in\ntag_113:\ntag_112:\n  add\n    /* \"contracts/1_Power.sol\":6107:6161  maxExpArray[67] = 0x067c00a3b07ffc01fd6fffffffffffffff */\n  dup2\n  swap1\n  sstore\n  pop\n    /* \"contracts/1_Power.sol\":6186:6222  0x0637b647c39cbb9d3d27ffffffffffffff */\n  0x0637b647c39cbb9d3d27ffffffffffffff\n    /* \"contracts/1_Power.sol\":6168:6179  maxExpArray */\n  0x01\n    /* \"contracts/1_Power.sol\":6180:6182  68 */\n  0x44\n    /* \"contracts/1_Power.sol\":6168:6183  maxExpArray[68] */\n  0x80\n  dup2\n  lt\n  tag_115\n  jumpi\n  tag_116\n  tag_8\n  jump\t// in\ntag_116:\ntag_115:\n  add\n    /* \"contracts/1_Power.sol\":6168:6222  maxExpArray[68] = 0x0637b647c39cbb9d3d27ffffffffffffff */\n  dup2\n  swap1\n  sstore\n  pop\n    /* \"contracts/1_Power.sol\":6247:6283  0x05f63b1fc104dbd39587ffffffffffffff */\n  0x05f63b1fc104dbd39587ffffffffffffff\n    /* \"contracts/1_Power.sol\":6229:6240  maxExpArray */\n  0x01\n    /* \"contracts/1_Power.sol\":6241:6243  69 */\n  0x45\n    /* \"contracts/1_Power.sol\":6229:6244  maxExpArray[69] */\n  0x80\n  dup2\n  lt\n  tag_118\n  jumpi\n  tag_119\n  tag_8\n  jump\t// in\ntag_119:\ntag_118:\n  add\n    /* \"contracts/1_Power.sol\":6229:6283  maxExpArray[69] = 0x05f63b1fc104dbd39587ffffffffffffff */\n  dup2\n  swap1\n  sstore\n  pop\n    /* \"contracts/1_Power.sol\":6308:6344  0x05b771955b36e12f7235ffffffffffffff */\n  0x05b771955b36e12f7235ffffffffffffff\n    /* \"contracts/1_Power.sol\":6290:6301  maxExpArray */\n  0x01\n    /* \"contracts/1_Power.sol\":6302:6304  70 */\n  0x46\n    /* \"contracts/1_Power.sol\":6290:6305  maxExpArray[70] */\n  0x80\n  dup2\n  lt\n  tag_121\n  jumpi\n  tag_122\n  tag_8\n  jump\t// in\ntag_122:\ntag_121:\n  add\n    /* \"contracts/1_Power.sol\":6290:6344  maxExpArray[70] = 0x05b771955b36e12f7235ffffffffffffff */\n  dup2\n  swap1\n  sstore\n  pop\n    /* \"contracts/1_Power.sol\":6369:6405  0x057b3d49dda84556d6f6ffffffffffffff */\n  0x057b3d49dda84556d6f6ffffffffffffff\n    /* \"contracts/1_Power.sol\":6351:6362  maxExpArray */\n  0x01\n    /* \"contracts/1_Power.sol\":6363:6365  71 */\n  0x47\n    /* \"contracts/1_Power.sol\":6351:6366  maxExpArray[71] */\n  0x80\n  dup2\n  lt\n  tag_124\n  jumpi\n  tag_125\n  tag_8\n  jump\t// in\ntag_125:\ntag_124:\n  add\n    /* \"contracts/1_Power.sol\":6351:6405  maxExpArray[71] = 0x057b3d49dda84556d6f6ffffffffffffff */\n  dup2\n  swap1\n  sstore\n  pop\n    /* \"contracts/1_Power.sol\":6430:6466  0x054183095b2c8ececf30ffffffffffffff */\n  0x054183095b2c8ececf30ffffffffffffff\n    /* \"contracts/1_Power.sol\":6412:6423  maxExpArray */\n  0x01\n    /* \"contracts/1_Power.sol\":6424:6426  72 */\n  0x48\n    /* \"contracts/1_Power.sol\":6412:6427  maxExpArray[72] */\n  0x80\n  dup2\n  lt\n  tag_127\n  jumpi\n  tag_128\n  tag_8\n  jump\t// in\ntag_128:\ntag_127:\n  add\n    /* \"contracts/1_Power.sol\":6412:6466  maxExpArray[72] = 0x054183095b2c8ececf30ffffffffffffff */\n  dup2\n  swap1\n  sstore\n  pop\n    /* \"contracts/1_Power.sol\":6491:6527  0x050a28be635ca2b888f77fffffffffffff */\n  0x050a28be635ca2b888f77fffffffffffff\n    /* \"contracts/1_Power.sol\":6473:6484  maxExpArray */\n  0x01\n    /* \"contracts/1_Power.sol\":6485:6487  73 */\n  0x49\n    /* \"contracts/1_Power.sol\":6473:6488  maxExpArray[73] */\n  0x80\n  dup2\n  lt\n  tag_130\n  jumpi\n  tag_131\n  tag_8\n  jump\t// in\ntag_131:\ntag_130:\n  add\n    /* \"contracts/1_Power.sol\":6473:6527  maxExpArray[73] = 0x050a28be635ca2b888f77fffffffffffff */\n  dup2\n  swap1\n  sstore\n  pop\n    /* \"contracts/1_Power.sol\":6552:6588  0x04d5156639708c9db33c3fffffffffffff */\n  0x04d5156639708c9db33c3fffffffffffff\n    /* \"contracts/1_Power.sol\":6534:6545  maxExpArray */\n  0x01\n    /* \"contracts/1_Power.sol\":6546:6548  74 */\n  0x4a\n    /* \"contracts/1_Power.sol\":6534:6549  maxExpArray[74] */\n  0x80\n  dup2\n  lt\n  tag_133\n  jumpi\n  tag_134\n  tag_8\n  jump\t// in\ntag_134:\ntag_133:\n  add\n    /* \"contracts/1_Power.sol\":6534:6588  maxExpArray[74] = 0x04d5156639708c9db33c3fffffffffffff */\n  dup2\n  swap1\n  sstore\n  pop\n    /* \"contracts/1_Power.sol\":6613:6649  0x04a23105873875bd52dfdfffffffffffff */\n  0x04a23105873875bd52dfdfffffffffffff\n    /* \"contracts/1_Power.sol\":6595:6606  maxExpArray */\n  0x01\n    /* \"contracts/1_Power.sol\":6607:6609  75 */\n  0x4b\n    /* \"contracts/1_Power.sol\":6595:6610  maxExpArray[75] */\n  0x80\n  dup2\n  lt\n  tag_136\n  jumpi\n  tag_137\n  tag_8\n  jump\t// in\ntag_137:\ntag_136:\n  add\n    /* \"contracts/1_Power.sol\":6595:6649  maxExpArray[75] = 0x04a23105873875bd52dfdfffffffffffff */\n  dup2\n  swap1\n  sstore\n  pop\n    /* \"contracts/1_Power.sol\":6674:6710  0x0471649d87199aa990756fffffffffffff */\n  0x0471649d87199aa990756fffffffffffff\n    /* \"contracts/1_Power.sol\":6656:6667  maxExpArray */\n  0x01\n    /* \"contracts/1_Power.sol\":6668:6670  76 */\n  0x4c\n    /* \"contracts/1_Power.sol\":6656:6671  maxExpArray[76] */\n  0x80\n  dup2\n  lt\n  tag_139\n  jumpi\n  tag_140\n  tag_8\n  jump\t// in\ntag_140:\ntag_139:\n  add\n    /* \"contracts/1_Power.sol\":6656:6710  maxExpArray[76] = 0x0471649d87199aa990756fffffffffffff */\n  dup2\n  swap1\n  sstore\n  pop\n    /* \"contracts/1_Power.sol\":6735:6771  0x04429a21a029d4c1457cfbffffffffffff */\n  0x04429a21a029d4c1457cfbffffffffffff\n    /* \"contracts/1_Power.sol\":6717:6728  maxExpArray */\n  0x01\n    /* \"contracts/1_Power.sol\":6729:6731  77 */\n  0x4d\n    /* \"contracts/1_Power.sol\":6717:6732  maxExpArray[77] */\n  0x80\n  dup2\n  lt\n  tag_142\n  jumpi\n  tag_143\n  tag_8\n  jump\t// in\ntag_143:\ntag_142:\n  add\n    /* \"contracts/1_Power.sol\":6717:6771  maxExpArray[77] = 0x04429a21a029d4c1457cfbffffffffffff */\n  dup2\n  swap1\n  sstore\n  pop\n    /* \"contracts/1_Power.sol\":6796:6832  0x0415bc6d6fb7dd71af2cb3ffffffffffff */\n  0x0415bc6d6fb7dd71af2cb3ffffffffffff\n    /* \"contracts/1_Power.sol\":6778:6789  maxExpArray */\n  0x01\n    /* \"contracts/1_Power.sol\":6790:6792  78 */\n  0x4e\n    /* \"contracts/1_Power.sol\":6778:6793  maxExpArray[78] */\n  0x80\n  dup2\n  lt\n  tag_145\n  jumpi\n  tag_146\n  tag_8\n  jump\t// in\ntag_146:\ntag_145:\n  add\n    /* \"contracts/1_Power.sol\":6778:6832  maxExpArray[78] = 0x0415bc6d6fb7dd71af2cb3ffffffffffff */\n  dup2\n  swap1\n  sstore\n  pop\n    /* \"contracts/1_Power.sol\":6857:6893  0x03eab73b3bbfe282243ce1ffffffffffff */\n  0x03eab73b3bbfe282243ce1ffffffffffff\n    /* \"contracts/1_Power.sol\":6839:6850  maxExpArray */\n  0x01\n    /* \"contracts/1_Power.sol\":6851:6853  79 */\n  0x4f\n    /* \"contracts/1_Power.sol\":6839:6854  maxExpArray[79] */\n  0x80\n  dup2\n  lt\n  tag_148\n  jumpi\n  tag_149\n  tag_8\n  jump\t// in\ntag_149:\ntag_148:\n  add\n    /* \"contracts/1_Power.sol\":6839:6893  maxExpArray[79] = 0x03eab73b3bbfe282243ce1ffffffffffff */\n  dup2\n  swap1\n  sstore\n  pop\n    /* \"contracts/1_Power.sol\":6918:6954  0x03c1771ac9fb6b4c18e229ffffffffffff */\n  0x03c1771ac9fb6b4c18e229ffffffffffff\n    /* \"contracts/1_Power.sol\":6900:6911  maxExpArray */\n  0x01\n    /* \"contracts/1_Power.sol\":6912:6914  80 */\n  0x50\n    /* \"contracts/1_Power.sol\":6900:6915  maxExpArray[80] */\n  0x80\n  dup2\n  lt\n  tag_151\n  jumpi\n  tag_152\n  tag_8\n  jump\t// in\ntag_152:\ntag_151:\n  add\n    /* \"contracts/1_Power.sol\":6900:6954  maxExpArray[80] = 0x03c1771ac9fb6b4c18e229ffffffffffff */\n  dup2\n  swap1\n  sstore\n  pop\n    /* \"contracts/1_Power.sol\":6979:7015  0x0399e96897690418f785257fffffffffff */\n  0x0399e96897690418f785257fffffffffff\n    /* \"contracts/1_Power.sol\":6961:6972  maxExpArray */\n  0x01\n    /* \"contracts/1_Power.sol\":6973:6975  81 */\n  0x51\n    /* \"contracts/1_Power.sol\":6961:6976  maxExpArray[81] */\n  0x80\n  dup2\n  lt\n  tag_154\n  jumpi\n  tag_155\n  tag_8\n  jump\t// in\ntag_155:\ntag_154:\n  add\n    /* \"contracts/1_Power.sol\":6961:7015  maxExpArray[81] = 0x0399e96897690418f785257fffffffffff */\n  dup2\n  swap1\n  sstore\n  pop\n    /* \"contracts/1_Power.sol\":7040:7076  0x0373fc456c53bb779bf0ea9fffffffffff */\n  0x0373fc456c53bb779bf0ea9fffffffffff\n    /* \"contracts/1_Power.sol\":7022:7033  maxExpArray */\n  0x01\n    /* \"contracts/1_Power.sol\":7034:7036  82 */\n  0x52\n    /* \"contracts/1_Power.sol\":7022:7037  maxExpArray[82] */\n  0x80\n  dup2\n  lt\n  tag_157\n  jumpi\n  tag_158\n  tag_8\n  jump\t// in\ntag_158:\ntag_157:\n  add\n    /* \"contracts/1_Power.sol\":7022:7076  maxExpArray[82] = 0x0373fc456c53bb779bf0ea9fffffffffff */\n  dup2\n  swap1\n  sstore\n  pop\n    /* \"contracts/1_Power.sol\":7101:7137  0x034f9e8e490c48e67e6ab8bfffffffffff */\n  0x034f9e8e490c48e67e6ab8bfffffffffff\n    /* \"contracts/1_Power.sol\":7083:7094  maxExpArray */\n  0x01\n    /* \"contracts/1_Power.sol\":7095:7097  83 */\n  0x53\n    /* \"contracts/1_Power.sol\":7083:7098  maxExpArray[83] */\n  0x80\n  dup2\n  lt\n  tag_160\n  jumpi\n  tag_161\n  tag_8\n  jump\t// in\ntag_161:\ntag_160:\n  add\n    /* \"contracts/1_Power.sol\":7083:7137  maxExpArray[83] = 0x034f9e8e490c48e67e6ab8bfffffffffff */\n  dup2\n  swap1\n  sstore\n  pop\n    /* \"contracts/1_Power.sol\":7162:7198  0x032cbfd4a7adc790560b3337ffffffffff */\n  0x032cbfd4a7adc790560b3337ffffffffff\n    /* \"contracts/1_Power.sol\":7144:7155  maxExpArray */\n  0x01\n    /* \"contracts/1_Power.sol\":7156:7158  84 */\n  0x54\n    /* \"contracts/1_Power.sol\":7144:7159  maxExpArray[84] */\n  0x80\n  dup2\n  lt\n  tag_163\n  jumpi\n  tag_164\n  tag_8\n  jump\t// in\ntag_164:\ntag_163:\n  add\n    /* \"contracts/1_Power.sol\":7144:7198  maxExpArray[84] = 0x032cbfd4a7adc790560b3337ffffffffff */\n  dup2\n  swap1\n  sstore\n  pop\n    /* \"contracts/1_Power.sol\":7223:7259  0x030b50570f6e5d2acca94613ffffffffff */\n  0x030b50570f6e5d2acca94613ffffffffff\n    /* \"contracts/1_Power.sol\":7205:7216  maxExpArray */\n  0x01\n    /* \"contracts/1_Power.sol\":7217:7219  85 */\n  0x55\n    /* \"contracts/1_Power.sol\":7205:7220  maxExpArray[85] */\n  0x80\n  dup2\n  lt\n  tag_166\n  jumpi\n  tag_167\n  tag_8\n  jump\t// in\ntag_167:\ntag_166:\n  add\n    /* \"contracts/1_Power.sol\":7205:7259  maxExpArray[85] = 0x030b50570f6e5d2acca94613ffffffffff */\n  dup2\n  swap1\n  sstore\n  pop\n    /* \"contracts/1_Power.sol\":7284:7320  0x02eb40f9f620fda6b56c2861ffffffffff */\n  0x02eb40f9f620fda6b56c2861ffffffffff\n    /* \"contracts/1_Power.sol\":7266:7277  maxExpArray */\n  0x01\n    /* \"contracts/1_Power.sol\":7278:7280  86 */\n  0x56\n    /* \"contracts/1_Power.sol\":7266:7281  maxExpArray[86] */\n  0x80\n  dup2\n  lt\n  tag_169\n  jumpi\n  tag_170\n  tag_8\n  jump\t// in\ntag_170:\ntag_169:\n  add\n    /* \"contracts/1_Power.sol\":7266:7320  maxExpArray[86] = 0x02eb40f9f620fda6b56c2861ffffffffff */\n  dup2\n  swap1\n  sstore\n  pop\n    /* \"contracts/1_Power.sol\":7345:7381  0x02cc8340ecb0d0f520a6af58ffffffffff */\n  0x02cc8340ecb0d0f520a6af58ffffffffff\n    /* \"contracts/1_Power.sol\":7327:7338  maxExpArray */\n  0x01\n    /* \"contracts/1_Power.sol\":7339:7341  87 */\n  0x57\n    /* \"contracts/1_Power.sol\":7327:7342  maxExpArray[87] */\n  0x80\n  dup2\n  lt\n  tag_172\n  jumpi\n  tag_173\n  tag_8\n  jump\t// in\ntag_173:\ntag_172:\n  add\n    /* \"contracts/1_Power.sol\":7327:7381  maxExpArray[87] = 0x02cc8340ecb0d0f520a6af58ffffffffff */\n  dup2\n  swap1\n  sstore\n  pop\n    /* \"contracts/1_Power.sol\":7406:7442  0x02af09481380a0a35cf1ba02ffffffffff */\n  0x02af09481380a0a35cf1ba02ffffffffff\n    /* \"contracts/1_Power.sol\":7388:7399  maxExpArray */\n  0x01\n    /* \"contracts/1_Power.sol\":7400:7402  88 */\n  0x58\n    /* \"contracts/1_Power.sol\":7388:7403  maxExpArray[88] */\n  0x80\n  dup2\n  lt\n  tag_175\n  jumpi\n  tag_176\n  tag_8\n  jump\t// in\ntag_176:\ntag_175:\n  add\n    /* \"contracts/1_Power.sol\":7388:7442  maxExpArray[88] = 0x02af09481380a0a35cf1ba02ffffffffff */\n  dup2\n  swap1\n  sstore\n  pop\n    /* \"contracts/1_Power.sol\":7467:7503  0x0292c5bdd3b92ec810287b1b3fffffffff */\n  0x0292c5bdd3b92ec810287b1b3fffffffff\n    /* \"contracts/1_Power.sol\":7449:7460  maxExpArray */\n  0x01\n    /* \"contracts/1_Power.sol\":7461:7463  89 */\n  0x59\n    /* \"contracts/1_Power.sol\":7449:7464  maxExpArray[89] */\n  0x80\n  dup2\n  lt\n  tag_178\n  jumpi\n  tag_179\n  tag_8\n  jump\t// in\ntag_179:\ntag_178:\n  add\n    /* \"contracts/1_Power.sol\":7449:7503  maxExpArray[89] = 0x0292c5bdd3b92ec810287b1b3fffffffff */\n  dup2\n  swap1\n  sstore\n  pop\n    /* \"contracts/1_Power.sol\":7528:7564  0x0277abdcdab07d5a77ac6d6b9fffffffff */\n  0x0277abdcdab07d5a77ac6d6b9fffffffff\n    /* \"contracts/1_Power.sol\":7510:7521  maxExpArray */\n  0x01\n    /* \"contracts/1_Power.sol\":7522:7524  90 */\n  0x5a\n    /* \"contracts/1_Power.sol\":7510:7525  maxExpArray[90] */\n  0x80\n  dup2\n  lt\n  tag_181\n  jumpi\n  tag_182\n  tag_8\n  jump\t// in\ntag_182:\ntag_181:\n  add\n    /* \"contracts/1_Power.sol\":7510:7564  maxExpArray[90] = 0x0277abdcdab07d5a77ac6d6b9fffffffff */\n  dup2\n  swap1\n  sstore\n  pop\n    /* \"contracts/1_Power.sol\":7589:7625  0x025daf6654b1eaa55fd64df5efffffffff */\n  0x025daf6654b1eaa55fd64df5efffffffff\n    /* \"contracts/1_Power.sol\":7571:7582  maxExpArray */\n  0x01\n    /* \"contracts/1_Power.sol\":7583:7585  91 */\n  0x5b\n    /* \"contracts/1_Power.sol\":7571:7586  maxExpArray[91] */\n  0x80\n  dup2\n  lt\n  tag_184\n  jumpi\n  tag_185\n  tag_8\n  jump\t// in\ntag_185:\ntag_184:\n  add\n    /* \"contracts/1_Power.sol\":7571:7625  maxExpArray[91] = 0x025daf6654b1eaa55fd64df5efffffffff */\n  dup2\n  swap1\n  sstore\n  pop\n    /* \"contracts/1_Power.sol\":7650:7686  0x0244c49c648baa98192dce88b7ffffffff */\n  0x0244c49c648baa98192dce88b7ffffffff\n    /* \"contracts/1_Power.sol\":7632:7643  maxExpArray */\n  0x01\n    /* \"contracts/1_Power.sol\":7644:7646  92 */\n  0x5c\n    /* \"contracts/1_Power.sol\":7632:7647  maxExpArray[92] */\n  0x80\n  dup2\n  lt\n  tag_187\n  jumpi\n  tag_188\n  tag_8\n  jump\t// in\ntag_188:\ntag_187:\n  add\n    /* \"contracts/1_Power.sol\":7632:7686  maxExpArray[92] = 0x0244c49c648baa98192dce88b7ffffffff */\n  dup2\n  swap1\n  sstore\n  pop\n    /* \"contracts/1_Power.sol\":7711:7747  0x022ce03cd5619a311b2471268bffffffff */\n  0x022ce03cd5619a311b2471268bffffffff\n    /* \"contracts/1_Power.sol\":7693:7704  maxExpArray */\n  0x01\n    /* \"contracts/1_Power.sol\":7705:7707  93 */\n  0x5d\n    /* \"contracts/1_Power.sol\":7693:7708  maxExpArray[93] */\n  0x80\n  dup2\n  lt\n  tag_190\n  jumpi\n  tag_191\n  tag_8\n  jump\t// in\ntag_191:\ntag_190:\n  add\n    /* \"contracts/1_Power.sol\":7693:7747  maxExpArray[93] = 0x022ce03cd5619a311b2471268bffffffff */\n  dup2\n  swap1\n  sstore\n  pop\n    /* \"contracts/1_Power.sol\":7772:7808  0x0215f77c045fbe885654a44a0fffffffff */\n  0x0215f77c045fbe885654a44a0fffffffff\n    /* \"contracts/1_Power.sol\":7754:7765  maxExpArray */\n  0x01\n    /* \"contracts/1_Power.sol\":7766:7768  94 */\n  0x5e\n    /* \"contracts/1_Power.sol\":7754:7769  maxExpArray[94] */\n  0x80\n  dup2\n  lt\n  tag_193\n  jumpi\n  tag_194\n  tag_8\n  jump\t// in\ntag_194:\ntag_193:\n  add\n    /* \"contracts/1_Power.sol\":7754:7808  maxExpArray[94] = 0x0215f77c045fbe885654a44a0fffffffff */\n  dup2\n  swap1\n  sstore\n  pop\n    /* \"contracts/1_Power.sol\":7833:7869  0x01ffffffffffffffffffffffffffffffff */\n  0x01ffffffffffffffffffffffffffffffff\n    /* \"contracts/1_Power.sol\":7815:7826  maxExpArray */\n  0x01\n    /* \"contracts/1_Power.sol\":7827:7829  95 */\n  0x5f\n    /* \"contracts/1_Power.sol\":7815:7830  maxExpArray[95] */\n  0x80\n  dup2\n  lt\n  tag_196\n  jumpi\n  tag_197\n  tag_8\n  jump\t// in\ntag_197:\ntag_196:\n  add\n    /* \"contracts/1_Power.sol\":7815:7869  maxExpArray[95] = 0x01ffffffffffffffffffffffffffffffff */\n  dup2\n  swap1\n  sstore\n  pop\n    /* \"contracts/1_Power.sol\":7894:7930  0x01eaefdbdaaee7421fc4d3ede5ffffffff */\n  0x01eaefdbdaaee7421fc4d3ede5ffffffff\n    /* \"contracts/1_Power.sol\":7876:7887  maxExpArray */\n  0x01\n    /* \"contracts/1_Power.sol\":7888:7890  96 */\n  0x60\n    /* \"contracts/1_Power.sol\":7876:7891  maxExpArray[96] */\n  0x80\n  dup2\n  lt\n  tag_199\n  jumpi\n  tag_200\n  tag_8\n  jump\t// in\ntag_200:\ntag_199:\n  add\n    /* \"contracts/1_Power.sol\":7876:7930  maxExpArray[96] = 0x01eaefdbdaaee7421fc4d3ede5ffffffff */\n  dup2\n  swap1\n  sstore\n  pop\n    /* \"contracts/1_Power.sol\":7955:7991  0x01d6bd8b2eb257df7e8ca57b09bfffffff */\n  0x01d6bd8b2eb257df7e8ca57b09bfffffff\n    /* \"contracts/1_Power.sol\":7937:7948  maxExpArray */\n  0x01\n    /* \"contracts/1_Power.sol\":7949:7951  97 */\n  0x61\n    /* \"contracts/1_Power.sol\":7937:7952  maxExpArray[97] */\n  0x80\n  dup2\n  lt\n  tag_202\n  jumpi\n  tag_203\n  tag_8\n  jump\t// in\ntag_203:\ntag_202:\n  add\n    /* \"contracts/1_Power.sol\":7937:7991  maxExpArray[97] = 0x01d6bd8b2eb257df7e8ca57b09bfffffff */\n  dup2\n  swap1\n  sstore\n  pop\n    /* \"contracts/1_Power.sol\":8016:8052  0x01c35fedd14b861eb0443f7f133fffffff */\n  0x01c35fedd14b861eb0443f7f133fffffff\n    /* \"contracts/1_Power.sol\":7998:8009  maxExpArray */\n  0x01\n    /* \"contracts/1_Power.sol\":8010:8012  98 */\n  0x62\n    /* \"contracts/1_Power.sol\":7998:8013  maxExpArray[98] */\n  0x80\n  dup2\n  lt\n  tag_205\n  jumpi\n  tag_206\n  tag_8\n  jump\t// in\ntag_206:\ntag_205:\n  add\n    /* \"contracts/1_Power.sol\":7998:8052  maxExpArray[98] = 0x01c35fedd14b861eb0443f7f133fffffff */\n  dup2\n  swap1\n  sstore\n  pop\n    /* \"contracts/1_Power.sol\":8077:8113  0x01b0ce43b322bcde4a56e8ada5afffffff */\n  0x01b0ce43b322bcde4a56e8ada5afffffff\n    /* \"contracts/1_Power.sol\":8059:8070  maxExpArray */\n  0x01\n    /* \"contracts/1_Power.sol\":8071:8073  99 */\n  0x63\n    /* \"contracts/1_Power.sol\":8059:8074  maxExpArray[99] */\n  0x80\n  dup2\n  lt\n  tag_208\n  jumpi\n  tag_209\n  tag_8\n  jump\t// in\ntag_209:\ntag_208:\n  add\n    /* \"contracts/1_Power.sol\":8059:8113  maxExpArray[99] = 0x01b0ce43b322bcde4a56e8ada5afffffff */\n  dup2\n  swap1\n  sstore\n  pop\n    /* \"contracts/1_Power.sol\":8139:8175  0x019f0028ec1fff007f5a195a39dfffffff */\n  0x019f0028ec1fff007f5a195a39dfffffff\n    /* \"contracts/1_Power.sol\":8120:8131  maxExpArray */\n  0x01\n    /* \"contracts/1_Power.sol\":8132:8135  100 */\n  0x64\n    /* \"contracts/1_Power.sol\":8120:8136  maxExpArray[100] */\n  0x80\n  dup2\n  lt\n  tag_211\n  jumpi\n  tag_212\n  tag_8\n  jump\t// in\ntag_212:\ntag_211:\n  add\n    /* \"contracts/1_Power.sol\":8120:8175  maxExpArray[100] = 0x019f0028ec1fff007f5a195a39dfffffff */\n  dup2\n  swap1\n  sstore\n  pop\n    /* \"contracts/1_Power.sol\":8201:8237  0x018ded91f0e72ee74f49b15ba527ffffff */\n  0x018ded91f0e72ee74f49b15ba527ffffff\n    /* \"contracts/1_Power.sol\":8182:8193  maxExpArray */\n  0x01\n    /* \"contracts/1_Power.sol\":8194:8197  101 */\n  0x65\n    /* \"contracts/1_Power.sol\":8182:8198  maxExpArray[101] */\n  0x80\n  dup2\n  lt\n  tag_214\n  jumpi\n  tag_215\n  tag_8\n  jump\t// in\ntag_215:\ntag_214:\n  add\n    /* \"contracts/1_Power.sol\":8182:8237  maxExpArray[101] = 0x018ded91f0e72ee74f49b15ba527ffffff */\n  dup2\n  swap1\n  sstore\n  pop\n    /* \"contracts/1_Power.sol\":8263:8299  0x017d8ec7f04136f4e5615fd41a63ffffff */\n  0x017d8ec7f04136f4e5615fd41a63ffffff\n    /* \"contracts/1_Power.sol\":8244:8255  maxExpArray */\n  0x01\n    /* \"contracts/1_Power.sol\":8256:8259  102 */\n  0x66\n    /* \"contracts/1_Power.sol\":8244:8260  maxExpArray[102] */\n  0x80\n  dup2\n  lt\n  tag_217\n  jumpi\n  tag_218\n  tag_8\n  jump\t// in\ntag_218:\ntag_217:\n  add\n    /* \"contracts/1_Power.sol\":8244:8299  maxExpArray[102] = 0x017d8ec7f04136f4e5615fd41a63ffffff */\n  dup2\n  swap1\n  sstore\n  pop\n    /* \"contracts/1_Power.sol\":8325:8361  0x016ddc6556cdb84bdc8d12d22e6fffffff */\n  0x016ddc6556cdb84bdc8d12d22e6fffffff\n    /* \"contracts/1_Power.sol\":8306:8317  maxExpArray */\n  0x01\n    /* \"contracts/1_Power.sol\":8318:8321  103 */\n  0x67\n    /* \"contracts/1_Power.sol\":8306:8322  maxExpArray[103] */\n  0x80\n  dup2\n  lt\n  tag_220\n  jumpi\n  tag_221\n  tag_8\n  jump\t// in\ntag_221:\ntag_220:\n  add\n    /* \"contracts/1_Power.sol\":8306:8361  maxExpArray[103] = 0x016ddc6556cdb84bdc8d12d22e6fffffff */\n  dup2\n  swap1\n  sstore\n  pop\n    /* \"contracts/1_Power.sol\":8387:8423  0x015ecf52776a1155b5bd8395814f7fffff */\n  0x015ecf52776a1155b5bd8395814f7fffff\n    /* \"contracts/1_Power.sol\":8368:8379  maxExpArray */\n  0x01\n    /* \"contracts/1_Power.sol\":8380:8383  104 */\n  0x68\n    /* \"contracts/1_Power.sol\":8368:8384  maxExpArray[104] */\n  0x80\n  dup2\n  lt\n  tag_223\n  jumpi\n  tag_224\n  tag_8\n  jump\t// in\ntag_224:\ntag_223:\n  add\n    /* \"contracts/1_Power.sol\":8368:8423  maxExpArray[104] = 0x015ecf52776a1155b5bd8395814f7fffff */\n  dup2\n  swap1\n  sstore\n  pop\n    /* \"contracts/1_Power.sol\":8449:8485  0x015060c256cb23b3b3cc3754cf40ffffff */\n  0x015060c256cb23b3b3cc3754cf40ffffff\n    /* \"contracts/1_Power.sol\":8430:8441  maxExpArray */\n  0x01\n    /* \"contracts/1_Power.sol\":8442:8445  105 */\n  0x69\n    /* \"contracts/1_Power.sol\":8430:8446  maxExpArray[105] */\n  0x80\n  dup2\n  lt\n  tag_226\n  jumpi\n  tag_227\n  tag_8\n  jump\t// in\ntag_227:\ntag_226:\n  add\n    /* \"contracts/1_Power.sol\":8430:8485  maxExpArray[105] = 0x015060c256cb23b3b3cc3754cf40ffffff */\n  dup2\n  swap1\n  sstore\n  pop\n    /* \"contracts/1_Power.sol\":8511:8547  0x01428a2f98d728ae223ddab715be3fffff */\n  0x01428a2f98d728ae223ddab715be3fffff\n    /* \"contracts/1_Power.sol\":8492:8503  maxExpArray */\n  0x01\n    /* \"contracts/1_Power.sol\":8504:8507  106 */\n  0x6a\n    /* \"contracts/1_Power.sol\":8492:8508  maxExpArray[106] */\n  0x80\n  dup2\n  lt\n  tag_229\n  jumpi\n  tag_230\n  tag_8\n  jump\t// in\ntag_230:\ntag_229:\n  add\n    /* \"contracts/1_Power.sol\":8492:8547  maxExpArray[106] = 0x01428a2f98d728ae223ddab715be3fffff */\n  dup2\n  swap1\n  sstore\n  pop\n    /* \"contracts/1_Power.sol\":8573:8609  0x013545598e5c23276ccf0ede68034fffff */\n  0x013545598e5c23276ccf0ede68034fffff\n    /* \"contracts/1_Power.sol\":8554:8565  maxExpArray */\n  0x01\n    /* \"contracts/1_Power.sol\":8566:8569  107 */\n  0x6b\n    /* \"contracts/1_Power.sol\":8554:8570  maxExpArray[107] */\n  0x80\n  dup2\n  lt\n  tag_232\n  jumpi\n  tag_233\n  tag_8\n  jump\t// in\ntag_233:\ntag_232:\n  add\n    /* \"contracts/1_Power.sol\":8554:8609  maxExpArray[107] = 0x013545598e5c23276ccf0ede68034fffff */\n  dup2\n  swap1\n  sstore\n  pop\n    /* \"contracts/1_Power.sol\":8635:8671  0x01288c4161ce1d6f54b7f61081194fffff */\n  0x01288c4161ce1d6f54b7f61081194fffff\n    /* \"contracts/1_Power.sol\":8616:8627  maxExpArray */\n  0x01\n    /* \"contracts/1_Power.sol\":8628:8631  108 */\n  0x6c\n    /* \"contracts/1_Power.sol\":8616:8632  maxExpArray[108] */\n  0x80\n  dup2\n  lt\n  tag_235\n  jumpi\n  tag_236\n  tag_8\n  jump\t// in\ntag_236:\ntag_235:\n  add\n    /* \"contracts/1_Power.sol\":8616:8671  maxExpArray[108] = 0x01288c4161ce1d6f54b7f61081194fffff */\n  dup2\n  swap1\n  sstore\n  pop\n    /* \"contracts/1_Power.sol\":8697:8733  0x011c592761c666aa641d5a01a40f17ffff */\n  0x011c592761c666aa641d5a01a40f17ffff\n    /* \"contracts/1_Power.sol\":8678:8689  maxExpArray */\n  0x01\n    /* \"contracts/1_Power.sol\":8690:8693  109 */\n  0x6d\n    /* \"contracts/1_Power.sol\":8678:8694  maxExpArray[109] */\n  0x80\n  dup2\n  lt\n  tag_238\n  jumpi\n  tag_239\n  tag_8\n  jump\t// in\ntag_239:\ntag_238:\n  add\n    /* \"contracts/1_Power.sol\":8678:8733  maxExpArray[109] = 0x011c592761c666aa641d5a01a40f17ffff */\n  dup2\n  swap1\n  sstore\n  pop\n    /* \"contracts/1_Power.sol\":8759:8795  0x0110a688680a7530515f3e6e6cfdcdffff */\n  0x0110a688680a7530515f3e6e6cfdcdffff\n    /* \"contracts/1_Power.sol\":8740:8751  maxExpArray */\n  0x01\n    /* \"contracts/1_Power.sol\":8752:8755  110 */\n  0x6e\n    /* \"contracts/1_Power.sol\":8740:8756  maxExpArray[110] */\n  0x80\n  dup2\n  lt\n  tag_241\n  jumpi\n  tag_242\n  tag_8\n  jump\t// in\ntag_242:\ntag_241:\n  add\n    /* \"contracts/1_Power.sol\":8740:8795  maxExpArray[110] = 0x0110a688680a7530515f3e6e6cfdcdffff */\n  dup2\n  swap1\n  sstore\n  pop\n    /* \"contracts/1_Power.sol\":8821:8857  0x01056f1b5bedf75c6bcb2ce8aed428ffff */\n  0x01056f1b5bedf75c6bcb2ce8aed428ffff\n    /* \"contracts/1_Power.sol\":8802:8813  maxExpArray */\n  0x01\n    /* \"contracts/1_Power.sol\":8814:8817  111 */\n  0x6f\n    /* \"contracts/1_Power.sol\":8802:8818  maxExpArray[111] */\n  0x80\n  dup2\n  lt\n  tag_244\n  jumpi\n  tag_245\n  tag_8\n  jump\t// in\ntag_245:\ntag_244:\n  add\n    /* \"contracts/1_Power.sol\":8802:8857  maxExpArray[111] = 0x01056f1b5bedf75c6bcb2ce8aed428ffff */\n  dup2\n  swap1\n  sstore\n  pop\n    /* \"contracts/1_Power.sol\":8883:8919  0x00faadceceeff8a0890f3875f008277fff */\n  0xfaadceceeff8a0890f3875f008277fff\n    /* \"contracts/1_Power.sol\":8864:8875  maxExpArray */\n  0x01\n    /* \"contracts/1_Power.sol\":8876:8879  112 */\n  0x70\n    /* \"contracts/1_Power.sol\":8864:8880  maxExpArray[112] */\n  0x80\n  dup2\n  lt\n  tag_247\n  jumpi\n  tag_248\n  tag_8\n  jump\t// in\ntag_248:\ntag_247:\n  add\n    /* \"contracts/1_Power.sol\":8864:8919  maxExpArray[112] = 0x00faadceceeff8a0890f3875f008277fff */\n  dup2\n  swap1\n  sstore\n  pop\n    /* \"contracts/1_Power.sol\":8945:8981  0x00f05dc6b27edad306388a600f6ba0bfff */\n  0xf05dc6b27edad306388a600f6ba0bfff\n    /* \"contracts/1_Power.sol\":8926:8937  maxExpArray */\n  0x01\n    /* \"contracts/1_Power.sol\":8938:8941  113 */\n  0x71\n    /* \"contracts/1_Power.sol\":8926:8942  maxExpArray[113] */\n  0x80\n  dup2\n  lt\n  tag_250\n  jumpi\n  tag_251\n  tag_8\n  jump\t// in\ntag_251:\ntag_250:\n  add\n    /* \"contracts/1_Power.sol\":8926:8981  maxExpArray[113] = 0x00f05dc6b27edad306388a600f6ba0bfff */\n  dup2\n  swap1\n  sstore\n  pop\n    /* \"contracts/1_Power.sol\":9007:9043  0x00e67a5a25da41063de1495d5b18cdbfff */\n  0xe67a5a25da41063de1495d5b18cdbfff\n    /* \"contracts/1_Power.sol\":8988:8999  maxExpArray */\n  0x01\n    /* \"contracts/1_Power.sol\":9000:9003  114 */\n  0x72\n    /* \"contracts/1_Power.sol\":8988:9004  maxExpArray[114] */\n  0x80\n  dup2\n  lt\n  tag_253\n  jumpi\n  tag_254\n  tag_8\n  jump\t// in\ntag_254:\ntag_253:\n  add\n    /* \"contracts/1_Power.sol\":8988:9043  maxExpArray[114] = 0x00e67a5a25da41063de1495d5b18cdbfff */\n  dup2\n  swap1\n  sstore\n  pop\n    /* \"contracts/1_Power.sol\":9069:9105  0x00dcff115b14eedde6fc3aa5353f2e4fff */\n  0xdcff115b14eedde6fc3aa5353f2e4fff\n    /* \"contracts/1_Power.sol\":9050:9061  maxExpArray */\n  0x01\n    /* \"contracts/1_Power.sol\":9062:9065  115 */\n  0x73\n    /* \"contracts/1_Power.sol\":9050:9066  maxExpArray[115] */\n  0x80\n  dup2\n  lt\n  tag_256\n  jumpi\n  tag_257\n  tag_8\n  jump\t// in\ntag_257:\ntag_256:\n  add\n    /* \"contracts/1_Power.sol\":9050:9105  maxExpArray[115] = 0x00dcff115b14eedde6fc3aa5353f2e4fff */\n  dup2\n  swap1\n  sstore\n  pop\n    /* \"contracts/1_Power.sol\":9131:9167  0x00d3e7a3924312399f9aae2e0f868f8fff */\n  0xd3e7a3924312399f9aae2e0f868f8fff\n    /* \"contracts/1_Power.sol\":9112:9123  maxExpArray */\n  0x01\n    /* \"contracts/1_Power.sol\":9124:9127  116 */\n  0x74\n    /* \"contracts/1_Power.sol\":9112:9128  maxExpArray[116] */\n  0x80\n  dup2\n  lt\n  tag_259\n  jumpi\n  tag_260\n  tag_8\n  jump\t// in\ntag_260:\ntag_259:\n  add\n    /* \"contracts/1_Power.sol\":9112:9167  maxExpArray[116] = 0x00d3e7a3924312399f9aae2e0f868f8fff */\n  dup2\n  swap1\n  sstore\n  pop\n    /* \"contracts/1_Power.sol\":9193:9229  0x00cb2ff529eb71e41582cccd5a1ee26fff */\n  0xcb2ff529eb71e41582cccd5a1ee26fff\n    /* \"contracts/1_Power.sol\":9174:9185  maxExpArray */\n  0x01\n    /* \"contracts/1_Power.sol\":9186:9189  117 */\n  0x75\n    /* \"contracts/1_Power.sol\":9174:9190  maxExpArray[117] */\n  0x80\n  dup2\n  lt\n  tag_262\n  jumpi\n  tag_263\n  tag_8\n  jump\t// in\ntag_263:\ntag_262:\n  add\n    /* \"contracts/1_Power.sol\":9174:9229  maxExpArray[117] = 0x00cb2ff529eb71e41582cccd5a1ee26fff */\n  dup2\n  swap1\n  sstore\n  pop\n    /* \"contracts/1_Power.sol\":9255:9291  0x00c2d415c3db974ab32a51840c0b67edff */\n  0xc2d415c3db974ab32a51840c0b67edff\n    /* \"contracts/1_Power.sol\":9236:9247  maxExpArray */\n  0x01\n    /* \"contracts/1_Power.sol\":9248:9251  118 */\n  0x76\n    /* \"contracts/1_Power.sol\":9236:9252  maxExpArray[118] */\n  0x80\n  dup2\n  lt\n  tag_265\n  jumpi\n  tag_266\n  tag_8\n  jump\t// in\ntag_266:\ntag_265:\n  add\n    /* \"contracts/1_Power.sol\":9236:9291  maxExpArray[118] = 0x00c2d415c3db974ab32a51840c0b67edff */\n  dup2\n  swap1\n  sstore\n  pop\n    /* \"contracts/1_Power.sol\":9317:9353  0x00bad03e7d883f69ad5b0a186184e06bff */\n  0xbad03e7d883f69ad5b0a186184e06bff\n    /* \"contracts/1_Power.sol\":9298:9309  maxExpArray */\n  0x01\n    /* \"contracts/1_Power.sol\":9310:9313  119 */\n  0x77\n    /* \"contracts/1_Power.sol\":9298:9314  maxExpArray[119] */\n  0x80\n  dup2\n  lt\n  tag_268\n  jumpi\n  tag_269\n  tag_8\n  jump\t// in\ntag_269:\ntag_268:\n  add\n    /* \"contracts/1_Power.sol\":9298:9353  maxExpArray[119] = 0x00bad03e7d883f69ad5b0a186184e06bff */\n  dup2\n  swap1\n  sstore\n  pop\n    /* \"contracts/1_Power.sol\":9379:9415  0x00b320d03b2c343d4829abd6075f0cc5ff */\n  0xb320d03b2c343d4829abd6075f0cc5ff\n    /* \"contracts/1_Power.sol\":9360:9371  maxExpArray */\n  0x01\n    /* \"contracts/1_Power.sol\":9372:9375  120 */\n  0x78\n    /* \"contracts/1_Power.sol\":9360:9376  maxExpArray[120] */\n  0x80\n  dup2\n  lt\n  tag_271\n  jumpi\n  tag_272\n  tag_8\n  jump\t// in\ntag_272:\ntag_271:\n  add\n    /* \"contracts/1_Power.sol\":9360:9415  maxExpArray[120] = 0x00b320d03b2c343d4829abd6075f0cc5ff */\n  dup2\n  swap1\n  sstore\n  pop\n    /* \"contracts/1_Power.sol\":9441:9477  0x00abc25204e02828d73c6e80bcdb1a95bf */\n  0xabc25204e02828d73c6e80bcdb1a95bf\n    /* \"contracts/1_Power.sol\":9422:9433  maxExpArray */\n  0x01\n    /* \"contracts/1_Power.sol\":9434:9437  121 */\n  0x79\n    /* \"contracts/1_Power.sol\":9422:9438  maxExpArray[121] */\n  0x80\n  dup2\n  lt\n  tag_274\n  jumpi\n  tag_275\n  tag_8\n  jump\t// in\ntag_275:\ntag_274:\n  add\n    /* \"contracts/1_Power.sol\":9422:9477  maxExpArray[121] = 0x00abc25204e02828d73c6e80bcdb1a95bf */\n  dup2\n  swap1\n  sstore\n  pop\n    /* \"contracts/1_Power.sol\":9503:9539  0x00a4b16f74ee4bb2040a1ec6c15fbbf2df */\n  0xa4b16f74ee4bb2040a1ec6c15fbbf2df\n    /* \"contracts/1_Power.sol\":9484:9495  maxExpArray */\n  0x01\n    /* \"contracts/1_Power.sol\":9496:9499  122 */\n  0x7a\n    /* \"contracts/1_Power.sol\":9484:9500  maxExpArray[122] */\n  0x80\n  dup2\n  lt\n  tag_277\n  jumpi\n  tag_278\n  tag_8\n  jump\t// in\ntag_278:\ntag_277:\n  add\n    /* \"contracts/1_Power.sol\":9484:9539  maxExpArray[122] = 0x00a4b16f74ee4bb2040a1ec6c15fbbf2df */\n  dup2\n  swap1\n  sstore\n  pop\n    /* \"contracts/1_Power.sol\":9565:9601  0x009deaf736ac1f569deb1b5ae3f36c130f */\n  0x9deaf736ac1f569deb1b5ae3f36c130f\n    /* \"contracts/1_Power.sol\":9546:9557  maxExpArray */\n  0x01\n    /* \"contracts/1_Power.sol\":9558:9561  123 */\n  0x7b\n    /* \"contracts/1_Power.sol\":9546:9562  maxExpArray[123] */\n  0x80\n  dup2\n  lt\n  tag_280\n  jumpi\n  tag_281\n  tag_8\n  jump\t// in\ntag_281:\ntag_280:\n  add\n    /* \"contracts/1_Power.sol\":9546:9601  maxExpArray[123] = 0x009deaf736ac1f569deb1b5ae3f36c130f */\n  dup2\n  swap1\n  sstore\n  pop\n    /* \"contracts/1_Power.sol\":9627:9663  0x00976bd9952c7aa957f5937d790ef65037 */\n  0x976bd9952c7aa957f5937d790ef65037\n    /* \"contracts/1_Power.sol\":9608:9619  maxExpArray */\n  0x01\n    /* \"contracts/1_Power.sol\":9620:9623  124 */\n  0x7c\n    /* \"contracts/1_Power.sol\":9608:9624  maxExpArray[124] */\n  0x80\n  dup2\n  lt\n  tag_283\n  jumpi\n  tag_284\n  tag_8\n  jump\t// in\ntag_284:\ntag_283:\n  add\n    /* \"contracts/1_Power.sol\":9608:9663  maxExpArray[124] = 0x00976bd9952c7aa957f5937d790ef65037 */\n  dup2\n  swap1\n  sstore\n  pop\n    /* \"contracts/1_Power.sol\":9689:9725  0x009131271922eaa6064b73a22d0bd4f2bf */\n  0x9131271922eaa6064b73a22d0bd4f2bf\n    /* \"contracts/1_Power.sol\":9670:9681  maxExpArray */\n  0x01\n    /* \"contracts/1_Power.sol\":9682:9685  125 */\n  0x7d\n    /* \"contracts/1_Power.sol\":9670:9686  maxExpArray[125] */\n  0x80\n  dup2\n  lt\n  tag_286\n  jumpi\n  tag_287\n  tag_8\n  jump\t// in\ntag_287:\ntag_286:\n  add\n    /* \"contracts/1_Power.sol\":9670:9725  maxExpArray[125] = 0x009131271922eaa6064b73a22d0bd4f2bf */\n  dup2\n  swap1\n  sstore\n  pop\n    /* \"contracts/1_Power.sol\":9751:9787  0x008b380f3558668c46c91c49a2f8e967b9 */\n  0x8b380f3558668c46c91c49a2f8e967b9\n    /* \"contracts/1_Power.sol\":9732:9743  maxExpArray */\n  0x01\n    /* \"contracts/1_Power.sol\":9744:9747  126 */\n  0x7e\n    /* \"contracts/1_Power.sol\":9732:9748  maxExpArray[126] */\n  0x80\n  dup2\n  lt\n  tag_289\n  jumpi\n  tag_290\n  tag_8\n  jump\t// in\ntag_290:\ntag_289:\n  add\n    /* \"contracts/1_Power.sol\":9732:9787  maxExpArray[126] = 0x008b380f3558668c46c91c49a2f8e967b9 */\n  dup2\n  swap1\n  sstore\n  pop\n    /* \"contracts/1_Power.sol\":9813:9849  0x00857ddf0117efa215952912839f6473e6 */\n  0x857ddf0117efa215952912839f6473e6\n    /* \"contracts/1_Power.sol\":9794:9805  maxExpArray */\n  0x01\n    /* \"contracts/1_Power.sol\":9806:9809  127 */\n  0x7f\n    /* \"contracts/1_Power.sol\":9794:9810  maxExpArray[127] */\n  0x80\n  dup2\n  lt\n  tag_292\n  jumpi\n  tag_293\n  tag_8\n  jump\t// in\ntag_293:\ntag_292:\n  add\n    /* \"contracts/1_Power.sol\":9794:9849  maxExpArray[127] = 0x00857ddf0117efa215952912839f6473e6 */\n  dup2\n  swap1\n  sstore\n  pop\n    /* \"contracts/2_BancorBondingCurve.sol\":86:3814  contract BancorBondingCurve is Power {\r... */\n  jump(tag_295)\ntag_2:\n  dup3\n  dup1\n  sload\n  tag_296\n  swap1\n  tag_297\n  jump\t// in\ntag_296:\n  swap1\n  0x00\n  mstore\n  keccak256(0x00, 0x20)\n  swap1\n  0x1f\n  add\n  0x20\n  swap1\n  div\n  dup2\n  add\n  swap3\n  dup3\n  tag_299\n  jumpi\n  0x00\n  dup6\n  sstore\n  jump(tag_298)\ntag_299:\n  dup3\n  0x1f\n  lt\n  tag_300\n  jumpi\n  dup1\n  mload\n  not(0xff)\n  and\n  dup4\n  dup1\n  add\n  or\n  dup6\n  sstore\n  jump(tag_298)\ntag_300:\n  dup3\n  dup1\n  add\n  0x01\n  add\n  dup6\n  sstore\n  dup3\n  iszero\n  tag_298\n  jumpi\n  swap2\n  dup3\n  add\ntag_301:\n  dup3\n  dup2\n  gt\n  iszero\n  tag_302\n  jumpi\n  dup3\n  mload\n  dup3\n  sstore\n  swap2\n  0x20\n  add\n  swap2\n  swap1\n  0x01\n  add\n  swap1\n  jump(tag_301)\ntag_302:\ntag_298:\n  pop\n  swap1\n  pop\n  tag_303\n  swap2\n  swap1\n  tag_304\n  jump\t// in\ntag_303:\n  pop\n  swap1\n  jump\t// out\ntag_304:\ntag_305:\n  dup1\n  dup3\n  gt\n  iszero\n  tag_306\n  jumpi\n  0x00\n  dup2\n  0x00\n  swap1\n  sstore\n  pop\n  0x01\n  add\n  jump(tag_305)\ntag_306:\n  pop\n  swap1\n  jump\t// out\n    /* \"#utility.yul\":7:327   */\ntag_297:\n    /* \"#utility.yul\":51:57   */\n  0x00\n    /* \"#utility.yul\":88:89   */\n  0x02\n    /* \"#utility.yul\":82:86   */\n  dup3\n    /* \"#utility.yul\":78:90   */\n  div\n    /* \"#utility.yul\":68:90   */\n  swap1\n  pop\n    /* \"#utility.yul\":135:136   */\n  0x01\n    /* \"#utility.yul\":129:133   */\n  dup3\n    /* \"#utility.yul\":125:137   */\n  and\n    /* \"#utility.yul\":156:174   */\n  dup1\n    /* \"#utility.yul\":146:227   */\n  tag_309\n  jumpi\n    /* \"#utility.yul\":212:216   */\n  0x7f\n    /* \"#utility.yul\":204:210   */\n  dup3\n    /* \"#utility.yul\":200:217   */\n  and\n    /* \"#utility.yul\":190:217   */\n  swap2\n  pop\n    /* \"#utility.yul\":146:227   */\ntag_309:\n    /* \"#utility.yul\":274:276   */\n  0x20\n    /* \"#utility.yul\":266:272   */\n  dup3\n    /* \"#utility.yul\":263:277   */\n  lt\n    /* \"#utility.yul\":243:261   */\n  dup2\n    /* \"#utility.yul\":240:278   */\n  eq\n    /* \"#utility.yul\":237:321   */\n  iszero\n  tag_310\n  jumpi\n    /* \"#utility.yul\":293:311   */\n  tag_311\n  tag_312\n  jump\t// in\ntag_311:\n    /* \"#utility.yul\":237:321   */\ntag_310:\n    /* \"#utility.yul\":58:327   */\n  pop\n    /* \"#utility.yul\":7:327   */\n  swap2\n  swap1\n  pop\n  jump\t// out\n    /* \"#utility.yul\":333:513   */\ntag_312:\n    /* \"#utility.yul\":381:458   */\n  0x4e487b7100000000000000000000000000000000000000000000000000000000\n    /* \"#utility.yul\":378:379   */\n  0x00\n    /* \"#utility.yul\":371:459   */\n  mstore\n    /* \"#utility.yul\":478:482   */\n  0x22\n    /* \"#utility.yul\":475:476   */\n  0x04\n    /* \"#utility.yul\":468:483   */\n  mstore\n    /* \"#utility.yul\":502:506   */\n  0x24\n    /* \"#utility.yul\":499:500   */\n  0x00\n    /* \"#utility.yul\":492:507   */\n  revert\n    /* \"#utility.yul\":519:699   */\ntag_8:\n    /* \"#utility.yul\":567:644   */\n  0x4e487b7100000000000000000000000000000000000000000000000000000000\n    /* \"#utility.yul\":564:565   */\n  0x00\n    /* \"#utility.yul\":557:645   */\n  mstore\n    /* \"#utility.yul\":664:668   */\n  0x32\n    /* \"#utility.yul\":661:662   */\n  0x04\n    /* \"#utility.yul\":654:669   */\n  mstore\n    /* \"#utility.yul\":688:692   */\n  0x24\n    /* \"#utility.yul\":685:686   */\n  0x00\n    /* \"#utility.yul\":678:693   */\n  revert\n    /* \"contracts/2_BancorBondingCurve.sol\":86:3814  contract BancorBondingCurve is Power {\r... */\ntag_295:\n  dataSize(sub_0)\n  dup1\n  dataOffset(sub_0)\n  0x00\n  codecopy\n  0x00\n  return\nstop\n\nsub_0: assembly {\n        /* \"contracts/2_BancorBondingCurve.sol\":86:3814  contract BancorBondingCurve is Power {\r... */\n      mstore(0x40, 0x80)\n      callvalue\n      dup1\n      iszero\n      tag_1\n      jumpi\n      0x00\n      dup1\n      revert\n    tag_1:\n      pop\n      jumpi(tag_2, lt(calldatasize, 0x04))\n      shr(0xe0, calldataload(0x00))\n      dup1\n      0x29a00e7c\n      eq\n      tag_3\n      jumpi\n      dup1\n      0x49f9b0f7\n      eq\n      tag_4\n      jumpi\n      dup1\n      0x54fd4d50\n      eq\n      tag_5\n      jumpi\n    tag_2:\n      0x00\n      dup1\n      revert\n        /* \"contracts/2_BancorBondingCurve.sol\":917:1868  function calculatePurchaseReturn(\r... */\n    tag_3:\n      tag_6\n      0x04\n      dup1\n      calldatasize\n      sub\n      dup2\n      add\n      swap1\n      tag_7\n      swap2\n      swap1\n      tag_8\n      jump\t// in\n    tag_7:\n      tag_9\n      jump\t// in\n    tag_6:\n      mload(0x40)\n      tag_10\n      swap2\n      swap1\n      tag_11\n      jump\t// in\n    tag_10:\n      mload(0x40)\n      dup1\n      swap2\n      sub\n      swap1\n      return\n        /* \"contracts/2_BancorBondingCurve.sol\":2617:3811  function calculateSaleReturn(\r... */\n    tag_4:\n      tag_12\n      0x04\n      dup1\n      calldatasize\n      sub\n      dup2\n      add\n      swap1\n      tag_13\n      swap2\n      swap1\n      tag_8\n      jump\t// in\n    tag_13:\n      tag_14\n      jump\t// in\n    tag_12:\n      mload(0x40)\n      tag_15\n      swap2\n      swap1\n      tag_11\n      jump\t// in\n    tag_15:\n      mload(0x40)\n      dup1\n      swap2\n      sub\n      swap1\n      return\n        /* \"contracts/1_Power.sol\":608:637  string public version = \"0.3\" */\n    tag_5:\n      tag_16\n      tag_17\n      jump\t// in\n    tag_16:\n      mload(0x40)\n      tag_18\n      swap2\n      swap1\n      tag_19\n      jump\t// in\n    tag_18:\n      mload(0x40)\n      dup1\n      swap2\n      sub\n      swap1\n      return\n        /* \"contracts/2_BancorBondingCurve.sol\":917:1868  function calculatePurchaseReturn(\r... */\n    tag_9:\n        /* \"contracts/2_BancorBondingCurve.sol\":1122:1129  uint256 */\n      0x00\n        /* \"contracts/2_BancorBondingCurve.sol\":1192:1193  0 */\n      dup1\n        /* \"contracts/2_BancorBondingCurve.sol\":1182:1189  _supply */\n      dup6\n        /* \"contracts/2_BancorBondingCurve.sol\":1182:1193  _supply > 0 */\n      gt\n        /* \"contracts/2_BancorBondingCurve.sol\":1182:1216  _supply > 0 && _reserveBalance > 0 */\n      dup1\n      iszero\n      tag_21\n      jumpi\n      pop\n        /* \"contracts/2_BancorBondingCurve.sol\":1215:1216  0 */\n      0x00\n        /* \"contracts/2_BancorBondingCurve.sol\":1197:1212  _reserveBalance */\n      dup5\n        /* \"contracts/2_BancorBondingCurve.sol\":1197:1216  _reserveBalance > 0 */\n      gt\n        /* \"contracts/2_BancorBondingCurve.sol\":1182:1216  _supply > 0 && _reserveBalance > 0 */\n    tag_21:\n        /* \"contracts/2_BancorBondingCurve.sol\":1182:1237  _supply > 0 && _reserveBalance > 0 && _reserveRatio > 0 */\n      dup1\n      iszero\n      tag_22\n      jumpi\n      pop\n        /* \"contracts/2_BancorBondingCurve.sol\":1236:1237  0 */\n      0x00\n        /* \"contracts/2_BancorBondingCurve.sol\":1220:1233  _reserveRatio */\n      dup4\n        /* \"contracts/2_BancorBondingCurve.sol\":1220:1237  _reserveRatio > 0 */\n      0xffffffff\n      and\n      gt\n        /* \"contracts/2_BancorBondingCurve.sol\":1182:1237  _supply > 0 && _reserveBalance > 0 && _reserveRatio > 0 */\n    tag_22:\n        /* \"contracts/2_BancorBondingCurve.sol\":1182:1275  _supply > 0 && _reserveBalance > 0 && _reserveRatio > 0 && _reserveRatio <= MAX_RESERVE_RATIO */\n      dup1\n      iszero\n      tag_23\n      jumpi\n      pop\n        /* \"contracts/2_BancorBondingCurve.sol\":174:181  1000000 */\n      0x0f4240\n        /* \"contracts/2_BancorBondingCurve.sol\":1241:1275  _reserveRatio <= MAX_RESERVE_RATIO */\n      0xffffffff\n      and\n        /* \"contracts/2_BancorBondingCurve.sol\":1241:1254  _reserveRatio */\n      dup4\n        /* \"contracts/2_BancorBondingCurve.sol\":1241:1275  _reserveRatio <= MAX_RESERVE_RATIO */\n      0xffffffff\n      and\n      gt\n      iszero\n        /* \"contracts/2_BancorBondingCurve.sol\":1182:1275  _supply > 0 && _reserveBalance > 0 && _reserveRatio > 0 && _reserveRatio <= MAX_RESERVE_RATIO */\n    tag_23:\n        /* \"contracts/2_BancorBondingCurve.sol\":1174:1276  require(_supply > 0 && _reserveBalance > 0 && _reserveRatio > 0 && _reserveRatio <= MAX_RESERVE_RATIO) */\n      tag_24\n      jumpi\n      0x00\n      dup1\n      revert\n    tag_24:\n        /* \"contracts/2_BancorBondingCurve.sol\":1309:1310  0 */\n      0x00\n        /* \"contracts/2_BancorBondingCurve.sol\":1291:1305  _depositAmount */\n      dup3\n        /* \"contracts/2_BancorBondingCurve.sol\":1291:1310  _depositAmount == 0 */\n      eq\n        /* \"contracts/2_BancorBondingCurve.sol\":1287:1347  if (_depositAmount == 0) {\r... */\n      iszero\n      tag_25\n      jumpi\n        /* \"contracts/2_BancorBondingCurve.sol\":1334:1335  0 */\n      0x00\n        /* \"contracts/2_BancorBondingCurve.sol\":1327:1335  return 0 */\n      swap1\n      pop\n      jump(tag_20)\n        /* \"contracts/2_BancorBondingCurve.sol\":1287:1347  if (_depositAmount == 0) {\r... */\n    tag_25:\n        /* \"contracts/2_BancorBondingCurve.sol\":174:181  1000000 */\n      0x0f4240\n        /* \"contracts/2_BancorBondingCurve.sol\":1408:1442  _reserveRatio == MAX_RESERVE_RATIO */\n      0xffffffff\n      and\n        /* \"contracts/2_BancorBondingCurve.sol\":1408:1421  _reserveRatio */\n      dup4\n        /* \"contracts/2_BancorBondingCurve.sol\":1408:1442  _reserveRatio == MAX_RESERVE_RATIO */\n      0xffffffff\n      and\n      eq\n        /* \"contracts/2_BancorBondingCurve.sol\":1404:1520  if (_reserveRatio == MAX_RESERVE_RATIO) {\r... */\n      iszero\n      tag_26\n      jumpi\n        /* \"contracts/2_BancorBondingCurve.sol\":1493:1508  _reserveBalance */\n      dup4\n        /* \"contracts/2_BancorBondingCurve.sol\":1476:1490  _depositAmount */\n      dup3\n        /* \"contracts/2_BancorBondingCurve.sol\":1466:1473  _supply */\n      dup7\n        /* \"contracts/2_BancorBondingCurve.sol\":1466:1490  _supply * _depositAmount */\n      tag_27\n      swap2\n      swap1\n      tag_28\n      jump\t// in\n    tag_27:\n        /* \"contracts/2_BancorBondingCurve.sol\":1466:1508  _supply * _depositAmount / _reserveBalance */\n      tag_29\n      swap2\n      swap1\n      tag_30\n      jump\t// in\n    tag_29:\n        /* \"contracts/2_BancorBondingCurve.sol\":1459:1508  return _supply * _depositAmount / _reserveBalance */\n      swap1\n      pop\n      jump(tag_20)\n        /* \"contracts/2_BancorBondingCurve.sol\":1404:1520  if (_reserveRatio == MAX_RESERVE_RATIO) {\r... */\n    tag_26:\n        /* \"contracts/2_BancorBondingCurve.sol\":1532:1546  uint256 result */\n      0x00\n        /* \"contracts/2_BancorBondingCurve.sol\":1557:1572  uint8 precision */\n      dup1\n        /* \"contracts/2_BancorBondingCurve.sol\":1583:1596  uint256 baseN */\n      0x00\n        /* \"contracts/2_BancorBondingCurve.sol\":1616:1631  _reserveBalance */\n      dup7\n        /* \"contracts/2_BancorBondingCurve.sol\":1599:1613  _depositAmount */\n      dup6\n        /* \"contracts/2_BancorBondingCurve.sol\":1599:1631  _depositAmount + _reserveBalance */\n      tag_31\n      swap2\n      swap1\n      tag_32\n      jump\t// in\n    tag_31:\n        /* \"contracts/2_BancorBondingCurve.sol\":1583:1631  uint256 baseN = _depositAmount + _reserveBalance */\n      swap1\n      pop\n        /* \"contracts/2_BancorBondingCurve.sol\":1664:1751  power(\r... */\n      tag_33\n        /* \"contracts/2_BancorBondingCurve.sol\":1684:1689  baseN */\n      dup2\n        /* \"contracts/2_BancorBondingCurve.sol\":1691:1706  _reserveBalance */\n      dup9\n        /* \"contracts/2_BancorBondingCurve.sol\":1708:1721  _reserveRatio */\n      dup9\n        /* \"contracts/2_BancorBondingCurve.sol\":174:181  1000000 */\n      0x0f4240\n        /* \"contracts/2_BancorBondingCurve.sol\":1664:1669  power */\n      tag_34\n        /* \"contracts/2_BancorBondingCurve.sol\":1664:1751  power(\r... */\n      jump\t// in\n    tag_33:\n        /* \"contracts/2_BancorBondingCurve.sol\":1642:1751  (result, precision) = power(\r... */\n      dup1\n      swap4\n      pop\n      dup2\n      swap5\n      pop\n      pop\n      pop\n        /* \"contracts/2_BancorBondingCurve.sol\":1764:1786  uint256 newTokenSupply */\n      0x00\n        /* \"contracts/2_BancorBondingCurve.sol\":1809:1818  precision */\n      dup3\n        /* \"contracts/2_BancorBondingCurve.sol\":1789:1818  (_supply*result) >> precision */\n      0xff\n      and\n        /* \"contracts/2_BancorBondingCurve.sol\":1798:1804  result */\n      dup5\n        /* \"contracts/2_BancorBondingCurve.sol\":1790:1797  _supply */\n      dup11\n        /* \"contracts/2_BancorBondingCurve.sol\":1790:1804  _supply*result */\n      tag_35\n      swap2\n      swap1\n      tag_28\n      jump\t// in\n    tag_35:\n        /* \"contracts/2_BancorBondingCurve.sol\":1789:1818  (_supply*result) >> precision */\n      swap1\n      shr\n        /* \"contracts/2_BancorBondingCurve.sol\":1764:1818  uint256 newTokenSupply = (_supply*result) >> precision */\n      swap1\n      pop\n        /* \"contracts/2_BancorBondingCurve.sol\":1853:1860  _supply */\n      dup9\n        /* \"contracts/2_BancorBondingCurve.sol\":1836:1850  newTokenSupply */\n      dup2\n        /* \"contracts/2_BancorBondingCurve.sol\":1836:1860  newTokenSupply - _supply */\n      tag_36\n      swap2\n      swap1\n      tag_37\n      jump\t// in\n    tag_36:\n        /* \"contracts/2_BancorBondingCurve.sol\":1829:1860  return newTokenSupply - _supply */\n      swap5\n      pop\n      pop\n      pop\n      pop\n      pop\n        /* \"contracts/2_BancorBondingCurve.sol\":917:1868  function calculatePurchaseReturn(\r... */\n    tag_20:\n      swap5\n      swap4\n      pop\n      pop\n      pop\n      pop\n      jump\t// out\n        /* \"contracts/2_BancorBondingCurve.sol\":2617:3811  function calculateSaleReturn(\r... */\n    tag_14:\n        /* \"contracts/2_BancorBondingCurve.sol\":2815:2822  uint256 */\n      0x00\n        /* \"contracts/2_BancorBondingCurve.sol\":2885:2886  0 */\n      dup1\n        /* \"contracts/2_BancorBondingCurve.sol\":2875:2882  _supply */\n      dup6\n        /* \"contracts/2_BancorBondingCurve.sol\":2875:2886  _supply > 0 */\n      gt\n        /* \"contracts/2_BancorBondingCurve.sol\":2875:2909  _supply > 0 && _reserveBalance > 0 */\n      dup1\n      iszero\n      tag_39\n      jumpi\n      pop\n        /* \"contracts/2_BancorBondingCurve.sol\":2908:2909  0 */\n      0x00\n        /* \"contracts/2_BancorBondingCurve.sol\":2890:2905  _reserveBalance */\n      dup5\n        /* \"contracts/2_BancorBondingCurve.sol\":2890:2909  _reserveBalance > 0 */\n      gt\n        /* \"contracts/2_BancorBondingCurve.sol\":2875:2909  _supply > 0 && _reserveBalance > 0 */\n    tag_39:\n        /* \"contracts/2_BancorBondingCurve.sol\":2875:2930  _supply > 0 && _reserveBalance > 0 && _reserveRatio > 0 */\n      dup1\n      iszero\n      tag_40\n      jumpi\n      pop\n        /* \"contracts/2_BancorBondingCurve.sol\":2929:2930  0 */\n      0x00\n        /* \"contracts/2_BancorBondingCurve.sol\":2913:2926  _reserveRatio */\n      dup4\n        /* \"contracts/2_BancorBondingCurve.sol\":2913:2930  _reserveRatio > 0 */\n      0xffffffff\n      and\n      gt\n        /* \"contracts/2_BancorBondingCurve.sol\":2875:2930  _supply > 0 && _reserveBalance > 0 && _reserveRatio > 0 */\n    tag_40:\n        /* \"contracts/2_BancorBondingCurve.sol\":2875:2968  _supply > 0 && _reserveBalance > 0 && _reserveRatio > 0 && _reserveRatio <= MAX_RESERVE_RATIO */\n      dup1\n      iszero\n      tag_41\n      jumpi\n      pop\n        /* \"contracts/2_BancorBondingCurve.sol\":174:181  1000000 */\n      0x0f4240\n        /* \"contracts/2_BancorBondingCurve.sol\":2934:2968  _reserveRatio <= MAX_RESERVE_RATIO */\n      0xffffffff\n      and\n        /* \"contracts/2_BancorBondingCurve.sol\":2934:2947  _reserveRatio */\n      dup4\n        /* \"contracts/2_BancorBondingCurve.sol\":2934:2968  _reserveRatio <= MAX_RESERVE_RATIO */\n      0xffffffff\n      and\n      gt\n      iszero\n        /* \"contracts/2_BancorBondingCurve.sol\":2875:2968  _supply > 0 && _reserveBalance > 0 && _reserveRatio > 0 && _reserveRatio <= MAX_RESERVE_RATIO */\n    tag_41:\n        /* \"contracts/2_BancorBondingCurve.sol\":2875:2994  _supply > 0 && _reserveBalance > 0 && _reserveRatio > 0 && _reserveRatio <= MAX_RESERVE_RATIO && _sellAmount <= _supply */\n      dup1\n      iszero\n      tag_42\n      jumpi\n      pop\n        /* \"contracts/2_BancorBondingCurve.sol\":2987:2994  _supply */\n      dup5\n        /* \"contracts/2_BancorBondingCurve.sol\":2972:2983  _sellAmount */\n      dup3\n        /* \"contracts/2_BancorBondingCurve.sol\":2972:2994  _sellAmount <= _supply */\n      gt\n      iszero\n        /* \"contracts/2_BancorBondingCurve.sol\":2875:2994  _supply > 0 && _reserveBalance > 0 && _reserveRatio > 0 && _reserveRatio <= MAX_RESERVE_RATIO && _sellAmount <= _supply */\n    tag_42:\n        /* \"contracts/2_BancorBondingCurve.sol\":2867:2995  require(_supply > 0 && _reserveBalance > 0 && _reserveRatio > 0 && _reserveRatio <= MAX_RESERVE_RATIO && _sellAmount <= _supply) */\n      tag_43\n      jumpi\n      0x00\n      dup1\n      revert\n    tag_43:\n        /* \"contracts/2_BancorBondingCurve.sol\":3068:3069  0 */\n      0x00\n        /* \"contracts/2_BancorBondingCurve.sol\":3053:3064  _sellAmount */\n      dup3\n        /* \"contracts/2_BancorBondingCurve.sol\":3053:3069  _sellAmount == 0 */\n      eq\n        /* \"contracts/2_BancorBondingCurve.sol\":3049:3106  if (_sellAmount == 0) {\r... */\n      iszero\n      tag_44\n      jumpi\n        /* \"contracts/2_BancorBondingCurve.sol\":3093:3094  0 */\n      0x00\n        /* \"contracts/2_BancorBondingCurve.sol\":3086:3094  return 0 */\n      swap1\n      pop\n      jump(tag_38)\n        /* \"contracts/2_BancorBondingCurve.sol\":3049:3106  if (_sellAmount == 0) {\r... */\n    tag_44:\n        /* \"contracts/2_BancorBondingCurve.sol\":3193:3200  _supply */\n      dup5\n        /* \"contracts/2_BancorBondingCurve.sol\":3178:3189  _sellAmount */\n      dup3\n        /* \"contracts/2_BancorBondingCurve.sol\":3178:3200  _sellAmount == _supply */\n      eq\n        /* \"contracts/2_BancorBondingCurve.sol\":3174:3251  if (_sellAmount == _supply) {\r... */\n      iszero\n      tag_45\n      jumpi\n        /* \"contracts/2_BancorBondingCurve.sol\":3224:3239  _reserveBalance */\n      dup4\n        /* \"contracts/2_BancorBondingCurve.sol\":3217:3239  return _reserveBalance */\n      swap1\n      pop\n      jump(tag_38)\n        /* \"contracts/2_BancorBondingCurve.sol\":3174:3251  if (_sellAmount == _supply) {\r... */\n    tag_45:\n        /* \"contracts/2_BancorBondingCurve.sol\":174:181  1000000 */\n      0x0f4240\n        /* \"contracts/2_BancorBondingCurve.sol\":3312:3346  _reserveRatio == MAX_RESERVE_RATIO */\n      0xffffffff\n      and\n        /* \"contracts/2_BancorBondingCurve.sol\":3312:3325  _reserveRatio */\n      dup4\n        /* \"contracts/2_BancorBondingCurve.sol\":3312:3346  _reserveRatio == MAX_RESERVE_RATIO */\n      0xffffffff\n      and\n      eq\n        /* \"contracts/2_BancorBondingCurve.sol\":3308:3421  if (_reserveRatio == MAX_RESERVE_RATIO) {\r... */\n      iszero\n      tag_46\n      jumpi\n        /* \"contracts/2_BancorBondingCurve.sol\":3402:3409  _supply */\n      dup5\n        /* \"contracts/2_BancorBondingCurve.sol\":3388:3399  _sellAmount */\n      dup3\n        /* \"contracts/2_BancorBondingCurve.sol\":3370:3385  _reserveBalance */\n      dup6\n        /* \"contracts/2_BancorBondingCurve.sol\":3370:3399  _reserveBalance * _sellAmount */\n      tag_47\n      swap2\n      swap1\n      tag_28\n      jump\t// in\n    tag_47:\n        /* \"contracts/2_BancorBondingCurve.sol\":3370:3409  _reserveBalance * _sellAmount / _supply */\n      tag_48\n      swap2\n      swap1\n      tag_30\n      jump\t// in\n    tag_48:\n        /* \"contracts/2_BancorBondingCurve.sol\":3363:3409  return _reserveBalance * _sellAmount / _supply */\n      swap1\n      pop\n      jump(tag_38)\n        /* \"contracts/2_BancorBondingCurve.sol\":3308:3421  if (_reserveRatio == MAX_RESERVE_RATIO) {\r... */\n    tag_46:\n        /* \"contracts/2_BancorBondingCurve.sol\":3433:3447  uint256 result */\n      0x00\n        /* \"contracts/2_BancorBondingCurve.sol\":3458:3473  uint8 precision */\n      dup1\n        /* \"contracts/2_BancorBondingCurve.sol\":3484:3497  uint256 baseD */\n      0x00\n        /* \"contracts/2_BancorBondingCurve.sol\":3510:3521  _sellAmount */\n      dup5\n        /* \"contracts/2_BancorBondingCurve.sol\":3500:3507  _supply */\n      dup9\n        /* \"contracts/2_BancorBondingCurve.sol\":3500:3521  _supply - _sellAmount */\n      tag_49\n      swap2\n      swap1\n      tag_37\n      jump\t// in\n    tag_49:\n        /* \"contracts/2_BancorBondingCurve.sol\":3484:3521  uint256 baseD = _supply - _sellAmount */\n      swap1\n      pop\n        /* \"contracts/2_BancorBondingCurve.sol\":3554:3633  power(\r... */\n      tag_50\n        /* \"contracts/2_BancorBondingCurve.sol\":3574:3581  _supply */\n      dup9\n        /* \"contracts/2_BancorBondingCurve.sol\":3583:3588  baseD */\n      dup3\n        /* \"contracts/2_BancorBondingCurve.sol\":174:181  1000000 */\n      0x0f4240\n        /* \"contracts/2_BancorBondingCurve.sol\":3609:3622  _reserveRatio */\n      dup10\n        /* \"contracts/2_BancorBondingCurve.sol\":3554:3559  power */\n      tag_34\n        /* \"contracts/2_BancorBondingCurve.sol\":3554:3633  power(\r... */\n      jump\t// in\n    tag_50:\n        /* \"contracts/2_BancorBondingCurve.sol\":3532:3633  (result, precision) = power(\r... */\n      dup1\n      swap4\n      pop\n      dup2\n      swap5\n      pop\n      pop\n      pop\n        /* \"contracts/2_BancorBondingCurve.sol\":3644:3662  uint256 oldBalance */\n      0x00\n        /* \"contracts/2_BancorBondingCurve.sol\":3683:3689  result */\n      dup4\n        /* \"contracts/2_BancorBondingCurve.sol\":3665:3680  _reserveBalance */\n      dup9\n        /* \"contracts/2_BancorBondingCurve.sol\":3665:3689  _reserveBalance * result */\n      tag_51\n      swap2\n      swap1\n      tag_28\n      jump\t// in\n    tag_51:\n        /* \"contracts/2_BancorBondingCurve.sol\":3644:3689  uint256 oldBalance = _reserveBalance * result */\n      swap1\n      pop\n        /* \"contracts/2_BancorBondingCurve.sol\":3700:3718  uint256 newBalance */\n      0x00\n        /* \"contracts/2_BancorBondingCurve.sol\":3740:3749  precision */\n      dup4\n        /* \"contracts/2_BancorBondingCurve.sol\":3721:3749  _reserveBalance << precision */\n      0xff\n      and\n        /* \"contracts/2_BancorBondingCurve.sol\":3721:3736  _reserveBalance */\n      dup10\n        /* \"contracts/2_BancorBondingCurve.sol\":3721:3749  _reserveBalance << precision */\n      swap1\n      shl\n        /* \"contracts/2_BancorBondingCurve.sol\":3700:3749  uint256 newBalance = _reserveBalance << precision */\n      swap1\n      pop\n        /* \"contracts/2_BancorBondingCurve.sol\":3797:3803  result */\n      dup5\n        /* \"contracts/2_BancorBondingCurve.sol\":3783:3793  newBalance */\n      dup2\n        /* \"contracts/2_BancorBondingCurve.sol\":3770:3780  oldBalance */\n      dup4\n        /* \"contracts/2_BancorBondingCurve.sol\":3770:3793  oldBalance - newBalance */\n      tag_52\n      swap2\n      swap1\n      tag_37\n      jump\t// in\n    tag_52:\n        /* \"contracts/2_BancorBondingCurve.sol\":3769:3803  (oldBalance - newBalance) / result */\n      tag_53\n      swap2\n      swap1\n      tag_30\n      jump\t// in\n    tag_53:\n        /* \"contracts/2_BancorBondingCurve.sol\":3762:3803  return (oldBalance - newBalance) / result */\n      swap6\n      pop\n      pop\n      pop\n      pop\n      pop\n      pop\n        /* \"contracts/2_BancorBondingCurve.sol\":2617:3811  function calculateSaleReturn(\r... */\n    tag_38:\n      swap5\n      swap4\n      pop\n      pop\n      pop\n      pop\n      jump\t// out\n        /* \"contracts/1_Power.sol\":608:637  string public version = \"0.3\" */\n    tag_17:\n      0x00\n      dup1\n      sload\n      tag_54\n      swap1\n      tag_55\n      jump\t// in\n    tag_54:\n      dup1\n      0x1f\n      add\n      0x20\n      dup1\n      swap2\n      div\n      mul\n      0x20\n      add\n      mload(0x40)\n      swap1\n      dup2\n      add\n      0x40\n      mstore\n      dup1\n      swap3\n      swap2\n      swap1\n      dup2\n      dup2\n      mstore\n      0x20\n      add\n      dup3\n      dup1\n      sload\n      tag_56\n      swap1\n      tag_55\n      jump\t// in\n    tag_56:\n      dup1\n      iszero\n      tag_57\n      jumpi\n      dup1\n      0x1f\n      lt\n      tag_58\n      jumpi\n      0x0100\n      dup1\n      dup4\n      sload\n      div\n      mul\n      dup4\n      mstore\n      swap2\n      0x20\n      add\n      swap2\n      jump(tag_57)\n    tag_58:\n      dup3\n      add\n      swap2\n      swap1\n      0x00\n      mstore\n      keccak256(0x00, 0x20)\n      swap1\n    tag_59:\n      dup2\n      sload\n      dup2\n      mstore\n      swap1\n      0x01\n      add\n      swap1\n      0x20\n      add\n      dup1\n      dup4\n      gt\n      tag_59\n      jumpi\n      dup3\n      swap1\n      sub\n      0x1f\n      and\n      dup3\n      add\n      swap2\n    tag_57:\n      pop\n      pop\n      pop\n      pop\n      pop\n      dup2\n      jump\t// out\n        /* \"contracts/1_Power.sol\":11226:12047  function power(\r... */\n    tag_34:\n        /* \"contracts/1_Power.sol\":11349:11356  uint256 */\n      0x00\n        /* \"contracts/1_Power.sol\":11358:11363  uint8 */\n      dup1\n        /* \"contracts/1_Power.sol\":1198:1233  0x200000000000000000000000000000000 */\n      0x0200000000000000000000000000000000\n        /* \"contracts/1_Power.sol\":11383:11389  _baseN */\n      dup7\n        /* \"contracts/1_Power.sol\":11383:11399  _baseN < MAX_NUM */\n      lt\n        /* \"contracts/1_Power.sol\":11375:11428  require(_baseN < MAX_NUM, \"baseN exceeds max value.\") */\n      tag_61\n      jumpi\n      mload(0x40)\n      0x08c379a000000000000000000000000000000000000000000000000000000000\n      dup2\n      mstore\n      0x04\n      add\n      tag_62\n      swap1\n      tag_63\n      jump\t// in\n    tag_62:\n      mload(0x40)\n      dup1\n      swap2\n      sub\n      swap1\n      revert\n    tag_61:\n        /* \"contracts/1_Power.sol\":11453:11459  _baseD */\n      dup5\n        /* \"contracts/1_Power.sol\":11443:11449  _baseN */\n      dup7\n        /* \"contracts/1_Power.sol\":11443:11459  _baseN >= _baseD */\n      lt\n      iszero\n        /* \"contracts/1_Power.sol\":11435:11492  require(_baseN >= _baseD, \"Bases < 1 are not supported.\") */\n      tag_64\n      jumpi\n      mload(0x40)\n      0x08c379a000000000000000000000000000000000000000000000000000000000\n      dup2\n      mstore\n      0x04\n      add\n      tag_65\n      swap1\n      tag_66\n      jump\t// in\n    tag_65:\n      mload(0x40)\n      dup1\n      swap2\n      sub\n      swap1\n      revert\n    tag_64:\n        /* \"contracts/1_Power.sol\":11501:11516  uint256 baseLog */\n      0x00\n        /* \"contracts/1_Power.sol\":11523:11535  uint256 base */\n      dup1\n        /* \"contracts/1_Power.sol\":11557:11563  _baseD */\n      dup7\n        /* \"contracts/1_Power.sol\":1048:1083  0x080000000000000000000000000000000 */\n      0x80000000000000000000000000000000\n        /* \"contracts/1_Power.sol\":11538:11544  _baseN */\n      dup10\n        /* \"contracts/1_Power.sol\":11538:11554  _baseN * FIXED_1 */\n      tag_67\n      swap2\n      swap1\n      tag_28\n      jump\t// in\n    tag_67:\n        /* \"contracts/1_Power.sol\":11538:11563  _baseN * FIXED_1 / _baseD */\n      tag_68\n      swap2\n      swap1\n      tag_30\n      jump\t// in\n    tag_68:\n        /* \"contracts/1_Power.sol\":11523:11563  uint256 base = _baseN * FIXED_1 / _baseD */\n      swap1\n      pop\n        /* \"contracts/1_Power.sol\":1618:1653  0x15bf0a8b1457695355fb8ac404e7a79e3 */\n      0x015bf0a8b1457695355fb8ac404e7a79e3\n        /* \"contracts/1_Power.sol\":11574:11578  base */\n      dup2\n        /* \"contracts/1_Power.sol\":11574:11596  base < OPT_LOG_MAX_VAL */\n      lt\n        /* \"contracts/1_Power.sol\":11570:11690  if (base < OPT_LOG_MAX_VAL) {\r... */\n      iszero\n      tag_69\n      jumpi\n        /* \"contracts/1_Power.sol\":11617:11633  optimalLog(base) */\n      tag_70\n        /* \"contracts/1_Power.sol\":11628:11632  base */\n      dup2\n        /* \"contracts/1_Power.sol\":11617:11627  optimalLog */\n      tag_71\n        /* \"contracts/1_Power.sol\":11617:11633  optimalLog(base) */\n      jump\t// in\n    tag_70:\n        /* \"contracts/1_Power.sol\":11607:11633  baseLog = optimalLog(base) */\n      swap2\n      pop\n        /* \"contracts/1_Power.sol\":11570:11690  if (base < OPT_LOG_MAX_VAL) {\r... */\n      jump(tag_72)\n    tag_69:\n        /* \"contracts/1_Power.sol\":11666:11682  generalLog(base) */\n      tag_73\n        /* \"contracts/1_Power.sol\":11677:11681  base */\n      dup2\n        /* \"contracts/1_Power.sol\":11666:11676  generalLog */\n      tag_74\n        /* \"contracts/1_Power.sol\":11666:11682  generalLog(base) */\n      jump\t// in\n    tag_73:\n        /* \"contracts/1_Power.sol\":11656:11682  baseLog = generalLog(base) */\n      swap2\n      pop\n        /* \"contracts/1_Power.sol\":11570:11690  if (base < OPT_LOG_MAX_VAL) {\r... */\n    tag_72:\n        /* \"contracts/1_Power.sol\":11698:11721  uint256 baseLogTimesExp */\n      0x00\n        /* \"contracts/1_Power.sol\":11742:11747  _expD */\n      dup6\n        /* \"contracts/1_Power.sol\":11724:11747  baseLog * _expN / _expD */\n      0xffffffff\n      and\n        /* \"contracts/1_Power.sol\":11734:11739  _expN */\n      dup8\n        /* \"contracts/1_Power.sol\":11724:11739  baseLog * _expN */\n      0xffffffff\n      and\n        /* \"contracts/1_Power.sol\":11724:11731  baseLog */\n      dup5\n        /* \"contracts/1_Power.sol\":11724:11739  baseLog * _expN */\n      tag_75\n      swap2\n      swap1\n      tag_28\n      jump\t// in\n    tag_75:\n        /* \"contracts/1_Power.sol\":11724:11747  baseLog * _expN / _expD */\n      tag_76\n      swap2\n      swap1\n      tag_30\n      jump\t// in\n    tag_76:\n        /* \"contracts/1_Power.sol\":11698:11747  uint256 baseLogTimesExp = baseLog * _expN / _expD */\n      swap1\n      pop\n        /* \"contracts/1_Power.sol\":1704:1739  0x800000000000000000000000000000000 */\n      0x0800000000000000000000000000000000\n        /* \"contracts/1_Power.sol\":11758:11773  baseLogTimesExp */\n      dup2\n        /* \"contracts/1_Power.sol\":11758:11791  baseLogTimesExp < OPT_EXP_MAX_VAL */\n      lt\n        /* \"contracts/1_Power.sol\":11754:12042  if (baseLogTimesExp < OPT_EXP_MAX_VAL) {\r... */\n      iszero\n      tag_77\n      jumpi\n        /* \"contracts/1_Power.sol\":11810:11837  optimalExp(baseLogTimesExp) */\n      tag_78\n        /* \"contracts/1_Power.sol\":11821:11836  baseLogTimesExp */\n      dup2\n        /* \"contracts/1_Power.sol\":11810:11820  optimalExp */\n      tag_79\n        /* \"contracts/1_Power.sol\":11810:11837  optimalExp(baseLogTimesExp) */\n      jump\t// in\n    tag_78:\n        /* \"contracts/1_Power.sol\":815:818  127 */\n      0x7f\n        /* \"contracts/1_Power.sol\":11802:11853  return (optimalExp(baseLogTimesExp), MAX_PRECISION) */\n      swap5\n      pop\n      swap5\n      pop\n      pop\n      pop\n      pop\n      jump(tag_60)\n        /* \"contracts/1_Power.sol\":11754:12042  if (baseLogTimesExp < OPT_EXP_MAX_VAL) {\r... */\n    tag_77:\n        /* \"contracts/1_Power.sol\":11876:11891  uint8 precision */\n      0x00\n        /* \"contracts/1_Power.sol\":11894:11936  findPositionInMaxExpArray(baseLogTimesExp) */\n      tag_81\n        /* \"contracts/1_Power.sol\":11920:11935  baseLogTimesExp */\n      dup3\n        /* \"contracts/1_Power.sol\":11894:11919  findPositionInMaxExpArray */\n      tag_82\n        /* \"contracts/1_Power.sol\":11894:11936  findPositionInMaxExpArray(baseLogTimesExp) */\n      jump\t// in\n    tag_81:\n        /* \"contracts/1_Power.sol\":11876:11936  uint8 precision = findPositionInMaxExpArray(baseLogTimesExp) */\n      swap1\n      pop\n        /* \"contracts/1_Power.sol\":11953:12022  generalExp(baseLogTimesExp >> (MAX_PRECISION - precision), precision) */\n      tag_83\n        /* \"contracts/1_Power.sol\":12000:12009  precision */\n      dup2\n        /* \"contracts/1_Power.sol\":815:818  127 */\n      0x7f\n        /* \"contracts/1_Power.sol\":11984:12009  MAX_PRECISION - precision */\n      tag_84\n      swap2\n      swap1\n      tag_85\n      jump\t// in\n    tag_84:\n        /* \"contracts/1_Power.sol\":11964:12010  baseLogTimesExp >> (MAX_PRECISION - precision) */\n      0xff\n      and\n        /* \"contracts/1_Power.sol\":11964:11979  baseLogTimesExp */\n      dup4\n        /* \"contracts/1_Power.sol\":11964:12010  baseLogTimesExp >> (MAX_PRECISION - precision) */\n      swap1\n      shr\n        /* \"contracts/1_Power.sol\":12012:12021  precision */\n      dup3\n        /* \"contracts/1_Power.sol\":11953:11963  generalExp */\n      tag_86\n        /* \"contracts/1_Power.sol\":11953:12022  generalExp(baseLogTimesExp >> (MAX_PRECISION - precision), precision) */\n      jump\t// in\n    tag_83:\n        /* \"contracts/1_Power.sol\":12024:12033  precision */\n      dup2\n        /* \"contracts/1_Power.sol\":11945:12034  return (generalExp(baseLogTimesExp >> (MAX_PRECISION - precision), precision), precision) */\n      swap6\n      pop\n      swap6\n      pop\n      pop\n      pop\n      pop\n      pop\n        /* \"contracts/1_Power.sol\":11226:12047  function power(\r... */\n    tag_60:\n      swap5\n      pop\n      swap5\n      swap3\n      pop\n      pop\n      pop\n      jump\t// out\n        /* \"contracts/1_Power.sol\":18860:21261  function optimalLog(uint256 x) internal pure returns (uint256) {\r... */\n    tag_71:\n        /* \"contracts/1_Power.sol\":18914:18921  uint256 */\n      0x00\n        /* \"contracts/1_Power.sol\":18933:18944  uint256 res */\n      dup1\n        /* \"contracts/1_Power.sol\":18947:18948  0 */\n      0x00\n        /* \"contracts/1_Power.sol\":18933:18948  uint256 res = 0 */\n      swap1\n      pop\n        /* \"contracts/1_Power.sol\":18960:18969  uint256 y */\n      0x00\n        /* \"contracts/1_Power.sol\":18979:18988  uint256 z */\n      dup1\n        /* \"contracts/1_Power.sol\":18998:19007  uint256 w */\n      0x00\n        /* \"contracts/1_Power.sol\":19028:19062  0xd3094c70f034de4b96ff7d5b6f99fcd8 */\n      0xd3094c70f034de4b96ff7d5b6f99fcd8\n        /* \"contracts/1_Power.sol\":19023:19024  x */\n      dup7\n        /* \"contracts/1_Power.sol\":19023:19062  x >= 0xd3094c70f034de4b96ff7d5b6f99fcd8 */\n      lt\n        /* \"contracts/1_Power.sol\":19019:19162  if (x >= 0xd3094c70f034de4b96ff7d5b6f99fcd8) {res += 0x40000000000000000000000000000000; x = x * FIXED_1 / 0xd3094c70f034de4b96ff7d5b6f99fcd8;} */\n      tag_88\n      jumpi\n        /* \"contracts/1_Power.sol\":19072:19106  0x40000000000000000000000000000000 */\n      0x40000000000000000000000000000000\n        /* \"contracts/1_Power.sol\":19065:19106  res += 0x40000000000000000000000000000000 */\n      dup5\n      tag_89\n      swap2\n      swap1\n      tag_32\n      jump\t// in\n    tag_89:\n      swap4\n      pop\n        /* \"contracts/1_Power.sol\":19126:19160  0xd3094c70f034de4b96ff7d5b6f99fcd8 */\n      0xd3094c70f034de4b96ff7d5b6f99fcd8\n        /* \"contracts/1_Power.sol\":1048:1083  0x080000000000000000000000000000000 */\n      0x80000000000000000000000000000000\n        /* \"contracts/1_Power.sol\":19112:19113  x */\n      dup8\n        /* \"contracts/1_Power.sol\":19112:19123  x * FIXED_1 */\n      tag_90\n      swap2\n      swap1\n      tag_28\n      jump\t// in\n    tag_90:\n        /* \"contracts/1_Power.sol\":19112:19160  x * FIXED_1 / 0xd3094c70f034de4b96ff7d5b6f99fcd8 */\n      tag_91\n      swap2\n      swap1\n      tag_30\n      jump\t// in\n    tag_91:\n        /* \"contracts/1_Power.sol\":19108:19160  x = x * FIXED_1 / 0xd3094c70f034de4b96ff7d5b6f99fcd8 */\n      swap6\n      pop\n        /* \"contracts/1_Power.sol\":19019:19162  if (x >= 0xd3094c70f034de4b96ff7d5b6f99fcd8) {res += 0x40000000000000000000000000000000; x = x * FIXED_1 / 0xd3094c70f034de4b96ff7d5b6f99fcd8;} */\n    tag_88:\n        /* \"contracts/1_Power.sol\":19180:19214  0xa45af1e1f40c333b3de1db4dd55f29a7 */\n      0xa45af1e1f40c333b3de1db4dd55f29a7\n        /* \"contracts/1_Power.sol\":19175:19176  x */\n      dup7\n        /* \"contracts/1_Power.sol\":19175:19214  x >= 0xa45af1e1f40c333b3de1db4dd55f29a7 */\n      lt\n        /* \"contracts/1_Power.sol\":19171:19314  if (x >= 0xa45af1e1f40c333b3de1db4dd55f29a7) {res += 0x20000000000000000000000000000000; x = x * FIXED_1 / 0xa45af1e1f40c333b3de1db4dd55f29a7;} */\n      tag_92\n      jumpi\n        /* \"contracts/1_Power.sol\":19224:19258  0x20000000000000000000000000000000 */\n      0x20000000000000000000000000000000\n        /* \"contracts/1_Power.sol\":19217:19258  res += 0x20000000000000000000000000000000 */\n      dup5\n      tag_93\n      swap2\n      swap1\n      tag_32\n      jump\t// in\n    tag_93:\n      swap4\n      pop\n        /* \"contracts/1_Power.sol\":19278:19312  0xa45af1e1f40c333b3de1db4dd55f29a7 */\n      0xa45af1e1f40c333b3de1db4dd55f29a7\n        /* \"contracts/1_Power.sol\":1048:1083  0x080000000000000000000000000000000 */\n      0x80000000000000000000000000000000\n        /* \"contracts/1_Power.sol\":19264:19265  x */\n      dup8\n        /* \"contracts/1_Power.sol\":19264:19275  x * FIXED_1 */\n      tag_94\n      swap2\n      swap1\n      tag_28\n      jump\t// in\n    tag_94:\n        /* \"contracts/1_Power.sol\":19264:19312  x * FIXED_1 / 0xa45af1e1f40c333b3de1db4dd55f29a7 */\n      tag_95\n      swap2\n      swap1\n      tag_30\n      jump\t// in\n    tag_95:\n        /* \"contracts/1_Power.sol\":19260:19312  x = x * FIXED_1 / 0xa45af1e1f40c333b3de1db4dd55f29a7 */\n      swap6\n      pop\n        /* \"contracts/1_Power.sol\":19171:19314  if (x >= 0xa45af1e1f40c333b3de1db4dd55f29a7) {res += 0x20000000000000000000000000000000; x = x * FIXED_1 / 0xa45af1e1f40c333b3de1db4dd55f29a7;} */\n    tag_92:\n        /* \"contracts/1_Power.sol\":19332:19366  0x910b022db7ae67ce76b441c27035c6a1 */\n      0x910b022db7ae67ce76b441c27035c6a1\n        /* \"contracts/1_Power.sol\":19327:19328  x */\n      dup7\n        /* \"contracts/1_Power.sol\":19327:19366  x >= 0x910b022db7ae67ce76b441c27035c6a1 */\n      lt\n        /* \"contracts/1_Power.sol\":19323:19466  if (x >= 0x910b022db7ae67ce76b441c27035c6a1) {res += 0x10000000000000000000000000000000; x = x * FIXED_1 / 0x910b022db7ae67ce76b441c27035c6a1;} */\n      tag_96\n      jumpi\n        /* \"contracts/1_Power.sol\":19376:19410  0x10000000000000000000000000000000 */\n      0x10000000000000000000000000000000\n        /* \"contracts/1_Power.sol\":19369:19410  res += 0x10000000000000000000000000000000 */\n      dup5\n      tag_97\n      swap2\n      swap1\n      tag_32\n      jump\t// in\n    tag_97:\n      swap4\n      pop\n        /* \"contracts/1_Power.sol\":19430:19464  0x910b022db7ae67ce76b441c27035c6a1 */\n      0x910b022db7ae67ce76b441c27035c6a1\n        /* \"contracts/1_Power.sol\":1048:1083  0x080000000000000000000000000000000 */\n      0x80000000000000000000000000000000\n        /* \"contracts/1_Power.sol\":19416:19417  x */\n      dup8\n        /* \"contracts/1_Power.sol\":19416:19427  x * FIXED_1 */\n      tag_98\n      swap2\n      swap1\n      tag_28\n      jump\t// in\n    tag_98:\n        /* \"contracts/1_Power.sol\":19416:19464  x * FIXED_1 / 0x910b022db7ae67ce76b441c27035c6a1 */\n      tag_99\n      swap2\n      swap1\n      tag_30\n      jump\t// in\n    tag_99:\n        /* \"contracts/1_Power.sol\":19412:19464  x = x * FIXED_1 / 0x910b022db7ae67ce76b441c27035c6a1 */\n      swap6\n      pop\n        /* \"contracts/1_Power.sol\":19323:19466  if (x >= 0x910b022db7ae67ce76b441c27035c6a1) {res += 0x10000000000000000000000000000000; x = x * FIXED_1 / 0x910b022db7ae67ce76b441c27035c6a1;} */\n    tag_96:\n        /* \"contracts/1_Power.sol\":19484:19518  0x88415abbe9a76bead8d00cf112e4d4a8 */\n      0x88415abbe9a76bead8d00cf112e4d4a8\n        /* \"contracts/1_Power.sol\":19479:19480  x */\n      dup7\n        /* \"contracts/1_Power.sol\":19479:19518  x >= 0x88415abbe9a76bead8d00cf112e4d4a8 */\n      lt\n        /* \"contracts/1_Power.sol\":19475:19618  if (x >= 0x88415abbe9a76bead8d00cf112e4d4a8) {res += 0x08000000000000000000000000000000; x = x * FIXED_1 / 0x88415abbe9a76bead8d00cf112e4d4a8;} */\n      tag_100\n      jumpi\n        /* \"contracts/1_Power.sol\":19528:19562  0x08000000000000000000000000000000 */\n      0x08000000000000000000000000000000\n        /* \"contracts/1_Power.sol\":19521:19562  res += 0x08000000000000000000000000000000 */\n      dup5\n      tag_101\n      swap2\n      swap1\n      tag_32\n      jump\t// in\n    tag_101:\n      swap4\n      pop\n        /* \"contracts/1_Power.sol\":19582:19616  0x88415abbe9a76bead8d00cf112e4d4a8 */\n      0x88415abbe9a76bead8d00cf112e4d4a8\n        /* \"contracts/1_Power.sol\":1048:1083  0x080000000000000000000000000000000 */\n      0x80000000000000000000000000000000\n        /* \"contracts/1_Power.sol\":19568:19569  x */\n      dup8\n        /* \"contracts/1_Power.sol\":19568:19579  x * FIXED_1 */\n      tag_102\n      swap2\n      swap1\n      tag_28\n      jump\t// in\n    tag_102:\n        /* \"contracts/1_Power.sol\":19568:19616  x * FIXED_1 / 0x88415abbe9a76bead8d00cf112e4d4a8 */\n      tag_103\n      swap2\n      swap1\n      tag_30\n      jump\t// in\n    tag_103:\n        /* \"contracts/1_Power.sol\":19564:19616  x = x * FIXED_1 / 0x88415abbe9a76bead8d00cf112e4d4a8 */\n      swap6\n      pop\n        /* \"contracts/1_Power.sol\":19475:19618  if (x >= 0x88415abbe9a76bead8d00cf112e4d4a8) {res += 0x08000000000000000000000000000000; x = x * FIXED_1 / 0x88415abbe9a76bead8d00cf112e4d4a8;} */\n    tag_100:\n        /* \"contracts/1_Power.sol\":19636:19670  0x84102b00893f64c705e841d5d4064bd3 */\n      0x84102b00893f64c705e841d5d4064bd3\n        /* \"contracts/1_Power.sol\":19631:19632  x */\n      dup7\n        /* \"contracts/1_Power.sol\":19631:19670  x >= 0x84102b00893f64c705e841d5d4064bd3 */\n      lt\n        /* \"contracts/1_Power.sol\":19627:19770  if (x >= 0x84102b00893f64c705e841d5d4064bd3) {res += 0x04000000000000000000000000000000; x = x * FIXED_1 / 0x84102b00893f64c705e841d5d4064bd3;} */\n      tag_104\n      jumpi\n        /* \"contracts/1_Power.sol\":19680:19714  0x04000000000000000000000000000000 */\n      0x04000000000000000000000000000000\n        /* \"contracts/1_Power.sol\":19673:19714  res += 0x04000000000000000000000000000000 */\n      dup5\n      tag_105\n      swap2\n      swap1\n      tag_32\n      jump\t// in\n    tag_105:\n      swap4\n      pop\n        /* \"contracts/1_Power.sol\":19734:19768  0x84102b00893f64c705e841d5d4064bd3 */\n      0x84102b00893f64c705e841d5d4064bd3\n        /* \"contracts/1_Power.sol\":1048:1083  0x080000000000000000000000000000000 */\n      0x80000000000000000000000000000000\n        /* \"contracts/1_Power.sol\":19720:19721  x */\n      dup8\n        /* \"contracts/1_Power.sol\":19720:19731  x * FIXED_1 */\n      tag_106\n      swap2\n      swap1\n      tag_28\n      jump\t// in\n    tag_106:\n        /* \"contracts/1_Power.sol\":19720:19768  x * FIXED_1 / 0x84102b00893f64c705e841d5d4064bd3 */\n      tag_107\n      swap2\n      swap1\n      tag_30\n      jump\t// in\n    tag_107:\n        /* \"contracts/1_Power.sol\":19716:19768  x = x * FIXED_1 / 0x84102b00893f64c705e841d5d4064bd3 */\n      swap6\n      pop\n        /* \"contracts/1_Power.sol\":19627:19770  if (x >= 0x84102b00893f64c705e841d5d4064bd3) {res += 0x04000000000000000000000000000000; x = x * FIXED_1 / 0x84102b00893f64c705e841d5d4064bd3;} */\n    tag_104:\n        /* \"contracts/1_Power.sol\":19788:19822  0x8204055aaef1c8bd5c3259f4822735a2 */\n      0x8204055aaef1c8bd5c3259f4822735a2\n        /* \"contracts/1_Power.sol\":19783:19784  x */\n      dup7\n        /* \"contracts/1_Power.sol\":19783:19822  x >= 0x8204055aaef1c8bd5c3259f4822735a2 */\n      lt\n        /* \"contracts/1_Power.sol\":19779:19922  if (x >= 0x8204055aaef1c8bd5c3259f4822735a2) {res += 0x02000000000000000000000000000000; x = x * FIXED_1 / 0x8204055aaef1c8bd5c3259f4822735a2;} */\n      tag_108\n      jumpi\n        /* \"contracts/1_Power.sol\":19832:19866  0x02000000000000000000000000000000 */\n      0x02000000000000000000000000000000\n        /* \"contracts/1_Power.sol\":19825:19866  res += 0x02000000000000000000000000000000 */\n      dup5\n      tag_109\n      swap2\n      swap1\n      tag_32\n      jump\t// in\n    tag_109:\n      swap4\n      pop\n        /* \"contracts/1_Power.sol\":19886:19920  0x8204055aaef1c8bd5c3259f4822735a2 */\n      0x8204055aaef1c8bd5c3259f4822735a2\n        /* \"contracts/1_Power.sol\":1048:1083  0x080000000000000000000000000000000 */\n      0x80000000000000000000000000000000\n        /* \"contracts/1_Power.sol\":19872:19873  x */\n      dup8\n        /* \"contracts/1_Power.sol\":19872:19883  x * FIXED_1 */\n      tag_110\n      swap2\n      swap1\n      tag_28\n      jump\t// in\n    tag_110:\n        /* \"contracts/1_Power.sol\":19872:19920  x * FIXED_1 / 0x8204055aaef1c8bd5c3259f4822735a2 */\n      tag_111\n      swap2\n      swap1\n      tag_30\n      jump\t// in\n    tag_111:\n        /* \"contracts/1_Power.sol\":19868:19920  x = x * FIXED_1 / 0x8204055aaef1c8bd5c3259f4822735a2 */\n      swap6\n      pop\n        /* \"contracts/1_Power.sol\":19779:19922  if (x >= 0x8204055aaef1c8bd5c3259f4822735a2) {res += 0x02000000000000000000000000000000; x = x * FIXED_1 / 0x8204055aaef1c8bd5c3259f4822735a2;} */\n    tag_108:\n        /* \"contracts/1_Power.sol\":19940:19974  0x810100ab00222d861931c15e39b44e99 */\n      0x810100ab00222d861931c15e39b44e99\n        /* \"contracts/1_Power.sol\":19935:19936  x */\n      dup7\n        /* \"contracts/1_Power.sol\":19935:19974  x >= 0x810100ab00222d861931c15e39b44e99 */\n      lt\n        /* \"contracts/1_Power.sol\":19931:20074  if (x >= 0x810100ab00222d861931c15e39b44e99) {res += 0x01000000000000000000000000000000; x = x * FIXED_1 / 0x810100ab00222d861931c15e39b44e99;} */\n      tag_112\n      jumpi\n        /* \"contracts/1_Power.sol\":19984:20018  0x01000000000000000000000000000000 */\n      0x01000000000000000000000000000000\n        /* \"contracts/1_Power.sol\":19977:20018  res += 0x01000000000000000000000000000000 */\n      dup5\n      tag_113\n      swap2\n      swap1\n      tag_32\n      jump\t// in\n    tag_113:\n      swap4\n      pop\n        /* \"contracts/1_Power.sol\":20038:20072  0x810100ab00222d861931c15e39b44e99 */\n      0x810100ab00222d861931c15e39b44e99\n        /* \"contracts/1_Power.sol\":1048:1083  0x080000000000000000000000000000000 */\n      0x80000000000000000000000000000000\n        /* \"contracts/1_Power.sol\":20024:20025  x */\n      dup8\n        /* \"contracts/1_Power.sol\":20024:20035  x * FIXED_1 */\n      tag_114\n      swap2\n      swap1\n      tag_28\n      jump\t// in\n    tag_114:\n        /* \"contracts/1_Power.sol\":20024:20072  x * FIXED_1 / 0x810100ab00222d861931c15e39b44e99 */\n      tag_115\n      swap2\n      swap1\n      tag_30\n      jump\t// in\n    tag_115:\n        /* \"contracts/1_Power.sol\":20020:20072  x = x * FIXED_1 / 0x810100ab00222d861931c15e39b44e99 */\n      swap6\n      pop\n        /* \"contracts/1_Power.sol\":19931:20074  if (x >= 0x810100ab00222d861931c15e39b44e99) {res += 0x01000000000000000000000000000000; x = x * FIXED_1 / 0x810100ab00222d861931c15e39b44e99;} */\n    tag_112:\n        /* \"contracts/1_Power.sol\":20092:20126  0x808040155aabbbe9451521693554f733 */\n      0x808040155aabbbe9451521693554f733\n        /* \"contracts/1_Power.sol\":20087:20088  x */\n      dup7\n        /* \"contracts/1_Power.sol\":20087:20126  x >= 0x808040155aabbbe9451521693554f733 */\n      lt\n        /* \"contracts/1_Power.sol\":20083:20226  if (x >= 0x808040155aabbbe9451521693554f733) {res += 0x00800000000000000000000000000000; x = x * FIXED_1 / 0x808040155aabbbe9451521693554f733;} */\n      tag_116\n      jumpi\n        /* \"contracts/1_Power.sol\":20136:20170  0x00800000000000000000000000000000 */\n      0x800000000000000000000000000000\n        /* \"contracts/1_Power.sol\":20129:20170  res += 0x00800000000000000000000000000000 */\n      dup5\n      tag_117\n      swap2\n      swap1\n      tag_32\n      jump\t// in\n    tag_117:\n      swap4\n      pop\n        /* \"contracts/1_Power.sol\":20190:20224  0x808040155aabbbe9451521693554f733 */\n      0x808040155aabbbe9451521693554f733\n        /* \"contracts/1_Power.sol\":1048:1083  0x080000000000000000000000000000000 */\n      0x80000000000000000000000000000000\n        /* \"contracts/1_Power.sol\":20176:20177  x */\n      dup8\n        /* \"contracts/1_Power.sol\":20176:20187  x * FIXED_1 */\n      tag_118\n      swap2\n      swap1\n      tag_28\n      jump\t// in\n    tag_118:\n        /* \"contracts/1_Power.sol\":20176:20224  x * FIXED_1 / 0x808040155aabbbe9451521693554f733 */\n      tag_119\n      swap2\n      swap1\n      tag_30\n      jump\t// in\n    tag_119:\n        /* \"contracts/1_Power.sol\":20172:20224  x = x * FIXED_1 / 0x808040155aabbbe9451521693554f733 */\n      swap6\n      pop\n        /* \"contracts/1_Power.sol\":20083:20226  if (x >= 0x808040155aabbbe9451521693554f733) {res += 0x00800000000000000000000000000000; x = x * FIXED_1 / 0x808040155aabbbe9451521693554f733;} */\n    tag_116:\n        /* \"contracts/1_Power.sol\":1048:1083  0x080000000000000000000000000000000 */\n      0x80000000000000000000000000000000\n        /* \"contracts/1_Power.sol\":20245:20246  x */\n      dup7\n        /* \"contracts/1_Power.sol\":20245:20256  x - FIXED_1 */\n      tag_120\n      swap2\n      swap1\n      tag_37\n      jump\t// in\n    tag_120:\n        /* \"contracts/1_Power.sol\":20241:20256  y = x - FIXED_1 */\n      swap3\n      pop\n      dup3\n        /* \"contracts/1_Power.sol\":20237:20256  z = y = x - FIXED_1 */\n      swap2\n      pop\n        /* \"contracts/1_Power.sol\":1048:1083  0x080000000000000000000000000000000 */\n      0x80000000000000000000000000000000\n        /* \"contracts/1_Power.sol\":20274:20275  y */\n      dup4\n        /* \"contracts/1_Power.sol\":20270:20271  y */\n      dup5\n        /* \"contracts/1_Power.sol\":20270:20275  y * y */\n      tag_121\n      swap2\n      swap1\n      tag_28\n      jump\t// in\n    tag_121:\n        /* \"contracts/1_Power.sol\":20270:20285  y * y / FIXED_1 */\n      tag_122\n      swap2\n      swap1\n      tag_30\n      jump\t// in\n    tag_122:\n        /* \"contracts/1_Power.sol\":20266:20285  w = y * y / FIXED_1 */\n      swap1\n      pop\n        /* \"contracts/1_Power.sol\":20350:20385  0x100000000000000000000000000000000 */\n      0x0100000000000000000000000000000000\n        /* \"contracts/1_Power.sol\":20345:20346  y */\n      dup4\n        /* \"contracts/1_Power.sol\":20307:20342  0x100000000000000000000000000000000 */\n      0x0100000000000000000000000000000000\n        /* \"contracts/1_Power.sol\":20307:20346  0x100000000000000000000000000000000 - y */\n      tag_123\n      swap2\n      swap1\n      tag_37\n      jump\t// in\n    tag_123:\n        /* \"contracts/1_Power.sol\":20302:20303  z */\n      dup4\n        /* \"contracts/1_Power.sol\":20302:20347  z * (0x100000000000000000000000000000000 - y) */\n      tag_124\n      swap2\n      swap1\n      tag_28\n      jump\t// in\n    tag_124:\n        /* \"contracts/1_Power.sol\":20302:20385  z * (0x100000000000000000000000000000000 - y) / 0x100000000000000000000000000000000 */\n      tag_125\n      swap2\n      swap1\n      tag_30\n      jump\t// in\n    tag_125:\n        /* \"contracts/1_Power.sol\":20295:20385  res += z * (0x100000000000000000000000000000000 - y) / 0x100000000000000000000000000000000 */\n      dup5\n      tag_126\n      swap2\n      swap1\n      tag_32\n      jump\t// in\n    tag_126:\n      swap4\n      pop\n        /* \"contracts/1_Power.sol\":1048:1083  0x080000000000000000000000000000000 */\n      0x80000000000000000000000000000000\n        /* \"contracts/1_Power.sol\":20395:20396  w */\n      dup2\n        /* \"contracts/1_Power.sol\":20391:20392  z */\n      dup4\n        /* \"contracts/1_Power.sol\":20391:20396  z * w */\n      tag_127\n      swap2\n      swap1\n      tag_28\n      jump\t// in\n    tag_127:\n        /* \"contracts/1_Power.sol\":20391:20406  z * w / FIXED_1 */\n      tag_128\n      swap2\n      swap1\n      tag_30\n      jump\t// in\n    tag_128:\n        /* \"contracts/1_Power.sol\":20387:20406  z = z * w / FIXED_1 */\n      swap2\n      pop\n        /* \"contracts/1_Power.sol\":20471:20506  0x200000000000000000000000000000000 */\n      0x0200000000000000000000000000000000\n        /* \"contracts/1_Power.sol\":20466:20467  y */\n      dup4\n        /* \"contracts/1_Power.sol\":20428:20463  0x0aaaaaaaaaaaaaaaaaaaaaaaaaaaaaaaa */\n      0xaaaaaaaaaaaaaaaaaaaaaaaaaaaaaaaa\n        /* \"contracts/1_Power.sol\":20428:20467  0x0aaaaaaaaaaaaaaaaaaaaaaaaaaaaaaaa - y */\n      tag_129\n      swap2\n      swap1\n      tag_37\n      jump\t// in\n    tag_129:\n        /* \"contracts/1_Power.sol\":20423:20424  z */\n      dup4\n        /* \"contracts/1_Power.sol\":20423:20468  z * (0x0aaaaaaaaaaaaaaaaaaaaaaaaaaaaaaaa - y) */\n      tag_130\n      swap2\n      swap1\n      tag_28\n      jump\t// in\n    tag_130:\n        /* \"contracts/1_Power.sol\":20423:20506  z * (0x0aaaaaaaaaaaaaaaaaaaaaaaaaaaaaaaa - y) / 0x200000000000000000000000000000000 */\n      tag_131\n      swap2\n      swap1\n      tag_30\n      jump\t// in\n    tag_131:\n        /* \"contracts/1_Power.sol\":20416:20506  res += z * (0x0aaaaaaaaaaaaaaaaaaaaaaaaaaaaaaaa - y) / 0x200000000000000000000000000000000 */\n      dup5\n      tag_132\n      swap2\n      swap1\n      tag_32\n      jump\t// in\n    tag_132:\n      swap4\n      pop\n        /* \"contracts/1_Power.sol\":1048:1083  0x080000000000000000000000000000000 */\n      0x80000000000000000000000000000000\n        /* \"contracts/1_Power.sol\":20516:20517  w */\n      dup2\n        /* \"contracts/1_Power.sol\":20512:20513  z */\n      dup4\n        /* \"contracts/1_Power.sol\":20512:20517  z * w */\n      tag_133\n      swap2\n      swap1\n      tag_28\n      jump\t// in\n    tag_133:\n        /* \"contracts/1_Power.sol\":20512:20527  z * w / FIXED_1 */\n      tag_134\n      swap2\n      swap1\n      tag_30\n      jump\t// in\n    tag_134:\n        /* \"contracts/1_Power.sol\":20508:20527  z = z * w / FIXED_1 */\n      swap2\n      pop\n        /* \"contracts/1_Power.sol\":20592:20627  0x300000000000000000000000000000000 */\n      0x0300000000000000000000000000000000\n        /* \"contracts/1_Power.sol\":20587:20588  y */\n      dup4\n        /* \"contracts/1_Power.sol\":20549:20584  0x099999999999999999999999999999999 */\n      0x99999999999999999999999999999999\n        /* \"contracts/1_Power.sol\":20549:20588  0x099999999999999999999999999999999 - y */\n      tag_135\n      swap2\n      swap1\n      tag_37\n      jump\t// in\n    tag_135:\n        /* \"contracts/1_Power.sol\":20544:20545  z */\n      dup4\n        /* \"contracts/1_Power.sol\":20544:20589  z * (0x099999999999999999999999999999999 - y) */\n      tag_136\n      swap2\n      swap1\n      tag_28\n      jump\t// in\n    tag_136:\n        /* \"contracts/1_Power.sol\":20544:20627  z * (0x099999999999999999999999999999999 - y) / 0x300000000000000000000000000000000 */\n      tag_137\n      swap2\n      swap1\n      tag_30\n      jump\t// in\n    tag_137:\n        /* \"contracts/1_Power.sol\":20537:20627  res += z * (0x099999999999999999999999999999999 - y) / 0x300000000000000000000000000000000 */\n      dup5\n      tag_138\n      swap2\n      swap1\n      tag_32\n      jump\t// in\n    tag_138:\n      swap4\n      pop\n        /* \"contracts/1_Power.sol\":1048:1083  0x080000000000000000000000000000000 */\n      0x80000000000000000000000000000000\n        /* \"contracts/1_Power.sol\":20637:20638  w */\n      dup2\n        /* \"contracts/1_Power.sol\":20633:20634  z */\n      dup4\n        /* \"contracts/1_Power.sol\":20633:20638  z * w */\n      tag_139\n      swap2\n      swap1\n      tag_28\n      jump\t// in\n    tag_139:\n        /* \"contracts/1_Power.sol\":20633:20648  z * w / FIXED_1 */\n      tag_140\n      swap2\n      swap1\n      tag_30\n      jump\t// in\n    tag_140:\n        /* \"contracts/1_Power.sol\":20629:20648  z = z * w / FIXED_1 */\n      swap2\n      pop\n        /* \"contracts/1_Power.sol\":20713:20748  0x400000000000000000000000000000000 */\n      0x0400000000000000000000000000000000\n        /* \"contracts/1_Power.sol\":20708:20709  y */\n      dup4\n        /* \"contracts/1_Power.sol\":20670:20705  0x092492492492492492492492492492492 */\n      0x92492492492492492492492492492492\n        /* \"contracts/1_Power.sol\":20670:20709  0x092492492492492492492492492492492 - y */\n      tag_141\n      swap2\n      swap1\n      tag_37\n      jump\t// in\n    tag_141:\n        /* \"contracts/1_Power.sol\":20665:20666  z */\n      dup4\n        /* \"contracts/1_Power.sol\":20665:20710  z * (0x092492492492492492492492492492492 - y) */\n      tag_142\n      swap2\n      swap1\n      tag_28\n      jump\t// in\n    tag_142:\n        /* \"contracts/1_Power.sol\":20665:20748  z * (0x092492492492492492492492492492492 - y) / 0x400000000000000000000000000000000 */\n      tag_143\n      swap2\n      swap1\n      tag_30\n      jump\t// in\n    tag_143:\n        /* \"contracts/1_Power.sol\":20658:20748  res += z * (0x092492492492492492492492492492492 - y) / 0x400000000000000000000000000000000 */\n      dup5\n      tag_144\n      swap2\n      swap1\n      tag_32\n      jump\t// in\n    tag_144:\n      swap4\n      pop\n        /* \"contracts/1_Power.sol\":1048:1083  0x080000000000000000000000000000000 */\n      0x80000000000000000000000000000000\n        /* \"contracts/1_Power.sol\":20758:20759  w */\n      dup2\n        /* \"contracts/1_Power.sol\":20754:20755  z */\n      dup4\n        /* \"contracts/1_Power.sol\":20754:20759  z * w */\n      tag_145\n      swap2\n      swap1\n      tag_28\n      jump\t// in\n    tag_145:\n        /* \"contracts/1_Power.sol\":20754:20769  z * w / FIXED_1 */\n      tag_146\n      swap2\n      swap1\n      tag_30\n      jump\t// in\n    tag_146:\n        /* \"contracts/1_Power.sol\":20750:20769  z = z * w / FIXED_1 */\n      swap2\n      pop\n        /* \"contracts/1_Power.sol\":20834:20869  0x500000000000000000000000000000000 */\n      0x0500000000000000000000000000000000\n        /* \"contracts/1_Power.sol\":20829:20830  y */\n      dup4\n        /* \"contracts/1_Power.sol\":20791:20826  0x08e38e38e38e38e38e38e38e38e38e38e */\n      0x8e38e38e38e38e38e38e38e38e38e38e\n        /* \"contracts/1_Power.sol\":20791:20830  0x08e38e38e38e38e38e38e38e38e38e38e - y */\n      tag_147\n      swap2\n      swap1\n      tag_37\n      jump\t// in\n    tag_147:\n        /* \"contracts/1_Power.sol\":20786:20787  z */\n      dup4\n        /* \"contracts/1_Power.sol\":20786:20831  z * (0x08e38e38e38e38e38e38e38e38e38e38e - y) */\n      tag_148\n      swap2\n      swap1\n      tag_28\n      jump\t// in\n    tag_148:\n        /* \"contracts/1_Power.sol\":20786:20869  z * (0x08e38e38e38e38e38e38e38e38e38e38e - y) / 0x500000000000000000000000000000000 */\n      tag_149\n      swap2\n      swap1\n      tag_30\n      jump\t// in\n    tag_149:\n        /* \"contracts/1_Power.sol\":20779:20869  res += z * (0x08e38e38e38e38e38e38e38e38e38e38e - y) / 0x500000000000000000000000000000000 */\n      dup5\n      tag_150\n      swap2\n      swap1\n      tag_32\n      jump\t// in\n    tag_150:\n      swap4\n      pop\n        /* \"contracts/1_Power.sol\":1048:1083  0x080000000000000000000000000000000 */\n      0x80000000000000000000000000000000\n        /* \"contracts/1_Power.sol\":20879:20880  w */\n      dup2\n        /* \"contracts/1_Power.sol\":20875:20876  z */\n      dup4\n        /* \"contracts/1_Power.sol\":20875:20880  z * w */\n      tag_151\n      swap2\n      swap1\n      tag_28\n      jump\t// in\n    tag_151:\n        /* \"contracts/1_Power.sol\":20875:20890  z * w / FIXED_1 */\n      tag_152\n      swap2\n      swap1\n      tag_30\n      jump\t// in\n    tag_152:\n        /* \"contracts/1_Power.sol\":20871:20890  z = z * w / FIXED_1 */\n      swap2\n      pop\n        /* \"contracts/1_Power.sol\":20955:20990  0x600000000000000000000000000000000 */\n      0x0600000000000000000000000000000000\n        /* \"contracts/1_Power.sol\":20950:20951  y */\n      dup4\n        /* \"contracts/1_Power.sol\":20912:20947  0x08ba2e8ba2e8ba2e8ba2e8ba2e8ba2e8b */\n      0x8ba2e8ba2e8ba2e8ba2e8ba2e8ba2e8b\n        /* \"contracts/1_Power.sol\":20912:20951  0x08ba2e8ba2e8ba2e8ba2e8ba2e8ba2e8b - y */\n      tag_153\n      swap2\n      swap1\n      tag_37\n      jump\t// in\n    tag_153:\n        /* \"contracts/1_Power.sol\":20907:20908  z */\n      dup4\n        /* \"contracts/1_Power.sol\":20907:20952  z * (0x08ba2e8ba2e8ba2e8ba2e8ba2e8ba2e8b - y) */\n      tag_154\n      swap2\n      swap1\n      tag_28\n      jump\t// in\n    tag_154:\n        /* \"contracts/1_Power.sol\":20907:20990  z * (0x08ba2e8ba2e8ba2e8ba2e8ba2e8ba2e8b - y) / 0x600000000000000000000000000000000 */\n      tag_155\n      swap2\n      swap1\n      tag_30\n      jump\t// in\n    tag_155:\n        /* \"contracts/1_Power.sol\":20900:20990  res += z * (0x08ba2e8ba2e8ba2e8ba2e8ba2e8ba2e8b - y) / 0x600000000000000000000000000000000 */\n      dup5\n      tag_156\n      swap2\n      swap1\n      tag_32\n      jump\t// in\n    tag_156:\n      swap4\n      pop\n        /* \"contracts/1_Power.sol\":1048:1083  0x080000000000000000000000000000000 */\n      0x80000000000000000000000000000000\n        /* \"contracts/1_Power.sol\":21000:21001  w */\n      dup2\n        /* \"contracts/1_Power.sol\":20996:20997  z */\n      dup4\n        /* \"contracts/1_Power.sol\":20996:21001  z * w */\n      tag_157\n      swap2\n      swap1\n      tag_28\n      jump\t// in\n    tag_157:\n        /* \"contracts/1_Power.sol\":20996:21011  z * w / FIXED_1 */\n      tag_158\n      swap2\n      swap1\n      tag_30\n      jump\t// in\n    tag_158:\n        /* \"contracts/1_Power.sol\":20992:21011  z = z * w / FIXED_1 */\n      swap2\n      pop\n        /* \"contracts/1_Power.sol\":21076:21111  0x700000000000000000000000000000000 */\n      0x0700000000000000000000000000000000\n        /* \"contracts/1_Power.sol\":21071:21072  y */\n      dup4\n        /* \"contracts/1_Power.sol\":21033:21068  0x089d89d89d89d89d89d89d89d89d89d89 */\n      0x89d89d89d89d89d89d89d89d89d89d89\n        /* \"contracts/1_Power.sol\":21033:21072  0x089d89d89d89d89d89d89d89d89d89d89 - y */\n      tag_159\n      swap2\n      swap1\n      tag_37\n      jump\t// in\n    tag_159:\n        /* \"contracts/1_Power.sol\":21028:21029  z */\n      dup4\n        /* \"contracts/1_Power.sol\":21028:21073  z * (0x089d89d89d89d89d89d89d89d89d89d89 - y) */\n      tag_160\n      swap2\n      swap1\n      tag_28\n      jump\t// in\n    tag_160:\n        /* \"contracts/1_Power.sol\":21028:21111  z * (0x089d89d89d89d89d89d89d89d89d89d89 - y) / 0x700000000000000000000000000000000 */\n      tag_161\n      swap2\n      swap1\n      tag_30\n      jump\t// in\n    tag_161:\n        /* \"contracts/1_Power.sol\":21021:21111  res += z * (0x089d89d89d89d89d89d89d89d89d89d89 - y) / 0x700000000000000000000000000000000 */\n      dup5\n      tag_162\n      swap2\n      swap1\n      tag_32\n      jump\t// in\n    tag_162:\n      swap4\n      pop\n        /* \"contracts/1_Power.sol\":1048:1083  0x080000000000000000000000000000000 */\n      0x80000000000000000000000000000000\n        /* \"contracts/1_Power.sol\":21121:21122  w */\n      dup2\n        /* \"contracts/1_Power.sol\":21117:21118  z */\n      dup4\n        /* \"contracts/1_Power.sol\":21117:21122  z * w */\n      tag_163\n      swap2\n      swap1\n      tag_28\n      jump\t// in\n    tag_163:\n        /* \"contracts/1_Power.sol\":21117:21132  z * w / FIXED_1 */\n      tag_164\n      swap2\n      swap1\n      tag_30\n      jump\t// in\n    tag_164:\n        /* \"contracts/1_Power.sol\":21113:21132  z = z * w / FIXED_1 */\n      swap2\n      pop\n        /* \"contracts/1_Power.sol\":21197:21232  0x800000000000000000000000000000000 */\n      0x0800000000000000000000000000000000\n        /* \"contracts/1_Power.sol\":21192:21193  y */\n      dup4\n        /* \"contracts/1_Power.sol\":21154:21189  0x088888888888888888888888888888888 */\n      0x88888888888888888888888888888888\n        /* \"contracts/1_Power.sol\":21154:21193  0x088888888888888888888888888888888 - y */\n      tag_165\n      swap2\n      swap1\n      tag_37\n      jump\t// in\n    tag_165:\n        /* \"contracts/1_Power.sol\":21149:21150  z */\n      dup4\n        /* \"contracts/1_Power.sol\":21149:21194  z * (0x088888888888888888888888888888888 - y) */\n      tag_166\n      swap2\n      swap1\n      tag_28\n      jump\t// in\n    tag_166:\n        /* \"contracts/1_Power.sol\":21149:21232  z * (0x088888888888888888888888888888888 - y) / 0x800000000000000000000000000000000 */\n      tag_167\n      swap2\n      swap1\n      tag_30\n      jump\t// in\n    tag_167:\n        /* \"contracts/1_Power.sol\":21142:21232  res += z * (0x088888888888888888888888888888888 - y) / 0x800000000000000000000000000000000 */\n      dup5\n      tag_168\n      swap2\n      swap1\n      tag_32\n      jump\t// in\n    tag_168:\n      swap4\n      pop\n        /* \"contracts/1_Power.sol\":21251:21254  res */\n      dup4\n        /* \"contracts/1_Power.sol\":21244:21254  return res */\n      swap5\n      pop\n      pop\n      pop\n      pop\n      pop\n        /* \"contracts/1_Power.sol\":18860:21261  function optimalLog(uint256 x) internal pure returns (uint256) {\r... */\n      swap2\n      swap1\n      pop\n      jump\t// out\n        /* \"contracts/1_Power.sol\":12208:12945  function generalLog(uint256 _x) internal pure returns (uint256) {\r... */\n    tag_74:\n        /* \"contracts/1_Power.sol\":12263:12270  uint256 */\n      0x00\n        /* \"contracts/1_Power.sol\":12279:12290  uint256 res */\n      dup1\n        /* \"contracts/1_Power.sol\":12293:12294  0 */\n      0x00\n        /* \"contracts/1_Power.sol\":12279:12294  uint256 res = 0 */\n      swap1\n      pop\n        /* \"contracts/1_Power.sol\":12301:12310  uint256 x */\n      0x00\n        /* \"contracts/1_Power.sol\":12313:12315  _x */\n      dup4\n        /* \"contracts/1_Power.sol\":12301:12315  uint256 x = _x */\n      swap1\n      pop\n        /* \"contracts/1_Power.sol\":1123:1158  0x100000000000000000000000000000000 */\n      0x0100000000000000000000000000000000\n        /* \"contracts/1_Power.sol\":12416:12417  x */\n      dup2\n        /* \"contracts/1_Power.sol\":12416:12428  x >= FIXED_2 */\n      lt\n        /* \"contracts/1_Power.sol\":12412:12546  if (x >= FIXED_2) {\r... */\n      tag_170\n      jumpi\n        /* \"contracts/1_Power.sol\":12439:12450  uint8 count */\n      0x00\n        /* \"contracts/1_Power.sol\":12453:12475  floorLog2(x / FIXED_1) */\n      tag_171\n        /* \"contracts/1_Power.sol\":1048:1083  0x080000000000000000000000000000000 */\n      0x80000000000000000000000000000000\n        /* \"contracts/1_Power.sol\":12463:12464  x */\n      dup4\n        /* \"contracts/1_Power.sol\":12463:12474  x / FIXED_1 */\n      tag_172\n      swap2\n      swap1\n      tag_30\n      jump\t// in\n    tag_172:\n        /* \"contracts/1_Power.sol\":12453:12462  floorLog2 */\n      tag_173\n        /* \"contracts/1_Power.sol\":12453:12475  floorLog2(x / FIXED_1) */\n      jump\t// in\n    tag_171:\n        /* \"contracts/1_Power.sol\":12439:12475  uint8 count = floorLog2(x / FIXED_1) */\n      swap1\n      pop\n        /* \"contracts/1_Power.sol\":12490:12495  count */\n      dup1\n        /* \"contracts/1_Power.sol\":12484:12495  x >>= count */\n      0xff\n      and\n      dup3\n      swap1\n      shr\n      swap2\n      pop\n        /* \"contracts/1_Power.sol\":1048:1083  0x080000000000000000000000000000000 */\n      0x80000000000000000000000000000000\n        /* \"contracts/1_Power.sol\":12523:12528  count */\n      dup2\n        /* \"contracts/1_Power.sol\":12523:12538  count * FIXED_1 */\n      0xff\n      and\n      tag_174\n      swap2\n      swap1\n      tag_28\n      jump\t// in\n    tag_174:\n        /* \"contracts/1_Power.sol\":12517:12538  res = count * FIXED_1 */\n      swap3\n      pop\n        /* \"contracts/1_Power.sol\":12430:12546  {\r... */\n      pop\n        /* \"contracts/1_Power.sol\":12412:12546  if (x >= FIXED_2) {\r... */\n    tag_170:\n        /* \"contracts/1_Power.sol\":1048:1083  0x080000000000000000000000000000000 */\n      0x80000000000000000000000000000000\n        /* \"contracts/1_Power.sol\":12646:12647  x */\n      dup2\n        /* \"contracts/1_Power.sol\":12646:12657  x > FIXED_1 */\n      gt\n        /* \"contracts/1_Power.sol\":12642:12887  if (x > FIXED_1) {\r... */\n      iszero\n      tag_175\n      jumpi\n        /* \"contracts/1_Power.sol\":12673:12680  uint8 i */\n      0x00\n        /* \"contracts/1_Power.sol\":815:818  127 */\n      0x7f\n        /* \"contracts/1_Power.sol\":12673:12696  uint8 i = MAX_PRECISION */\n      swap1\n      pop\n        /* \"contracts/1_Power.sol\":12668:12880  for (uint8 i = MAX_PRECISION; i > 0; --i) {\r... */\n    tag_176:\n        /* \"contracts/1_Power.sol\":12702:12703  0 */\n      0x00\n        /* \"contracts/1_Power.sol\":12698:12699  i */\n      dup2\n        /* \"contracts/1_Power.sol\":12698:12703  i > 0 */\n      0xff\n      and\n      gt\n        /* \"contracts/1_Power.sol\":12668:12880  for (uint8 i = MAX_PRECISION; i > 0; --i) {\r... */\n      iszero\n      tag_177\n      jumpi\n        /* \"contracts/1_Power.sol\":1048:1083  0x080000000000000000000000000000000 */\n      0x80000000000000000000000000000000\n        /* \"contracts/1_Power.sol\":12730:12731  x */\n      dup3\n        /* \"contracts/1_Power.sol\":12726:12727  x */\n      dup4\n        /* \"contracts/1_Power.sol\":12726:12731  x * x */\n      tag_179\n      swap2\n      swap1\n      tag_28\n      jump\t// in\n    tag_179:\n        /* \"contracts/1_Power.sol\":12725:12742  (x * x) / FIXED_1 */\n      tag_180\n      swap2\n      swap1\n      tag_30\n      jump\t// in\n    tag_180:\n        /* \"contracts/1_Power.sol\":12721:12742  x = (x * x) / FIXED_1 */\n      swap2\n      pop\n        /* \"contracts/1_Power.sol\":1123:1158  0x100000000000000000000000000000000 */\n      0x0100000000000000000000000000000000\n        /* \"contracts/1_Power.sol\":12774:12775  x */\n      dup3\n        /* \"contracts/1_Power.sol\":12774:12786  x >= FIXED_2 */\n      lt\n        /* \"contracts/1_Power.sol\":12770:12871  if (x >= FIXED_2) {\r... */\n      tag_181\n      jumpi\n        /* \"contracts/1_Power.sol\":12807:12808  1 */\n      0x01\n        /* \"contracts/1_Power.sol\":12801:12808  x >>= 1 */\n      dup3\n      swap1\n      shr\n      swap2\n      pop\n        /* \"contracts/1_Power.sol\":12857:12858  1 */\n      0x01\n        /* \"contracts/1_Power.sol\":12853:12854  i */\n      dup2\n        /* \"contracts/1_Power.sol\":12853:12858  i - 1 */\n      tag_182\n      swap2\n      swap1\n      tag_85\n      jump\t// in\n    tag_182:\n        /* \"contracts/1_Power.sol\":12845:12859  ONE << (i - 1) */\n      0xff\n      and\n        /* \"contracts/1_Power.sol\":675:676  1 */\n      0x01\n        /* \"contracts/1_Power.sol\":12845:12859  ONE << (i - 1) */\n      swap1\n      shl\n        /* \"contracts/1_Power.sol\":12838:12859  res += ONE << (i - 1) */\n      dup4\n      tag_183\n      swap2\n      swap1\n      tag_32\n      jump\t// in\n    tag_183:\n      swap3\n      pop\n        /* \"contracts/1_Power.sol\":12770:12871  if (x >= FIXED_2) {\r... */\n    tag_181:\n        /* \"contracts/1_Power.sol\":12705:12708  --i */\n      dup1\n      tag_184\n      swap1\n      tag_185\n      jump\t// in\n    tag_184:\n      swap1\n      pop\n        /* \"contracts/1_Power.sol\":12668:12880  for (uint8 i = MAX_PRECISION; i > 0; --i) {\r... */\n      jump(tag_176)\n    tag_177:\n      pop\n        /* \"contracts/1_Power.sol\":12642:12887  if (x > FIXED_1) {\r... */\n    tag_175:\n        /* \"contracts/1_Power.sol\":1431:1464  0x5b9de1d10bf4103d647b0955897ba80 */\n      0x05b9de1d10bf4103d647b0955897ba80\n        /* \"contracts/1_Power.sol\":1350:1383  0x3f80fe03f80fe03f80fe03f80fe03f8 */\n      0x03f80fe03f80fe03f80fe03f80fe03f8\n        /* \"contracts/1_Power.sol\":12902:12905  res */\n      dup4\n        /* \"contracts/1_Power.sol\":12902:12921  res * LN2_NUMERATOR */\n      tag_186\n      swap2\n      swap1\n      tag_28\n      jump\t// in\n    tag_186:\n        /* \"contracts/1_Power.sol\":12902:12939  res * LN2_NUMERATOR / LN2_DENOMINATOR */\n      tag_187\n      swap2\n      swap1\n      tag_30\n      jump\t// in\n    tag_187:\n        /* \"contracts/1_Power.sol\":12895:12939  return res * LN2_NUMERATOR / LN2_DENOMINATOR */\n      swap3\n      pop\n      pop\n      pop\n        /* \"contracts/1_Power.sol\":12208:12945  function generalLog(uint256 _x) internal pure returns (uint256) {\r... */\n      swap2\n      swap1\n      pop\n      jump\t// out\n        /* \"contracts/1_Power.sol\":21433:24418  function optimalExp(uint256 x) internal pure returns (uint256) {\r... */\n    tag_79:\n        /* \"contracts/1_Power.sol\":21487:21494  uint256 */\n      0x00\n        /* \"contracts/1_Power.sol\":21506:21517  uint256 res */\n      dup1\n        /* \"contracts/1_Power.sol\":21520:21521  0 */\n      0x00\n        /* \"contracts/1_Power.sol\":21506:21521  uint256 res = 0 */\n      swap1\n      pop\n        /* \"contracts/1_Power.sol\":21533:21542  uint256 y */\n      0x00\n        /* \"contracts/1_Power.sol\":21552:21561  uint256 z */\n      dup1\n        /* \"contracts/1_Power.sol\":21585:21619  0x10000000000000000000000000000000 */\n      0x10000000000000000000000000000000\n        /* \"contracts/1_Power.sol\":21581:21582  x */\n      dup6\n        /* \"contracts/1_Power.sol\":21581:21619  x % 0x10000000000000000000000000000000 */\n      tag_189\n      swap2\n      swap1\n      tag_190\n      jump\t// in\n    tag_189:\n        /* \"contracts/1_Power.sol\":21577:21619  y = x % 0x10000000000000000000000000000000 */\n      swap2\n      pop\n      dup2\n        /* \"contracts/1_Power.sol\":21573:21619  z = y = x % 0x10000000000000000000000000000000 */\n      swap1\n      pop\n        /* \"contracts/1_Power.sol\":1048:1083  0x080000000000000000000000000000000 */\n      0x80000000000000000000000000000000\n        /* \"contracts/1_Power.sol\":21637:21638  y */\n      dup3\n        /* \"contracts/1_Power.sol\":21633:21634  z */\n      dup3\n        /* \"contracts/1_Power.sol\":21633:21638  z * y */\n      tag_191\n      swap2\n      swap1\n      tag_28\n      jump\t// in\n    tag_191:\n        /* \"contracts/1_Power.sol\":21633:21648  z * y / FIXED_1 */\n      tag_192\n      swap2\n      swap1\n      tag_30\n      jump\t// in\n    tag_192:\n        /* \"contracts/1_Power.sol\":21629:21648  z = z * y / FIXED_1 */\n      swap1\n      pop\n        /* \"contracts/1_Power.sol\":21661:21679  0x10e1b3be415a0000 */\n      0x10e1b3be415a0000\n        /* \"contracts/1_Power.sol\":21657:21658  z */\n      dup2\n        /* \"contracts/1_Power.sol\":21657:21679  z * 0x10e1b3be415a0000 */\n      tag_193\n      swap2\n      swap1\n      tag_28\n      jump\t// in\n    tag_193:\n        /* \"contracts/1_Power.sol\":21650:21679  res += z * 0x10e1b3be415a0000 */\n      dup4\n      tag_194\n      swap2\n      swap1\n      tag_32\n      jump\t// in\n    tag_194:\n      swap3\n      pop\n        /* \"contracts/1_Power.sol\":1048:1083  0x080000000000000000000000000000000 */\n      0x80000000000000000000000000000000\n        /* \"contracts/1_Power.sol\":21723:21724  y */\n      dup3\n        /* \"contracts/1_Power.sol\":21719:21720  z */\n      dup3\n        /* \"contracts/1_Power.sol\":21719:21724  z * y */\n      tag_195\n      swap2\n      swap1\n      tag_28\n      jump\t// in\n    tag_195:\n        /* \"contracts/1_Power.sol\":21719:21734  z * y / FIXED_1 */\n      tag_196\n      swap2\n      swap1\n      tag_30\n      jump\t// in\n    tag_196:\n        /* \"contracts/1_Power.sol\":21715:21734  z = z * y / FIXED_1 */\n      swap1\n      pop\n        /* \"contracts/1_Power.sol\":21747:21765  0x05a0913f6b1e0000 */\n      0x05a0913f6b1e0000\n        /* \"contracts/1_Power.sol\":21743:21744  z */\n      dup2\n        /* \"contracts/1_Power.sol\":21743:21765  z * 0x05a0913f6b1e0000 */\n      tag_197\n      swap2\n      swap1\n      tag_28\n      jump\t// in\n    tag_197:\n        /* \"contracts/1_Power.sol\":21736:21765  res += z * 0x05a0913f6b1e0000 */\n      dup4\n      tag_198\n      swap2\n      swap1\n      tag_32\n      jump\t// in\n    tag_198:\n      swap3\n      pop\n        /* \"contracts/1_Power.sol\":1048:1083  0x080000000000000000000000000000000 */\n      0x80000000000000000000000000000000\n        /* \"contracts/1_Power.sol\":21809:21810  y */\n      dup3\n        /* \"contracts/1_Power.sol\":21805:21806  z */\n      dup3\n        /* \"contracts/1_Power.sol\":21805:21810  z * y */\n      tag_199\n      swap2\n      swap1\n      tag_28\n      jump\t// in\n    tag_199:\n        /* \"contracts/1_Power.sol\":21805:21820  z * y / FIXED_1 */\n      tag_200\n      swap2\n      swap1\n      tag_30\n      jump\t// in\n    tag_200:\n        /* \"contracts/1_Power.sol\":21801:21820  z = z * y / FIXED_1 */\n      swap1\n      pop\n        /* \"contracts/1_Power.sol\":21833:21851  0x0168244fdac78000 */\n      0x0168244fdac78000\n        /* \"contracts/1_Power.sol\":21829:21830  z */\n      dup2\n        /* \"contracts/1_Power.sol\":21829:21851  z * 0x0168244fdac78000 */\n      tag_201\n      swap2\n      swap1\n      tag_28\n      jump\t// in\n    tag_201:\n        /* \"contracts/1_Power.sol\":21822:21851  res += z * 0x0168244fdac78000 */\n      dup4\n      tag_202\n      swap2\n      swap1\n      tag_32\n      jump\t// in\n    tag_202:\n      swap3\n      pop\n        /* \"contracts/1_Power.sol\":1048:1083  0x080000000000000000000000000000000 */\n      0x80000000000000000000000000000000\n        /* \"contracts/1_Power.sol\":21895:21896  y */\n      dup3\n        /* \"contracts/1_Power.sol\":21891:21892  z */\n      dup3\n        /* \"contracts/1_Power.sol\":21891:21896  z * y */\n      tag_203\n      swap2\n      swap1\n      tag_28\n      jump\t// in\n    tag_203:\n        /* \"contracts/1_Power.sol\":21891:21906  z * y / FIXED_1 */\n      tag_204\n      swap2\n      swap1\n      tag_30\n      jump\t// in\n    tag_204:\n        /* \"contracts/1_Power.sol\":21887:21906  z = z * y / FIXED_1 */\n      swap1\n      pop\n        /* \"contracts/1_Power.sol\":21919:21937  0x004807432bc18000 */\n      0x4807432bc18000\n        /* \"contracts/1_Power.sol\":21915:21916  z */\n      dup2\n        /* \"contracts/1_Power.sol\":21915:21937  z * 0x004807432bc18000 */\n      tag_205\n      swap2\n      swap1\n      tag_28\n      jump\t// in\n    tag_205:\n        /* \"contracts/1_Power.sol\":21908:21937  res += z * 0x004807432bc18000 */\n      dup4\n      tag_206\n      swap2\n      swap1\n      tag_32\n      jump\t// in\n    tag_206:\n      swap3\n      pop\n        /* \"contracts/1_Power.sol\":1048:1083  0x080000000000000000000000000000000 */\n      0x80000000000000000000000000000000\n        /* \"contracts/1_Power.sol\":21981:21982  y */\n      dup3\n        /* \"contracts/1_Power.sol\":21977:21978  z */\n      dup3\n        /* \"contracts/1_Power.sol\":21977:21982  z * y */\n      tag_207\n      swap2\n      swap1\n      tag_28\n      jump\t// in\n    tag_207:\n        /* \"contracts/1_Power.sol\":21977:21992  z * y / FIXED_1 */\n      tag_208\n      swap2\n      swap1\n      tag_30\n      jump\t// in\n    tag_208:\n        /* \"contracts/1_Power.sol\":21973:21992  z = z * y / FIXED_1 */\n      swap1\n      pop\n        /* \"contracts/1_Power.sol\":22005:22023  0x000c0135dca04000 */\n      0x0c0135dca04000\n        /* \"contracts/1_Power.sol\":22001:22002  z */\n      dup2\n        /* \"contracts/1_Power.sol\":22001:22023  z * 0x000c0135dca04000 */\n      tag_209\n      swap2\n      swap1\n      tag_28\n      jump\t// in\n    tag_209:\n        /* \"contracts/1_Power.sol\":21994:22023  res += z * 0x000c0135dca04000 */\n      dup4\n      tag_210\n      swap2\n      swap1\n      tag_32\n      jump\t// in\n    tag_210:\n      swap3\n      pop\n        /* \"contracts/1_Power.sol\":1048:1083  0x080000000000000000000000000000000 */\n      0x80000000000000000000000000000000\n        /* \"contracts/1_Power.sol\":22067:22068  y */\n      dup3\n        /* \"contracts/1_Power.sol\":22063:22064  z */\n      dup3\n        /* \"contracts/1_Power.sol\":22063:22068  z * y */\n      tag_211\n      swap2\n      swap1\n      tag_28\n      jump\t// in\n    tag_211:\n        /* \"contracts/1_Power.sol\":22063:22078  z * y / FIXED_1 */\n      tag_212\n      swap2\n      swap1\n      tag_30\n      jump\t// in\n    tag_212:\n        /* \"contracts/1_Power.sol\":22059:22078  z = z * y / FIXED_1 */\n      swap1\n      pop\n        /* \"contracts/1_Power.sol\":22091:22109  0x0001b707b1cdc000 */\n      0x01b707b1cdc000\n        /* \"contracts/1_Power.sol\":22087:22088  z */\n      dup2\n        /* \"contracts/1_Power.sol\":22087:22109  z * 0x0001b707b1cdc000 */\n      tag_213\n      swap2\n      swap1\n      tag_28\n      jump\t// in\n    tag_213:\n        /* \"contracts/1_Power.sol\":22080:22109  res += z * 0x0001b707b1cdc000 */\n      dup4\n      tag_214\n      swap2\n      swap1\n      tag_32\n      jump\t// in\n    tag_214:\n      swap3\n      pop\n        /* \"contracts/1_Power.sol\":1048:1083  0x080000000000000000000000000000000 */\n      0x80000000000000000000000000000000\n        /* \"contracts/1_Power.sol\":22153:22154  y */\n      dup3\n        /* \"contracts/1_Power.sol\":22149:22150  z */\n      dup3\n        /* \"contracts/1_Power.sol\":22149:22154  z * y */\n      tag_215\n      swap2\n      swap1\n      tag_28\n      jump\t// in\n    tag_215:\n        /* \"contracts/1_Power.sol\":22149:22164  z * y / FIXED_1 */\n      tag_216\n      swap2\n      swap1\n      tag_30\n      jump\t// in\n    tag_216:\n        /* \"contracts/1_Power.sol\":22145:22164  z = z * y / FIXED_1 */\n      swap1\n      pop\n        /* \"contracts/1_Power.sol\":22177:22195  0x000036e0f639b800 */\n      0x36e0f639b800\n        /* \"contracts/1_Power.sol\":22173:22174  z */\n      dup2\n        /* \"contracts/1_Power.sol\":22173:22195  z * 0x000036e0f639b800 */\n      tag_217\n      swap2\n      swap1\n      tag_28\n      jump\t// in\n    tag_217:\n        /* \"contracts/1_Power.sol\":22166:22195  res += z * 0x000036e0f639b800 */\n      dup4\n      tag_218\n      swap2\n      swap1\n      tag_32\n      jump\t// in\n    tag_218:\n      swap3\n      pop\n        /* \"contracts/1_Power.sol\":1048:1083  0x080000000000000000000000000000000 */\n      0x80000000000000000000000000000000\n        /* \"contracts/1_Power.sol\":22239:22240  y */\n      dup3\n        /* \"contracts/1_Power.sol\":22235:22236  z */\n      dup3\n        /* \"contracts/1_Power.sol\":22235:22240  z * y */\n      tag_219\n      swap2\n      swap1\n      tag_28\n      jump\t// in\n    tag_219:\n        /* \"contracts/1_Power.sol\":22235:22250  z * y / FIXED_1 */\n      tag_220\n      swap2\n      swap1\n      tag_30\n      jump\t// in\n    tag_220:\n        /* \"contracts/1_Power.sol\":22231:22250  z = z * y / FIXED_1 */\n      swap1\n      pop\n        /* \"contracts/1_Power.sol\":22263:22281  0x00000618fee9f800 */\n      0x0618fee9f800\n        /* \"contracts/1_Power.sol\":22259:22260  z */\n      dup2\n        /* \"contracts/1_Power.sol\":22259:22281  z * 0x00000618fee9f800 */\n      tag_221\n      swap2\n      swap1\n      tag_28\n      jump\t// in\n    tag_221:\n        /* \"contracts/1_Power.sol\":22252:22281  res += z * 0x00000618fee9f800 */\n      dup4\n      tag_222\n      swap2\n      swap1\n      tag_32\n      jump\t// in\n    tag_222:\n      swap3\n      pop\n        /* \"contracts/1_Power.sol\":1048:1083  0x080000000000000000000000000000000 */\n      0x80000000000000000000000000000000\n        /* \"contracts/1_Power.sol\":22325:22326  y */\n      dup3\n        /* \"contracts/1_Power.sol\":22321:22322  z */\n      dup3\n        /* \"contracts/1_Power.sol\":22321:22326  z * y */\n      tag_223\n      swap2\n      swap1\n      tag_28\n      jump\t// in\n    tag_223:\n        /* \"contracts/1_Power.sol\":22321:22336  z * y / FIXED_1 */\n      tag_224\n      swap2\n      swap1\n      tag_30\n      jump\t// in\n    tag_224:\n        /* \"contracts/1_Power.sol\":22317:22336  z = z * y / FIXED_1 */\n      swap1\n      pop\n        /* \"contracts/1_Power.sol\":22349:22367  0x0000009c197dcc00 */\n      0x9c197dcc00\n        /* \"contracts/1_Power.sol\":22345:22346  z */\n      dup2\n        /* \"contracts/1_Power.sol\":22345:22367  z * 0x0000009c197dcc00 */\n      tag_225\n      swap2\n      swap1\n      tag_28\n      jump\t// in\n    tag_225:\n        /* \"contracts/1_Power.sol\":22338:22367  res += z * 0x0000009c197dcc00 */\n      dup4\n      tag_226\n      swap2\n      swap1\n      tag_32\n      jump\t// in\n    tag_226:\n      swap3\n      pop\n        /* \"contracts/1_Power.sol\":1048:1083  0x080000000000000000000000000000000 */\n      0x80000000000000000000000000000000\n        /* \"contracts/1_Power.sol\":22411:22412  y */\n      dup3\n        /* \"contracts/1_Power.sol\":22407:22408  z */\n      dup3\n        /* \"contracts/1_Power.sol\":22407:22412  z * y */\n      tag_227\n      swap2\n      swap1\n      tag_28\n      jump\t// in\n    tag_227:\n        /* \"contracts/1_Power.sol\":22407:22422  z * y / FIXED_1 */\n      tag_228\n      swap2\n      swap1\n      tag_30\n      jump\t// in\n    tag_228:\n        /* \"contracts/1_Power.sol\":22403:22422  z = z * y / FIXED_1 */\n      swap1\n      pop\n        /* \"contracts/1_Power.sol\":22435:22453  0x0000000e30dce400 */\n      0x0e30dce400\n        /* \"contracts/1_Power.sol\":22431:22432  z */\n      dup2\n        /* \"contracts/1_Power.sol\":22431:22453  z * 0x0000000e30dce400 */\n      tag_229\n      swap2\n      swap1\n      tag_28\n      jump\t// in\n    tag_229:\n        /* \"contracts/1_Power.sol\":22424:22453  res += z * 0x0000000e30dce400 */\n      dup4\n      tag_230\n      swap2\n      swap1\n      tag_32\n      jump\t// in\n    tag_230:\n      swap3\n      pop\n        /* \"contracts/1_Power.sol\":1048:1083  0x080000000000000000000000000000000 */\n      0x80000000000000000000000000000000\n        /* \"contracts/1_Power.sol\":22497:22498  y */\n      dup3\n        /* \"contracts/1_Power.sol\":22493:22494  z */\n      dup3\n        /* \"contracts/1_Power.sol\":22493:22498  z * y */\n      tag_231\n      swap2\n      swap1\n      tag_28\n      jump\t// in\n    tag_231:\n        /* \"contracts/1_Power.sol\":22493:22508  z * y / FIXED_1 */\n      tag_232\n      swap2\n      swap1\n      tag_30\n      jump\t// in\n    tag_232:\n        /* \"contracts/1_Power.sol\":22489:22508  z = z * y / FIXED_1 */\n      swap1\n      pop\n        /* \"contracts/1_Power.sol\":22521:22539  0x000000012ebd1300 */\n      0x012ebd1300\n        /* \"contracts/1_Power.sol\":22517:22518  z */\n      dup2\n        /* \"contracts/1_Power.sol\":22517:22539  z * 0x000000012ebd1300 */\n      tag_233\n      swap2\n      swap1\n      tag_28\n      jump\t// in\n    tag_233:\n        /* \"contracts/1_Power.sol\":22510:22539  res += z * 0x000000012ebd1300 */\n      dup4\n      tag_234\n      swap2\n      swap1\n      tag_32\n      jump\t// in\n    tag_234:\n      swap3\n      pop\n        /* \"contracts/1_Power.sol\":1048:1083  0x080000000000000000000000000000000 */\n      0x80000000000000000000000000000000\n        /* \"contracts/1_Power.sol\":22583:22584  y */\n      dup3\n        /* \"contracts/1_Power.sol\":22579:22580  z */\n      dup3\n        /* \"contracts/1_Power.sol\":22579:22584  z * y */\n      tag_235\n      swap2\n      swap1\n      tag_28\n      jump\t// in\n    tag_235:\n        /* \"contracts/1_Power.sol\":22579:22594  z * y / FIXED_1 */\n      tag_236\n      swap2\n      swap1\n      tag_30\n      jump\t// in\n    tag_236:\n        /* \"contracts/1_Power.sol\":22575:22594  z = z * y / FIXED_1 */\n      swap1\n      pop\n        /* \"contracts/1_Power.sol\":22607:22625  0x0000000017499f00 */\n      0x17499f00\n        /* \"contracts/1_Power.sol\":22603:22604  z */\n      dup2\n        /* \"contracts/1_Power.sol\":22603:22625  z * 0x0000000017499f00 */\n      tag_237\n      swap2\n      swap1\n      tag_28\n      jump\t// in\n    tag_237:\n        /* \"contracts/1_Power.sol\":22596:22625  res += z * 0x0000000017499f00 */\n      dup4\n      tag_238\n      swap2\n      swap1\n      tag_32\n      jump\t// in\n    tag_238:\n      swap3\n      pop\n        /* \"contracts/1_Power.sol\":1048:1083  0x080000000000000000000000000000000 */\n      0x80000000000000000000000000000000\n        /* \"contracts/1_Power.sol\":22669:22670  y */\n      dup3\n        /* \"contracts/1_Power.sol\":22665:22666  z */\n      dup3\n        /* \"contracts/1_Power.sol\":22665:22670  z * y */\n      tag_239\n      swap2\n      swap1\n      tag_28\n      jump\t// in\n    tag_239:\n        /* \"contracts/1_Power.sol\":22665:22680  z * y / FIXED_1 */\n      tag_240\n      swap2\n      swap1\n      tag_30\n      jump\t// in\n    tag_240:\n        /* \"contracts/1_Power.sol\":22661:22680  z = z * y / FIXED_1 */\n      swap1\n      pop\n        /* \"contracts/1_Power.sol\":22693:22711  0x0000000001a9d480 */\n      0x01a9d480\n        /* \"contracts/1_Power.sol\":22689:22690  z */\n      dup2\n        /* \"contracts/1_Power.sol\":22689:22711  z * 0x0000000001a9d480 */\n      tag_241\n      swap2\n      swap1\n      tag_28\n      jump\t// in\n    tag_241:\n        /* \"contracts/1_Power.sol\":22682:22711  res += z * 0x0000000001a9d480 */\n      dup4\n      tag_242\n      swap2\n      swap1\n      tag_32\n      jump\t// in\n    tag_242:\n      swap3\n      pop\n        /* \"contracts/1_Power.sol\":1048:1083  0x080000000000000000000000000000000 */\n      0x80000000000000000000000000000000\n        /* \"contracts/1_Power.sol\":22755:22756  y */\n      dup3\n        /* \"contracts/1_Power.sol\":22751:22752  z */\n      dup3\n        /* \"contracts/1_Power.sol\":22751:22756  z * y */\n      tag_243\n      swap2\n      swap1\n      tag_28\n      jump\t// in\n    tag_243:\n        /* \"contracts/1_Power.sol\":22751:22766  z * y / FIXED_1 */\n      tag_244\n      swap2\n      swap1\n      tag_30\n      jump\t// in\n    tag_244:\n        /* \"contracts/1_Power.sol\":22747:22766  z = z * y / FIXED_1 */\n      swap1\n      pop\n        /* \"contracts/1_Power.sol\":22779:22797  0x00000000001c6380 */\n      0x1c6380\n        /* \"contracts/1_Power.sol\":22775:22776  z */\n      dup2\n        /* \"contracts/1_Power.sol\":22775:22797  z * 0x00000000001c6380 */\n      tag_245\n      swap2\n      swap1\n      tag_28\n      jump\t// in\n    tag_245:\n        /* \"contracts/1_Power.sol\":22768:22797  res += z * 0x00000000001c6380 */\n      dup4\n      tag_246\n      swap2\n      swap1\n      tag_32\n      jump\t// in\n    tag_246:\n      swap3\n      pop\n        /* \"contracts/1_Power.sol\":1048:1083  0x080000000000000000000000000000000 */\n      0x80000000000000000000000000000000\n        /* \"contracts/1_Power.sol\":22841:22842  y */\n      dup3\n        /* \"contracts/1_Power.sol\":22837:22838  z */\n      dup3\n        /* \"contracts/1_Power.sol\":22837:22842  z * y */\n      tag_247\n      swap2\n      swap1\n      tag_28\n      jump\t// in\n    tag_247:\n        /* \"contracts/1_Power.sol\":22837:22852  z * y / FIXED_1 */\n      tag_248\n      swap2\n      swap1\n      tag_30\n      jump\t// in\n    tag_248:\n        /* \"contracts/1_Power.sol\":22833:22852  z = z * y / FIXED_1 */\n      swap1\n      pop\n        /* \"contracts/1_Power.sol\":22865:22883  0x000000000001c638 */\n      0x01c638\n        /* \"contracts/1_Power.sol\":22861:22862  z */\n      dup2\n        /* \"contracts/1_Power.sol\":22861:22883  z * 0x000000000001c638 */\n      tag_249\n      swap2\n      swap1\n      tag_28\n      jump\t// in\n    tag_249:\n        /* \"contracts/1_Power.sol\":22854:22883  res += z * 0x000000000001c638 */\n      dup4\n      tag_250\n      swap2\n      swap1\n      tag_32\n      jump\t// in\n    tag_250:\n      swap3\n      pop\n        /* \"contracts/1_Power.sol\":1048:1083  0x080000000000000000000000000000000 */\n      0x80000000000000000000000000000000\n        /* \"contracts/1_Power.sol\":22927:22928  y */\n      dup3\n        /* \"contracts/1_Power.sol\":22923:22924  z */\n      dup3\n        /* \"contracts/1_Power.sol\":22923:22928  z * y */\n      tag_251\n      swap2\n      swap1\n      tag_28\n      jump\t// in\n    tag_251:\n        /* \"contracts/1_Power.sol\":22923:22938  z * y / FIXED_1 */\n      tag_252\n      swap2\n      swap1\n      tag_30\n      jump\t// in\n    tag_252:\n        /* \"contracts/1_Power.sol\":22919:22938  z = z * y / FIXED_1 */\n      swap1\n      pop\n        /* \"contracts/1_Power.sol\":22951:22969  0x0000000000001ab8 */\n      0x1ab8\n        /* \"contracts/1_Power.sol\":22947:22948  z */\n      dup2\n        /* \"contracts/1_Power.sol\":22947:22969  z * 0x0000000000001ab8 */\n      tag_253\n      swap2\n      swap1\n      tag_28\n      jump\t// in\n    tag_253:\n        /* \"contracts/1_Power.sol\":22940:22969  res += z * 0x0000000000001ab8 */\n      dup4\n      tag_254\n      swap2\n      swap1\n      tag_32\n      jump\t// in\n    tag_254:\n      swap3\n      pop\n        /* \"contracts/1_Power.sol\":1048:1083  0x080000000000000000000000000000000 */\n      0x80000000000000000000000000000000\n        /* \"contracts/1_Power.sol\":23013:23014  y */\n      dup3\n        /* \"contracts/1_Power.sol\":23009:23010  z */\n      dup3\n        /* \"contracts/1_Power.sol\":23009:23014  z * y */\n      tag_255\n      swap2\n      swap1\n      tag_28\n      jump\t// in\n    tag_255:\n        /* \"contracts/1_Power.sol\":23009:23024  z * y / FIXED_1 */\n      tag_256\n      swap2\n      swap1\n      tag_30\n      jump\t// in\n    tag_256:\n        /* \"contracts/1_Power.sol\":23005:23024  z = z * y / FIXED_1 */\n      swap1\n      pop\n        /* \"contracts/1_Power.sol\":23037:23055  0x000000000000017c */\n      0x017c\n        /* \"contracts/1_Power.sol\":23033:23034  z */\n      dup2\n        /* \"contracts/1_Power.sol\":23033:23055  z * 0x000000000000017c */\n      tag_257\n      swap2\n      swap1\n      tag_28\n      jump\t// in\n    tag_257:\n        /* \"contracts/1_Power.sol\":23026:23055  res += z * 0x000000000000017c */\n      dup4\n      tag_258\n      swap2\n      swap1\n      tag_32\n      jump\t// in\n    tag_258:\n      swap3\n      pop\n        /* \"contracts/1_Power.sol\":1048:1083  0x080000000000000000000000000000000 */\n      0x80000000000000000000000000000000\n        /* \"contracts/1_Power.sol\":23099:23100  y */\n      dup3\n        /* \"contracts/1_Power.sol\":23095:23096  z */\n      dup3\n        /* \"contracts/1_Power.sol\":23095:23100  z * y */\n      tag_259\n      swap2\n      swap1\n      tag_28\n      jump\t// in\n    tag_259:\n        /* \"contracts/1_Power.sol\":23095:23110  z * y / FIXED_1 */\n      tag_260\n      swap2\n      swap1\n      tag_30\n      jump\t// in\n    tag_260:\n        /* \"contracts/1_Power.sol\":23091:23110  z = z * y / FIXED_1 */\n      swap1\n      pop\n        /* \"contracts/1_Power.sol\":23123:23141  0x0000000000000014 */\n      0x14\n        /* \"contracts/1_Power.sol\":23119:23120  z */\n      dup2\n        /* \"contracts/1_Power.sol\":23119:23141  z * 0x0000000000000014 */\n      tag_261\n      swap2\n      swap1\n      tag_28\n      jump\t// in\n    tag_261:\n        /* \"contracts/1_Power.sol\":23112:23141  res += z * 0x0000000000000014 */\n      dup4\n      tag_262\n      swap2\n      swap1\n      tag_32\n      jump\t// in\n    tag_262:\n      swap3\n      pop\n        /* \"contracts/1_Power.sol\":1048:1083  0x080000000000000000000000000000000 */\n      0x80000000000000000000000000000000\n        /* \"contracts/1_Power.sol\":23185:23186  y */\n      dup3\n        /* \"contracts/1_Power.sol\":23181:23182  z */\n      dup3\n        /* \"contracts/1_Power.sol\":23181:23186  z * y */\n      tag_263\n      swap2\n      swap1\n      tag_28\n      jump\t// in\n    tag_263:\n        /* \"contracts/1_Power.sol\":23181:23196  z * y / FIXED_1 */\n      tag_264\n      swap2\n      swap1\n      tag_30\n      jump\t// in\n    tag_264:\n        /* \"contracts/1_Power.sol\":23177:23196  z = z * y / FIXED_1 */\n      swap1\n      pop\n        /* \"contracts/1_Power.sol\":23209:23227  0x0000000000000001 */\n      0x01\n        /* \"contracts/1_Power.sol\":23205:23206  z */\n      dup2\n        /* \"contracts/1_Power.sol\":23205:23227  z * 0x0000000000000001 */\n      tag_265\n      swap2\n      swap1\n      tag_28\n      jump\t// in\n    tag_265:\n        /* \"contracts/1_Power.sol\":23198:23227  res += z * 0x0000000000000001 */\n      dup4\n      tag_266\n      swap2\n      swap1\n      tag_32\n      jump\t// in\n    tag_266:\n      swap3\n      pop\n        /* \"contracts/1_Power.sol\":1048:1083  0x080000000000000000000000000000000 */\n      0x80000000000000000000000000000000\n        /* \"contracts/1_Power.sol\":23296:23297  y */\n      dup3\n        /* \"contracts/1_Power.sol\":23275:23293  0x21c3677c82b40000 */\n      0x21c3677c82b40000\n        /* \"contracts/1_Power.sol\":23269:23272  res */\n      dup6\n        /* \"contracts/1_Power.sol\":23269:23293  res / 0x21c3677c82b40000 */\n      tag_267\n      swap2\n      swap1\n      tag_30\n      jump\t// in\n    tag_267:\n        /* \"contracts/1_Power.sol\":23269:23297  res / 0x21c3677c82b40000 + y */\n      tag_268\n      swap2\n      swap1\n      tag_32\n      jump\t// in\n    tag_268:\n        /* \"contracts/1_Power.sol\":23269:23307  res / 0x21c3677c82b40000 + y + FIXED_1 */\n      tag_269\n      swap2\n      swap1\n      tag_32\n      jump\t// in\n    tag_269:\n        /* \"contracts/1_Power.sol\":23263:23307  res = res / 0x21c3677c82b40000 + y + FIXED_1 */\n      swap3\n      pop\n        /* \"contracts/1_Power.sol\":23418:23419  0 */\n      0x00\n        /* \"contracts/1_Power.sol\":23378:23413  0x010000000000000000000000000000000 */\n      0x10000000000000000000000000000000\n        /* \"contracts/1_Power.sol\":23374:23375  x */\n      dup7\n        /* \"contracts/1_Power.sol\":23374:23413  x & 0x010000000000000000000000000000000 */\n      and\n        /* \"contracts/1_Power.sol\":23373:23419  (x & 0x010000000000000000000000000000000) != 0 */\n      eq\n        /* \"contracts/1_Power.sol\":23369:23506  if ((x & 0x010000000000000000000000000000000) != 0) res = res * 0x1c3d6a24ed82218787d624d3e5eba95f9 / 0x18ebef9eac820ae8682b9793ac6d1e776 */\n      tag_270\n      jumpi\n        /* \"contracts/1_Power.sol\":23471:23506  0x18ebef9eac820ae8682b9793ac6d1e776 */\n      0x018ebef9eac820ae8682b9793ac6d1e776\n        /* \"contracts/1_Power.sol\":23433:23468  0x1c3d6a24ed82218787d624d3e5eba95f9 */\n      0x01c3d6a24ed82218787d624d3e5eba95f9\n        /* \"contracts/1_Power.sol\":23427:23430  res */\n      dup5\n        /* \"contracts/1_Power.sol\":23427:23468  res * 0x1c3d6a24ed82218787d624d3e5eba95f9 */\n      tag_271\n      swap2\n      swap1\n      tag_28\n      jump\t// in\n    tag_271:\n        /* \"contracts/1_Power.sol\":23427:23506  res * 0x1c3d6a24ed82218787d624d3e5eba95f9 / 0x18ebef9eac820ae8682b9793ac6d1e776 */\n      tag_272\n      swap2\n      swap1\n      tag_30\n      jump\t// in\n    tag_272:\n        /* \"contracts/1_Power.sol\":23421:23506  res = res * 0x1c3d6a24ed82218787d624d3e5eba95f9 / 0x18ebef9eac820ae8682b9793ac6d1e776 */\n      swap3\n      pop\n        /* \"contracts/1_Power.sol\":23369:23506  if ((x & 0x010000000000000000000000000000000) != 0) res = res * 0x1c3d6a24ed82218787d624d3e5eba95f9 / 0x18ebef9eac820ae8682b9793ac6d1e776 */\n    tag_270:\n        /* \"contracts/1_Power.sol\":23565:23566  0 */\n      0x00\n        /* \"contracts/1_Power.sol\":23525:23560  0x020000000000000000000000000000000 */\n      0x20000000000000000000000000000000\n        /* \"contracts/1_Power.sol\":23521:23522  x */\n      dup7\n        /* \"contracts/1_Power.sol\":23521:23560  x & 0x020000000000000000000000000000000 */\n      and\n        /* \"contracts/1_Power.sol\":23520:23566  (x & 0x020000000000000000000000000000000) != 0 */\n      eq\n        /* \"contracts/1_Power.sol\":23516:23653  if ((x & 0x020000000000000000000000000000000) != 0) res = res * 0x18ebef9eac820ae8682b9793ac6d1e778 / 0x1368b2fc6f9609fe7aceb46aa619baed4 */\n      tag_273\n      jumpi\n        /* \"contracts/1_Power.sol\":23618:23653  0x1368b2fc6f9609fe7aceb46aa619baed4 */\n      0x01368b2fc6f9609fe7aceb46aa619baed4\n        /* \"contracts/1_Power.sol\":23580:23615  0x18ebef9eac820ae8682b9793ac6d1e778 */\n      0x018ebef9eac820ae8682b9793ac6d1e778\n        /* \"contracts/1_Power.sol\":23574:23577  res */\n      dup5\n        /* \"contracts/1_Power.sol\":23574:23615  res * 0x18ebef9eac820ae8682b9793ac6d1e778 */\n      tag_274\n      swap2\n      swap1\n      tag_28\n      jump\t// in\n    tag_274:\n        /* \"contracts/1_Power.sol\":23574:23653  res * 0x18ebef9eac820ae8682b9793ac6d1e778 / 0x1368b2fc6f9609fe7aceb46aa619baed4 */\n      tag_275\n      swap2\n      swap1\n      tag_30\n      jump\t// in\n    tag_275:\n        /* \"contracts/1_Power.sol\":23568:23653  res = res * 0x18ebef9eac820ae8682b9793ac6d1e778 / 0x1368b2fc6f9609fe7aceb46aa619baed4 */\n      swap3\n      pop\n        /* \"contracts/1_Power.sol\":23516:23653  if ((x & 0x020000000000000000000000000000000) != 0) res = res * 0x18ebef9eac820ae8682b9793ac6d1e778 / 0x1368b2fc6f9609fe7aceb46aa619baed4 */\n    tag_273:\n        /* \"contracts/1_Power.sol\":23712:23713  0 */\n      0x00\n        /* \"contracts/1_Power.sol\":23672:23707  0x040000000000000000000000000000000 */\n      0x40000000000000000000000000000000\n        /* \"contracts/1_Power.sol\":23668:23669  x */\n      dup7\n        /* \"contracts/1_Power.sol\":23668:23707  x & 0x040000000000000000000000000000000 */\n      and\n        /* \"contracts/1_Power.sol\":23667:23713  (x & 0x040000000000000000000000000000000) != 0 */\n      eq\n        /* \"contracts/1_Power.sol\":23663:23800  if ((x & 0x040000000000000000000000000000000) != 0) res = res * 0x1368b2fc6f9609fe7aceb46aa619baed5 / 0x0bc5ab1b16779be3575bd8f0520a9f21f */\n      tag_276\n      jumpi\n        /* \"contracts/1_Power.sol\":23765:23800  0x0bc5ab1b16779be3575bd8f0520a9f21f */\n      0xbc5ab1b16779be3575bd8f0520a9f21f\n        /* \"contracts/1_Power.sol\":23727:23762  0x1368b2fc6f9609fe7aceb46aa619baed5 */\n      0x01368b2fc6f9609fe7aceb46aa619baed5\n        /* \"contracts/1_Power.sol\":23721:23724  res */\n      dup5\n        /* \"contracts/1_Power.sol\":23721:23762  res * 0x1368b2fc6f9609fe7aceb46aa619baed5 */\n      tag_277\n      swap2\n      swap1\n      tag_28\n      jump\t// in\n    tag_277:\n        /* \"contracts/1_Power.sol\":23721:23800  res * 0x1368b2fc6f9609fe7aceb46aa619baed5 / 0x0bc5ab1b16779be3575bd8f0520a9f21f */\n      tag_278\n      swap2\n      swap1\n      tag_30\n      jump\t// in\n    tag_278:\n        /* \"contracts/1_Power.sol\":23715:23800  res = res * 0x1368b2fc6f9609fe7aceb46aa619baed5 / 0x0bc5ab1b16779be3575bd8f0520a9f21f */\n      swap3\n      pop\n        /* \"contracts/1_Power.sol\":23663:23800  if ((x & 0x040000000000000000000000000000000) != 0) res = res * 0x1368b2fc6f9609fe7aceb46aa619baed5 / 0x0bc5ab1b16779be3575bd8f0520a9f21f */\n    tag_276:\n        /* \"contracts/1_Power.sol\":23859:23860  0 */\n      0x00\n        /* \"contracts/1_Power.sol\":23819:23854  0x080000000000000000000000000000000 */\n      0x80000000000000000000000000000000\n        /* \"contracts/1_Power.sol\":23815:23816  x */\n      dup7\n        /* \"contracts/1_Power.sol\":23815:23854  x & 0x080000000000000000000000000000000 */\n      and\n        /* \"contracts/1_Power.sol\":23814:23860  (x & 0x080000000000000000000000000000000) != 0 */\n      eq\n        /* \"contracts/1_Power.sol\":23810:23947  if ((x & 0x080000000000000000000000000000000) != 0) res = res * 0x0bc5ab1b16779be3575bd8f0520a9f21e / 0x0454aaa8efe072e7f6ddbab84b40a55c9 */\n      tag_279\n      jumpi\n        /* \"contracts/1_Power.sol\":23912:23947  0x0454aaa8efe072e7f6ddbab84b40a55c9 */\n      0x454aaa8efe072e7f6ddbab84b40a55c9\n        /* \"contracts/1_Power.sol\":23874:23909  0x0bc5ab1b16779be3575bd8f0520a9f21e */\n      0xbc5ab1b16779be3575bd8f0520a9f21e\n        /* \"contracts/1_Power.sol\":23868:23871  res */\n      dup5\n        /* \"contracts/1_Power.sol\":23868:23909  res * 0x0bc5ab1b16779be3575bd8f0520a9f21e */\n      tag_280\n      swap2\n      swap1\n      tag_28\n      jump\t// in\n    tag_280:\n        /* \"contracts/1_Power.sol\":23868:23947  res * 0x0bc5ab1b16779be3575bd8f0520a9f21e / 0x0454aaa8efe072e7f6ddbab84b40a55c9 */\n      tag_281\n      swap2\n      swap1\n      tag_30\n      jump\t// in\n    tag_281:\n        /* \"contracts/1_Power.sol\":23862:23947  res = res * 0x0bc5ab1b16779be3575bd8f0520a9f21e / 0x0454aaa8efe072e7f6ddbab84b40a55c9 */\n      swap3\n      pop\n        /* \"contracts/1_Power.sol\":23810:23947  if ((x & 0x080000000000000000000000000000000) != 0) res = res * 0x0bc5ab1b16779be3575bd8f0520a9f21e / 0x0454aaa8efe072e7f6ddbab84b40a55c9 */\n    tag_279:\n        /* \"contracts/1_Power.sol\":24006:24007  0 */\n      0x00\n        /* \"contracts/1_Power.sol\":23966:24001  0x100000000000000000000000000000000 */\n      0x0100000000000000000000000000000000\n        /* \"contracts/1_Power.sol\":23962:23963  x */\n      dup7\n        /* \"contracts/1_Power.sol\":23962:24001  x & 0x100000000000000000000000000000000 */\n      and\n        /* \"contracts/1_Power.sol\":23961:24007  (x & 0x100000000000000000000000000000000) != 0 */\n      eq\n        /* \"contracts/1_Power.sol\":23957:24094  if ((x & 0x100000000000000000000000000000000) != 0) res = res * 0x0454aaa8efe072e7f6ddbab84b40a55c5 / 0x00960aadc109e7a3bf4578099615711ea */\n      tag_282\n      jumpi\n        /* \"contracts/1_Power.sol\":24059:24094  0x00960aadc109e7a3bf4578099615711ea */\n      0x0960aadc109e7a3bf4578099615711ea\n        /* \"contracts/1_Power.sol\":24021:24056  0x0454aaa8efe072e7f6ddbab84b40a55c5 */\n      0x454aaa8efe072e7f6ddbab84b40a55c5\n        /* \"contracts/1_Power.sol\":24015:24018  res */\n      dup5\n        /* \"contracts/1_Power.sol\":24015:24056  res * 0x0454aaa8efe072e7f6ddbab84b40a55c5 */\n      tag_283\n      swap2\n      swap1\n      tag_28\n      jump\t// in\n    tag_283:\n        /* \"contracts/1_Power.sol\":24015:24094  res * 0x0454aaa8efe072e7f6ddbab84b40a55c5 / 0x00960aadc109e7a3bf4578099615711ea */\n      tag_284\n      swap2\n      swap1\n      tag_30\n      jump\t// in\n    tag_284:\n        /* \"contracts/1_Power.sol\":24009:24094  res = res * 0x0454aaa8efe072e7f6ddbab84b40a55c5 / 0x00960aadc109e7a3bf4578099615711ea */\n      swap3\n      pop\n        /* \"contracts/1_Power.sol\":23957:24094  if ((x & 0x100000000000000000000000000000000) != 0) res = res * 0x0454aaa8efe072e7f6ddbab84b40a55c5 / 0x00960aadc109e7a3bf4578099615711ea */\n    tag_282:\n        /* \"contracts/1_Power.sol\":24153:24154  0 */\n      0x00\n        /* \"contracts/1_Power.sol\":24113:24148  0x200000000000000000000000000000000 */\n      0x0200000000000000000000000000000000\n        /* \"contracts/1_Power.sol\":24109:24110  x */\n      dup7\n        /* \"contracts/1_Power.sol\":24109:24148  x & 0x200000000000000000000000000000000 */\n      and\n        /* \"contracts/1_Power.sol\":24108:24154  (x & 0x200000000000000000000000000000000) != 0 */\n      eq\n        /* \"contracts/1_Power.sol\":24104:24241  if ((x & 0x200000000000000000000000000000000) != 0) res = res * 0x00960aadc109e7a3bf4578099615711d7 / 0x0002bf84208204f5977f9a8cf01fdce3d */\n      tag_285\n      jumpi\n        /* \"contracts/1_Power.sol\":24206:24241  0x0002bf84208204f5977f9a8cf01fdce3d */\n      0x2bf84208204f5977f9a8cf01fdce3d\n        /* \"contracts/1_Power.sol\":24168:24203  0x00960aadc109e7a3bf4578099615711d7 */\n      0x0960aadc109e7a3bf4578099615711d7\n        /* \"contracts/1_Power.sol\":24162:24165  res */\n      dup5\n        /* \"contracts/1_Power.sol\":24162:24203  res * 0x00960aadc109e7a3bf4578099615711d7 */\n      tag_286\n      swap2\n      swap1\n      tag_28\n      jump\t// in\n    tag_286:\n        /* \"contracts/1_Power.sol\":24162:24241  res * 0x00960aadc109e7a3bf4578099615711d7 / 0x0002bf84208204f5977f9a8cf01fdce3d */\n      tag_287\n      swap2\n      swap1\n      tag_30\n      jump\t// in\n    tag_287:\n        /* \"contracts/1_Power.sol\":24156:24241  res = res * 0x00960aadc109e7a3bf4578099615711d7 / 0x0002bf84208204f5977f9a8cf01fdce3d */\n      swap3\n      pop\n        /* \"contracts/1_Power.sol\":24104:24241  if ((x & 0x200000000000000000000000000000000) != 0) res = res * 0x00960aadc109e7a3bf4578099615711d7 / 0x0002bf84208204f5977f9a8cf01fdce3d */\n    tag_285:\n        /* \"contracts/1_Power.sol\":24300:24301  0 */\n      0x00\n        /* \"contracts/1_Power.sol\":24260:24295  0x400000000000000000000000000000000 */\n      0x0400000000000000000000000000000000\n        /* \"contracts/1_Power.sol\":24256:24257  x */\n      dup7\n        /* \"contracts/1_Power.sol\":24256:24295  x & 0x400000000000000000000000000000000 */\n      and\n        /* \"contracts/1_Power.sol\":24255:24301  (x & 0x400000000000000000000000000000000) != 0 */\n      eq\n        /* \"contracts/1_Power.sol\":24251:24388  if ((x & 0x400000000000000000000000000000000) != 0) res = res * 0x0002bf84208204f5977f9a8cf01fdc307 / 0x0000003c6ab775dd0b95b4cbee7e65d11 */\n      tag_288\n      jumpi\n        /* \"contracts/1_Power.sol\":24353:24388  0x0000003c6ab775dd0b95b4cbee7e65d11 */\n      0x03c6ab775dd0b95b4cbee7e65d11\n        /* \"contracts/1_Power.sol\":24315:24350  0x0002bf84208204f5977f9a8cf01fdc307 */\n      0x2bf84208204f5977f9a8cf01fdc307\n        /* \"contracts/1_Power.sol\":24309:24312  res */\n      dup5\n        /* \"contracts/1_Power.sol\":24309:24350  res * 0x0002bf84208204f5977f9a8cf01fdc307 */\n      tag_289\n      swap2\n      swap1\n      tag_28\n      jump\t// in\n    tag_289:\n        /* \"contracts/1_Power.sol\":24309:24388  res * 0x0002bf84208204f5977f9a8cf01fdc307 / 0x0000003c6ab775dd0b95b4cbee7e65d11 */\n      tag_290\n      swap2\n      swap1\n      tag_30\n      jump\t// in\n    tag_290:\n        /* \"contracts/1_Power.sol\":24303:24388  res = res * 0x0002bf84208204f5977f9a8cf01fdc307 / 0x0000003c6ab775dd0b95b4cbee7e65d11 */\n      swap3\n      pop\n        /* \"contracts/1_Power.sol\":24251:24388  if ((x & 0x400000000000000000000000000000000) != 0) res = res * 0x0002bf84208204f5977f9a8cf01fdc307 / 0x0000003c6ab775dd0b95b4cbee7e65d11 */\n    tag_288:\n        /* \"contracts/1_Power.sol\":24408:24411  res */\n      dup3\n        /* \"contracts/1_Power.sol\":24401:24411  return res */\n      swap4\n      pop\n      pop\n      pop\n      pop\n        /* \"contracts/1_Power.sol\":21433:24418  function optimalExp(uint256 x) internal pure returns (uint256) {\r... */\n      swap2\n      swap1\n      pop\n      jump\t// out\n        /* \"contracts/1_Power.sol\":13852:14297  function findPositionInMaxExpArray(uint256 _x)\r... */\n    tag_82:\n        /* \"contracts/1_Power.sol\":13925:13930  uint8 */\n      0x00\n        /* \"contracts/1_Power.sol\":13942:13950  uint8 lo */\n      dup1\n        /* \"contracts/1_Power.sol\":769:771  32 */\n      0x20\n        /* \"contracts/1_Power.sol\":13942:13966  uint8 lo = MIN_PRECISION */\n      swap1\n      pop\n        /* \"contracts/1_Power.sol\":13973:13981  uint8 hi */\n      0x00\n        /* \"contracts/1_Power.sol\":815:818  127 */\n      0x7f\n        /* \"contracts/1_Power.sol\":13973:13997  uint8 hi = MAX_PRECISION */\n      swap1\n      pop\n        /* \"contracts/1_Power.sol\":14006:14153  while (lo + 1 < hi) {\r... */\n    tag_292:\n        /* \"contracts/1_Power.sol\":14022:14024  hi */\n      dup1\n        /* \"contracts/1_Power.sol\":14013:14024  lo + 1 < hi */\n      0xff\n      and\n        /* \"contracts/1_Power.sol\":14018:14019  1 */\n      0x01\n        /* \"contracts/1_Power.sol\":14013:14015  lo */\n      dup4\n        /* \"contracts/1_Power.sol\":14013:14019  lo + 1 */\n      tag_294\n      swap2\n      swap1\n      tag_295\n      jump\t// in\n    tag_294:\n        /* \"contracts/1_Power.sol\":14013:14024  lo + 1 < hi */\n      0xff\n      and\n      lt\n        /* \"contracts/1_Power.sol\":14006:14153  while (lo + 1 < hi) {\r... */\n      iszero\n      tag_293\n      jumpi\n        /* \"contracts/1_Power.sol\":14035:14044  uint8 mid */\n      0x00\n        /* \"contracts/1_Power.sol\":14059:14060  2 */\n      0x02\n        /* \"contracts/1_Power.sol\":14053:14055  hi */\n      dup3\n        /* \"contracts/1_Power.sol\":14048:14050  lo */\n      dup5\n        /* \"contracts/1_Power.sol\":14048:14055  lo + hi */\n      tag_296\n      swap2\n      swap1\n      tag_295\n      jump\t// in\n    tag_296:\n        /* \"contracts/1_Power.sol\":14047:14060  (lo + hi) / 2 */\n      tag_297\n      swap2\n      swap1\n      tag_298\n      jump\t// in\n    tag_297:\n        /* \"contracts/1_Power.sol\":14035:14060  uint8 mid = (lo + hi) / 2 */\n      swap1\n      pop\n        /* \"contracts/1_Power.sol\":14093:14095  _x */\n      dup5\n        /* \"contracts/1_Power.sol\":14073:14084  maxExpArray */\n      0x01\n        /* \"contracts/1_Power.sol\":14085:14088  mid */\n      dup3\n        /* \"contracts/1_Power.sol\":14073:14089  maxExpArray[mid] */\n      0xff\n      and\n      0x80\n      dup2\n      lt\n      tag_299\n      jumpi\n      tag_300\n      tag_301\n      jump\t// in\n    tag_300:\n    tag_299:\n      add\n      sload\n        /* \"contracts/1_Power.sol\":14073:14095  maxExpArray[mid] >= _x */\n      lt\n        /* \"contracts/1_Power.sol\":14069:14145  if (maxExpArray[mid] >= _x)\r... */\n      tag_303\n      jumpi\n        /* \"contracts/1_Power.sol\":14111:14114  mid */\n      dup1\n        /* \"contracts/1_Power.sol\":14106:14114  lo = mid */\n      swap3\n      pop\n        /* \"contracts/1_Power.sol\":14069:14145  if (maxExpArray[mid] >= _x)\r... */\n      jump(tag_304)\n    tag_303:\n        /* \"contracts/1_Power.sol\":14142:14145  mid */\n      dup1\n        /* \"contracts/1_Power.sol\":14137:14145  hi = mid */\n      swap2\n      pop\n        /* \"contracts/1_Power.sol\":14069:14145  if (maxExpArray[mid] >= _x)\r... */\n    tag_304:\n        /* \"contracts/1_Power.sol\":14026:14153  {\r... */\n      pop\n        /* \"contracts/1_Power.sol\":14006:14153  while (lo + 1 < hi) {\r... */\n      jump(tag_292)\n    tag_293:\n        /* \"contracts/1_Power.sol\":14184:14186  _x */\n      dup4\n        /* \"contracts/1_Power.sol\":14165:14176  maxExpArray */\n      0x01\n        /* \"contracts/1_Power.sol\":14177:14179  hi */\n      dup3\n        /* \"contracts/1_Power.sol\":14165:14180  maxExpArray[hi] */\n      0xff\n      and\n      0x80\n      dup2\n      lt\n      tag_305\n      jumpi\n      tag_306\n      tag_301\n      jump\t// in\n    tag_306:\n    tag_305:\n      add\n      sload\n        /* \"contracts/1_Power.sol\":14165:14186  maxExpArray[hi] >= _x */\n      lt\n        /* \"contracts/1_Power.sol\":14161:14204  if (maxExpArray[hi] >= _x)\r... */\n      tag_308\n      jumpi\n        /* \"contracts/1_Power.sol\":14202:14204  hi */\n      dup1\n        /* \"contracts/1_Power.sol\":14195:14204  return hi */\n      swap3\n      pop\n      pop\n      pop\n      jump(tag_291)\n        /* \"contracts/1_Power.sol\":14161:14204  if (maxExpArray[hi] >= _x)\r... */\n    tag_308:\n        /* \"contracts/1_Power.sol\":14234:14236  _x */\n      dup4\n        /* \"contracts/1_Power.sol\":14215:14226  maxExpArray */\n      0x01\n        /* \"contracts/1_Power.sol\":14227:14229  lo */\n      dup4\n        /* \"contracts/1_Power.sol\":14215:14230  maxExpArray[lo] */\n      0xff\n      and\n      0x80\n      dup2\n      lt\n      tag_309\n      jumpi\n      tag_310\n      tag_301\n      jump\t// in\n    tag_310:\n    tag_309:\n      add\n      sload\n        /* \"contracts/1_Power.sol\":14215:14236  maxExpArray[lo] >= _x */\n      lt\n        /* \"contracts/1_Power.sol\":14211:14254  if (maxExpArray[lo] >= _x)\r... */\n      tag_312\n      jumpi\n        /* \"contracts/1_Power.sol\":14252:14254  lo */\n      dup2\n        /* \"contracts/1_Power.sol\":14245:14254  return lo */\n      swap3\n      pop\n      pop\n      pop\n      jump(tag_291)\n        /* \"contracts/1_Power.sol\":14211:14254  if (maxExpArray[lo] >= _x)\r... */\n    tag_312:\n        /* \"contracts/1_Power.sol\":14270:14275  false */\n      0x00\n        /* \"contracts/1_Power.sol\":14263:14276  assert(false) */\n      tag_313\n      jumpi\n      tag_314\n      tag_315\n      jump\t// in\n    tag_314:\n    tag_313:\n        /* \"contracts/1_Power.sol\":14290:14291  0 */\n      0x00\n        /* \"contracts/1_Power.sol\":14283:14291  return 0 */\n      swap3\n      pop\n      pop\n      pop\n        /* \"contracts/1_Power.sol\":13852:14297  function findPositionInMaxExpArray(uint256 _x)\r... */\n    tag_291:\n      swap2\n      swap1\n      pop\n      jump\t// out\n        /* \"contracts/1_Power.sol\":14855:18683  function generalExp(uint256 _x, uint8 _precision) internal pure returns (uint256) {\r... */\n    tag_86:\n        /* \"contracts/1_Power.sol\":14928:14935  uint256 */\n      0x00\n        /* \"contracts/1_Power.sol\":14947:14957  uint256 xi */\n      dup1\n        /* \"contracts/1_Power.sol\":14960:14962  _x */\n      dup4\n        /* \"contracts/1_Power.sol\":14947:14962  uint256 xi = _x */\n      swap1\n      pop\n        /* \"contracts/1_Power.sol\":14972:14983  uint256 res */\n      0x00\n        /* \"contracts/1_Power.sol\":15017:15027  _precision */\n      dup4\n        /* \"contracts/1_Power.sol\":15004:15027  (xi * _x) >> _precision */\n      0xff\n      and\n        /* \"contracts/1_Power.sol\":15010:15012  _x */\n      dup6\n        /* \"contracts/1_Power.sol\":15005:15007  xi */\n      dup4\n        /* \"contracts/1_Power.sol\":15005:15012  xi * _x */\n      tag_317\n      swap2\n      swap1\n      tag_28\n      jump\t// in\n    tag_317:\n        /* \"contracts/1_Power.sol\":15004:15027  (xi * _x) >> _precision */\n      swap1\n      shr\n        /* \"contracts/1_Power.sol\":14999:15027  xi = (xi * _x) >> _precision */\n      swap2\n      pop\n        /* \"contracts/1_Power.sol\":15041:15074  0x3442c4e6074a82f1797f72ac0000000 */\n      0x03442c4e6074a82f1797f72ac0000000\n        /* \"contracts/1_Power.sol\":15036:15038  xi */\n      dup3\n        /* \"contracts/1_Power.sol\":15036:15074  xi * 0x3442c4e6074a82f1797f72ac0000000 */\n      tag_318\n      swap2\n      swap1\n      tag_28\n      jump\t// in\n    tag_318:\n        /* \"contracts/1_Power.sol\":15029:15074  res += xi * 0x3442c4e6074a82f1797f72ac0000000 */\n      dup2\n      tag_319\n      swap2\n      swap1\n      tag_32\n      jump\t// in\n    tag_319:\n      swap1\n      pop\n        /* \"contracts/1_Power.sol\":15128:15138  _precision */\n      dup4\n        /* \"contracts/1_Power.sol\":15115:15138  (xi * _x) >> _precision */\n      0xff\n      and\n        /* \"contracts/1_Power.sol\":15121:15123  _x */\n      dup6\n        /* \"contracts/1_Power.sol\":15116:15118  xi */\n      dup4\n        /* \"contracts/1_Power.sol\":15116:15123  xi * _x */\n      tag_320\n      swap2\n      swap1\n      tag_28\n      jump\t// in\n    tag_320:\n        /* \"contracts/1_Power.sol\":15115:15138  (xi * _x) >> _precision */\n      swap1\n      shr\n        /* \"contracts/1_Power.sol\":15110:15138  xi = (xi * _x) >> _precision */\n      swap2\n      pop\n        /* \"contracts/1_Power.sol\":15152:15185  0x116b96f757c380fb287fd0e40000000 */\n      0x0116b96f757c380fb287fd0e40000000\n        /* \"contracts/1_Power.sol\":15147:15149  xi */\n      dup3\n        /* \"contracts/1_Power.sol\":15147:15185  xi * 0x116b96f757c380fb287fd0e40000000 */\n      tag_321\n      swap2\n      swap1\n      tag_28\n      jump\t// in\n    tag_321:\n        /* \"contracts/1_Power.sol\":15140:15185  res += xi * 0x116b96f757c380fb287fd0e40000000 */\n      dup2\n      tag_322\n      swap2\n      swap1\n      tag_32\n      jump\t// in\n    tag_322:\n      swap1\n      pop\n        /* \"contracts/1_Power.sol\":15239:15249  _precision */\n      dup4\n        /* \"contracts/1_Power.sol\":15226:15249  (xi * _x) >> _precision */\n      0xff\n      and\n        /* \"contracts/1_Power.sol\":15232:15234  _x */\n      dup6\n        /* \"contracts/1_Power.sol\":15227:15229  xi */\n      dup4\n        /* \"contracts/1_Power.sol\":15227:15234  xi * _x */\n      tag_323\n      swap2\n      swap1\n      tag_28\n      jump\t// in\n    tag_323:\n        /* \"contracts/1_Power.sol\":15226:15249  (xi * _x) >> _precision */\n      swap1\n      shr\n        /* \"contracts/1_Power.sol\":15221:15249  xi = (xi * _x) >> _precision */\n      swap2\n      pop\n        /* \"contracts/1_Power.sol\":15263:15296  0x045ae5bdd5f0e03eca1ff4390000000 */\n      0x45ae5bdd5f0e03eca1ff4390000000\n        /* \"contracts/1_Power.sol\":15258:15260  xi */\n      dup3\n        /* \"contracts/1_Power.sol\":15258:15296  xi * 0x045ae5bdd5f0e03eca1ff4390000000 */\n      tag_324\n      swap2\n      swap1\n      tag_28\n      jump\t// in\n    tag_324:\n        /* \"contracts/1_Power.sol\":15251:15296  res += xi * 0x045ae5bdd5f0e03eca1ff4390000000 */\n      dup2\n      tag_325\n      swap2\n      swap1\n      tag_32\n      jump\t// in\n    tag_325:\n      swap1\n      pop\n        /* \"contracts/1_Power.sol\":15350:15360  _precision */\n      dup4\n        /* \"contracts/1_Power.sol\":15337:15360  (xi * _x) >> _precision */\n      0xff\n      and\n        /* \"contracts/1_Power.sol\":15343:15345  _x */\n      dup6\n        /* \"contracts/1_Power.sol\":15338:15340  xi */\n      dup4\n        /* \"contracts/1_Power.sol\":15338:15345  xi * _x */\n      tag_326\n      swap2\n      swap1\n      tag_28\n      jump\t// in\n    tag_326:\n        /* \"contracts/1_Power.sol\":15337:15360  (xi * _x) >> _precision */\n      swap1\n      shr\n        /* \"contracts/1_Power.sol\":15332:15360  xi = (xi * _x) >> _precision */\n      swap2\n      pop\n        /* \"contracts/1_Power.sol\":15374:15407  0x00defabf91302cd95b9ffda50000000 */\n      0x0defabf91302cd95b9ffda50000000\n        /* \"contracts/1_Power.sol\":15369:15371  xi */\n      dup3\n        /* \"contracts/1_Power.sol\":15369:15407  xi * 0x00defabf91302cd95b9ffda50000000 */\n      tag_327\n      swap2\n      swap1\n      tag_28\n      jump\t// in\n    tag_327:\n        /* \"contracts/1_Power.sol\":15362:15407  res += xi * 0x00defabf91302cd95b9ffda50000000 */\n      dup2\n      tag_328\n      swap2\n      swap1\n      tag_32\n      jump\t// in\n    tag_328:\n      swap1\n      pop\n        /* \"contracts/1_Power.sol\":15461:15471  _precision */\n      dup4\n        /* \"contracts/1_Power.sol\":15448:15471  (xi * _x) >> _precision */\n      0xff\n      and\n        /* \"contracts/1_Power.sol\":15454:15456  _x */\n      dup6\n        /* \"contracts/1_Power.sol\":15449:15451  xi */\n      dup4\n        /* \"contracts/1_Power.sol\":15449:15456  xi * _x */\n      tag_329\n      swap2\n      swap1\n      tag_28\n      jump\t// in\n    tag_329:\n        /* \"contracts/1_Power.sol\":15448:15471  (xi * _x) >> _precision */\n      swap1\n      shr\n        /* \"contracts/1_Power.sol\":15443:15471  xi = (xi * _x) >> _precision */\n      swap2\n      pop\n        /* \"contracts/1_Power.sol\":15485:15518  0x002529ca9832b22439efff9b8000000 */\n      0x02529ca9832b22439efff9b8000000\n        /* \"contracts/1_Power.sol\":15480:15482  xi */\n      dup3\n        /* \"contracts/1_Power.sol\":15480:15518  xi * 0x002529ca9832b22439efff9b8000000 */\n      tag_330\n      swap2\n      swap1\n      tag_28\n      jump\t// in\n    tag_330:\n        /* \"contracts/1_Power.sol\":15473:15518  res += xi * 0x002529ca9832b22439efff9b8000000 */\n      dup2\n      tag_331\n      swap2\n      swap1\n      tag_32\n      jump\t// in\n    tag_331:\n      swap1\n      pop\n        /* \"contracts/1_Power.sol\":15572:15582  _precision */\n      dup4\n        /* \"contracts/1_Power.sol\":15559:15582  (xi * _x) >> _precision */\n      0xff\n      and\n        /* \"contracts/1_Power.sol\":15565:15567  _x */\n      dup6\n        /* \"contracts/1_Power.sol\":15560:15562  xi */\n      dup4\n        /* \"contracts/1_Power.sol\":15560:15567  xi * _x */\n      tag_332\n      swap2\n      swap1\n      tag_28\n      jump\t// in\n    tag_332:\n        /* \"contracts/1_Power.sol\":15559:15582  (xi * _x) >> _precision */\n      swap1\n      shr\n        /* \"contracts/1_Power.sol\":15554:15582  xi = (xi * _x) >> _precision */\n      swap2\n      pop\n        /* \"contracts/1_Power.sol\":15596:15629  0x00054f1cf12bd04e516b6da88000000 */\n      0x54f1cf12bd04e516b6da88000000\n        /* \"contracts/1_Power.sol\":15591:15593  xi */\n      dup3\n        /* \"contracts/1_Power.sol\":15591:15629  xi * 0x00054f1cf12bd04e516b6da88000000 */\n      tag_333\n      swap2\n      swap1\n      tag_28\n      jump\t// in\n    tag_333:\n        /* \"contracts/1_Power.sol\":15584:15629  res += xi * 0x00054f1cf12bd04e516b6da88000000 */\n      dup2\n      tag_334\n      swap2\n      swap1\n      tag_32\n      jump\t// in\n    tag_334:\n      swap1\n      pop\n        /* \"contracts/1_Power.sol\":15683:15693  _precision */\n      dup4\n        /* \"contracts/1_Power.sol\":15670:15693  (xi * _x) >> _precision */\n      0xff\n      and\n        /* \"contracts/1_Power.sol\":15676:15678  _x */\n      dup6\n        /* \"contracts/1_Power.sol\":15671:15673  xi */\n      dup4\n        /* \"contracts/1_Power.sol\":15671:15678  xi * _x */\n      tag_335\n      swap2\n      swap1\n      tag_28\n      jump\t// in\n    tag_335:\n        /* \"contracts/1_Power.sol\":15670:15693  (xi * _x) >> _precision */\n      swap1\n      shr\n        /* \"contracts/1_Power.sol\":15665:15693  xi = (xi * _x) >> _precision */\n      swap2\n      pop\n        /* \"contracts/1_Power.sol\":15707:15740  0x0000a9e39e257a09ca2d6db51000000 */\n      0x0a9e39e257a09ca2d6db51000000\n        /* \"contracts/1_Power.sol\":15702:15704  xi */\n      dup3\n        /* \"contracts/1_Power.sol\":15702:15740  xi * 0x0000a9e39e257a09ca2d6db51000000 */\n      tag_336\n      swap2\n      swap1\n      tag_28\n      jump\t// in\n    tag_336:\n        /* \"contracts/1_Power.sol\":15695:15740  res += xi * 0x0000a9e39e257a09ca2d6db51000000 */\n      dup2\n      tag_337\n      swap2\n      swap1\n      tag_32\n      jump\t// in\n    tag_337:\n      swap1\n      pop\n        /* \"contracts/1_Power.sol\":15794:15804  _precision */\n      dup4\n        /* \"contracts/1_Power.sol\":15781:15804  (xi * _x) >> _precision */\n      0xff\n      and\n        /* \"contracts/1_Power.sol\":15787:15789  _x */\n      dup6\n        /* \"contracts/1_Power.sol\":15782:15784  xi */\n      dup4\n        /* \"contracts/1_Power.sol\":15782:15789  xi * _x */\n      tag_338\n      swap2\n      swap1\n      tag_28\n      jump\t// in\n    tag_338:\n        /* \"contracts/1_Power.sol\":15781:15804  (xi * _x) >> _precision */\n      swap1\n      shr\n        /* \"contracts/1_Power.sol\":15776:15804  xi = (xi * _x) >> _precision */\n      swap2\n      pop\n        /* \"contracts/1_Power.sol\":15818:15851  0x000012e066e7b839fa050c309000000 */\n      0x012e066e7b839fa050c309000000\n        /* \"contracts/1_Power.sol\":15813:15815  xi */\n      dup3\n        /* \"contracts/1_Power.sol\":15813:15851  xi * 0x000012e066e7b839fa050c309000000 */\n      tag_339\n      swap2\n      swap1\n      tag_28\n      jump\t// in\n    tag_339:\n        /* \"contracts/1_Power.sol\":15806:15851  res += xi * 0x000012e066e7b839fa050c309000000 */\n      dup2\n      tag_340\n      swap2\n      swap1\n      tag_32\n      jump\t// in\n    tag_340:\n      swap1\n      pop\n        /* \"contracts/1_Power.sol\":15905:15915  _precision */\n      dup4\n        /* \"contracts/1_Power.sol\":15892:15915  (xi * _x) >> _precision */\n      0xff\n      and\n        /* \"contracts/1_Power.sol\":15898:15900  _x */\n      dup6\n        /* \"contracts/1_Power.sol\":15893:15895  xi */\n      dup4\n        /* \"contracts/1_Power.sol\":15893:15900  xi * _x */\n      tag_341\n      swap2\n      swap1\n      tag_28\n      jump\t// in\n    tag_341:\n        /* \"contracts/1_Power.sol\":15892:15915  (xi * _x) >> _precision */\n      swap1\n      shr\n        /* \"contracts/1_Power.sol\":15887:15915  xi = (xi * _x) >> _precision */\n      swap2\n      pop\n        /* \"contracts/1_Power.sol\":15929:15962  0x000001e33d7d926c329a1ad1a800000 */\n      0x1e33d7d926c329a1ad1a800000\n        /* \"contracts/1_Power.sol\":15924:15926  xi */\n      dup3\n        /* \"contracts/1_Power.sol\":15924:15962  xi * 0x000001e33d7d926c329a1ad1a800000 */\n      tag_342\n      swap2\n      swap1\n      tag_28\n      jump\t// in\n    tag_342:\n        /* \"contracts/1_Power.sol\":15917:15962  res += xi * 0x000001e33d7d926c329a1ad1a800000 */\n      dup2\n      tag_343\n      swap2\n      swap1\n      tag_32\n      jump\t// in\n    tag_343:\n      swap1\n      pop\n        /* \"contracts/1_Power.sol\":16016:16026  _precision */\n      dup4\n        /* \"contracts/1_Power.sol\":16003:16026  (xi * _x) >> _precision */\n      0xff\n      and\n        /* \"contracts/1_Power.sol\":16009:16011  _x */\n      dup6\n        /* \"contracts/1_Power.sol\":16004:16006  xi */\n      dup4\n        /* \"contracts/1_Power.sol\":16004:16011  xi * _x */\n      tag_344\n      swap2\n      swap1\n      tag_28\n      jump\t// in\n    tag_344:\n        /* \"contracts/1_Power.sol\":16003:16026  (xi * _x) >> _precision */\n      swap1\n      shr\n        /* \"contracts/1_Power.sol\":15998:16026  xi = (xi * _x) >> _precision */\n      swap2\n      pop\n        /* \"contracts/1_Power.sol\":16040:16073  0x0000002bee513bdb4a6b19b5f800000 */\n      0x02bee513bdb4a6b19b5f800000\n        /* \"contracts/1_Power.sol\":16035:16037  xi */\n      dup3\n        /* \"contracts/1_Power.sol\":16035:16073  xi * 0x0000002bee513bdb4a6b19b5f800000 */\n      tag_345\n      swap2\n      swap1\n      tag_28\n      jump\t// in\n    tag_345:\n        /* \"contracts/1_Power.sol\":16028:16073  res += xi * 0x0000002bee513bdb4a6b19b5f800000 */\n      dup2\n      tag_346\n      swap2\n      swap1\n      tag_32\n      jump\t// in\n    tag_346:\n      swap1\n      pop\n        /* \"contracts/1_Power.sol\":16127:16137  _precision */\n      dup4\n        /* \"contracts/1_Power.sol\":16114:16137  (xi * _x) >> _precision */\n      0xff\n      and\n        /* \"contracts/1_Power.sol\":16120:16122  _x */\n      dup6\n        /* \"contracts/1_Power.sol\":16115:16117  xi */\n      dup4\n        /* \"contracts/1_Power.sol\":16115:16122  xi * _x */\n      tag_347\n      swap2\n      swap1\n      tag_28\n      jump\t// in\n    tag_347:\n        /* \"contracts/1_Power.sol\":16114:16137  (xi * _x) >> _precision */\n      swap1\n      shr\n        /* \"contracts/1_Power.sol\":16109:16137  xi = (xi * _x) >> _precision */\n      swap2\n      pop\n        /* \"contracts/1_Power.sol\":16151:16184  0x00000003a9316fa79b88eccf2a00000 */\n      0x3a9316fa79b88eccf2a00000\n        /* \"contracts/1_Power.sol\":16146:16148  xi */\n      dup3\n        /* \"contracts/1_Power.sol\":16146:16184  xi * 0x00000003a9316fa79b88eccf2a00000 */\n      tag_348\n      swap2\n      swap1\n      tag_28\n      jump\t// in\n    tag_348:\n        /* \"contracts/1_Power.sol\":16139:16184  res += xi * 0x00000003a9316fa79b88eccf2a00000 */\n      dup2\n      tag_349\n      swap2\n      swap1\n      tag_32\n      jump\t// in\n    tag_349:\n      swap1\n      pop\n        /* \"contracts/1_Power.sol\":16238:16248  _precision */\n      dup4\n        /* \"contracts/1_Power.sol\":16225:16248  (xi * _x) >> _precision */\n      0xff\n      and\n        /* \"contracts/1_Power.sol\":16231:16233  _x */\n      dup6\n        /* \"contracts/1_Power.sol\":16226:16228  xi */\n      dup4\n        /* \"contracts/1_Power.sol\":16226:16233  xi * _x */\n      tag_350\n      swap2\n      swap1\n      tag_28\n      jump\t// in\n    tag_350:\n        /* \"contracts/1_Power.sol\":16225:16248  (xi * _x) >> _precision */\n      swap1\n      shr\n        /* \"contracts/1_Power.sol\":16220:16248  xi = (xi * _x) >> _precision */\n      swap2\n      pop\n        /* \"contracts/1_Power.sol\":16262:16295  0x0000000048177ebe1fa812375200000 */\n      0x048177ebe1fa812375200000\n        /* \"contracts/1_Power.sol\":16257:16259  xi */\n      dup3\n        /* \"contracts/1_Power.sol\":16257:16295  xi * 0x0000000048177ebe1fa812375200000 */\n      tag_351\n      swap2\n      swap1\n      tag_28\n      jump\t// in\n    tag_351:\n        /* \"contracts/1_Power.sol\":16250:16295  res += xi * 0x0000000048177ebe1fa812375200000 */\n      dup2\n      tag_352\n      swap2\n      swap1\n      tag_32\n      jump\t// in\n    tag_352:\n      swap1\n      pop\n        /* \"contracts/1_Power.sol\":16349:16359  _precision */\n      dup4\n        /* \"contracts/1_Power.sol\":16336:16359  (xi * _x) >> _precision */\n      0xff\n      and\n        /* \"contracts/1_Power.sol\":16342:16344  _x */\n      dup6\n        /* \"contracts/1_Power.sol\":16337:16339  xi */\n      dup4\n        /* \"contracts/1_Power.sol\":16337:16344  xi * _x */\n      tag_353\n      swap2\n      swap1\n      tag_28\n      jump\t// in\n    tag_353:\n        /* \"contracts/1_Power.sol\":16336:16359  (xi * _x) >> _precision */\n      swap1\n      shr\n        /* \"contracts/1_Power.sol\":16331:16359  xi = (xi * _x) >> _precision */\n      swap2\n      pop\n        /* \"contracts/1_Power.sol\":16373:16406  0x0000000005263fe90242dcbacf00000 */\n      0x5263fe90242dcbacf00000\n        /* \"contracts/1_Power.sol\":16368:16370  xi */\n      dup3\n        /* \"contracts/1_Power.sol\":16368:16406  xi * 0x0000000005263fe90242dcbacf00000 */\n      tag_354\n      swap2\n      swap1\n      tag_28\n      jump\t// in\n    tag_354:\n        /* \"contracts/1_Power.sol\":16361:16406  res += xi * 0x0000000005263fe90242dcbacf00000 */\n      dup2\n      tag_355\n      swap2\n      swap1\n      tag_32\n      jump\t// in\n    tag_355:\n      swap1\n      pop\n        /* \"contracts/1_Power.sol\":16460:16470  _precision */\n      dup4\n        /* \"contracts/1_Power.sol\":16447:16470  (xi * _x) >> _precision */\n      0xff\n      and\n        /* \"contracts/1_Power.sol\":16453:16455  _x */\n      dup6\n        /* \"contracts/1_Power.sol\":16448:16450  xi */\n      dup4\n        /* \"contracts/1_Power.sol\":16448:16455  xi * _x */\n      tag_356\n      swap2\n      swap1\n      tag_28\n      jump\t// in\n    tag_356:\n        /* \"contracts/1_Power.sol\":16447:16470  (xi * _x) >> _precision */\n      swap1\n      shr\n        /* \"contracts/1_Power.sol\":16442:16470  xi = (xi * _x) >> _precision */\n      swap2\n      pop\n        /* \"contracts/1_Power.sol\":16484:16517  0x000000000057e22099c030d94100000 */\n      0x057e22099c030d94100000\n        /* \"contracts/1_Power.sol\":16479:16481  xi */\n      dup3\n        /* \"contracts/1_Power.sol\":16479:16517  xi * 0x000000000057e22099c030d94100000 */\n      tag_357\n      swap2\n      swap1\n      tag_28\n      jump\t// in\n    tag_357:\n        /* \"contracts/1_Power.sol\":16472:16517  res += xi * 0x000000000057e22099c030d94100000 */\n      dup2\n      tag_358\n      swap2\n      swap1\n      tag_32\n      jump\t// in\n    tag_358:\n      swap1\n      pop\n        /* \"contracts/1_Power.sol\":16571:16581  _precision */\n      dup4\n        /* \"contracts/1_Power.sol\":16558:16581  (xi * _x) >> _precision */\n      0xff\n      and\n        /* \"contracts/1_Power.sol\":16564:16566  _x */\n      dup6\n        /* \"contracts/1_Power.sol\":16559:16561  xi */\n      dup4\n        /* \"contracts/1_Power.sol\":16559:16566  xi * _x */\n      tag_359\n      swap2\n      swap1\n      tag_28\n      jump\t// in\n    tag_359:\n        /* \"contracts/1_Power.sol\":16558:16581  (xi * _x) >> _precision */\n      swap1\n      shr\n        /* \"contracts/1_Power.sol\":16553:16581  xi = (xi * _x) >> _precision */\n      swap2\n      pop\n        /* \"contracts/1_Power.sol\":16595:16628  0x0000000000057e22099c030d9410000 */\n      0x57e22099c030d9410000\n        /* \"contracts/1_Power.sol\":16590:16592  xi */\n      dup3\n        /* \"contracts/1_Power.sol\":16590:16628  xi * 0x0000000000057e22099c030d9410000 */\n      tag_360\n      swap2\n      swap1\n      tag_28\n      jump\t// in\n    tag_360:\n        /* \"contracts/1_Power.sol\":16583:16628  res += xi * 0x0000000000057e22099c030d9410000 */\n      dup2\n      tag_361\n      swap2\n      swap1\n      tag_32\n      jump\t// in\n    tag_361:\n      swap1\n      pop\n        /* \"contracts/1_Power.sol\":16682:16692  _precision */\n      dup4\n        /* \"contracts/1_Power.sol\":16669:16692  (xi * _x) >> _precision */\n      0xff\n      and\n        /* \"contracts/1_Power.sol\":16675:16677  _x */\n      dup6\n        /* \"contracts/1_Power.sol\":16670:16672  xi */\n      dup4\n        /* \"contracts/1_Power.sol\":16670:16677  xi * _x */\n      tag_362\n      swap2\n      swap1\n      tag_28\n      jump\t// in\n    tag_362:\n        /* \"contracts/1_Power.sol\":16669:16692  (xi * _x) >> _precision */\n      swap1\n      shr\n        /* \"contracts/1_Power.sol\":16664:16692  xi = (xi * _x) >> _precision */\n      swap2\n      pop\n        /* \"contracts/1_Power.sol\":16706:16739  0x00000000000052b6b54569976310000 */\n      0x052b6b54569976310000\n        /* \"contracts/1_Power.sol\":16701:16703  xi */\n      dup3\n        /* \"contracts/1_Power.sol\":16701:16739  xi * 0x00000000000052b6b54569976310000 */\n      tag_363\n      swap2\n      swap1\n      tag_28\n      jump\t// in\n    tag_363:\n        /* \"contracts/1_Power.sol\":16694:16739  res += xi * 0x00000000000052b6b54569976310000 */\n      dup2\n      tag_364\n      swap2\n      swap1\n      tag_32\n      jump\t// in\n    tag_364:\n      swap1\n      pop\n        /* \"contracts/1_Power.sol\":16793:16803  _precision */\n      dup4\n        /* \"contracts/1_Power.sol\":16780:16803  (xi * _x) >> _precision */\n      0xff\n      and\n        /* \"contracts/1_Power.sol\":16786:16788  _x */\n      dup6\n        /* \"contracts/1_Power.sol\":16781:16783  xi */\n      dup4\n        /* \"contracts/1_Power.sol\":16781:16788  xi * _x */\n      tag_365\n      swap2\n      swap1\n      tag_28\n      jump\t// in\n    tag_365:\n        /* \"contracts/1_Power.sol\":16780:16803  (xi * _x) >> _precision */\n      swap1\n      shr\n        /* \"contracts/1_Power.sol\":16775:16803  xi = (xi * _x) >> _precision */\n      swap2\n      pop\n        /* \"contracts/1_Power.sol\":16817:16850  0x00000000000004985f67696bf748000 */\n      0x4985f67696bf748000\n        /* \"contracts/1_Power.sol\":16812:16814  xi */\n      dup3\n        /* \"contracts/1_Power.sol\":16812:16850  xi * 0x00000000000004985f67696bf748000 */\n      tag_366\n      swap2\n      swap1\n      tag_28\n      jump\t// in\n    tag_366:\n        /* \"contracts/1_Power.sol\":16805:16850  res += xi * 0x00000000000004985f67696bf748000 */\n      dup2\n      tag_367\n      swap2\n      swap1\n      tag_32\n      jump\t// in\n    tag_367:\n      swap1\n      pop\n        /* \"contracts/1_Power.sol\":16904:16914  _precision */\n      dup4\n        /* \"contracts/1_Power.sol\":16891:16914  (xi * _x) >> _precision */\n      0xff\n      and\n        /* \"contracts/1_Power.sol\":16897:16899  _x */\n      dup6\n        /* \"contracts/1_Power.sol\":16892:16894  xi */\n      dup4\n        /* \"contracts/1_Power.sol\":16892:16899  xi * _x */\n      tag_368\n      swap2\n      swap1\n      tag_28\n      jump\t// in\n    tag_368:\n        /* \"contracts/1_Power.sol\":16891:16914  (xi * _x) >> _precision */\n      swap1\n      shr\n        /* \"contracts/1_Power.sol\":16886:16914  xi = (xi * _x) >> _precision */\n      swap2\n      pop\n        /* \"contracts/1_Power.sol\":16928:16961  0x000000000000003dea12ea99e498000 */\n      0x03dea12ea99e498000\n        /* \"contracts/1_Power.sol\":16923:16925  xi */\n      dup3\n        /* \"contracts/1_Power.sol\":16923:16961  xi * 0x000000000000003dea12ea99e498000 */\n      tag_369\n      swap2\n      swap1\n      tag_28\n      jump\t// in\n    tag_369:\n        /* \"contracts/1_Power.sol\":16916:16961  res += xi * 0x000000000000003dea12ea99e498000 */\n      dup2\n      tag_370\n      swap2\n      swap1\n      tag_32\n      jump\t// in\n    tag_370:\n      swap1\n      pop\n        /* \"contracts/1_Power.sol\":17015:17025  _precision */\n      dup4\n        /* \"contracts/1_Power.sol\":17002:17025  (xi * _x) >> _precision */\n      0xff\n      and\n        /* \"contracts/1_Power.sol\":17008:17010  _x */\n      dup6\n        /* \"contracts/1_Power.sol\":17003:17005  xi */\n      dup4\n        /* \"contracts/1_Power.sol\":17003:17010  xi * _x */\n      tag_371\n      swap2\n      swap1\n      tag_28\n      jump\t// in\n    tag_371:\n        /* \"contracts/1_Power.sol\":17002:17025  (xi * _x) >> _precision */\n      swap1\n      shr\n        /* \"contracts/1_Power.sol\":16997:17025  xi = (xi * _x) >> _precision */\n      swap2\n      pop\n        /* \"contracts/1_Power.sol\":17039:17072  0x00000000000000031880f2214b6e000 */\n      0x31880f2214b6e000\n        /* \"contracts/1_Power.sol\":17034:17036  xi */\n      dup3\n        /* \"contracts/1_Power.sol\":17034:17072  xi * 0x00000000000000031880f2214b6e000 */\n      tag_372\n      swap2\n      swap1\n      tag_28\n      jump\t// in\n    tag_372:\n        /* \"contracts/1_Power.sol\":17027:17072  res += xi * 0x00000000000000031880f2214b6e000 */\n      dup2\n      tag_373\n      swap2\n      swap1\n      tag_32\n      jump\t// in\n    tag_373:\n      swap1\n      pop\n        /* \"contracts/1_Power.sol\":17126:17136  _precision */\n      dup4\n        /* \"contracts/1_Power.sol\":17113:17136  (xi * _x) >> _precision */\n      0xff\n      and\n        /* \"contracts/1_Power.sol\":17119:17121  _x */\n      dup6\n        /* \"contracts/1_Power.sol\":17114:17116  xi */\n      dup4\n        /* \"contracts/1_Power.sol\":17114:17121  xi * _x */\n      tag_374\n      swap2\n      swap1\n      tag_28\n      jump\t// in\n    tag_374:\n        /* \"contracts/1_Power.sol\":17113:17136  (xi * _x) >> _precision */\n      swap1\n      shr\n        /* \"contracts/1_Power.sol\":17108:17136  xi = (xi * _x) >> _precision */\n      swap2\n      pop\n        /* \"contracts/1_Power.sol\":17150:17183  0x000000000000000025bcff56eb36000 */\n      0x025bcff56eb36000\n        /* \"contracts/1_Power.sol\":17145:17147  xi */\n      dup3\n        /* \"contracts/1_Power.sol\":17145:17183  xi * 0x000000000000000025bcff56eb36000 */\n      tag_375\n      swap2\n      swap1\n      tag_28\n      jump\t// in\n    tag_375:\n        /* \"contracts/1_Power.sol\":17138:17183  res += xi * 0x000000000000000025bcff56eb36000 */\n      dup2\n      tag_376\n      swap2\n      swap1\n      tag_32\n      jump\t// in\n    tag_376:\n      swap1\n      pop\n        /* \"contracts/1_Power.sol\":17237:17247  _precision */\n      dup4\n        /* \"contracts/1_Power.sol\":17224:17247  (xi * _x) >> _precision */\n      0xff\n      and\n        /* \"contracts/1_Power.sol\":17230:17232  _x */\n      dup6\n        /* \"contracts/1_Power.sol\":17225:17227  xi */\n      dup4\n        /* \"contracts/1_Power.sol\":17225:17232  xi * _x */\n      tag_377\n      swap2\n      swap1\n      tag_28\n      jump\t// in\n    tag_377:\n        /* \"contracts/1_Power.sol\":17224:17247  (xi * _x) >> _precision */\n      swap1\n      shr\n        /* \"contracts/1_Power.sol\":17219:17247  xi = (xi * _x) >> _precision */\n      swap2\n      pop\n        /* \"contracts/1_Power.sol\":17261:17294  0x000000000000000001b722e10ab1000 */\n      0x1b722e10ab1000\n        /* \"contracts/1_Power.sol\":17256:17258  xi */\n      dup3\n        /* \"contracts/1_Power.sol\":17256:17294  xi * 0x000000000000000001b722e10ab1000 */\n      tag_378\n      swap2\n      swap1\n      tag_28\n      jump\t// in\n    tag_378:\n        /* \"contracts/1_Power.sol\":17249:17294  res += xi * 0x000000000000000001b722e10ab1000 */\n      dup2\n      tag_379\n      swap2\n      swap1\n      tag_32\n      jump\t// in\n    tag_379:\n      swap1\n      pop\n        /* \"contracts/1_Power.sol\":17348:17358  _precision */\n      dup4\n        /* \"contracts/1_Power.sol\":17335:17358  (xi * _x) >> _precision */\n      0xff\n      and\n        /* \"contracts/1_Power.sol\":17341:17343  _x */\n      dup6\n        /* \"contracts/1_Power.sol\":17336:17338  xi */\n      dup4\n        /* \"contracts/1_Power.sol\":17336:17343  xi * _x */\n      tag_380\n      swap2\n      swap1\n      tag_28\n      jump\t// in\n    tag_380:\n        /* \"contracts/1_Power.sol\":17335:17358  (xi * _x) >> _precision */\n      swap1\n      shr\n        /* \"contracts/1_Power.sol\":17330:17358  xi = (xi * _x) >> _precision */\n      swap2\n      pop\n        /* \"contracts/1_Power.sol\":17372:17405  0x0000000000000000001317c70077000 */\n      0x01317c70077000\n        /* \"contracts/1_Power.sol\":17367:17369  xi */\n      dup3\n        /* \"contracts/1_Power.sol\":17367:17405  xi * 0x0000000000000000001317c70077000 */\n      tag_381\n      swap2\n      swap1\n      tag_28\n      jump\t// in\n    tag_381:\n        /* \"contracts/1_Power.sol\":17360:17405  res += xi * 0x0000000000000000001317c70077000 */\n      dup2\n      tag_382\n      swap2\n      swap1\n      tag_32\n      jump\t// in\n    tag_382:\n      swap1\n      pop\n        /* \"contracts/1_Power.sol\":17459:17469  _precision */\n      dup4\n        /* \"contracts/1_Power.sol\":17446:17469  (xi * _x) >> _precision */\n      0xff\n      and\n        /* \"contracts/1_Power.sol\":17452:17454  _x */\n      dup6\n        /* \"contracts/1_Power.sol\":17447:17449  xi */\n      dup4\n        /* \"contracts/1_Power.sol\":17447:17454  xi * _x */\n      tag_383\n      swap2\n      swap1\n      tag_28\n      jump\t// in\n    tag_383:\n        /* \"contracts/1_Power.sol\":17446:17469  (xi * _x) >> _precision */\n      swap1\n      shr\n        /* \"contracts/1_Power.sol\":17441:17469  xi = (xi * _x) >> _precision */\n      swap2\n      pop\n        /* \"contracts/1_Power.sol\":17483:17516  0x00000000000000000000cba84aafa00 */\n      0x0cba84aafa00\n        /* \"contracts/1_Power.sol\":17478:17480  xi */\n      dup3\n        /* \"contracts/1_Power.sol\":17478:17516  xi * 0x00000000000000000000cba84aafa00 */\n      tag_384\n      swap2\n      swap1\n      tag_28\n      jump\t// in\n    tag_384:\n        /* \"contracts/1_Power.sol\":17471:17516  res += xi * 0x00000000000000000000cba84aafa00 */\n      dup2\n      tag_385\n      swap2\n      swap1\n      tag_32\n      jump\t// in\n    tag_385:\n      swap1\n      pop\n        /* \"contracts/1_Power.sol\":17570:17580  _precision */\n      dup4\n        /* \"contracts/1_Power.sol\":17557:17580  (xi * _x) >> _precision */\n      0xff\n      and\n        /* \"contracts/1_Power.sol\":17563:17565  _x */\n      dup6\n        /* \"contracts/1_Power.sol\":17558:17560  xi */\n      dup4\n        /* \"contracts/1_Power.sol\":17558:17565  xi * _x */\n      tag_386\n      swap2\n      swap1\n      tag_28\n      jump\t// in\n    tag_386:\n        /* \"contracts/1_Power.sol\":17557:17580  (xi * _x) >> _precision */\n      swap1\n      shr\n        /* \"contracts/1_Power.sol\":17552:17580  xi = (xi * _x) >> _precision */\n      swap2\n      pop\n        /* \"contracts/1_Power.sol\":17594:17627  0x00000000000000000000082573a0a00 */\n      0x82573a0a00\n        /* \"contracts/1_Power.sol\":17589:17591  xi */\n      dup3\n        /* \"contracts/1_Power.sol\":17589:17627  xi * 0x00000000000000000000082573a0a00 */\n      tag_387\n      swap2\n      swap1\n      tag_28\n      jump\t// in\n    tag_387:\n        /* \"contracts/1_Power.sol\":17582:17627  res += xi * 0x00000000000000000000082573a0a00 */\n      dup2\n      tag_388\n      swap2\n      swap1\n      tag_32\n      jump\t// in\n    tag_388:\n      swap1\n      pop\n        /* \"contracts/1_Power.sol\":17681:17691  _precision */\n      dup4\n        /* \"contracts/1_Power.sol\":17668:17691  (xi * _x) >> _precision */\n      0xff\n      and\n        /* \"contracts/1_Power.sol\":17674:17676  _x */\n      dup6\n        /* \"contracts/1_Power.sol\":17669:17671  xi */\n      dup4\n        /* \"contracts/1_Power.sol\":17669:17676  xi * _x */\n      tag_389\n      swap2\n      swap1\n      tag_28\n      jump\t// in\n    tag_389:\n        /* \"contracts/1_Power.sol\":17668:17691  (xi * _x) >> _precision */\n      swap1\n      shr\n        /* \"contracts/1_Power.sol\":17663:17691  xi = (xi * _x) >> _precision */\n      swap2\n      pop\n        /* \"contracts/1_Power.sol\":17705:17738  0x00000000000000000000005035ad900 */\n      0x05035ad900\n        /* \"contracts/1_Power.sol\":17700:17702  xi */\n      dup3\n        /* \"contracts/1_Power.sol\":17700:17738  xi * 0x00000000000000000000005035ad900 */\n      tag_390\n      swap2\n      swap1\n      tag_28\n      jump\t// in\n    tag_390:\n        /* \"contracts/1_Power.sol\":17693:17738  res += xi * 0x00000000000000000000005035ad900 */\n      dup2\n      tag_391\n      swap2\n      swap1\n      tag_32\n      jump\t// in\n    tag_391:\n      swap1\n      pop\n        /* \"contracts/1_Power.sol\":17792:17802  _precision */\n      dup4\n        /* \"contracts/1_Power.sol\":17779:17802  (xi * _x) >> _precision */\n      0xff\n      and\n        /* \"contracts/1_Power.sol\":17785:17787  _x */\n      dup6\n        /* \"contracts/1_Power.sol\":17780:17782  xi */\n      dup4\n        /* \"contracts/1_Power.sol\":17780:17787  xi * _x */\n      tag_392\n      swap2\n      swap1\n      tag_28\n      jump\t// in\n    tag_392:\n        /* \"contracts/1_Power.sol\":17779:17802  (xi * _x) >> _precision */\n      swap1\n      shr\n        /* \"contracts/1_Power.sol\":17774:17802  xi = (xi * _x) >> _precision */\n      swap2\n      pop\n        /* \"contracts/1_Power.sol\":17816:17849  0x000000000000000000000002f881b00 */\n      0x2f881b00\n        /* \"contracts/1_Power.sol\":17811:17813  xi */\n      dup3\n        /* \"contracts/1_Power.sol\":17811:17849  xi * 0x000000000000000000000002f881b00 */\n      tag_393\n      swap2\n      swap1\n      tag_28\n      jump\t// in\n    tag_393:\n        /* \"contracts/1_Power.sol\":17804:17849  res += xi * 0x000000000000000000000002f881b00 */\n      dup2\n      tag_394\n      swap2\n      swap1\n      tag_32\n      jump\t// in\n    tag_394:\n      swap1\n      pop\n        /* \"contracts/1_Power.sol\":17903:17913  _precision */\n      dup4\n        /* \"contracts/1_Power.sol\":17890:17913  (xi * _x) >> _precision */\n      0xff\n      and\n        /* \"contracts/1_Power.sol\":17896:17898  _x */\n      dup6\n        /* \"contracts/1_Power.sol\":17891:17893  xi */\n      dup4\n        /* \"contracts/1_Power.sol\":17891:17898  xi * _x */\n      tag_395\n      swap2\n      swap1\n      tag_28\n      jump\t// in\n    tag_395:\n        /* \"contracts/1_Power.sol\":17890:17913  (xi * _x) >> _precision */\n      swap1\n      shr\n        /* \"contracts/1_Power.sol\":17885:17913  xi = (xi * _x) >> _precision */\n      swap2\n      pop\n        /* \"contracts/1_Power.sol\":17927:17960  0x0000000000000000000000001b29340 */\n      0x01b29340\n        /* \"contracts/1_Power.sol\":17922:17924  xi */\n      dup3\n        /* \"contracts/1_Power.sol\":17922:17960  xi * 0x0000000000000000000000001b29340 */\n      tag_396\n      swap2\n      swap1\n      tag_28\n      jump\t// in\n    tag_396:\n        /* \"contracts/1_Power.sol\":17915:17960  res += xi * 0x0000000000000000000000001b29340 */\n      dup2\n      tag_397\n      swap2\n      swap1\n      tag_32\n      jump\t// in\n    tag_397:\n      swap1\n      pop\n        /* \"contracts/1_Power.sol\":18014:18024  _precision */\n      dup4\n        /* \"contracts/1_Power.sol\":18001:18024  (xi * _x) >> _precision */\n      0xff\n      and\n        /* \"contracts/1_Power.sol\":18007:18009  _x */\n      dup6\n        /* \"contracts/1_Power.sol\":18002:18004  xi */\n      dup4\n        /* \"contracts/1_Power.sol\":18002:18009  xi * _x */\n      tag_398\n      swap2\n      swap1\n      tag_28\n      jump\t// in\n    tag_398:\n        /* \"contracts/1_Power.sol\":18001:18024  (xi * _x) >> _precision */\n      swap1\n      shr\n        /* \"contracts/1_Power.sol\":17996:18024  xi = (xi * _x) >> _precision */\n      swap2\n      pop\n        /* \"contracts/1_Power.sol\":18038:18071  0x00000000000000000000000000efc40 */\n      0x0efc40\n        /* \"contracts/1_Power.sol\":18033:18035  xi */\n      dup3\n        /* \"contracts/1_Power.sol\":18033:18071  xi * 0x00000000000000000000000000efc40 */\n      tag_399\n      swap2\n      swap1\n      tag_28\n      jump\t// in\n    tag_399:\n        /* \"contracts/1_Power.sol\":18026:18071  res += xi * 0x00000000000000000000000000efc40 */\n      dup2\n      tag_400\n      swap2\n      swap1\n      tag_32\n      jump\t// in\n    tag_400:\n      swap1\n      pop\n        /* \"contracts/1_Power.sol\":18125:18135  _precision */\n      dup4\n        /* \"contracts/1_Power.sol\":18112:18135  (xi * _x) >> _precision */\n      0xff\n      and\n        /* \"contracts/1_Power.sol\":18118:18120  _x */\n      dup6\n        /* \"contracts/1_Power.sol\":18113:18115  xi */\n      dup4\n        /* \"contracts/1_Power.sol\":18113:18120  xi * _x */\n      tag_401\n      swap2\n      swap1\n      tag_28\n      jump\t// in\n    tag_401:\n        /* \"contracts/1_Power.sol\":18112:18135  (xi * _x) >> _precision */\n      swap1\n      shr\n        /* \"contracts/1_Power.sol\":18107:18135  xi = (xi * _x) >> _precision */\n      swap2\n      pop\n        /* \"contracts/1_Power.sol\":18149:18182  0x0000000000000000000000000007fe0 */\n      0x7fe0\n        /* \"contracts/1_Power.sol\":18144:18146  xi */\n      dup3\n        /* \"contracts/1_Power.sol\":18144:18182  xi * 0x0000000000000000000000000007fe0 */\n      tag_402\n      swap2\n      swap1\n      tag_28\n      jump\t// in\n    tag_402:\n        /* \"contracts/1_Power.sol\":18137:18182  res += xi * 0x0000000000000000000000000007fe0 */\n      dup2\n      tag_403\n      swap2\n      swap1\n      tag_32\n      jump\t// in\n    tag_403:\n      swap1\n      pop\n        /* \"contracts/1_Power.sol\":18236:18246  _precision */\n      dup4\n        /* \"contracts/1_Power.sol\":18223:18246  (xi * _x) >> _precision */\n      0xff\n      and\n        /* \"contracts/1_Power.sol\":18229:18231  _x */\n      dup6\n        /* \"contracts/1_Power.sol\":18224:18226  xi */\n      dup4\n        /* \"contracts/1_Power.sol\":18224:18231  xi * _x */\n      tag_404\n      swap2\n      swap1\n      tag_28\n      jump\t// in\n    tag_404:\n        /* \"contracts/1_Power.sol\":18223:18246  (xi * _x) >> _precision */\n      swap1\n      shr\n        /* \"contracts/1_Power.sol\":18218:18246  xi = (xi * _x) >> _precision */\n      swap2\n      pop\n        /* \"contracts/1_Power.sol\":18260:18293  0x0000000000000000000000000000420 */\n      0x0420\n        /* \"contracts/1_Power.sol\":18255:18257  xi */\n      dup3\n        /* \"contracts/1_Power.sol\":18255:18293  xi * 0x0000000000000000000000000000420 */\n      tag_405\n      swap2\n      swap1\n      tag_28\n      jump\t// in\n    tag_405:\n        /* \"contracts/1_Power.sol\":18248:18293  res += xi * 0x0000000000000000000000000000420 */\n      dup2\n      tag_406\n      swap2\n      swap1\n      tag_32\n      jump\t// in\n    tag_406:\n      swap1\n      pop\n        /* \"contracts/1_Power.sol\":18347:18357  _precision */\n      dup4\n        /* \"contracts/1_Power.sol\":18334:18357  (xi * _x) >> _precision */\n      0xff\n      and\n        /* \"contracts/1_Power.sol\":18340:18342  _x */\n      dup6\n        /* \"contracts/1_Power.sol\":18335:18337  xi */\n      dup4\n        /* \"contracts/1_Power.sol\":18335:18342  xi * _x */\n      tag_407\n      swap2\n      swap1\n      tag_28\n      jump\t// in\n    tag_407:\n        /* \"contracts/1_Power.sol\":18334:18357  (xi * _x) >> _precision */\n      swap1\n      shr\n        /* \"contracts/1_Power.sol\":18329:18357  xi = (xi * _x) >> _precision */\n      swap2\n      pop\n        /* \"contracts/1_Power.sol\":18371:18404  0x0000000000000000000000000000021 */\n      0x21\n        /* \"contracts/1_Power.sol\":18366:18368  xi */\n      dup3\n        /* \"contracts/1_Power.sol\":18366:18404  xi * 0x0000000000000000000000000000021 */\n      tag_408\n      swap2\n      swap1\n      tag_28\n      jump\t// in\n    tag_408:\n        /* \"contracts/1_Power.sol\":18359:18404  res += xi * 0x0000000000000000000000000000021 */\n      dup2\n      tag_409\n      swap2\n      swap1\n      tag_32\n      jump\t// in\n    tag_409:\n      swap1\n      pop\n        /* \"contracts/1_Power.sol\":18458:18468  _precision */\n      dup4\n        /* \"contracts/1_Power.sol\":18445:18468  (xi * _x) >> _precision */\n      0xff\n      and\n        /* \"contracts/1_Power.sol\":18451:18453  _x */\n      dup6\n        /* \"contracts/1_Power.sol\":18446:18448  xi */\n      dup4\n        /* \"contracts/1_Power.sol\":18446:18453  xi * _x */\n      tag_410\n      swap2\n      swap1\n      tag_28\n      jump\t// in\n    tag_410:\n        /* \"contracts/1_Power.sol\":18445:18468  (xi * _x) >> _precision */\n      swap1\n      shr\n        /* \"contracts/1_Power.sol\":18440:18468  xi = (xi * _x) >> _precision */\n      swap2\n      pop\n        /* \"contracts/1_Power.sol\":18482:18515  0x0000000000000000000000000000001 */\n      0x01\n        /* \"contracts/1_Power.sol\":18477:18479  xi */\n      dup3\n        /* \"contracts/1_Power.sol\":18477:18515  xi * 0x0000000000000000000000000000001 */\n      tag_411\n      swap2\n      swap1\n      tag_28\n      jump\t// in\n    tag_411:\n        /* \"contracts/1_Power.sol\":18470:18515  res += xi * 0x0000000000000000000000000000001 */\n      dup2\n      tag_412\n      swap2\n      swap1\n      tag_32\n      jump\t// in\n    tag_412:\n      swap1\n      pop\n        /* \"contracts/1_Power.sol\":18615:18625  _precision */\n      dup4\n        /* \"contracts/1_Power.sol\":18608:18625  ONE << _precision */\n      0xff\n      and\n        /* \"contracts/1_Power.sol\":675:676  1 */\n      0x01\n        /* \"contracts/1_Power.sol\":18608:18625  ONE << _precision */\n      swap1\n      shl\n        /* \"contracts/1_Power.sol\":18602:18604  _x */\n      dup6\n        /* \"contracts/1_Power.sol\":18566:18599  0x688589cc0e9505e2f2fee5580000000 */\n      0x0688589cc0e9505e2f2fee5580000000\n        /* \"contracts/1_Power.sol\":18560:18563  res */\n      dup4\n        /* \"contracts/1_Power.sol\":18560:18599  res / 0x688589cc0e9505e2f2fee5580000000 */\n      tag_413\n      swap2\n      swap1\n      tag_30\n      jump\t// in\n    tag_413:\n        /* \"contracts/1_Power.sol\":18560:18604  res / 0x688589cc0e9505e2f2fee5580000000 + _x */\n      tag_414\n      swap2\n      swap1\n      tag_32\n      jump\t// in\n    tag_414:\n        /* \"contracts/1_Power.sol\":18560:18626  res / 0x688589cc0e9505e2f2fee5580000000 + _x + (ONE << _precision) */\n      tag_415\n      swap2\n      swap1\n      tag_32\n      jump\t// in\n    tag_415:\n        /* \"contracts/1_Power.sol\":18553:18626  return res / 0x688589cc0e9505e2f2fee5580000000 + _x + (ONE << _precision) */\n      swap3\n      pop\n      pop\n      pop\n        /* \"contracts/1_Power.sol\":14855:18683  function generalExp(uint256 _x, uint8 _precision) internal pure returns (uint256) {\r... */\n      swap3\n      swap2\n      pop\n      pop\n      jump\t// out\n        /* \"contracts/1_Power.sol\":13057:13496  function floorLog2(uint256 _n) internal pure returns (uint8) {\r... */\n    tag_173:\n        /* \"contracts/1_Power.sol\":13111:13116  uint8 */\n      0x00\n        /* \"contracts/1_Power.sol\":13125:13134  uint8 res */\n      dup1\n        /* \"contracts/1_Power.sol\":13137:13138  0 */\n      0x00\n        /* \"contracts/1_Power.sol\":13125:13138  uint8 res = 0 */\n      swap1\n      pop\n        /* \"contracts/1_Power.sol\":13145:13154  uint256 n */\n      0x00\n        /* \"contracts/1_Power.sol\":13157:13159  _n */\n      dup4\n        /* \"contracts/1_Power.sol\":13145:13159  uint256 n = _n */\n      swap1\n      pop\n        /* \"contracts/1_Power.sol\":13176:13179  256 */\n      0x0100\n        /* \"contracts/1_Power.sol\":13172:13173  n */\n      dup2\n        /* \"contracts/1_Power.sol\":13172:13179  n < 256 */\n      lt\n        /* \"contracts/1_Power.sol\":13168:13472  if (n < 256) {\r... */\n      iszero\n      tag_417\n      jumpi\n        /* \"contracts/1_Power.sol\":13221:13282  while (n > 1) {\r... */\n    tag_418:\n        /* \"contracts/1_Power.sol\":13232:13233  1 */\n      0x01\n        /* \"contracts/1_Power.sol\":13228:13229  n */\n      dup2\n        /* \"contracts/1_Power.sol\":13228:13233  n > 1 */\n      gt\n        /* \"contracts/1_Power.sol\":13221:13282  while (n > 1) {\r... */\n      iszero\n      tag_419\n      jumpi\n        /* \"contracts/1_Power.sol\":13252:13253  1 */\n      0x01\n        /* \"contracts/1_Power.sol\":13246:13253  n >>= 1 */\n      dup2\n      swap1\n      shr\n      swap1\n      pop\n        /* \"contracts/1_Power.sol\":13271:13272  1 */\n      0x01\n        /* \"contracts/1_Power.sol\":13264:13272  res += 1 */\n      dup3\n      tag_420\n      swap2\n      swap1\n      tag_295\n      jump\t// in\n    tag_420:\n      swap2\n      pop\n        /* \"contracts/1_Power.sol\":13221:13282  while (n > 1) {\r... */\n      jump(tag_418)\n    tag_419:\n        /* \"contracts/1_Power.sol\":13168:13472  if (n < 256) {\r... */\n      jump(tag_421)\n    tag_417:\n        /* \"contracts/1_Power.sol\":13340:13347  uint8 s */\n      0x00\n        /* \"contracts/1_Power.sol\":13350:13353  128 */\n      0x80\n        /* \"contracts/1_Power.sol\":13340:13353  uint8 s = 128 */\n      swap1\n      pop\n        /* \"contracts/1_Power.sol\":13335:13465  for (uint8 s = 128; s > 0; s >>= 1) {\r... */\n    tag_422:\n        /* \"contracts/1_Power.sol\":13359:13360  0 */\n      0x00\n        /* \"contracts/1_Power.sol\":13355:13356  s */\n      dup2\n        /* \"contracts/1_Power.sol\":13355:13360  s > 0 */\n      0xff\n      and\n      gt\n        /* \"contracts/1_Power.sol\":13335:13465  for (uint8 s = 128; s > 0; s >>= 1) {\r... */\n      iszero\n      tag_423\n      jumpi\n        /* \"contracts/1_Power.sol\":13399:13400  s */\n      dup1\n        /* \"contracts/1_Power.sol\":13392:13400  ONE << s */\n      0xff\n      and\n        /* \"contracts/1_Power.sol\":675:676  1 */\n      0x01\n        /* \"contracts/1_Power.sol\":13392:13400  ONE << s */\n      swap1\n      shl\n        /* \"contracts/1_Power.sol\":13386:13387  n */\n      dup3\n        /* \"contracts/1_Power.sol\":13386:13401  n >= (ONE << s) */\n      lt\n        /* \"contracts/1_Power.sol\":13382:13456  if (n >= (ONE << s)) {\r... */\n      tag_425\n      jumpi\n        /* \"contracts/1_Power.sol\":13422:13423  s */\n      dup1\n        /* \"contracts/1_Power.sol\":13416:13423  n >>= s */\n      0xff\n      and\n      dup3\n      swap1\n      shr\n      swap2\n      pop\n        /* \"contracts/1_Power.sol\":13443:13444  s */\n      dup1\n        /* \"contracts/1_Power.sol\":13436:13444  res |= s */\n      dup4\n      or\n      swap3\n      pop\n        /* \"contracts/1_Power.sol\":13382:13456  if (n >= (ONE << s)) {\r... */\n    tag_425:\n        /* \"contracts/1_Power.sol\":13368:13369  1 */\n      0x01\n        /* \"contracts/1_Power.sol\":13362:13369  s >>= 1 */\n      dup2\n      0xff\n      and\n      swap1\n      shr\n      swap1\n      pop\n        /* \"contracts/1_Power.sol\":13335:13465  for (uint8 s = 128; s > 0; s >>= 1) {\r... */\n      jump(tag_422)\n    tag_423:\n      pop\n        /* \"contracts/1_Power.sol\":13168:13472  if (n < 256) {\r... */\n    tag_421:\n        /* \"contracts/1_Power.sol\":13487:13490  res */\n      dup2\n        /* \"contracts/1_Power.sol\":13480:13490  return res */\n      swap3\n      pop\n      pop\n      pop\n        /* \"contracts/1_Power.sol\":13057:13496  function floorLog2(uint256 _n) internal pure returns (uint8) {\r... */\n      swap2\n      swap1\n      pop\n      jump\t// out\n        /* \"#utility.yul\":7:146   */\n    tag_427:\n        /* \"#utility.yul\":53:58   */\n      0x00\n        /* \"#utility.yul\":91:97   */\n      dup2\n        /* \"#utility.yul\":78:98   */\n      calldataload\n        /* \"#utility.yul\":69:98   */\n      swap1\n      pop\n        /* \"#utility.yul\":107:140   */\n      tag_429\n        /* \"#utility.yul\":134:139   */\n      dup2\n        /* \"#utility.yul\":107:140   */\n      tag_430\n      jump\t// in\n    tag_429:\n        /* \"#utility.yul\":7:146   */\n      swap3\n      swap2\n      pop\n      pop\n      jump\t// out\n        /* \"#utility.yul\":152:289   */\n    tag_431:\n        /* \"#utility.yul\":197:202   */\n      0x00\n        /* \"#utility.yul\":235:241   */\n      dup2\n        /* \"#utility.yul\":222:242   */\n      calldataload\n        /* \"#utility.yul\":213:242   */\n      swap1\n      pop\n        /* \"#utility.yul\":251:283   */\n      tag_433\n        /* \"#utility.yul\":277:282   */\n      dup2\n        /* \"#utility.yul\":251:283   */\n      tag_434\n      jump\t// in\n    tag_433:\n        /* \"#utility.yul\":152:289   */\n      swap3\n      swap2\n      pop\n      pop\n      jump\t// out\n        /* \"#utility.yul\":295:1058   */\n    tag_8:\n        /* \"#utility.yul\":380:386   */\n      0x00\n        /* \"#utility.yul\":388:394   */\n      dup1\n        /* \"#utility.yul\":396:402   */\n      0x00\n        /* \"#utility.yul\":404:410   */\n      dup1\n        /* \"#utility.yul\":453:456   */\n      0x80\n        /* \"#utility.yul\":441:450   */\n      dup6\n        /* \"#utility.yul\":432:439   */\n      dup8\n        /* \"#utility.yul\":428:451   */\n      sub\n        /* \"#utility.yul\":424:457   */\n      slt\n        /* \"#utility.yul\":421:541   */\n      iszero\n      tag_436\n      jumpi\n        /* \"#utility.yul\":460:539   */\n      tag_437\n      tag_438\n      jump\t// in\n    tag_437:\n        /* \"#utility.yul\":421:541   */\n    tag_436:\n        /* \"#utility.yul\":580:581   */\n      0x00\n        /* \"#utility.yul\":605:658   */\n      tag_439\n        /* \"#utility.yul\":650:657   */\n      dup8\n        /* \"#utility.yul\":641:647   */\n      dup3\n        /* \"#utility.yul\":630:639   */\n      dup9\n        /* \"#utility.yul\":626:648   */\n      add\n        /* \"#utility.yul\":605:658   */\n      tag_427\n      jump\t// in\n    tag_439:\n        /* \"#utility.yul\":595:658   */\n      swap5\n      pop\n        /* \"#utility.yul\":551:668   */\n      pop\n        /* \"#utility.yul\":707:709   */\n      0x20\n        /* \"#utility.yul\":733:786   */\n      tag_440\n        /* \"#utility.yul\":778:785   */\n      dup8\n        /* \"#utility.yul\":769:775   */\n      dup3\n        /* \"#utility.yul\":758:767   */\n      dup9\n        /* \"#utility.yul\":754:776   */\n      add\n        /* \"#utility.yul\":733:786   */\n      tag_427\n      jump\t// in\n    tag_440:\n        /* \"#utility.yul\":723:786   */\n      swap4\n      pop\n        /* \"#utility.yul\":678:796   */\n      pop\n        /* \"#utility.yul\":835:837   */\n      0x40\n        /* \"#utility.yul\":861:913   */\n      tag_441\n        /* \"#utility.yul\":905:912   */\n      dup8\n        /* \"#utility.yul\":896:902   */\n      dup3\n        /* \"#utility.yul\":885:894   */\n      dup9\n        /* \"#utility.yul\":881:903   */\n      add\n        /* \"#utility.yul\":861:913   */\n      tag_431\n      jump\t// in\n    tag_441:\n        /* \"#utility.yul\":851:913   */\n      swap3\n      pop\n        /* \"#utility.yul\":806:923   */\n      pop\n        /* \"#utility.yul\":962:964   */\n      0x60\n        /* \"#utility.yul\":988:1041   */\n      tag_442\n        /* \"#utility.yul\":1033:1040   */\n      dup8\n        /* \"#utility.yul\":1024:1030   */\n      dup3\n        /* \"#utility.yul\":1013:1022   */\n      dup9\n        /* \"#utility.yul\":1009:1031   */\n      add\n        /* \"#utility.yul\":988:1041   */\n      tag_427\n      jump\t// in\n    tag_442:\n        /* \"#utility.yul\":978:1041   */\n      swap2\n      pop\n        /* \"#utility.yul\":933:1051   */\n      pop\n        /* \"#utility.yul\":295:1058   */\n      swap3\n      swap6\n      swap2\n      swap5\n      pop\n      swap3\n      pop\n      jump\t// out\n        /* \"#utility.yul\":1064:1428   */\n    tag_443:\n        /* \"#utility.yul\":1152:1155   */\n      0x00\n        /* \"#utility.yul\":1180:1219   */\n      tag_445\n        /* \"#utility.yul\":1213:1218   */\n      dup3\n        /* \"#utility.yul\":1180:1219   */\n      tag_446\n      jump\t// in\n    tag_445:\n        /* \"#utility.yul\":1235:1306   */\n      tag_447\n        /* \"#utility.yul\":1299:1305   */\n      dup2\n        /* \"#utility.yul\":1294:1297   */\n      dup6\n        /* \"#utility.yul\":1235:1306   */\n      tag_448\n      jump\t// in\n    tag_447:\n        /* \"#utility.yul\":1228:1306   */\n      swap4\n      pop\n        /* \"#utility.yul\":1315:1367   */\n      tag_449\n        /* \"#utility.yul\":1360:1366   */\n      dup2\n        /* \"#utility.yul\":1355:1358   */\n      dup6\n        /* \"#utility.yul\":1348:1352   */\n      0x20\n        /* \"#utility.yul\":1341:1346   */\n      dup7\n        /* \"#utility.yul\":1337:1353   */\n      add\n        /* \"#utility.yul\":1315:1367   */\n      tag_450\n      jump\t// in\n    tag_449:\n        /* \"#utility.yul\":1392:1421   */\n      tag_451\n        /* \"#utility.yul\":1414:1420   */\n      dup2\n        /* \"#utility.yul\":1392:1421   */\n      tag_452\n      jump\t// in\n    tag_451:\n        /* \"#utility.yul\":1387:1390   */\n      dup5\n        /* \"#utility.yul\":1383:1422   */\n      add\n        /* \"#utility.yul\":1376:1422   */\n      swap2\n      pop\n        /* \"#utility.yul\":1156:1428   */\n      pop\n        /* \"#utility.yul\":1064:1428   */\n      swap3\n      swap2\n      pop\n      pop\n      jump\t// out\n        /* \"#utility.yul\":1434:1800   */\n    tag_453:\n        /* \"#utility.yul\":1576:1579   */\n      0x00\n        /* \"#utility.yul\":1597:1664   */\n      tag_455\n        /* \"#utility.yul\":1661:1663   */\n      0x1c\n        /* \"#utility.yul\":1656:1659   */\n      dup4\n        /* \"#utility.yul\":1597:1664   */\n      tag_448\n      jump\t// in\n    tag_455:\n        /* \"#utility.yul\":1590:1664   */\n      swap2\n      pop\n        /* \"#utility.yul\":1673:1766   */\n      tag_456\n        /* \"#utility.yul\":1762:1765   */\n      dup3\n        /* \"#utility.yul\":1673:1766   */\n      tag_457\n      jump\t// in\n    tag_456:\n        /* \"#utility.yul\":1791:1793   */\n      0x20\n        /* \"#utility.yul\":1786:1789   */\n      dup3\n        /* \"#utility.yul\":1782:1794   */\n      add\n        /* \"#utility.yul\":1775:1794   */\n      swap1\n      pop\n        /* \"#utility.yul\":1434:1800   */\n      swap2\n      swap1\n      pop\n      jump\t// out\n        /* \"#utility.yul\":1806:2172   */\n    tag_458:\n        /* \"#utility.yul\":1948:1951   */\n      0x00\n        /* \"#utility.yul\":1969:2036   */\n      tag_460\n        /* \"#utility.yul\":2033:2035   */\n      0x18\n        /* \"#utility.yul\":2028:2031   */\n      dup4\n        /* \"#utility.yul\":1969:2036   */\n      tag_448\n      jump\t// in\n    tag_460:\n        /* \"#utility.yul\":1962:2036   */\n      swap2\n      pop\n        /* \"#utility.yul\":2045:2138   */\n      tag_461\n        /* \"#utility.yul\":2134:2137   */\n      dup3\n        /* \"#utility.yul\":2045:2138   */\n      tag_462\n      jump\t// in\n    tag_461:\n        /* \"#utility.yul\":2163:2165   */\n      0x20\n        /* \"#utility.yul\":2158:2161   */\n      dup3\n        /* \"#utility.yul\":2154:2166   */\n      add\n        /* \"#utility.yul\":2147:2166   */\n      swap1\n      pop\n        /* \"#utility.yul\":1806:2172   */\n      swap2\n      swap1\n      pop\n      jump\t// out\n        /* \"#utility.yul\":2178:2296   */\n    tag_463:\n        /* \"#utility.yul\":2265:2289   */\n      tag_465\n        /* \"#utility.yul\":2283:2288   */\n      dup2\n        /* \"#utility.yul\":2265:2289   */\n      tag_466\n      jump\t// in\n    tag_465:\n        /* \"#utility.yul\":2260:2263   */\n      dup3\n        /* \"#utility.yul\":2253:2290   */\n      mstore\n        /* \"#utility.yul\":2178:2296   */\n      pop\n      pop\n      jump\t// out\n        /* \"#utility.yul\":2302:2615   */\n    tag_19:\n        /* \"#utility.yul\":2415:2419   */\n      0x00\n        /* \"#utility.yul\":2453:2455   */\n      0x20\n        /* \"#utility.yul\":2442:2451   */\n      dup3\n        /* \"#utility.yul\":2438:2456   */\n      add\n        /* \"#utility.yul\":2430:2456   */\n      swap1\n      pop\n        /* \"#utility.yul\":2502:2511   */\n      dup2\n        /* \"#utility.yul\":2496:2500   */\n      dup2\n        /* \"#utility.yul\":2492:2512   */\n      sub\n        /* \"#utility.yul\":2488:2489   */\n      0x00\n        /* \"#utility.yul\":2477:2486   */\n      dup4\n        /* \"#utility.yul\":2473:2490   */\n      add\n        /* \"#utility.yul\":2466:2513   */\n      mstore\n        /* \"#utility.yul\":2530:2608   */\n      tag_468\n        /* \"#utility.yul\":2603:2607   */\n      dup2\n        /* \"#utility.yul\":2594:2600   */\n      dup5\n        /* \"#utility.yul\":2530:2608   */\n      tag_443\n      jump\t// in\n    tag_468:\n        /* \"#utility.yul\":2522:2608   */\n      swap1\n      pop\n        /* \"#utility.yul\":2302:2615   */\n      swap3\n      swap2\n      pop\n      pop\n      jump\t// out\n        /* \"#utility.yul\":2621:3040   */\n    tag_66:\n        /* \"#utility.yul\":2787:2791   */\n      0x00\n        /* \"#utility.yul\":2825:2827   */\n      0x20\n        /* \"#utility.yul\":2814:2823   */\n      dup3\n        /* \"#utility.yul\":2810:2828   */\n      add\n        /* \"#utility.yul\":2802:2828   */\n      swap1\n      pop\n        /* \"#utility.yul\":2874:2883   */\n      dup2\n        /* \"#utility.yul\":2868:2872   */\n      dup2\n        /* \"#utility.yul\":2864:2884   */\n      sub\n        /* \"#utility.yul\":2860:2861   */\n      0x00\n        /* \"#utility.yul\":2849:2858   */\n      dup4\n        /* \"#utility.yul\":2845:2862   */\n      add\n        /* \"#utility.yul\":2838:2885   */\n      mstore\n        /* \"#utility.yul\":2902:3033   */\n      tag_470\n        /* \"#utility.yul\":3028:3032   */\n      dup2\n        /* \"#utility.yul\":2902:3033   */\n      tag_453\n      jump\t// in\n    tag_470:\n        /* \"#utility.yul\":2894:3033   */\n      swap1\n      pop\n        /* \"#utility.yul\":2621:3040   */\n      swap2\n      swap1\n      pop\n      jump\t// out\n        /* \"#utility.yul\":3046:3465   */\n    tag_63:\n        /* \"#utility.yul\":3212:3216   */\n      0x00\n        /* \"#utility.yul\":3250:3252   */\n      0x20\n        /* \"#utility.yul\":3239:3248   */\n      dup3\n        /* \"#utility.yul\":3235:3253   */\n      add\n        /* \"#utility.yul\":3227:3253   */\n      swap1\n      pop\n        /* \"#utility.yul\":3299:3308   */\n      dup2\n        /* \"#utility.yul\":3293:3297   */\n      dup2\n        /* \"#utility.yul\":3289:3309   */\n      sub\n        /* \"#utility.yul\":3285:3286   */\n      0x00\n        /* \"#utility.yul\":3274:3283   */\n      dup4\n        /* \"#utility.yul\":3270:3287   */\n      add\n        /* \"#utility.yul\":3263:3310   */\n      mstore\n        /* \"#utility.yul\":3327:3458   */\n      tag_472\n        /* \"#utility.yul\":3453:3457   */\n      dup2\n        /* \"#utility.yul\":3327:3458   */\n      tag_458\n      jump\t// in\n    tag_472:\n        /* \"#utility.yul\":3319:3458   */\n      swap1\n      pop\n        /* \"#utility.yul\":3046:3465   */\n      swap2\n      swap1\n      pop\n      jump\t// out\n        /* \"#utility.yul\":3471:3693   */\n    tag_11:\n        /* \"#utility.yul\":3564:3568   */\n      0x00\n        /* \"#utility.yul\":3602:3604   */\n      0x20\n        /* \"#utility.yul\":3591:3600   */\n      dup3\n        /* \"#utility.yul\":3587:3605   */\n      add\n        /* \"#utility.yul\":3579:3605   */\n      swap1\n      pop\n        /* \"#utility.yul\":3615:3686   */\n      tag_474\n        /* \"#utility.yul\":3683:3684   */\n      0x00\n        /* \"#utility.yul\":3672:3681   */\n      dup4\n        /* \"#utility.yul\":3668:3685   */\n      add\n        /* \"#utility.yul\":3659:3665   */\n      dup5\n        /* \"#utility.yul\":3615:3686   */\n      tag_463\n      jump\t// in\n    tag_474:\n        /* \"#utility.yul\":3471:3693   */\n      swap3\n      swap2\n      pop\n      pop\n      jump\t// out\n        /* \"#utility.yul\":3780:3879   */\n    tag_446:\n        /* \"#utility.yul\":3832:3838   */\n      0x00\n        /* \"#utility.yul\":3866:3871   */\n      dup2\n        /* \"#utility.yul\":3860:3872   */\n      mload\n        /* \"#utility.yul\":3850:3872   */\n      swap1\n      pop\n        /* \"#utility.yul\":3780:3879   */\n      swap2\n      swap1\n      pop\n      jump\t// out\n        /* \"#utility.yul\":3885:4054   */\n    tag_448:\n        /* \"#utility.yul\":3969:3980   */\n      0x00\n        /* \"#utility.yul\":4003:4009   */\n      dup3\n        /* \"#utility.yul\":3998:4001   */\n      dup3\n        /* \"#utility.yul\":3991:4010   */\n      mstore\n        /* \"#utility.yul\":4043:4047   */\n      0x20\n        /* \"#utility.yul\":4038:4041   */\n      dup3\n        /* \"#utility.yul\":4034:4048   */\n      add\n        /* \"#utility.yul\":4019:4048   */\n      swap1\n      pop\n        /* \"#utility.yul\":3885:4054   */\n      swap3\n      swap2\n      pop\n      pop\n      jump\t// out\n        /* \"#utility.yul\":4060:4365   */\n    tag_32:\n        /* \"#utility.yul\":4100:4103   */\n      0x00\n        /* \"#utility.yul\":4119:4139   */\n      tag_480\n        /* \"#utility.yul\":4137:4138   */\n      dup3\n        /* \"#utility.yul\":4119:4139   */\n      tag_466\n      jump\t// in\n    tag_480:\n        /* \"#utility.yul\":4114:4139   */\n      swap2\n      pop\n        /* \"#utility.yul\":4153:4173   */\n      tag_481\n        /* \"#utility.yul\":4171:4172   */\n      dup4\n        /* \"#utility.yul\":4153:4173   */\n      tag_466\n      jump\t// in\n    tag_481:\n        /* \"#utility.yul\":4148:4173   */\n      swap3\n      pop\n        /* \"#utility.yul\":4307:4308   */\n      dup3\n        /* \"#utility.yul\":4239:4305   */\n      0xffffffffffffffffffffffffffffffffffffffffffffffffffffffffffffffff\n        /* \"#utility.yul\":4235:4309   */\n      sub\n        /* \"#utility.yul\":4232:4233   */\n      dup3\n        /* \"#utility.yul\":4229:4310   */\n      gt\n        /* \"#utility.yul\":4226:4333   */\n      iszero\n      tag_482\n      jumpi\n        /* \"#utility.yul\":4313:4331   */\n      tag_483\n      tag_484\n      jump\t// in\n    tag_483:\n        /* \"#utility.yul\":4226:4333   */\n    tag_482:\n        /* \"#utility.yul\":4357:4358   */\n      dup3\n        /* \"#utility.yul\":4354:4355   */\n      dup3\n        /* \"#utility.yul\":4350:4359   */\n      add\n        /* \"#utility.yul\":4343:4359   */\n      swap1\n      pop\n        /* \"#utility.yul\":4060:4365   */\n      swap3\n      swap2\n      pop\n      pop\n      jump\t// out\n        /* \"#utility.yul\":4371:4608   */\n    tag_295:\n        /* \"#utility.yul\":4409:4412   */\n      0x00\n        /* \"#utility.yul\":4428:4446   */\n      tag_486\n        /* \"#utility.yul\":4444:4445   */\n      dup3\n        /* \"#utility.yul\":4428:4446   */\n      tag_487\n      jump\t// in\n    tag_486:\n        /* \"#utility.yul\":4423:4446   */\n      swap2\n      pop\n        /* \"#utility.yul\":4460:4478   */\n      tag_488\n        /* \"#utility.yul\":4476:4477   */\n      dup4\n        /* \"#utility.yul\":4460:4478   */\n      tag_487\n      jump\t// in\n    tag_488:\n        /* \"#utility.yul\":4455:4478   */\n      swap3\n      pop\n        /* \"#utility.yul\":4550:4551   */\n      dup3\n        /* \"#utility.yul\":4544:4548   */\n      0xff\n        /* \"#utility.yul\":4540:4552   */\n      sub\n        /* \"#utility.yul\":4537:4538   */\n      dup3\n        /* \"#utility.yul\":4534:4553   */\n      gt\n        /* \"#utility.yul\":4531:4576   */\n      iszero\n      tag_489\n      jumpi\n        /* \"#utility.yul\":4556:4574   */\n      tag_490\n      tag_484\n      jump\t// in\n    tag_490:\n        /* \"#utility.yul\":4531:4576   */\n    tag_489:\n        /* \"#utility.yul\":4600:4601   */\n      dup3\n        /* \"#utility.yul\":4597:4598   */\n      dup3\n        /* \"#utility.yul\":4593:4602   */\n      add\n        /* \"#utility.yul\":4586:4602   */\n      swap1\n      pop\n        /* \"#utility.yul\":4371:4608   */\n      swap3\n      swap2\n      pop\n      pop\n      jump\t// out\n        /* \"#utility.yul\":4614:4799   */\n    tag_30:\n        /* \"#utility.yul\":4654:4655   */\n      0x00\n        /* \"#utility.yul\":4671:4691   */\n      tag_492\n        /* \"#utility.yul\":4689:4690   */\n      dup3\n        /* \"#utility.yul\":4671:4691   */\n      tag_466\n      jump\t// in\n    tag_492:\n        /* \"#utility.yul\":4666:4691   */\n      swap2\n      pop\n        /* \"#utility.yul\":4705:4725   */\n      tag_493\n        /* \"#utility.yul\":4723:4724   */\n      dup4\n        /* \"#utility.yul\":4705:4725   */\n      tag_466\n      jump\t// in\n    tag_493:\n        /* \"#utility.yul\":4700:4725   */\n      swap3\n      pop\n        /* \"#utility.yul\":4744:4745   */\n      dup3\n        /* \"#utility.yul\":4734:4769   */\n      tag_494\n      jumpi\n        /* \"#utility.yul\":4749:4767   */\n      tag_495\n      tag_496\n      jump\t// in\n    tag_495:\n        /* \"#utility.yul\":4734:4769   */\n    tag_494:\n        /* \"#utility.yul\":4791:4792   */\n      dup3\n        /* \"#utility.yul\":4788:4789   */\n      dup3\n        /* \"#utility.yul\":4784:4793   */\n      div\n        /* \"#utility.yul\":4779:4793   */\n      swap1\n      pop\n        /* \"#utility.yul\":4614:4799   */\n      swap3\n      swap2\n      pop\n      pop\n      jump\t// out\n        /* \"#utility.yul\":4805:4984   */\n    tag_298:\n        /* \"#utility.yul\":4843:4844   */\n      0x00\n        /* \"#utility.yul\":4860:4878   */\n      tag_498\n        /* \"#utility.yul\":4876:4877   */\n      dup3\n        /* \"#utility.yul\":4860:4878   */\n      tag_487\n      jump\t// in\n    tag_498:\n        /* \"#utility.yul\":4855:4878   */\n      swap2\n      pop\n        /* \"#utility.yul\":4892:4910   */\n      tag_499\n        /* \"#utility.yul\":4908:4909   */\n      dup4\n        /* \"#utility.yul\":4892:4910   */\n      tag_487\n      jump\t// in\n    tag_499:\n        /* \"#utility.yul\":4887:4910   */\n      swap3\n      pop\n        /* \"#utility.yul\":4929:4930   */\n      dup3\n        /* \"#utility.yul\":4919:4954   */\n      tag_500\n      jumpi\n        /* \"#utility.yul\":4934:4952   */\n      tag_501\n      tag_496\n      jump\t// in\n    tag_501:\n        /* \"#utility.yul\":4919:4954   */\n    tag_500:\n        /* \"#utility.yul\":4976:4977   */\n      dup3\n        /* \"#utility.yul\":4973:4974   */\n      dup3\n        /* \"#utility.yul\":4969:4978   */\n      div\n        /* \"#utility.yul\":4964:4978   */\n      swap1\n      pop\n        /* \"#utility.yul\":4805:4984   */\n      swap3\n      swap2\n      pop\n      pop\n      jump\t// out\n        /* \"#utility.yul\":4990:5338   */\n    tag_28:\n        /* \"#utility.yul\":5030:5037   */\n      0x00\n        /* \"#utility.yul\":5053:5073   */\n      tag_503\n        /* \"#utility.yul\":5071:5072   */\n      dup3\n        /* \"#utility.yul\":5053:5073   */\n      tag_466\n      jump\t// in\n    tag_503:\n        /* \"#utility.yul\":5048:5073   */\n      swap2\n      pop\n        /* \"#utility.yul\":5087:5107   */\n      tag_504\n        /* \"#utility.yul\":5105:5106   */\n      dup4\n        /* \"#utility.yul\":5087:5107   */\n      tag_466\n      jump\t// in\n    tag_504:\n        /* \"#utility.yul\":5082:5107   */\n      swap3\n      pop\n        /* \"#utility.yul\":5275:5276   */\n      dup2\n        /* \"#utility.yul\":5207:5273   */\n      0xffffffffffffffffffffffffffffffffffffffffffffffffffffffffffffffff\n        /* \"#utility.yul\":5203:5277   */\n      div\n        /* \"#utility.yul\":5200:5201   */\n      dup4\n        /* \"#utility.yul\":5197:5278   */\n      gt\n        /* \"#utility.yul\":5192:5193   */\n      dup3\n        /* \"#utility.yul\":5185:5194   */\n      iszero\n        /* \"#utility.yul\":5178:5195   */\n      iszero\n        /* \"#utility.yul\":5174:5279   */\n      and\n        /* \"#utility.yul\":5171:5302   */\n      iszero\n      tag_505\n      jumpi\n        /* \"#utility.yul\":5282:5300   */\n      tag_506\n      tag_484\n      jump\t// in\n    tag_506:\n        /* \"#utility.yul\":5171:5302   */\n    tag_505:\n        /* \"#utility.yul\":5330:5331   */\n      dup3\n        /* \"#utility.yul\":5327:5328   */\n      dup3\n        /* \"#utility.yul\":5323:5332   */\n      mul\n        /* \"#utility.yul\":5312:5332   */\n      swap1\n      pop\n        /* \"#utility.yul\":4990:5338   */\n      swap3\n      swap2\n      pop\n      pop\n      jump\t// out\n        /* \"#utility.yul\":5344:5535   */\n    tag_37:\n        /* \"#utility.yul\":5384:5388   */\n      0x00\n        /* \"#utility.yul\":5404:5424   */\n      tag_508\n        /* \"#utility.yul\":5422:5423   */\n      dup3\n        /* \"#utility.yul\":5404:5424   */\n      tag_466\n      jump\t// in\n    tag_508:\n        /* \"#utility.yul\":5399:5424   */\n      swap2\n      pop\n        /* \"#utility.yul\":5438:5458   */\n      tag_509\n        /* \"#utility.yul\":5456:5457   */\n      dup4\n        /* \"#utility.yul\":5438:5458   */\n      tag_466\n      jump\t// in\n    tag_509:\n        /* \"#utility.yul\":5433:5458   */\n      swap3\n      pop\n        /* \"#utility.yul\":5477:5478   */\n      dup3\n        /* \"#utility.yul\":5474:5475   */\n      dup3\n        /* \"#utility.yul\":5471:5479   */\n      lt\n        /* \"#utility.yul\":5468:5502   */\n      iszero\n      tag_510\n      jumpi\n        /* \"#utility.yul\":5482:5500   */\n      tag_511\n      tag_484\n      jump\t// in\n    tag_511:\n        /* \"#utility.yul\":5468:5502   */\n    tag_510:\n        /* \"#utility.yul\":5527:5528   */\n      dup3\n        /* \"#utility.yul\":5524:5525   */\n      dup3\n        /* \"#utility.yul\":5520:5529   */\n      sub\n        /* \"#utility.yul\":5512:5529   */\n      swap1\n      pop\n        /* \"#utility.yul\":5344:5535   */\n      swap3\n      swap2\n      pop\n      pop\n      jump\t// out\n        /* \"#utility.yul\":5541:5726   */\n    tag_85:\n        /* \"#utility.yul\":5579:5583   */\n      0x00\n        /* \"#utility.yul\":5599:5617   */\n      tag_513\n        /* \"#utility.yul\":5615:5616   */\n      dup3\n        /* \"#utility.yul\":5599:5617   */\n      tag_487\n      jump\t// in\n    tag_513:\n        /* \"#utility.yul\":5594:5617   */\n      swap2\n      pop\n        /* \"#utility.yul\":5631:5649   */\n      tag_514\n        /* \"#utility.yul\":5647:5648   */\n      dup4\n        /* \"#utility.yul\":5631:5649   */\n      tag_487\n      jump\t// in\n    tag_514:\n        /* \"#utility.yul\":5626:5649   */\n      swap3\n      pop\n        /* \"#utility.yul\":5668:5669   */\n      dup3\n        /* \"#utility.yul\":5665:5666   */\n      dup3\n        /* \"#utility.yul\":5662:5670   */\n      lt\n        /* \"#utility.yul\":5659:5693   */\n      iszero\n      tag_515\n      jumpi\n        /* \"#utility.yul\":5673:5691   */\n      tag_516\n      tag_484\n      jump\t// in\n    tag_516:\n        /* \"#utility.yul\":5659:5693   */\n    tag_515:\n        /* \"#utility.yul\":5718:5719   */\n      dup3\n        /* \"#utility.yul\":5715:5716   */\n      dup3\n        /* \"#utility.yul\":5711:5720   */\n      sub\n        /* \"#utility.yul\":5703:5720   */\n      swap1\n      pop\n        /* \"#utility.yul\":5541:5726   */\n      swap3\n      swap2\n      pop\n      pop\n      jump\t// out\n        /* \"#utility.yul\":5732:5809   */\n    tag_466:\n        /* \"#utility.yul\":5769:5776   */\n      0x00\n        /* \"#utility.yul\":5798:5803   */\n      dup2\n        /* \"#utility.yul\":5787:5803   */\n      swap1\n      pop\n        /* \"#utility.yul\":5732:5809   */\n      swap2\n      swap1\n      pop\n      jump\t// out\n        /* \"#utility.yul\":5815:5908   */\n    tag_518:\n        /* \"#utility.yul\":5851:5858   */\n      0x00\n        /* \"#utility.yul\":5891:5901   */\n      0xffffffff\n        /* \"#utility.yul\":5884:5889   */\n      dup3\n        /* \"#utility.yul\":5880:5902   */\n      and\n        /* \"#utility.yul\":5869:5902   */\n      swap1\n      pop\n        /* \"#utility.yul\":5815:5908   */\n      swap2\n      swap1\n      pop\n      jump\t// out\n        /* \"#utility.yul\":5914:6000   */\n    tag_487:\n        /* \"#utility.yul\":5949:5956   */\n      0x00\n        /* \"#utility.yul\":5989:5993   */\n      0xff\n        /* \"#utility.yul\":5982:5987   */\n      dup3\n        /* \"#utility.yul\":5978:5994   */\n      and\n        /* \"#utility.yul\":5967:5994   */\n      swap1\n      pop\n        /* \"#utility.yul\":5914:6000   */\n      swap2\n      swap1\n      pop\n      jump\t// out\n        /* \"#utility.yul\":6006:6313   */\n    tag_450:\n        /* \"#utility.yul\":6074:6075   */\n      0x00\n        /* \"#utility.yul\":6084:6197   */\n    tag_522:\n        /* \"#utility.yul\":6098:6104   */\n      dup4\n        /* \"#utility.yul\":6095:6096   */\n      dup2\n        /* \"#utility.yul\":6092:6105   */\n      lt\n        /* \"#utility.yul\":6084:6197   */\n      iszero\n      tag_524\n      jumpi\n        /* \"#utility.yul\":6183:6184   */\n      dup1\n        /* \"#utility.yul\":6178:6181   */\n      dup3\n        /* \"#utility.yul\":6174:6185   */\n      add\n        /* \"#utility.yul\":6168:6186   */\n      mload\n        /* \"#utility.yul\":6164:6165   */\n      dup2\n        /* \"#utility.yul\":6159:6162   */\n      dup5\n        /* \"#utility.yul\":6155:6166   */\n      add\n        /* \"#utility.yul\":6148:6187   */\n      mstore\n        /* \"#utility.yul\":6120:6122   */\n      0x20\n        /* \"#utility.yul\":6117:6118   */\n      dup2\n        /* \"#utility.yul\":6113:6123   */\n      add\n        /* \"#utility.yul\":6108:6123   */\n      swap1\n      pop\n        /* \"#utility.yul\":6084:6197   */\n      jump(tag_522)\n    tag_524:\n        /* \"#utility.yul\":6215:6221   */\n      dup4\n        /* \"#utility.yul\":6212:6213   */\n      dup2\n        /* \"#utility.yul\":6209:6222   */\n      gt\n        /* \"#utility.yul\":6206:6307   */\n      iszero\n      tag_525\n      jumpi\n        /* \"#utility.yul\":6295:6296   */\n      0x00\n        /* \"#utility.yul\":6286:6292   */\n      dup5\n        /* \"#utility.yul\":6281:6284   */\n      dup5\n        /* \"#utility.yul\":6277:6293   */\n      add\n        /* \"#utility.yul\":6270:6297   */\n      mstore\n        /* \"#utility.yul\":6206:6307   */\n    tag_525:\n        /* \"#utility.yul\":6055:6313   */\n      pop\n        /* \"#utility.yul\":6006:6313   */\n      pop\n      pop\n      pop\n      jump\t// out\n        /* \"#utility.yul\":6319:6486   */\n    tag_185:\n        /* \"#utility.yul\":6356:6359   */\n      0x00\n        /* \"#utility.yul\":6379:6401   */\n      tag_527\n        /* \"#utility.yul\":6395:6400   */\n      dup3\n        /* \"#utility.yul\":6379:6401   */\n      tag_487\n      jump\t// in\n    tag_527:\n        /* \"#utility.yul\":6370:6401   */\n      swap2\n      pop\n        /* \"#utility.yul\":6423:6427   */\n      0x00\n        /* \"#utility.yul\":6416:6421   */\n      dup3\n        /* \"#utility.yul\":6413:6428   */\n      eq\n        /* \"#utility.yul\":6410:6451   */\n      iszero\n      tag_528\n      jumpi\n        /* \"#utility.yul\":6431:6449   */\n      tag_529\n      tag_484\n      jump\t// in\n    tag_529:\n        /* \"#utility.yul\":6410:6451   */\n    tag_528:\n        /* \"#utility.yul\":6478:6479   */\n      0x01\n        /* \"#utility.yul\":6471:6476   */\n      dup3\n        /* \"#utility.yul\":6467:6480   */\n      sub\n        /* \"#utility.yul\":6460:6480   */\n      swap1\n      pop\n        /* \"#utility.yul\":6319:6486   */\n      swap2\n      swap1\n      pop\n      jump\t// out\n        /* \"#utility.yul\":6492:6812   */\n    tag_55:\n        /* \"#utility.yul\":6536:6542   */\n      0x00\n        /* \"#utility.yul\":6573:6574   */\n      0x02\n        /* \"#utility.yul\":6567:6571   */\n      dup3\n        /* \"#utility.yul\":6563:6575   */\n      div\n        /* \"#utility.yul\":6553:6575   */\n      swap1\n      pop\n        /* \"#utility.yul\":6620:6621   */\n      0x01\n        /* \"#utility.yul\":6614:6618   */\n      dup3\n        /* \"#utility.yul\":6610:6622   */\n      and\n        /* \"#utility.yul\":6641:6659   */\n      dup1\n        /* \"#utility.yul\":6631:6712   */\n      tag_531\n      jumpi\n        /* \"#utility.yul\":6697:6701   */\n      0x7f\n        /* \"#utility.yul\":6689:6695   */\n      dup3\n        /* \"#utility.yul\":6685:6702   */\n      and\n        /* \"#utility.yul\":6675:6702   */\n      swap2\n      pop\n        /* \"#utility.yul\":6631:6712   */\n    tag_531:\n        /* \"#utility.yul\":6759:6761   */\n      0x20\n        /* \"#utility.yul\":6751:6757   */\n      dup3\n        /* \"#utility.yul\":6748:6762   */\n      lt\n        /* \"#utility.yul\":6728:6746   */\n      dup2\n        /* \"#utility.yul\":6725:6763   */\n      eq\n        /* \"#utility.yul\":6722:6806   */\n      iszero\n      tag_532\n      jumpi\n        /* \"#utility.yul\":6778:6796   */\n      tag_533\n      tag_534\n      jump\t// in\n    tag_533:\n        /* \"#utility.yul\":6722:6806   */\n    tag_532:\n        /* \"#utility.yul\":6543:6812   */\n      pop\n        /* \"#utility.yul\":6492:6812   */\n      swap2\n      swap1\n      pop\n      jump\t// out\n        /* \"#utility.yul\":6818:6994   */\n    tag_190:\n        /* \"#utility.yul\":6850:6851   */\n      0x00\n        /* \"#utility.yul\":6867:6887   */\n      tag_536\n        /* \"#utility.yul\":6885:6886   */\n      dup3\n        /* \"#utility.yul\":6867:6887   */\n      tag_466\n      jump\t// in\n    tag_536:\n        /* \"#utility.yul\":6862:6887   */\n      swap2\n      pop\n        /* \"#utility.yul\":6901:6921   */\n      tag_537\n        /* \"#utility.yul\":6919:6920   */\n      dup4\n        /* \"#utility.yul\":6901:6921   */\n      tag_466\n      jump\t// in\n    tag_537:\n        /* \"#utility.yul\":6896:6921   */\n      swap3\n      pop\n        /* \"#utility.yul\":6940:6941   */\n      dup3\n        /* \"#utility.yul\":6930:6965   */\n      tag_538\n      jumpi\n        /* \"#utility.yul\":6945:6963   */\n      tag_539\n      tag_496\n      jump\t// in\n    tag_539:\n        /* \"#utility.yul\":6930:6965   */\n    tag_538:\n        /* \"#utility.yul\":6986:6987   */\n      dup3\n        /* \"#utility.yul\":6983:6984   */\n      dup3\n        /* \"#utility.yul\":6979:6988   */\n      mod\n        /* \"#utility.yul\":6974:6988   */\n      swap1\n      pop\n        /* \"#utility.yul\":6818:6994   */\n      swap3\n      swap2\n      pop\n      pop\n      jump\t// out\n        /* \"#utility.yul\":7000:7180   */\n    tag_315:\n        /* \"#utility.yul\":7048:7125   */\n      0x4e487b7100000000000000000000000000000000000000000000000000000000\n        /* \"#utility.yul\":7045:7046   */\n      0x00\n        /* \"#utility.yul\":7038:7126   */\n      mstore\n        /* \"#utility.yul\":7145:7149   */\n      0x01\n        /* \"#utility.yul\":7142:7143   */\n      0x04\n        /* \"#utility.yul\":7135:7150   */\n      mstore\n        /* \"#utility.yul\":7169:7173   */\n      0x24\n        /* \"#utility.yul\":7166:7167   */\n      0x00\n        /* \"#utility.yul\":7159:7174   */\n      revert\n        /* \"#utility.yul\":7186:7366   */\n    tag_484:\n        /* \"#utility.yul\":7234:7311   */\n      0x4e487b7100000000000000000000000000000000000000000000000000000000\n        /* \"#utility.yul\":7231:7232   */\n      0x00\n        /* \"#utility.yul\":7224:7312   */\n      mstore\n        /* \"#utility.yul\":7331:7335   */\n      0x11\n        /* \"#utility.yul\":7328:7329   */\n      0x04\n        /* \"#utility.yul\":7321:7336   */\n      mstore\n        /* \"#utility.yul\":7355:7359   */\n      0x24\n        /* \"#utility.yul\":7352:7353   */\n      0x00\n        /* \"#utility.yul\":7345:7360   */\n      revert\n        /* \"#utility.yul\":7372:7552   */\n    tag_496:\n        /* \"#utility.yul\":7420:7497   */\n      0x4e487b7100000000000000000000000000000000000000000000000000000000\n        /* \"#utility.yul\":7417:7418   */\n      0x00\n        /* \"#utility.yul\":7410:7498   */\n      mstore\n        /* \"#utility.yul\":7517:7521   */\n      0x12\n        /* \"#utility.yul\":7514:7515   */\n      0x04\n        /* \"#utility.yul\":7507:7522   */\n      mstore\n        /* \"#utility.yul\":7541:7545   */\n      0x24\n        /* \"#utility.yul\":7538:7539   */\n      0x00\n        /* \"#utility.yul\":7531:7546   */\n      revert\n        /* \"#utility.yul\":7558:7738   */\n    tag_534:\n        /* \"#utility.yul\":7606:7683   */\n      0x4e487b7100000000000000000000000000000000000000000000000000000000\n        /* \"#utility.yul\":7603:7604   */\n      0x00\n        /* \"#utility.yul\":7596:7684   */\n      mstore\n        /* \"#utility.yul\":7703:7707   */\n      0x22\n        /* \"#utility.yul\":7700:7701   */\n      0x04\n        /* \"#utility.yul\":7693:7708   */\n      mstore\n        /* \"#utility.yul\":7727:7731   */\n      0x24\n        /* \"#utility.yul\":7724:7725   */\n      0x00\n        /* \"#utility.yul\":7717:7732   */\n      revert\n        /* \"#utility.yul\":7744:7924   */\n    tag_301:\n        /* \"#utility.yul\":7792:7869   */\n      0x4e487b7100000000000000000000000000000000000000000000000000000000\n        /* \"#utility.yul\":7789:7790   */\n      0x00\n        /* \"#utility.yul\":7782:7870   */\n      mstore\n        /* \"#utility.yul\":7889:7893   */\n      0x32\n        /* \"#utility.yul\":7886:7887   */\n      0x04\n        /* \"#utility.yul\":7879:7894   */\n      mstore\n        /* \"#utility.yul\":7913:7917   */\n      0x24\n        /* \"#utility.yul\":7910:7911   */\n      0x00\n        /* \"#utility.yul\":7903:7918   */\n      revert\n        /* \"#utility.yul\":8053:8170   */\n    tag_438:\n        /* \"#utility.yul\":8162:8163   */\n      0x00\n        /* \"#utility.yul\":8159:8160   */\n      dup1\n        /* \"#utility.yul\":8152:8164   */\n      revert\n        /* \"#utility.yul\":8176:8278   */\n    tag_452:\n        /* \"#utility.yul\":8217:8223   */\n      0x00\n        /* \"#utility.yul\":8268:8270   */\n      0x1f\n        /* \"#utility.yul\":8264:8271   */\n      not\n        /* \"#utility.yul\":8259:8261   */\n      0x1f\n        /* \"#utility.yul\":8252:8257   */\n      dup4\n        /* \"#utility.yul\":8248:8262   */\n      add\n        /* \"#utility.yul\":8244:8272   */\n      and\n        /* \"#utility.yul\":8234:8272   */\n      swap1\n      pop\n        /* \"#utility.yul\":8176:8278   */\n      swap2\n      swap1\n      pop\n      jump\t// out\n        /* \"#utility.yul\":8284:8462   */\n    tag_457:\n        /* \"#utility.yul\":8424:8454   */\n      0x4261736573203c203120617265206e6f7420737570706f727465642e00000000\n        /* \"#utility.yul\":8420:8421   */\n      0x00\n        /* \"#utility.yul\":8412:8418   */\n      dup3\n        /* \"#utility.yul\":8408:8422   */\n      add\n        /* \"#utility.yul\":8401:8455   */\n      mstore\n        /* \"#utility.yul\":8284:8462   */\n      pop\n      jump\t// out\n        /* \"#utility.yul\":8468:8642   */\n    tag_462:\n        /* \"#utility.yul\":8608:8634   */\n      0x626173654e2065786365656473206d61782076616c75652e0000000000000000\n        /* \"#utility.yul\":8604:8605   */\n      0x00\n        /* \"#utility.yul\":8596:8602   */\n      dup3\n        /* \"#utility.yul\":8592:8606   */\n      add\n        /* \"#utility.yul\":8585:8635   */\n      mstore\n        /* \"#utility.yul\":8468:8642   */\n      pop\n      jump\t// out\n        /* \"#utility.yul\":8648:8770   */\n    tag_430:\n        /* \"#utility.yul\":8721:8745   */\n      tag_552\n        /* \"#utility.yul\":8739:8744   */\n      dup2\n        /* \"#utility.yul\":8721:8745   */\n      tag_466\n      jump\t// in\n    tag_552:\n        /* \"#utility.yul\":8714:8719   */\n      dup2\n        /* \"#utility.yul\":8711:8746   */\n      eq\n        /* \"#utility.yul\":8701:8764   */\n      tag_553\n      jumpi\n        /* \"#utility.yul\":8760:8761   */\n      0x00\n        /* \"#utility.yul\":8757:8758   */\n      dup1\n        /* \"#utility.yul\":8750:8762   */\n      revert\n        /* \"#utility.yul\":8701:8764   */\n    tag_553:\n        /* \"#utility.yul\":8648:8770   */\n      pop\n      jump\t// out\n        /* \"#utility.yul\":8776:8896   */\n    tag_434:\n        /* \"#utility.yul\":8848:8871   */\n      tag_555\n        /* \"#utility.yul\":8865:8870   */\n      dup2\n        /* \"#utility.yul\":8848:8871   */\n      tag_518\n      jump\t// in\n    tag_555:\n        /* \"#utility.yul\":8841:8846   */\n      dup2\n        /* \"#utility.yul\":8838:8872   */\n      eq\n        /* \"#utility.yul\":8828:8890   */\n      tag_556\n      jumpi\n        /* \"#utility.yul\":8886:8887   */\n      0x00\n        /* \"#utility.yul\":8883:8884   */\n      dup1\n        /* \"#utility.yul\":8876:8888   */\n      revert\n        /* \"#utility.yul\":8828:8890   */\n    tag_556:\n        /* \"#utility.yul\":8776:8896   */\n      pop\n      jump\t// out\n\n    auxdata: 0xa2646970667358221220e46e9d85c17b7ecd30cbc24c6bb1700f1057226f20bd4d861561b70f818ea5e364736f6c63430008070033\n}\n",
				"bytecode": {
					"linkReferences": {},
					"object": "60806040526040518060400160405280600381526020017f302e3300000000000000000000000000000000000000000000000000000000008152506000908051906020019062000051929190620011f6565b503480156200005f57600080fd5b50701c35fedd14ffffffffffffffffffffffff60016020608081106200008a57620000896200130b565b5b0181905550701b0ce43b323fffffffffffffffffffffff6001602160808110620000b957620000b86200130b565b5b01819055507019f0028ec1ffffffffffffffffffffffff6001602260808110620000e857620000e76200130b565b5b01819055507018ded91f0e7fffffffffffffffffffffff60016023608081106200011757620001166200130b565b5b01819055507017d8ec7f0417ffffffffffffffffffffff60016024608081106200014657620001456200130b565b5b01819055507016ddc6556cdbffffffffffffffffffffff60016025608081106200017557620001746200130b565b5b01819055507015ecf52776a1ffffffffffffffffffffff6001602660808110620001a457620001a36200130b565b5b01819055507015060c256cb2ffffffffffffffffffffff6001602760808110620001d357620001d26200130b565b5b0181905550701428a2f98d72ffffffffffffffffffffff60016028608081106200020257620002016200130b565b5b01819055507013545598e5c23fffffffffffffffffffff60016029608081106200023157620002306200130b565b5b0181905550701288c4161ce1dfffffffffffffffffffff6001602a6080811062000260576200025f6200130b565b5b01819055507011c592761c666fffffffffffffffffffff6001602b608081106200028f576200028e6200130b565b5b018190555070110a688680a757ffffffffffffffffffff6001602c60808110620002be57620002bd6200130b565b5b0181905550701056f1b5bedf77ffffffffffffffffffff6001602d60808110620002ed57620002ec6200130b565b5b0181905550700faadceceeff8bffffffffffffffffffff6001602e608081106200031c576200031b6200130b565b5b0181905550700f05dc6b27edadffffffffffffffffffff6001602f608081106200034b576200034a6200130b565b5b0181905550700e67a5a25da4107fffffffffffffffffff60016030608081106200037a57620003796200130b565b5b0181905550700dcff115b14eedffffffffffffffffffff6001603160808110620003a957620003a86200130b565b5b0181905550700d3e7a392431239fffffffffffffffffff6001603260808110620003d857620003d76200130b565b5b0181905550700cb2ff529eb71e4fffffffffffffffffff60016033608081106200040757620004066200130b565b5b0181905550700c2d415c3db974afffffffffffffffffff60016034608081106200043657620004356200130b565b5b0181905550700bad03e7d883f69bffffffffffffffffff60016035608081106200046557620004646200130b565b5b0181905550700b320d03b2c343d5ffffffffffffffffff60016036608081106200049457620004936200130b565b5b0181905550700abc25204e02828dffffffffffffffffff6001603760808110620004c357620004c26200130b565b5b0181905550700a4b16f74ee4bb207fffffffffffffffff6001603860808110620004f257620004f16200130b565b5b01819055507009deaf736ac1f569ffffffffffffffffff60016039608081106200052157620005206200130b565b5b0181905550700976bd9952c7aa957fffffffffffffffff6001603a6080811062000550576200054f6200130b565b5b01819055507009131271922eaa606fffffffffffffffff6001603b608081106200057f576200057e6200130b565b5b01819055507008b380f3558668c46fffffffffffffffff6001603c60808110620005ae57620005ad6200130b565b5b0181905550700857ddf0117efa215bffffffffffffffff6001603d60808110620005dd57620005dc6200130b565b5b01819055507007ffffffffffffffffffffffffffffffff6001603e608081106200060c576200060b6200130b565b5b01819055507007abbf6f6abb9d087fffffffffffffffff6001603f608081106200063b576200063a6200130b565b5b018190555070075af62cbac95f7dfa7fffffffffffffff60016040608081106200066a57620006696200130b565b5b018190555070070d7fb7452e187ac13fffffffffffffff60016041608081106200069957620006986200130b565b5b01819055507006c3390ecc8af379295fffffffffffffff6001604260808110620006c857620006c76200130b565b5b018190555070067c00a3b07ffc01fd6fffffffffffffff6001604360808110620006f757620006f66200130b565b5b0181905550700637b647c39cbb9d3d27ffffffffffffff60016044608081106200072657620007256200130b565b5b01819055507005f63b1fc104dbd39587ffffffffffffff60016045608081106200075557620007546200130b565b5b01819055507005b771955b36e12f7235ffffffffffffff60016046608081106200078457620007836200130b565b5b018190555070057b3d49dda84556d6f6ffffffffffffff6001604760808110620007b357620007b26200130b565b5b018190555070054183095b2c8ececf30ffffffffffffff6001604860808110620007e257620007e16200130b565b5b018190555070050a28be635ca2b888f77fffffffffffff60016049608081106200081157620008106200130b565b5b01819055507004d5156639708c9db33c3fffffffffffff6001604a6080811062000840576200083f6200130b565b5b01819055507004a23105873875bd52dfdfffffffffffff6001604b608081106200086f576200086e6200130b565b5b0181905550700471649d87199aa990756fffffffffffff6001604c608081106200089e576200089d6200130b565b5b01819055507004429a21a029d4c1457cfbffffffffffff6001604d60808110620008cd57620008cc6200130b565b5b0181905550700415bc6d6fb7dd71af2cb3ffffffffffff6001604e60808110620008fc57620008fb6200130b565b5b01819055507003eab73b3bbfe282243ce1ffffffffffff6001604f608081106200092b576200092a6200130b565b5b01819055507003c1771ac9fb6b4c18e229ffffffffffff60016050608081106200095a57620009596200130b565b5b0181905550700399e96897690418f785257fffffffffff60016051608081106200098957620009886200130b565b5b0181905550700373fc456c53bb779bf0ea9fffffffffff6001605260808110620009b857620009b76200130b565b5b018190555070034f9e8e490c48e67e6ab8bfffffffffff6001605360808110620009e757620009e66200130b565b5b018190555070032cbfd4a7adc790560b3337ffffffffff600160546080811062000a165762000a156200130b565b5b018190555070030b50570f6e5d2acca94613ffffffffff600160556080811062000a455762000a446200130b565b5b01819055507002eb40f9f620fda6b56c2861ffffffffff600160566080811062000a745762000a736200130b565b5b01819055507002cc8340ecb0d0f520a6af58ffffffffff600160576080811062000aa35762000aa26200130b565b5b01819055507002af09481380a0a35cf1ba02ffffffffff600160586080811062000ad25762000ad16200130b565b5b0181905550700292c5bdd3b92ec810287b1b3fffffffff600160596080811062000b015762000b006200130b565b5b0181905550700277abdcdab07d5a77ac6d6b9fffffffff6001605a6080811062000b305762000b2f6200130b565b5b018190555070025daf6654b1eaa55fd64df5efffffffff6001605b6080811062000b5f5762000b5e6200130b565b5b0181905550700244c49c648baa98192dce88b7ffffffff6001605c6080811062000b8e5762000b8d6200130b565b5b018190555070022ce03cd5619a311b2471268bffffffff6001605d6080811062000bbd5762000bbc6200130b565b5b0181905550700215f77c045fbe885654a44a0fffffffff6001605e6080811062000bec5762000beb6200130b565b5b01819055507001ffffffffffffffffffffffffffffffff6001605f6080811062000c1b5762000c1a6200130b565b5b01819055507001eaefdbdaaee7421fc4d3ede5ffffffff600160606080811062000c4a5762000c496200130b565b5b01819055507001d6bd8b2eb257df7e8ca57b09bfffffff600160616080811062000c795762000c786200130b565b5b01819055507001c35fedd14b861eb0443f7f133fffffff600160626080811062000ca85762000ca76200130b565b5b01819055507001b0ce43b322bcde4a56e8ada5afffffff600160636080811062000cd75762000cd66200130b565b5b018190555070019f0028ec1fff007f5a195a39dfffffff600160646080811062000d065762000d056200130b565b5b018190555070018ded91f0e72ee74f49b15ba527ffffff600160656080811062000d355762000d346200130b565b5b018190555070017d8ec7f04136f4e5615fd41a63ffffff600160666080811062000d645762000d636200130b565b5b018190555070016ddc6556cdb84bdc8d12d22e6fffffff600160676080811062000d935762000d926200130b565b5b018190555070015ecf52776a1155b5bd8395814f7fffff600160686080811062000dc25762000dc16200130b565b5b018190555070015060c256cb23b3b3cc3754cf40ffffff600160696080811062000df15762000df06200130b565b5b01819055507001428a2f98d728ae223ddab715be3fffff6001606a6080811062000e205762000e1f6200130b565b5b018190555070013545598e5c23276ccf0ede68034fffff6001606b6080811062000e4f5762000e4e6200130b565b5b01819055507001288c4161ce1d6f54b7f61081194fffff6001606c6080811062000e7e5762000e7d6200130b565b5b018190555070011c592761c666aa641d5a01a40f17ffff6001606d6080811062000ead5762000eac6200130b565b5b0181905550700110a688680a7530515f3e6e6cfdcdffff6001606e6080811062000edc5762000edb6200130b565b5b01819055507001056f1b5bedf75c6bcb2ce8aed428ffff6001606f6080811062000f0b5762000f0a6200130b565b5b01819055506ffaadceceeff8a0890f3875f008277fff600160706080811062000f395762000f386200130b565b5b01819055506ff05dc6b27edad306388a600f6ba0bfff600160716080811062000f675762000f666200130b565b5b01819055506fe67a5a25da41063de1495d5b18cdbfff600160726080811062000f955762000f946200130b565b5b01819055506fdcff115b14eedde6fc3aa5353f2e4fff600160736080811062000fc35762000fc26200130b565b5b01819055506fd3e7a3924312399f9aae2e0f868f8fff600160746080811062000ff15762000ff06200130b565b5b01819055506fcb2ff529eb71e41582cccd5a1ee26fff60016075608081106200101f576200101e6200130b565b5b01819055506fc2d415c3db974ab32a51840c0b67edff60016076608081106200104d576200104c6200130b565b5b01819055506fbad03e7d883f69ad5b0a186184e06bff60016077608081106200107b576200107a6200130b565b5b01819055506fb320d03b2c343d4829abd6075f0cc5ff6001607860808110620010a957620010a86200130b565b5b01819055506fabc25204e02828d73c6e80bcdb1a95bf6001607960808110620010d757620010d66200130b565b5b01819055506fa4b16f74ee4bb2040a1ec6c15fbbf2df6001607a608081106200110557620011046200130b565b5b01819055506f9deaf736ac1f569deb1b5ae3f36c130f6001607b608081106200113357620011326200130b565b5b01819055506f976bd9952c7aa957f5937d790ef650376001607c608081106200116157620011606200130b565b5b01819055506f9131271922eaa6064b73a22d0bd4f2bf6001607d608081106200118f576200118e6200130b565b5b01819055506f8b380f3558668c46c91c49a2f8e967b96001607e60808110620011bd57620011bc6200130b565b5b01819055506f857ddf0117efa215952912839f6473e66001607f60808110620011eb57620011ea6200130b565b5b01819055506200133a565b8280546200120490620012a6565b90600052602060002090601f01602090048101928262001228576000855562001274565b82601f106200124357805160ff191683800117855562001274565b8280016001018555821562001274579182015b828111156200127357825182559160200191906001019062001256565b5b50905062001283919062001287565b5090565b5b80821115620012a257600081600090555060010162001288565b5090565b60006002820490506001821680620012bf57607f821691505b60208210811415620012d657620012d5620012dc565b5b50919050565b7f4e487b7100000000000000000000000000000000000000000000000000000000600052602260045260246000fd5b7f4e487b7100000000000000000000000000000000000000000000000000000000600052603260045260246000fd5b61243e806200134a6000396000f3fe608060405234801561001057600080fd5b50600436106100415760003560e01c806329a00e7c1461004657806349f9b0f71461007657806354fd4d50146100a6575b600080fd5b610060600480360381019061005b9190611e61565b6100c4565b60405161006d9190611fb8565b60405180910390f35b610090600480360381019061008b9190611e61565b6101ad565b60405161009d9190611fb8565b60405180910390f35b6100ae6102c3565b6040516100bb9190611f56565b60405180910390f35b600080851180156100d55750600084115b80156100e7575060008363ffffffff16115b80156101025750620f424063ffffffff168363ffffffff1611155b61010b57600080fd5b600082141561011d57600090506101a5565b620f424063ffffffff168363ffffffff1614156101525783828661014191906120de565b61014b919061207c565b90506101a5565b600080600086856101639190611fef565b9050610174818888620f4240610351565b809350819450505060008260ff16848a61018e91906120de565b901c9050888161019e9190612138565b9450505050505b949350505050565b600080851180156101be5750600084115b80156101d0575060008363ffffffff16115b80156101eb5750620f424063ffffffff168363ffffffff1611155b80156101f75750848211155b61020057600080fd5b600082141561021257600090506102bb565b84821415610222578390506102bb565b620f424063ffffffff168363ffffffff1614156102575784828561024691906120de565b610250919061207c565b90506102bb565b600080600084886102689190612138565b90506102798882620f424089610351565b80935081945050506000838861028f91906120de565b905060008360ff1689901b90508481836102a99190612138565b6102b3919061207c565b955050505050505b949350505050565b600080546102d090612224565b80601f01602080910402602001604051908101604052809291908181526020018280546102fc90612224565b80156103495780601f1061031e57610100808354040283529160200191610349565b820191906000526020600020905b81548152906001019060200180831161032c57829003601f168201915b505050505081565b60008070020000000000000000000000000000000086106103a7576040517f08c379a000000000000000000000000000000000000000000000000000000000815260040161039e90611f98565b60405180910390fd5b848610156103ea576040517f08c379a00000000000000000000000000000000000000000000000000000000081526004016103e190611f78565b60405180910390fd5b600080866f800000000000000000000000000000008961040a91906120de565b610414919061207c565b905070015bf0a8b1457695355fb8ac404e7a79e381101561043f57610438816104de565b915061044b565b61044881610c57565b91505b60008563ffffffff168763ffffffff168461046691906120de565b610470919061207c565b90507008000000000000000000000000000000008110156104a25761049481610db7565b607f945094505050506104d5565b60006104ad826115bb565b90506104cb81607f6104bf919061216c565b60ff1683901c8261169d565b8195509550505050505b94509492505050565b6000806000905060008060006fd3094c70f034de4b96ff7d5b6f99fcd88610610559576f400000000000000000000000000000008461051d9190611fef565b93506fd3094c70f034de4b96ff7d5b6f99fcd86f800000000000000000000000000000008761054c91906120de565b610556919061207c565b95505b6fa45af1e1f40c333b3de1db4dd55f29a786106105c8576f200000000000000000000000000000008461058c9190611fef565b93506fa45af1e1f40c333b3de1db4dd55f29a76f80000000000000000000000000000000876105bb91906120de565b6105c5919061207c565b95505b6f910b022db7ae67ce76b441c27035c6a18610610637576f10000000000000000000000000000000846105fb9190611fef565b93506f910b022db7ae67ce76b441c27035c6a16f800000000000000000000000000000008761062a91906120de565b610634919061207c565b95505b6f88415abbe9a76bead8d00cf112e4d4a886106106a6576f080000000000000000000000000000008461066a9190611fef565b93506f88415abbe9a76bead8d00cf112e4d4a86f800000000000000000000000000000008761069991906120de565b6106a3919061207c565b95505b6f84102b00893f64c705e841d5d4064bd38610610715576f04000000000000000000000000000000846106d99190611fef565b93506f84102b00893f64c705e841d5d4064bd36f800000000000000000000000000000008761070891906120de565b610712919061207c565b95505b6f8204055aaef1c8bd5c3259f4822735a28610610784576f02000000000000000000000000000000846107489190611fef565b93506f8204055aaef1c8bd5c3259f4822735a26f800000000000000000000000000000008761077791906120de565b610781919061207c565b95505b6f810100ab00222d861931c15e39b44e9986106107f3576f01000000000000000000000000000000846107b79190611fef565b93506f810100ab00222d861931c15e39b44e996f80000000000000000000000000000000876107e691906120de565b6107f0919061207c565b95505b6f808040155aabbbe9451521693554f7338610610861576e800000000000000000000000000000846108259190611fef565b93506f808040155aabbbe9451521693554f7336f800000000000000000000000000000008761085491906120de565b61085e919061207c565b95505b6f800000000000000000000000000000008661087d9190612138565b92508291506f80000000000000000000000000000000838461089f91906120de565b6108a9919061207c565b9050700100000000000000000000000000000000837001000000000000000000000000000000006108da9190612138565b836108e591906120de565b6108ef919061207c565b846108fa9190611fef565b93506f80000000000000000000000000000000818361091991906120de565b610923919061207c565b9150700200000000000000000000000000000000836faaaaaaaaaaaaaaaaaaaaaaaaaaaaaaaa6109539190612138565b8361095e91906120de565b610968919061207c565b846109739190611fef565b93506f80000000000000000000000000000000818361099291906120de565b61099c919061207c565b9150700300000000000000000000000000000000836f999999999999999999999999999999996109cc9190612138565b836109d791906120de565b6109e1919061207c565b846109ec9190611fef565b93506f800000000000000000000000000000008183610a0b91906120de565b610a15919061207c565b9150700400000000000000000000000000000000836f92492492492492492492492492492492610a459190612138565b83610a5091906120de565b610a5a919061207c565b84610a659190611fef565b93506f800000000000000000000000000000008183610a8491906120de565b610a8e919061207c565b9150700500000000000000000000000000000000836f8e38e38e38e38e38e38e38e38e38e38e610abe9190612138565b83610ac991906120de565b610ad3919061207c565b84610ade9190611fef565b93506f800000000000000000000000000000008183610afd91906120de565b610b07919061207c565b9150700600000000000000000000000000000000836f8ba2e8ba2e8ba2e8ba2e8ba2e8ba2e8b610b379190612138565b83610b4291906120de565b610b4c919061207c565b84610b579190611fef565b93506f800000000000000000000000000000008183610b7691906120de565b610b80919061207c565b9150700700000000000000000000000000000000836f89d89d89d89d89d89d89d89d89d89d89610bb09190612138565b83610bbb91906120de565b610bc5919061207c565b84610bd09190611fef565b93506f800000000000000000000000000000008183610bef91906120de565b610bf9919061207c565b9150700800000000000000000000000000000000836f88888888888888888888888888888888610c299190612138565b83610c3491906120de565b610c3e919061207c565b84610c499190611fef565b935083945050505050919050565b6000806000905060008390507001000000000000000000000000000000008110610ccf576000610ca16f8000000000000000000000000000000083610c9c919061207c565b611dac565b90508060ff1682901c91506f800000000000000000000000000000008160ff16610ccb91906120de565b9250505b6f80000000000000000000000000000000811115610d77576000607f90505b60008160ff161115610d75576f800000000000000000000000000000008283610d1791906120de565b610d21919061207c565b91507001000000000000000000000000000000008210610d6457600182901c9150600181610d4f919061216c565b60ff166001901b83610d619190611fef565b92505b80610d6e906121fa565b9050610cee565b505b6f05b9de1d10bf4103d647b0955897ba806f03f80fe03f80fe03f80fe03f80fe03f883610da491906120de565b610dae919061207c565b92505050919050565b600080600090506000806f1000000000000000000000000000000085610ddd9190612256565b91508190506f800000000000000000000000000000008282610dff91906120de565b610e09919061207c565b90506710e1b3be415a000081610e1f91906120de565b83610e2a9190611fef565b92506f800000000000000000000000000000008282610e4991906120de565b610e53919061207c565b90506705a0913f6b1e000081610e6991906120de565b83610e749190611fef565b92506f800000000000000000000000000000008282610e9391906120de565b610e9d919061207c565b9050670168244fdac7800081610eb391906120de565b83610ebe9190611fef565b92506f800000000000000000000000000000008282610edd91906120de565b610ee7919061207c565b9050664807432bc1800081610efc91906120de565b83610f079190611fef565b92506f800000000000000000000000000000008282610f2691906120de565b610f30919061207c565b9050660c0135dca0400081610f4591906120de565b83610f509190611fef565b92506f800000000000000000000000000000008282610f6f91906120de565b610f79919061207c565b90506601b707b1cdc00081610f8e91906120de565b83610f999190611fef565b92506f800000000000000000000000000000008282610fb891906120de565b610fc2919061207c565b90506536e0f639b80081610fd691906120de565b83610fe19190611fef565b92506f80000000000000000000000000000000828261100091906120de565b61100a919061207c565b9050650618fee9f8008161101e91906120de565b836110299190611fef565b92506f80000000000000000000000000000000828261104891906120de565b611052919061207c565b9050649c197dcc008161106591906120de565b836110709190611fef565b92506f80000000000000000000000000000000828261108f91906120de565b611099919061207c565b9050640e30dce400816110ac91906120de565b836110b79190611fef565b92506f8000000000000000000000000000000082826110d691906120de565b6110e0919061207c565b905064012ebd1300816110f391906120de565b836110fe9190611fef565b92506f80000000000000000000000000000000828261111d91906120de565b611127919061207c565b90506317499f008161113991906120de565b836111449190611fef565b92506f80000000000000000000000000000000828261116391906120de565b61116d919061207c565b90506301a9d4808161117f91906120de565b8361118a9190611fef565b92506f8000000000000000000000000000000082826111a991906120de565b6111b3919061207c565b9050621c6380816111c491906120de565b836111cf9190611fef565b92506f8000000000000000000000000000000082826111ee91906120de565b6111f8919061207c565b90506201c6388161120991906120de565b836112149190611fef565b92506f80000000000000000000000000000000828261123391906120de565b61123d919061207c565b9050611ab88161124d91906120de565b836112589190611fef565b92506f80000000000000000000000000000000828261127791906120de565b611281919061207c565b905061017c8161129191906120de565b8361129c9190611fef565b92506f8000000000000000000000000000000082826112bb91906120de565b6112c5919061207c565b90506014816112d491906120de565b836112df9190611fef565b92506f8000000000000000000000000000000082826112fe91906120de565b611308919061207c565b905060018161131791906120de565b836113229190611fef565b92506f80000000000000000000000000000000826721c3677c82b400008561134a919061207c565b6113549190611fef565b61135e9190611fef565b925060006f100000000000000000000000000000008616146113b65770018ebef9eac820ae8682b9793ac6d1e7767001c3d6a24ed82218787d624d3e5eba95f9846113a991906120de565b6113b3919061207c565b92505b60006f2000000000000000000000000000000086161461140c577001368b2fc6f9609fe7aceb46aa619baed470018ebef9eac820ae8682b9793ac6d1e778846113ff91906120de565b611409919061207c565b92505b60006f40000000000000000000000000000000861614611461576fbc5ab1b16779be3575bd8f0520a9f21f7001368b2fc6f9609fe7aceb46aa619baed58461145491906120de565b61145e919061207c565b92505b60006f800000000000000000000000000000008616146114b5576f454aaa8efe072e7f6ddbab84b40a55c96fbc5ab1b16779be3575bd8f0520a9f21e846114a891906120de565b6114b2919061207c565b92505b600070010000000000000000000000000000000086161461150a576f0960aadc109e7a3bf4578099615711ea6f454aaa8efe072e7f6ddbab84b40a55c5846114fd91906120de565b611507919061207c565b92505b600070020000000000000000000000000000000086161461155e576e2bf84208204f5977f9a8cf01fdce3d6f0960aadc109e7a3bf4578099615711d78461155191906120de565b61155b919061207c565b92505b60007004000000000000000000000000000000008616146115b0576d03c6ab775dd0b95b4cbee7e65d116e2bf84208204f5977f9a8cf01fdc307846115a391906120de565b6115ad919061207c565b92505b829350505050919050565b600080602090506000607f90505b8060ff166001836115da9190612045565b60ff161015611630576000600282846115f39190612045565b6115fd91906120ad565b90508460018260ff166080811061161757611616612343565b5b0154106116265780925061162a565b8091505b506115c9565b8360018260ff166080811061164857611647612343565b5b015410611659578092505050611698565b8360018360ff166080811061167157611670612343565b5b015410611682578192505050611698565b600061169157611690612287565b5b6000925050505b919050565b60008083905060008360ff1685836116b591906120de565b901c91506f03442c4e6074a82f1797f72ac0000000826116d591906120de565b816116e09190611fef565b90508360ff1685836116f291906120de565b901c91506f0116b96f757c380fb287fd0e400000008261171291906120de565b8161171d9190611fef565b90508360ff16858361172f91906120de565b901c91506e45ae5bdd5f0e03eca1ff43900000008261174e91906120de565b816117599190611fef565b90508360ff16858361176b91906120de565b901c91506e0defabf91302cd95b9ffda500000008261178a91906120de565b816117959190611fef565b90508360ff1685836117a791906120de565b901c91506e02529ca9832b22439efff9b8000000826117c691906120de565b816117d19190611fef565b90508360ff1685836117e391906120de565b901c91506d54f1cf12bd04e516b6da880000008261180191906120de565b8161180c9190611fef565b90508360ff16858361181e91906120de565b901c91506d0a9e39e257a09ca2d6db510000008261183c91906120de565b816118479190611fef565b90508360ff16858361185991906120de565b901c91506d012e066e7b839fa050c3090000008261187791906120de565b816118829190611fef565b90508360ff16858361189491906120de565b901c91506c1e33d7d926c329a1ad1a800000826118b191906120de565b816118bc9190611fef565b90508360ff1685836118ce91906120de565b901c91506c02bee513bdb4a6b19b5f800000826118eb91906120de565b816118f69190611fef565b90508360ff16858361190891906120de565b901c91506b3a9316fa79b88eccf2a000008261192491906120de565b8161192f9190611fef565b90508360ff16858361194191906120de565b901c91506b048177ebe1fa8123752000008261195d91906120de565b816119689190611fef565b90508360ff16858361197a91906120de565b901c91506a5263fe90242dcbacf000008261199591906120de565b816119a09190611fef565b90508360ff1685836119b291906120de565b901c91506a057e22099c030d94100000826119cd91906120de565b816119d89190611fef565b90508360ff1685836119ea91906120de565b901c91506957e22099c030d941000082611a0491906120de565b81611a0f9190611fef565b90508360ff168583611a2191906120de565b901c915069052b6b5456997631000082611a3b91906120de565b81611a469190611fef565b90508360ff168583611a5891906120de565b901c9150684985f67696bf74800082611a7191906120de565b81611a7c9190611fef565b90508360ff168583611a8e91906120de565b901c91506803dea12ea99e49800082611aa791906120de565b81611ab29190611fef565b90508360ff168583611ac491906120de565b901c91506731880f2214b6e00082611adc91906120de565b81611ae79190611fef565b90508360ff168583611af991906120de565b901c915067025bcff56eb3600082611b1191906120de565b81611b1c9190611fef565b90508360ff168583611b2e91906120de565b901c9150661b722e10ab100082611b4591906120de565b81611b509190611fef565b90508360ff168583611b6291906120de565b901c91506601317c7007700082611b7991906120de565b81611b849190611fef565b90508360ff168583611b9691906120de565b901c9150650cba84aafa0082611bac91906120de565b81611bb79190611fef565b90508360ff168583611bc991906120de565b901c91506482573a0a0082611bde91906120de565b81611be99190611fef565b90508360ff168583611bfb91906120de565b901c91506405035ad90082611c1091906120de565b81611c1b9190611fef565b90508360ff168583611c2d91906120de565b901c9150632f881b0082611c4191906120de565b81611c4c9190611fef565b90508360ff168583611c5e91906120de565b901c91506301b2934082611c7291906120de565b81611c7d9190611fef565b90508360ff168583611c8f91906120de565b901c9150620efc4082611ca291906120de565b81611cad9190611fef565b90508360ff168583611cbf91906120de565b901c9150617fe082611cd191906120de565b81611cdc9190611fef565b90508360ff168583611cee91906120de565b901c915061042082611d0091906120de565b81611d0b9190611fef565b90508360ff168583611d1d91906120de565b901c9150602182611d2e91906120de565b81611d399190611fef565b90508360ff168583611d4b91906120de565b901c9150600182611d5c91906120de565b81611d679190611fef565b90508360ff166001901b856f0688589cc0e9505e2f2fee558000000083611d8e919061207c565b611d989190611fef565b611da29190611fef565b9250505092915050565b600080600090506000839050610100811015611dec575b6001811115611de757600181901c9050600182611de09190612045565b9150611dc3565b611e2d565b6000608090505b60008160ff161115611e2b578060ff166001901b8210611e1c578060ff1682901c915080831792505b60018160ff16901c9050611df3565b505b8192505050919050565b600081359050611e46816123da565b92915050565b600081359050611e5b816123f1565b92915050565b60008060008060808587031215611e7b57611e7a612372565b5b6000611e8987828801611e37565b9450506020611e9a87828801611e37565b9350506040611eab87828801611e4c565b9250506060611ebc87828801611e37565b91505092959194509250565b6000611ed382611fd3565b611edd8185611fde565b9350611eed8185602086016121c7565b611ef681612377565b840191505092915050565b6000611f0e601c83611fde565b9150611f1982612388565b602082019050919050565b6000611f31601883611fde565b9150611f3c826123b1565b602082019050919050565b611f50816121a0565b82525050565b60006020820190508181036000830152611f708184611ec8565b905092915050565b60006020820190508181036000830152611f9181611f01565b9050919050565b60006020820190508181036000830152611fb181611f24565b9050919050565b6000602082019050611fcd6000830184611f47565b92915050565b600081519050919050565b600082825260208201905092915050565b6000611ffa826121a0565b9150612005836121a0565b9250827fffffffffffffffffffffffffffffffffffffffffffffffffffffffffffffffff0382111561203a576120396122b6565b5b828201905092915050565b6000612050826121ba565b915061205b836121ba565b92508260ff03821115612071576120706122b6565b5b828201905092915050565b6000612087826121a0565b9150612092836121a0565b9250826120a2576120a16122e5565b5b828204905092915050565b60006120b8826121ba565b91506120c3836121ba565b9250826120d3576120d26122e5565b5b828204905092915050565b60006120e9826121a0565b91506120f4836121a0565b9250817fffffffffffffffffffffffffffffffffffffffffffffffffffffffffffffffff048311821515161561212d5761212c6122b6565b5b828202905092915050565b6000612143826121a0565b915061214e836121a0565b925082821015612161576121606122b6565b5b828203905092915050565b6000612177826121ba565b9150612182836121ba565b925082821015612195576121946122b6565b5b828203905092915050565b6000819050919050565b600063ffffffff82169050919050565b600060ff82169050919050565b60005b838110156121e55780820151818401526020810190506121ca565b838111156121f4576000848401525b50505050565b6000612205826121ba565b91506000821415612219576122186122b6565b5b600182039050919050565b6000600282049050600182168061223c57607f821691505b602082108114156122505761224f612314565b5b50919050565b6000612261826121a0565b915061226c836121a0565b92508261227c5761227b6122e5565b5b828206905092915050565b7f4e487b7100000000000000000000000000000000000000000000000000000000600052600160045260246000fd5b7f4e487b7100000000000000000000000000000000000000000000000000000000600052601160045260246000fd5b7f4e487b7100000000000000000000000000000000000000000000000000000000600052601260045260246000fd5b7f4e487b7100000000000000000000000000000000000000000000000000000000600052602260045260246000fd5b7f4e487b7100000000000000000000000000000000000000000000000000000000600052603260045260246000fd5b600080fd5b6000601f19601f8301169050919050565b7f4261736573203c203120617265206e6f7420737570706f727465642e00000000600082015250565b7f626173654e2065786365656473206d61782076616c75652e0000000000000000600082015250565b6123e3816121a0565b81146123ee57600080fd5b50565b6123fa816121aa565b811461240557600080fd5b5056fea2646970667358221220e46e9d85c17b7ecd30cbc24c6bb1700f1057226f20bd4d861561b70f818ea5e364736f6c63430008070033",
					"opcodes": "PUSH1 0x80 PUSH1 0x40 MSTORE PUSH1 0x40 MLOAD DUP1 PUSH1 0x40 ADD PUSH1 0x40 MSTORE DUP1 PUSH1 0x3 DUP2 MSTORE PUSH1 0x20 ADD PUSH32 0x302E330000000000000000000000000000000000000000000000000000000000 DUP2 MSTORE POP PUSH1 0x0 SWAP1 DUP1 MLOAD SWAP1 PUSH1 0x20 ADD SWAP1 PUSH3 0x51 SWAP3 SWAP2 SWAP1 PUSH3 0x11F6 JUMP JUMPDEST POP CALLVALUE DUP1 ISZERO PUSH3 0x5F JUMPI PUSH1 0x0 DUP1 REVERT JUMPDEST POP PUSH17 0x1C35FEDD14FFFFFFFFFFFFFFFFFFFFFFFF PUSH1 0x1 PUSH1 0x20 PUSH1 0x80 DUP2 LT PUSH3 0x8A JUMPI PUSH3 0x89 PUSH3 0x130B JUMP JUMPDEST JUMPDEST ADD DUP2 SWAP1 SSTORE POP PUSH17 0x1B0CE43B323FFFFFFFFFFFFFFFFFFFFFFF PUSH1 0x1 PUSH1 0x21 PUSH1 0x80 DUP2 LT PUSH3 0xB9 JUMPI PUSH3 0xB8 PUSH3 0x130B JUMP JUMPDEST JUMPDEST ADD DUP2 SWAP1 SSTORE POP PUSH17 0x19F0028EC1FFFFFFFFFFFFFFFFFFFFFFFF PUSH1 0x1 PUSH1 0x22 PUSH1 0x80 DUP2 LT PUSH3 0xE8 JUMPI PUSH3 0xE7 PUSH3 0x130B JUMP JUMPDEST JUMPDEST ADD DUP2 SWAP1 SSTORE POP PUSH17 0x18DED91F0E7FFFFFFFFFFFFFFFFFFFFFFF PUSH1 0x1 PUSH1 0x23 PUSH1 0x80 DUP2 LT PUSH3 0x117 JUMPI PUSH3 0x116 PUSH3 0x130B JUMP JUMPDEST JUMPDEST ADD DUP2 SWAP1 SSTORE POP PUSH17 0x17D8EC7F0417FFFFFFFFFFFFFFFFFFFFFF PUSH1 0x1 PUSH1 0x24 PUSH1 0x80 DUP2 LT PUSH3 0x146 JUMPI PUSH3 0x145 PUSH3 0x130B JUMP JUMPDEST JUMPDEST ADD DUP2 SWAP1 SSTORE POP PUSH17 0x16DDC6556CDBFFFFFFFFFFFFFFFFFFFFFF PUSH1 0x1 PUSH1 0x25 PUSH1 0x80 DUP2 LT PUSH3 0x175 JUMPI PUSH3 0x174 PUSH3 0x130B JUMP JUMPDEST JUMPDEST ADD DUP2 SWAP1 SSTORE POP PUSH17 0x15ECF52776A1FFFFFFFFFFFFFFFFFFFFFF PUSH1 0x1 PUSH1 0x26 PUSH1 0x80 DUP2 LT PUSH3 0x1A4 JUMPI PUSH3 0x1A3 PUSH3 0x130B JUMP JUMPDEST JUMPDEST ADD DUP2 SWAP1 SSTORE POP PUSH17 0x15060C256CB2FFFFFFFFFFFFFFFFFFFFFF PUSH1 0x1 PUSH1 0x27 PUSH1 0x80 DUP2 LT PUSH3 0x1D3 JUMPI PUSH3 0x1D2 PUSH3 0x130B JUMP JUMPDEST JUMPDEST ADD DUP2 SWAP1 SSTORE POP PUSH17 0x1428A2F98D72FFFFFFFFFFFFFFFFFFFFFF PUSH1 0x1 PUSH1 0x28 PUSH1 0x80 DUP2 LT PUSH3 0x202 JUMPI PUSH3 0x201 PUSH3 0x130B JUMP JUMPDEST JUMPDEST ADD DUP2 SWAP1 SSTORE POP PUSH17 0x13545598E5C23FFFFFFFFFFFFFFFFFFFFF PUSH1 0x1 PUSH1 0x29 PUSH1 0x80 DUP2 LT PUSH3 0x231 JUMPI PUSH3 0x230 PUSH3 0x130B JUMP JUMPDEST JUMPDEST ADD DUP2 SWAP1 SSTORE POP PUSH17 0x1288C4161CE1DFFFFFFFFFFFFFFFFFFFFF PUSH1 0x1 PUSH1 0x2A PUSH1 0x80 DUP2 LT PUSH3 0x260 JUMPI PUSH3 0x25F PUSH3 0x130B JUMP JUMPDEST JUMPDEST ADD DUP2 SWAP1 SSTORE POP PUSH17 0x11C592761C666FFFFFFFFFFFFFFFFFFFFF PUSH1 0x1 PUSH1 0x2B PUSH1 0x80 DUP2 LT PUSH3 0x28F JUMPI PUSH3 0x28E PUSH3 0x130B JUMP JUMPDEST JUMPDEST ADD DUP2 SWAP1 SSTORE POP PUSH17 0x110A688680A757FFFFFFFFFFFFFFFFFFFF PUSH1 0x1 PUSH1 0x2C PUSH1 0x80 DUP2 LT PUSH3 0x2BE JUMPI PUSH3 0x2BD PUSH3 0x130B JUMP JUMPDEST JUMPDEST ADD DUP2 SWAP1 SSTORE POP PUSH17 0x1056F1B5BEDF77FFFFFFFFFFFFFFFFFFFF PUSH1 0x1 PUSH1 0x2D PUSH1 0x80 DUP2 LT PUSH3 0x2ED JUMPI PUSH3 0x2EC PUSH3 0x130B JUMP JUMPDEST JUMPDEST ADD DUP2 SWAP1 SSTORE POP PUSH17 0xFAADCECEEFF8BFFFFFFFFFFFFFFFFFFFF PUSH1 0x1 PUSH1 0x2E PUSH1 0x80 DUP2 LT PUSH3 0x31C JUMPI PUSH3 0x31B PUSH3 0x130B JUMP JUMPDEST JUMPDEST ADD DUP2 SWAP1 SSTORE POP PUSH17 0xF05DC6B27EDADFFFFFFFFFFFFFFFFFFFF PUSH1 0x1 PUSH1 0x2F PUSH1 0x80 DUP2 LT PUSH3 0x34B JUMPI PUSH3 0x34A PUSH3 0x130B JUMP JUMPDEST JUMPDEST ADD DUP2 SWAP1 SSTORE POP PUSH17 0xE67A5A25DA4107FFFFFFFFFFFFFFFFFFF PUSH1 0x1 PUSH1 0x30 PUSH1 0x80 DUP2 LT PUSH3 0x37A JUMPI PUSH3 0x379 PUSH3 0x130B JUMP JUMPDEST JUMPDEST ADD DUP2 SWAP1 SSTORE POP PUSH17 0xDCFF115B14EEDFFFFFFFFFFFFFFFFFFFF PUSH1 0x1 PUSH1 0x31 PUSH1 0x80 DUP2 LT PUSH3 0x3A9 JUMPI PUSH3 0x3A8 PUSH3 0x130B JUMP JUMPDEST JUMPDEST ADD DUP2 SWAP1 SSTORE POP PUSH17 0xD3E7A392431239FFFFFFFFFFFFFFFFFFF PUSH1 0x1 PUSH1 0x32 PUSH1 0x80 DUP2 LT PUSH3 0x3D8 JUMPI PUSH3 0x3D7 PUSH3 0x130B JUMP JUMPDEST JUMPDEST ADD DUP2 SWAP1 SSTORE POP PUSH17 0xCB2FF529EB71E4FFFFFFFFFFFFFFFFFFF PUSH1 0x1 PUSH1 0x33 PUSH1 0x80 DUP2 LT PUSH3 0x407 JUMPI PUSH3 0x406 PUSH3 0x130B JUMP JUMPDEST JUMPDEST ADD DUP2 SWAP1 SSTORE POP PUSH17 0xC2D415C3DB974AFFFFFFFFFFFFFFFFFFF PUSH1 0x1 PUSH1 0x34 PUSH1 0x80 DUP2 LT PUSH3 0x436 JUMPI PUSH3 0x435 PUSH3 0x130B JUMP JUMPDEST JUMPDEST ADD DUP2 SWAP1 SSTORE POP PUSH17 0xBAD03E7D883F69BFFFFFFFFFFFFFFFFFF PUSH1 0x1 PUSH1 0x35 PUSH1 0x80 DUP2 LT PUSH3 0x465 JUMPI PUSH3 0x464 PUSH3 0x130B JUMP JUMPDEST JUMPDEST ADD DUP2 SWAP1 SSTORE POP PUSH17 0xB320D03B2C343D5FFFFFFFFFFFFFFFFFF PUSH1 0x1 PUSH1 0x36 PUSH1 0x80 DUP2 LT PUSH3 0x494 JUMPI PUSH3 0x493 PUSH3 0x130B JUMP JUMPDEST JUMPDEST ADD DUP2 SWAP1 SSTORE POP PUSH17 0xABC25204E02828DFFFFFFFFFFFFFFFFFF PUSH1 0x1 PUSH1 0x37 PUSH1 0x80 DUP2 LT PUSH3 0x4C3 JUMPI PUSH3 0x4C2 PUSH3 0x130B JUMP JUMPDEST JUMPDEST ADD DUP2 SWAP1 SSTORE POP PUSH17 0xA4B16F74EE4BB207FFFFFFFFFFFFFFFFF PUSH1 0x1 PUSH1 0x38 PUSH1 0x80 DUP2 LT PUSH3 0x4F2 JUMPI PUSH3 0x4F1 PUSH3 0x130B JUMP JUMPDEST JUMPDEST ADD DUP2 SWAP1 SSTORE POP PUSH17 0x9DEAF736AC1F569FFFFFFFFFFFFFFFFFF PUSH1 0x1 PUSH1 0x39 PUSH1 0x80 DUP2 LT PUSH3 0x521 JUMPI PUSH3 0x520 PUSH3 0x130B JUMP JUMPDEST JUMPDEST ADD DUP2 SWAP1 SSTORE POP PUSH17 0x976BD9952C7AA957FFFFFFFFFFFFFFFFF PUSH1 0x1 PUSH1 0x3A PUSH1 0x80 DUP2 LT PUSH3 0x550 JUMPI PUSH3 0x54F PUSH3 0x130B JUMP JUMPDEST JUMPDEST ADD DUP2 SWAP1 SSTORE POP PUSH17 0x9131271922EAA606FFFFFFFFFFFFFFFFF PUSH1 0x1 PUSH1 0x3B PUSH1 0x80 DUP2 LT PUSH3 0x57F JUMPI PUSH3 0x57E PUSH3 0x130B JUMP JUMPDEST JUMPDEST ADD DUP2 SWAP1 SSTORE POP PUSH17 0x8B380F3558668C46FFFFFFFFFFFFFFFFF PUSH1 0x1 PUSH1 0x3C PUSH1 0x80 DUP2 LT PUSH3 0x5AE JUMPI PUSH3 0x5AD PUSH3 0x130B JUMP JUMPDEST JUMPDEST ADD DUP2 SWAP1 SSTORE POP PUSH17 0x857DDF0117EFA215BFFFFFFFFFFFFFFFF PUSH1 0x1 PUSH1 0x3D PUSH1 0x80 DUP2 LT PUSH3 0x5DD JUMPI PUSH3 0x5DC PUSH3 0x130B JUMP JUMPDEST JUMPDEST ADD DUP2 SWAP1 SSTORE POP PUSH17 0x7FFFFFFFFFFFFFFFFFFFFFFFFFFFFFFFF PUSH1 0x1 PUSH1 0x3E PUSH1 0x80 DUP2 LT PUSH3 0x60C JUMPI PUSH3 0x60B PUSH3 0x130B JUMP JUMPDEST JUMPDEST ADD DUP2 SWAP1 SSTORE POP PUSH17 0x7ABBF6F6ABB9D087FFFFFFFFFFFFFFFFF PUSH1 0x1 PUSH1 0x3F PUSH1 0x80 DUP2 LT PUSH3 0x63B JUMPI PUSH3 0x63A PUSH3 0x130B JUMP JUMPDEST JUMPDEST ADD DUP2 SWAP1 SSTORE POP PUSH17 0x75AF62CBAC95F7DFA7FFFFFFFFFFFFFFF PUSH1 0x1 PUSH1 0x40 PUSH1 0x80 DUP2 LT PUSH3 0x66A JUMPI PUSH3 0x669 PUSH3 0x130B JUMP JUMPDEST JUMPDEST ADD DUP2 SWAP1 SSTORE POP PUSH17 0x70D7FB7452E187AC13FFFFFFFFFFFFFFF PUSH1 0x1 PUSH1 0x41 PUSH1 0x80 DUP2 LT PUSH3 0x699 JUMPI PUSH3 0x698 PUSH3 0x130B JUMP JUMPDEST JUMPDEST ADD DUP2 SWAP1 SSTORE POP PUSH17 0x6C3390ECC8AF379295FFFFFFFFFFFFFFF PUSH1 0x1 PUSH1 0x42 PUSH1 0x80 DUP2 LT PUSH3 0x6C8 JUMPI PUSH3 0x6C7 PUSH3 0x130B JUMP JUMPDEST JUMPDEST ADD DUP2 SWAP1 SSTORE POP PUSH17 0x67C00A3B07FFC01FD6FFFFFFFFFFFFFFF PUSH1 0x1 PUSH1 0x43 PUSH1 0x80 DUP2 LT PUSH3 0x6F7 JUMPI PUSH3 0x6F6 PUSH3 0x130B JUMP JUMPDEST JUMPDEST ADD DUP2 SWAP1 SSTORE POP PUSH17 0x637B647C39CBB9D3D27FFFFFFFFFFFFFF PUSH1 0x1 PUSH1 0x44 PUSH1 0x80 DUP2 LT PUSH3 0x726 JUMPI PUSH3 0x725 PUSH3 0x130B JUMP JUMPDEST JUMPDEST ADD DUP2 SWAP1 SSTORE POP PUSH17 0x5F63B1FC104DBD39587FFFFFFFFFFFFFF PUSH1 0x1 PUSH1 0x45 PUSH1 0x80 DUP2 LT PUSH3 0x755 JUMPI PUSH3 0x754 PUSH3 0x130B JUMP JUMPDEST JUMPDEST ADD DUP2 SWAP1 SSTORE POP PUSH17 0x5B771955B36E12F7235FFFFFFFFFFFFFF PUSH1 0x1 PUSH1 0x46 PUSH1 0x80 DUP2 LT PUSH3 0x784 JUMPI PUSH3 0x783 PUSH3 0x130B JUMP JUMPDEST JUMPDEST ADD DUP2 SWAP1 SSTORE POP PUSH17 0x57B3D49DDA84556D6F6FFFFFFFFFFFFFF PUSH1 0x1 PUSH1 0x47 PUSH1 0x80 DUP2 LT PUSH3 0x7B3 JUMPI PUSH3 0x7B2 PUSH3 0x130B JUMP JUMPDEST JUMPDEST ADD DUP2 SWAP1 SSTORE POP PUSH17 0x54183095B2C8ECECF30FFFFFFFFFFFFFF PUSH1 0x1 PUSH1 0x48 PUSH1 0x80 DUP2 LT PUSH3 0x7E2 JUMPI PUSH3 0x7E1 PUSH3 0x130B JUMP JUMPDEST JUMPDEST ADD DUP2 SWAP1 SSTORE POP PUSH17 0x50A28BE635CA2B888F77FFFFFFFFFFFFF PUSH1 0x1 PUSH1 0x49 PUSH1 0x80 DUP2 LT PUSH3 0x811 JUMPI PUSH3 0x810 PUSH3 0x130B JUMP JUMPDEST JUMPDEST ADD DUP2 SWAP1 SSTORE POP PUSH17 0x4D5156639708C9DB33C3FFFFFFFFFFFFF PUSH1 0x1 PUSH1 0x4A PUSH1 0x80 DUP2 LT PUSH3 0x840 JUMPI PUSH3 0x83F PUSH3 0x130B JUMP JUMPDEST JUMPDEST ADD DUP2 SWAP1 SSTORE POP PUSH17 0x4A23105873875BD52DFDFFFFFFFFFFFFF PUSH1 0x1 PUSH1 0x4B PUSH1 0x80 DUP2 LT PUSH3 0x86F JUMPI PUSH3 0x86E PUSH3 0x130B JUMP JUMPDEST JUMPDEST ADD DUP2 SWAP1 SSTORE POP PUSH17 0x471649D87199AA990756FFFFFFFFFFFFF PUSH1 0x1 PUSH1 0x4C PUSH1 0x80 DUP2 LT PUSH3 0x89E JUMPI PUSH3 0x89D PUSH3 0x130B JUMP JUMPDEST JUMPDEST ADD DUP2 SWAP1 SSTORE POP PUSH17 0x4429A21A029D4C1457CFBFFFFFFFFFFFF PUSH1 0x1 PUSH1 0x4D PUSH1 0x80 DUP2 LT PUSH3 0x8CD JUMPI PUSH3 0x8CC PUSH3 0x130B JUMP JUMPDEST JUMPDEST ADD DUP2 SWAP1 SSTORE POP PUSH17 0x415BC6D6FB7DD71AF2CB3FFFFFFFFFFFF PUSH1 0x1 PUSH1 0x4E PUSH1 0x80 DUP2 LT PUSH3 0x8FC JUMPI PUSH3 0x8FB PUSH3 0x130B JUMP JUMPDEST JUMPDEST ADD DUP2 SWAP1 SSTORE POP PUSH17 0x3EAB73B3BBFE282243CE1FFFFFFFFFFFF PUSH1 0x1 PUSH1 0x4F PUSH1 0x80 DUP2 LT PUSH3 0x92B JUMPI PUSH3 0x92A PUSH3 0x130B JUMP JUMPDEST JUMPDEST ADD DUP2 SWAP1 SSTORE POP PUSH17 0x3C1771AC9FB6B4C18E229FFFFFFFFFFFF PUSH1 0x1 PUSH1 0x50 PUSH1 0x80 DUP2 LT PUSH3 0x95A JUMPI PUSH3 0x959 PUSH3 0x130B JUMP JUMPDEST JUMPDEST ADD DUP2 SWAP1 SSTORE POP PUSH17 0x399E96897690418F785257FFFFFFFFFFF PUSH1 0x1 PUSH1 0x51 PUSH1 0x80 DUP2 LT PUSH3 0x989 JUMPI PUSH3 0x988 PUSH3 0x130B JUMP JUMPDEST JUMPDEST ADD DUP2 SWAP1 SSTORE POP PUSH17 0x373FC456C53BB779BF0EA9FFFFFFFFFFF PUSH1 0x1 PUSH1 0x52 PUSH1 0x80 DUP2 LT PUSH3 0x9B8 JUMPI PUSH3 0x9B7 PUSH3 0x130B JUMP JUMPDEST JUMPDEST ADD DUP2 SWAP1 SSTORE POP PUSH17 0x34F9E8E490C48E67E6AB8BFFFFFFFFFFF PUSH1 0x1 PUSH1 0x53 PUSH1 0x80 DUP2 LT PUSH3 0x9E7 JUMPI PUSH3 0x9E6 PUSH3 0x130B JUMP JUMPDEST JUMPDEST ADD DUP2 SWAP1 SSTORE POP PUSH17 0x32CBFD4A7ADC790560B3337FFFFFFFFFF PUSH1 0x1 PUSH1 0x54 PUSH1 0x80 DUP2 LT PUSH3 0xA16 JUMPI PUSH3 0xA15 PUSH3 0x130B JUMP JUMPDEST JUMPDEST ADD DUP2 SWAP1 SSTORE POP PUSH17 0x30B50570F6E5D2ACCA94613FFFFFFFFFF PUSH1 0x1 PUSH1 0x55 PUSH1 0x80 DUP2 LT PUSH3 0xA45 JUMPI PUSH3 0xA44 PUSH3 0x130B JUMP JUMPDEST JUMPDEST ADD DUP2 SWAP1 SSTORE POP PUSH17 0x2EB40F9F620FDA6B56C2861FFFFFFFFFF PUSH1 0x1 PUSH1 0x56 PUSH1 0x80 DUP2 LT PUSH3 0xA74 JUMPI PUSH3 0xA73 PUSH3 0x130B JUMP JUMPDEST JUMPDEST ADD DUP2 SWAP1 SSTORE POP PUSH17 0x2CC8340ECB0D0F520A6AF58FFFFFFFFFF PUSH1 0x1 PUSH1 0x57 PUSH1 0x80 DUP2 LT PUSH3 0xAA3 JUMPI PUSH3 0xAA2 PUSH3 0x130B JUMP JUMPDEST JUMPDEST ADD DUP2 SWAP1 SSTORE POP PUSH17 0x2AF09481380A0A35CF1BA02FFFFFFFFFF PUSH1 0x1 PUSH1 0x58 PUSH1 0x80 DUP2 LT PUSH3 0xAD2 JUMPI PUSH3 0xAD1 PUSH3 0x130B JUMP JUMPDEST JUMPDEST ADD DUP2 SWAP1 SSTORE POP PUSH17 0x292C5BDD3B92EC810287B1B3FFFFFFFFF PUSH1 0x1 PUSH1 0x59 PUSH1 0x80 DUP2 LT PUSH3 0xB01 JUMPI PUSH3 0xB00 PUSH3 0x130B JUMP JUMPDEST JUMPDEST ADD DUP2 SWAP1 SSTORE POP PUSH17 0x277ABDCDAB07D5A77AC6D6B9FFFFFFFFF PUSH1 0x1 PUSH1 0x5A PUSH1 0x80 DUP2 LT PUSH3 0xB30 JUMPI PUSH3 0xB2F PUSH3 0x130B JUMP JUMPDEST JUMPDEST ADD DUP2 SWAP1 SSTORE POP PUSH17 0x25DAF6654B1EAA55FD64DF5EFFFFFFFFF PUSH1 0x1 PUSH1 0x5B PUSH1 0x80 DUP2 LT PUSH3 0xB5F JUMPI PUSH3 0xB5E PUSH3 0x130B JUMP JUMPDEST JUMPDEST ADD DUP2 SWAP1 SSTORE POP PUSH17 0x244C49C648BAA98192DCE88B7FFFFFFFF PUSH1 0x1 PUSH1 0x5C PUSH1 0x80 DUP2 LT PUSH3 0xB8E JUMPI PUSH3 0xB8D PUSH3 0x130B JUMP JUMPDEST JUMPDEST ADD DUP2 SWAP1 SSTORE POP PUSH17 0x22CE03CD5619A311B2471268BFFFFFFFF PUSH1 0x1 PUSH1 0x5D PUSH1 0x80 DUP2 LT PUSH3 0xBBD JUMPI PUSH3 0xBBC PUSH3 0x130B JUMP JUMPDEST JUMPDEST ADD DUP2 SWAP1 SSTORE POP PUSH17 0x215F77C045FBE885654A44A0FFFFFFFFF PUSH1 0x1 PUSH1 0x5E PUSH1 0x80 DUP2 LT PUSH3 0xBEC JUMPI PUSH3 0xBEB PUSH3 0x130B JUMP JUMPDEST JUMPDEST ADD DUP2 SWAP1 SSTORE POP PUSH17 0x1FFFFFFFFFFFFFFFFFFFFFFFFFFFFFFFF PUSH1 0x1 PUSH1 0x5F PUSH1 0x80 DUP2 LT PUSH3 0xC1B JUMPI PUSH3 0xC1A PUSH3 0x130B JUMP JUMPDEST JUMPDEST ADD DUP2 SWAP1 SSTORE POP PUSH17 0x1EAEFDBDAAEE7421FC4D3EDE5FFFFFFFF PUSH1 0x1 PUSH1 0x60 PUSH1 0x80 DUP2 LT PUSH3 0xC4A JUMPI PUSH3 0xC49 PUSH3 0x130B JUMP JUMPDEST JUMPDEST ADD DUP2 SWAP1 SSTORE POP PUSH17 0x1D6BD8B2EB257DF7E8CA57B09BFFFFFFF PUSH1 0x1 PUSH1 0x61 PUSH1 0x80 DUP2 LT PUSH3 0xC79 JUMPI PUSH3 0xC78 PUSH3 0x130B JUMP JUMPDEST JUMPDEST ADD DUP2 SWAP1 SSTORE POP PUSH17 0x1C35FEDD14B861EB0443F7F133FFFFFFF PUSH1 0x1 PUSH1 0x62 PUSH1 0x80 DUP2 LT PUSH3 0xCA8 JUMPI PUSH3 0xCA7 PUSH3 0x130B JUMP JUMPDEST JUMPDEST ADD DUP2 SWAP1 SSTORE POP PUSH17 0x1B0CE43B322BCDE4A56E8ADA5AFFFFFFF PUSH1 0x1 PUSH1 0x63 PUSH1 0x80 DUP2 LT PUSH3 0xCD7 JUMPI PUSH3 0xCD6 PUSH3 0x130B JUMP JUMPDEST JUMPDEST ADD DUP2 SWAP1 SSTORE POP PUSH17 0x19F0028EC1FFF007F5A195A39DFFFFFFF PUSH1 0x1 PUSH1 0x64 PUSH1 0x80 DUP2 LT PUSH3 0xD06 JUMPI PUSH3 0xD05 PUSH3 0x130B JUMP JUMPDEST JUMPDEST ADD DUP2 SWAP1 SSTORE POP PUSH17 0x18DED91F0E72EE74F49B15BA527FFFFFF PUSH1 0x1 PUSH1 0x65 PUSH1 0x80 DUP2 LT PUSH3 0xD35 JUMPI PUSH3 0xD34 PUSH3 0x130B JUMP JUMPDEST JUMPDEST ADD DUP2 SWAP1 SSTORE POP PUSH17 0x17D8EC7F04136F4E5615FD41A63FFFFFF PUSH1 0x1 PUSH1 0x66 PUSH1 0x80 DUP2 LT PUSH3 0xD64 JUMPI PUSH3 0xD63 PUSH3 0x130B JUMP JUMPDEST JUMPDEST ADD DUP2 SWAP1 SSTORE POP PUSH17 0x16DDC6556CDB84BDC8D12D22E6FFFFFFF PUSH1 0x1 PUSH1 0x67 PUSH1 0x80 DUP2 LT PUSH3 0xD93 JUMPI PUSH3 0xD92 PUSH3 0x130B JUMP JUMPDEST JUMPDEST ADD DUP2 SWAP1 SSTORE POP PUSH17 0x15ECF52776A1155B5BD8395814F7FFFFF PUSH1 0x1 PUSH1 0x68 PUSH1 0x80 DUP2 LT PUSH3 0xDC2 JUMPI PUSH3 0xDC1 PUSH3 0x130B JUMP JUMPDEST JUMPDEST ADD DUP2 SWAP1 SSTORE POP PUSH17 0x15060C256CB23B3B3CC3754CF40FFFFFF PUSH1 0x1 PUSH1 0x69 PUSH1 0x80 DUP2 LT PUSH3 0xDF1 JUMPI PUSH3 0xDF0 PUSH3 0x130B JUMP JUMPDEST JUMPDEST ADD DUP2 SWAP1 SSTORE POP PUSH17 0x1428A2F98D728AE223DDAB715BE3FFFFF PUSH1 0x1 PUSH1 0x6A PUSH1 0x80 DUP2 LT PUSH3 0xE20 JUMPI PUSH3 0xE1F PUSH3 0x130B JUMP JUMPDEST JUMPDEST ADD DUP2 SWAP1 SSTORE POP PUSH17 0x13545598E5C23276CCF0EDE68034FFFFF PUSH1 0x1 PUSH1 0x6B PUSH1 0x80 DUP2 LT PUSH3 0xE4F JUMPI PUSH3 0xE4E PUSH3 0x130B JUMP JUMPDEST JUMPDEST ADD DUP2 SWAP1 SSTORE POP PUSH17 0x1288C4161CE1D6F54B7F61081194FFFFF PUSH1 0x1 PUSH1 0x6C PUSH1 0x80 DUP2 LT PUSH3 0xE7E JUMPI PUSH3 0xE7D PUSH3 0x130B JUMP JUMPDEST JUMPDEST ADD DUP2 SWAP1 SSTORE POP PUSH17 0x11C592761C666AA641D5A01A40F17FFFF PUSH1 0x1 PUSH1 0x6D PUSH1 0x80 DUP2 LT PUSH3 0xEAD JUMPI PUSH3 0xEAC PUSH3 0x130B JUMP JUMPDEST JUMPDEST ADD DUP2 SWAP1 SSTORE POP PUSH17 0x110A688680A7530515F3E6E6CFDCDFFFF PUSH1 0x1 PUSH1 0x6E PUSH1 0x80 DUP2 LT PUSH3 0xEDC JUMPI PUSH3 0xEDB PUSH3 0x130B JUMP JUMPDEST JUMPDEST ADD DUP2 SWAP1 SSTORE POP PUSH17 0x1056F1B5BEDF75C6BCB2CE8AED428FFFF PUSH1 0x1 PUSH1 0x6F PUSH1 0x80 DUP2 LT PUSH3 0xF0B JUMPI PUSH3 0xF0A PUSH3 0x130B JUMP JUMPDEST JUMPDEST ADD DUP2 SWAP1 SSTORE POP PUSH16 0xFAADCECEEFF8A0890F3875F008277FFF PUSH1 0x1 PUSH1 0x70 PUSH1 0x80 DUP2 LT PUSH3 0xF39 JUMPI PUSH3 0xF38 PUSH3 0x130B JUMP JUMPDEST JUMPDEST ADD DUP2 SWAP1 SSTORE POP PUSH16 0xF05DC6B27EDAD306388A600F6BA0BFFF PUSH1 0x1 PUSH1 0x71 PUSH1 0x80 DUP2 LT PUSH3 0xF67 JUMPI PUSH3 0xF66 PUSH3 0x130B JUMP JUMPDEST JUMPDEST ADD DUP2 SWAP1 SSTORE POP PUSH16 0xE67A5A25DA41063DE1495D5B18CDBFFF PUSH1 0x1 PUSH1 0x72 PUSH1 0x80 DUP2 LT PUSH3 0xF95 JUMPI PUSH3 0xF94 PUSH3 0x130B JUMP JUMPDEST JUMPDEST ADD DUP2 SWAP1 SSTORE POP PUSH16 0xDCFF115B14EEDDE6FC3AA5353F2E4FFF PUSH1 0x1 PUSH1 0x73 PUSH1 0x80 DUP2 LT PUSH3 0xFC3 JUMPI PUSH3 0xFC2 PUSH3 0x130B JUMP JUMPDEST JUMPDEST ADD DUP2 SWAP1 SSTORE POP PUSH16 0xD3E7A3924312399F9AAE2E0F868F8FFF PUSH1 0x1 PUSH1 0x74 PUSH1 0x80 DUP2 LT PUSH3 0xFF1 JUMPI PUSH3 0xFF0 PUSH3 0x130B JUMP JUMPDEST JUMPDEST ADD DUP2 SWAP1 SSTORE POP PUSH16 0xCB2FF529EB71E41582CCCD5A1EE26FFF PUSH1 0x1 PUSH1 0x75 PUSH1 0x80 DUP2 LT PUSH3 0x101F JUMPI PUSH3 0x101E PUSH3 0x130B JUMP JUMPDEST JUMPDEST ADD DUP2 SWAP1 SSTORE POP PUSH16 0xC2D415C3DB974AB32A51840C0B67EDFF PUSH1 0x1 PUSH1 0x76 PUSH1 0x80 DUP2 LT PUSH3 0x104D JUMPI PUSH3 0x104C PUSH3 0x130B JUMP JUMPDEST JUMPDEST ADD DUP2 SWAP1 SSTORE POP PUSH16 0xBAD03E7D883F69AD5B0A186184E06BFF PUSH1 0x1 PUSH1 0x77 PUSH1 0x80 DUP2 LT PUSH3 0x107B JUMPI PUSH3 0x107A PUSH3 0x130B JUMP JUMPDEST JUMPDEST ADD DUP2 SWAP1 SSTORE POP PUSH16 0xB320D03B2C343D4829ABD6075F0CC5FF PUSH1 0x1 PUSH1 0x78 PUSH1 0x80 DUP2 LT PUSH3 0x10A9 JUMPI PUSH3 0x10A8 PUSH3 0x130B JUMP JUMPDEST JUMPDEST ADD DUP2 SWAP1 SSTORE POP PUSH16 0xABC25204E02828D73C6E80BCDB1A95BF PUSH1 0x1 PUSH1 0x79 PUSH1 0x80 DUP2 LT PUSH3 0x10D7 JUMPI PUSH3 0x10D6 PUSH3 0x130B JUMP JUMPDEST JUMPDEST ADD DUP2 SWAP1 SSTORE POP PUSH16 0xA4B16F74EE4BB2040A1EC6C15FBBF2DF PUSH1 0x1 PUSH1 0x7A PUSH1 0x80 DUP2 LT PUSH3 0x1105 JUMPI PUSH3 0x1104 PUSH3 0x130B JUMP JUMPDEST JUMPDEST ADD DUP2 SWAP1 SSTORE POP PUSH16 0x9DEAF736AC1F569DEB1B5AE3F36C130F PUSH1 0x1 PUSH1 0x7B PUSH1 0x80 DUP2 LT PUSH3 0x1133 JUMPI PUSH3 0x1132 PUSH3 0x130B JUMP JUMPDEST JUMPDEST ADD DUP2 SWAP1 SSTORE POP PUSH16 0x976BD9952C7AA957F5937D790EF65037 PUSH1 0x1 PUSH1 0x7C PUSH1 0x80 DUP2 LT PUSH3 0x1161 JUMPI PUSH3 0x1160 PUSH3 0x130B JUMP JUMPDEST JUMPDEST ADD DUP2 SWAP1 SSTORE POP PUSH16 0x9131271922EAA6064B73A22D0BD4F2BF PUSH1 0x1 PUSH1 0x7D PUSH1 0x80 DUP2 LT PUSH3 0x118F JUMPI PUSH3 0x118E PUSH3 0x130B JUMP JUMPDEST JUMPDEST ADD DUP2 SWAP1 SSTORE POP PUSH16 0x8B380F3558668C46C91C49A2F8E967B9 PUSH1 0x1 PUSH1 0x7E PUSH1 0x80 DUP2 LT PUSH3 0x11BD JUMPI PUSH3 0x11BC PUSH3 0x130B JUMP JUMPDEST JUMPDEST ADD DUP2 SWAP1 SSTORE POP PUSH16 0x857DDF0117EFA215952912839F6473E6 PUSH1 0x1 PUSH1 0x7F PUSH1 0x80 DUP2 LT PUSH3 0x11EB JUMPI PUSH3 0x11EA PUSH3 0x130B JUMP JUMPDEST JUMPDEST ADD DUP2 SWAP1 SSTORE POP PUSH3 0x133A JUMP JUMPDEST DUP3 DUP1 SLOAD PUSH3 0x1204 SWAP1 PUSH3 0x12A6 JUMP JUMPDEST SWAP1 PUSH1 0x0 MSTORE PUSH1 0x20 PUSH1 0x0 KECCAK256 SWAP1 PUSH1 0x1F ADD PUSH1 0x20 SWAP1 DIV DUP2 ADD SWAP3 DUP3 PUSH3 0x1228 JUMPI PUSH1 0x0 DUP6 SSTORE PUSH3 0x1274 JUMP JUMPDEST DUP3 PUSH1 0x1F LT PUSH3 0x1243 JUMPI DUP1 MLOAD PUSH1 0xFF NOT AND DUP4 DUP1 ADD OR DUP6 SSTORE PUSH3 0x1274 JUMP JUMPDEST DUP3 DUP1 ADD PUSH1 0x1 ADD DUP6 SSTORE DUP3 ISZERO PUSH3 0x1274 JUMPI SWAP2 DUP3 ADD JUMPDEST DUP3 DUP2 GT ISZERO PUSH3 0x1273 JUMPI DUP3 MLOAD DUP3 SSTORE SWAP2 PUSH1 0x20 ADD SWAP2 SWAP1 PUSH1 0x1 ADD SWAP1 PUSH3 0x1256 JUMP JUMPDEST JUMPDEST POP SWAP1 POP PUSH3 0x1283 SWAP2 SWAP1 PUSH3 0x1287 JUMP JUMPDEST POP SWAP1 JUMP JUMPDEST JUMPDEST DUP1 DUP3 GT ISZERO PUSH3 0x12A2 JUMPI PUSH1 0x0 DUP2 PUSH1 0x0 SWAP1 SSTORE POP PUSH1 0x1 ADD PUSH3 0x1288 JUMP JUMPDEST POP SWAP1 JUMP JUMPDEST PUSH1 0x0 PUSH1 0x2 DUP3 DIV SWAP1 POP PUSH1 0x1 DUP3 AND DUP1 PUSH3 0x12BF JUMPI PUSH1 0x7F DUP3 AND SWAP2 POP JUMPDEST PUSH1 0x20 DUP3 LT DUP2 EQ ISZERO PUSH3 0x12D6 JUMPI PUSH3 0x12D5 PUSH3 0x12DC JUMP JUMPDEST JUMPDEST POP SWAP2 SWAP1 POP JUMP JUMPDEST PUSH32 0x4E487B7100000000000000000000000000000000000000000000000000000000 PUSH1 0x0 MSTORE PUSH1 0x22 PUSH1 0x4 MSTORE PUSH1 0x24 PUSH1 0x0 REVERT JUMPDEST PUSH32 0x4E487B7100000000000000000000000000000000000000000000000000000000 PUSH1 0x0 MSTORE PUSH1 0x32 PUSH1 0x4 MSTORE PUSH1 0x24 PUSH1 0x0 REVERT JUMPDEST PUSH2 0x243E DUP1 PUSH3 0x134A PUSH1 0x0 CODECOPY PUSH1 0x0 RETURN INVALID PUSH1 0x80 PUSH1 0x40 MSTORE CALLVALUE DUP1 ISZERO PUSH2 0x10 JUMPI PUSH1 0x0 DUP1 REVERT JUMPDEST POP PUSH1 0x4 CALLDATASIZE LT PUSH2 0x41 JUMPI PUSH1 0x0 CALLDATALOAD PUSH1 0xE0 SHR DUP1 PUSH4 0x29A00E7C EQ PUSH2 0x46 JUMPI DUP1 PUSH4 0x49F9B0F7 EQ PUSH2 0x76 JUMPI DUP1 PUSH4 0x54FD4D50 EQ PUSH2 0xA6 JUMPI JUMPDEST PUSH1 0x0 DUP1 REVERT JUMPDEST PUSH2 0x60 PUSH1 0x4 DUP1 CALLDATASIZE SUB DUP2 ADD SWAP1 PUSH2 0x5B SWAP2 SWAP1 PUSH2 0x1E61 JUMP JUMPDEST PUSH2 0xC4 JUMP JUMPDEST PUSH1 0x40 MLOAD PUSH2 0x6D SWAP2 SWAP1 PUSH2 0x1FB8 JUMP JUMPDEST PUSH1 0x40 MLOAD DUP1 SWAP2 SUB SWAP1 RETURN JUMPDEST PUSH2 0x90 PUSH1 0x4 DUP1 CALLDATASIZE SUB DUP2 ADD SWAP1 PUSH2 0x8B SWAP2 SWAP1 PUSH2 0x1E61 JUMP JUMPDEST PUSH2 0x1AD JUMP JUMPDEST PUSH1 0x40 MLOAD PUSH2 0x9D SWAP2 SWAP1 PUSH2 0x1FB8 JUMP JUMPDEST PUSH1 0x40 MLOAD DUP1 SWAP2 SUB SWAP1 RETURN JUMPDEST PUSH2 0xAE PUSH2 0x2C3 JUMP JUMPDEST PUSH1 0x40 MLOAD PUSH2 0xBB SWAP2 SWAP1 PUSH2 0x1F56 JUMP JUMPDEST PUSH1 0x40 MLOAD DUP1 SWAP2 SUB SWAP1 RETURN JUMPDEST PUSH1 0x0 DUP1 DUP6 GT DUP1 ISZERO PUSH2 0xD5 JUMPI POP PUSH1 0x0 DUP5 GT JUMPDEST DUP1 ISZERO PUSH2 0xE7 JUMPI POP PUSH1 0x0 DUP4 PUSH4 0xFFFFFFFF AND GT JUMPDEST DUP1 ISZERO PUSH2 0x102 JUMPI POP PUSH3 0xF4240 PUSH4 0xFFFFFFFF AND DUP4 PUSH4 0xFFFFFFFF AND GT ISZERO JUMPDEST PUSH2 0x10B JUMPI PUSH1 0x0 DUP1 REVERT JUMPDEST PUSH1 0x0 DUP3 EQ ISZERO PUSH2 0x11D JUMPI PUSH1 0x0 SWAP1 POP PUSH2 0x1A5 JUMP JUMPDEST PUSH3 0xF4240 PUSH4 0xFFFFFFFF AND DUP4 PUSH4 0xFFFFFFFF AND EQ ISZERO PUSH2 0x152 JUMPI DUP4 DUP3 DUP7 PUSH2 0x141 SWAP2 SWAP1 PUSH2 0x20DE JUMP JUMPDEST PUSH2 0x14B SWAP2 SWAP1 PUSH2 0x207C JUMP JUMPDEST SWAP1 POP PUSH2 0x1A5 JUMP JUMPDEST PUSH1 0x0 DUP1 PUSH1 0x0 DUP7 DUP6 PUSH2 0x163 SWAP2 SWAP1 PUSH2 0x1FEF JUMP JUMPDEST SWAP1 POP PUSH2 0x174 DUP2 DUP9 DUP9 PUSH3 0xF4240 PUSH2 0x351 JUMP JUMPDEST DUP1 SWAP4 POP DUP2 SWAP5 POP POP POP PUSH1 0x0 DUP3 PUSH1 0xFF AND DUP5 DUP11 PUSH2 0x18E SWAP2 SWAP1 PUSH2 0x20DE JUMP JUMPDEST SWAP1 SHR SWAP1 POP DUP9 DUP2 PUSH2 0x19E SWAP2 SWAP1 PUSH2 0x2138 JUMP JUMPDEST SWAP5 POP POP POP POP POP JUMPDEST SWAP5 SWAP4 POP POP POP POP JUMP JUMPDEST PUSH1 0x0 DUP1 DUP6 GT DUP1 ISZERO PUSH2 0x1BE JUMPI POP PUSH1 0x0 DUP5 GT JUMPDEST DUP1 ISZERO PUSH2 0x1D0 JUMPI POP PUSH1 0x0 DUP4 PUSH4 0xFFFFFFFF AND GT JUMPDEST DUP1 ISZERO PUSH2 0x1EB JUMPI POP PUSH3 0xF4240 PUSH4 0xFFFFFFFF AND DUP4 PUSH4 0xFFFFFFFF AND GT ISZERO JUMPDEST DUP1 ISZERO PUSH2 0x1F7 JUMPI POP DUP5 DUP3 GT ISZERO JUMPDEST PUSH2 0x200 JUMPI PUSH1 0x0 DUP1 REVERT JUMPDEST PUSH1 0x0 DUP3 EQ ISZERO PUSH2 0x212 JUMPI PUSH1 0x0 SWAP1 POP PUSH2 0x2BB JUMP JUMPDEST DUP5 DUP3 EQ ISZERO PUSH2 0x222 JUMPI DUP4 SWAP1 POP PUSH2 0x2BB JUMP JUMPDEST PUSH3 0xF4240 PUSH4 0xFFFFFFFF AND DUP4 PUSH4 0xFFFFFFFF AND EQ ISZERO PUSH2 0x257 JUMPI DUP5 DUP3 DUP6 PUSH2 0x246 SWAP2 SWAP1 PUSH2 0x20DE JUMP JUMPDEST PUSH2 0x250 SWAP2 SWAP1 PUSH2 0x207C JUMP JUMPDEST SWAP1 POP PUSH2 0x2BB JUMP JUMPDEST PUSH1 0x0 DUP1 PUSH1 0x0 DUP5 DUP9 PUSH2 0x268 SWAP2 SWAP1 PUSH2 0x2138 JUMP JUMPDEST SWAP1 POP PUSH2 0x279 DUP9 DUP3 PUSH3 0xF4240 DUP10 PUSH2 0x351 JUMP JUMPDEST DUP1 SWAP4 POP DUP2 SWAP5 POP POP POP PUSH1 0x0 DUP4 DUP9 PUSH2 0x28F SWAP2 SWAP1 PUSH2 0x20DE JUMP JUMPDEST SWAP1 POP PUSH1 0x0 DUP4 PUSH1 0xFF AND DUP10 SWAP1 SHL SWAP1 POP DUP5 DUP2 DUP4 PUSH2 0x2A9 SWAP2 SWAP1 PUSH2 0x2138 JUMP JUMPDEST PUSH2 0x2B3 SWAP2 SWAP1 PUSH2 0x207C JUMP JUMPDEST SWAP6 POP POP POP POP POP POP JUMPDEST SWAP5 SWAP4 POP POP POP POP JUMP JUMPDEST PUSH1 0x0 DUP1 SLOAD PUSH2 0x2D0 SWAP1 PUSH2 0x2224 JUMP JUMPDEST DUP1 PUSH1 0x1F ADD PUSH1 0x20 DUP1 SWAP2 DIV MUL PUSH1 0x20 ADD PUSH1 0x40 MLOAD SWAP1 DUP2 ADD PUSH1 0x40 MSTORE DUP1 SWAP3 SWAP2 SWAP1 DUP2 DUP2 MSTORE PUSH1 0x20 ADD DUP3 DUP1 SLOAD PUSH2 0x2FC SWAP1 PUSH2 0x2224 JUMP JUMPDEST DUP1 ISZERO PUSH2 0x349 JUMPI DUP1 PUSH1 0x1F LT PUSH2 0x31E JUMPI PUSH2 0x100 DUP1 DUP4 SLOAD DIV MUL DUP4 MSTORE SWAP2 PUSH1 0x20 ADD SWAP2 PUSH2 0x349 JUMP JUMPDEST DUP3 ADD SWAP2 SWAP1 PUSH1 0x0 MSTORE PUSH1 0x20 PUSH1 0x0 KECCAK256 SWAP1 JUMPDEST DUP2 SLOAD DUP2 MSTORE SWAP1 PUSH1 0x1 ADD SWAP1 PUSH1 0x20 ADD DUP1 DUP4 GT PUSH2 0x32C JUMPI DUP3 SWAP1 SUB PUSH1 0x1F AND DUP3 ADD SWAP2 JUMPDEST POP POP POP POP POP DUP2 JUMP JUMPDEST PUSH1 0x0 DUP1 PUSH17 0x200000000000000000000000000000000 DUP7 LT PUSH2 0x3A7 JUMPI PUSH1 0x40 MLOAD PUSH32 0x8C379A000000000000000000000000000000000000000000000000000000000 DUP2 MSTORE PUSH1 0x4 ADD PUSH2 0x39E SWAP1 PUSH2 0x1F98 JUMP JUMPDEST PUSH1 0x40 MLOAD DUP1 SWAP2 SUB SWAP1 REVERT JUMPDEST DUP5 DUP7 LT ISZERO PUSH2 0x3EA JUMPI PUSH1 0x40 MLOAD PUSH32 0x8C379A000000000000000000000000000000000000000000000000000000000 DUP2 MSTORE PUSH1 0x4 ADD PUSH2 0x3E1 SWAP1 PUSH2 0x1F78 JUMP JUMPDEST PUSH1 0x40 MLOAD DUP1 SWAP2 SUB SWAP1 REVERT JUMPDEST PUSH1 0x0 DUP1 DUP7 PUSH16 0x80000000000000000000000000000000 DUP10 PUSH2 0x40A SWAP2 SWAP1 PUSH2 0x20DE JUMP JUMPDEST PUSH2 0x414 SWAP2 SWAP1 PUSH2 0x207C JUMP JUMPDEST SWAP1 POP PUSH17 0x15BF0A8B1457695355FB8AC404E7A79E3 DUP2 LT ISZERO PUSH2 0x43F JUMPI PUSH2 0x438 DUP2 PUSH2 0x4DE JUMP JUMPDEST SWAP2 POP PUSH2 0x44B JUMP JUMPDEST PUSH2 0x448 DUP2 PUSH2 0xC57 JUMP JUMPDEST SWAP2 POP JUMPDEST PUSH1 0x0 DUP6 PUSH4 0xFFFFFFFF AND DUP8 PUSH4 0xFFFFFFFF AND DUP5 PUSH2 0x466 SWAP2 SWAP1 PUSH2 0x20DE JUMP JUMPDEST PUSH2 0x470 SWAP2 SWAP1 PUSH2 0x207C JUMP JUMPDEST SWAP1 POP PUSH17 0x800000000000000000000000000000000 DUP2 LT ISZERO PUSH2 0x4A2 JUMPI PUSH2 0x494 DUP2 PUSH2 0xDB7 JUMP JUMPDEST PUSH1 0x7F SWAP5 POP SWAP5 POP POP POP POP PUSH2 0x4D5 JUMP JUMPDEST PUSH1 0x0 PUSH2 0x4AD DUP3 PUSH2 0x15BB JUMP JUMPDEST SWAP1 POP PUSH2 0x4CB DUP2 PUSH1 0x7F PUSH2 0x4BF SWAP2 SWAP1 PUSH2 0x216C JUMP JUMPDEST PUSH1 0xFF AND DUP4 SWAP1 SHR DUP3 PUSH2 0x169D JUMP JUMPDEST DUP2 SWAP6 POP SWAP6 POP POP POP POP POP JUMPDEST SWAP5 POP SWAP5 SWAP3 POP POP POP JUMP JUMPDEST PUSH1 0x0 DUP1 PUSH1 0x0 SWAP1 POP PUSH1 0x0 DUP1 PUSH1 0x0 PUSH16 0xD3094C70F034DE4B96FF7D5B6F99FCD8 DUP7 LT PUSH2 0x559 JUMPI PUSH16 0x40000000000000000000000000000000 DUP5 PUSH2 0x51D SWAP2 SWAP1 PUSH2 0x1FEF JUMP JUMPDEST SWAP4 POP PUSH16 0xD3094C70F034DE4B96FF7D5B6F99FCD8 PUSH16 0x80000000000000000000000000000000 DUP8 PUSH2 0x54C SWAP2 SWAP1 PUSH2 0x20DE JUMP JUMPDEST PUSH2 0x556 SWAP2 SWAP1 PUSH2 0x207C JUMP JUMPDEST SWAP6 POP JUMPDEST PUSH16 0xA45AF1E1F40C333B3DE1DB4DD55F29A7 DUP7 LT PUSH2 0x5C8 JUMPI PUSH16 0x20000000000000000000000000000000 DUP5 PUSH2 0x58C SWAP2 SWAP1 PUSH2 0x1FEF JUMP JUMPDEST SWAP4 POP PUSH16 0xA45AF1E1F40C333B3DE1DB4DD55F29A7 PUSH16 0x80000000000000000000000000000000 DUP8 PUSH2 0x5BB SWAP2 SWAP1 PUSH2 0x20DE JUMP JUMPDEST PUSH2 0x5C5 SWAP2 SWAP1 PUSH2 0x207C JUMP JUMPDEST SWAP6 POP JUMPDEST PUSH16 0x910B022DB7AE67CE76B441C27035C6A1 DUP7 LT PUSH2 0x637 JUMPI PUSH16 0x10000000000000000000000000000000 DUP5 PUSH2 0x5FB SWAP2 SWAP1 PUSH2 0x1FEF JUMP JUMPDEST SWAP4 POP PUSH16 0x910B022DB7AE67CE76B441C27035C6A1 PUSH16 0x80000000000000000000000000000000 DUP8 PUSH2 0x62A SWAP2 SWAP1 PUSH2 0x20DE JUMP JUMPDEST PUSH2 0x634 SWAP2 SWAP1 PUSH2 0x207C JUMP JUMPDEST SWAP6 POP JUMPDEST PUSH16 0x88415ABBE9A76BEAD8D00CF112E4D4A8 DUP7 LT PUSH2 0x6A6 JUMPI PUSH16 0x8000000000000000000000000000000 DUP5 PUSH2 0x66A SWAP2 SWAP1 PUSH2 0x1FEF JUMP JUMPDEST SWAP4 POP PUSH16 0x88415ABBE9A76BEAD8D00CF112E4D4A8 PUSH16 0x80000000000000000000000000000000 DUP8 PUSH2 0x699 SWAP2 SWAP1 PUSH2 0x20DE JUMP JUMPDEST PUSH2 0x6A3 SWAP2 SWAP1 PUSH2 0x207C JUMP JUMPDEST SWAP6 POP JUMPDEST PUSH16 0x84102B00893F64C705E841D5D4064BD3 DUP7 LT PUSH2 0x715 JUMPI PUSH16 0x4000000000000000000000000000000 DUP5 PUSH2 0x6D9 SWAP2 SWAP1 PUSH2 0x1FEF JUMP JUMPDEST SWAP4 POP PUSH16 0x84102B00893F64C705E841D5D4064BD3 PUSH16 0x80000000000000000000000000000000 DUP8 PUSH2 0x708 SWAP2 SWAP1 PUSH2 0x20DE JUMP JUMPDEST PUSH2 0x712 SWAP2 SWAP1 PUSH2 0x207C JUMP JUMPDEST SWAP6 POP JUMPDEST PUSH16 0x8204055AAEF1C8BD5C3259F4822735A2 DUP7 LT PUSH2 0x784 JUMPI PUSH16 0x2000000000000000000000000000000 DUP5 PUSH2 0x748 SWAP2 SWAP1 PUSH2 0x1FEF JUMP JUMPDEST SWAP4 POP PUSH16 0x8204055AAEF1C8BD5C3259F4822735A2 PUSH16 0x80000000000000000000000000000000 DUP8 PUSH2 0x777 SWAP2 SWAP1 PUSH2 0x20DE JUMP JUMPDEST PUSH2 0x781 SWAP2 SWAP1 PUSH2 0x207C JUMP JUMPDEST SWAP6 POP JUMPDEST PUSH16 0x810100AB00222D861931C15E39B44E99 DUP7 LT PUSH2 0x7F3 JUMPI PUSH16 0x1000000000000000000000000000000 DUP5 PUSH2 0x7B7 SWAP2 SWAP1 PUSH2 0x1FEF JUMP JUMPDEST SWAP4 POP PUSH16 0x810100AB00222D861931C15E39B44E99 PUSH16 0x80000000000000000000000000000000 DUP8 PUSH2 0x7E6 SWAP2 SWAP1 PUSH2 0x20DE JUMP JUMPDEST PUSH2 0x7F0 SWAP2 SWAP1 PUSH2 0x207C JUMP JUMPDEST SWAP6 POP JUMPDEST PUSH16 0x808040155AABBBE9451521693554F733 DUP7 LT PUSH2 0x861 JUMPI PUSH15 0x800000000000000000000000000000 DUP5 PUSH2 0x825 SWAP2 SWAP1 PUSH2 0x1FEF JUMP JUMPDEST SWAP4 POP PUSH16 0x808040155AABBBE9451521693554F733 PUSH16 0x80000000000000000000000000000000 DUP8 PUSH2 0x854 SWAP2 SWAP1 PUSH2 0x20DE JUMP JUMPDEST PUSH2 0x85E SWAP2 SWAP1 PUSH2 0x207C JUMP JUMPDEST SWAP6 POP JUMPDEST PUSH16 0x80000000000000000000000000000000 DUP7 PUSH2 0x87D SWAP2 SWAP1 PUSH2 0x2138 JUMP JUMPDEST SWAP3 POP DUP3 SWAP2 POP PUSH16 0x80000000000000000000000000000000 DUP4 DUP5 PUSH2 0x89F SWAP2 SWAP1 PUSH2 0x20DE JUMP JUMPDEST PUSH2 0x8A9 SWAP2 SWAP1 PUSH2 0x207C JUMP JUMPDEST SWAP1 POP PUSH17 0x100000000000000000000000000000000 DUP4 PUSH17 0x100000000000000000000000000000000 PUSH2 0x8DA SWAP2 SWAP1 PUSH2 0x2138 JUMP JUMPDEST DUP4 PUSH2 0x8E5 SWAP2 SWAP1 PUSH2 0x20DE JUMP JUMPDEST PUSH2 0x8EF SWAP2 SWAP1 PUSH2 0x207C JUMP JUMPDEST DUP5 PUSH2 0x8FA SWAP2 SWAP1 PUSH2 0x1FEF JUMP JUMPDEST SWAP4 POP PUSH16 0x80000000000000000000000000000000 DUP2 DUP4 PUSH2 0x919 SWAP2 SWAP1 PUSH2 0x20DE JUMP JUMPDEST PUSH2 0x923 SWAP2 SWAP1 PUSH2 0x207C JUMP JUMPDEST SWAP2 POP PUSH17 0x200000000000000000000000000000000 DUP4 PUSH16 0xAAAAAAAAAAAAAAAAAAAAAAAAAAAAAAAA PUSH2 0x953 SWAP2 SWAP1 PUSH2 0x2138 JUMP JUMPDEST DUP4 PUSH2 0x95E SWAP2 SWAP1 PUSH2 0x20DE JUMP JUMPDEST PUSH2 0x968 SWAP2 SWAP1 PUSH2 0x207C JUMP JUMPDEST DUP5 PUSH2 0x973 SWAP2 SWAP1 PUSH2 0x1FEF JUMP JUMPDEST SWAP4 POP PUSH16 0x80000000000000000000000000000000 DUP2 DUP4 PUSH2 0x992 SWAP2 SWAP1 PUSH2 0x20DE JUMP JUMPDEST PUSH2 0x99C SWAP2 SWAP1 PUSH2 0x207C JUMP JUMPDEST SWAP2 POP PUSH17 0x300000000000000000000000000000000 DUP4 PUSH16 0x99999999999999999999999999999999 PUSH2 0x9CC SWAP2 SWAP1 PUSH2 0x2138 JUMP JUMPDEST DUP4 PUSH2 0x9D7 SWAP2 SWAP1 PUSH2 0x20DE JUMP JUMPDEST PUSH2 0x9E1 SWAP2 SWAP1 PUSH2 0x207C JUMP JUMPDEST DUP5 PUSH2 0x9EC SWAP2 SWAP1 PUSH2 0x1FEF JUMP JUMPDEST SWAP4 POP PUSH16 0x80000000000000000000000000000000 DUP2 DUP4 PUSH2 0xA0B SWAP2 SWAP1 PUSH2 0x20DE JUMP JUMPDEST PUSH2 0xA15 SWAP2 SWAP1 PUSH2 0x207C JUMP JUMPDEST SWAP2 POP PUSH17 0x400000000000000000000000000000000 DUP4 PUSH16 0x92492492492492492492492492492492 PUSH2 0xA45 SWAP2 SWAP1 PUSH2 0x2138 JUMP JUMPDEST DUP4 PUSH2 0xA50 SWAP2 SWAP1 PUSH2 0x20DE JUMP JUMPDEST PUSH2 0xA5A SWAP2 SWAP1 PUSH2 0x207C JUMP JUMPDEST DUP5 PUSH2 0xA65 SWAP2 SWAP1 PUSH2 0x1FEF JUMP JUMPDEST SWAP4 POP PUSH16 0x80000000000000000000000000000000 DUP2 DUP4 PUSH2 0xA84 SWAP2 SWAP1 PUSH2 0x20DE JUMP JUMPDEST PUSH2 0xA8E SWAP2 SWAP1 PUSH2 0x207C JUMP JUMPDEST SWAP2 POP PUSH17 0x500000000000000000000000000000000 DUP4 PUSH16 0x8E38E38E38E38E38E38E38E38E38E38E PUSH2 0xABE SWAP2 SWAP1 PUSH2 0x2138 JUMP JUMPDEST DUP4 PUSH2 0xAC9 SWAP2 SWAP1 PUSH2 0x20DE JUMP JUMPDEST PUSH2 0xAD3 SWAP2 SWAP1 PUSH2 0x207C JUMP JUMPDEST DUP5 PUSH2 0xADE SWAP2 SWAP1 PUSH2 0x1FEF JUMP JUMPDEST SWAP4 POP PUSH16 0x80000000000000000000000000000000 DUP2 DUP4 PUSH2 0xAFD SWAP2 SWAP1 PUSH2 0x20DE JUMP JUMPDEST PUSH2 0xB07 SWAP2 SWAP1 PUSH2 0x207C JUMP JUMPDEST SWAP2 POP PUSH17 0x600000000000000000000000000000000 DUP4 PUSH16 0x8BA2E8BA2E8BA2E8BA2E8BA2E8BA2E8B PUSH2 0xB37 SWAP2 SWAP1 PUSH2 0x2138 JUMP JUMPDEST DUP4 PUSH2 0xB42 SWAP2 SWAP1 PUSH2 0x20DE JUMP JUMPDEST PUSH2 0xB4C SWAP2 SWAP1 PUSH2 0x207C JUMP JUMPDEST DUP5 PUSH2 0xB57 SWAP2 SWAP1 PUSH2 0x1FEF JUMP JUMPDEST SWAP4 POP PUSH16 0x80000000000000000000000000000000 DUP2 DUP4 PUSH2 0xB76 SWAP2 SWAP1 PUSH2 0x20DE JUMP JUMPDEST PUSH2 0xB80 SWAP2 SWAP1 PUSH2 0x207C JUMP JUMPDEST SWAP2 POP PUSH17 0x700000000000000000000000000000000 DUP4 PUSH16 0x89D89D89D89D89D89D89D89D89D89D89 PUSH2 0xBB0 SWAP2 SWAP1 PUSH2 0x2138 JUMP JUMPDEST DUP4 PUSH2 0xBBB SWAP2 SWAP1 PUSH2 0x20DE JUMP JUMPDEST PUSH2 0xBC5 SWAP2 SWAP1 PUSH2 0x207C JUMP JUMPDEST DUP5 PUSH2 0xBD0 SWAP2 SWAP1 PUSH2 0x1FEF JUMP JUMPDEST SWAP4 POP PUSH16 0x80000000000000000000000000000000 DUP2 DUP4 PUSH2 0xBEF SWAP2 SWAP1 PUSH2 0x20DE JUMP JUMPDEST PUSH2 0xBF9 SWAP2 SWAP1 PUSH2 0x207C JUMP JUMPDEST SWAP2 POP PUSH17 0x800000000000000000000000000000000 DUP4 PUSH16 0x88888888888888888888888888888888 PUSH2 0xC29 SWAP2 SWAP1 PUSH2 0x2138 JUMP JUMPDEST DUP4 PUSH2 0xC34 SWAP2 SWAP1 PUSH2 0x20DE JUMP JUMPDEST PUSH2 0xC3E SWAP2 SWAP1 PUSH2 0x207C JUMP JUMPDEST DUP5 PUSH2 0xC49 SWAP2 SWAP1 PUSH2 0x1FEF JUMP JUMPDEST SWAP4 POP DUP4 SWAP5 POP POP POP POP POP SWAP2 SWAP1 POP JUMP JUMPDEST PUSH1 0x0 DUP1 PUSH1 0x0 SWAP1 POP PUSH1 0x0 DUP4 SWAP1 POP PUSH17 0x100000000000000000000000000000000 DUP2 LT PUSH2 0xCCF JUMPI PUSH1 0x0 PUSH2 0xCA1 PUSH16 0x80000000000000000000000000000000 DUP4 PUSH2 0xC9C SWAP2 SWAP1 PUSH2 0x207C JUMP JUMPDEST PUSH2 0x1DAC JUMP JUMPDEST SWAP1 POP DUP1 PUSH1 0xFF AND DUP3 SWAP1 SHR SWAP2 POP PUSH16 0x80000000000000000000000000000000 DUP2 PUSH1 0xFF AND PUSH2 0xCCB SWAP2 SWAP1 PUSH2 0x20DE JUMP JUMPDEST SWAP3 POP POP JUMPDEST PUSH16 0x80000000000000000000000000000000 DUP2 GT ISZERO PUSH2 0xD77 JUMPI PUSH1 0x0 PUSH1 0x7F SWAP1 POP JUMPDEST PUSH1 0x0 DUP2 PUSH1 0xFF AND GT ISZERO PUSH2 0xD75 JUMPI PUSH16 0x80000000000000000000000000000000 DUP3 DUP4 PUSH2 0xD17 SWAP2 SWAP1 PUSH2 0x20DE JUMP JUMPDEST PUSH2 0xD21 SWAP2 SWAP1 PUSH2 0x207C JUMP JUMPDEST SWAP2 POP PUSH17 0x100000000000000000000000000000000 DUP3 LT PUSH2 0xD64 JUMPI PUSH1 0x1 DUP3 SWAP1 SHR SWAP2 POP PUSH1 0x1 DUP2 PUSH2 0xD4F SWAP2 SWAP1 PUSH2 0x216C JUMP JUMPDEST PUSH1 0xFF AND PUSH1 0x1 SWAP1 SHL DUP4 PUSH2 0xD61 SWAP2 SWAP1 PUSH2 0x1FEF JUMP JUMPDEST SWAP3 POP JUMPDEST DUP1 PUSH2 0xD6E SWAP1 PUSH2 0x21FA JUMP JUMPDEST SWAP1 POP PUSH2 0xCEE JUMP JUMPDEST POP JUMPDEST PUSH16 0x5B9DE1D10BF4103D647B0955897BA80 PUSH16 0x3F80FE03F80FE03F80FE03F80FE03F8 DUP4 PUSH2 0xDA4 SWAP2 SWAP1 PUSH2 0x20DE JUMP JUMPDEST PUSH2 0xDAE SWAP2 SWAP1 PUSH2 0x207C JUMP JUMPDEST SWAP3 POP POP POP SWAP2 SWAP1 POP JUMP JUMPDEST PUSH1 0x0 DUP1 PUSH1 0x0 SWAP1 POP PUSH1 0x0 DUP1 PUSH16 0x10000000000000000000000000000000 DUP6 PUSH2 0xDDD SWAP2 SWAP1 PUSH2 0x2256 JUMP JUMPDEST SWAP2 POP DUP2 SWAP1 POP PUSH16 0x80000000000000000000000000000000 DUP3 DUP3 PUSH2 0xDFF SWAP2 SWAP1 PUSH2 0x20DE JUMP JUMPDEST PUSH2 0xE09 SWAP2 SWAP1 PUSH2 0x207C JUMP JUMPDEST SWAP1 POP PUSH8 0x10E1B3BE415A0000 DUP2 PUSH2 0xE1F SWAP2 SWAP1 PUSH2 0x20DE JUMP JUMPDEST DUP4 PUSH2 0xE2A SWAP2 SWAP1 PUSH2 0x1FEF JUMP JUMPDEST SWAP3 POP PUSH16 0x80000000000000000000000000000000 DUP3 DUP3 PUSH2 0xE49 SWAP2 SWAP1 PUSH2 0x20DE JUMP JUMPDEST PUSH2 0xE53 SWAP2 SWAP1 PUSH2 0x207C JUMP JUMPDEST SWAP1 POP PUSH8 0x5A0913F6B1E0000 DUP2 PUSH2 0xE69 SWAP2 SWAP1 PUSH2 0x20DE JUMP JUMPDEST DUP4 PUSH2 0xE74 SWAP2 SWAP1 PUSH2 0x1FEF JUMP JUMPDEST SWAP3 POP PUSH16 0x80000000000000000000000000000000 DUP3 DUP3 PUSH2 0xE93 SWAP2 SWAP1 PUSH2 0x20DE JUMP JUMPDEST PUSH2 0xE9D SWAP2 SWAP1 PUSH2 0x207C JUMP JUMPDEST SWAP1 POP PUSH8 0x168244FDAC78000 DUP2 PUSH2 0xEB3 SWAP2 SWAP1 PUSH2 0x20DE JUMP JUMPDEST DUP4 PUSH2 0xEBE SWAP2 SWAP1 PUSH2 0x1FEF JUMP JUMPDEST SWAP3 POP PUSH16 0x80000000000000000000000000000000 DUP3 DUP3 PUSH2 0xEDD SWAP2 SWAP1 PUSH2 0x20DE JUMP JUMPDEST PUSH2 0xEE7 SWAP2 SWAP1 PUSH2 0x207C JUMP JUMPDEST SWAP1 POP PUSH7 0x4807432BC18000 DUP2 PUSH2 0xEFC SWAP2 SWAP1 PUSH2 0x20DE JUMP JUMPDEST DUP4 PUSH2 0xF07 SWAP2 SWAP1 PUSH2 0x1FEF JUMP JUMPDEST SWAP3 POP PUSH16 0x80000000000000000000000000000000 DUP3 DUP3 PUSH2 0xF26 SWAP2 SWAP1 PUSH2 0x20DE JUMP JUMPDEST PUSH2 0xF30 SWAP2 SWAP1 PUSH2 0x207C JUMP JUMPDEST SWAP1 POP PUSH7 0xC0135DCA04000 DUP2 PUSH2 0xF45 SWAP2 SWAP1 PUSH2 0x20DE JUMP JUMPDEST DUP4 PUSH2 0xF50 SWAP2 SWAP1 PUSH2 0x1FEF JUMP JUMPDEST SWAP3 POP PUSH16 0x80000000000000000000000000000000 DUP3 DUP3 PUSH2 0xF6F SWAP2 SWAP1 PUSH2 0x20DE JUMP JUMPDEST PUSH2 0xF79 SWAP2 SWAP1 PUSH2 0x207C JUMP JUMPDEST SWAP1 POP PUSH7 0x1B707B1CDC000 DUP2 PUSH2 0xF8E SWAP2 SWAP1 PUSH2 0x20DE JUMP JUMPDEST DUP4 PUSH2 0xF99 SWAP2 SWAP1 PUSH2 0x1FEF JUMP JUMPDEST SWAP3 POP PUSH16 0x80000000000000000000000000000000 DUP3 DUP3 PUSH2 0xFB8 SWAP2 SWAP1 PUSH2 0x20DE JUMP JUMPDEST PUSH2 0xFC2 SWAP2 SWAP1 PUSH2 0x207C JUMP JUMPDEST SWAP1 POP PUSH6 0x36E0F639B800 DUP2 PUSH2 0xFD6 SWAP2 SWAP1 PUSH2 0x20DE JUMP JUMPDEST DUP4 PUSH2 0xFE1 SWAP2 SWAP1 PUSH2 0x1FEF JUMP JUMPDEST SWAP3 POP PUSH16 0x80000000000000000000000000000000 DUP3 DUP3 PUSH2 0x1000 SWAP2 SWAP1 PUSH2 0x20DE JUMP JUMPDEST PUSH2 0x100A SWAP2 SWAP1 PUSH2 0x207C JUMP JUMPDEST SWAP1 POP PUSH6 0x618FEE9F800 DUP2 PUSH2 0x101E SWAP2 SWAP1 PUSH2 0x20DE JUMP JUMPDEST DUP4 PUSH2 0x1029 SWAP2 SWAP1 PUSH2 0x1FEF JUMP JUMPDEST SWAP3 POP PUSH16 0x80000000000000000000000000000000 DUP3 DUP3 PUSH2 0x1048 SWAP2 SWAP1 PUSH2 0x20DE JUMP JUMPDEST PUSH2 0x1052 SWAP2 SWAP1 PUSH2 0x207C JUMP JUMPDEST SWAP1 POP PUSH5 0x9C197DCC00 DUP2 PUSH2 0x1065 SWAP2 SWAP1 PUSH2 0x20DE JUMP JUMPDEST DUP4 PUSH2 0x1070 SWAP2 SWAP1 PUSH2 0x1FEF JUMP JUMPDEST SWAP3 POP PUSH16 0x80000000000000000000000000000000 DUP3 DUP3 PUSH2 0x108F SWAP2 SWAP1 PUSH2 0x20DE JUMP JUMPDEST PUSH2 0x1099 SWAP2 SWAP1 PUSH2 0x207C JUMP JUMPDEST SWAP1 POP PUSH5 0xE30DCE400 DUP2 PUSH2 0x10AC SWAP2 SWAP1 PUSH2 0x20DE JUMP JUMPDEST DUP4 PUSH2 0x10B7 SWAP2 SWAP1 PUSH2 0x1FEF JUMP JUMPDEST SWAP3 POP PUSH16 0x80000000000000000000000000000000 DUP3 DUP3 PUSH2 0x10D6 SWAP2 SWAP1 PUSH2 0x20DE JUMP JUMPDEST PUSH2 0x10E0 SWAP2 SWAP1 PUSH2 0x207C JUMP JUMPDEST SWAP1 POP PUSH5 0x12EBD1300 DUP2 PUSH2 0x10F3 SWAP2 SWAP1 PUSH2 0x20DE JUMP JUMPDEST DUP4 PUSH2 0x10FE SWAP2 SWAP1 PUSH2 0x1FEF JUMP JUMPDEST SWAP3 POP PUSH16 0x80000000000000000000000000000000 DUP3 DUP3 PUSH2 0x111D SWAP2 SWAP1 PUSH2 0x20DE JUMP JUMPDEST PUSH2 0x1127 SWAP2 SWAP1 PUSH2 0x207C JUMP JUMPDEST SWAP1 POP PUSH4 0x17499F00 DUP2 PUSH2 0x1139 SWAP2 SWAP1 PUSH2 0x20DE JUMP JUMPDEST DUP4 PUSH2 0x1144 SWAP2 SWAP1 PUSH2 0x1FEF JUMP JUMPDEST SWAP3 POP PUSH16 0x80000000000000000000000000000000 DUP3 DUP3 PUSH2 0x1163 SWAP2 SWAP1 PUSH2 0x20DE JUMP JUMPDEST PUSH2 0x116D SWAP2 SWAP1 PUSH2 0x207C JUMP JUMPDEST SWAP1 POP PUSH4 0x1A9D480 DUP2 PUSH2 0x117F SWAP2 SWAP1 PUSH2 0x20DE JUMP JUMPDEST DUP4 PUSH2 0x118A SWAP2 SWAP1 PUSH2 0x1FEF JUMP JUMPDEST SWAP3 POP PUSH16 0x80000000000000000000000000000000 DUP3 DUP3 PUSH2 0x11A9 SWAP2 SWAP1 PUSH2 0x20DE JUMP JUMPDEST PUSH2 0x11B3 SWAP2 SWAP1 PUSH2 0x207C JUMP JUMPDEST SWAP1 POP PUSH3 0x1C6380 DUP2 PUSH2 0x11C4 SWAP2 SWAP1 PUSH2 0x20DE JUMP JUMPDEST DUP4 PUSH2 0x11CF SWAP2 SWAP1 PUSH2 0x1FEF JUMP JUMPDEST SWAP3 POP PUSH16 0x80000000000000000000000000000000 DUP3 DUP3 PUSH2 0x11EE SWAP2 SWAP1 PUSH2 0x20DE JUMP JUMPDEST PUSH2 0x11F8 SWAP2 SWAP1 PUSH2 0x207C JUMP JUMPDEST SWAP1 POP PUSH3 0x1C638 DUP2 PUSH2 0x1209 SWAP2 SWAP1 PUSH2 0x20DE JUMP JUMPDEST DUP4 PUSH2 0x1214 SWAP2 SWAP1 PUSH2 0x1FEF JUMP JUMPDEST SWAP3 POP PUSH16 0x80000000000000000000000000000000 DUP3 DUP3 PUSH2 0x1233 SWAP2 SWAP1 PUSH2 0x20DE JUMP JUMPDEST PUSH2 0x123D SWAP2 SWAP1 PUSH2 0x207C JUMP JUMPDEST SWAP1 POP PUSH2 0x1AB8 DUP2 PUSH2 0x124D SWAP2 SWAP1 PUSH2 0x20DE JUMP JUMPDEST DUP4 PUSH2 0x1258 SWAP2 SWAP1 PUSH2 0x1FEF JUMP JUMPDEST SWAP3 POP PUSH16 0x80000000000000000000000000000000 DUP3 DUP3 PUSH2 0x1277 SWAP2 SWAP1 PUSH2 0x20DE JUMP JUMPDEST PUSH2 0x1281 SWAP2 SWAP1 PUSH2 0x207C JUMP JUMPDEST SWAP1 POP PUSH2 0x17C DUP2 PUSH2 0x1291 SWAP2 SWAP1 PUSH2 0x20DE JUMP JUMPDEST DUP4 PUSH2 0x129C SWAP2 SWAP1 PUSH2 0x1FEF JUMP JUMPDEST SWAP3 POP PUSH16 0x80000000000000000000000000000000 DUP3 DUP3 PUSH2 0x12BB SWAP2 SWAP1 PUSH2 0x20DE JUMP JUMPDEST PUSH2 0x12C5 SWAP2 SWAP1 PUSH2 0x207C JUMP JUMPDEST SWAP1 POP PUSH1 0x14 DUP2 PUSH2 0x12D4 SWAP2 SWAP1 PUSH2 0x20DE JUMP JUMPDEST DUP4 PUSH2 0x12DF SWAP2 SWAP1 PUSH2 0x1FEF JUMP JUMPDEST SWAP3 POP PUSH16 0x80000000000000000000000000000000 DUP3 DUP3 PUSH2 0x12FE SWAP2 SWAP1 PUSH2 0x20DE JUMP JUMPDEST PUSH2 0x1308 SWAP2 SWAP1 PUSH2 0x207C JUMP JUMPDEST SWAP1 POP PUSH1 0x1 DUP2 PUSH2 0x1317 SWAP2 SWAP1 PUSH2 0x20DE JUMP JUMPDEST DUP4 PUSH2 0x1322 SWAP2 SWAP1 PUSH2 0x1FEF JUMP JUMPDEST SWAP3 POP PUSH16 0x80000000000000000000000000000000 DUP3 PUSH8 0x21C3677C82B40000 DUP6 PUSH2 0x134A SWAP2 SWAP1 PUSH2 0x207C JUMP JUMPDEST PUSH2 0x1354 SWAP2 SWAP1 PUSH2 0x1FEF JUMP JUMPDEST PUSH2 0x135E SWAP2 SWAP1 PUSH2 0x1FEF JUMP JUMPDEST SWAP3 POP PUSH1 0x0 PUSH16 0x10000000000000000000000000000000 DUP7 AND EQ PUSH2 0x13B6 JUMPI PUSH17 0x18EBEF9EAC820AE8682B9793AC6D1E776 PUSH17 0x1C3D6A24ED82218787D624D3E5EBA95F9 DUP5 PUSH2 0x13A9 SWAP2 SWAP1 PUSH2 0x20DE JUMP JUMPDEST PUSH2 0x13B3 SWAP2 SWAP1 PUSH2 0x207C JUMP JUMPDEST SWAP3 POP JUMPDEST PUSH1 0x0 PUSH16 0x20000000000000000000000000000000 DUP7 AND EQ PUSH2 0x140C JUMPI PUSH17 0x1368B2FC6F9609FE7ACEB46AA619BAED4 PUSH17 0x18EBEF9EAC820AE8682B9793AC6D1E778 DUP5 PUSH2 0x13FF SWAP2 SWAP1 PUSH2 0x20DE JUMP JUMPDEST PUSH2 0x1409 SWAP2 SWAP1 PUSH2 0x207C JUMP JUMPDEST SWAP3 POP JUMPDEST PUSH1 0x0 PUSH16 0x40000000000000000000000000000000 DUP7 AND EQ PUSH2 0x1461 JUMPI PUSH16 0xBC5AB1B16779BE3575BD8F0520A9F21F PUSH17 0x1368B2FC6F9609FE7ACEB46AA619BAED5 DUP5 PUSH2 0x1454 SWAP2 SWAP1 PUSH2 0x20DE JUMP JUMPDEST PUSH2 0x145E SWAP2 SWAP1 PUSH2 0x207C JUMP JUMPDEST SWAP3 POP JUMPDEST PUSH1 0x0 PUSH16 0x80000000000000000000000000000000 DUP7 AND EQ PUSH2 0x14B5 JUMPI PUSH16 0x454AAA8EFE072E7F6DDBAB84B40A55C9 PUSH16 0xBC5AB1B16779BE3575BD8F0520A9F21E DUP5 PUSH2 0x14A8 SWAP2 SWAP1 PUSH2 0x20DE JUMP JUMPDEST PUSH2 0x14B2 SWAP2 SWAP1 PUSH2 0x207C JUMP JUMPDEST SWAP3 POP JUMPDEST PUSH1 0x0 PUSH17 0x100000000000000000000000000000000 DUP7 AND EQ PUSH2 0x150A JUMPI PUSH16 0x960AADC109E7A3BF4578099615711EA PUSH16 0x454AAA8EFE072E7F6DDBAB84B40A55C5 DUP5 PUSH2 0x14FD SWAP2 SWAP1 PUSH2 0x20DE JUMP JUMPDEST PUSH2 0x1507 SWAP2 SWAP1 PUSH2 0x207C JUMP JUMPDEST SWAP3 POP JUMPDEST PUSH1 0x0 PUSH17 0x200000000000000000000000000000000 DUP7 AND EQ PUSH2 0x155E JUMPI PUSH15 0x2BF84208204F5977F9A8CF01FDCE3D PUSH16 0x960AADC109E7A3BF4578099615711D7 DUP5 PUSH2 0x1551 SWAP2 SWAP1 PUSH2 0x20DE JUMP JUMPDEST PUSH2 0x155B SWAP2 SWAP1 PUSH2 0x207C JUMP JUMPDEST SWAP3 POP JUMPDEST PUSH1 0x0 PUSH17 0x400000000000000000000000000000000 DUP7 AND EQ PUSH2 0x15B0 JUMPI PUSH14 0x3C6AB775DD0B95B4CBEE7E65D11 PUSH15 0x2BF84208204F5977F9A8CF01FDC307 DUP5 PUSH2 0x15A3 SWAP2 SWAP1 PUSH2 0x20DE JUMP JUMPDEST PUSH2 0x15AD SWAP2 SWAP1 PUSH2 0x207C JUMP JUMPDEST SWAP3 POP JUMPDEST DUP3 SWAP4 POP POP POP POP SWAP2 SWAP1 POP JUMP JUMPDEST PUSH1 0x0 DUP1 PUSH1 0x20 SWAP1 POP PUSH1 0x0 PUSH1 0x7F SWAP1 POP JUMPDEST DUP1 PUSH1 0xFF AND PUSH1 0x1 DUP4 PUSH2 0x15DA SWAP2 SWAP1 PUSH2 0x2045 JUMP JUMPDEST PUSH1 0xFF AND LT ISZERO PUSH2 0x1630 JUMPI PUSH1 0x0 PUSH1 0x2 DUP3 DUP5 PUSH2 0x15F3 SWAP2 SWAP1 PUSH2 0x2045 JUMP JUMPDEST PUSH2 0x15FD SWAP2 SWAP1 PUSH2 0x20AD JUMP JUMPDEST SWAP1 POP DUP5 PUSH1 0x1 DUP3 PUSH1 0xFF AND PUSH1 0x80 DUP2 LT PUSH2 0x1617 JUMPI PUSH2 0x1616 PUSH2 0x2343 JUMP JUMPDEST JUMPDEST ADD SLOAD LT PUSH2 0x1626 JUMPI DUP1 SWAP3 POP PUSH2 0x162A JUMP JUMPDEST DUP1 SWAP2 POP JUMPDEST POP PUSH2 0x15C9 JUMP JUMPDEST DUP4 PUSH1 0x1 DUP3 PUSH1 0xFF AND PUSH1 0x80 DUP2 LT PUSH2 0x1648 JUMPI PUSH2 0x1647 PUSH2 0x2343 JUMP JUMPDEST JUMPDEST ADD SLOAD LT PUSH2 0x1659 JUMPI DUP1 SWAP3 POP POP POP PUSH2 0x1698 JUMP JUMPDEST DUP4 PUSH1 0x1 DUP4 PUSH1 0xFF AND PUSH1 0x80 DUP2 LT PUSH2 0x1671 JUMPI PUSH2 0x1670 PUSH2 0x2343 JUMP JUMPDEST JUMPDEST ADD SLOAD LT PUSH2 0x1682 JUMPI DUP2 SWAP3 POP POP POP PUSH2 0x1698 JUMP JUMPDEST PUSH1 0x0 PUSH2 0x1691 JUMPI PUSH2 0x1690 PUSH2 0x2287 JUMP JUMPDEST JUMPDEST PUSH1 0x0 SWAP3 POP POP POP JUMPDEST SWAP2 SWAP1 POP JUMP JUMPDEST PUSH1 0x0 DUP1 DUP4 SWAP1 POP PUSH1 0x0 DUP4 PUSH1 0xFF AND DUP6 DUP4 PUSH2 0x16B5 SWAP2 SWAP1 PUSH2 0x20DE JUMP JUMPDEST SWAP1 SHR SWAP2 POP PUSH16 0x3442C4E6074A82F1797F72AC0000000 DUP3 PUSH2 0x16D5 SWAP2 SWAP1 PUSH2 0x20DE JUMP JUMPDEST DUP2 PUSH2 0x16E0 SWAP2 SWAP1 PUSH2 0x1FEF JUMP JUMPDEST SWAP1 POP DUP4 PUSH1 0xFF AND DUP6 DUP4 PUSH2 0x16F2 SWAP2 SWAP1 PUSH2 0x20DE JUMP JUMPDEST SWAP1 SHR SWAP2 POP PUSH16 0x116B96F757C380FB287FD0E40000000 DUP3 PUSH2 0x1712 SWAP2 SWAP1 PUSH2 0x20DE JUMP JUMPDEST DUP2 PUSH2 0x171D SWAP2 SWAP1 PUSH2 0x1FEF JUMP JUMPDEST SWAP1 POP DUP4 PUSH1 0xFF AND DUP6 DUP4 PUSH2 0x172F SWAP2 SWAP1 PUSH2 0x20DE JUMP JUMPDEST SWAP1 SHR SWAP2 POP PUSH15 0x45AE5BDD5F0E03ECA1FF4390000000 DUP3 PUSH2 0x174E SWAP2 SWAP1 PUSH2 0x20DE JUMP JUMPDEST DUP2 PUSH2 0x1759 SWAP2 SWAP1 PUSH2 0x1FEF JUMP JUMPDEST SWAP1 POP DUP4 PUSH1 0xFF AND DUP6 DUP4 PUSH2 0x176B SWAP2 SWAP1 PUSH2 0x20DE JUMP JUMPDEST SWAP1 SHR SWAP2 POP PUSH15 0xDEFABF91302CD95B9FFDA50000000 DUP3 PUSH2 0x178A SWAP2 SWAP1 PUSH2 0x20DE JUMP JUMPDEST DUP2 PUSH2 0x1795 SWAP2 SWAP1 PUSH2 0x1FEF JUMP JUMPDEST SWAP1 POP DUP4 PUSH1 0xFF AND DUP6 DUP4 PUSH2 0x17A7 SWAP2 SWAP1 PUSH2 0x20DE JUMP JUMPDEST SWAP1 SHR SWAP2 POP PUSH15 0x2529CA9832B22439EFFF9B8000000 DUP3 PUSH2 0x17C6 SWAP2 SWAP1 PUSH2 0x20DE JUMP JUMPDEST DUP2 PUSH2 0x17D1 SWAP2 SWAP1 PUSH2 0x1FEF JUMP JUMPDEST SWAP1 POP DUP4 PUSH1 0xFF AND DUP6 DUP4 PUSH2 0x17E3 SWAP2 SWAP1 PUSH2 0x20DE JUMP JUMPDEST SWAP1 SHR SWAP2 POP PUSH14 0x54F1CF12BD04E516B6DA88000000 DUP3 PUSH2 0x1801 SWAP2 SWAP1 PUSH2 0x20DE JUMP JUMPDEST DUP2 PUSH2 0x180C SWAP2 SWAP1 PUSH2 0x1FEF JUMP JUMPDEST SWAP1 POP DUP4 PUSH1 0xFF AND DUP6 DUP4 PUSH2 0x181E SWAP2 SWAP1 PUSH2 0x20DE JUMP JUMPDEST SWAP1 SHR SWAP2 POP PUSH14 0xA9E39E257A09CA2D6DB51000000 DUP3 PUSH2 0x183C SWAP2 SWAP1 PUSH2 0x20DE JUMP JUMPDEST DUP2 PUSH2 0x1847 SWAP2 SWAP1 PUSH2 0x1FEF JUMP JUMPDEST SWAP1 POP DUP4 PUSH1 0xFF AND DUP6 DUP4 PUSH2 0x1859 SWAP2 SWAP1 PUSH2 0x20DE JUMP JUMPDEST SWAP1 SHR SWAP2 POP PUSH14 0x12E066E7B839FA050C309000000 DUP3 PUSH2 0x1877 SWAP2 SWAP1 PUSH2 0x20DE JUMP JUMPDEST DUP2 PUSH2 0x1882 SWAP2 SWAP1 PUSH2 0x1FEF JUMP JUMPDEST SWAP1 POP DUP4 PUSH1 0xFF AND DUP6 DUP4 PUSH2 0x1894 SWAP2 SWAP1 PUSH2 0x20DE JUMP JUMPDEST SWAP1 SHR SWAP2 POP PUSH13 0x1E33D7D926C329A1AD1A800000 DUP3 PUSH2 0x18B1 SWAP2 SWAP1 PUSH2 0x20DE JUMP JUMPDEST DUP2 PUSH2 0x18BC SWAP2 SWAP1 PUSH2 0x1FEF JUMP JUMPDEST SWAP1 POP DUP4 PUSH1 0xFF AND DUP6 DUP4 PUSH2 0x18CE SWAP2 SWAP1 PUSH2 0x20DE JUMP JUMPDEST SWAP1 SHR SWAP2 POP PUSH13 0x2BEE513BDB4A6B19B5F800000 DUP3 PUSH2 0x18EB SWAP2 SWAP1 PUSH2 0x20DE JUMP JUMPDEST DUP2 PUSH2 0x18F6 SWAP2 SWAP1 PUSH2 0x1FEF JUMP JUMPDEST SWAP1 POP DUP4 PUSH1 0xFF AND DUP6 DUP4 PUSH2 0x1908 SWAP2 SWAP1 PUSH2 0x20DE JUMP JUMPDEST SWAP1 SHR SWAP2 POP PUSH12 0x3A9316FA79B88ECCF2A00000 DUP3 PUSH2 0x1924 SWAP2 SWAP1 PUSH2 0x20DE JUMP JUMPDEST DUP2 PUSH2 0x192F SWAP2 SWAP1 PUSH2 0x1FEF JUMP JUMPDEST SWAP1 POP DUP4 PUSH1 0xFF AND DUP6 DUP4 PUSH2 0x1941 SWAP2 SWAP1 PUSH2 0x20DE JUMP JUMPDEST SWAP1 SHR SWAP2 POP PUSH12 0x48177EBE1FA812375200000 DUP3 PUSH2 0x195D SWAP2 SWAP1 PUSH2 0x20DE JUMP JUMPDEST DUP2 PUSH2 0x1968 SWAP2 SWAP1 PUSH2 0x1FEF JUMP JUMPDEST SWAP1 POP DUP4 PUSH1 0xFF AND DUP6 DUP4 PUSH2 0x197A SWAP2 SWAP1 PUSH2 0x20DE JUMP JUMPDEST SWAP1 SHR SWAP2 POP PUSH11 0x5263FE90242DCBACF00000 DUP3 PUSH2 0x1995 SWAP2 SWAP1 PUSH2 0x20DE JUMP JUMPDEST DUP2 PUSH2 0x19A0 SWAP2 SWAP1 PUSH2 0x1FEF JUMP JUMPDEST SWAP1 POP DUP4 PUSH1 0xFF AND DUP6 DUP4 PUSH2 0x19B2 SWAP2 SWAP1 PUSH2 0x20DE JUMP JUMPDEST SWAP1 SHR SWAP2 POP PUSH11 0x57E22099C030D94100000 DUP3 PUSH2 0x19CD SWAP2 SWAP1 PUSH2 0x20DE JUMP JUMPDEST DUP2 PUSH2 0x19D8 SWAP2 SWAP1 PUSH2 0x1FEF JUMP JUMPDEST SWAP1 POP DUP4 PUSH1 0xFF AND DUP6 DUP4 PUSH2 0x19EA SWAP2 SWAP1 PUSH2 0x20DE JUMP JUMPDEST SWAP1 SHR SWAP2 POP PUSH10 0x57E22099C030D9410000 DUP3 PUSH2 0x1A04 SWAP2 SWAP1 PUSH2 0x20DE JUMP JUMPDEST DUP2 PUSH2 0x1A0F SWAP2 SWAP1 PUSH2 0x1FEF JUMP JUMPDEST SWAP1 POP DUP4 PUSH1 0xFF AND DUP6 DUP4 PUSH2 0x1A21 SWAP2 SWAP1 PUSH2 0x20DE JUMP JUMPDEST SWAP1 SHR SWAP2 POP PUSH10 0x52B6B54569976310000 DUP3 PUSH2 0x1A3B SWAP2 SWAP1 PUSH2 0x20DE JUMP JUMPDEST DUP2 PUSH2 0x1A46 SWAP2 SWAP1 PUSH2 0x1FEF JUMP JUMPDEST SWAP1 POP DUP4 PUSH1 0xFF AND DUP6 DUP4 PUSH2 0x1A58 SWAP2 SWAP1 PUSH2 0x20DE JUMP JUMPDEST SWAP1 SHR SWAP2 POP PUSH9 0x4985F67696BF748000 DUP3 PUSH2 0x1A71 SWAP2 SWAP1 PUSH2 0x20DE JUMP JUMPDEST DUP2 PUSH2 0x1A7C SWAP2 SWAP1 PUSH2 0x1FEF JUMP JUMPDEST SWAP1 POP DUP4 PUSH1 0xFF AND DUP6 DUP4 PUSH2 0x1A8E SWAP2 SWAP1 PUSH2 0x20DE JUMP JUMPDEST SWAP1 SHR SWAP2 POP PUSH9 0x3DEA12EA99E498000 DUP3 PUSH2 0x1AA7 SWAP2 SWAP1 PUSH2 0x20DE JUMP JUMPDEST DUP2 PUSH2 0x1AB2 SWAP2 SWAP1 PUSH2 0x1FEF JUMP JUMPDEST SWAP1 POP DUP4 PUSH1 0xFF AND DUP6 DUP4 PUSH2 0x1AC4 SWAP2 SWAP1 PUSH2 0x20DE JUMP JUMPDEST SWAP1 SHR SWAP2 POP PUSH8 0x31880F2214B6E000 DUP3 PUSH2 0x1ADC SWAP2 SWAP1 PUSH2 0x20DE JUMP JUMPDEST DUP2 PUSH2 0x1AE7 SWAP2 SWAP1 PUSH2 0x1FEF JUMP JUMPDEST SWAP1 POP DUP4 PUSH1 0xFF AND DUP6 DUP4 PUSH2 0x1AF9 SWAP2 SWAP1 PUSH2 0x20DE JUMP JUMPDEST SWAP1 SHR SWAP2 POP PUSH8 0x25BCFF56EB36000 DUP3 PUSH2 0x1B11 SWAP2 SWAP1 PUSH2 0x20DE JUMP JUMPDEST DUP2 PUSH2 0x1B1C SWAP2 SWAP1 PUSH2 0x1FEF JUMP JUMPDEST SWAP1 POP DUP4 PUSH1 0xFF AND DUP6 DUP4 PUSH2 0x1B2E SWAP2 SWAP1 PUSH2 0x20DE JUMP JUMPDEST SWAP1 SHR SWAP2 POP PUSH7 0x1B722E10AB1000 DUP3 PUSH2 0x1B45 SWAP2 SWAP1 PUSH2 0x20DE JUMP JUMPDEST DUP2 PUSH2 0x1B50 SWAP2 SWAP1 PUSH2 0x1FEF JUMP JUMPDEST SWAP1 POP DUP4 PUSH1 0xFF AND DUP6 DUP4 PUSH2 0x1B62 SWAP2 SWAP1 PUSH2 0x20DE JUMP JUMPDEST SWAP1 SHR SWAP2 POP PUSH7 0x1317C70077000 DUP3 PUSH2 0x1B79 SWAP2 SWAP1 PUSH2 0x20DE JUMP JUMPDEST DUP2 PUSH2 0x1B84 SWAP2 SWAP1 PUSH2 0x1FEF JUMP JUMPDEST SWAP1 POP DUP4 PUSH1 0xFF AND DUP6 DUP4 PUSH2 0x1B96 SWAP2 SWAP1 PUSH2 0x20DE JUMP JUMPDEST SWAP1 SHR SWAP2 POP PUSH6 0xCBA84AAFA00 DUP3 PUSH2 0x1BAC SWAP2 SWAP1 PUSH2 0x20DE JUMP JUMPDEST DUP2 PUSH2 0x1BB7 SWAP2 SWAP1 PUSH2 0x1FEF JUMP JUMPDEST SWAP1 POP DUP4 PUSH1 0xFF AND DUP6 DUP4 PUSH2 0x1BC9 SWAP2 SWAP1 PUSH2 0x20DE JUMP JUMPDEST SWAP1 SHR SWAP2 POP PUSH5 0x82573A0A00 DUP3 PUSH2 0x1BDE SWAP2 SWAP1 PUSH2 0x20DE JUMP JUMPDEST DUP2 PUSH2 0x1BE9 SWAP2 SWAP1 PUSH2 0x1FEF JUMP JUMPDEST SWAP1 POP DUP4 PUSH1 0xFF AND DUP6 DUP4 PUSH2 0x1BFB SWAP2 SWAP1 PUSH2 0x20DE JUMP JUMPDEST SWAP1 SHR SWAP2 POP PUSH5 0x5035AD900 DUP3 PUSH2 0x1C10 SWAP2 SWAP1 PUSH2 0x20DE JUMP JUMPDEST DUP2 PUSH2 0x1C1B SWAP2 SWAP1 PUSH2 0x1FEF JUMP JUMPDEST SWAP1 POP DUP4 PUSH1 0xFF AND DUP6 DUP4 PUSH2 0x1C2D SWAP2 SWAP1 PUSH2 0x20DE JUMP JUMPDEST SWAP1 SHR SWAP2 POP PUSH4 0x2F881B00 DUP3 PUSH2 0x1C41 SWAP2 SWAP1 PUSH2 0x20DE JUMP JUMPDEST DUP2 PUSH2 0x1C4C SWAP2 SWAP1 PUSH2 0x1FEF JUMP JUMPDEST SWAP1 POP DUP4 PUSH1 0xFF AND DUP6 DUP4 PUSH2 0x1C5E SWAP2 SWAP1 PUSH2 0x20DE JUMP JUMPDEST SWAP1 SHR SWAP2 POP PUSH4 0x1B29340 DUP3 PUSH2 0x1C72 SWAP2 SWAP1 PUSH2 0x20DE JUMP JUMPDEST DUP2 PUSH2 0x1C7D SWAP2 SWAP1 PUSH2 0x1FEF JUMP JUMPDEST SWAP1 POP DUP4 PUSH1 0xFF AND DUP6 DUP4 PUSH2 0x1C8F SWAP2 SWAP1 PUSH2 0x20DE JUMP JUMPDEST SWAP1 SHR SWAP2 POP PUSH3 0xEFC40 DUP3 PUSH2 0x1CA2 SWAP2 SWAP1 PUSH2 0x20DE JUMP JUMPDEST DUP2 PUSH2 0x1CAD SWAP2 SWAP1 PUSH2 0x1FEF JUMP JUMPDEST SWAP1 POP DUP4 PUSH1 0xFF AND DUP6 DUP4 PUSH2 0x1CBF SWAP2 SWAP1 PUSH2 0x20DE JUMP JUMPDEST SWAP1 SHR SWAP2 POP PUSH2 0x7FE0 DUP3 PUSH2 0x1CD1 SWAP2 SWAP1 PUSH2 0x20DE JUMP JUMPDEST DUP2 PUSH2 0x1CDC SWAP2 SWAP1 PUSH2 0x1FEF JUMP JUMPDEST SWAP1 POP DUP4 PUSH1 0xFF AND DUP6 DUP4 PUSH2 0x1CEE SWAP2 SWAP1 PUSH2 0x20DE JUMP JUMPDEST SWAP1 SHR SWAP2 POP PUSH2 0x420 DUP3 PUSH2 0x1D00 SWAP2 SWAP1 PUSH2 0x20DE JUMP JUMPDEST DUP2 PUSH2 0x1D0B SWAP2 SWAP1 PUSH2 0x1FEF JUMP JUMPDEST SWAP1 POP DUP4 PUSH1 0xFF AND DUP6 DUP4 PUSH2 0x1D1D SWAP2 SWAP1 PUSH2 0x20DE JUMP JUMPDEST SWAP1 SHR SWAP2 POP PUSH1 0x21 DUP3 PUSH2 0x1D2E SWAP2 SWAP1 PUSH2 0x20DE JUMP JUMPDEST DUP2 PUSH2 0x1D39 SWAP2 SWAP1 PUSH2 0x1FEF JUMP JUMPDEST SWAP1 POP DUP4 PUSH1 0xFF AND DUP6 DUP4 PUSH2 0x1D4B SWAP2 SWAP1 PUSH2 0x20DE JUMP JUMPDEST SWAP1 SHR SWAP2 POP PUSH1 0x1 DUP3 PUSH2 0x1D5C SWAP2 SWAP1 PUSH2 0x20DE JUMP JUMPDEST DUP2 PUSH2 0x1D67 SWAP2 SWAP1 PUSH2 0x1FEF JUMP JUMPDEST SWAP1 POP DUP4 PUSH1 0xFF AND PUSH1 0x1 SWAP1 SHL DUP6 PUSH16 0x688589CC0E9505E2F2FEE5580000000 DUP4 PUSH2 0x1D8E SWAP2 SWAP1 PUSH2 0x207C JUMP JUMPDEST PUSH2 0x1D98 SWAP2 SWAP1 PUSH2 0x1FEF JUMP JUMPDEST PUSH2 0x1DA2 SWAP2 SWAP1 PUSH2 0x1FEF JUMP JUMPDEST SWAP3 POP POP POP SWAP3 SWAP2 POP POP JUMP JUMPDEST PUSH1 0x0 DUP1 PUSH1 0x0 SWAP1 POP PUSH1 0x0 DUP4 SWAP1 POP PUSH2 0x100 DUP2 LT ISZERO PUSH2 0x1DEC JUMPI JUMPDEST PUSH1 0x1 DUP2 GT ISZERO PUSH2 0x1DE7 JUMPI PUSH1 0x1 DUP2 SWAP1 SHR SWAP1 POP PUSH1 0x1 DUP3 PUSH2 0x1DE0 SWAP2 SWAP1 PUSH2 0x2045 JUMP JUMPDEST SWAP2 POP PUSH2 0x1DC3 JUMP JUMPDEST PUSH2 0x1E2D JUMP JUMPDEST PUSH1 0x0 PUSH1 0x80 SWAP1 POP JUMPDEST PUSH1 0x0 DUP2 PUSH1 0xFF AND GT ISZERO PUSH2 0x1E2B JUMPI DUP1 PUSH1 0xFF AND PUSH1 0x1 SWAP1 SHL DUP3 LT PUSH2 0x1E1C JUMPI DUP1 PUSH1 0xFF AND DUP3 SWAP1 SHR SWAP2 POP DUP1 DUP4 OR SWAP3 POP JUMPDEST PUSH1 0x1 DUP2 PUSH1 0xFF AND SWAP1 SHR SWAP1 POP PUSH2 0x1DF3 JUMP JUMPDEST POP JUMPDEST DUP2 SWAP3 POP POP POP SWAP2 SWAP1 POP JUMP JUMPDEST PUSH1 0x0 DUP2 CALLDATALOAD SWAP1 POP PUSH2 0x1E46 DUP2 PUSH2 0x23DA JUMP JUMPDEST SWAP3 SWAP2 POP POP JUMP JUMPDEST PUSH1 0x0 DUP2 CALLDATALOAD SWAP1 POP PUSH2 0x1E5B DUP2 PUSH2 0x23F1 JUMP JUMPDEST SWAP3 SWAP2 POP POP JUMP JUMPDEST PUSH1 0x0 DUP1 PUSH1 0x0 DUP1 PUSH1 0x80 DUP6 DUP8 SUB SLT ISZERO PUSH2 0x1E7B JUMPI PUSH2 0x1E7A PUSH2 0x2372 JUMP JUMPDEST JUMPDEST PUSH1 0x0 PUSH2 0x1E89 DUP8 DUP3 DUP9 ADD PUSH2 0x1E37 JUMP JUMPDEST SWAP5 POP POP PUSH1 0x20 PUSH2 0x1E9A DUP8 DUP3 DUP9 ADD PUSH2 0x1E37 JUMP JUMPDEST SWAP4 POP POP PUSH1 0x40 PUSH2 0x1EAB DUP8 DUP3 DUP9 ADD PUSH2 0x1E4C JUMP JUMPDEST SWAP3 POP POP PUSH1 0x60 PUSH2 0x1EBC DUP8 DUP3 DUP9 ADD PUSH2 0x1E37 JUMP JUMPDEST SWAP2 POP POP SWAP3 SWAP6 SWAP2 SWAP5 POP SWAP3 POP JUMP JUMPDEST PUSH1 0x0 PUSH2 0x1ED3 DUP3 PUSH2 0x1FD3 JUMP JUMPDEST PUSH2 0x1EDD DUP2 DUP6 PUSH2 0x1FDE JUMP JUMPDEST SWAP4 POP PUSH2 0x1EED DUP2 DUP6 PUSH1 0x20 DUP7 ADD PUSH2 0x21C7 JUMP JUMPDEST PUSH2 0x1EF6 DUP2 PUSH2 0x2377 JUMP JUMPDEST DUP5 ADD SWAP2 POP POP SWAP3 SWAP2 POP POP JUMP JUMPDEST PUSH1 0x0 PUSH2 0x1F0E PUSH1 0x1C DUP4 PUSH2 0x1FDE JUMP JUMPDEST SWAP2 POP PUSH2 0x1F19 DUP3 PUSH2 0x2388 JUMP JUMPDEST PUSH1 0x20 DUP3 ADD SWAP1 POP SWAP2 SWAP1 POP JUMP JUMPDEST PUSH1 0x0 PUSH2 0x1F31 PUSH1 0x18 DUP4 PUSH2 0x1FDE JUMP JUMPDEST SWAP2 POP PUSH2 0x1F3C DUP3 PUSH2 0x23B1 JUMP JUMPDEST PUSH1 0x20 DUP3 ADD SWAP1 POP SWAP2 SWAP1 POP JUMP JUMPDEST PUSH2 0x1F50 DUP2 PUSH2 0x21A0 JUMP JUMPDEST DUP3 MSTORE POP POP JUMP JUMPDEST PUSH1 0x0 PUSH1 0x20 DUP3 ADD SWAP1 POP DUP2 DUP2 SUB PUSH1 0x0 DUP4 ADD MSTORE PUSH2 0x1F70 DUP2 DUP5 PUSH2 0x1EC8 JUMP JUMPDEST SWAP1 POP SWAP3 SWAP2 POP POP JUMP JUMPDEST PUSH1 0x0 PUSH1 0x20 DUP3 ADD SWAP1 POP DUP2 DUP2 SUB PUSH1 0x0 DUP4 ADD MSTORE PUSH2 0x1F91 DUP2 PUSH2 0x1F01 JUMP JUMPDEST SWAP1 POP SWAP2 SWAP1 POP JUMP JUMPDEST PUSH1 0x0 PUSH1 0x20 DUP3 ADD SWAP1 POP DUP2 DUP2 SUB PUSH1 0x0 DUP4 ADD MSTORE PUSH2 0x1FB1 DUP2 PUSH2 0x1F24 JUMP JUMPDEST SWAP1 POP SWAP2 SWAP1 POP JUMP JUMPDEST PUSH1 0x0 PUSH1 0x20 DUP3 ADD SWAP1 POP PUSH2 0x1FCD PUSH1 0x0 DUP4 ADD DUP5 PUSH2 0x1F47 JUMP JUMPDEST SWAP3 SWAP2 POP POP JUMP JUMPDEST PUSH1 0x0 DUP2 MLOAD SWAP1 POP SWAP2 SWAP1 POP JUMP JUMPDEST PUSH1 0x0 DUP3 DUP3 MSTORE PUSH1 0x20 DUP3 ADD SWAP1 POP SWAP3 SWAP2 POP POP JUMP JUMPDEST PUSH1 0x0 PUSH2 0x1FFA DUP3 PUSH2 0x21A0 JUMP JUMPDEST SWAP2 POP PUSH2 0x2005 DUP4 PUSH2 0x21A0 JUMP JUMPDEST SWAP3 POP DUP3 PUSH32 0xFFFFFFFFFFFFFFFFFFFFFFFFFFFFFFFFFFFFFFFFFFFFFFFFFFFFFFFFFFFFFFFF SUB DUP3 GT ISZERO PUSH2 0x203A JUMPI PUSH2 0x2039 PUSH2 0x22B6 JUMP JUMPDEST JUMPDEST DUP3 DUP3 ADD SWAP1 POP SWAP3 SWAP2 POP POP JUMP JUMPDEST PUSH1 0x0 PUSH2 0x2050 DUP3 PUSH2 0x21BA JUMP JUMPDEST SWAP2 POP PUSH2 0x205B DUP4 PUSH2 0x21BA JUMP JUMPDEST SWAP3 POP DUP3 PUSH1 0xFF SUB DUP3 GT ISZERO PUSH2 0x2071 JUMPI PUSH2 0x2070 PUSH2 0x22B6 JUMP JUMPDEST JUMPDEST DUP3 DUP3 ADD SWAP1 POP SWAP3 SWAP2 POP POP JUMP JUMPDEST PUSH1 0x0 PUSH2 0x2087 DUP3 PUSH2 0x21A0 JUMP JUMPDEST SWAP2 POP PUSH2 0x2092 DUP4 PUSH2 0x21A0 JUMP JUMPDEST SWAP3 POP DUP3 PUSH2 0x20A2 JUMPI PUSH2 0x20A1 PUSH2 0x22E5 JUMP JUMPDEST JUMPDEST DUP3 DUP3 DIV SWAP1 POP SWAP3 SWAP2 POP POP JUMP JUMPDEST PUSH1 0x0 PUSH2 0x20B8 DUP3 PUSH2 0x21BA JUMP JUMPDEST SWAP2 POP PUSH2 0x20C3 DUP4 PUSH2 0x21BA JUMP JUMPDEST SWAP3 POP DUP3 PUSH2 0x20D3 JUMPI PUSH2 0x20D2 PUSH2 0x22E5 JUMP JUMPDEST JUMPDEST DUP3 DUP3 DIV SWAP1 POP SWAP3 SWAP2 POP POP JUMP JUMPDEST PUSH1 0x0 PUSH2 0x20E9 DUP3 PUSH2 0x21A0 JUMP JUMPDEST SWAP2 POP PUSH2 0x20F4 DUP4 PUSH2 0x21A0 JUMP JUMPDEST SWAP3 POP DUP2 PUSH32 0xFFFFFFFFFFFFFFFFFFFFFFFFFFFFFFFFFFFFFFFFFFFFFFFFFFFFFFFFFFFFFFFF DIV DUP4 GT DUP3 ISZERO ISZERO AND ISZERO PUSH2 0x212D JUMPI PUSH2 0x212C PUSH2 0x22B6 JUMP JUMPDEST JUMPDEST DUP3 DUP3 MUL SWAP1 POP SWAP3 SWAP2 POP POP JUMP JUMPDEST PUSH1 0x0 PUSH2 0x2143 DUP3 PUSH2 0x21A0 JUMP JUMPDEST SWAP2 POP PUSH2 0x214E DUP4 PUSH2 0x21A0 JUMP JUMPDEST SWAP3 POP DUP3 DUP3 LT ISZERO PUSH2 0x2161 JUMPI PUSH2 0x2160 PUSH2 0x22B6 JUMP JUMPDEST JUMPDEST DUP3 DUP3 SUB SWAP1 POP SWAP3 SWAP2 POP POP JUMP JUMPDEST PUSH1 0x0 PUSH2 0x2177 DUP3 PUSH2 0x21BA JUMP JUMPDEST SWAP2 POP PUSH2 0x2182 DUP4 PUSH2 0x21BA JUMP JUMPDEST SWAP3 POP DUP3 DUP3 LT ISZERO PUSH2 0x2195 JUMPI PUSH2 0x2194 PUSH2 0x22B6 JUMP JUMPDEST JUMPDEST DUP3 DUP3 SUB SWAP1 POP SWAP3 SWAP2 POP POP JUMP JUMPDEST PUSH1 0x0 DUP2 SWAP1 POP SWAP2 SWAP1 POP JUMP JUMPDEST PUSH1 0x0 PUSH4 0xFFFFFFFF DUP3 AND SWAP1 POP SWAP2 SWAP1 POP JUMP JUMPDEST PUSH1 0x0 PUSH1 0xFF DUP3 AND SWAP1 POP SWAP2 SWAP1 POP JUMP JUMPDEST PUSH1 0x0 JUMPDEST DUP4 DUP2 LT ISZERO PUSH2 0x21E5 JUMPI DUP1 DUP3 ADD MLOAD DUP2 DUP5 ADD MSTORE PUSH1 0x20 DUP2 ADD SWAP1 POP PUSH2 0x21CA JUMP JUMPDEST DUP4 DUP2 GT ISZERO PUSH2 0x21F4 JUMPI PUSH1 0x0 DUP5 DUP5 ADD MSTORE JUMPDEST POP POP POP POP JUMP JUMPDEST PUSH1 0x0 PUSH2 0x2205 DUP3 PUSH2 0x21BA JUMP JUMPDEST SWAP2 POP PUSH1 0x0 DUP3 EQ ISZERO PUSH2 0x2219 JUMPI PUSH2 0x2218 PUSH2 0x22B6 JUMP JUMPDEST JUMPDEST PUSH1 0x1 DUP3 SUB SWAP1 POP SWAP2 SWAP1 POP JUMP JUMPDEST PUSH1 0x0 PUSH1 0x2 DUP3 DIV SWAP1 POP PUSH1 0x1 DUP3 AND DUP1 PUSH2 0x223C JUMPI PUSH1 0x7F DUP3 AND SWAP2 POP JUMPDEST PUSH1 0x20 DUP3 LT DUP2 EQ ISZERO PUSH2 0x2250 JUMPI PUSH2 0x224F PUSH2 0x2314 JUMP JUMPDEST JUMPDEST POP SWAP2 SWAP1 POP JUMP JUMPDEST PUSH1 0x0 PUSH2 0x2261 DUP3 PUSH2 0x21A0 JUMP JUMPDEST SWAP2 POP PUSH2 0x226C DUP4 PUSH2 0x21A0 JUMP JUMPDEST SWAP3 POP DUP3 PUSH2 0x227C JUMPI PUSH2 0x227B PUSH2 0x22E5 JUMP JUMPDEST JUMPDEST DUP3 DUP3 MOD SWAP1 POP SWAP3 SWAP2 POP POP JUMP JUMPDEST PUSH32 0x4E487B7100000000000000000000000000000000000000000000000000000000 PUSH1 0x0 MSTORE PUSH1 0x1 PUSH1 0x4 MSTORE PUSH1 0x24 PUSH1 0x0 REVERT JUMPDEST PUSH32 0x4E487B7100000000000000000000000000000000000000000000000000000000 PUSH1 0x0 MSTORE PUSH1 0x11 PUSH1 0x4 MSTORE PUSH1 0x24 PUSH1 0x0 REVERT JUMPDEST PUSH32 0x4E487B7100000000000000000000000000000000000000000000000000000000 PUSH1 0x0 MSTORE PUSH1 0x12 PUSH1 0x4 MSTORE PUSH1 0x24 PUSH1 0x0 REVERT JUMPDEST PUSH32 0x4E487B7100000000000000000000000000000000000000000000000000000000 PUSH1 0x0 MSTORE PUSH1 0x22 PUSH1 0x4 MSTORE PUSH1 0x24 PUSH1 0x0 REVERT JUMPDEST PUSH32 0x4E487B7100000000000000000000000000000000000000000000000000000000 PUSH1 0x0 MSTORE PUSH1 0x32 PUSH1 0x4 MSTORE PUSH1 0x24 PUSH1 0x0 REVERT JUMPDEST PUSH1 0x0 DUP1 REVERT JUMPDEST PUSH1 0x0 PUSH1 0x1F NOT PUSH1 0x1F DUP4 ADD AND SWAP1 POP SWAP2 SWAP1 POP JUMP JUMPDEST PUSH32 0x4261736573203C203120617265206E6F7420737570706F727465642E00000000 PUSH1 0x0 DUP3 ADD MSTORE POP JUMP JUMPDEST PUSH32 0x626173654E2065786365656473206D61782076616C75652E0000000000000000 PUSH1 0x0 DUP3 ADD MSTORE POP JUMP JUMPDEST PUSH2 0x23E3 DUP2 PUSH2 0x21A0 JUMP JUMPDEST DUP2 EQ PUSH2 0x23EE JUMPI PUSH1 0x0 DUP1 REVERT JUMPDEST POP JUMP JUMPDEST PUSH2 0x23FA DUP2 PUSH2 0x21AA JUMP JUMPDEST DUP2 EQ PUSH2 0x2405 JUMPI PUSH1 0x0 DUP1 REVERT JUMPDEST POP JUMP INVALID LOG2 PUSH5 0x6970667358 0x22 SLT KECCAK256 0xE4 PUSH15 0x9D85C17B7ECD30CBC24C6BB1700F10 JUMPI 0x22 PUSH16 0x20BD4D861561B70F818EA5E364736F6C PUSH4 0x43000807 STOP CALLER "
				},
				"gasEstimates": {
					"creation": {
						"codeDepositCost": "1855600",
						"executionCost": "infinite",
						"totalCost": "infinite"
					},
					"external": {
						"calculatePurchaseReturn(uint256,uint256,uint32,uint256)": "infinite",
						"calculateSaleReturn(uint256,uint256,uint32,uint256)": "infinite",
						"version()": "infinite"
					}
				},
				"methodIdentifiers": {
					"calculatePurchaseReturn(uint256,uint256,uint32,uint256)": "29a00e7c",
					"calculateSaleReturn(uint256,uint256,uint32,uint256)": "49f9b0f7",
					"version()": "54fd4d50"
				}
			},
			"storageLayout": {
				"storage": [
					{
						"astId": 5,
						"contract": "contracts/2_BancorBondingCurve.sol:BancorBondingCurve",
						"label": "version",
						"offset": 0,
						"slot": "0",
						"type": "t_string_storage"
					},
					{
						"astId": 46,
						"contract": "contracts/2_BancorBondingCurve.sol:BancorBondingCurve",
						"label": "maxExpArray",
						"offset": 0,
						"slot": "1",
						"type": "t_array(t_uint256)128_storage"
					}
				],
				"types": {
					"t_array(t_uint256)128_storage": {
						"base": "t_uint256",
						"encoding": "inplace",
						"label": "uint256[128]",
						"numberOfBytes": "4096"
					},
					"t_string_storage": {
						"encoding": "bytes",
						"label": "string",
						"numberOfBytes": "32"
					},
					"t_uint256": {
						"encoding": "inplace",
						"label": "uint256",
						"numberOfBytes": "32"
					}
				}
			},
			"userdoc": {
				"kind": "user",
				"methods": {},
				"version": 1
			}
		}
	}
}