{
	"data": {
		"bytecode": {
			"linkReferences": {},
			"object": "60806040526040518060400160405280600381526020017f302e3300000000000000000000000000000000000000000000000000000000008152506000908051906020019062000051929190620011f6565b503480156200005f57600080fd5b50701c35fedd14ffffffffffffffffffffffff60016020608081106200008a57620000896200130b565b5b0181905550701b0ce43b323fffffffffffffffffffffff6001602160808110620000b957620000b86200130b565b5b01819055507019f0028ec1ffffffffffffffffffffffff6001602260808110620000e857620000e76200130b565b5b01819055507018ded91f0e7fffffffffffffffffffffff60016023608081106200011757620001166200130b565b5b01819055507017d8ec7f0417ffffffffffffffffffffff60016024608081106200014657620001456200130b565b5b01819055507016ddc6556cdbffffffffffffffffffffff60016025608081106200017557620001746200130b565b5b01819055507015ecf52776a1ffffffffffffffffffffff6001602660808110620001a457620001a36200130b565b5b01819055507015060c256cb2ffffffffffffffffffffff6001602760808110620001d357620001d26200130b565b5b0181905550701428a2f98d72ffffffffffffffffffffff60016028608081106200020257620002016200130b565b5b01819055507013545598e5c23fffffffffffffffffffff60016029608081106200023157620002306200130b565b5b0181905550701288c4161ce1dfffffffffffffffffffff6001602a6080811062000260576200025f6200130b565b5b01819055507011c592761c666fffffffffffffffffffff6001602b608081106200028f576200028e6200130b565b5b018190555070110a688680a757ffffffffffffffffffff6001602c60808110620002be57620002bd6200130b565b5b0181905550701056f1b5bedf77ffffffffffffffffffff6001602d60808110620002ed57620002ec6200130b565b5b0181905550700faadceceeff8bffffffffffffffffffff6001602e608081106200031c576200031b6200130b565b5b0181905550700f05dc6b27edadffffffffffffffffffff6001602f608081106200034b576200034a6200130b565b5b0181905550700e67a5a25da4107fffffffffffffffffff60016030608081106200037a57620003796200130b565b5b0181905550700dcff115b14eedffffffffffffffffffff6001603160808110620003a957620003a86200130b565b5b0181905550700d3e7a392431239fffffffffffffffffff6001603260808110620003d857620003d76200130b565b5b0181905550700cb2ff529eb71e4fffffffffffffffffff60016033608081106200040757620004066200130b565b5b0181905550700c2d415c3db974afffffffffffffffffff60016034608081106200043657620004356200130b565b5b0181905550700bad03e7d883f69bffffffffffffffffff60016035608081106200046557620004646200130b565b5b0181905550700b320d03b2c343d5ffffffffffffffffff60016036608081106200049457620004936200130b565b5b0181905550700abc25204e02828dffffffffffffffffff6001603760808110620004c357620004c26200130b565b5b0181905550700a4b16f74ee4bb207fffffffffffffffff6001603860808110620004f257620004f16200130b565b5b01819055507009deaf736ac1f569ffffffffffffffffff60016039608081106200052157620005206200130b565b5b0181905550700976bd9952c7aa957fffffffffffffffff6001603a6080811062000550576200054f6200130b565b5b01819055507009131271922eaa606fffffffffffffffff6001603b608081106200057f576200057e6200130b565b5b01819055507008b380f3558668c46fffffffffffffffff6001603c60808110620005ae57620005ad6200130b565b5b0181905550700857ddf0117efa215bffffffffffffffff6001603d60808110620005dd57620005dc6200130b565b5b01819055507007ffffffffffffffffffffffffffffffff6001603e608081106200060c576200060b6200130b565b5b01819055507007abbf6f6abb9d087fffffffffffffffff6001603f608081106200063b576200063a6200130b565b5b018190555070075af62cbac95f7dfa7fffffffffffffff60016040608081106200066a57620006696200130b565b5b018190555070070d7fb7452e187ac13fffffffffffffff60016041608081106200069957620006986200130b565b5b01819055507006c3390ecc8af379295fffffffffffffff6001604260808110620006c857620006c76200130b565b5b018190555070067c00a3b07ffc01fd6fffffffffffffff6001604360808110620006f757620006f66200130b565b5b0181905550700637b647c39cbb9d3d27ffffffffffffff60016044608081106200072657620007256200130b565b5b01819055507005f63b1fc104dbd39587ffffffffffffff60016045608081106200075557620007546200130b565b5b01819055507005b771955b36e12f7235ffffffffffffff60016046608081106200078457620007836200130b565b5b018190555070057b3d49dda84556d6f6ffffffffffffff6001604760808110620007b357620007b26200130b565b5b018190555070054183095b2c8ececf30ffffffffffffff6001604860808110620007e257620007e16200130b565b5b018190555070050a28be635ca2b888f77fffffffffffff60016049608081106200081157620008106200130b565b5b01819055507004d5156639708c9db33c3fffffffffffff6001604a6080811062000840576200083f6200130b565b5b01819055507004a23105873875bd52dfdfffffffffffff6001604b608081106200086f576200086e6200130b565b5b0181905550700471649d87199aa990756fffffffffffff6001604c608081106200089e576200089d6200130b565b5b01819055507004429a21a029d4c1457cfbffffffffffff6001604d60808110620008cd57620008cc6200130b565b5b0181905550700415bc6d6fb7dd71af2cb3ffffffffffff6001604e60808110620008fc57620008fb6200130b565b5b01819055507003eab73b3bbfe282243ce1ffffffffffff6001604f608081106200092b576200092a6200130b565b5b01819055507003c1771ac9fb6b4c18e229ffffffffffff60016050608081106200095a57620009596200130b565b5b0181905550700399e96897690418f785257fffffffffff60016051608081106200098957620009886200130b565b5b0181905550700373fc456c53bb779bf0ea9fffffffffff6001605260808110620009b857620009b76200130b565b5b018190555070034f9e8e490c48e67e6ab8bfffffffffff6001605360808110620009e757620009e66200130b565b5b018190555070032cbfd4a7adc790560b3337ffffffffff600160546080811062000a165762000a156200130b565b5b018190555070030b50570f6e5d2acca94613ffffffffff600160556080811062000a455762000a446200130b565b5b01819055507002eb40f9f620fda6b56c2861ffffffffff600160566080811062000a745762000a736200130b565b5b01819055507002cc8340ecb0d0f520a6af58ffffffffff600160576080811062000aa35762000aa26200130b565b5b01819055507002af09481380a0a35cf1ba02ffffffffff600160586080811062000ad25762000ad16200130b565b5b0181905550700292c5bdd3b92ec810287b1b3fffffffff600160596080811062000b015762000b006200130b565b5b0181905550700277abdcdab07d5a77ac6d6b9fffffffff6001605a6080811062000b305762000b2f6200130b565b5b018190555070025daf6654b1eaa55fd64df5efffffffff6001605b6080811062000b5f5762000b5e6200130b565b5b0181905550700244c49c648baa98192dce88b7ffffffff6001605c6080811062000b8e5762000b8d6200130b565b5b018190555070022ce03cd5619a311b2471268bffffffff6001605d6080811062000bbd5762000bbc6200130b565b5b0181905550700215f77c045fbe885654a44a0fffffffff6001605e6080811062000bec5762000beb6200130b565b5b01819055507001ffffffffffffffffffffffffffffffff6001605f6080811062000c1b5762000c1a6200130b565b5b01819055507001eaefdbdaaee7421fc4d3ede5ffffffff600160606080811062000c4a5762000c496200130b565b5b01819055507001d6bd8b2eb257df7e8ca57b09bfffffff600160616080811062000c795762000c786200130b565b5b01819055507001c35fedd14b861eb0443f7f133fffffff600160626080811062000ca85762000ca76200130b565b5b01819055507001b0ce43b322bcde4a56e8ada5afffffff600160636080811062000cd75762000cd66200130b565b5b018190555070019f0028ec1fff007f5a195a39dfffffff600160646080811062000d065762000d056200130b565b5b018190555070018ded91f0e72ee74f49b15ba527ffffff600160656080811062000d355762000d346200130b565b5b018190555070017d8ec7f04136f4e5615fd41a63ffffff600160666080811062000d645762000d636200130b565b5b018190555070016ddc6556cdb84bdc8d12d22e6fffffff600160676080811062000d935762000d926200130b565b5b018190555070015ecf52776a1155b5bd8395814f7fffff600160686080811062000dc25762000dc16200130b565b5b018190555070015060c256cb23b3b3cc3754cf40ffffff600160696080811062000df15762000df06200130b565b5b01819055507001428a2f98d728ae223ddab715be3fffff6001606a6080811062000e205762000e1f6200130b565b5b018190555070013545598e5c23276ccf0ede68034fffff6001606b6080811062000e4f5762000e4e6200130b565b5b01819055507001288c4161ce1d6f54b7f61081194fffff6001606c6080811062000e7e5762000e7d6200130b565b5b018190555070011c592761c666aa641d5a01a40f17ffff6001606d6080811062000ead5762000eac6200130b565b5b0181905550700110a688680a7530515f3e6e6cfdcdffff6001606e6080811062000edc5762000edb6200130b565b5b01819055507001056f1b5bedf75c6bcb2ce8aed428ffff6001606f6080811062000f0b5762000f0a6200130b565b5b01819055506ffaadceceeff8a0890f3875f008277fff600160706080811062000f395762000f386200130b565b5b01819055506ff05dc6b27edad306388a600f6ba0bfff600160716080811062000f675762000f666200130b565b5b01819055506fe67a5a25da41063de1495d5b18cdbfff600160726080811062000f955762000f946200130b565b5b01819055506fdcff115b14eedde6fc3aa5353f2e4fff600160736080811062000fc35762000fc26200130b565b5b01819055506fd3e7a3924312399f9aae2e0f868f8fff600160746080811062000ff15762000ff06200130b565b5b01819055506fcb2ff529eb71e41582cccd5a1ee26fff60016075608081106200101f576200101e6200130b565b5b01819055506fc2d415c3db974ab32a51840c0b67edff60016076608081106200104d576200104c6200130b565b5b01819055506fbad03e7d883f69ad5b0a186184e06bff60016077608081106200107b576200107a6200130b565b5b01819055506fb320d03b2c343d4829abd6075f0cc5ff6001607860808110620010a957620010a86200130b565b5b01819055506fabc25204e02828d73c6e80bcdb1a95bf6001607960808110620010d757620010d66200130b565b5b01819055506fa4b16f74ee4bb2040a1ec6c15fbbf2df6001607a608081106200110557620011046200130b565b5b01819055506f9deaf736ac1f569deb1b5ae3f36c130f6001607b608081106200113357620011326200130b565b5b01819055506f976bd9952c7aa957f5937d790ef650376001607c608081106200116157620011606200130b565b5b01819055506f9131271922eaa6064b73a22d0bd4f2bf6001607d608081106200118f576200118e6200130b565b5b01819055506f8b380f3558668c46c91c49a2f8e967b96001607e60808110620011bd57620011bc6200130b565b5b01819055506f857ddf0117efa215952912839f6473e66001607f60808110620011eb57620011ea6200130b565b5b01819055506200133a565b8280546200120490620012a6565b90600052602060002090601f01602090048101928262001228576000855562001274565b82601f106200124357805160ff191683800117855562001274565b8280016001018555821562001274579182015b828111156200127357825182559160200191906001019062001256565b5b50905062001283919062001287565b5090565b5b80821115620012a257600081600090555060010162001288565b5090565b60006002820490506001821680620012bf57607f821691505b60208210811415620012d657620012d5620012dc565b5b50919050565b7f4e487b7100000000000000000000000000000000000000000000000000000000600052602260045260246000fd5b7f4e487b7100000000000000000000000000000000000000000000000000000000600052603260045260246000fd5b61243e806200134a6000396000f3fe608060405234801561001057600080fd5b50600436106100415760003560e01c806329a00e7c1461004657806349f9b0f71461007657806354fd4d50146100a6575b600080fd5b610060600480360381019061005b9190611e61565b6100c4565b60405161006d9190611fb8565b60405180910390f35b610090600480360381019061008b9190611e61565b6101ad565b60405161009d9190611fb8565b60405180910390f35b6100ae6102c3565b6040516100bb9190611f56565b60405180910390f35b600080851180156100d55750600084115b80156100e7575060008363ffffffff16115b80156101025750620f424063ffffffff168363ffffffff1611155b61010b57600080fd5b600082141561011d57600090506101a5565b620f424063ffffffff168363ffffffff1614156101525783828661014191906120de565b61014b919061207c565b90506101a5565b600080600086856101639190611fef565b9050610174818888620f4240610351565b809350819450505060008260ff16848a61018e91906120de565b901c9050888161019e9190612138565b9450505050505b949350505050565b600080851180156101be5750600084115b80156101d0575060008363ffffffff16115b80156101eb5750620f424063ffffffff168363ffffffff1611155b80156101f75750848211155b61020057600080fd5b600082141561021257600090506102bb565b84821415610222578390506102bb565b620f424063ffffffff168363ffffffff1614156102575784828561024691906120de565b610250919061207c565b90506102bb565b600080600084886102689190612138565b90506102798882620f424089610351565b80935081945050506000838861028f91906120de565b905060008360ff1689901b90508481836102a99190612138565b6102b3919061207c565b955050505050505b949350505050565b600080546102d090612224565b80601f01602080910402602001604051908101604052809291908181526020018280546102fc90612224565b80156103495780601f1061031e57610100808354040283529160200191610349565b820191906000526020600020905b81548152906001019060200180831161032c57829003601f168201915b505050505081565b60008070020000000000000000000000000000000086106103a7576040517f08c379a000000000000000000000000000000000000000000000000000000000815260040161039e90611f98565b60405180910390fd5b848610156103ea576040517f08c379a00000000000000000000000000000000000000000000000000000000081526004016103e190611f78565b60405180910390fd5b600080866f800000000000000000000000000000008961040a91906120de565b610414919061207c565b905070015bf0a8b1457695355fb8ac404e7a79e381101561043f57610438816104de565b915061044b565b61044881610c57565b91505b60008563ffffffff168763ffffffff168461046691906120de565b610470919061207c565b90507008000000000000000000000000000000008110156104a25761049481610db7565b607f945094505050506104d5565b60006104ad826115bb565b90506104cb81607f6104bf919061216c565b60ff1683901c8261169d565b8195509550505050505b94509492505050565b6000806000905060008060006fd3094c70f034de4b96ff7d5b6f99fcd88610610559576f400000000000000000000000000000008461051d9190611fef565b93506fd3094c70f034de4b96ff7d5b6f99fcd86f800000000000000000000000000000008761054c91906120de565b610556919061207c565b95505b6fa45af1e1f40c333b3de1db4dd55f29a786106105c8576f200000000000000000000000000000008461058c9190611fef565b93506fa45af1e1f40c333b3de1db4dd55f29a76f80000000000000000000000000000000876105bb91906120de565b6105c5919061207c565b95505b6f910b022db7ae67ce76b441c27035c6a18610610637576f10000000000000000000000000000000846105fb9190611fef565b93506f910b022db7ae67ce76b441c27035c6a16f800000000000000000000000000000008761062a91906120de565b610634919061207c565b95505b6f88415abbe9a76bead8d00cf112e4d4a886106106a6576f080000000000000000000000000000008461066a9190611fef565b93506f88415abbe9a76bead8d00cf112e4d4a86f800000000000000000000000000000008761069991906120de565b6106a3919061207c565b95505b6f84102b00893f64c705e841d5d4064bd38610610715576f04000000000000000000000000000000846106d99190611fef565b93506f84102b00893f64c705e841d5d4064bd36f800000000000000000000000000000008761070891906120de565b610712919061207c565b95505b6f8204055aaef1c8bd5c3259f4822735a28610610784576f02000000000000000000000000000000846107489190611fef565b93506f8204055aaef1c8bd5c3259f4822735a26f800000000000000000000000000000008761077791906120de565b610781919061207c565b95505b6f810100ab00222d861931c15e39b44e9986106107f3576f01000000000000000000000000000000846107b79190611fef565b93506f810100ab00222d861931c15e39b44e996f80000000000000000000000000000000876107e691906120de565b6107f0919061207c565b95505b6f808040155aabbbe9451521693554f7338610610861576e800000000000000000000000000000846108259190611fef565b93506f808040155aabbbe9451521693554f7336f800000000000000000000000000000008761085491906120de565b61085e919061207c565b95505b6f800000000000000000000000000000008661087d9190612138565b92508291506f80000000000000000000000000000000838461089f91906120de565b6108a9919061207c565b9050700100000000000000000000000000000000837001000000000000000000000000000000006108da9190612138565b836108e591906120de565b6108ef919061207c565b846108fa9190611fef565b93506f80000000000000000000000000000000818361091991906120de565b610923919061207c565b9150700200000000000000000000000000000000836faaaaaaaaaaaaaaaaaaaaaaaaaaaaaaaa6109539190612138565b8361095e91906120de565b610968919061207c565b846109739190611fef565b93506f80000000000000000000000000000000818361099291906120de565b61099c919061207c565b9150700300000000000000000000000000000000836f999999999999999999999999999999996109cc9190612138565b836109d791906120de565b6109e1919061207c565b846109ec9190611fef565b93506f800000000000000000000000000000008183610a0b91906120de565b610a15919061207c565b9150700400000000000000000000000000000000836f92492492492492492492492492492492610a459190612138565b83610a5091906120de565b610a5a919061207c565b84610a659190611fef565b93506f800000000000000000000000000000008183610a8491906120de565b610a8e919061207c565b9150700500000000000000000000000000000000836f8e38e38e38e38e38e38e38e38e38e38e610abe9190612138565b83610ac991906120de565b610ad3919061207c565b84610ade9190611fef565b93506f800000000000000000000000000000008183610afd91906120de565b610b07919061207c565b9150700600000000000000000000000000000000836f8ba2e8ba2e8ba2e8ba2e8ba2e8ba2e8b610b379190612138565b83610b4291906120de565b610b4c919061207c565b84610b579190611fef565b93506f800000000000000000000000000000008183610b7691906120de565b610b80919061207c565b9150700700000000000000000000000000000000836f89d89d89d89d89d89d89d89d89d89d89610bb09190612138565b83610bbb91906120de565b610bc5919061207c565b84610bd09190611fef565b93506f800000000000000000000000000000008183610bef91906120de565b610bf9919061207c565b9150700800000000000000000000000000000000836f88888888888888888888888888888888610c299190612138565b83610c3491906120de565b610c3e919061207c565b84610c499190611fef565b935083945050505050919050565b6000806000905060008390507001000000000000000000000000000000008110610ccf576000610ca16f8000000000000000000000000000000083610c9c919061207c565b611dac565b90508060ff1682901c91506f800000000000000000000000000000008160ff16610ccb91906120de565b9250505b6f80000000000000000000000000000000811115610d77576000607f90505b60008160ff161115610d75576f800000000000000000000000000000008283610d1791906120de565b610d21919061207c565b91507001000000000000000000000000000000008210610d6457600182901c9150600181610d4f919061216c565b60ff166001901b83610d619190611fef565b92505b80610d6e906121fa565b9050610cee565b505b6f05b9de1d10bf4103d647b0955897ba806f03f80fe03f80fe03f80fe03f80fe03f883610da491906120de565b610dae919061207c565b92505050919050565b600080600090506000806f1000000000000000000000000000000085610ddd9190612256565b91508190506f800000000000000000000000000000008282610dff91906120de565b610e09919061207c565b90506710e1b3be415a000081610e1f91906120de565b83610e2a9190611fef565b92506f800000000000000000000000000000008282610e4991906120de565b610e53919061207c565b90506705a0913f6b1e000081610e6991906120de565b83610e749190611fef565b92506f800000000000000000000000000000008282610e9391906120de565b610e9d919061207c565b9050670168244fdac7800081610eb391906120de565b83610ebe9190611fef565b92506f800000000000000000000000000000008282610edd91906120de565b610ee7919061207c565b9050664807432bc1800081610efc91906120de565b83610f079190611fef565b92506f800000000000000000000000000000008282610f2691906120de565b610f30919061207c565b9050660c0135dca0400081610f4591906120de565b83610f509190611fef565b92506f800000000000000000000000000000008282610f6f91906120de565b610f79919061207c565b90506601b707b1cdc00081610f8e91906120de565b83610f999190611fef565b92506f800000000000000000000000000000008282610fb891906120de565b610fc2919061207c565b90506536e0f639b80081610fd691906120de565b83610fe19190611fef565b92506f80000000000000000000000000000000828261100091906120de565b61100a919061207c565b9050650618fee9f8008161101e91906120de565b836110299190611fef565b92506f80000000000000000000000000000000828261104891906120de565b611052919061207c565b9050649c197dcc008161106591906120de565b836110709190611fef565b92506f80000000000000000000000000000000828261108f91906120de565b611099919061207c565b9050640e30dce400816110ac91906120de565b836110b79190611fef565b92506f8000000000000000000000000000000082826110d691906120de565b6110e0919061207c565b905064012ebd1300816110f391906120de565b836110fe9190611fef565b92506f80000000000000000000000000000000828261111d91906120de565b611127919061207c565b90506317499f008161113991906120de565b836111449190611fef565b92506f80000000000000000000000000000000828261116391906120de565b61116d919061207c565b90506301a9d4808161117f91906120de565b8361118a9190611fef565b92506f8000000000000000000000000000000082826111a991906120de565b6111b3919061207c565b9050621c6380816111c491906120de565b836111cf9190611fef565b92506f8000000000000000000000000000000082826111ee91906120de565b6111f8919061207c565b90506201c6388161120991906120de565b836112149190611fef565b92506f80000000000000000000000000000000828261123391906120de565b61123d919061207c565b9050611ab88161124d91906120de565b836112589190611fef565b92506f80000000000000000000000000000000828261127791906120de565b611281919061207c565b905061017c8161129191906120de565b8361129c9190611fef565b92506f8000000000000000000000000000000082826112bb91906120de565b6112c5919061207c565b90506014816112d491906120de565b836112df9190611fef565b92506f8000000000000000000000000000000082826112fe91906120de565b611308919061207c565b905060018161131791906120de565b836113229190611fef565b92506f80000000000000000000000000000000826721c3677c82b400008561134a919061207c565b6113549190611fef565b61135e9190611fef565b925060006f100000000000000000000000000000008616146113b65770018ebef9eac820ae8682b9793ac6d1e7767001c3d6a24ed82218787d624d3e5eba95f9846113a991906120de565b6113b3919061207c565b92505b60006f2000000000000000000000000000000086161461140c577001368b2fc6f9609fe7aceb46aa619baed470018ebef9eac820ae8682b9793ac6d1e778846113ff91906120de565b611409919061207c565b92505b60006f40000000000000000000000000000000861614611461576fbc5ab1b16779be3575bd8f0520a9f21f7001368b2fc6f9609fe7aceb46aa619baed58461145491906120de565b61145e919061207c565b92505b60006f800000000000000000000000000000008616146114b5576f454aaa8efe072e7f6ddbab84b40a55c96fbc5ab1b16779be3575bd8f0520a9f21e846114a891906120de565b6114b2919061207c565b92505b600070010000000000000000000000000000000086161461150a576f0960aadc109e7a3bf4578099615711ea6f454aaa8efe072e7f6ddbab84b40a55c5846114fd91906120de565b611507919061207c565b92505b600070020000000000000000000000000000000086161461155e576e2bf84208204f5977f9a8cf01fdce3d6f0960aadc109e7a3bf4578099615711d78461155191906120de565b61155b919061207c565b92505b60007004000000000000000000000000000000008616146115b0576d03c6ab775dd0b95b4cbee7e65d116e2bf84208204f5977f9a8cf01fdc307846115a391906120de565b6115ad919061207c565b92505b829350505050919050565b600080602090506000607f90505b8060ff166001836115da9190612045565b60ff161015611630576000600282846115f39190612045565b6115fd91906120ad565b90508460018260ff166080811061161757611616612343565b5b0154106116265780925061162a565b8091505b506115c9565b8360018260ff166080811061164857611647612343565b5b015410611659578092505050611698565b8360018360ff166080811061167157611670612343565b5b015410611682578192505050611698565b600061169157611690612287565b5b6000925050505b919050565b60008083905060008360ff1685836116b591906120de565b901c91506f03442c4e6074a82f1797f72ac0000000826116d591906120de565b816116e09190611fef565b90508360ff1685836116f291906120de565b901c91506f0116b96f757c380fb287fd0e400000008261171291906120de565b8161171d9190611fef565b90508360ff16858361172f91906120de565b901c91506e45ae5bdd5f0e03eca1ff43900000008261174e91906120de565b816117599190611fef565b90508360ff16858361176b91906120de565b901c91506e0defabf91302cd95b9ffda500000008261178a91906120de565b816117959190611fef565b90508360ff1685836117a791906120de565b901c91506e02529ca9832b22439efff9b8000000826117c691906120de565b816117d19190611fef565b90508360ff1685836117e391906120de565b901c91506d54f1cf12bd04e516b6da880000008261180191906120de565b8161180c9190611fef565b90508360ff16858361181e91906120de565b901c91506d0a9e39e257a09ca2d6db510000008261183c91906120de565b816118479190611fef565b90508360ff16858361185991906120de565b901c91506d012e066e7b839fa050c3090000008261187791906120de565b816118829190611fef565b90508360ff16858361189491906120de565b901c91506c1e33d7d926c329a1ad1a800000826118b191906120de565b816118bc9190611fef565b90508360ff1685836118ce91906120de565b901c91506c02bee513bdb4a6b19b5f800000826118eb91906120de565b816118f69190611fef565b90508360ff16858361190891906120de565b901c91506b3a9316fa79b88eccf2a000008261192491906120de565b8161192f9190611fef565b90508360ff16858361194191906120de565b901c91506b048177ebe1fa8123752000008261195d91906120de565b816119689190611fef565b90508360ff16858361197a91906120de565b901c91506a5263fe90242dcbacf000008261199591906120de565b816119a09190611fef565b90508360ff1685836119b291906120de565b901c91506a057e22099c030d94100000826119cd91906120de565b816119d89190611fef565b90508360ff1685836119ea91906120de565b901c91506957e22099c030d941000082611a0491906120de565b81611a0f9190611fef565b90508360ff168583611a2191906120de565b901c915069052b6b5456997631000082611a3b91906120de565b81611a469190611fef565b90508360ff168583611a5891906120de565b901c9150684985f67696bf74800082611a7191906120de565b81611a7c9190611fef565b90508360ff168583611a8e91906120de565b901c91506803dea12ea99e49800082611aa791906120de565b81611ab29190611fef565b90508360ff168583611ac491906120de565b901c91506731880f2214b6e00082611adc91906120de565b81611ae79190611fef565b90508360ff168583611af991906120de565b901c915067025bcff56eb3600082611b1191906120de565b81611b1c9190611fef565b90508360ff168583611b2e91906120de565b901c9150661b722e10ab100082611b4591906120de565b81611b509190611fef565b90508360ff168583611b6291906120de565b901c91506601317c7007700082611b7991906120de565b81611b849190611fef565b90508360ff168583611b9691906120de565b901c9150650cba84aafa0082611bac91906120de565b81611bb79190611fef565b90508360ff168583611bc991906120de565b901c91506482573a0a0082611bde91906120de565b81611be99190611fef565b90508360ff168583611bfb91906120de565b901c91506405035ad90082611c1091906120de565b81611c1b9190611fef565b90508360ff168583611c2d91906120de565b901c9150632f881b0082611c4191906120de565b81611c4c9190611fef565b90508360ff168583611c5e91906120de565b901c91506301b2934082611c7291906120de565b81611c7d9190611fef565b90508360ff168583611c8f91906120de565b901c9150620efc4082611ca291906120de565b81611cad9190611fef565b90508360ff168583611cbf91906120de565b901c9150617fe082611cd191906120de565b81611cdc9190611fef565b90508360ff168583611cee91906120de565b901c915061042082611d0091906120de565b81611d0b9190611fef565b90508360ff168583611d1d91906120de565b901c9150602182611d2e91906120de565b81611d399190611fef565b90508360ff168583611d4b91906120de565b901c9150600182611d5c91906120de565b81611d679190611fef565b90508360ff166001901b856f0688589cc0e9505e2f2fee558000000083611d8e919061207c565b611d989190611fef565b611da29190611fef565b9250505092915050565b600080600090506000839050610100811015611dec575b6001811115611de757600181901c9050600182611de09190612045565b9150611dc3565b611e2d565b6000608090505b60008160ff161115611e2b578060ff166001901b8210611e1c578060ff1682901c915080831792505b60018160ff16901c9050611df3565b505b8192505050919050565b600081359050611e46816123da565b92915050565b600081359050611e5b816123f1565b92915050565b60008060008060808587031215611e7b57611e7a612372565b5b6000611e8987828801611e37565b9450506020611e9a87828801611e37565b9350506040611eab87828801611e4c565b9250506060611ebc87828801611e37565b91505092959194509250565b6000611ed382611fd3565b611edd8185611fde565b9350611eed8185602086016121c7565b611ef681612377565b840191505092915050565b6000611f0e601c83611fde565b9150611f1982612388565b602082019050919050565b6000611f31601883611fde565b9150611f3c826123b1565b602082019050919050565b611f50816121a0565b82525050565b60006020820190508181036000830152611f708184611ec8565b905092915050565b60006020820190508181036000830152611f9181611f01565b9050919050565b60006020820190508181036000830152611fb181611f24565b9050919050565b6000602082019050611fcd6000830184611f47565b92915050565b600081519050919050565b600082825260208201905092915050565b6000611ffa826121a0565b9150612005836121a0565b9250827fffffffffffffffffffffffffffffffffffffffffffffffffffffffffffffffff0382111561203a576120396122b6565b5b828201905092915050565b6000612050826121ba565b915061205b836121ba565b92508260ff03821115612071576120706122b6565b5b828201905092915050565b6000612087826121a0565b9150612092836121a0565b9250826120a2576120a16122e5565b5b828204905092915050565b60006120b8826121ba565b91506120c3836121ba565b9250826120d3576120d26122e5565b5b828204905092915050565b60006120e9826121a0565b91506120f4836121a0565b9250817fffffffffffffffffffffffffffffffffffffffffffffffffffffffffffffffff048311821515161561212d5761212c6122b6565b5b828202905092915050565b6000612143826121a0565b915061214e836121a0565b925082821015612161576121606122b6565b5b828203905092915050565b6000612177826121ba565b9150612182836121ba565b925082821015612195576121946122b6565b5b828203905092915050565b6000819050919050565b600063ffffffff82169050919050565b600060ff82169050919050565b60005b838110156121e55780820151818401526020810190506121ca565b838111156121f4576000848401525b50505050565b6000612205826121ba565b91506000821415612219576122186122b6565b5b600182039050919050565b6000600282049050600182168061223c57607f821691505b602082108114156122505761224f612314565b5b50919050565b6000612261826121a0565b915061226c836121a0565b92508261227c5761227b6122e5565b5b828206905092915050565b7f4e487b7100000000000000000000000000000000000000000000000000000000600052600160045260246000fd5b7f4e487b7100000000000000000000000000000000000000000000000000000000600052601160045260246000fd5b7f4e487b7100000000000000000000000000000000000000000000000000000000600052601260045260246000fd5b7f4e487b7100000000000000000000000000000000000000000000000000000000600052602260045260246000fd5b7f4e487b7100000000000000000000000000000000000000000000000000000000600052603260045260246000fd5b600080fd5b6000601f19601f8301169050919050565b7f4261736573203c203120617265206e6f7420737570706f727465642e00000000600082015250565b7f626173654e2065786365656473206d61782076616c75652e0000000000000000600082015250565b6123e3816121a0565b81146123ee57600080fd5b50565b6123fa816121aa565b811461240557600080fd5b5056fea2646970667358221220e46e9d85c17b7ecd30cbc24c6bb1700f1057226f20bd4d861561b70f818ea5e364736f6c63430008070033",
			"opcodes": "PUSH1 0x80 PUSH1 0x40 MSTORE PUSH1 0x40 MLOAD DUP1 PUSH1 0x40 ADD PUSH1 0x40 MSTORE DUP1 PUSH1 0x3 DUP2 MSTORE PUSH1 0x20 ADD PUSH32 0x302E330000000000000000000000000000000000000000000000000000000000 DUP2 MSTORE POP PUSH1 0x0 SWAP1 DUP1 MLOAD SWAP1 PUSH1 0x20 ADD SWAP1 PUSH3 0x51 SWAP3 SWAP2 SWAP1 PUSH3 0x11F6 JUMP JUMPDEST POP CALLVALUE DUP1 ISZERO PUSH3 0x5F JUMPI PUSH1 0x0 DUP1 REVERT JUMPDEST POP PUSH17 0x1C35FEDD14FFFFFFFFFFFFFFFFFFFFFFFF PUSH1 0x1 PUSH1 0x20 PUSH1 0x80 DUP2 LT PUSH3 0x8A JUMPI PUSH3 0x89 PUSH3 0x130B JUMP JUMPDEST JUMPDEST ADD DUP2 SWAP1 SSTORE POP PUSH17 0x1B0CE43B323FFFFFFFFFFFFFFFFFFFFFFF PUSH1 0x1 PUSH1 0x21 PUSH1 0x80 DUP2 LT PUSH3 0xB9 JUMPI PUSH3 0xB8 PUSH3 0x130B JUMP JUMPDEST JUMPDEST ADD DUP2 SWAP1 SSTORE POP PUSH17 0x19F0028EC1FFFFFFFFFFFFFFFFFFFFFFFF PUSH1 0x1 PUSH1 0x22 PUSH1 0x80 DUP2 LT PUSH3 0xE8 JUMPI PUSH3 0xE7 PUSH3 0x130B JUMP JUMPDEST JUMPDEST ADD DUP2 SWAP1 SSTORE POP PUSH17 0x18DED91F0E7FFFFFFFFFFFFFFFFFFFFFFF PUSH1 0x1 PUSH1 0x23 PUSH1 0x80 DUP2 LT PUSH3 0x117 JUMPI PUSH3 0x116 PUSH3 0x130B JUMP JUMPDEST JUMPDEST ADD DUP2 SWAP1 SSTORE POP PUSH17 0x17D8EC7F0417FFFFFFFFFFFFFFFFFFFFFF PUSH1 0x1 PUSH1 0x24 PUSH1 0x80 DUP2 LT PUSH3 0x146 JUMPI PUSH3 0x145 PUSH3 0x130B JUMP JUMPDEST JUMPDEST ADD DUP2 SWAP1 SSTORE POP PUSH17 0x16DDC6556CDBFFFFFFFFFFFFFFFFFFFFFF PUSH1 0x1 PUSH1 0x25 PUSH1 0x80 DUP2 LT PUSH3 0x175 JUMPI PUSH3 0x174 PUSH3 0x130B JUMP JUMPDEST JUMPDEST ADD DUP2 SWAP1 SSTORE POP PUSH17 0x15ECF52776A1FFFFFFFFFFFFFFFFFFFFFF PUSH1 0x1 PUSH1 0x26 PUSH1 0x80 DUP2 LT PUSH3 0x1A4 JUMPI PUSH3 0x1A3 PUSH3 0x130B JUMP JUMPDEST JUMPDEST ADD DUP2 SWAP1 SSTORE POP PUSH17 0x15060C256CB2FFFFFFFFFFFFFFFFFFFFFF PUSH1 0x1 PUSH1 0x27 PUSH1 0x80 DUP2 LT PUSH3 0x1D3 JUMPI PUSH3 0x1D2 PUSH3 0x130B JUMP JUMPDEST JUMPDEST ADD DUP2 SWAP1 SSTORE POP PUSH17 0x1428A2F98D72FFFFFFFFFFFFFFFFFFFFFF PUSH1 0x1 PUSH1 0x28 PUSH1 0x80 DUP2 LT PUSH3 0x202 JUMPI PUSH3 0x201 PUSH3 0x130B JUMP JUMPDEST JUMPDEST ADD DUP2 SWAP1 SSTORE POP PUSH17 0x13545598E5C23FFFFFFFFFFFFFFFFFFFFF PUSH1 0x1 PUSH1 0x29 PUSH1 0x80 DUP2 LT PUSH3 0x231 JUMPI PUSH3 0x230 PUSH3 0x130B JUMP JUMPDEST JUMPDEST ADD DUP2 SWAP1 SSTORE POP PUSH17 0x1288C4161CE1DFFFFFFFFFFFFFFFFFFFFF PUSH1 0x1 PUSH1 0x2A PUSH1 0x80 DUP2 LT PUSH3 0x260 JUMPI PUSH3 0x25F PUSH3 0x130B JUMP JUMPDEST JUMPDEST ADD DUP2 SWAP1 SSTORE POP PUSH17 0x11C592761C666FFFFFFFFFFFFFFFFFFFFF PUSH1 0x1 PUSH1 0x2B PUSH1 0x80 DUP2 LT PUSH3 0x28F JUMPI PUSH3 0x28E PUSH3 0x130B JUMP JUMPDEST JUMPDEST ADD DUP2 SWAP1 SSTORE POP PUSH17 0x110A688680A757FFFFFFFFFFFFFFFFFFFF PUSH1 0x1 PUSH1 0x2C PUSH1 0x80 DUP2 LT PUSH3 0x2BE JUMPI PUSH3 0x2BD PUSH3 0x130B JUMP JUMPDEST JUMPDEST ADD DUP2 SWAP1 SSTORE POP PUSH17 0x1056F1B5BEDF77FFFFFFFFFFFFFFFFFFFF PUSH1 0x1 PUSH1 0x2D PUSH1 0x80 DUP2 LT PUSH3 0x2ED JUMPI PUSH3 0x2EC PUSH3 0x130B JUMP JUMPDEST JUMPDEST ADD DUP2 SWAP1 SSTORE POP PUSH17 0xFAADCECEEFF8BFFFFFFFFFFFFFFFFFFFF PUSH1 0x1 PUSH1 0x2E PUSH1 0x80 DUP2 LT PUSH3 0x31C JUMPI PUSH3 0x31B PUSH3 0x130B JUMP JUMPDEST JUMPDEST ADD DUP2 SWAP1 SSTORE POP PUSH17 0xF05DC6B27EDADFFFFFFFFFFFFFFFFFFFF PUSH1 0x1 PUSH1 0x2F PUSH1 0x80 DUP2 LT PUSH3 0x34B JUMPI PUSH3 0x34A PUSH3 0x130B JUMP JUMPDEST JUMPDEST ADD DUP2 SWAP1 SSTORE POP PUSH17 0xE67A5A25DA4107FFFFFFFFFFFFFFFFFFF PUSH1 0x1 PUSH1 0x30 PUSH1 0x80 DUP2 LT PUSH3 0x37A JUMPI PUSH3 0x379 PUSH3 0x130B JUMP JUMPDEST JUMPDEST ADD DUP2 SWAP1 SSTORE POP PUSH17 0xDCFF115B14EEDFFFFFFFFFFFFFFFFFFFF PUSH1 0x1 PUSH1 0x31 PUSH1 0x80 DUP2 LT PUSH3 0x3A9 JUMPI PUSH3 0x3A8 PUSH3 0x130B JUMP JUMPDEST JUMPDEST ADD DUP2 SWAP1 SSTORE POP PUSH17 0xD3E7A392431239FFFFFFFFFFFFFFFFFFF PUSH1 0x1 PUSH1 0x32 PUSH1 0x80 DUP2 LT PUSH3 0x3D8 JUMPI PUSH3 0x3D7 PUSH3 0x130B JUMP JUMPDEST JUMPDEST ADD DUP2 SWAP1 SSTORE POP PUSH17 0xCB2FF529EB71E4FFFFFFFFFFFFFFFFFFF PUSH1 0x1 PUSH1 0x33 PUSH1 0x80 DUP2 LT PUSH3 0x407 JUMPI PUSH3 0x406 PUSH3 0x130B JUMP JUMPDEST JUMPDEST ADD DUP2 SWAP1 SSTORE POP PUSH17 0xC2D415C3DB974AFFFFFFFFFFFFFFFFFFF PUSH1 0x1 PUSH1 0x34 PUSH1 0x80 DUP2 LT PUSH3 0x436 JUMPI PUSH3 0x435 PUSH3 0x130B JUMP JUMPDEST JUMPDEST ADD DUP2 SWAP1 SSTORE POP PUSH17 0xBAD03E7D883F69BFFFFFFFFFFFFFFFFFF PUSH1 0x1 PUSH1 0x35 PUSH1 0x80 DUP2 LT PUSH3 0x465 JUMPI PUSH3 0x464 PUSH3 0x130B JUMP JUMPDEST JUMPDEST ADD DUP2 SWAP1 SSTORE POP PUSH17 0xB320D03B2C343D5FFFFFFFFFFFFFFFFFF PUSH1 0x1 PUSH1 0x36 PUSH1 0x80 DUP2 LT PUSH3 0x494 JUMPI PUSH3 0x493 PUSH3 0x130B JUMP JUMPDEST JUMPDEST ADD DUP2 SWAP1 SSTORE POP PUSH17 0xABC25204E02828DFFFFFFFFFFFFFFFFFF PUSH1 0x1 PUSH1 0x37 PUSH1 0x80 DUP2 LT PUSH3 0x4C3 JUMPI PUSH3 0x4C2 PUSH3 0x130B JUMP JUMPDEST JUMPDEST ADD DUP2 SWAP1 SSTORE POP PUSH17 0xA4B16F74EE4BB207FFFFFFFFFFFFFFFFF PUSH1 0x1 PUSH1 0x38 PUSH1 0x80 DUP2 LT PUSH3 0x4F2 JUMPI PUSH3 0x4F1 PUSH3 0x130B JUMP JUMPDEST JUMPDEST ADD DUP2 SWAP1 SSTORE POP PUSH17 0x9DEAF736AC1F569FFFFFFFFFFFFFFFFFF PUSH1 0x1 PUSH1 0x39 PUSH1 0x80 DUP2 LT PUSH3 0x521 JUMPI PUSH3 0x520 PUSH3 0x130B JUMP JUMPDEST JUMPDEST ADD DUP2 SWAP1 SSTORE POP PUSH17 0x976BD9952C7AA957FFFFFFFFFFFFFFFFF PUSH1 0x1 PUSH1 0x3A PUSH1 0x80 DUP2 LT PUSH3 0x550 JUMPI PUSH3 0x54F PUSH3 0x130B JUMP JUMPDEST JUMPDEST ADD DUP2 SWAP1 SSTORE POP PUSH17 0x9131271922EAA606FFFFFFFFFFFFFFFFF PUSH1 0x1 PUSH1 0x3B PUSH1 0x80 DUP2 LT PUSH3 0x57F JUMPI PUSH3 0x57E PUSH3 0x130B JUMP JUMPDEST JUMPDEST ADD DUP2 SWAP1 SSTORE POP PUSH17 0x8B380F3558668C46FFFFFFFFFFFFFFFFF PUSH1 0x1 PUSH1 0x3C PUSH1 0x80 DUP2 LT PUSH3 0x5AE JUMPI PUSH3 0x5AD PUSH3 0x130B JUMP JUMPDEST JUMPDEST ADD DUP2 SWAP1 SSTORE POP PUSH17 0x857DDF0117EFA215BFFFFFFFFFFFFFFFF PUSH1 0x1 PUSH1 0x3D PUSH1 0x80 DUP2 LT PUSH3 0x5DD JUMPI PUSH3 0x5DC PUSH3 0x130B JUMP JUMPDEST JUMPDEST ADD DUP2 SWAP1 SSTORE POP PUSH17 0x7FFFFFFFFFFFFFFFFFFFFFFFFFFFFFFFF PUSH1 0x1 PUSH1 0x3E PUSH1 0x80 DUP2 LT PUSH3 0x60C JUMPI PUSH3 0x60B PUSH3 0x130B JUMP JUMPDEST JUMPDEST ADD DUP2 SWAP1 SSTORE POP PUSH17 0x7ABBF6F6ABB9D087FFFFFFFFFFFFFFFFF PUSH1 0x1 PUSH1 0x3F PUSH1 0x80 DUP2 LT PUSH3 0x63B JUMPI PUSH3 0x63A PUSH3 0x130B JUMP JUMPDEST JUMPDEST ADD DUP2 SWAP1 SSTORE POP PUSH17 0x75AF62CBAC95F7DFA7FFFFFFFFFFFFFFF PUSH1 0x1 PUSH1 0x40 PUSH1 0x80 DUP2 LT PUSH3 0x66A JUMPI PUSH3 0x669 PUSH3 0x130B JUMP JUMPDEST JUMPDEST ADD DUP2 SWAP1 SSTORE POP PUSH17 0x70D7FB7452E187AC13FFFFFFFFFFFFFFF PUSH1 0x1 PUSH1 0x41 PUSH1 0x80 DUP2 LT PUSH3 0x699 JUMPI PUSH3 0x698 PUSH3 0x130B JUMP JUMPDEST JUMPDEST ADD DUP2 SWAP1 SSTORE POP PUSH17 0x6C3390ECC8AF379295FFFFFFFFFFFFFFF PUSH1 0x1 PUSH1 0x42 PUSH1 0x80 DUP2 LT PUSH3 0x6C8 JUMPI PUSH3 0x6C7 PUSH3 0x130B JUMP JUMPDEST JUMPDEST ADD DUP2 SWAP1 SSTORE POP PUSH17 0x67C00A3B07FFC01FD6FFFFFFFFFFFFFFF PUSH1 0x1 PUSH1 0x43 PUSH1 0x80 DUP2 LT PUSH3 0x6F7 JUMPI PUSH3 0x6F6 PUSH3 0x130B JUMP JUMPDEST JUMPDEST ADD DUP2 SWAP1 SSTORE POP PUSH17 0x637B647C39CBB9D3D27FFFFFFFFFFFFFF PUSH1 0x1 PUSH1 0x44 PUSH1 0x80 DUP2 LT PUSH3 0x726 JUMPI PUSH3 0x725 PUSH3 0x130B JUMP JUMPDEST JUMPDEST ADD DUP2 SWAP1 SSTORE POP PUSH17 0x5F63B1FC104DBD39587FFFFFFFFFFFFFF PUSH1 0x1 PUSH1 0x45 PUSH1 0x80 DUP2 LT PUSH3 0x755 JUMPI PUSH3 0x754 PUSH3 0x130B JUMP JUMPDEST JUMPDEST ADD DUP2 SWAP1 SSTORE POP PUSH17 0x5B771955B36E12F7235FFFFFFFFFFFFFF PUSH1 0x1 PUSH1 0x46 PUSH1 0x80 DUP2 LT PUSH3 0x784 JUMPI PUSH3 0x783 PUSH3 0x130B JUMP JUMPDEST JUMPDEST ADD DUP2 SWAP1 SSTORE POP PUSH17 0x57B3D49DDA84556D6F6FFFFFFFFFFFFFF PUSH1 0x1 PUSH1 0x47 PUSH1 0x80 DUP2 LT PUSH3 0x7B3 JUMPI PUSH3 0x7B2 PUSH3 0x130B JUMP JUMPDEST JUMPDEST ADD DUP2 SWAP1 SSTORE POP PUSH17 0x54183095B2C8ECECF30FFFFFFFFFFFFFF PUSH1 0x1 PUSH1 0x48 PUSH1 0x80 DUP2 LT PUSH3 0x7E2 JUMPI PUSH3 0x7E1 PUSH3 0x130B JUMP JUMPDEST JUMPDEST ADD DUP2 SWAP1 SSTORE POP PUSH17 0x50A28BE635CA2B888F77FFFFFFFFFFFFF PUSH1 0x1 PUSH1 0x49 PUSH1 0x80 DUP2 LT PUSH3 0x811 JUMPI PUSH3 0x810 PUSH3 0x130B JUMP JUMPDEST JUMPDEST ADD DUP2 SWAP1 SSTORE POP PUSH17 0x4D5156639708C9DB33C3FFFFFFFFFFFFF PUSH1 0x1 PUSH1 0x4A PUSH1 0x80 DUP2 LT PUSH3 0x840 JUMPI PUSH3 0x83F PUSH3 0x130B JUMP JUMPDEST JUMPDEST ADD DUP2 SWAP1 SSTORE POP PUSH17 0x4A23105873875BD52DFDFFFFFFFFFFFFF PUSH1 0x1 PUSH1 0x4B PUSH1 0x80 DUP2 LT PUSH3 0x86F JUMPI PUSH3 0x86E PUSH3 0x130B JUMP JUMPDEST JUMPDEST ADD DUP2 SWAP1 SSTORE POP PUSH17 0x471649D87199AA990756FFFFFFFFFFFFF PUSH1 0x1 PUSH1 0x4C PUSH1 0x80 DUP2 LT PUSH3 0x89E JUMPI PUSH3 0x89D PUSH3 0x130B JUMP JUMPDEST JUMPDEST ADD DUP2 SWAP1 SSTORE POP PUSH17 0x4429A21A029D4C1457CFBFFFFFFFFFFFF PUSH1 0x1 PUSH1 0x4D PUSH1 0x80 DUP2 LT PUSH3 0x8CD JUMPI PUSH3 0x8CC PUSH3 0x130B JUMP JUMPDEST JUMPDEST ADD DUP2 SWAP1 SSTORE POP PUSH17 0x415BC6D6FB7DD71AF2CB3FFFFFFFFFFFF PUSH1 0x1 PUSH1 0x4E PUSH1 0x80 DUP2 LT PUSH3 0x8FC JUMPI PUSH3 0x8FB PUSH3 0x130B JUMP JUMPDEST JUMPDEST ADD DUP2 SWAP1 SSTORE POP PUSH17 0x3EAB73B3BBFE282243CE1FFFFFFFFFFFF PUSH1 0x1 PUSH1 0x4F PUSH1 0x80 DUP2 LT PUSH3 0x92B JUMPI PUSH3 0x92A PUSH3 0x130B JUMP JUMPDEST JUMPDEST ADD DUP2 SWAP1 SSTORE POP PUSH17 0x3C1771AC9FB6B4C18E229FFFFFFFFFFFF PUSH1 0x1 PUSH1 0x50 PUSH1 0x80 DUP2 LT PUSH3 0x95A JUMPI PUSH3 0x959 PUSH3 0x130B JUMP JUMPDEST JUMPDEST ADD DUP2 SWAP1 SSTORE POP PUSH17 0x399E96897690418F785257FFFFFFFFFFF PUSH1 0x1 PUSH1 0x51 PUSH1 0x80 DUP2 LT PUSH3 0x989 JUMPI PUSH3 0x988 PUSH3 0x130B JUMP JUMPDEST JUMPDEST ADD DUP2 SWAP1 SSTORE POP PUSH17 0x373FC456C53BB779BF0EA9FFFFFFFFFFF PUSH1 0x1 PUSH1 0x52 PUSH1 0x80 DUP2 LT PUSH3 0x9B8 JUMPI PUSH3 0x9B7 PUSH3 0x130B JUMP JUMPDEST JUMPDEST ADD DUP2 SWAP1 SSTORE POP PUSH17 0x34F9E8E490C48E67E6AB8BFFFFFFFFFFF PUSH1 0x1 PUSH1 0x53 PUSH1 0x80 DUP2 LT PUSH3 0x9E7 JUMPI PUSH3 0x9E6 PUSH3 0x130B JUMP JUMPDEST JUMPDEST ADD DUP2 SWAP1 SSTORE POP PUSH17 0x32CBFD4A7ADC790560B3337FFFFFFFFFF PUSH1 0x1 PUSH1 0x54 PUSH1 0x80 DUP2 LT PUSH3 0xA16 JUMPI PUSH3 0xA15 PUSH3 0x130B JUMP JUMPDEST JUMPDEST ADD DUP2 SWAP1 SSTORE POP PUSH17 0x30B50570F6E5D2ACCA94613FFFFFFFFFF PUSH1 0x1 PUSH1 0x55 PUSH1 0x80 DUP2 LT PUSH3 0xA45 JUMPI PUSH3 0xA44 PUSH3 0x130B JUMP JUMPDEST JUMPDEST ADD DUP2 SWAP1 SSTORE POP PUSH17 0x2EB40F9F620FDA6B56C2861FFFFFFFFFF PUSH1 0x1 PUSH1 0x56 PUSH1 0x80 DUP2 LT PUSH3 0xA74 JUMPI PUSH3 0xA73 PUSH3 0x130B JUMP JUMPDEST JUMPDEST ADD DUP2 SWAP1 SSTORE POP PUSH17 0x2CC8340ECB0D0F520A6AF58FFFFFFFFFF PUSH1 0x1 PUSH1 0x57 PUSH1 0x80 DUP2 LT PUSH3 0xAA3 JUMPI PUSH3 0xAA2 PUSH3 0x130B JUMP JUMPDEST JUMPDEST ADD DUP2 SWAP1 SSTORE POP PUSH17 0x2AF09481380A0A35CF1BA02FFFFFFFFFF PUSH1 0x1 PUSH1 0x58 PUSH1 0x80 DUP2 LT PUSH3 0xAD2 JUMPI PUSH3 0xAD1 PUSH3 0x130B JUMP JUMPDEST JUMPDEST ADD DUP2 SWAP1 SSTORE POP PUSH17 0x292C5BDD3B92EC810287B1B3FFFFFFFFF PUSH1 0x1 PUSH1 0x59 PUSH1 0x80 DUP2 LT PUSH3 0xB01 JUMPI PUSH3 0xB00 PUSH3 0x130B JUMP JUMPDEST JUMPDEST ADD DUP2 SWAP1 SSTORE POP PUSH17 0x277ABDCDAB07D5A77AC6D6B9FFFFFFFFF PUSH1 0x1 PUSH1 0x5A PUSH1 0x80 DUP2 LT PUSH3 0xB30 JUMPI PUSH3 0xB2F PUSH3 0x130B JUMP JUMPDEST JUMPDEST ADD DUP2 SWAP1 SSTORE POP PUSH17 0x25DAF6654B1EAA55FD64DF5EFFFFFFFFF PUSH1 0x1 PUSH1 0x5B PUSH1 0x80 DUP2 LT PUSH3 0xB5F JUMPI PUSH3 0xB5E PUSH3 0x130B JUMP JUMPDEST JUMPDEST ADD DUP2 SWAP1 SSTORE POP PUSH17 0x244C49C648BAA98192DCE88B7FFFFFFFF PUSH1 0x1 PUSH1 0x5C PUSH1 0x80 DUP2 LT PUSH3 0xB8E JUMPI PUSH3 0xB8D PUSH3 0x130B JUMP JUMPDEST JUMPDEST ADD DUP2 SWAP1 SSTORE POP PUSH17 0x22CE03CD5619A311B2471268BFFFFFFFF PUSH1 0x1 PUSH1 0x5D PUSH1 0x80 DUP2 LT PUSH3 0xBBD JUMPI PUSH3 0xBBC PUSH3 0x130B JUMP JUMPDEST JUMPDEST ADD DUP2 SWAP1 SSTORE POP PUSH17 0x215F77C045FBE885654A44A0FFFFFFFFF PUSH1 0x1 PUSH1 0x5E PUSH1 0x80 DUP2 LT PUSH3 0xBEC JUMPI PUSH3 0xBEB PUSH3 0x130B JUMP JUMPDEST JUMPDEST ADD DUP2 SWAP1 SSTORE POP PUSH17 0x1FFFFFFFFFFFFFFFFFFFFFFFFFFFFFFFF PUSH1 0x1 PUSH1 0x5F PUSH1 0x80 DUP2 LT PUSH3 0xC1B JUMPI PUSH3 0xC1A PUSH3 0x130B JUMP JUMPDEST JUMPDEST ADD DUP2 SWAP1 SSTORE POP PUSH17 0x1EAEFDBDAAEE7421FC4D3EDE5FFFFFFFF PUSH1 0x1 PUSH1 0x60 PUSH1 0x80 DUP2 LT PUSH3 0xC4A JUMPI PUSH3 0xC49 PUSH3 0x130B JUMP JUMPDEST JUMPDEST ADD DUP2 SWAP1 SSTORE POP PUSH17 0x1D6BD8B2EB257DF7E8CA57B09BFFFFFFF PUSH1 0x1 PUSH1 0x61 PUSH1 0x80 DUP2 LT PUSH3 0xC79 JUMPI PUSH3 0xC78 PUSH3 0x130B JUMP JUMPDEST JUMPDEST ADD DUP2 SWAP1 SSTORE POP PUSH17 0x1C35FEDD14B861EB0443F7F133FFFFFFF PUSH1 0x1 PUSH1 0x62 PUSH1 0x80 DUP2 LT PUSH3 0xCA8 JUMPI PUSH3 0xCA7 PUSH3 0x130B JUMP JUMPDEST JUMPDEST ADD DUP2 SWAP1 SSTORE POP PUSH17 0x1B0CE43B322BCDE4A56E8ADA5AFFFFFFF PUSH1 0x1 PUSH1 0x63 PUSH1 0x80 DUP2 LT PUSH3 0xCD7 JUMPI PUSH3 0xCD6 PUSH3 0x130B JUMP JUMPDEST JUMPDEST ADD DUP2 SWAP1 SSTORE POP PUSH17 0x19F0028EC1FFF007F5A195A39DFFFFFFF PUSH1 0x1 PUSH1 0x64 PUSH1 0x80 DUP2 LT PUSH3 0xD06 JUMPI PUSH3 0xD05 PUSH3 0x130B JUMP JUMPDEST JUMPDEST ADD DUP2 SWAP1 SSTORE POP PUSH17 0x18DED91F0E72EE74F49B15BA527FFFFFF PUSH1 0x1 PUSH1 0x65 PUSH1 0x80 DUP2 LT PUSH3 0xD35 JUMPI PUSH3 0xD34 PUSH3 0x130B JUMP JUMPDEST JUMPDEST ADD DUP2 SWAP1 SSTORE POP PUSH17 0x17D8EC7F04136F4E5615FD41A63FFFFFF PUSH1 0x1 PUSH1 0x66 PUSH1 0x80 DUP2 LT PUSH3 0xD64 JUMPI PUSH3 0xD63 PUSH3 0x130B JUMP JUMPDEST JUMPDEST ADD DUP2 SWAP1 SSTORE POP PUSH17 0x16DDC6556CDB84BDC8D12D22E6FFFFFFF PUSH1 0x1 PUSH1 0x67 PUSH1 0x80 DUP2 LT PUSH3 0xD93 JUMPI PUSH3 0xD92 PUSH3 0x130B JUMP JUMPDEST JUMPDEST ADD DUP2 SWAP1 SSTORE POP PUSH17 0x15ECF52776A1155B5BD8395814F7FFFFF PUSH1 0x1 PUSH1 0x68 PUSH1 0x80 DUP2 LT PUSH3 0xDC2 JUMPI PUSH3 0xDC1 PUSH3 0x130B JUMP JUMPDEST JUMPDEST ADD DUP2 SWAP1 SSTORE POP PUSH17 0x15060C256CB23B3B3CC3754CF40FFFFFF PUSH1 0x1 PUSH1 0x69 PUSH1 0x80 DUP2 LT PUSH3 0xDF1 JUMPI PUSH3 0xDF0 PUSH3 0x130B JUMP JUMPDEST JUMPDEST ADD DUP2 SWAP1 SSTORE POP PUSH17 0x1428A2F98D728AE223DDAB715BE3FFFFF PUSH1 0x1 PUSH1 0x6A PUSH1 0x80 DUP2 LT PUSH3 0xE20 JUMPI PUSH3 0xE1F PUSH3 0x130B JUMP JUMPDEST JUMPDEST ADD DUP2 SWAP1 SSTORE POP PUSH17 0x13545598E5C23276CCF0EDE68034FFFFF PUSH1 0x1 PUSH1 0x6B PUSH1 0x80 DUP2 LT PUSH3 0xE4F JUMPI PUSH3 0xE4E PUSH3 0x130B JUMP JUMPDEST JUMPDEST ADD DUP2 SWAP1 SSTORE POP PUSH17 0x1288C4161CE1D6F54B7F61081194FFFFF PUSH1 0x1 PUSH1 0x6C PUSH1 0x80 DUP2 LT PUSH3 0xE7E JUMPI PUSH3 0xE7D PUSH3 0x130B JUMP JUMPDEST JUMPDEST ADD DUP2 SWAP1 SSTORE POP PUSH17 0x11C592761C666AA641D5A01A40F17FFFF PUSH1 0x1 PUSH1 0x6D PUSH1 0x80 DUP2 LT PUSH3 0xEAD JUMPI PUSH3 0xEAC PUSH3 0x130B JUMP JUMPDEST JUMPDEST ADD DUP2 SWAP1 SSTORE POP PUSH17 0x110A688680A7530515F3E6E6CFDCDFFFF PUSH1 0x1 PUSH1 0x6E PUSH1 0x80 DUP2 LT PUSH3 0xEDC JUMPI PUSH3 0xEDB PUSH3 0x130B JUMP JUMPDEST JUMPDEST ADD DUP2 SWAP1 SSTORE POP PUSH17 0x1056F1B5BEDF75C6BCB2CE8AED428FFFF PUSH1 0x1 PUSH1 0x6F PUSH1 0x80 DUP2 LT PUSH3 0xF0B JUMPI PUSH3 0xF0A PUSH3 0x130B JUMP JUMPDEST JUMPDEST ADD DUP2 SWAP1 SSTORE POP PUSH16 0xFAADCECEEFF8A0890F3875F008277FFF PUSH1 0x1 PUSH1 0x70 PUSH1 0x80 DUP2 LT PUSH3 0xF39 JUMPI PUSH3 0xF38 PUSH3 0x130B JUMP JUMPDEST JUMPDEST ADD DUP2 SWAP1 SSTORE POP PUSH16 0xF05DC6B27EDAD306388A600F6BA0BFFF PUSH1 0x1 PUSH1 0x71 PUSH1 0x80 DUP2 LT PUSH3 0xF67 JUMPI PUSH3 0xF66 PUSH3 0x130B JUMP JUMPDEST JUMPDEST ADD DUP2 SWAP1 SSTORE POP PUSH16 0xE67A5A25DA41063DE1495D5B18CDBFFF PUSH1 0x1 PUSH1 0x72 PUSH1 0x80 DUP2 LT PUSH3 0xF95 JUMPI PUSH3 0xF94 PUSH3 0x130B JUMP JUMPDEST JUMPDEST ADD DUP2 SWAP1 SSTORE POP PUSH16 0xDCFF115B14EEDDE6FC3AA5353F2E4FFF PUSH1 0x1 PUSH1 0x73 PUSH1 0x80 DUP2 LT PUSH3 0xFC3 JUMPI PUSH3 0xFC2 PUSH3 0x130B JUMP JUMPDEST JUMPDEST ADD DUP2 SWAP1 SSTORE POP PUSH16 0xD3E7A3924312399F9AAE2E0F868F8FFF PUSH1 0x1 PUSH1 0x74 PUSH1 0x80 DUP2 LT PUSH3 0xFF1 JUMPI PUSH3 0xFF0 PUSH3 0x130B JUMP JUMPDEST JUMPDEST ADD DUP2 SWAP1 SSTORE POP PUSH16 0xCB2FF529EB71E41582CCCD5A1EE26FFF PUSH1 0x1 PUSH1 0x75 PUSH1 0x80 DUP2 LT PUSH3 0x101F JUMPI PUSH3 0x101E PUSH3 0x130B JUMP JUMPDEST JUMPDEST ADD DUP2 SWAP1 SSTORE POP PUSH16 0xC2D415C3DB974AB32A51840C0B67EDFF PUSH1 0x1 PUSH1 0x76 PUSH1 0x80 DUP2 LT PUSH3 0x104D JUMPI PUSH3 0x104C PUSH3 0x130B JUMP JUMPDEST JUMPDEST ADD DUP2 SWAP1 SSTORE POP PUSH16 0xBAD03E7D883F69AD5B0A186184E06BFF PUSH1 0x1 PUSH1 0x77 PUSH1 0x80 DUP2 LT PUSH3 0x107B JUMPI PUSH3 0x107A PUSH3 0x130B JUMP JUMPDEST JUMPDEST ADD DUP2 SWAP1 SSTORE POP PUSH16 0xB320D03B2C343D4829ABD6075F0CC5FF PUSH1 0x1 PUSH1 0x78 PUSH1 0x80 DUP2 LT PUSH3 0x10A9 JUMPI PUSH3 0x10A8 PUSH3 0x130B JUMP JUMPDEST JUMPDEST ADD DUP2 SWAP1 SSTORE POP PUSH16 0xABC25204E02828D73C6E80BCDB1A95BF PUSH1 0x1 PUSH1 0x79 PUSH1 0x80 DUP2 LT PUSH3 0x10D7 JUMPI PUSH3 0x10D6 PUSH3 0x130B JUMP JUMPDEST JUMPDEST ADD DUP2 SWAP1 SSTORE POP PUSH16 0xA4B16F74EE4BB2040A1EC6C15FBBF2DF PUSH1 0x1 PUSH1 0x7A PUSH1 0x80 DUP2 LT PUSH3 0x1105 JUMPI PUSH3 0x1104 PUSH3 0x130B JUMP JUMPDEST JUMPDEST ADD DUP2 SWAP1 SSTORE POP PUSH16 0x9DEAF736AC1F569DEB1B5AE3F36C130F PUSH1 0x1 PUSH1 0x7B PUSH1 0x80 DUP2 LT PUSH3 0x1133 JUMPI PUSH3 0x1132 PUSH3 0x130B JUMP JUMPDEST JUMPDEST ADD DUP2 SWAP1 SSTORE POP PUSH16 0x976BD9952C7AA957F5937D790EF65037 PUSH1 0x1 PUSH1 0x7C PUSH1 0x80 DUP2 LT PUSH3 0x1161 JUMPI PUSH3 0x1160 PUSH3 0x130B JUMP JUMPDEST JUMPDEST ADD DUP2 SWAP1 SSTORE POP PUSH16 0x9131271922EAA6064B73A22D0BD4F2BF PUSH1 0x1 PUSH1 0x7D PUSH1 0x80 DUP2 LT PUSH3 0x118F JUMPI PUSH3 0x118E PUSH3 0x130B JUMP JUMPDEST JUMPDEST ADD DUP2 SWAP1 SSTORE POP PUSH16 0x8B380F3558668C46C91C49A2F8E967B9 PUSH1 0x1 PUSH1 0x7E PUSH1 0x80 DUP2 LT PUSH3 0x11BD JUMPI PUSH3 0x11BC PUSH3 0x130B JUMP JUMPDEST JUMPDEST ADD DUP2 SWAP1 SSTORE POP PUSH16 0x857DDF0117EFA215952912839F6473E6 PUSH1 0x1 PUSH1 0x7F PUSH1 0x80 DUP2 LT PUSH3 0x11EB JUMPI PUSH3 0x11EA PUSH3 0x130B JUMP JUMPDEST JUMPDEST ADD DUP2 SWAP1 SSTORE POP PUSH3 0x133A JUMP JUMPDEST DUP3 DUP1 SLOAD PUSH3 0x1204 SWAP1 PUSH3 0x12A6 JUMP JUMPDEST SWAP1 PUSH1 0x0 MSTORE PUSH1 0x20 PUSH1 0x0 KECCAK256 SWAP1 PUSH1 0x1F ADD PUSH1 0x20 SWAP1 DIV DUP2 ADD SWAP3 DUP3 PUSH3 0x1228 JUMPI PUSH1 0x0 DUP6 SSTORE PUSH3 0x1274 JUMP JUMPDEST DUP3 PUSH1 0x1F LT PUSH3 0x1243 JUMPI DUP1 MLOAD PUSH1 0xFF NOT AND DUP4 DUP1 ADD OR DUP6 SSTORE PUSH3 0x1274 JUMP JUMPDEST DUP3 DUP1 ADD PUSH1 0x1 ADD DUP6 SSTORE DUP3 ISZERO PUSH3 0x1274 JUMPI SWAP2 DUP3 ADD JUMPDEST DUP3 DUP2 GT ISZERO PUSH3 0x1273 JUMPI DUP3 MLOAD DUP3 SSTORE SWAP2 PUSH1 0x20 ADD SWAP2 SWAP1 PUSH1 0x1 ADD SWAP1 PUSH3 0x1256 JUMP JUMPDEST JUMPDEST POP SWAP1 POP PUSH3 0x1283 SWAP2 SWAP1 PUSH3 0x1287 JUMP JUMPDEST POP SWAP1 JUMP JUMPDEST JUMPDEST DUP1 DUP3 GT ISZERO PUSH3 0x12A2 JUMPI PUSH1 0x0 DUP2 PUSH1 0x0 SWAP1 SSTORE POP PUSH1 0x1 ADD PUSH3 0x1288 JUMP JUMPDEST POP SWAP1 JUMP JUMPDEST PUSH1 0x0 PUSH1 0x2 DUP3 DIV SWAP1 POP PUSH1 0x1 DUP3 AND DUP1 PUSH3 0x12BF JUMPI PUSH1 0x7F DUP3 AND SWAP2 POP JUMPDEST PUSH1 0x20 DUP3 LT DUP2 EQ ISZERO PUSH3 0x12D6 JUMPI PUSH3 0x12D5 PUSH3 0x12DC JUMP JUMPDEST JUMPDEST POP SWAP2 SWAP1 POP JUMP JUMPDEST PUSH32 0x4E487B7100000000000000000000000000000000000000000000000000000000 PUSH1 0x0 MSTORE PUSH1 0x22 PUSH1 0x4 MSTORE PUSH1 0x24 PUSH1 0x0 REVERT JUMPDEST PUSH32 0x4E487B7100000000000000000000000000000000000000000000000000000000 PUSH1 0x0 MSTORE PUSH1 0x32 PUSH1 0x4 MSTORE PUSH1 0x24 PUSH1 0x0 REVERT JUMPDEST PUSH2 0x243E DUP1 PUSH3 0x134A PUSH1 0x0 CODECOPY PUSH1 0x0 RETURN INVALID PUSH1 0x80 PUSH1 0x40 MSTORE CALLVALUE DUP1 ISZERO PUSH2 0x10 JUMPI PUSH1 0x0 DUP1 REVERT JUMPDEST POP PUSH1 0x4 CALLDATASIZE LT PUSH2 0x41 JUMPI PUSH1 0x0 CALLDATALOAD PUSH1 0xE0 SHR DUP1 PUSH4 0x29A00E7C EQ PUSH2 0x46 JUMPI DUP1 PUSH4 0x49F9B0F7 EQ PUSH2 0x76 JUMPI DUP1 PUSH4 0x54FD4D50 EQ PUSH2 0xA6 JUMPI JUMPDEST PUSH1 0x0 DUP1 REVERT JUMPDEST PUSH2 0x60 PUSH1 0x4 DUP1 CALLDATASIZE SUB DUP2 ADD SWAP1 PUSH2 0x5B SWAP2 SWAP1 PUSH2 0x1E61 JUMP JUMPDEST PUSH2 0xC4 JUMP JUMPDEST PUSH1 0x40 MLOAD PUSH2 0x6D SWAP2 SWAP1 PUSH2 0x1FB8 JUMP JUMPDEST PUSH1 0x40 MLOAD DUP1 SWAP2 SUB SWAP1 RETURN JUMPDEST PUSH2 0x90 PUSH1 0x4 DUP1 CALLDATASIZE SUB DUP2 ADD SWAP1 PUSH2 0x8B SWAP2 SWAP1 PUSH2 0x1E61 JUMP JUMPDEST PUSH2 0x1AD JUMP JUMPDEST PUSH1 0x40 MLOAD PUSH2 0x9D SWAP2 SWAP1 PUSH2 0x1FB8 JUMP JUMPDEST PUSH1 0x40 MLOAD DUP1 SWAP2 SUB SWAP1 RETURN JUMPDEST PUSH2 0xAE PUSH2 0x2C3 JUMP JUMPDEST PUSH1 0x40 MLOAD PUSH2 0xBB SWAP2 SWAP1 PUSH2 0x1F56 JUMP JUMPDEST PUSH1 0x40 MLOAD DUP1 SWAP2 SUB SWAP1 RETURN JUMPDEST PUSH1 0x0 DUP1 DUP6 GT DUP1 ISZERO PUSH2 0xD5 JUMPI POP PUSH1 0x0 DUP5 GT JUMPDEST DUP1 ISZERO PUSH2 0xE7 JUMPI POP PUSH1 0x0 DUP4 PUSH4 0xFFFFFFFF AND GT JUMPDEST DUP1 ISZERO PUSH2 0x102 JUMPI POP PUSH3 0xF4240 PUSH4 0xFFFFFFFF AND DUP4 PUSH4 0xFFFFFFFF AND GT ISZERO JUMPDEST PUSH2 0x10B JUMPI PUSH1 0x0 DUP1 REVERT JUMPDEST PUSH1 0x0 DUP3 EQ ISZERO PUSH2 0x11D JUMPI PUSH1 0x0 SWAP1 POP PUSH2 0x1A5 JUMP JUMPDEST PUSH3 0xF4240 PUSH4 0xFFFFFFFF AND DUP4 PUSH4 0xFFFFFFFF AND EQ ISZERO PUSH2 0x152 JUMPI DUP4 DUP3 DUP7 PUSH2 0x141 SWAP2 SWAP1 PUSH2 0x20DE JUMP JUMPDEST PUSH2 0x14B SWAP2 SWAP1 PUSH2 0x207C JUMP JUMPDEST SWAP1 POP PUSH2 0x1A5 JUMP JUMPDEST PUSH1 0x0 DUP1 PUSH1 0x0 DUP7 DUP6 PUSH2 0x163 SWAP2 SWAP1 PUSH2 0x1FEF JUMP JUMPDEST SWAP1 POP PUSH2 0x174 DUP2 DUP9 DUP9 PUSH3 0xF4240 PUSH2 0x351 JUMP JUMPDEST DUP1 SWAP4 POP DUP2 SWAP5 POP POP POP PUSH1 0x0 DUP3 PUSH1 0xFF AND DUP5 DUP11 PUSH2 0x18E SWAP2 SWAP1 PUSH2 0x20DE JUMP JUMPDEST SWAP1 SHR SWAP1 POP DUP9 DUP2 PUSH2 0x19E SWAP2 SWAP1 PUSH2 0x2138 JUMP JUMPDEST SWAP5 POP POP POP POP POP JUMPDEST SWAP5 SWAP4 POP POP POP POP JUMP JUMPDEST PUSH1 0x0 DUP1 DUP6 GT DUP1 ISZERO PUSH2 0x1BE JUMPI POP PUSH1 0x0 DUP5 GT JUMPDEST DUP1 ISZERO PUSH2 0x1D0 JUMPI POP PUSH1 0x0 DUP4 PUSH4 0xFFFFFFFF AND GT JUMPDEST DUP1 ISZERO PUSH2 0x1EB JUMPI POP PUSH3 0xF4240 PUSH4 0xFFFFFFFF AND DUP4 PUSH4 0xFFFFFFFF AND GT ISZERO JUMPDEST DUP1 ISZERO PUSH2 0x1F7 JUMPI POP DUP5 DUP3 GT ISZERO JUMPDEST PUSH2 0x200 JUMPI PUSH1 0x0 DUP1 REVERT JUMPDEST PUSH1 0x0 DUP3 EQ ISZERO PUSH2 0x212 JUMPI PUSH1 0x0 SWAP1 POP PUSH2 0x2BB JUMP JUMPDEST DUP5 DUP3 EQ ISZERO PUSH2 0x222 JUMPI DUP4 SWAP1 POP PUSH2 0x2BB JUMP JUMPDEST PUSH3 0xF4240 PUSH4 0xFFFFFFFF AND DUP4 PUSH4 0xFFFFFFFF AND EQ ISZERO PUSH2 0x257 JUMPI DUP5 DUP3 DUP6 PUSH2 0x246 SWAP2 SWAP1 PUSH2 0x20DE JUMP JUMPDEST PUSH2 0x250 SWAP2 SWAP1 PUSH2 0x207C JUMP JUMPDEST SWAP1 POP PUSH2 0x2BB JUMP JUMPDEST PUSH1 0x0 DUP1 PUSH1 0x0 DUP5 DUP9 PUSH2 0x268 SWAP2 SWAP1 PUSH2 0x2138 JUMP JUMPDEST SWAP1 POP PUSH2 0x279 DUP9 DUP3 PUSH3 0xF4240 DUP10 PUSH2 0x351 JUMP JUMPDEST DUP1 SWAP4 POP DUP2 SWAP5 POP POP POP PUSH1 0x0 DUP4 DUP9 PUSH2 0x28F SWAP2 SWAP1 PUSH2 0x20DE JUMP JUMPDEST SWAP1 POP PUSH1 0x0 DUP4 PUSH1 0xFF AND DUP10 SWAP1 SHL SWAP1 POP DUP5 DUP2 DUP4 PUSH2 0x2A9 SWAP2 SWAP1 PUSH2 0x2138 JUMP JUMPDEST PUSH2 0x2B3 SWAP2 SWAP1 PUSH2 0x207C JUMP JUMPDEST SWAP6 POP POP POP POP POP POP JUMPDEST SWAP5 SWAP4 POP POP POP POP JUMP JUMPDEST PUSH1 0x0 DUP1 SLOAD PUSH2 0x2D0 SWAP1 PUSH2 0x2224 JUMP JUMPDEST DUP1 PUSH1 0x1F ADD PUSH1 0x20 DUP1 SWAP2 DIV MUL PUSH1 0x20 ADD PUSH1 0x40 MLOAD SWAP1 DUP2 ADD PUSH1 0x40 MSTORE DUP1 SWAP3 SWAP2 SWAP1 DUP2 DUP2 MSTORE PUSH1 0x20 ADD DUP3 DUP1 SLOAD PUSH2 0x2FC SWAP1 PUSH2 0x2224 JUMP JUMPDEST DUP1 ISZERO PUSH2 0x349 JUMPI DUP1 PUSH1 0x1F LT PUSH2 0x31E JUMPI PUSH2 0x100 DUP1 DUP4 SLOAD DIV MUL DUP4 MSTORE SWAP2 PUSH1 0x20 ADD SWAP2 PUSH2 0x349 JUMP JUMPDEST DUP3 ADD SWAP2 SWAP1 PUSH1 0x0 MSTORE PUSH1 0x20 PUSH1 0x0 KECCAK256 SWAP1 JUMPDEST DUP2 SLOAD DUP2 MSTORE SWAP1 PUSH1 0x1 ADD SWAP1 PUSH1 0x20 ADD DUP1 DUP4 GT PUSH2 0x32C JUMPI DUP3 SWAP1 SUB PUSH1 0x1F AND DUP3 ADD SWAP2 JUMPDEST POP POP POP POP POP DUP2 JUMP JUMPDEST PUSH1 0x0 DUP1 PUSH17 0x200000000000000000000000000000000 DUP7 LT PUSH2 0x3A7 JUMPI PUSH1 0x40 MLOAD PUSH32 0x8C379A000000000000000000000000000000000000000000000000000000000 DUP2 MSTORE PUSH1 0x4 ADD PUSH2 0x39E SWAP1 PUSH2 0x1F98 JUMP JUMPDEST PUSH1 0x40 MLOAD DUP1 SWAP2 SUB SWAP1 REVERT JUMPDEST DUP5 DUP7 LT ISZERO PUSH2 0x3EA JUMPI PUSH1 0x40 MLOAD PUSH32 0x8C379A000000000000000000000000000000000000000000000000000000000 DUP2 MSTORE PUSH1 0x4 ADD PUSH2 0x3E1 SWAP1 PUSH2 0x1F78 JUMP JUMPDEST PUSH1 0x40 MLOAD DUP1 SWAP2 SUB SWAP1 REVERT JUMPDEST PUSH1 0x0 DUP1 DUP7 PUSH16 0x80000000000000000000000000000000 DUP10 PUSH2 0x40A SWAP2 SWAP1 PUSH2 0x20DE JUMP JUMPDEST PUSH2 0x414 SWAP2 SWAP1 PUSH2 0x207C JUMP JUMPDEST SWAP1 POP PUSH17 0x15BF0A8B1457695355FB8AC404E7A79E3 DUP2 LT ISZERO PUSH2 0x43F JUMPI PUSH2 0x438 DUP2 PUSH2 0x4DE JUMP JUMPDEST SWAP2 POP PUSH2 0x44B JUMP JUMPDEST PUSH2 0x448 DUP2 PUSH2 0xC57 JUMP JUMPDEST SWAP2 POP JUMPDEST PUSH1 0x0 DUP6 PUSH4 0xFFFFFFFF AND DUP8 PUSH4 0xFFFFFFFF AND DUP5 PUSH2 0x466 SWAP2 SWAP1 PUSH2 0x20DE JUMP JUMPDEST PUSH2 0x470 SWAP2 SWAP1 PUSH2 0x207C JUMP JUMPDEST SWAP1 POP PUSH17 0x800000000000000000000000000000000 DUP2 LT ISZERO PUSH2 0x4A2 JUMPI PUSH2 0x494 DUP2 PUSH2 0xDB7 JUMP JUMPDEST PUSH1 0x7F SWAP5 POP SWAP5 POP POP POP POP PUSH2 0x4D5 JUMP JUMPDEST PUSH1 0x0 PUSH2 0x4AD DUP3 PUSH2 0x15BB JUMP JUMPDEST SWAP1 POP PUSH2 0x4CB DUP2 PUSH1 0x7F PUSH2 0x4BF SWAP2 SWAP1 PUSH2 0x216C JUMP JUMPDEST PUSH1 0xFF AND DUP4 SWAP1 SHR DUP3 PUSH2 0x169D JUMP JUMPDEST DUP2 SWAP6 POP SWAP6 POP POP POP POP POP JUMPDEST SWAP5 POP SWAP5 SWAP3 POP POP POP JUMP JUMPDEST PUSH1 0x0 DUP1 PUSH1 0x0 SWAP1 POP PUSH1 0x0 DUP1 PUSH1 0x0 PUSH16 0xD3094C70F034DE4B96FF7D5B6F99FCD8 DUP7 LT PUSH2 0x559 JUMPI PUSH16 0x40000000000000000000000000000000 DUP5 PUSH2 0x51D SWAP2 SWAP1 PUSH2 0x1FEF JUMP JUMPDEST SWAP4 POP PUSH16 0xD3094C70F034DE4B96FF7D5B6F99FCD8 PUSH16 0x80000000000000000000000000000000 DUP8 PUSH2 0x54C SWAP2 SWAP1 PUSH2 0x20DE JUMP JUMPDEST PUSH2 0x556 SWAP2 SWAP1 PUSH2 0x207C JUMP JUMPDEST SWAP6 POP JUMPDEST PUSH16 0xA45AF1E1F40C333B3DE1DB4DD55F29A7 DUP7 LT PUSH2 0x5C8 JUMPI PUSH16 0x20000000000000000000000000000000 DUP5 PUSH2 0x58C SWAP2 SWAP1 PUSH2 0x1FEF JUMP JUMPDEST SWAP4 POP PUSH16 0xA45AF1E1F40C333B3DE1DB4DD55F29A7 PUSH16 0x80000000000000000000000000000000 DUP8 PUSH2 0x5BB SWAP2 SWAP1 PUSH2 0x20DE JUMP JUMPDEST PUSH2 0x5C5 SWAP2 SWAP1 PUSH2 0x207C JUMP JUMPDEST SWAP6 POP JUMPDEST PUSH16 0x910B022DB7AE67CE76B441C27035C6A1 DUP7 LT PUSH2 0x637 JUMPI PUSH16 0x10000000000000000000000000000000 DUP5 PUSH2 0x5FB SWAP2 SWAP1 PUSH2 0x1FEF JUMP JUMPDEST SWAP4 POP PUSH16 0x910B022DB7AE67CE76B441C27035C6A1 PUSH16 0x80000000000000000000000000000000 DUP8 PUSH2 0x62A SWAP2 SWAP1 PUSH2 0x20DE JUMP JUMPDEST PUSH2 0x634 SWAP2 SWAP1 PUSH2 0x207C JUMP JUMPDEST SWAP6 POP JUMPDEST PUSH16 0x88415ABBE9A76BEAD8D00CF112E4D4A8 DUP7 LT PUSH2 0x6A6 JUMPI PUSH16 0x8000000000000000000000000000000 DUP5 PUSH2 0x66A SWAP2 SWAP1 PUSH2 0x1FEF JUMP JUMPDEST SWAP4 POP PUSH16 0x88415ABBE9A76BEAD8D00CF112E4D4A8 PUSH16 0x80000000000000000000000000000000 DUP8 PUSH2 0x699 SWAP2 SWAP1 PUSH2 0x20DE JUMP JUMPDEST PUSH2 0x6A3 SWAP2 SWAP1 PUSH2 0x207C JUMP JUMPDEST SWAP6 POP JUMPDEST PUSH16 0x84102B00893F64C705E841D5D4064BD3 DUP7 LT PUSH2 0x715 JUMPI PUSH16 0x4000000000000000000000000000000 DUP5 PUSH2 0x6D9 SWAP2 SWAP1 PUSH2 0x1FEF JUMP JUMPDEST SWAP4 POP PUSH16 0x84102B00893F64C705E841D5D4064BD3 PUSH16 0x80000000000000000000000000000000 DUP8 PUSH2 0x708 SWAP2 SWAP1 PUSH2 0x20DE JUMP JUMPDEST PUSH2 0x712 SWAP2 SWAP1 PUSH2 0x207C JUMP JUMPDEST SWAP6 POP JUMPDEST PUSH16 0x8204055AAEF1C8BD5C3259F4822735A2 DUP7 LT PUSH2 0x784 JUMPI PUSH16 0x2000000000000000000000000000000 DUP5 PUSH2 0x748 SWAP2 SWAP1 PUSH2 0x1FEF JUMP JUMPDEST SWAP4 POP PUSH16 0x8204055AAEF1C8BD5C3259F4822735A2 PUSH16 0x80000000000000000000000000000000 DUP8 PUSH2 0x777 SWAP2 SWAP1 PUSH2 0x20DE JUMP JUMPDEST PUSH2 0x781 SWAP2 SWAP1 PUSH2 0x207C JUMP JUMPDEST SWAP6 POP JUMPDEST PUSH16 0x810100AB00222D861931C15E39B44E99 DUP7 LT PUSH2 0x7F3 JUMPI PUSH16 0x1000000000000000000000000000000 DUP5 PUSH2 0x7B7 SWAP2 SWAP1 PUSH2 0x1FEF JUMP JUMPDEST SWAP4 POP PUSH16 0x810100AB00222D861931C15E39B44E99 PUSH16 0x80000000000000000000000000000000 DUP8 PUSH2 0x7E6 SWAP2 SWAP1 PUSH2 0x20DE JUMP JUMPDEST PUSH2 0x7F0 SWAP2 SWAP1 PUSH2 0x207C JUMP JUMPDEST SWAP6 POP JUMPDEST PUSH16 0x808040155AABBBE9451521693554F733 DUP7 LT PUSH2 0x861 JUMPI PUSH15 0x800000000000000000000000000000 DUP5 PUSH2 0x825 SWAP2 SWAP1 PUSH2 0x1FEF JUMP JUMPDEST SWAP4 POP PUSH16 0x808040155AABBBE9451521693554F733 PUSH16 0x80000000000000000000000000000000 DUP8 PUSH2 0x854 SWAP2 SWAP1 PUSH2 0x20DE JUMP JUMPDEST PUSH2 0x85E SWAP2 SWAP1 PUSH2 0x207C JUMP JUMPDEST SWAP6 POP JUMPDEST PUSH16 0x80000000000000000000000000000000 DUP7 PUSH2 0x87D SWAP2 SWAP1 PUSH2 0x2138 JUMP JUMPDEST SWAP3 POP DUP3 SWAP2 POP PUSH16 0x80000000000000000000000000000000 DUP4 DUP5 PUSH2 0x89F SWAP2 SWAP1 PUSH2 0x20DE JUMP JUMPDEST PUSH2 0x8A9 SWAP2 SWAP1 PUSH2 0x207C JUMP JUMPDEST SWAP1 POP PUSH17 0x100000000000000000000000000000000 DUP4 PUSH17 0x100000000000000000000000000000000 PUSH2 0x8DA SWAP2 SWAP1 PUSH2 0x2138 JUMP JUMPDEST DUP4 PUSH2 0x8E5 SWAP2 SWAP1 PUSH2 0x20DE JUMP JUMPDEST PUSH2 0x8EF SWAP2 SWAP1 PUSH2 0x207C JUMP JUMPDEST DUP5 PUSH2 0x8FA SWAP2 SWAP1 PUSH2 0x1FEF JUMP JUMPDEST SWAP4 POP PUSH16 0x80000000000000000000000000000000 DUP2 DUP4 PUSH2 0x919 SWAP2 SWAP1 PUSH2 0x20DE JUMP JUMPDEST PUSH2 0x923 SWAP2 SWAP1 PUSH2 0x207C JUMP JUMPDEST SWAP2 POP PUSH17 0x200000000000000000000000000000000 DUP4 PUSH16 0xAAAAAAAAAAAAAAAAAAAAAAAAAAAAAAAA PUSH2 0x953 SWAP2 SWAP1 PUSH2 0x2138 JUMP JUMPDEST DUP4 PUSH2 0x95E SWAP2 SWAP1 PUSH2 0x20DE JUMP JUMPDEST PUSH2 0x968 SWAP2 SWAP1 PUSH2 0x207C JUMP JUMPDEST DUP5 PUSH2 0x973 SWAP2 SWAP1 PUSH2 0x1FEF JUMP JUMPDEST SWAP4 POP PUSH16 0x80000000000000000000000000000000 DUP2 DUP4 PUSH2 0x992 SWAP2 SWAP1 PUSH2 0x20DE JUMP JUMPDEST PUSH2 0x99C SWAP2 SWAP1 PUSH2 0x207C JUMP JUMPDEST SWAP2 POP PUSH17 0x300000000000000000000000000000000 DUP4 PUSH16 0x99999999999999999999999999999999 PUSH2 0x9CC SWAP2 SWAP1 PUSH2 0x2138 JUMP JUMPDEST DUP4 PUSH2 0x9D7 SWAP2 SWAP1 PUSH2 0x20DE JUMP JUMPDEST PUSH2 0x9E1 SWAP2 SWAP1 PUSH2 0x207C JUMP JUMPDEST DUP5 PUSH2 0x9EC SWAP2 SWAP1 PUSH2 0x1FEF JUMP JUMPDEST SWAP4 POP PUSH16 0x80000000000000000000000000000000 DUP2 DUP4 PUSH2 0xA0B SWAP2 SWAP1 PUSH2 0x20DE JUMP JUMPDEST PUSH2 0xA15 SWAP2 SWAP1 PUSH2 0x207C JUMP JUMPDEST SWAP2 POP PUSH17 0x400000000000000000000000000000000 DUP4 PUSH16 0x92492492492492492492492492492492 PUSH2 0xA45 SWAP2 SWAP1 PUSH2 0x2138 JUMP JUMPDEST DUP4 PUSH2 0xA50 SWAP2 SWAP1 PUSH2 0x20DE JUMP JUMPDEST PUSH2 0xA5A SWAP2 SWAP1 PUSH2 0x207C JUMP JUMPDEST DUP5 PUSH2 0xA65 SWAP2 SWAP1 PUSH2 0x1FEF JUMP JUMPDEST SWAP4 POP PUSH16 0x80000000000000000000000000000000 DUP2 DUP4 PUSH2 0xA84 SWAP2 SWAP1 PUSH2 0x20DE JUMP JUMPDEST PUSH2 0xA8E SWAP2 SWAP1 PUSH2 0x207C JUMP JUMPDEST SWAP2 POP PUSH17 0x500000000000000000000000000000000 DUP4 PUSH16 0x8E38E38E38E38E38E38E38E38E38E38E PUSH2 0xABE SWAP2 SWAP1 PUSH2 0x2138 JUMP JUMPDEST DUP4 PUSH2 0xAC9 SWAP2 SWAP1 PUSH2 0x20DE JUMP JUMPDEST PUSH2 0xAD3 SWAP2 SWAP1 PUSH2 0x207C JUMP JUMPDEST DUP5 PUSH2 0xADE SWAP2 SWAP1 PUSH2 0x1FEF JUMP JUMPDEST SWAP4 POP PUSH16 0x80000000000000000000000000000000 DUP2 DUP4 PUSH2 0xAFD SWAP2 SWAP1 PUSH2 0x20DE JUMP JUMPDEST PUSH2 0xB07 SWAP2 SWAP1 PUSH2 0x207C JUMP JUMPDEST SWAP2 POP PUSH17 0x600000000000000000000000000000000 DUP4 PUSH16 0x8BA2E8BA2E8BA2E8BA2E8BA2E8BA2E8B PUSH2 0xB37 SWAP2 SWAP1 PUSH2 0x2138 JUMP JUMPDEST DUP4 PUSH2 0xB42 SWAP2 SWAP1 PUSH2 0x20DE JUMP JUMPDEST PUSH2 0xB4C SWAP2 SWAP1 PUSH2 0x207C JUMP JUMPDEST DUP5 PUSH2 0xB57 SWAP2 SWAP1 PUSH2 0x1FEF JUMP JUMPDEST SWAP4 POP PUSH16 0x80000000000000000000000000000000 DUP2 DUP4 PUSH2 0xB76 SWAP2 SWAP1 PUSH2 0x20DE JUMP JUMPDEST PUSH2 0xB80 SWAP2 SWAP1 PUSH2 0x207C JUMP JUMPDEST SWAP2 POP PUSH17 0x700000000000000000000000000000000 DUP4 PUSH16 0x89D89D89D89D89D89D89D89D89D89D89 PUSH2 0xBB0 SWAP2 SWAP1 PUSH2 0x2138 JUMP JUMPDEST DUP4 PUSH2 0xBBB SWAP2 SWAP1 PUSH2 0x20DE JUMP JUMPDEST PUSH2 0xBC5 SWAP2 SWAP1 PUSH2 0x207C JUMP JUMPDEST DUP5 PUSH2 0xBD0 SWAP2 SWAP1 PUSH2 0x1FEF JUMP JUMPDEST SWAP4 POP PUSH16 0x80000000000000000000000000000000 DUP2 DUP4 PUSH2 0xBEF SWAP2 SWAP1 PUSH2 0x20DE JUMP JUMPDEST PUSH2 0xBF9 SWAP2 SWAP1 PUSH2 0x207C JUMP JUMPDEST SWAP2 POP PUSH17 0x800000000000000000000000000000000 DUP4 PUSH16 0x88888888888888888888888888888888 PUSH2 0xC29 SWAP2 SWAP1 PUSH2 0x2138 JUMP JUMPDEST DUP4 PUSH2 0xC34 SWAP2 SWAP1 PUSH2 0x20DE JUMP JUMPDEST PUSH2 0xC3E SWAP2 SWAP1 PUSH2 0x207C JUMP JUMPDEST DUP5 PUSH2 0xC49 SWAP2 SWAP1 PUSH2 0x1FEF JUMP JUMPDEST SWAP4 POP DUP4 SWAP5 POP POP POP POP POP SWAP2 SWAP1 POP JUMP JUMPDEST PUSH1 0x0 DUP1 PUSH1 0x0 SWAP1 POP PUSH1 0x0 DUP4 SWAP1 POP PUSH17 0x100000000000000000000000000000000 DUP2 LT PUSH2 0xCCF JUMPI PUSH1 0x0 PUSH2 0xCA1 PUSH16 0x80000000000000000000000000000000 DUP4 PUSH2 0xC9C SWAP2 SWAP1 PUSH2 0x207C JUMP JUMPDEST PUSH2 0x1DAC JUMP JUMPDEST SWAP1 POP DUP1 PUSH1 0xFF AND DUP3 SWAP1 SHR SWAP2 POP PUSH16 0x80000000000000000000000000000000 DUP2 PUSH1 0xFF AND PUSH2 0xCCB SWAP2 SWAP1 PUSH2 0x20DE JUMP JUMPDEST SWAP3 POP POP JUMPDEST PUSH16 0x80000000000000000000000000000000 DUP2 GT ISZERO PUSH2 0xD77 JUMPI PUSH1 0x0 PUSH1 0x7F SWAP1 POP JUMPDEST PUSH1 0x0 DUP2 PUSH1 0xFF AND GT ISZERO PUSH2 0xD75 JUMPI PUSH16 0x80000000000000000000000000000000 DUP3 DUP4 PUSH2 0xD17 SWAP2 SWAP1 PUSH2 0x20DE JUMP JUMPDEST PUSH2 0xD21 SWAP2 SWAP1 PUSH2 0x207C JUMP JUMPDEST SWAP2 POP PUSH17 0x100000000000000000000000000000000 DUP3 LT PUSH2 0xD64 JUMPI PUSH1 0x1 DUP3 SWAP1 SHR SWAP2 POP PUSH1 0x1 DUP2 PUSH2 0xD4F SWAP2 SWAP1 PUSH2 0x216C JUMP JUMPDEST PUSH1 0xFF AND PUSH1 0x1 SWAP1 SHL DUP4 PUSH2 0xD61 SWAP2 SWAP1 PUSH2 0x1FEF JUMP JUMPDEST SWAP3 POP JUMPDEST DUP1 PUSH2 0xD6E SWAP1 PUSH2 0x21FA JUMP JUMPDEST SWAP1 POP PUSH2 0xCEE JUMP JUMPDEST POP JUMPDEST PUSH16 0x5B9DE1D10BF4103D647B0955897BA80 PUSH16 0x3F80FE03F80FE03F80FE03F80FE03F8 DUP4 PUSH2 0xDA4 SWAP2 SWAP1 PUSH2 0x20DE JUMP JUMPDEST PUSH2 0xDAE SWAP2 SWAP1 PUSH2 0x207C JUMP JUMPDEST SWAP3 POP POP POP SWAP2 SWAP1 POP JUMP JUMPDEST PUSH1 0x0 DUP1 PUSH1 0x0 SWAP1 POP PUSH1 0x0 DUP1 PUSH16 0x10000000000000000000000000000000 DUP6 PUSH2 0xDDD SWAP2 SWAP1 PUSH2 0x2256 JUMP JUMPDEST SWAP2 POP DUP2 SWAP1 POP PUSH16 0x80000000000000000000000000000000 DUP3 DUP3 PUSH2 0xDFF SWAP2 SWAP1 PUSH2 0x20DE JUMP JUMPDEST PUSH2 0xE09 SWAP2 SWAP1 PUSH2 0x207C JUMP JUMPDEST SWAP1 POP PUSH8 0x10E1B3BE415A0000 DUP2 PUSH2 0xE1F SWAP2 SWAP1 PUSH2 0x20DE JUMP JUMPDEST DUP4 PUSH2 0xE2A SWAP2 SWAP1 PUSH2 0x1FEF JUMP JUMPDEST SWAP3 POP PUSH16 0x80000000000000000000000000000000 DUP3 DUP3 PUSH2 0xE49 SWAP2 SWAP1 PUSH2 0x20DE JUMP JUMPDEST PUSH2 0xE53 SWAP2 SWAP1 PUSH2 0x207C JUMP JUMPDEST SWAP1 POP PUSH8 0x5A0913F6B1E0000 DUP2 PUSH2 0xE69 SWAP2 SWAP1 PUSH2 0x20DE JUMP JUMPDEST DUP4 PUSH2 0xE74 SWAP2 SWAP1 PUSH2 0x1FEF JUMP JUMPDEST SWAP3 POP PUSH16 0x80000000000000000000000000000000 DUP3 DUP3 PUSH2 0xE93 SWAP2 SWAP1 PUSH2 0x20DE JUMP JUMPDEST PUSH2 0xE9D SWAP2 SWAP1 PUSH2 0x207C JUMP JUMPDEST SWAP1 POP PUSH8 0x168244FDAC78000 DUP2 PUSH2 0xEB3 SWAP2 SWAP1 PUSH2 0x20DE JUMP JUMPDEST DUP4 PUSH2 0xEBE SWAP2 SWAP1 PUSH2 0x1FEF JUMP JUMPDEST SWAP3 POP PUSH16 0x80000000000000000000000000000000 DUP3 DUP3 PUSH2 0xEDD SWAP2 SWAP1 PUSH2 0x20DE JUMP JUMPDEST PUSH2 0xEE7 SWAP2 SWAP1 PUSH2 0x207C JUMP JUMPDEST SWAP1 POP PUSH7 0x4807432BC18000 DUP2 PUSH2 0xEFC SWAP2 SWAP1 PUSH2 0x20DE JUMP JUMPDEST DUP4 PUSH2 0xF07 SWAP2 SWAP1 PUSH2 0x1FEF JUMP JUMPDEST SWAP3 POP PUSH16 0x80000000000000000000000000000000 DUP3 DUP3 PUSH2 0xF26 SWAP2 SWAP1 PUSH2 0x20DE JUMP JUMPDEST PUSH2 0xF30 SWAP2 SWAP1 PUSH2 0x207C JUMP JUMPDEST SWAP1 POP PUSH7 0xC0135DCA04000 DUP2 PUSH2 0xF45 SWAP2 SWAP1 PUSH2 0x20DE JUMP JUMPDEST DUP4 PUSH2 0xF50 SWAP2 SWAP1 PUSH2 0x1FEF JUMP JUMPDEST SWAP3 POP PUSH16 0x80000000000000000000000000000000 DUP3 DUP3 PUSH2 0xF6F SWAP2 SWAP1 PUSH2 0x20DE JUMP JUMPDEST PUSH2 0xF79 SWAP2 SWAP1 PUSH2 0x207C JUMP JUMPDEST SWAP1 POP PUSH7 0x1B707B1CDC000 DUP2 PUSH2 0xF8E SWAP2 SWAP1 PUSH2 0x20DE JUMP JUMPDEST DUP4 PUSH2 0xF99 SWAP2 SWAP1 PUSH2 0x1FEF JUMP JUMPDEST SWAP3 POP PUSH16 0x80000000000000000000000000000000 DUP3 DUP3 PUSH2 0xFB8 SWAP2 SWAP1 PUSH2 0x20DE JUMP JUMPDEST PUSH2 0xFC2 SWAP2 SWAP1 PUSH2 0x207C JUMP JUMPDEST SWAP1 POP PUSH6 0x36E0F639B800 DUP2 PUSH2 0xFD6 SWAP2 SWAP1 PUSH2 0x20DE JUMP JUMPDEST DUP4 PUSH2 0xFE1 SWAP2 SWAP1 PUSH2 0x1FEF JUMP JUMPDEST SWAP3 POP PUSH16 0x80000000000000000000000000000000 DUP3 DUP3 PUSH2 0x1000 SWAP2 SWAP1 PUSH2 0x20DE JUMP JUMPDEST PUSH2 0x100A SWAP2 SWAP1 PUSH2 0x207C JUMP JUMPDEST SWAP1 POP PUSH6 0x618FEE9F800 DUP2 PUSH2 0x101E SWAP2 SWAP1 PUSH2 0x20DE JUMP JUMPDEST DUP4 PUSH2 0x1029 SWAP2 SWAP1 PUSH2 0x1FEF JUMP JUMPDEST SWAP3 POP PUSH16 0x80000000000000000000000000000000 DUP3 DUP3 PUSH2 0x1048 SWAP2 SWAP1 PUSH2 0x20DE JUMP JUMPDEST PUSH2 0x1052 SWAP2 SWAP1 PUSH2 0x207C JUMP JUMPDEST SWAP1 POP PUSH5 0x9C197DCC00 DUP2 PUSH2 0x1065 SWAP2 SWAP1 PUSH2 0x20DE JUMP JUMPDEST DUP4 PUSH2 0x1070 SWAP2 SWAP1 PUSH2 0x1FEF JUMP JUMPDEST SWAP3 POP PUSH16 0x80000000000000000000000000000000 DUP3 DUP3 PUSH2 0x108F SWAP2 SWAP1 PUSH2 0x20DE JUMP JUMPDEST PUSH2 0x1099 SWAP2 SWAP1 PUSH2 0x207C JUMP JUMPDEST SWAP1 POP PUSH5 0xE30DCE400 DUP2 PUSH2 0x10AC SWAP2 SWAP1 PUSH2 0x20DE JUMP JUMPDEST DUP4 PUSH2 0x10B7 SWAP2 SWAP1 PUSH2 0x1FEF JUMP JUMPDEST SWAP3 POP PUSH16 0x80000000000000000000000000000000 DUP3 DUP3 PUSH2 0x10D6 SWAP2 SWAP1 PUSH2 0x20DE JUMP JUMPDEST PUSH2 0x10E0 SWAP2 SWAP1 PUSH2 0x207C JUMP JUMPDEST SWAP1 POP PUSH5 0x12EBD1300 DUP2 PUSH2 0x10F3 SWAP2 SWAP1 PUSH2 0x20DE JUMP JUMPDEST DUP4 PUSH2 0x10FE SWAP2 SWAP1 PUSH2 0x1FEF JUMP JUMPDEST SWAP3 POP PUSH16 0x80000000000000000000000000000000 DUP3 DUP3 PUSH2 0x111D SWAP2 SWAP1 PUSH2 0x20DE JUMP JUMPDEST PUSH2 0x1127 SWAP2 SWAP1 PUSH2 0x207C JUMP JUMPDEST SWAP1 POP PUSH4 0x17499F00 DUP2 PUSH2 0x1139 SWAP2 SWAP1 PUSH2 0x20DE JUMP JUMPDEST DUP4 PUSH2 0x1144 SWAP2 SWAP1 PUSH2 0x1FEF JUMP JUMPDEST SWAP3 POP PUSH16 0x80000000000000000000000000000000 DUP3 DUP3 PUSH2 0x1163 SWAP2 SWAP1 PUSH2 0x20DE JUMP JUMPDEST PUSH2 0x116D SWAP2 SWAP1 PUSH2 0x207C JUMP JUMPDEST SWAP1 POP PUSH4 0x1A9D480 DUP2 PUSH2 0x117F SWAP2 SWAP1 PUSH2 0x20DE JUMP JUMPDEST DUP4 PUSH2 0x118A SWAP2 SWAP1 PUSH2 0x1FEF JUMP JUMPDEST SWAP3 POP PUSH16 0x80000000000000000000000000000000 DUP3 DUP3 PUSH2 0x11A9 SWAP2 SWAP1 PUSH2 0x20DE JUMP JUMPDEST PUSH2 0x11B3 SWAP2 SWAP1 PUSH2 0x207C JUMP JUMPDEST SWAP1 POP PUSH3 0x1C6380 DUP2 PUSH2 0x11C4 SWAP2 SWAP1 PUSH2 0x20DE JUMP JUMPDEST DUP4 PUSH2 0x11CF SWAP2 SWAP1 PUSH2 0x1FEF JUMP JUMPDEST SWAP3 POP PUSH16 0x80000000000000000000000000000000 DUP3 DUP3 PUSH2 0x11EE SWAP2 SWAP1 PUSH2 0x20DE JUMP JUMPDEST PUSH2 0x11F8 SWAP2 SWAP1 PUSH2 0x207C JUMP JUMPDEST SWAP1 POP PUSH3 0x1C638 DUP2 PUSH2 0x1209 SWAP2 SWAP1 PUSH2 0x20DE JUMP JUMPDEST DUP4 PUSH2 0x1214 SWAP2 SWAP1 PUSH2 0x1FEF JUMP JUMPDEST SWAP3 POP PUSH16 0x80000000000000000000000000000000 DUP3 DUP3 PUSH2 0x1233 SWAP2 SWAP1 PUSH2 0x20DE JUMP JUMPDEST PUSH2 0x123D SWAP2 SWAP1 PUSH2 0x207C JUMP JUMPDEST SWAP1 POP PUSH2 0x1AB8 DUP2 PUSH2 0x124D SWAP2 SWAP1 PUSH2 0x20DE JUMP JUMPDEST DUP4 PUSH2 0x1258 SWAP2 SWAP1 PUSH2 0x1FEF JUMP JUMPDEST SWAP3 POP PUSH16 0x80000000000000000000000000000000 DUP3 DUP3 PUSH2 0x1277 SWAP2 SWAP1 PUSH2 0x20DE JUMP JUMPDEST PUSH2 0x1281 SWAP2 SWAP1 PUSH2 0x207C JUMP JUMPDEST SWAP1 POP PUSH2 0x17C DUP2 PUSH2 0x1291 SWAP2 SWAP1 PUSH2 0x20DE JUMP JUMPDEST DUP4 PUSH2 0x129C SWAP2 SWAP1 PUSH2 0x1FEF JUMP JUMPDEST SWAP3 POP PUSH16 0x80000000000000000000000000000000 DUP3 DUP3 PUSH2 0x12BB SWAP2 SWAP1 PUSH2 0x20DE JUMP JUMPDEST PUSH2 0x12C5 SWAP2 SWAP1 PUSH2 0x207C JUMP JUMPDEST SWAP1 POP PUSH1 0x14 DUP2 PUSH2 0x12D4 SWAP2 SWAP1 PUSH2 0x20DE JUMP JUMPDEST DUP4 PUSH2 0x12DF SWAP2 SWAP1 PUSH2 0x1FEF JUMP JUMPDEST SWAP3 POP PUSH16 0x80000000000000000000000000000000 DUP3 DUP3 PUSH2 0x12FE SWAP2 SWAP1 PUSH2 0x20DE JUMP JUMPDEST PUSH2 0x1308 SWAP2 SWAP1 PUSH2 0x207C JUMP JUMPDEST SWAP1 POP PUSH1 0x1 DUP2 PUSH2 0x1317 SWAP2 SWAP1 PUSH2 0x20DE JUMP JUMPDEST DUP4 PUSH2 0x1322 SWAP2 SWAP1 PUSH2 0x1FEF JUMP JUMPDEST SWAP3 POP PUSH16 0x80000000000000000000000000000000 DUP3 PUSH8 0x21C3677C82B40000 DUP6 PUSH2 0x134A SWAP2 SWAP1 PUSH2 0x207C JUMP JUMPDEST PUSH2 0x1354 SWAP2 SWAP1 PUSH2 0x1FEF JUMP JUMPDEST PUSH2 0x135E SWAP2 SWAP1 PUSH2 0x1FEF JUMP JUMPDEST SWAP3 POP PUSH1 0x0 PUSH16 0x10000000000000000000000000000000 DUP7 AND EQ PUSH2 0x13B6 JUMPI PUSH17 0x18EBEF9EAC820AE8682B9793AC6D1E776 PUSH17 0x1C3D6A24ED82218787D624D3E5EBA95F9 DUP5 PUSH2 0x13A9 SWAP2 SWAP1 PUSH2 0x20DE JUMP JUMPDEST PUSH2 0x13B3 SWAP2 SWAP1 PUSH2 0x207C JUMP JUMPDEST SWAP3 POP JUMPDEST PUSH1 0x0 PUSH16 0x20000000000000000000000000000000 DUP7 AND EQ PUSH2 0x140C JUMPI PUSH17 0x1368B2FC6F9609FE7ACEB46AA619BAED4 PUSH17 0x18EBEF9EAC820AE8682B9793AC6D1E778 DUP5 PUSH2 0x13FF SWAP2 SWAP1 PUSH2 0x20DE JUMP JUMPDEST PUSH2 0x1409 SWAP2 SWAP1 PUSH2 0x207C JUMP JUMPDEST SWAP3 POP JUMPDEST PUSH1 0x0 PUSH16 0x40000000000000000000000000000000 DUP7 AND EQ PUSH2 0x1461 JUMPI PUSH16 0xBC5AB1B16779BE3575BD8F0520A9F21F PUSH17 0x1368B2FC6F9609FE7ACEB46AA619BAED5 DUP5 PUSH2 0x1454 SWAP2 SWAP1 PUSH2 0x20DE JUMP JUMPDEST PUSH2 0x145E SWAP2 SWAP1 PUSH2 0x207C JUMP JUMPDEST SWAP3 POP JUMPDEST PUSH1 0x0 PUSH16 0x80000000000000000000000000000000 DUP7 AND EQ PUSH2 0x14B5 JUMPI PUSH16 0x454AAA8EFE072E7F6DDBAB84B40A55C9 PUSH16 0xBC5AB1B16779BE3575BD8F0520A9F21E DUP5 PUSH2 0x14A8 SWAP2 SWAP1 PUSH2 0x20DE JUMP JUMPDEST PUSH2 0x14B2 SWAP2 SWAP1 PUSH2 0x207C JUMP JUMPDEST SWAP3 POP JUMPDEST PUSH1 0x0 PUSH17 0x100000000000000000000000000000000 DUP7 AND EQ PUSH2 0x150A JUMPI PUSH16 0x960AADC109E7A3BF4578099615711EA PUSH16 0x454AAA8EFE072E7F6DDBAB84B40A55C5 DUP5 PUSH2 0x14FD SWAP2 SWAP1 PUSH2 0x20DE JUMP JUMPDEST PUSH2 0x1507 SWAP2 SWAP1 PUSH2 0x207C JUMP JUMPDEST SWAP3 POP JUMPDEST PUSH1 0x0 PUSH17 0x200000000000000000000000000000000 DUP7 AND EQ PUSH2 0x155E JUMPI PUSH15 0x2BF84208204F5977F9A8CF01FDCE3D PUSH16 0x960AADC109E7A3BF4578099615711D7 DUP5 PUSH2 0x1551 SWAP2 SWAP1 PUSH2 0x20DE JUMP JUMPDEST PUSH2 0x155B SWAP2 SWAP1 PUSH2 0x207C JUMP JUMPDEST SWAP3 POP JUMPDEST PUSH1 0x0 PUSH17 0x400000000000000000000000000000000 DUP7 AND EQ PUSH2 0x15B0 JUMPI PUSH14 0x3C6AB775DD0B95B4CBEE7E65D11 PUSH15 0x2BF84208204F5977F9A8CF01FDC307 DUP5 PUSH2 0x15A3 SWAP2 SWAP1 PUSH2 0x20DE JUMP JUMPDEST PUSH2 0x15AD SWAP2 SWAP1 PUSH2 0x207C JUMP JUMPDEST SWAP3 POP JUMPDEST DUP3 SWAP4 POP POP POP POP SWAP2 SWAP1 POP JUMP JUMPDEST PUSH1 0x0 DUP1 PUSH1 0x20 SWAP1 POP PUSH1 0x0 PUSH1 0x7F SWAP1 POP JUMPDEST DUP1 PUSH1 0xFF AND PUSH1 0x1 DUP4 PUSH2 0x15DA SWAP2 SWAP1 PUSH2 0x2045 JUMP JUMPDEST PUSH1 0xFF AND LT ISZERO PUSH2 0x1630 JUMPI PUSH1 0x0 PUSH1 0x2 DUP3 DUP5 PUSH2 0x15F3 SWAP2 SWAP1 PUSH2 0x2045 JUMP JUMPDEST PUSH2 0x15FD SWAP2 SWAP1 PUSH2 0x20AD JUMP JUMPDEST SWAP1 POP DUP5 PUSH1 0x1 DUP3 PUSH1 0xFF AND PUSH1 0x80 DUP2 LT PUSH2 0x1617 JUMPI PUSH2 0x1616 PUSH2 0x2343 JUMP JUMPDEST JUMPDEST ADD SLOAD LT PUSH2 0x1626 JUMPI DUP1 SWAP3 POP PUSH2 0x162A JUMP JUMPDEST DUP1 SWAP2 POP JUMPDEST POP PUSH2 0x15C9 JUMP JUMPDEST DUP4 PUSH1 0x1 DUP3 PUSH1 0xFF AND PUSH1 0x80 DUP2 LT PUSH2 0x1648 JUMPI PUSH2 0x1647 PUSH2 0x2343 JUMP JUMPDEST JUMPDEST ADD SLOAD LT PUSH2 0x1659 JUMPI DUP1 SWAP3 POP POP POP PUSH2 0x1698 JUMP JUMPDEST DUP4 PUSH1 0x1 DUP4 PUSH1 0xFF AND PUSH1 0x80 DUP2 LT PUSH2 0x1671 JUMPI PUSH2 0x1670 PUSH2 0x2343 JUMP JUMPDEST JUMPDEST ADD SLOAD LT PUSH2 0x1682 JUMPI DUP2 SWAP3 POP POP POP PUSH2 0x1698 JUMP JUMPDEST PUSH1 0x0 PUSH2 0x1691 JUMPI PUSH2 0x1690 PUSH2 0x2287 JUMP JUMPDEST JUMPDEST PUSH1 0x0 SWAP3 POP POP POP JUMPDEST SWAP2 SWAP1 POP JUMP JUMPDEST PUSH1 0x0 DUP1 DUP4 SWAP1 POP PUSH1 0x0 DUP4 PUSH1 0xFF AND DUP6 DUP4 PUSH2 0x16B5 SWAP2 SWAP1 PUSH2 0x20DE JUMP JUMPDEST SWAP1 SHR SWAP2 POP PUSH16 0x3442C4E6074A82F1797F72AC0000000 DUP3 PUSH2 0x16D5 SWAP2 SWAP1 PUSH2 0x20DE JUMP JUMPDEST DUP2 PUSH2 0x16E0 SWAP2 SWAP1 PUSH2 0x1FEF JUMP JUMPDEST SWAP1 POP DUP4 PUSH1 0xFF AND DUP6 DUP4 PUSH2 0x16F2 SWAP2 SWAP1 PUSH2 0x20DE JUMP JUMPDEST SWAP1 SHR SWAP2 POP PUSH16 0x116B96F757C380FB287FD0E40000000 DUP3 PUSH2 0x1712 SWAP2 SWAP1 PUSH2 0x20DE JUMP JUMPDEST DUP2 PUSH2 0x171D SWAP2 SWAP1 PUSH2 0x1FEF JUMP JUMPDEST SWAP1 POP DUP4 PUSH1 0xFF AND DUP6 DUP4 PUSH2 0x172F SWAP2 SWAP1 PUSH2 0x20DE JUMP JUMPDEST SWAP1 SHR SWAP2 POP PUSH15 0x45AE5BDD5F0E03ECA1FF4390000000 DUP3 PUSH2 0x174E SWAP2 SWAP1 PUSH2 0x20DE JUMP JUMPDEST DUP2 PUSH2 0x1759 SWAP2 SWAP1 PUSH2 0x1FEF JUMP JUMPDEST SWAP1 POP DUP4 PUSH1 0xFF AND DUP6 DUP4 PUSH2 0x176B SWAP2 SWAP1 PUSH2 0x20DE JUMP JUMPDEST SWAP1 SHR SWAP2 POP PUSH15 0xDEFABF91302CD95B9FFDA50000000 DUP3 PUSH2 0x178A SWAP2 SWAP1 PUSH2 0x20DE JUMP JUMPDEST DUP2 PUSH2 0x1795 SWAP2 SWAP1 PUSH2 0x1FEF JUMP JUMPDEST SWAP1 POP DUP4 PUSH1 0xFF AND DUP6 DUP4 PUSH2 0x17A7 SWAP2 SWAP1 PUSH2 0x20DE JUMP JUMPDEST SWAP1 SHR SWAP2 POP PUSH15 0x2529CA9832B22439EFFF9B8000000 DUP3 PUSH2 0x17C6 SWAP2 SWAP1 PUSH2 0x20DE JUMP JUMPDEST DUP2 PUSH2 0x17D1 SWAP2 SWAP1 PUSH2 0x1FEF JUMP JUMPDEST SWAP1 POP DUP4 PUSH1 0xFF AND DUP6 DUP4 PUSH2 0x17E3 SWAP2 SWAP1 PUSH2 0x20DE JUMP JUMPDEST SWAP1 SHR SWAP2 POP PUSH14 0x54F1CF12BD04E516B6DA88000000 DUP3 PUSH2 0x1801 SWAP2 SWAP1 PUSH2 0x20DE JUMP JUMPDEST DUP2 PUSH2 0x180C SWAP2 SWAP1 PUSH2 0x1FEF JUMP JUMPDEST SWAP1 POP DUP4 PUSH1 0xFF AND DUP6 DUP4 PUSH2 0x181E SWAP2 SWAP1 PUSH2 0x20DE JUMP JUMPDEST SWAP1 SHR SWAP2 POP PUSH14 0xA9E39E257A09CA2D6DB51000000 DUP3 PUSH2 0x183C SWAP2 SWAP1 PUSH2 0x20DE JUMP JUMPDEST DUP2 PUSH2 0x1847 SWAP2 SWAP1 PUSH2 0x1FEF JUMP JUMPDEST SWAP1 POP DUP4 PUSH1 0xFF AND DUP6 DUP4 PUSH2 0x1859 SWAP2 SWAP1 PUSH2 0x20DE JUMP JUMPDEST SWAP1 SHR SWAP2 POP PUSH14 0x12E066E7B839FA050C309000000 DUP3 PUSH2 0x1877 SWAP2 SWAP1 PUSH2 0x20DE JUMP JUMPDEST DUP2 PUSH2 0x1882 SWAP2 SWAP1 PUSH2 0x1FEF JUMP JUMPDEST SWAP1 POP DUP4 PUSH1 0xFF AND DUP6 DUP4 PUSH2 0x1894 SWAP2 SWAP1 PUSH2 0x20DE JUMP JUMPDEST SWAP1 SHR SWAP2 POP PUSH13 0x1E33D7D926C329A1AD1A800000 DUP3 PUSH2 0x18B1 SWAP2 SWAP1 PUSH2 0x20DE JUMP JUMPDEST DUP2 PUSH2 0x18BC SWAP2 SWAP1 PUSH2 0x1FEF JUMP JUMPDEST SWAP1 POP DUP4 PUSH1 0xFF AND DUP6 DUP4 PUSH2 0x18CE SWAP2 SWAP1 PUSH2 0x20DE JUMP JUMPDEST SWAP1 SHR SWAP2 POP PUSH13 0x2BEE513BDB4A6B19B5F800000 DUP3 PUSH2 0x18EB SWAP2 SWAP1 PUSH2 0x20DE JUMP JUMPDEST DUP2 PUSH2 0x18F6 SWAP2 SWAP1 PUSH2 0x1FEF JUMP JUMPDEST SWAP1 POP DUP4 PUSH1 0xFF AND DUP6 DUP4 PUSH2 0x1908 SWAP2 SWAP1 PUSH2 0x20DE JUMP JUMPDEST SWAP1 SHR SWAP2 POP PUSH12 0x3A9316FA79B88ECCF2A00000 DUP3 PUSH2 0x1924 SWAP2 SWAP1 PUSH2 0x20DE JUMP JUMPDEST DUP2 PUSH2 0x192F SWAP2 SWAP1 PUSH2 0x1FEF JUMP JUMPDEST SWAP1 POP DUP4 PUSH1 0xFF AND DUP6 DUP4 PUSH2 0x1941 SWAP2 SWAP1 PUSH2 0x20DE JUMP JUMPDEST SWAP1 SHR SWAP2 POP PUSH12 0x48177EBE1FA812375200000 DUP3 PUSH2 0x195D SWAP2 SWAP1 PUSH2 0x20DE JUMP JUMPDEST DUP2 PUSH2 0x1968 SWAP2 SWAP1 PUSH2 0x1FEF JUMP JUMPDEST SWAP1 POP DUP4 PUSH1 0xFF AND DUP6 DUP4 PUSH2 0x197A SWAP2 SWAP1 PUSH2 0x20DE JUMP JUMPDEST SWAP1 SHR SWAP2 POP PUSH11 0x5263FE90242DCBACF00000 DUP3 PUSH2 0x1995 SWAP2 SWAP1 PUSH2 0x20DE JUMP JUMPDEST DUP2 PUSH2 0x19A0 SWAP2 SWAP1 PUSH2 0x1FEF JUMP JUMPDEST SWAP1 POP DUP4 PUSH1 0xFF AND DUP6 DUP4 PUSH2 0x19B2 SWAP2 SWAP1 PUSH2 0x20DE JUMP JUMPDEST SWAP1 SHR SWAP2 POP PUSH11 0x57E22099C030D94100000 DUP3 PUSH2 0x19CD SWAP2 SWAP1 PUSH2 0x20DE JUMP JUMPDEST DUP2 PUSH2 0x19D8 SWAP2 SWAP1 PUSH2 0x1FEF JUMP JUMPDEST SWAP1 POP DUP4 PUSH1 0xFF AND DUP6 DUP4 PUSH2 0x19EA SWAP2 SWAP1 PUSH2 0x20DE JUMP JUMPDEST SWAP1 SHR SWAP2 POP PUSH10 0x57E22099C030D9410000 DUP3 PUSH2 0x1A04 SWAP2 SWAP1 PUSH2 0x20DE JUMP JUMPDEST DUP2 PUSH2 0x1A0F SWAP2 SWAP1 PUSH2 0x1FEF JUMP JUMPDEST SWAP1 POP DUP4 PUSH1 0xFF AND DUP6 DUP4 PUSH2 0x1A21 SWAP2 SWAP1 PUSH2 0x20DE JUMP JUMPDEST SWAP1 SHR SWAP2 POP PUSH10 0x52B6B54569976310000 DUP3 PUSH2 0x1A3B SWAP2 SWAP1 PUSH2 0x20DE JUMP JUMPDEST DUP2 PUSH2 0x1A46 SWAP2 SWAP1 PUSH2 0x1FEF JUMP JUMPDEST SWAP1 POP DUP4 PUSH1 0xFF AND DUP6 DUP4 PUSH2 0x1A58 SWAP2 SWAP1 PUSH2 0x20DE JUMP JUMPDEST SWAP1 SHR SWAP2 POP PUSH9 0x4985F67696BF748000 DUP3 PUSH2 0x1A71 SWAP2 SWAP1 PUSH2 0x20DE JUMP JUMPDEST DUP2 PUSH2 0x1A7C SWAP2 SWAP1 PUSH2 0x1FEF JUMP JUMPDEST SWAP1 POP DUP4 PUSH1 0xFF AND DUP6 DUP4 PUSH2 0x1A8E SWAP2 SWAP1 PUSH2 0x20DE JUMP JUMPDEST SWAP1 SHR SWAP2 POP PUSH9 0x3DEA12EA99E498000 DUP3 PUSH2 0x1AA7 SWAP2 SWAP1 PUSH2 0x20DE JUMP JUMPDEST DUP2 PUSH2 0x1AB2 SWAP2 SWAP1 PUSH2 0x1FEF JUMP JUMPDEST SWAP1 POP DUP4 PUSH1 0xFF AND DUP6 DUP4 PUSH2 0x1AC4 SWAP2 SWAP1 PUSH2 0x20DE JUMP JUMPDEST SWAP1 SHR SWAP2 POP PUSH8 0x31880F2214B6E000 DUP3 PUSH2 0x1ADC SWAP2 SWAP1 PUSH2 0x20DE JUMP JUMPDEST DUP2 PUSH2 0x1AE7 SWAP2 SWAP1 PUSH2 0x1FEF JUMP JUMPDEST SWAP1 POP DUP4 PUSH1 0xFF AND DUP6 DUP4 PUSH2 0x1AF9 SWAP2 SWAP1 PUSH2 0x20DE JUMP JUMPDEST SWAP1 SHR SWAP2 POP PUSH8 0x25BCFF56EB36000 DUP3 PUSH2 0x1B11 SWAP2 SWAP1 PUSH2 0x20DE JUMP JUMPDEST DUP2 PUSH2 0x1B1C SWAP2 SWAP1 PUSH2 0x1FEF JUMP JUMPDEST SWAP1 POP DUP4 PUSH1 0xFF AND DUP6 DUP4 PUSH2 0x1B2E SWAP2 SWAP1 PUSH2 0x20DE JUMP JUMPDEST SWAP1 SHR SWAP2 POP PUSH7 0x1B722E10AB1000 DUP3 PUSH2 0x1B45 SWAP2 SWAP1 PUSH2 0x20DE JUMP JUMPDEST DUP2 PUSH2 0x1B50 SWAP2 SWAP1 PUSH2 0x1FEF JUMP JUMPDEST SWAP1 POP DUP4 PUSH1 0xFF AND DUP6 DUP4 PUSH2 0x1B62 SWAP2 SWAP1 PUSH2 0x20DE JUMP JUMPDEST SWAP1 SHR SWAP2 POP PUSH7 0x1317C70077000 DUP3 PUSH2 0x1B79 SWAP2 SWAP1 PUSH2 0x20DE JUMP JUMPDEST DUP2 PUSH2 0x1B84 SWAP2 SWAP1 PUSH2 0x1FEF JUMP JUMPDEST SWAP1 POP DUP4 PUSH1 0xFF AND DUP6 DUP4 PUSH2 0x1B96 SWAP2 SWAP1 PUSH2 0x20DE JUMP JUMPDEST SWAP1 SHR SWAP2 POP PUSH6 0xCBA84AAFA00 DUP3 PUSH2 0x1BAC SWAP2 SWAP1 PUSH2 0x20DE JUMP JUMPDEST DUP2 PUSH2 0x1BB7 SWAP2 SWAP1 PUSH2 0x1FEF JUMP JUMPDEST SWAP1 POP DUP4 PUSH1 0xFF AND DUP6 DUP4 PUSH2 0x1BC9 SWAP2 SWAP1 PUSH2 0x20DE JUMP JUMPDEST SWAP1 SHR SWAP2 POP PUSH5 0x82573A0A00 DUP3 PUSH2 0x1BDE SWAP2 SWAP1 PUSH2 0x20DE JUMP JUMPDEST DUP2 PUSH2 0x1BE9 SWAP2 SWAP1 PUSH2 0x1FEF JUMP JUMPDEST SWAP1 POP DUP4 PUSH1 0xFF AND DUP6 DUP4 PUSH2 0x1BFB SWAP2 SWAP1 PUSH2 0x20DE JUMP JUMPDEST SWAP1 SHR SWAP2 POP PUSH5 0x5035AD900 DUP3 PUSH2 0x1C10 SWAP2 SWAP1 PUSH2 0x20DE JUMP JUMPDEST DUP2 PUSH2 0x1C1B SWAP2 SWAP1 PUSH2 0x1FEF JUMP JUMPDEST SWAP1 POP DUP4 PUSH1 0xFF AND DUP6 DUP4 PUSH2 0x1C2D SWAP2 SWAP1 PUSH2 0x20DE JUMP JUMPDEST SWAP1 SHR SWAP2 POP PUSH4 0x2F881B00 DUP3 PUSH2 0x1C41 SWAP2 SWAP1 PUSH2 0x20DE JUMP JUMPDEST DUP2 PUSH2 0x1C4C SWAP2 SWAP1 PUSH2 0x1FEF JUMP JUMPDEST SWAP1 POP DUP4 PUSH1 0xFF AND DUP6 DUP4 PUSH2 0x1C5E SWAP2 SWAP1 PUSH2 0x20DE JUMP JUMPDEST SWAP1 SHR SWAP2 POP PUSH4 0x1B29340 DUP3 PUSH2 0x1C72 SWAP2 SWAP1 PUSH2 0x20DE JUMP JUMPDEST DUP2 PUSH2 0x1C7D SWAP2 SWAP1 PUSH2 0x1FEF JUMP JUMPDEST SWAP1 POP DUP4 PUSH1 0xFF AND DUP6 DUP4 PUSH2 0x1C8F SWAP2 SWAP1 PUSH2 0x20DE JUMP JUMPDEST SWAP1 SHR SWAP2 POP PUSH3 0xEFC40 DUP3 PUSH2 0x1CA2 SWAP2 SWAP1 PUSH2 0x20DE JUMP JUMPDEST DUP2 PUSH2 0x1CAD SWAP2 SWAP1 PUSH2 0x1FEF JUMP JUMPDEST SWAP1 POP DUP4 PUSH1 0xFF AND DUP6 DUP4 PUSH2 0x1CBF SWAP2 SWAP1 PUSH2 0x20DE JUMP JUMPDEST SWAP1 SHR SWAP2 POP PUSH2 0x7FE0 DUP3 PUSH2 0x1CD1 SWAP2 SWAP1 PUSH2 0x20DE JUMP JUMPDEST DUP2 PUSH2 0x1CDC SWAP2 SWAP1 PUSH2 0x1FEF JUMP JUMPDEST SWAP1 POP DUP4 PUSH1 0xFF AND DUP6 DUP4 PUSH2 0x1CEE SWAP2 SWAP1 PUSH2 0x20DE JUMP JUMPDEST SWAP1 SHR SWAP2 POP PUSH2 0x420 DUP3 PUSH2 0x1D00 SWAP2 SWAP1 PUSH2 0x20DE JUMP JUMPDEST DUP2 PUSH2 0x1D0B SWAP2 SWAP1 PUSH2 0x1FEF JUMP JUMPDEST SWAP1 POP DUP4 PUSH1 0xFF AND DUP6 DUP4 PUSH2 0x1D1D SWAP2 SWAP1 PUSH2 0x20DE JUMP JUMPDEST SWAP1 SHR SWAP2 POP PUSH1 0x21 DUP3 PUSH2 0x1D2E SWAP2 SWAP1 PUSH2 0x20DE JUMP JUMPDEST DUP2 PUSH2 0x1D39 SWAP2 SWAP1 PUSH2 0x1FEF JUMP JUMPDEST SWAP1 POP DUP4 PUSH1 0xFF AND DUP6 DUP4 PUSH2 0x1D4B SWAP2 SWAP1 PUSH2 0x20DE JUMP JUMPDEST SWAP1 SHR SWAP2 POP PUSH1 0x1 DUP3 PUSH2 0x1D5C SWAP2 SWAP1 PUSH2 0x20DE JUMP JUMPDEST DUP2 PUSH2 0x1D67 SWAP2 SWAP1 PUSH2 0x1FEF JUMP JUMPDEST SWAP1 POP DUP4 PUSH1 0xFF AND PUSH1 0x1 SWAP1 SHL DUP6 PUSH16 0x688589CC0E9505E2F2FEE5580000000 DUP4 PUSH2 0x1D8E SWAP2 SWAP1 PUSH2 0x207C JUMP JUMPDEST PUSH2 0x1D98 SWAP2 SWAP1 PUSH2 0x1FEF JUMP JUMPDEST PUSH2 0x1DA2 SWAP2 SWAP1 PUSH2 0x1FEF JUMP JUMPDEST SWAP3 POP POP POP SWAP3 SWAP2 POP POP JUMP JUMPDEST PUSH1 0x0 DUP1 PUSH1 0x0 SWAP1 POP PUSH1 0x0 DUP4 SWAP1 POP PUSH2 0x100 DUP2 LT ISZERO PUSH2 0x1DEC JUMPI JUMPDEST PUSH1 0x1 DUP2 GT ISZERO PUSH2 0x1DE7 JUMPI PUSH1 0x1 DUP2 SWAP1 SHR SWAP1 POP PUSH1 0x1 DUP3 PUSH2 0x1DE0 SWAP2 SWAP1 PUSH2 0x2045 JUMP JUMPDEST SWAP2 POP PUSH2 0x1DC3 JUMP JUMPDEST PUSH2 0x1E2D JUMP JUMPDEST PUSH1 0x0 PUSH1 0x80 SWAP1 POP JUMPDEST PUSH1 0x0 DUP2 PUSH1 0xFF AND GT ISZERO PUSH2 0x1E2B JUMPI DUP1 PUSH1 0xFF AND PUSH1 0x1 SWAP1 SHL DUP3 LT PUSH2 0x1E1C JUMPI DUP1 PUSH1 0xFF AND DUP3 SWAP1 SHR SWAP2 POP DUP1 DUP4 OR SWAP3 POP JUMPDEST PUSH1 0x1 DUP2 PUSH1 0xFF AND SWAP1 SHR SWAP1 POP PUSH2 0x1DF3 JUMP JUMPDEST POP JUMPDEST DUP2 SWAP3 POP POP POP SWAP2 SWAP1 POP JUMP JUMPDEST PUSH1 0x0 DUP2 CALLDATALOAD SWAP1 POP PUSH2 0x1E46 DUP2 PUSH2 0x23DA JUMP JUMPDEST SWAP3 SWAP2 POP POP JUMP JUMPDEST PUSH1 0x0 DUP2 CALLDATALOAD SWAP1 POP PUSH2 0x1E5B DUP2 PUSH2 0x23F1 JUMP JUMPDEST SWAP3 SWAP2 POP POP JUMP JUMPDEST PUSH1 0x0 DUP1 PUSH1 0x0 DUP1 PUSH1 0x80 DUP6 DUP8 SUB SLT ISZERO PUSH2 0x1E7B JUMPI PUSH2 0x1E7A PUSH2 0x2372 JUMP JUMPDEST JUMPDEST PUSH1 0x0 PUSH2 0x1E89 DUP8 DUP3 DUP9 ADD PUSH2 0x1E37 JUMP JUMPDEST SWAP5 POP POP PUSH1 0x20 PUSH2 0x1E9A DUP8 DUP3 DUP9 ADD PUSH2 0x1E37 JUMP JUMPDEST SWAP4 POP POP PUSH1 0x40 PUSH2 0x1EAB DUP8 DUP3 DUP9 ADD PUSH2 0x1E4C JUMP JUMPDEST SWAP3 POP POP PUSH1 0x60 PUSH2 0x1EBC DUP8 DUP3 DUP9 ADD PUSH2 0x1E37 JUMP JUMPDEST SWAP2 POP POP SWAP3 SWAP6 SWAP2 SWAP5 POP SWAP3 POP JUMP JUMPDEST PUSH1 0x0 PUSH2 0x1ED3 DUP3 PUSH2 0x1FD3 JUMP JUMPDEST PUSH2 0x1EDD DUP2 DUP6 PUSH2 0x1FDE JUMP JUMPDEST SWAP4 POP PUSH2 0x1EED DUP2 DUP6 PUSH1 0x20 DUP7 ADD PUSH2 0x21C7 JUMP JUMPDEST PUSH2 0x1EF6 DUP2 PUSH2 0x2377 JUMP JUMPDEST DUP5 ADD SWAP2 POP POP SWAP3 SWAP2 POP POP JUMP JUMPDEST PUSH1 0x0 PUSH2 0x1F0E PUSH1 0x1C DUP4 PUSH2 0x1FDE JUMP JUMPDEST SWAP2 POP PUSH2 0x1F19 DUP3 PUSH2 0x2388 JUMP JUMPDEST PUSH1 0x20 DUP3 ADD SWAP1 POP SWAP2 SWAP1 POP JUMP JUMPDEST PUSH1 0x0 PUSH2 0x1F31 PUSH1 0x18 DUP4 PUSH2 0x1FDE JUMP JUMPDEST SWAP2 POP PUSH2 0x1F3C DUP3 PUSH2 0x23B1 JUMP JUMPDEST PUSH1 0x20 DUP3 ADD SWAP1 POP SWAP2 SWAP1 POP JUMP JUMPDEST PUSH2 0x1F50 DUP2 PUSH2 0x21A0 JUMP JUMPDEST DUP3 MSTORE POP POP JUMP JUMPDEST PUSH1 0x0 PUSH1 0x20 DUP3 ADD SWAP1 POP DUP2 DUP2 SUB PUSH1 0x0 DUP4 ADD MSTORE PUSH2 0x1F70 DUP2 DUP5 PUSH2 0x1EC8 JUMP JUMPDEST SWAP1 POP SWAP3 SWAP2 POP POP JUMP JUMPDEST PUSH1 0x0 PUSH1 0x20 DUP3 ADD SWAP1 POP DUP2 DUP2 SUB PUSH1 0x0 DUP4 ADD MSTORE PUSH2 0x1F91 DUP2 PUSH2 0x1F01 JUMP JUMPDEST SWAP1 POP SWAP2 SWAP1 POP JUMP JUMPDEST PUSH1 0x0 PUSH1 0x20 DUP3 ADD SWAP1 POP DUP2 DUP2 SUB PUSH1 0x0 DUP4 ADD MSTORE PUSH2 0x1FB1 DUP2 PUSH2 0x1F24 JUMP JUMPDEST SWAP1 POP SWAP2 SWAP1 POP JUMP JUMPDEST PUSH1 0x0 PUSH1 0x20 DUP3 ADD SWAP1 POP PUSH2 0x1FCD PUSH1 0x0 DUP4 ADD DUP5 PUSH2 0x1F47 JUMP JUMPDEST SWAP3 SWAP2 POP POP JUMP JUMPDEST PUSH1 0x0 DUP2 MLOAD SWAP1 POP SWAP2 SWAP1 POP JUMP JUMPDEST PUSH1 0x0 DUP3 DUP3 MSTORE PUSH1 0x20 DUP3 ADD SWAP1 POP SWAP3 SWAP2 POP POP JUMP JUMPDEST PUSH1 0x0 PUSH2 0x1FFA DUP3 PUSH2 0x21A0 JUMP JUMPDEST SWAP2 POP PUSH2 0x2005 DUP4 PUSH2 0x21A0 JUMP JUMPDEST SWAP3 POP DUP3 PUSH32 0xFFFFFFFFFFFFFFFFFFFFFFFFFFFFFFFFFFFFFFFFFFFFFFFFFFFFFFFFFFFFFFFF SUB DUP3 GT ISZERO PUSH2 0x203A JUMPI PUSH2 0x2039 PUSH2 0x22B6 JUMP JUMPDEST JUMPDEST DUP3 DUP3 ADD SWAP1 POP SWAP3 SWAP2 POP POP JUMP JUMPDEST PUSH1 0x0 PUSH2 0x2050 DUP3 PUSH2 0x21BA JUMP JUMPDEST SWAP2 POP PUSH2 0x205B DUP4 PUSH2 0x21BA JUMP JUMPDEST SWAP3 POP DUP3 PUSH1 0xFF SUB DUP3 GT ISZERO PUSH2 0x2071 JUMPI PUSH2 0x2070 PUSH2 0x22B6 JUMP JUMPDEST JUMPDEST DUP3 DUP3 ADD SWAP1 POP SWAP3 SWAP2 POP POP JUMP JUMPDEST PUSH1 0x0 PUSH2 0x2087 DUP3 PUSH2 0x21A0 JUMP JUMPDEST SWAP2 POP PUSH2 0x2092 DUP4 PUSH2 0x21A0 JUMP JUMPDEST SWAP3 POP DUP3 PUSH2 0x20A2 JUMPI PUSH2 0x20A1 PUSH2 0x22E5 JUMP JUMPDEST JUMPDEST DUP3 DUP3 DIV SWAP1 POP SWAP3 SWAP2 POP POP JUMP JUMPDEST PUSH1 0x0 PUSH2 0x20B8 DUP3 PUSH2 0x21BA JUMP JUMPDEST SWAP2 POP PUSH2 0x20C3 DUP4 PUSH2 0x21BA JUMP JUMPDEST SWAP3 POP DUP3 PUSH2 0x20D3 JUMPI PUSH2 0x20D2 PUSH2 0x22E5 JUMP JUMPDEST JUMPDEST DUP3 DUP3 DIV SWAP1 POP SWAP3 SWAP2 POP POP JUMP JUMPDEST PUSH1 0x0 PUSH2 0x20E9 DUP3 PUSH2 0x21A0 JUMP JUMPDEST SWAP2 POP PUSH2 0x20F4 DUP4 PUSH2 0x21A0 JUMP JUMPDEST SWAP3 POP DUP2 PUSH32 0xFFFFFFFFFFFFFFFFFFFFFFFFFFFFFFFFFFFFFFFFFFFFFFFFFFFFFFFFFFFFFFFF DIV DUP4 GT DUP3 ISZERO ISZERO AND ISZERO PUSH2 0x212D JUMPI PUSH2 0x212C PUSH2 0x22B6 JUMP JUMPDEST JUMPDEST DUP3 DUP3 MUL SWAP1 POP SWAP3 SWAP2 POP POP JUMP JUMPDEST PUSH1 0x0 PUSH2 0x2143 DUP3 PUSH2 0x21A0 JUMP JUMPDEST SWAP2 POP PUSH2 0x214E DUP4 PUSH2 0x21A0 JUMP JUMPDEST SWAP3 POP DUP3 DUP3 LT ISZERO PUSH2 0x2161 JUMPI PUSH2 0x2160 PUSH2 0x22B6 JUMP JUMPDEST JUMPDEST DUP3 DUP3 SUB SWAP1 POP SWAP3 SWAP2 POP POP JUMP JUMPDEST PUSH1 0x0 PUSH2 0x2177 DUP3 PUSH2 0x21BA JUMP JUMPDEST SWAP2 POP PUSH2 0x2182 DUP4 PUSH2 0x21BA JUMP JUMPDEST SWAP3 POP DUP3 DUP3 LT ISZERO PUSH2 0x2195 JUMPI PUSH2 0x2194 PUSH2 0x22B6 JUMP JUMPDEST JUMPDEST DUP3 DUP3 SUB SWAP1 POP SWAP3 SWAP2 POP POP JUMP JUMPDEST PUSH1 0x0 DUP2 SWAP1 POP SWAP2 SWAP1 POP JUMP JUMPDEST PUSH1 0x0 PUSH4 0xFFFFFFFF DUP3 AND SWAP1 POP SWAP2 SWAP1 POP JUMP JUMPDEST PUSH1 0x0 PUSH1 0xFF DUP3 AND SWAP1 POP SWAP2 SWAP1 POP JUMP JUMPDEST PUSH1 0x0 JUMPDEST DUP4 DUP2 LT ISZERO PUSH2 0x21E5 JUMPI DUP1 DUP3 ADD MLOAD DUP2 DUP5 ADD MSTORE PUSH1 0x20 DUP2 ADD SWAP1 POP PUSH2 0x21CA JUMP JUMPDEST DUP4 DUP2 GT ISZERO PUSH2 0x21F4 JUMPI PUSH1 0x0 DUP5 DUP5 ADD MSTORE JUMPDEST POP POP POP POP JUMP JUMPDEST PUSH1 0x0 PUSH2 0x2205 DUP3 PUSH2 0x21BA JUMP JUMPDEST SWAP2 POP PUSH1 0x0 DUP3 EQ ISZERO PUSH2 0x2219 JUMPI PUSH2 0x2218 PUSH2 0x22B6 JUMP JUMPDEST JUMPDEST PUSH1 0x1 DUP3 SUB SWAP1 POP SWAP2 SWAP1 POP JUMP JUMPDEST PUSH1 0x0 PUSH1 0x2 DUP3 DIV SWAP1 POP PUSH1 0x1 DUP3 AND DUP1 PUSH2 0x223C JUMPI PUSH1 0x7F DUP3 AND SWAP2 POP JUMPDEST PUSH1 0x20 DUP3 LT DUP2 EQ ISZERO PUSH2 0x2250 JUMPI PUSH2 0x224F PUSH2 0x2314 JUMP JUMPDEST JUMPDEST POP SWAP2 SWAP1 POP JUMP JUMPDEST PUSH1 0x0 PUSH2 0x2261 DUP3 PUSH2 0x21A0 JUMP JUMPDEST SWAP2 POP PUSH2 0x226C DUP4 PUSH2 0x21A0 JUMP JUMPDEST SWAP3 POP DUP3 PUSH2 0x227C JUMPI PUSH2 0x227B PUSH2 0x22E5 JUMP JUMPDEST JUMPDEST DUP3 DUP3 MOD SWAP1 POP SWAP3 SWAP2 POP POP JUMP JUMPDEST PUSH32 0x4E487B7100000000000000000000000000000000000000000000000000000000 PUSH1 0x0 MSTORE PUSH1 0x1 PUSH1 0x4 MSTORE PUSH1 0x24 PUSH1 0x0 REVERT JUMPDEST PUSH32 0x4E487B7100000000000000000000000000000000000000000000000000000000 PUSH1 0x0 MSTORE PUSH1 0x11 PUSH1 0x4 MSTORE PUSH1 0x24 PUSH1 0x0 REVERT JUMPDEST PUSH32 0x4E487B7100000000000000000000000000000000000000000000000000000000 PUSH1 0x0 MSTORE PUSH1 0x12 PUSH1 0x4 MSTORE PUSH1 0x24 PUSH1 0x0 REVERT JUMPDEST PUSH32 0x4E487B7100000000000000000000000000000000000000000000000000000000 PUSH1 0x0 MSTORE PUSH1 0x22 PUSH1 0x4 MSTORE PUSH1 0x24 PUSH1 0x0 REVERT JUMPDEST PUSH32 0x4E487B7100000000000000000000000000000000000000000000000000000000 PUSH1 0x0 MSTORE PUSH1 0x32 PUSH1 0x4 MSTORE PUSH1 0x24 PUSH1 0x0 REVERT JUMPDEST PUSH1 0x0 DUP1 REVERT JUMPDEST PUSH1 0x0 PUSH1 0x1F NOT PUSH1 0x1F DUP4 ADD AND SWAP1 POP SWAP2 SWAP1 POP JUMP JUMPDEST PUSH32 0x4261736573203C203120617265206E6F7420737570706F727465642E00000000 PUSH1 0x0 DUP3 ADD MSTORE POP JUMP JUMPDEST PUSH32 0x626173654E2065786365656473206D61782076616C75652E0000000000000000 PUSH1 0x0 DUP3 ADD MSTORE POP JUMP JUMPDEST PUSH2 0x23E3 DUP2 PUSH2 0x21A0 JUMP JUMPDEST DUP2 EQ PUSH2 0x23EE JUMPI PUSH1 0x0 DUP1 REVERT JUMPDEST POP JUMP JUMPDEST PUSH2 0x23FA DUP2 PUSH2 0x21AA JUMP JUMPDEST DUP2 EQ PUSH2 0x2405 JUMPI PUSH1 0x0 DUP1 REVERT JUMPDEST POP JUMP INVALID LOG2 PUSH5 0x6970667358 0x22 SLT KECCAK256 0xE4 PUSH15 0x9D85C17B7ECD30CBC24C6BB1700F10 JUMPI 0x22 PUSH16 0x20BD4D861561B70F818EA5E364736F6C PUSH4 0x43000807 STOP CALLER "
		},
		"gasEstimates": {
			"creation": {
				"codeDepositCost": "1855600",
				"executionCost": "infinite",
				"totalCost": "infinite"
			},
			"external": {
				"calculatePurchaseReturn(uint256,uint256,uint32,uint256)": "infinite",
				"calculateSaleReturn(uint256,uint256,uint32,uint256)": "infinite",
				"version()": "infinite"
			}
		},
		"methodIdentifiers": {
			"calculatePurchaseReturn(uint256,uint256,uint32,uint256)": "29a00e7c",
			"calculateSaleReturn(uint256,uint256,uint32,uint256)": "49f9b0f7",
			"version()": "54fd4d50"
		}
	},
	"abi": [
		{
			"inputs": [
				{
					"internalType": "uint256",
					"name": "_supply",
					"type": "uint256"
				},
				{
					"internalType": "uint256",
					"name": "_reserveBalance",
					"type": "uint256"
				},
				{
					"internalType": "uint32",
					"name": "_reserveRatio",
					"type": "uint32"
				},
				{
					"internalType": "uint256",
					"name": "_depositAmount",
					"type": "uint256"
				}
			],
			"name": "calculatePurchaseReturn",
			"outputs": [
				{
					"internalType": "uint256",
					"name": "",
					"type": "uint256"
				}
			],
			"stateMutability": "view",
			"type": "function"
		},
		{
			"inputs": [
				{
					"internalType": "uint256",
					"name": "_supply",
					"type": "uint256"
				},
				{
					"internalType": "uint256",
					"name": "_reserveBalance",
					"type": "uint256"
				},
				{
					"internalType": "uint32",
					"name": "_reserveRatio",
					"type": "uint32"
				},
				{
					"internalType": "uint256",
					"name": "_sellAmount",
					"type": "uint256"
				}
			],
			"name": "calculateSaleReturn",
			"outputs": [
				{
					"internalType": "uint256",
					"name": "",
					"type": "uint256"
				}
			],
			"stateMutability": "view",
			"type": "function"
		},
		{
			"inputs": [],
			"name": "version",
			"outputs": [
				{
					"internalType": "string",
					"name": "",
					"type": "string"
				}
			],
			"stateMutability": "view",
			"type": "function"
		}
	]
}