{
	"data": {
		"bytecode": {
			"linkReferences": {},
			"object": "60806040526040518060400160405280600381526020017f302e330000000000000000000000000000000000000000000000000000000000815250600090805190602001906200005192919062001541565b50670de0b6b3a7640000600a620000699190620016d6565b6087553480156200007957600080fd5b506040518060400160405280601381526020017f426f6e64696e6720437572766520546f6b656e000000000000000000000000008152506040518060400160405280600381526020017f4243540000000000000000000000000000000000000000000000000000000000815250701c35fedd14ffffffffffffffffffffffff600160206080811062000110576200010f620017d5565b5b0181905550701b0ce43b323fffffffffffffffffffffff60016021608081106200013f576200013e620017d5565b5b01819055507019f0028ec1ffffffffffffffffffffffff60016022608081106200016e576200016d620017d5565b5b01819055507018ded91f0e7fffffffffffffffffffffff60016023608081106200019d576200019c620017d5565b5b01819055507017d8ec7f0417ffffffffffffffffffffff6001602460808110620001cc57620001cb620017d5565b5b01819055507016ddc6556cdbffffffffffffffffffffff6001602560808110620001fb57620001fa620017d5565b5b01819055507015ecf52776a1ffffffffffffffffffffff60016026608081106200022a5762000229620017d5565b5b01819055507015060c256cb2ffffffffffffffffffffff6001602760808110620002595762000258620017d5565b5b0181905550701428a2f98d72ffffffffffffffffffffff6001602860808110620002885762000287620017d5565b5b01819055507013545598e5c23fffffffffffffffffffff6001602960808110620002b757620002b6620017d5565b5b0181905550701288c4161ce1dfffffffffffffffffffff6001602a60808110620002e657620002e5620017d5565b5b01819055507011c592761c666fffffffffffffffffffff6001602b60808110620003155762000314620017d5565b5b018190555070110a688680a757ffffffffffffffffffff6001602c60808110620003445762000343620017d5565b5b0181905550701056f1b5bedf77ffffffffffffffffffff6001602d60808110620003735762000372620017d5565b5b0181905550700faadceceeff8bffffffffffffffffffff6001602e60808110620003a257620003a1620017d5565b5b0181905550700f05dc6b27edadffffffffffffffffffff6001602f60808110620003d157620003d0620017d5565b5b0181905550700e67a5a25da4107fffffffffffffffffff60016030608081106200040057620003ff620017d5565b5b0181905550700dcff115b14eedffffffffffffffffffff60016031608081106200042f576200042e620017d5565b5b0181905550700d3e7a392431239fffffffffffffffffff60016032608081106200045e576200045d620017d5565b5b0181905550700cb2ff529eb71e4fffffffffffffffffff60016033608081106200048d576200048c620017d5565b5b0181905550700c2d415c3db974afffffffffffffffffff6001603460808110620004bc57620004bb620017d5565b5b0181905550700bad03e7d883f69bffffffffffffffffff6001603560808110620004eb57620004ea620017d5565b5b0181905550700b320d03b2c343d5ffffffffffffffffff60016036608081106200051a5762000519620017d5565b5b0181905550700abc25204e02828dffffffffffffffffff6001603760808110620005495762000548620017d5565b5b0181905550700a4b16f74ee4bb207fffffffffffffffff6001603860808110620005785762000577620017d5565b5b01819055507009deaf736ac1f569ffffffffffffffffff6001603960808110620005a757620005a6620017d5565b5b0181905550700976bd9952c7aa957fffffffffffffffff6001603a60808110620005d657620005d5620017d5565b5b01819055507009131271922eaa606fffffffffffffffff6001603b60808110620006055762000604620017d5565b5b01819055507008b380f3558668c46fffffffffffffffff6001603c60808110620006345762000633620017d5565b5b0181905550700857ddf0117efa215bffffffffffffffff6001603d60808110620006635762000662620017d5565b5b01819055507007ffffffffffffffffffffffffffffffff6001603e60808110620006925762000691620017d5565b5b01819055507007abbf6f6abb9d087fffffffffffffffff6001603f60808110620006c157620006c0620017d5565b5b018190555070075af62cbac95f7dfa7fffffffffffffff6001604060808110620006f057620006ef620017d5565b5b018190555070070d7fb7452e187ac13fffffffffffffff60016041608081106200071f576200071e620017d5565b5b01819055507006c3390ecc8af379295fffffffffffffff60016042608081106200074e576200074d620017d5565b5b018190555070067c00a3b07ffc01fd6fffffffffffffff60016043608081106200077d576200077c620017d5565b5b0181905550700637b647c39cbb9d3d27ffffffffffffff6001604460808110620007ac57620007ab620017d5565b5b01819055507005f63b1fc104dbd39587ffffffffffffff6001604560808110620007db57620007da620017d5565b5b01819055507005b771955b36e12f7235ffffffffffffff60016046608081106200080a5762000809620017d5565b5b018190555070057b3d49dda84556d6f6ffffffffffffff6001604760808110620008395762000838620017d5565b5b018190555070054183095b2c8ececf30ffffffffffffff6001604860808110620008685762000867620017d5565b5b018190555070050a28be635ca2b888f77fffffffffffff6001604960808110620008975762000896620017d5565b5b01819055507004d5156639708c9db33c3fffffffffffff6001604a60808110620008c657620008c5620017d5565b5b01819055507004a23105873875bd52dfdfffffffffffff6001604b60808110620008f557620008f4620017d5565b5b0181905550700471649d87199aa990756fffffffffffff6001604c60808110620009245762000923620017d5565b5b01819055507004429a21a029d4c1457cfbffffffffffff6001604d60808110620009535762000952620017d5565b5b0181905550700415bc6d6fb7dd71af2cb3ffffffffffff6001604e60808110620009825762000981620017d5565b5b01819055507003eab73b3bbfe282243ce1ffffffffffff6001604f60808110620009b157620009b0620017d5565b5b01819055507003c1771ac9fb6b4c18e229ffffffffffff6001605060808110620009e057620009df620017d5565b5b0181905550700399e96897690418f785257fffffffffff600160516080811062000a0f5762000a0e620017d5565b5b0181905550700373fc456c53bb779bf0ea9fffffffffff600160526080811062000a3e5762000a3d620017d5565b5b018190555070034f9e8e490c48e67e6ab8bfffffffffff600160536080811062000a6d5762000a6c620017d5565b5b018190555070032cbfd4a7adc790560b3337ffffffffff600160546080811062000a9c5762000a9b620017d5565b5b018190555070030b50570f6e5d2acca94613ffffffffff600160556080811062000acb5762000aca620017d5565b5b01819055507002eb40f9f620fda6b56c2861ffffffffff600160566080811062000afa5762000af9620017d5565b5b01819055507002cc8340ecb0d0f520a6af58ffffffffff600160576080811062000b295762000b28620017d5565b5b01819055507002af09481380a0a35cf1ba02ffffffffff600160586080811062000b585762000b57620017d5565b5b0181905550700292c5bdd3b92ec810287b1b3fffffffff600160596080811062000b875762000b86620017d5565b5b0181905550700277abdcdab07d5a77ac6d6b9fffffffff6001605a6080811062000bb65762000bb5620017d5565b5b018190555070025daf6654b1eaa55fd64df5efffffffff6001605b6080811062000be55762000be4620017d5565b5b0181905550700244c49c648baa98192dce88b7ffffffff6001605c6080811062000c145762000c13620017d5565b5b018190555070022ce03cd5619a311b2471268bffffffff6001605d6080811062000c435762000c42620017d5565b5b0181905550700215f77c045fbe885654a44a0fffffffff6001605e6080811062000c725762000c71620017d5565b5b01819055507001ffffffffffffffffffffffffffffffff6001605f6080811062000ca15762000ca0620017d5565b5b01819055507001eaefdbdaaee7421fc4d3ede5ffffffff600160606080811062000cd05762000ccf620017d5565b5b01819055507001d6bd8b2eb257df7e8ca57b09bfffffff600160616080811062000cff5762000cfe620017d5565b5b01819055507001c35fedd14b861eb0443f7f133fffffff600160626080811062000d2e5762000d2d620017d5565b5b01819055507001b0ce43b322bcde4a56e8ada5afffffff600160636080811062000d5d5762000d5c620017d5565b5b018190555070019f0028ec1fff007f5a195a39dfffffff600160646080811062000d8c5762000d8b620017d5565b5b018190555070018ded91f0e72ee74f49b15ba527ffffff600160656080811062000dbb5762000dba620017d5565b5b018190555070017d8ec7f04136f4e5615fd41a63ffffff600160666080811062000dea5762000de9620017d5565b5b018190555070016ddc6556cdb84bdc8d12d22e6fffffff600160676080811062000e195762000e18620017d5565b5b018190555070015ecf52776a1155b5bd8395814f7fffff600160686080811062000e485762000e47620017d5565b5b018190555070015060c256cb23b3b3cc3754cf40ffffff600160696080811062000e775762000e76620017d5565b5b01819055507001428a2f98d728ae223ddab715be3fffff6001606a6080811062000ea65762000ea5620017d5565b5b018190555070013545598e5c23276ccf0ede68034fffff6001606b6080811062000ed55762000ed4620017d5565b5b01819055507001288c4161ce1d6f54b7f61081194fffff6001606c6080811062000f045762000f03620017d5565b5b018190555070011c592761c666aa641d5a01a40f17ffff6001606d6080811062000f335762000f32620017d5565b5b0181905550700110a688680a7530515f3e6e6cfdcdffff6001606e6080811062000f625762000f61620017d5565b5b01819055507001056f1b5bedf75c6bcb2ce8aed428ffff6001606f6080811062000f915762000f90620017d5565b5b01819055506ffaadceceeff8a0890f3875f008277fff600160706080811062000fbf5762000fbe620017d5565b5b01819055506ff05dc6b27edad306388a600f6ba0bfff600160716080811062000fed5762000fec620017d5565b5b01819055506fe67a5a25da41063de1495d5b18cdbfff60016072608081106200101b576200101a620017d5565b5b01819055506fdcff115b14eedde6fc3aa5353f2e4fff6001607360808110620010495762001048620017d5565b5b01819055506fd3e7a3924312399f9aae2e0f868f8fff6001607460808110620010775762001076620017d5565b5b01819055506fcb2ff529eb71e41582cccd5a1ee26fff6001607560808110620010a557620010a4620017d5565b5b01819055506fc2d415c3db974ab32a51840c0b67edff6001607660808110620010d357620010d2620017d5565b5b01819055506fbad03e7d883f69ad5b0a186184e06bff6001607760808110620011015762001100620017d5565b5b01819055506fb320d03b2c343d4829abd6075f0cc5ff60016078608081106200112f576200112e620017d5565b5b01819055506fabc25204e02828d73c6e80bcdb1a95bf60016079608081106200115d576200115c620017d5565b5b01819055506fa4b16f74ee4bb2040a1ec6c15fbbf2df6001607a608081106200118b576200118a620017d5565b5b01819055506f9deaf736ac1f569deb1b5ae3f36c130f6001607b60808110620011b957620011b8620017d5565b5b01819055506f976bd9952c7aa957f5937d790ef650376001607c60808110620011e757620011e6620017d5565b5b01819055506f9131271922eaa6064b73a22d0bd4f2bf6001607d60808110620012155762001214620017d5565b5b01819055506f8b380f3558668c46c91c49a2f8e967b96001607e60808110620012435762001242620017d5565b5b01819055506f857ddf0117efa215952912839f6473e66001607f60808110620012715762001270620017d5565b5b018190555081608490805190602001906200128e92919062001541565b508060859080519060200190620012a792919062001541565b505050620012ca620012be620012fa60201b60201c565b6200130260201b60201c565b620012f433670de0b6b3a7640000620186a0620012e89190620016d6565b620013c860201b60201c565b6200182d565b600033905090565b6000608660009054906101000a900473ffffffffffffffffffffffffffffffffffffffff16905081608660006101000a81548173ffffffffffffffffffffffffffffffffffffffff021916908373ffffffffffffffffffffffffffffffffffffffff1602179055508173ffffffffffffffffffffffffffffffffffffffff168173ffffffffffffffffffffffffffffffffffffffff167f8be0079c531659141344cd1fd0a4f28419497f9722a3daafe3b4186f6b6457e060405160405180910390a35050565b600073ffffffffffffffffffffffffffffffffffffffff168273ffffffffffffffffffffffffffffffffffffffff1614156200143b576040517f08c379a0000000000000000000000000000000000000000000000000000000008152600401620014329062001629565b60405180910390fd5b6200144f600083836200153760201b60201c565b806083600082825462001463919062001679565b9250508190555080608160008473ffffffffffffffffffffffffffffffffffffffff1673ffffffffffffffffffffffffffffffffffffffff168152602001908152602001600020600082825401925050819055508173ffffffffffffffffffffffffffffffffffffffff16600073ffffffffffffffffffffffffffffffffffffffff167fddf252ad1be2c89b69c2b068fc378daa952ba7f163c4a11628f55a4df523b3ef836040516200151791906200164b565b60405180910390a362001533600083836200153c60201b60201c565b5050565b505050565b505050565b8280546200154f9062001741565b90600052602060002090601f016020900481019282620015735760008555620015bf565b82601f106200158e57805160ff1916838001178555620015bf565b82800160010185558215620015bf579182015b82811115620015be578251825591602001919060010190620015a1565b5b509050620015ce9190620015d2565b5090565b5b80821115620015ed576000816000905550600101620015d3565b5090565b600062001600601f8362001668565b91506200160d8262001804565b602082019050919050565b620016238162001737565b82525050565b600060208201905081810360008301526200164481620015f1565b9050919050565b600060208201905062001662600083018462001618565b92915050565b600082825260208201905092915050565b6000620016868262001737565b9150620016938362001737565b9250827fffffffffffffffffffffffffffffffffffffffffffffffffffffffffffffffff03821115620016cb57620016ca62001777565b5b828201905092915050565b6000620016e38262001737565b9150620016f08362001737565b9250817fffffffffffffffffffffffffffffffffffffffffffffffffffffffffffffffff04831182151516156200172c576200172b62001777565b5b828202905092915050565b6000819050919050565b600060028204905060018216806200175a57607f821691505b60208210811415620017715762001770620017a6565b5b50919050565b7f4e487b7100000000000000000000000000000000000000000000000000000000600052601160045260246000fd5b7f4e487b7100000000000000000000000000000000000000000000000000000000600052602260045260246000fd5b7f4e487b7100000000000000000000000000000000000000000000000000000000600052603260045260246000fd5b7f45524332303a206d696e7420746f20746865207a65726f206164647265737300600082015250565b6147e5806200183d6000396000f3fe60806040526004361061016a5760003560e01c806354fd4d50116100d157806395d89b411161008a578063a9059cbb11610064578063a9059cbb1461056e578063dd62ed3e146105ab578063e941fa78146105e8578063f2fde38b146105ff57610179565b806395d89b41146104db578063a10954fe14610506578063a457c2d71461053157610179565b806354fd4d50146103cb57806370a08231146103f6578063715018a61461043357806379cc67901461044a5780638da5cb5b1461047357806390f0c2ea1461049e57610179565b806328c3d7011161012357806328c3d7011461028357806329a00e7c146102c0578063313ce567146102fd578063395093511461032857806342966c681461036557806349f9b0f71461038e57610179565b806306fdde031461017e578063095ea7b3146101a95780631249c58b146101e657806318160ddd146101f05780631df4ccfc1461021b57806323b872dd1461024657610179565b3661017957610177610628565b005b600080fd5b34801561018a57600080fd5b50610193610677565b6040516101a09190613b03565b60405180910390f35b3480156101b557600080fd5b506101d060048036038101906101cb919061364a565b610709565b6040516101dd9190613ae8565b60405180910390f35b6101ee610628565b005b3480156101fc57600080fd5b5061020561072c565b6040516102129190613de5565b60405180910390f35b34801561022757600080fd5b50610230610736565b60405161023d9190613de5565b60405180910390f35b34801561025257600080fd5b5061026d600480360381019061026891906135f7565b61073c565b60405161027a9190613ae8565b60405180910390f35b34801561028f57600080fd5b506102aa60048036038101906102a5919061368a565b61076b565b6040516102b79190613de5565b60405180910390f35b3480156102cc57600080fd5b506102e760048036038101906102e291906136b7565b61078c565b6040516102f49190613de5565b60405180910390f35b34801561030957600080fd5b50610312610875565b60405161031f9190613e00565b60405180910390f35b34801561033457600080fd5b5061034f600480360381019061034a919061364a565b61087e565b60405161035c9190613ae8565b60405180910390f35b34801561037157600080fd5b5061038c6004803603810190610387919061368a565b6108b5565b005b34801561039a57600080fd5b506103b560048036038101906103b091906136b7565b610973565b6040516103c29190613de5565b60405180910390f35b3480156103d757600080fd5b506103e0610a89565b6040516103ed9190613b03565b60405180910390f35b34801561040257600080fd5b5061041d6004803603810190610418919061358a565b610b17565b60405161042a9190613de5565b60405180910390f35b34801561043f57600080fd5b50610448610b60565b005b34801561045657600080fd5b50610471600480360381019061046c919061364a565b610b74565b005b34801561047f57600080fd5b50610488610b94565b6040516104959190613acd565b60405180910390f35b3480156104aa57600080fd5b506104c560048036038101906104c0919061368a565b610bbe565b6040516104d29190613de5565b60405180910390f35b3480156104e757600080fd5b506104f0610bdf565b6040516104fd9190613b03565b60405180910390f35b34801561051257600080fd5b5061051b610c71565b6040516105289190613de5565b60405180910390f35b34801561053d57600080fd5b506105586004803603810190610553919061364a565b610c77565b6040516105659190613ae8565b60405180910390f35b34801561057a57600080fd5b506105956004803603810190610590919061364a565b610cee565b6040516105a29190613ae8565b60405180910390f35b3480156105b757600080fd5b506105d260048036038101906105cd91906135b7565b610d11565b6040516105df9190613de5565b60405180910390f35b3480156105f457600080fd5b506105fd610d98565b005b34801561060b57600080fd5b506106266004803603810190610621919061358a565b610ea4565b005b6000341161066b576040517f08c379a000000000000000000000000000000000000000000000000000000000815260040161066290613c25565b60405180910390fd5b61067434610f28565b50565b606060848054610686906140b5565b80601f01602080910402602001604051908101604052809291908181526020018280546106b2906140b5565b80156106ff5780601f106106d4576101008083540402835291602001916106ff565b820191906000526020600020905b8154815290600101906020018083116106e257829003601f168201915b5050505050905090565b600080610714610fa5565b9050610721818585610fad565b600191505092915050565b6000608354905090565b60885481565b600080610747610fa5565b9050610754858285611178565b61075f858585611204565b60019150509392505050565b600061078561077861072c565b6087546207a1208561078c565b9050919050565b6000808511801561079d5750600084115b80156107af575060008363ffffffff16115b80156107ca5750620f424063ffffffff168363ffffffff1611155b6107d357600080fd5b60008214156107e5576000905061086d565b620f424063ffffffff168363ffffffff16141561081a578382866108099190613f31565b6108139190613ecf565b905061086d565b6000806000868561082b9190613e42565b905061083c818888620f424061147f565b809350819450505060008260ff16848a6108569190613f31565b901c905088816108669190613f8b565b9450505050505b949350505050565b60006012905090565b600080610889610fa5565b90506108aa81858561089b8589610d11565b6108a59190613e42565b610fad565b600191505092915050565b60006108c08261160c565b905060003373ffffffffffffffffffffffffffffffffffffffff16826040516108e890613ab8565b60006040518083038185875af1925050503d8060008114610925576040519150601f19603f3d011682016040523d82523d6000602084013e61092a565b606091505b505090508061096e576040517f08c379a000000000000000000000000000000000000000000000000000000000815260040161096590613d85565b60405180910390fd5b505050565b600080851180156109845750600084115b8015610996575060008363ffffffff16115b80156109b15750620f424063ffffffff168363ffffffff1611155b80156109bd5750848211155b6109c657600080fd5b60008214156109d85760009050610a81565b848214156109e857839050610a81565b620f424063ffffffff168363ffffffff161415610a1d57848285610a0c9190613f31565b610a169190613ecf565b9050610a81565b60008060008488610a2e9190613f8b565b9050610a3f8882620f42408961147f565b809350819450505060008388610a559190613f31565b905060008360ff1689901b9050848183610a6f9190613f8b565b610a799190613ecf565b955050505050505b949350505050565b60008054610a96906140b5565b80601f0160208091040260200160405190810160405280929190818152602001828054610ac2906140b5565b8015610b0f5780601f10610ae457610100808354040283529160200191610b0f565b820191906000526020600020905b815481529060010190602001808311610af257829003601f168201915b505050505081565b6000608160008373ffffffffffffffffffffffffffffffffffffffff1673ffffffffffffffffffffffffffffffffffffffff168152602001908152602001600020549050919050565b610b68611706565b610b726000611784565b565b610b8682610b80610fa5565b83611178565b610b90828261184a565b5050565b6000608660009054906101000a900473ffffffffffffffffffffffffffffffffffffffff16905090565b6000610bd8610bcb61072c565b6087546207a12085610973565b9050919050565b606060858054610bee906140b5565b80601f0160208091040260200160405190810160405280929190818152602001828054610c1a906140b5565b8015610c675780601f10610c3c57610100808354040283529160200191610c67565b820191906000526020600020905b815481529060010190602001808311610c4a57829003601f168201915b5050505050905090565b60875481565b600080610c82610fa5565b90506000610c908286610d11565b905083811015610cd5576040517f08c379a0000000000000000000000000000000000000000000000000000000008152600401610ccc90613da5565b60405180910390fd5b610ce28286868403610fad565b60019250505092915050565b600080610cf9610fa5565b9050610d06818585611204565b600191505092915050565b6000608260008473ffffffffffffffffffffffffffffffffffffffff1673ffffffffffffffffffffffffffffffffffffffff16815260200190815260200160002060008373ffffffffffffffffffffffffffffffffffffffff1673ffffffffffffffffffffffffffffffffffffffff16815260200190815260200160002054905092915050565b610da0611706565b600060885411610de5576040517f08c379a0000000000000000000000000000000000000000000000000000000008152600401610ddc90613be5565b60405180910390fd5b60006088549050600060888190555060003373ffffffffffffffffffffffffffffffffffffffff1682604051610e1a90613ab8565b60006040518083038185875af1925050503d8060008114610e57576040519150601f19603f3d011682016040523d82523d6000602084013e610e5c565b606091505b5050905080610ea0576040517f08c379a0000000000000000000000000000000000000000000000000000000008152600401610e9790613d65565b60405180910390fd5b5050565b610eac611706565b600073ffffffffffffffffffffffffffffffffffffffff168173ffffffffffffffffffffffffffffffffffffffff161415610f1c576040517f08c379a0000000000000000000000000000000000000000000000000000000008152600401610f1390613ba5565b60405180910390fd5b610f2581611784565b50565b6000808211610f6c576040517f08c379a0000000000000000000000000000000000000000000000000000000008152600401610f6390613b85565b60405180910390fd5b6000610f778361076b565b9050610f833382611a1a565b8260876000828254610f959190613e42565b9250508190555080915050919050565b600033905090565b600073ffffffffffffffffffffffffffffffffffffffff168373ffffffffffffffffffffffffffffffffffffffff16141561101d576040517f08c379a000000000000000000000000000000000000000000000000000000000815260040161101490613d45565b60405180910390fd5b600073ffffffffffffffffffffffffffffffffffffffff168273ffffffffffffffffffffffffffffffffffffffff16141561108d576040517f08c379a000000000000000000000000000000000000000000000000000000000815260040161108490613bc5565b60405180910390fd5b80608260008573ffffffffffffffffffffffffffffffffffffffff1673ffffffffffffffffffffffffffffffffffffffff16815260200190815260200160002060008473ffffffffffffffffffffffffffffffffffffffff1673ffffffffffffffffffffffffffffffffffffffff168152602001908152602001600020819055508173ffffffffffffffffffffffffffffffffffffffff168373ffffffffffffffffffffffffffffffffffffffff167f8c5be1e5ebec7d5bd14f71427d1e84f3dd0314c0f7b2291e5b200ac8c7c3b9258360405161116b9190613de5565b60405180910390a3505050565b60006111848484610d11565b90507fffffffffffffffffffffffffffffffffffffffffffffffffffffffffffffffff81146111fe57818110156111f0576040517f08c379a00000000000000000000000000000000000000000000000000000000081526004016111e790613c05565b60405180910390fd5b6111fd8484848403610fad565b5b50505050565b600073ffffffffffffffffffffffffffffffffffffffff168373ffffffffffffffffffffffffffffffffffffffff161415611274576040517f08c379a000000000000000000000000000000000000000000000000000000000815260040161126b90613d25565b60405180910390fd5b600073ffffffffffffffffffffffffffffffffffffffff168273ffffffffffffffffffffffffffffffffffffffff1614156112e4576040517f08c379a00000000000000000000000000000000000000000000000000000000081526004016112db90613b25565b60405180910390fd5b6112ef838383611b72565b6000608160008573ffffffffffffffffffffffffffffffffffffffff1673ffffffffffffffffffffffffffffffffffffffff16815260200190815260200160002054905081811015611376576040517f08c379a000000000000000000000000000000000000000000000000000000000815260040161136d90613c45565b60405180910390fd5b818103608160008673ffffffffffffffffffffffffffffffffffffffff1673ffffffffffffffffffffffffffffffffffffffff1681526020019081526020016000208190555081608160008573ffffffffffffffffffffffffffffffffffffffff1673ffffffffffffffffffffffffffffffffffffffff168152602001908152602001600020600082825401925050819055508273ffffffffffffffffffffffffffffffffffffffff168473ffffffffffffffffffffffffffffffffffffffff167fddf252ad1be2c89b69c2b068fc378daa952ba7f163c4a11628f55a4df523b3ef846040516114669190613de5565b60405180910390a3611479848484611b77565b50505050565b60008070020000000000000000000000000000000086106114d5576040517f08c379a00000000000000000000000000000000000000000000000000000000081526004016114cc90613ce5565b60405180910390fd5b84861015611518576040517f08c379a000000000000000000000000000000000000000000000000000000000815260040161150f90613cc5565b60405180910390fd5b600080866f80000000000000000000000000000000896115389190613f31565b6115429190613ecf565b905070015bf0a8b1457695355fb8ac404e7a79e381101561156d5761156681611b7c565b9150611579565b611576816122f5565b91505b60008563ffffffff168763ffffffff16846115949190613f31565b61159e9190613ecf565b90507008000000000000000000000000000000008110156115d0576115c281612455565b607f94509450505050611603565b60006115db82612c59565b90506115f981607f6115ed9190613fbf565b60ff1683901c82612d3b565b8195509550505050505b94509492505050565b6000808211611650576040517f08c379a000000000000000000000000000000000000000000000000000000000815260040161164790613c65565b60405180910390fd5b8161165a33610b17565b101561169b576040517f08c379a000000000000000000000000000000000000000000000000000000000815260040161169290613c85565b60405180910390fd5b60006116a683610bbe565b905080608760008282546116ba9190613f8b565b9250508190555060006116cc8261344a565b905080608860008282546116e09190613e42565b925050819055506116f1338561184a565b80826116fd9190613f8b565b92505050919050565b61170e610fa5565b73ffffffffffffffffffffffffffffffffffffffff1661172c610b94565b73ffffffffffffffffffffffffffffffffffffffff1614611782576040517f08c379a000000000000000000000000000000000000000000000000000000000815260040161177990613ca5565b60405180910390fd5b565b6000608660009054906101000a900473ffffffffffffffffffffffffffffffffffffffff16905081608660006101000a81548173ffffffffffffffffffffffffffffffffffffffff021916908373ffffffffffffffffffffffffffffffffffffffff1602179055508173ffffffffffffffffffffffffffffffffffffffff168173ffffffffffffffffffffffffffffffffffffffff167f8be0079c531659141344cd1fd0a4f28419497f9722a3daafe3b4186f6b6457e060405160405180910390a35050565b600073ffffffffffffffffffffffffffffffffffffffff168273ffffffffffffffffffffffffffffffffffffffff1614156118ba576040517f08c379a00000000000000000000000000000000000000000000000000000000081526004016118b190613d05565b60405180910390fd5b6118c682600083611b72565b6000608160008473ffffffffffffffffffffffffffffffffffffffff1673ffffffffffffffffffffffffffffffffffffffff1681526020019081526020016000205490508181101561194d576040517f08c379a000000000000000000000000000000000000000000000000000000000815260040161194490613b45565b60405180910390fd5b818103608160008573ffffffffffffffffffffffffffffffffffffffff1673ffffffffffffffffffffffffffffffffffffffff1681526020019081526020016000208190555081608360008282540392505081905550600073ffffffffffffffffffffffffffffffffffffffff168373ffffffffffffffffffffffffffffffffffffffff167fddf252ad1be2c89b69c2b068fc378daa952ba7f163c4a11628f55a4df523b3ef84604051611a019190613de5565b60405180910390a3611a1583600084611b77565b505050565b600073ffffffffffffffffffffffffffffffffffffffff168273ffffffffffffffffffffffffffffffffffffffff161415611a8a576040517f08c379a0000000000000000000000000000000000000000000000000000000008152600401611a8190613dc5565b60405180910390fd5b611a9660008383611b72565b8060836000828254611aa89190613e42565b9250508190555080608160008473ffffffffffffffffffffffffffffffffffffffff1673ffffffffffffffffffffffffffffffffffffffff168152602001908152602001600020600082825401925050819055508173ffffffffffffffffffffffffffffffffffffffff16600073ffffffffffffffffffffffffffffffffffffffff167fddf252ad1be2c89b69c2b068fc378daa952ba7f163c4a11628f55a4df523b3ef83604051611b5a9190613de5565b60405180910390a3611b6e60008383611b77565b5050565b505050565b505050565b6000806000905060008060006fd3094c70f034de4b96ff7d5b6f99fcd88610611bf7576f4000000000000000000000000000000084611bbb9190613e42565b93506fd3094c70f034de4b96ff7d5b6f99fcd86f8000000000000000000000000000000087611bea9190613f31565b611bf49190613ecf565b95505b6fa45af1e1f40c333b3de1db4dd55f29a78610611c66576f2000000000000000000000000000000084611c2a9190613e42565b93506fa45af1e1f40c333b3de1db4dd55f29a76f8000000000000000000000000000000087611c599190613f31565b611c639190613ecf565b95505b6f910b022db7ae67ce76b441c27035c6a18610611cd5576f1000000000000000000000000000000084611c999190613e42565b93506f910b022db7ae67ce76b441c27035c6a16f8000000000000000000000000000000087611cc89190613f31565b611cd29190613ecf565b95505b6f88415abbe9a76bead8d00cf112e4d4a88610611d44576f0800000000000000000000000000000084611d089190613e42565b93506f88415abbe9a76bead8d00cf112e4d4a86f8000000000000000000000000000000087611d379190613f31565b611d419190613ecf565b95505b6f84102b00893f64c705e841d5d4064bd38610611db3576f0400000000000000000000000000000084611d779190613e42565b93506f84102b00893f64c705e841d5d4064bd36f8000000000000000000000000000000087611da69190613f31565b611db09190613ecf565b95505b6f8204055aaef1c8bd5c3259f4822735a28610611e22576f0200000000000000000000000000000084611de69190613e42565b93506f8204055aaef1c8bd5c3259f4822735a26f8000000000000000000000000000000087611e159190613f31565b611e1f9190613ecf565b95505b6f810100ab00222d861931c15e39b44e998610611e91576f0100000000000000000000000000000084611e559190613e42565b93506f810100ab00222d861931c15e39b44e996f8000000000000000000000000000000087611e849190613f31565b611e8e9190613ecf565b95505b6f808040155aabbbe9451521693554f7338610611eff576e80000000000000000000000000000084611ec39190613e42565b93506f808040155aabbbe9451521693554f7336f8000000000000000000000000000000087611ef29190613f31565b611efc9190613ecf565b95505b6f8000000000000000000000000000000086611f1b9190613f8b565b92508291506f800000000000000000000000000000008384611f3d9190613f31565b611f479190613ecf565b905070010000000000000000000000000000000083700100000000000000000000000000000000611f789190613f8b565b83611f839190613f31565b611f8d9190613ecf565b84611f989190613e42565b93506f800000000000000000000000000000008183611fb79190613f31565b611fc19190613ecf565b9150700200000000000000000000000000000000836faaaaaaaaaaaaaaaaaaaaaaaaaaaaaaaa611ff19190613f8b565b83611ffc9190613f31565b6120069190613ecf565b846120119190613e42565b93506f8000000000000000000000000000000081836120309190613f31565b61203a9190613ecf565b9150700300000000000000000000000000000000836f9999999999999999999999999999999961206a9190613f8b565b836120759190613f31565b61207f9190613ecf565b8461208a9190613e42565b93506f8000000000000000000000000000000081836120a99190613f31565b6120b39190613ecf565b9150700400000000000000000000000000000000836f924924924924924924924924924924926120e39190613f8b565b836120ee9190613f31565b6120f89190613ecf565b846121039190613e42565b93506f8000000000000000000000000000000081836121229190613f31565b61212c9190613ecf565b9150700500000000000000000000000000000000836f8e38e38e38e38e38e38e38e38e38e38e61215c9190613f8b565b836121679190613f31565b6121719190613ecf565b8461217c9190613e42565b93506f80000000000000000000000000000000818361219b9190613f31565b6121a59190613ecf565b9150700600000000000000000000000000000000836f8ba2e8ba2e8ba2e8ba2e8ba2e8ba2e8b6121d59190613f8b565b836121e09190613f31565b6121ea9190613ecf565b846121f59190613e42565b93506f8000000000000000000000000000000081836122149190613f31565b61221e9190613ecf565b9150700700000000000000000000000000000000836f89d89d89d89d89d89d89d89d89d89d8961224e9190613f8b565b836122599190613f31565b6122639190613ecf565b8461226e9190613e42565b93506f80000000000000000000000000000000818361228d9190613f31565b6122979190613ecf565b9150700800000000000000000000000000000000836f888888888888888888888888888888886122c79190613f8b565b836122d29190613f31565b6122dc9190613ecf565b846122e79190613e42565b935083945050505050919050565b600080600090506000839050700100000000000000000000000000000000811061236d57600061233f6f800000000000000000000000000000008361233a9190613ecf565b6134c0565b90508060ff1682901c91506f800000000000000000000000000000008160ff166123699190613f31565b9250505b6f80000000000000000000000000000000811115612415576000607f90505b60008160ff161115612413576f8000000000000000000000000000000082836123b59190613f31565b6123bf9190613ecf565b9150700100000000000000000000000000000000821061240257600182901c91506001816123ed9190613fbf565b60ff166001901b836123ff9190613e42565b92505b8061240c9061408b565b905061238c565b505b6f05b9de1d10bf4103d647b0955897ba806f03f80fe03f80fe03f80fe03f80fe03f8836124429190613f31565b61244c9190613ecf565b92505050919050565b600080600090506000806f100000000000000000000000000000008561247b91906140e7565b91508190506f80000000000000000000000000000000828261249d9190613f31565b6124a79190613ecf565b90506710e1b3be415a0000816124bd9190613f31565b836124c89190613e42565b92506f8000000000000000000000000000000082826124e79190613f31565b6124f19190613ecf565b90506705a0913f6b1e0000816125079190613f31565b836125129190613e42565b92506f8000000000000000000000000000000082826125319190613f31565b61253b9190613ecf565b9050670168244fdac78000816125519190613f31565b8361255c9190613e42565b92506f80000000000000000000000000000000828261257b9190613f31565b6125859190613ecf565b9050664807432bc180008161259a9190613f31565b836125a59190613e42565b92506f8000000000000000000000000000000082826125c49190613f31565b6125ce9190613ecf565b9050660c0135dca04000816125e39190613f31565b836125ee9190613e42565b92506f80000000000000000000000000000000828261260d9190613f31565b6126179190613ecf565b90506601b707b1cdc0008161262c9190613f31565b836126379190613e42565b92506f8000000000000000000000000000000082826126569190613f31565b6126609190613ecf565b90506536e0f639b800816126749190613f31565b8361267f9190613e42565b92506f80000000000000000000000000000000828261269e9190613f31565b6126a89190613ecf565b9050650618fee9f800816126bc9190613f31565b836126c79190613e42565b92506f8000000000000000000000000000000082826126e69190613f31565b6126f09190613ecf565b9050649c197dcc00816127039190613f31565b8361270e9190613e42565b92506f80000000000000000000000000000000828261272d9190613f31565b6127379190613ecf565b9050640e30dce4008161274a9190613f31565b836127559190613e42565b92506f8000000000000000000000000000000082826127749190613f31565b61277e9190613ecf565b905064012ebd1300816127919190613f31565b8361279c9190613e42565b92506f8000000000000000000000000000000082826127bb9190613f31565b6127c59190613ecf565b90506317499f00816127d79190613f31565b836127e29190613e42565b92506f8000000000000000000000000000000082826128019190613f31565b61280b9190613ecf565b90506301a9d4808161281d9190613f31565b836128289190613e42565b92506f8000000000000000000000000000000082826128479190613f31565b6128519190613ecf565b9050621c6380816128629190613f31565b8361286d9190613e42565b92506f80000000000000000000000000000000828261288c9190613f31565b6128969190613ecf565b90506201c638816128a79190613f31565b836128b29190613e42565b92506f8000000000000000000000000000000082826128d19190613f31565b6128db9190613ecf565b9050611ab8816128eb9190613f31565b836128f69190613e42565b92506f8000000000000000000000000000000082826129159190613f31565b61291f9190613ecf565b905061017c8161292f9190613f31565b8361293a9190613e42565b92506f8000000000000000000000000000000082826129599190613f31565b6129639190613ecf565b90506014816129729190613f31565b8361297d9190613e42565b92506f80000000000000000000000000000000828261299c9190613f31565b6129a69190613ecf565b90506001816129b59190613f31565b836129c09190613e42565b92506f80000000000000000000000000000000826721c3677c82b40000856129e89190613ecf565b6129f29190613e42565b6129fc9190613e42565b925060006f10000000000000000000000000000000861614612a545770018ebef9eac820ae8682b9793ac6d1e7767001c3d6a24ed82218787d624d3e5eba95f984612a479190613f31565b612a519190613ecf565b92505b60006f20000000000000000000000000000000861614612aaa577001368b2fc6f9609fe7aceb46aa619baed470018ebef9eac820ae8682b9793ac6d1e77884612a9d9190613f31565b612aa79190613ecf565b92505b60006f40000000000000000000000000000000861614612aff576fbc5ab1b16779be3575bd8f0520a9f21f7001368b2fc6f9609fe7aceb46aa619baed584612af29190613f31565b612afc9190613ecf565b92505b60006f80000000000000000000000000000000861614612b53576f454aaa8efe072e7f6ddbab84b40a55c96fbc5ab1b16779be3575bd8f0520a9f21e84612b469190613f31565b612b509190613ecf565b92505b6000700100000000000000000000000000000000861614612ba8576f0960aadc109e7a3bf4578099615711ea6f454aaa8efe072e7f6ddbab84b40a55c584612b9b9190613f31565b612ba59190613ecf565b92505b6000700200000000000000000000000000000000861614612bfc576e2bf84208204f5977f9a8cf01fdce3d6f0960aadc109e7a3bf4578099615711d784612bef9190613f31565b612bf99190613ecf565b92505b6000700400000000000000000000000000000000861614612c4e576d03c6ab775dd0b95b4cbee7e65d116e2bf84208204f5977f9a8cf01fdc30784612c419190613f31565b612c4b9190613ecf565b92505b829350505050919050565b600080602090506000607f90505b8060ff16600183612c789190613e98565b60ff161015612cce57600060028284612c919190613e98565b612c9b9190613f00565b90508460018260ff1660808110612cb557612cb46141d4565b5b015410612cc457809250612cc8565b8091505b50612c67565b8360018260ff1660808110612ce657612ce56141d4565b5b015410612cf7578092505050612d36565b8360018360ff1660808110612d0f57612d0e6141d4565b5b015410612d20578192505050612d36565b6000612d2f57612d2e614118565b5b6000925050505b919050565b60008083905060008360ff168583612d539190613f31565b901c91506f03442c4e6074a82f1797f72ac000000082612d739190613f31565b81612d7e9190613e42565b90508360ff168583612d909190613f31565b901c91506f0116b96f757c380fb287fd0e4000000082612db09190613f31565b81612dbb9190613e42565b90508360ff168583612dcd9190613f31565b901c91506e45ae5bdd5f0e03eca1ff439000000082612dec9190613f31565b81612df79190613e42565b90508360ff168583612e099190613f31565b901c91506e0defabf91302cd95b9ffda5000000082612e289190613f31565b81612e339190613e42565b90508360ff168583612e459190613f31565b901c91506e02529ca9832b22439efff9b800000082612e649190613f31565b81612e6f9190613e42565b90508360ff168583612e819190613f31565b901c91506d54f1cf12bd04e516b6da8800000082612e9f9190613f31565b81612eaa9190613e42565b90508360ff168583612ebc9190613f31565b901c91506d0a9e39e257a09ca2d6db5100000082612eda9190613f31565b81612ee59190613e42565b90508360ff168583612ef79190613f31565b901c91506d012e066e7b839fa050c30900000082612f159190613f31565b81612f209190613e42565b90508360ff168583612f329190613f31565b901c91506c1e33d7d926c329a1ad1a80000082612f4f9190613f31565b81612f5a9190613e42565b90508360ff168583612f6c9190613f31565b901c91506c02bee513bdb4a6b19b5f80000082612f899190613f31565b81612f949190613e42565b90508360ff168583612fa69190613f31565b901c91506b3a9316fa79b88eccf2a0000082612fc29190613f31565b81612fcd9190613e42565b90508360ff168583612fdf9190613f31565b901c91506b048177ebe1fa81237520000082612ffb9190613f31565b816130069190613e42565b90508360ff1685836130189190613f31565b901c91506a5263fe90242dcbacf00000826130339190613f31565b8161303e9190613e42565b90508360ff1685836130509190613f31565b901c91506a057e22099c030d941000008261306b9190613f31565b816130769190613e42565b90508360ff1685836130889190613f31565b901c91506957e22099c030d9410000826130a29190613f31565b816130ad9190613e42565b90508360ff1685836130bf9190613f31565b901c915069052b6b54569976310000826130d99190613f31565b816130e49190613e42565b90508360ff1685836130f69190613f31565b901c9150684985f67696bf7480008261310f9190613f31565b8161311a9190613e42565b90508360ff16858361312c9190613f31565b901c91506803dea12ea99e498000826131459190613f31565b816131509190613e42565b90508360ff1685836131629190613f31565b901c91506731880f2214b6e0008261317a9190613f31565b816131859190613e42565b90508360ff1685836131979190613f31565b901c915067025bcff56eb36000826131af9190613f31565b816131ba9190613e42565b90508360ff1685836131cc9190613f31565b901c9150661b722e10ab1000826131e39190613f31565b816131ee9190613e42565b90508360ff1685836132009190613f31565b901c91506601317c70077000826132179190613f31565b816132229190613e42565b90508360ff1685836132349190613f31565b901c9150650cba84aafa008261324a9190613f31565b816132559190613e42565b90508360ff1685836132679190613f31565b901c91506482573a0a008261327c9190613f31565b816132879190613e42565b90508360ff1685836132999190613f31565b901c91506405035ad900826132ae9190613f31565b816132b99190613e42565b90508360ff1685836132cb9190613f31565b901c9150632f881b00826132df9190613f31565b816132ea9190613e42565b90508360ff1685836132fc9190613f31565b901c91506301b29340826133109190613f31565b8161331b9190613e42565b90508360ff16858361332d9190613f31565b901c9150620efc40826133409190613f31565b8161334b9190613e42565b90508360ff16858361335d9190613f31565b901c9150617fe08261336f9190613f31565b8161337a9190613e42565b90508360ff16858361338c9190613f31565b901c91506104208261339e9190613f31565b816133a99190613e42565b90508360ff1685836133bb9190613f31565b901c91506021826133cc9190613f31565b816133d79190613e42565b90508360ff1685836133e99190613f31565b901c91506001826133fa9190613f31565b816134059190613e42565b90508360ff166001901b856f0688589cc0e9505e2f2fee55800000008361342c9190613ecf565b6134369190613e42565b6134409190613e42565b9250505092915050565b60006127106103e88361345d9190613f31565b101561349e576040517f08c379a000000000000000000000000000000000000000000000000000000000815260040161349590613b65565b60405180910390fd5b6127106103e8836134af9190613f31565b6134b99190613ecf565b9050919050565b600080600090506000839050610100811015613500575b60018111156134fb57600181901c90506001826134f49190613e98565b91506134d7565b613541565b6000608090505b60008160ff16111561353f578060ff166001901b8210613530578060ff1682901c915080831792505b60018160ff16901c9050613507565b505b8192505050919050565b60008135905061355a8161476a565b92915050565b60008135905061356f81614781565b92915050565b60008135905061358481614798565b92915050565b6000602082840312156135a05761359f614203565b5b60006135ae8482850161354b565b91505092915050565b600080604083850312156135ce576135cd614203565b5b60006135dc8582860161354b565b92505060206135ed8582860161354b565b9150509250929050565b6000806000606084860312156136105761360f614203565b5b600061361e8682870161354b565b935050602061362f8682870161354b565b925050604061364086828701613560565b9150509250925092565b6000806040838503121561366157613660614203565b5b600061366f8582860161354b565b925050602061368085828601613560565b9150509250929050565b6000602082840312156136a05761369f614203565b5b60006136ae84828501613560565b91505092915050565b600080600080608085870312156136d1576136d0614203565b5b60006136df87828801613560565b94505060206136f087828801613560565b935050604061370187828801613575565b925050606061371287828801613560565b91505092959194509250565b61372781613ff3565b82525050565b61373681614005565b82525050565b600061374782613e1b565b6137518185613e31565b9350613761818560208601614058565b61376a81614208565b840191505092915050565b6000613782602383613e31565b915061378d82614219565b604082019050919050565b60006137a5602283613e31565b91506137b082614268565b604082019050919050565b60006137c8602883613e31565b91506137d3826142b7565b604082019050919050565b60006137eb602083613e31565b91506137f682614306565b602082019050919050565b600061380e602683613e31565b91506138198261432f565b604082019050919050565b6000613831602283613e31565b915061383c8261437e565b604082019050919050565b6000613854601e83613e31565b915061385f826143cd565b602082019050919050565b6000613877601d83613e31565b9150613882826143f6565b602082019050919050565b600061389a602583613e31565b91506138a58261441f565b604082019050919050565b60006138bd602683613e31565b91506138c88261446e565b604082019050919050565b60006138e0601f83613e31565b91506138eb826144bd565b602082019050919050565b6000613903602383613e31565b915061390e826144e6565b604082019050919050565b6000613926602083613e31565b915061393182614535565b602082019050919050565b6000613949601c83613e31565b91506139548261455e565b602082019050919050565b600061396c601883613e31565b915061397782614587565b602082019050919050565b600061398f602183613e31565b915061399a826145b0565b604082019050919050565b60006139b2602583613e31565b91506139bd826145ff565b604082019050919050565b60006139d5600083613e26565b91506139e08261464e565b600082019050919050565b60006139f8602483613e31565b9150613a0382614651565b604082019050919050565b6000613a1b601d83613e31565b9150613a26826146a0565b602082019050919050565b6000613a3e601983613e31565b9150613a49826146c9565b602082019050919050565b6000613a61602583613e31565b9150613a6c826146f2565b604082019050919050565b6000613a84601f83613e31565b9150613a8f82614741565b602082019050919050565b613aa381614031565b82525050565b613ab28161404b565b82525050565b6000613ac3826139c8565b9150819050919050565b6000602082019050613ae2600083018461371e565b92915050565b6000602082019050613afd600083018461372d565b92915050565b60006020820190508181036000830152613b1d818461373c565b905092915050565b60006020820190508181036000830152613b3e81613775565b9050919050565b60006020820190508181036000830152613b5e81613798565b9050919050565b60006020820190508181036000830152613b7e816137bb565b9050919050565b60006020820190508181036000830152613b9e816137de565b9050919050565b60006020820190508181036000830152613bbe81613801565b9050919050565b60006020820190508181036000830152613bde81613824565b9050919050565b60006020820190508181036000830152613bfe81613847565b9050919050565b60006020820190508181036000830152613c1e8161386a565b9050919050565b60006020820190508181036000830152613c3e8161388d565b9050919050565b60006020820190508181036000830152613c5e816138b0565b9050919050565b60006020820190508181036000830152613c7e816138d3565b9050919050565b60006020820190508181036000830152613c9e816138f6565b9050919050565b60006020820190508181036000830152613cbe81613919565b9050919050565b60006020820190508181036000830152613cde8161393c565b9050919050565b60006020820190508181036000830152613cfe8161395f565b9050919050565b60006020820190508181036000830152613d1e81613982565b9050919050565b60006020820190508181036000830152613d3e816139a5565b9050919050565b60006020820190508181036000830152613d5e816139eb565b9050919050565b60006020820190508181036000830152613d7e81613a0e565b9050919050565b60006020820190508181036000830152613d9e81613a31565b9050919050565b60006020820190508181036000830152613dbe81613a54565b9050919050565b60006020820190508181036000830152613dde81613a77565b9050919050565b6000602082019050613dfa6000830184613a9a565b92915050565b6000602082019050613e156000830184613aa9565b92915050565b600081519050919050565b600081905092915050565b600082825260208201905092915050565b6000613e4d82614031565b9150613e5883614031565b9250827fffffffffffffffffffffffffffffffffffffffffffffffffffffffffffffffff03821115613e8d57613e8c614147565b5b828201905092915050565b6000613ea38261404b565b9150613eae8361404b565b92508260ff03821115613ec457613ec3614147565b5b828201905092915050565b6000613eda82614031565b9150613ee583614031565b925082613ef557613ef4614176565b5b828204905092915050565b6000613f0b8261404b565b9150613f168361404b565b925082613f2657613f25614176565b5b828204905092915050565b6000613f3c82614031565b9150613f4783614031565b9250817fffffffffffffffffffffffffffffffffffffffffffffffffffffffffffffffff0483118215151615613f8057613f7f614147565b5b828202905092915050565b6000613f9682614031565b9150613fa183614031565b925082821015613fb457613fb3614147565b5b828203905092915050565b6000613fca8261404b565b9150613fd58361404b565b925082821015613fe857613fe7614147565b5b828203905092915050565b6000613ffe82614011565b9050919050565b60008115159050919050565b600073ffffffffffffffffffffffffffffffffffffffff82169050919050565b6000819050919050565b600063ffffffff82169050919050565b600060ff82169050919050565b60005b8381101561407657808201518184015260208101905061405b565b83811115614085576000848401525b50505050565b60006140968261404b565b915060008214156140aa576140a9614147565b5b600182039050919050565b600060028204905060018216806140cd57607f821691505b602082108114156140e1576140e06141a5565b5b50919050565b60006140f282614031565b91506140fd83614031565b92508261410d5761410c614176565b5b828206905092915050565b7f4e487b7100000000000000000000000000000000000000000000000000000000600052600160045260246000fd5b7f4e487b7100000000000000000000000000000000000000000000000000000000600052601160045260246000fd5b7f4e487b7100000000000000000000000000000000000000000000000000000000600052601260045260246000fd5b7f4e487b7100000000000000000000000000000000000000000000000000000000600052602260045260246000fd5b7f4e487b7100000000000000000000000000000000000000000000000000000000600052603260045260246000fd5b600080fd5b6000601f19601f8301169050919050565b7f45524332303a207472616e7366657220746f20746865207a65726f206164647260008201527f6573730000000000000000000000000000000000000000000000000000000000602082015250565b7f45524332303a206275726e20616d6f756e7420657863656564732062616c616e60008201527f6365000000000000000000000000000000000000000000000000000000000000602082015250565b7f45524332303a20546f6b656e2073656c6c20616d6f756e74206d75737420626560008201527f206269676765722e000000000000000000000000000000000000000000000000602082015250565b7f45524332303a204465706f736974206d757374206265206e6f6e2d7a65726f2e600082015250565b7f4f776e61626c653a206e6577206f776e657220697320746865207a65726f206160008201527f6464726573730000000000000000000000000000000000000000000000000000602082015250565b7f45524332303a20617070726f766520746f20746865207a65726f20616464726560008201527f7373000000000000000000000000000000000000000000000000000000000000602082015250565b7f45524332303a204e6f206665657320666f72207769746864726177616c2e0000600082015250565b7f45524332303a20696e73756666696369656e7420616c6c6f77616e6365000000600082015250565b7f45524332303a204d7573742073656e6420657468657220746f2062757920746f60008201527f6b656e732e000000000000000000000000000000000000000000000000000000602082015250565b7f45524332303a207472616e7366657220616d6f756e742065786365656473206260008201527f616c616e63650000000000000000000000000000000000000000000000000000602082015250565b7f45524332303a20416d6f756e74206d757374206265206e6f6e2d7a65726f2e00600082015250565b7f45524332303a20496e73756666696369656e7420746f6b656e7320746f20627560008201527f726e2e0000000000000000000000000000000000000000000000000000000000602082015250565b7f4f776e61626c653a2063616c6c6572206973206e6f7420746865206f776e6572600082015250565b7f4261736573203c203120617265206e6f7420737570706f727465642e00000000600082015250565b7f626173654e2065786365656473206d61782076616c75652e0000000000000000600082015250565b7f45524332303a206275726e2066726f6d20746865207a65726f2061646472657360008201527f7300000000000000000000000000000000000000000000000000000000000000602082015250565b7f45524332303a207472616e736665722066726f6d20746865207a65726f20616460008201527f6472657373000000000000000000000000000000000000000000000000000000602082015250565b50565b7f45524332303a20617070726f76652066726f6d20746865207a65726f2061646460008201527f7265737300000000000000000000000000000000000000000000000000000000602082015250565b7f45524332303a20466565207769746864726177616c206661696c65642e000000600082015250565b7f45524332303a20546f6b656e2073656c6c206661696c65642e00000000000000600082015250565b7f45524332303a2064656372656173656420616c6c6f77616e63652062656c6f7760008201527f207a65726f000000000000000000000000000000000000000000000000000000602082015250565b7f45524332303a206d696e7420746f20746865207a65726f206164647265737300600082015250565b61477381613ff3565b811461477e57600080fd5b50565b61478a81614031565b811461479557600080fd5b50565b6147a18161403b565b81146147ac57600080fd5b5056fea2646970667358221220f44d3824a3559d0e4b420584283123aeb9518abe978d3fd821e1e01050f8691a64736f6c63430008070033",
			"opcodes": "PUSH1 0x80 PUSH1 0x40 MSTORE PUSH1 0x40 MLOAD DUP1 PUSH1 0x40 ADD PUSH1 0x40 MSTORE DUP1 PUSH1 0x3 DUP2 MSTORE PUSH1 0x20 ADD PUSH32 0x302E330000000000000000000000000000000000000000000000000000000000 DUP2 MSTORE POP PUSH1 0x0 SWAP1 DUP1 MLOAD SWAP1 PUSH1 0x20 ADD SWAP1 PUSH3 0x51 SWAP3 SWAP2 SWAP1 PUSH3 0x1541 JUMP JUMPDEST POP PUSH8 0xDE0B6B3A7640000 PUSH1 0xA PUSH3 0x69 SWAP2 SWAP1 PUSH3 0x16D6 JUMP JUMPDEST PUSH1 0x87 SSTORE CALLVALUE DUP1 ISZERO PUSH3 0x79 JUMPI PUSH1 0x0 DUP1 REVERT JUMPDEST POP PUSH1 0x40 MLOAD DUP1 PUSH1 0x40 ADD PUSH1 0x40 MSTORE DUP1 PUSH1 0x13 DUP2 MSTORE PUSH1 0x20 ADD PUSH32 0x426F6E64696E6720437572766520546F6B656E00000000000000000000000000 DUP2 MSTORE POP PUSH1 0x40 MLOAD DUP1 PUSH1 0x40 ADD PUSH1 0x40 MSTORE DUP1 PUSH1 0x3 DUP2 MSTORE PUSH1 0x20 ADD PUSH32 0x4243540000000000000000000000000000000000000000000000000000000000 DUP2 MSTORE POP PUSH17 0x1C35FEDD14FFFFFFFFFFFFFFFFFFFFFFFF PUSH1 0x1 PUSH1 0x20 PUSH1 0x80 DUP2 LT PUSH3 0x110 JUMPI PUSH3 0x10F PUSH3 0x17D5 JUMP JUMPDEST JUMPDEST ADD DUP2 SWAP1 SSTORE POP PUSH17 0x1B0CE43B323FFFFFFFFFFFFFFFFFFFFFFF PUSH1 0x1 PUSH1 0x21 PUSH1 0x80 DUP2 LT PUSH3 0x13F JUMPI PUSH3 0x13E PUSH3 0x17D5 JUMP JUMPDEST JUMPDEST ADD DUP2 SWAP1 SSTORE POP PUSH17 0x19F0028EC1FFFFFFFFFFFFFFFFFFFFFFFF PUSH1 0x1 PUSH1 0x22 PUSH1 0x80 DUP2 LT PUSH3 0x16E JUMPI PUSH3 0x16D PUSH3 0x17D5 JUMP JUMPDEST JUMPDEST ADD DUP2 SWAP1 SSTORE POP PUSH17 0x18DED91F0E7FFFFFFFFFFFFFFFFFFFFFFF PUSH1 0x1 PUSH1 0x23 PUSH1 0x80 DUP2 LT PUSH3 0x19D JUMPI PUSH3 0x19C PUSH3 0x17D5 JUMP JUMPDEST JUMPDEST ADD DUP2 SWAP1 SSTORE POP PUSH17 0x17D8EC7F0417FFFFFFFFFFFFFFFFFFFFFF PUSH1 0x1 PUSH1 0x24 PUSH1 0x80 DUP2 LT PUSH3 0x1CC JUMPI PUSH3 0x1CB PUSH3 0x17D5 JUMP JUMPDEST JUMPDEST ADD DUP2 SWAP1 SSTORE POP PUSH17 0x16DDC6556CDBFFFFFFFFFFFFFFFFFFFFFF PUSH1 0x1 PUSH1 0x25 PUSH1 0x80 DUP2 LT PUSH3 0x1FB JUMPI PUSH3 0x1FA PUSH3 0x17D5 JUMP JUMPDEST JUMPDEST ADD DUP2 SWAP1 SSTORE POP PUSH17 0x15ECF52776A1FFFFFFFFFFFFFFFFFFFFFF PUSH1 0x1 PUSH1 0x26 PUSH1 0x80 DUP2 LT PUSH3 0x22A JUMPI PUSH3 0x229 PUSH3 0x17D5 JUMP JUMPDEST JUMPDEST ADD DUP2 SWAP1 SSTORE POP PUSH17 0x15060C256CB2FFFFFFFFFFFFFFFFFFFFFF PUSH1 0x1 PUSH1 0x27 PUSH1 0x80 DUP2 LT PUSH3 0x259 JUMPI PUSH3 0x258 PUSH3 0x17D5 JUMP JUMPDEST JUMPDEST ADD DUP2 SWAP1 SSTORE POP PUSH17 0x1428A2F98D72FFFFFFFFFFFFFFFFFFFFFF PUSH1 0x1 PUSH1 0x28 PUSH1 0x80 DUP2 LT PUSH3 0x288 JUMPI PUSH3 0x287 PUSH3 0x17D5 JUMP JUMPDEST JUMPDEST ADD DUP2 SWAP1 SSTORE POP PUSH17 0x13545598E5C23FFFFFFFFFFFFFFFFFFFFF PUSH1 0x1 PUSH1 0x29 PUSH1 0x80 DUP2 LT PUSH3 0x2B7 JUMPI PUSH3 0x2B6 PUSH3 0x17D5 JUMP JUMPDEST JUMPDEST ADD DUP2 SWAP1 SSTORE POP PUSH17 0x1288C4161CE1DFFFFFFFFFFFFFFFFFFFFF PUSH1 0x1 PUSH1 0x2A PUSH1 0x80 DUP2 LT PUSH3 0x2E6 JUMPI PUSH3 0x2E5 PUSH3 0x17D5 JUMP JUMPDEST JUMPDEST ADD DUP2 SWAP1 SSTORE POP PUSH17 0x11C592761C666FFFFFFFFFFFFFFFFFFFFF PUSH1 0x1 PUSH1 0x2B PUSH1 0x80 DUP2 LT PUSH3 0x315 JUMPI PUSH3 0x314 PUSH3 0x17D5 JUMP JUMPDEST JUMPDEST ADD DUP2 SWAP1 SSTORE POP PUSH17 0x110A688680A757FFFFFFFFFFFFFFFFFFFF PUSH1 0x1 PUSH1 0x2C PUSH1 0x80 DUP2 LT PUSH3 0x344 JUMPI PUSH3 0x343 PUSH3 0x17D5 JUMP JUMPDEST JUMPDEST ADD DUP2 SWAP1 SSTORE POP PUSH17 0x1056F1B5BEDF77FFFFFFFFFFFFFFFFFFFF PUSH1 0x1 PUSH1 0x2D PUSH1 0x80 DUP2 LT PUSH3 0x373 JUMPI PUSH3 0x372 PUSH3 0x17D5 JUMP JUMPDEST JUMPDEST ADD DUP2 SWAP1 SSTORE POP PUSH17 0xFAADCECEEFF8BFFFFFFFFFFFFFFFFFFFF PUSH1 0x1 PUSH1 0x2E PUSH1 0x80 DUP2 LT PUSH3 0x3A2 JUMPI PUSH3 0x3A1 PUSH3 0x17D5 JUMP JUMPDEST JUMPDEST ADD DUP2 SWAP1 SSTORE POP PUSH17 0xF05DC6B27EDADFFFFFFFFFFFFFFFFFFFF PUSH1 0x1 PUSH1 0x2F PUSH1 0x80 DUP2 LT PUSH3 0x3D1 JUMPI PUSH3 0x3D0 PUSH3 0x17D5 JUMP JUMPDEST JUMPDEST ADD DUP2 SWAP1 SSTORE POP PUSH17 0xE67A5A25DA4107FFFFFFFFFFFFFFFFFFF PUSH1 0x1 PUSH1 0x30 PUSH1 0x80 DUP2 LT PUSH3 0x400 JUMPI PUSH3 0x3FF PUSH3 0x17D5 JUMP JUMPDEST JUMPDEST ADD DUP2 SWAP1 SSTORE POP PUSH17 0xDCFF115B14EEDFFFFFFFFFFFFFFFFFFFF PUSH1 0x1 PUSH1 0x31 PUSH1 0x80 DUP2 LT PUSH3 0x42F JUMPI PUSH3 0x42E PUSH3 0x17D5 JUMP JUMPDEST JUMPDEST ADD DUP2 SWAP1 SSTORE POP PUSH17 0xD3E7A392431239FFFFFFFFFFFFFFFFFFF PUSH1 0x1 PUSH1 0x32 PUSH1 0x80 DUP2 LT PUSH3 0x45E JUMPI PUSH3 0x45D PUSH3 0x17D5 JUMP JUMPDEST JUMPDEST ADD DUP2 SWAP1 SSTORE POP PUSH17 0xCB2FF529EB71E4FFFFFFFFFFFFFFFFFFF PUSH1 0x1 PUSH1 0x33 PUSH1 0x80 DUP2 LT PUSH3 0x48D JUMPI PUSH3 0x48C PUSH3 0x17D5 JUMP JUMPDEST JUMPDEST ADD DUP2 SWAP1 SSTORE POP PUSH17 0xC2D415C3DB974AFFFFFFFFFFFFFFFFFFF PUSH1 0x1 PUSH1 0x34 PUSH1 0x80 DUP2 LT PUSH3 0x4BC JUMPI PUSH3 0x4BB PUSH3 0x17D5 JUMP JUMPDEST JUMPDEST ADD DUP2 SWAP1 SSTORE POP PUSH17 0xBAD03E7D883F69BFFFFFFFFFFFFFFFFFF PUSH1 0x1 PUSH1 0x35 PUSH1 0x80 DUP2 LT PUSH3 0x4EB JUMPI PUSH3 0x4EA PUSH3 0x17D5 JUMP JUMPDEST JUMPDEST ADD DUP2 SWAP1 SSTORE POP PUSH17 0xB320D03B2C343D5FFFFFFFFFFFFFFFFFF PUSH1 0x1 PUSH1 0x36 PUSH1 0x80 DUP2 LT PUSH3 0x51A JUMPI PUSH3 0x519 PUSH3 0x17D5 JUMP JUMPDEST JUMPDEST ADD DUP2 SWAP1 SSTORE POP PUSH17 0xABC25204E02828DFFFFFFFFFFFFFFFFFF PUSH1 0x1 PUSH1 0x37 PUSH1 0x80 DUP2 LT PUSH3 0x549 JUMPI PUSH3 0x548 PUSH3 0x17D5 JUMP JUMPDEST JUMPDEST ADD DUP2 SWAP1 SSTORE POP PUSH17 0xA4B16F74EE4BB207FFFFFFFFFFFFFFFFF PUSH1 0x1 PUSH1 0x38 PUSH1 0x80 DUP2 LT PUSH3 0x578 JUMPI PUSH3 0x577 PUSH3 0x17D5 JUMP JUMPDEST JUMPDEST ADD DUP2 SWAP1 SSTORE POP PUSH17 0x9DEAF736AC1F569FFFFFFFFFFFFFFFFFF PUSH1 0x1 PUSH1 0x39 PUSH1 0x80 DUP2 LT PUSH3 0x5A7 JUMPI PUSH3 0x5A6 PUSH3 0x17D5 JUMP JUMPDEST JUMPDEST ADD DUP2 SWAP1 SSTORE POP PUSH17 0x976BD9952C7AA957FFFFFFFFFFFFFFFFF PUSH1 0x1 PUSH1 0x3A PUSH1 0x80 DUP2 LT PUSH3 0x5D6 JUMPI PUSH3 0x5D5 PUSH3 0x17D5 JUMP JUMPDEST JUMPDEST ADD DUP2 SWAP1 SSTORE POP PUSH17 0x9131271922EAA606FFFFFFFFFFFFFFFFF PUSH1 0x1 PUSH1 0x3B PUSH1 0x80 DUP2 LT PUSH3 0x605 JUMPI PUSH3 0x604 PUSH3 0x17D5 JUMP JUMPDEST JUMPDEST ADD DUP2 SWAP1 SSTORE POP PUSH17 0x8B380F3558668C46FFFFFFFFFFFFFFFFF PUSH1 0x1 PUSH1 0x3C PUSH1 0x80 DUP2 LT PUSH3 0x634 JUMPI PUSH3 0x633 PUSH3 0x17D5 JUMP JUMPDEST JUMPDEST ADD DUP2 SWAP1 SSTORE POP PUSH17 0x857DDF0117EFA215BFFFFFFFFFFFFFFFF PUSH1 0x1 PUSH1 0x3D PUSH1 0x80 DUP2 LT PUSH3 0x663 JUMPI PUSH3 0x662 PUSH3 0x17D5 JUMP JUMPDEST JUMPDEST ADD DUP2 SWAP1 SSTORE POP PUSH17 0x7FFFFFFFFFFFFFFFFFFFFFFFFFFFFFFFF PUSH1 0x1 PUSH1 0x3E PUSH1 0x80 DUP2 LT PUSH3 0x692 JUMPI PUSH3 0x691 PUSH3 0x17D5 JUMP JUMPDEST JUMPDEST ADD DUP2 SWAP1 SSTORE POP PUSH17 0x7ABBF6F6ABB9D087FFFFFFFFFFFFFFFFF PUSH1 0x1 PUSH1 0x3F PUSH1 0x80 DUP2 LT PUSH3 0x6C1 JUMPI PUSH3 0x6C0 PUSH3 0x17D5 JUMP JUMPDEST JUMPDEST ADD DUP2 SWAP1 SSTORE POP PUSH17 0x75AF62CBAC95F7DFA7FFFFFFFFFFFFFFF PUSH1 0x1 PUSH1 0x40 PUSH1 0x80 DUP2 LT PUSH3 0x6F0 JUMPI PUSH3 0x6EF PUSH3 0x17D5 JUMP JUMPDEST JUMPDEST ADD DUP2 SWAP1 SSTORE POP PUSH17 0x70D7FB7452E187AC13FFFFFFFFFFFFFFF PUSH1 0x1 PUSH1 0x41 PUSH1 0x80 DUP2 LT PUSH3 0x71F JUMPI PUSH3 0x71E PUSH3 0x17D5 JUMP JUMPDEST JUMPDEST ADD DUP2 SWAP1 SSTORE POP PUSH17 0x6C3390ECC8AF379295FFFFFFFFFFFFFFF PUSH1 0x1 PUSH1 0x42 PUSH1 0x80 DUP2 LT PUSH3 0x74E JUMPI PUSH3 0x74D PUSH3 0x17D5 JUMP JUMPDEST JUMPDEST ADD DUP2 SWAP1 SSTORE POP PUSH17 0x67C00A3B07FFC01FD6FFFFFFFFFFFFFFF PUSH1 0x1 PUSH1 0x43 PUSH1 0x80 DUP2 LT PUSH3 0x77D JUMPI PUSH3 0x77C PUSH3 0x17D5 JUMP JUMPDEST JUMPDEST ADD DUP2 SWAP1 SSTORE POP PUSH17 0x637B647C39CBB9D3D27FFFFFFFFFFFFFF PUSH1 0x1 PUSH1 0x44 PUSH1 0x80 DUP2 LT PUSH3 0x7AC JUMPI PUSH3 0x7AB PUSH3 0x17D5 JUMP JUMPDEST JUMPDEST ADD DUP2 SWAP1 SSTORE POP PUSH17 0x5F63B1FC104DBD39587FFFFFFFFFFFFFF PUSH1 0x1 PUSH1 0x45 PUSH1 0x80 DUP2 LT PUSH3 0x7DB JUMPI PUSH3 0x7DA PUSH3 0x17D5 JUMP JUMPDEST JUMPDEST ADD DUP2 SWAP1 SSTORE POP PUSH17 0x5B771955B36E12F7235FFFFFFFFFFFFFF PUSH1 0x1 PUSH1 0x46 PUSH1 0x80 DUP2 LT PUSH3 0x80A JUMPI PUSH3 0x809 PUSH3 0x17D5 JUMP JUMPDEST JUMPDEST ADD DUP2 SWAP1 SSTORE POP PUSH17 0x57B3D49DDA84556D6F6FFFFFFFFFFFFFF PUSH1 0x1 PUSH1 0x47 PUSH1 0x80 DUP2 LT PUSH3 0x839 JUMPI PUSH3 0x838 PUSH3 0x17D5 JUMP JUMPDEST JUMPDEST ADD DUP2 SWAP1 SSTORE POP PUSH17 0x54183095B2C8ECECF30FFFFFFFFFFFFFF PUSH1 0x1 PUSH1 0x48 PUSH1 0x80 DUP2 LT PUSH3 0x868 JUMPI PUSH3 0x867 PUSH3 0x17D5 JUMP JUMPDEST JUMPDEST ADD DUP2 SWAP1 SSTORE POP PUSH17 0x50A28BE635CA2B888F77FFFFFFFFFFFFF PUSH1 0x1 PUSH1 0x49 PUSH1 0x80 DUP2 LT PUSH3 0x897 JUMPI PUSH3 0x896 PUSH3 0x17D5 JUMP JUMPDEST JUMPDEST ADD DUP2 SWAP1 SSTORE POP PUSH17 0x4D5156639708C9DB33C3FFFFFFFFFFFFF PUSH1 0x1 PUSH1 0x4A PUSH1 0x80 DUP2 LT PUSH3 0x8C6 JUMPI PUSH3 0x8C5 PUSH3 0x17D5 JUMP JUMPDEST JUMPDEST ADD DUP2 SWAP1 SSTORE POP PUSH17 0x4A23105873875BD52DFDFFFFFFFFFFFFF PUSH1 0x1 PUSH1 0x4B PUSH1 0x80 DUP2 LT PUSH3 0x8F5 JUMPI PUSH3 0x8F4 PUSH3 0x17D5 JUMP JUMPDEST JUMPDEST ADD DUP2 SWAP1 SSTORE POP PUSH17 0x471649D87199AA990756FFFFFFFFFFFFF PUSH1 0x1 PUSH1 0x4C PUSH1 0x80 DUP2 LT PUSH3 0x924 JUMPI PUSH3 0x923 PUSH3 0x17D5 JUMP JUMPDEST JUMPDEST ADD DUP2 SWAP1 SSTORE POP PUSH17 0x4429A21A029D4C1457CFBFFFFFFFFFFFF PUSH1 0x1 PUSH1 0x4D PUSH1 0x80 DUP2 LT PUSH3 0x953 JUMPI PUSH3 0x952 PUSH3 0x17D5 JUMP JUMPDEST JUMPDEST ADD DUP2 SWAP1 SSTORE POP PUSH17 0x415BC6D6FB7DD71AF2CB3FFFFFFFFFFFF PUSH1 0x1 PUSH1 0x4E PUSH1 0x80 DUP2 LT PUSH3 0x982 JUMPI PUSH3 0x981 PUSH3 0x17D5 JUMP JUMPDEST JUMPDEST ADD DUP2 SWAP1 SSTORE POP PUSH17 0x3EAB73B3BBFE282243CE1FFFFFFFFFFFF PUSH1 0x1 PUSH1 0x4F PUSH1 0x80 DUP2 LT PUSH3 0x9B1 JUMPI PUSH3 0x9B0 PUSH3 0x17D5 JUMP JUMPDEST JUMPDEST ADD DUP2 SWAP1 SSTORE POP PUSH17 0x3C1771AC9FB6B4C18E229FFFFFFFFFFFF PUSH1 0x1 PUSH1 0x50 PUSH1 0x80 DUP2 LT PUSH3 0x9E0 JUMPI PUSH3 0x9DF PUSH3 0x17D5 JUMP JUMPDEST JUMPDEST ADD DUP2 SWAP1 SSTORE POP PUSH17 0x399E96897690418F785257FFFFFFFFFFF PUSH1 0x1 PUSH1 0x51 PUSH1 0x80 DUP2 LT PUSH3 0xA0F JUMPI PUSH3 0xA0E PUSH3 0x17D5 JUMP JUMPDEST JUMPDEST ADD DUP2 SWAP1 SSTORE POP PUSH17 0x373FC456C53BB779BF0EA9FFFFFFFFFFF PUSH1 0x1 PUSH1 0x52 PUSH1 0x80 DUP2 LT PUSH3 0xA3E JUMPI PUSH3 0xA3D PUSH3 0x17D5 JUMP JUMPDEST JUMPDEST ADD DUP2 SWAP1 SSTORE POP PUSH17 0x34F9E8E490C48E67E6AB8BFFFFFFFFFFF PUSH1 0x1 PUSH1 0x53 PUSH1 0x80 DUP2 LT PUSH3 0xA6D JUMPI PUSH3 0xA6C PUSH3 0x17D5 JUMP JUMPDEST JUMPDEST ADD DUP2 SWAP1 SSTORE POP PUSH17 0x32CBFD4A7ADC790560B3337FFFFFFFFFF PUSH1 0x1 PUSH1 0x54 PUSH1 0x80 DUP2 LT PUSH3 0xA9C JUMPI PUSH3 0xA9B PUSH3 0x17D5 JUMP JUMPDEST JUMPDEST ADD DUP2 SWAP1 SSTORE POP PUSH17 0x30B50570F6E5D2ACCA94613FFFFFFFFFF PUSH1 0x1 PUSH1 0x55 PUSH1 0x80 DUP2 LT PUSH3 0xACB JUMPI PUSH3 0xACA PUSH3 0x17D5 JUMP JUMPDEST JUMPDEST ADD DUP2 SWAP1 SSTORE POP PUSH17 0x2EB40F9F620FDA6B56C2861FFFFFFFFFF PUSH1 0x1 PUSH1 0x56 PUSH1 0x80 DUP2 LT PUSH3 0xAFA JUMPI PUSH3 0xAF9 PUSH3 0x17D5 JUMP JUMPDEST JUMPDEST ADD DUP2 SWAP1 SSTORE POP PUSH17 0x2CC8340ECB0D0F520A6AF58FFFFFFFFFF PUSH1 0x1 PUSH1 0x57 PUSH1 0x80 DUP2 LT PUSH3 0xB29 JUMPI PUSH3 0xB28 PUSH3 0x17D5 JUMP JUMPDEST JUMPDEST ADD DUP2 SWAP1 SSTORE POP PUSH17 0x2AF09481380A0A35CF1BA02FFFFFFFFFF PUSH1 0x1 PUSH1 0x58 PUSH1 0x80 DUP2 LT PUSH3 0xB58 JUMPI PUSH3 0xB57 PUSH3 0x17D5 JUMP JUMPDEST JUMPDEST ADD DUP2 SWAP1 SSTORE POP PUSH17 0x292C5BDD3B92EC810287B1B3FFFFFFFFF PUSH1 0x1 PUSH1 0x59 PUSH1 0x80 DUP2 LT PUSH3 0xB87 JUMPI PUSH3 0xB86 PUSH3 0x17D5 JUMP JUMPDEST JUMPDEST ADD DUP2 SWAP1 SSTORE POP PUSH17 0x277ABDCDAB07D5A77AC6D6B9FFFFFFFFF PUSH1 0x1 PUSH1 0x5A PUSH1 0x80 DUP2 LT PUSH3 0xBB6 JUMPI PUSH3 0xBB5 PUSH3 0x17D5 JUMP JUMPDEST JUMPDEST ADD DUP2 SWAP1 SSTORE POP PUSH17 0x25DAF6654B1EAA55FD64DF5EFFFFFFFFF PUSH1 0x1 PUSH1 0x5B PUSH1 0x80 DUP2 LT PUSH3 0xBE5 JUMPI PUSH3 0xBE4 PUSH3 0x17D5 JUMP JUMPDEST JUMPDEST ADD DUP2 SWAP1 SSTORE POP PUSH17 0x244C49C648BAA98192DCE88B7FFFFFFFF PUSH1 0x1 PUSH1 0x5C PUSH1 0x80 DUP2 LT PUSH3 0xC14 JUMPI PUSH3 0xC13 PUSH3 0x17D5 JUMP JUMPDEST JUMPDEST ADD DUP2 SWAP1 SSTORE POP PUSH17 0x22CE03CD5619A311B2471268BFFFFFFFF PUSH1 0x1 PUSH1 0x5D PUSH1 0x80 DUP2 LT PUSH3 0xC43 JUMPI PUSH3 0xC42 PUSH3 0x17D5 JUMP JUMPDEST JUMPDEST ADD DUP2 SWAP1 SSTORE POP PUSH17 0x215F77C045FBE885654A44A0FFFFFFFFF PUSH1 0x1 PUSH1 0x5E PUSH1 0x80 DUP2 LT PUSH3 0xC72 JUMPI PUSH3 0xC71 PUSH3 0x17D5 JUMP JUMPDEST JUMPDEST ADD DUP2 SWAP1 SSTORE POP PUSH17 0x1FFFFFFFFFFFFFFFFFFFFFFFFFFFFFFFF PUSH1 0x1 PUSH1 0x5F PUSH1 0x80 DUP2 LT PUSH3 0xCA1 JUMPI PUSH3 0xCA0 PUSH3 0x17D5 JUMP JUMPDEST JUMPDEST ADD DUP2 SWAP1 SSTORE POP PUSH17 0x1EAEFDBDAAEE7421FC4D3EDE5FFFFFFFF PUSH1 0x1 PUSH1 0x60 PUSH1 0x80 DUP2 LT PUSH3 0xCD0 JUMPI PUSH3 0xCCF PUSH3 0x17D5 JUMP JUMPDEST JUMPDEST ADD DUP2 SWAP1 SSTORE POP PUSH17 0x1D6BD8B2EB257DF7E8CA57B09BFFFFFFF PUSH1 0x1 PUSH1 0x61 PUSH1 0x80 DUP2 LT PUSH3 0xCFF JUMPI PUSH3 0xCFE PUSH3 0x17D5 JUMP JUMPDEST JUMPDEST ADD DUP2 SWAP1 SSTORE POP PUSH17 0x1C35FEDD14B861EB0443F7F133FFFFFFF PUSH1 0x1 PUSH1 0x62 PUSH1 0x80 DUP2 LT PUSH3 0xD2E JUMPI PUSH3 0xD2D PUSH3 0x17D5 JUMP JUMPDEST JUMPDEST ADD DUP2 SWAP1 SSTORE POP PUSH17 0x1B0CE43B322BCDE4A56E8ADA5AFFFFFFF PUSH1 0x1 PUSH1 0x63 PUSH1 0x80 DUP2 LT PUSH3 0xD5D JUMPI PUSH3 0xD5C PUSH3 0x17D5 JUMP JUMPDEST JUMPDEST ADD DUP2 SWAP1 SSTORE POP PUSH17 0x19F0028EC1FFF007F5A195A39DFFFFFFF PUSH1 0x1 PUSH1 0x64 PUSH1 0x80 DUP2 LT PUSH3 0xD8C JUMPI PUSH3 0xD8B PUSH3 0x17D5 JUMP JUMPDEST JUMPDEST ADD DUP2 SWAP1 SSTORE POP PUSH17 0x18DED91F0E72EE74F49B15BA527FFFFFF PUSH1 0x1 PUSH1 0x65 PUSH1 0x80 DUP2 LT PUSH3 0xDBB JUMPI PUSH3 0xDBA PUSH3 0x17D5 JUMP JUMPDEST JUMPDEST ADD DUP2 SWAP1 SSTORE POP PUSH17 0x17D8EC7F04136F4E5615FD41A63FFFFFF PUSH1 0x1 PUSH1 0x66 PUSH1 0x80 DUP2 LT PUSH3 0xDEA JUMPI PUSH3 0xDE9 PUSH3 0x17D5 JUMP JUMPDEST JUMPDEST ADD DUP2 SWAP1 SSTORE POP PUSH17 0x16DDC6556CDB84BDC8D12D22E6FFFFFFF PUSH1 0x1 PUSH1 0x67 PUSH1 0x80 DUP2 LT PUSH3 0xE19 JUMPI PUSH3 0xE18 PUSH3 0x17D5 JUMP JUMPDEST JUMPDEST ADD DUP2 SWAP1 SSTORE POP PUSH17 0x15ECF52776A1155B5BD8395814F7FFFFF PUSH1 0x1 PUSH1 0x68 PUSH1 0x80 DUP2 LT PUSH3 0xE48 JUMPI PUSH3 0xE47 PUSH3 0x17D5 JUMP JUMPDEST JUMPDEST ADD DUP2 SWAP1 SSTORE POP PUSH17 0x15060C256CB23B3B3CC3754CF40FFFFFF PUSH1 0x1 PUSH1 0x69 PUSH1 0x80 DUP2 LT PUSH3 0xE77 JUMPI PUSH3 0xE76 PUSH3 0x17D5 JUMP JUMPDEST JUMPDEST ADD DUP2 SWAP1 SSTORE POP PUSH17 0x1428A2F98D728AE223DDAB715BE3FFFFF PUSH1 0x1 PUSH1 0x6A PUSH1 0x80 DUP2 LT PUSH3 0xEA6 JUMPI PUSH3 0xEA5 PUSH3 0x17D5 JUMP JUMPDEST JUMPDEST ADD DUP2 SWAP1 SSTORE POP PUSH17 0x13545598E5C23276CCF0EDE68034FFFFF PUSH1 0x1 PUSH1 0x6B PUSH1 0x80 DUP2 LT PUSH3 0xED5 JUMPI PUSH3 0xED4 PUSH3 0x17D5 JUMP JUMPDEST JUMPDEST ADD DUP2 SWAP1 SSTORE POP PUSH17 0x1288C4161CE1D6F54B7F61081194FFFFF PUSH1 0x1 PUSH1 0x6C PUSH1 0x80 DUP2 LT PUSH3 0xF04 JUMPI PUSH3 0xF03 PUSH3 0x17D5 JUMP JUMPDEST JUMPDEST ADD DUP2 SWAP1 SSTORE POP PUSH17 0x11C592761C666AA641D5A01A40F17FFFF PUSH1 0x1 PUSH1 0x6D PUSH1 0x80 DUP2 LT PUSH3 0xF33 JUMPI PUSH3 0xF32 PUSH3 0x17D5 JUMP JUMPDEST JUMPDEST ADD DUP2 SWAP1 SSTORE POP PUSH17 0x110A688680A7530515F3E6E6CFDCDFFFF PUSH1 0x1 PUSH1 0x6E PUSH1 0x80 DUP2 LT PUSH3 0xF62 JUMPI PUSH3 0xF61 PUSH3 0x17D5 JUMP JUMPDEST JUMPDEST ADD DUP2 SWAP1 SSTORE POP PUSH17 0x1056F1B5BEDF75C6BCB2CE8AED428FFFF PUSH1 0x1 PUSH1 0x6F PUSH1 0x80 DUP2 LT PUSH3 0xF91 JUMPI PUSH3 0xF90 PUSH3 0x17D5 JUMP JUMPDEST JUMPDEST ADD DUP2 SWAP1 SSTORE POP PUSH16 0xFAADCECEEFF8A0890F3875F008277FFF PUSH1 0x1 PUSH1 0x70 PUSH1 0x80 DUP2 LT PUSH3 0xFBF JUMPI PUSH3 0xFBE PUSH3 0x17D5 JUMP JUMPDEST JUMPDEST ADD DUP2 SWAP1 SSTORE POP PUSH16 0xF05DC6B27EDAD306388A600F6BA0BFFF PUSH1 0x1 PUSH1 0x71 PUSH1 0x80 DUP2 LT PUSH3 0xFED JUMPI PUSH3 0xFEC PUSH3 0x17D5 JUMP JUMPDEST JUMPDEST ADD DUP2 SWAP1 SSTORE POP PUSH16 0xE67A5A25DA41063DE1495D5B18CDBFFF PUSH1 0x1 PUSH1 0x72 PUSH1 0x80 DUP2 LT PUSH3 0x101B JUMPI PUSH3 0x101A PUSH3 0x17D5 JUMP JUMPDEST JUMPDEST ADD DUP2 SWAP1 SSTORE POP PUSH16 0xDCFF115B14EEDDE6FC3AA5353F2E4FFF PUSH1 0x1 PUSH1 0x73 PUSH1 0x80 DUP2 LT PUSH3 0x1049 JUMPI PUSH3 0x1048 PUSH3 0x17D5 JUMP JUMPDEST JUMPDEST ADD DUP2 SWAP1 SSTORE POP PUSH16 0xD3E7A3924312399F9AAE2E0F868F8FFF PUSH1 0x1 PUSH1 0x74 PUSH1 0x80 DUP2 LT PUSH3 0x1077 JUMPI PUSH3 0x1076 PUSH3 0x17D5 JUMP JUMPDEST JUMPDEST ADD DUP2 SWAP1 SSTORE POP PUSH16 0xCB2FF529EB71E41582CCCD5A1EE26FFF PUSH1 0x1 PUSH1 0x75 PUSH1 0x80 DUP2 LT PUSH3 0x10A5 JUMPI PUSH3 0x10A4 PUSH3 0x17D5 JUMP JUMPDEST JUMPDEST ADD DUP2 SWAP1 SSTORE POP PUSH16 0xC2D415C3DB974AB32A51840C0B67EDFF PUSH1 0x1 PUSH1 0x76 PUSH1 0x80 DUP2 LT PUSH3 0x10D3 JUMPI PUSH3 0x10D2 PUSH3 0x17D5 JUMP JUMPDEST JUMPDEST ADD DUP2 SWAP1 SSTORE POP PUSH16 0xBAD03E7D883F69AD5B0A186184E06BFF PUSH1 0x1 PUSH1 0x77 PUSH1 0x80 DUP2 LT PUSH3 0x1101 JUMPI PUSH3 0x1100 PUSH3 0x17D5 JUMP JUMPDEST JUMPDEST ADD DUP2 SWAP1 SSTORE POP PUSH16 0xB320D03B2C343D4829ABD6075F0CC5FF PUSH1 0x1 PUSH1 0x78 PUSH1 0x80 DUP2 LT PUSH3 0x112F JUMPI PUSH3 0x112E PUSH3 0x17D5 JUMP JUMPDEST JUMPDEST ADD DUP2 SWAP1 SSTORE POP PUSH16 0xABC25204E02828D73C6E80BCDB1A95BF PUSH1 0x1 PUSH1 0x79 PUSH1 0x80 DUP2 LT PUSH3 0x115D JUMPI PUSH3 0x115C PUSH3 0x17D5 JUMP JUMPDEST JUMPDEST ADD DUP2 SWAP1 SSTORE POP PUSH16 0xA4B16F74EE4BB2040A1EC6C15FBBF2DF PUSH1 0x1 PUSH1 0x7A PUSH1 0x80 DUP2 LT PUSH3 0x118B JUMPI PUSH3 0x118A PUSH3 0x17D5 JUMP JUMPDEST JUMPDEST ADD DUP2 SWAP1 SSTORE POP PUSH16 0x9DEAF736AC1F569DEB1B5AE3F36C130F PUSH1 0x1 PUSH1 0x7B PUSH1 0x80 DUP2 LT PUSH3 0x11B9 JUMPI PUSH3 0x11B8 PUSH3 0x17D5 JUMP JUMPDEST JUMPDEST ADD DUP2 SWAP1 SSTORE POP PUSH16 0x976BD9952C7AA957F5937D790EF65037 PUSH1 0x1 PUSH1 0x7C PUSH1 0x80 DUP2 LT PUSH3 0x11E7 JUMPI PUSH3 0x11E6 PUSH3 0x17D5 JUMP JUMPDEST JUMPDEST ADD DUP2 SWAP1 SSTORE POP PUSH16 0x9131271922EAA6064B73A22D0BD4F2BF PUSH1 0x1 PUSH1 0x7D PUSH1 0x80 DUP2 LT PUSH3 0x1215 JUMPI PUSH3 0x1214 PUSH3 0x17D5 JUMP JUMPDEST JUMPDEST ADD DUP2 SWAP1 SSTORE POP PUSH16 0x8B380F3558668C46C91C49A2F8E967B9 PUSH1 0x1 PUSH1 0x7E PUSH1 0x80 DUP2 LT PUSH3 0x1243 JUMPI PUSH3 0x1242 PUSH3 0x17D5 JUMP JUMPDEST JUMPDEST ADD DUP2 SWAP1 SSTORE POP PUSH16 0x857DDF0117EFA215952912839F6473E6 PUSH1 0x1 PUSH1 0x7F PUSH1 0x80 DUP2 LT PUSH3 0x1271 JUMPI PUSH3 0x1270 PUSH3 0x17D5 JUMP JUMPDEST JUMPDEST ADD DUP2 SWAP1 SSTORE POP DUP2 PUSH1 0x84 SWAP1 DUP1 MLOAD SWAP1 PUSH1 0x20 ADD SWAP1 PUSH3 0x128E SWAP3 SWAP2 SWAP1 PUSH3 0x1541 JUMP JUMPDEST POP DUP1 PUSH1 0x85 SWAP1 DUP1 MLOAD SWAP1 PUSH1 0x20 ADD SWAP1 PUSH3 0x12A7 SWAP3 SWAP2 SWAP1 PUSH3 0x1541 JUMP JUMPDEST POP POP POP PUSH3 0x12CA PUSH3 0x12BE PUSH3 0x12FA PUSH1 0x20 SHL PUSH1 0x20 SHR JUMP JUMPDEST PUSH3 0x1302 PUSH1 0x20 SHL PUSH1 0x20 SHR JUMP JUMPDEST PUSH3 0x12F4 CALLER PUSH8 0xDE0B6B3A7640000 PUSH3 0x186A0 PUSH3 0x12E8 SWAP2 SWAP1 PUSH3 0x16D6 JUMP JUMPDEST PUSH3 0x13C8 PUSH1 0x20 SHL PUSH1 0x20 SHR JUMP JUMPDEST PUSH3 0x182D JUMP JUMPDEST PUSH1 0x0 CALLER SWAP1 POP SWAP1 JUMP JUMPDEST PUSH1 0x0 PUSH1 0x86 PUSH1 0x0 SWAP1 SLOAD SWAP1 PUSH2 0x100 EXP SWAP1 DIV PUSH20 0xFFFFFFFFFFFFFFFFFFFFFFFFFFFFFFFFFFFFFFFF AND SWAP1 POP DUP2 PUSH1 0x86 PUSH1 0x0 PUSH2 0x100 EXP DUP2 SLOAD DUP2 PUSH20 0xFFFFFFFFFFFFFFFFFFFFFFFFFFFFFFFFFFFFFFFF MUL NOT AND SWAP1 DUP4 PUSH20 0xFFFFFFFFFFFFFFFFFFFFFFFFFFFFFFFFFFFFFFFF AND MUL OR SWAP1 SSTORE POP DUP2 PUSH20 0xFFFFFFFFFFFFFFFFFFFFFFFFFFFFFFFFFFFFFFFF AND DUP2 PUSH20 0xFFFFFFFFFFFFFFFFFFFFFFFFFFFFFFFFFFFFFFFF AND PUSH32 0x8BE0079C531659141344CD1FD0A4F28419497F9722A3DAAFE3B4186F6B6457E0 PUSH1 0x40 MLOAD PUSH1 0x40 MLOAD DUP1 SWAP2 SUB SWAP1 LOG3 POP POP JUMP JUMPDEST PUSH1 0x0 PUSH20 0xFFFFFFFFFFFFFFFFFFFFFFFFFFFFFFFFFFFFFFFF AND DUP3 PUSH20 0xFFFFFFFFFFFFFFFFFFFFFFFFFFFFFFFFFFFFFFFF AND EQ ISZERO PUSH3 0x143B JUMPI PUSH1 0x40 MLOAD PUSH32 0x8C379A000000000000000000000000000000000000000000000000000000000 DUP2 MSTORE PUSH1 0x4 ADD PUSH3 0x1432 SWAP1 PUSH3 0x1629 JUMP JUMPDEST PUSH1 0x40 MLOAD DUP1 SWAP2 SUB SWAP1 REVERT JUMPDEST PUSH3 0x144F PUSH1 0x0 DUP4 DUP4 PUSH3 0x1537 PUSH1 0x20 SHL PUSH1 0x20 SHR JUMP JUMPDEST DUP1 PUSH1 0x83 PUSH1 0x0 DUP3 DUP3 SLOAD PUSH3 0x1463 SWAP2 SWAP1 PUSH3 0x1679 JUMP JUMPDEST SWAP3 POP POP DUP2 SWAP1 SSTORE POP DUP1 PUSH1 0x81 PUSH1 0x0 DUP5 PUSH20 0xFFFFFFFFFFFFFFFFFFFFFFFFFFFFFFFFFFFFFFFF AND PUSH20 0xFFFFFFFFFFFFFFFFFFFFFFFFFFFFFFFFFFFFFFFF AND DUP2 MSTORE PUSH1 0x20 ADD SWAP1 DUP2 MSTORE PUSH1 0x20 ADD PUSH1 0x0 KECCAK256 PUSH1 0x0 DUP3 DUP3 SLOAD ADD SWAP3 POP POP DUP2 SWAP1 SSTORE POP DUP2 PUSH20 0xFFFFFFFFFFFFFFFFFFFFFFFFFFFFFFFFFFFFFFFF AND PUSH1 0x0 PUSH20 0xFFFFFFFFFFFFFFFFFFFFFFFFFFFFFFFFFFFFFFFF AND PUSH32 0xDDF252AD1BE2C89B69C2B068FC378DAA952BA7F163C4A11628F55A4DF523B3EF DUP4 PUSH1 0x40 MLOAD PUSH3 0x1517 SWAP2 SWAP1 PUSH3 0x164B JUMP JUMPDEST PUSH1 0x40 MLOAD DUP1 SWAP2 SUB SWAP1 LOG3 PUSH3 0x1533 PUSH1 0x0 DUP4 DUP4 PUSH3 0x153C PUSH1 0x20 SHL PUSH1 0x20 SHR JUMP JUMPDEST POP POP JUMP JUMPDEST POP POP POP JUMP JUMPDEST POP POP POP JUMP JUMPDEST DUP3 DUP1 SLOAD PUSH3 0x154F SWAP1 PUSH3 0x1741 JUMP JUMPDEST SWAP1 PUSH1 0x0 MSTORE PUSH1 0x20 PUSH1 0x0 KECCAK256 SWAP1 PUSH1 0x1F ADD PUSH1 0x20 SWAP1 DIV DUP2 ADD SWAP3 DUP3 PUSH3 0x1573 JUMPI PUSH1 0x0 DUP6 SSTORE PUSH3 0x15BF JUMP JUMPDEST DUP3 PUSH1 0x1F LT PUSH3 0x158E JUMPI DUP1 MLOAD PUSH1 0xFF NOT AND DUP4 DUP1 ADD OR DUP6 SSTORE PUSH3 0x15BF JUMP JUMPDEST DUP3 DUP1 ADD PUSH1 0x1 ADD DUP6 SSTORE DUP3 ISZERO PUSH3 0x15BF JUMPI SWAP2 DUP3 ADD JUMPDEST DUP3 DUP2 GT ISZERO PUSH3 0x15BE JUMPI DUP3 MLOAD DUP3 SSTORE SWAP2 PUSH1 0x20 ADD SWAP2 SWAP1 PUSH1 0x1 ADD SWAP1 PUSH3 0x15A1 JUMP JUMPDEST JUMPDEST POP SWAP1 POP PUSH3 0x15CE SWAP2 SWAP1 PUSH3 0x15D2 JUMP JUMPDEST POP SWAP1 JUMP JUMPDEST JUMPDEST DUP1 DUP3 GT ISZERO PUSH3 0x15ED JUMPI PUSH1 0x0 DUP2 PUSH1 0x0 SWAP1 SSTORE POP PUSH1 0x1 ADD PUSH3 0x15D3 JUMP JUMPDEST POP SWAP1 JUMP JUMPDEST PUSH1 0x0 PUSH3 0x1600 PUSH1 0x1F DUP4 PUSH3 0x1668 JUMP JUMPDEST SWAP2 POP PUSH3 0x160D DUP3 PUSH3 0x1804 JUMP JUMPDEST PUSH1 0x20 DUP3 ADD SWAP1 POP SWAP2 SWAP1 POP JUMP JUMPDEST PUSH3 0x1623 DUP2 PUSH3 0x1737 JUMP JUMPDEST DUP3 MSTORE POP POP JUMP JUMPDEST PUSH1 0x0 PUSH1 0x20 DUP3 ADD SWAP1 POP DUP2 DUP2 SUB PUSH1 0x0 DUP4 ADD MSTORE PUSH3 0x1644 DUP2 PUSH3 0x15F1 JUMP JUMPDEST SWAP1 POP SWAP2 SWAP1 POP JUMP JUMPDEST PUSH1 0x0 PUSH1 0x20 DUP3 ADD SWAP1 POP PUSH3 0x1662 PUSH1 0x0 DUP4 ADD DUP5 PUSH3 0x1618 JUMP JUMPDEST SWAP3 SWAP2 POP POP JUMP JUMPDEST PUSH1 0x0 DUP3 DUP3 MSTORE PUSH1 0x20 DUP3 ADD SWAP1 POP SWAP3 SWAP2 POP POP JUMP JUMPDEST PUSH1 0x0 PUSH3 0x1686 DUP3 PUSH3 0x1737 JUMP JUMPDEST SWAP2 POP PUSH3 0x1693 DUP4 PUSH3 0x1737 JUMP JUMPDEST SWAP3 POP DUP3 PUSH32 0xFFFFFFFFFFFFFFFFFFFFFFFFFFFFFFFFFFFFFFFFFFFFFFFFFFFFFFFFFFFFFFFF SUB DUP3 GT ISZERO PUSH3 0x16CB JUMPI PUSH3 0x16CA PUSH3 0x1777 JUMP JUMPDEST JUMPDEST DUP3 DUP3 ADD SWAP1 POP SWAP3 SWAP2 POP POP JUMP JUMPDEST PUSH1 0x0 PUSH3 0x16E3 DUP3 PUSH3 0x1737 JUMP JUMPDEST SWAP2 POP PUSH3 0x16F0 DUP4 PUSH3 0x1737 JUMP JUMPDEST SWAP3 POP DUP2 PUSH32 0xFFFFFFFFFFFFFFFFFFFFFFFFFFFFFFFFFFFFFFFFFFFFFFFFFFFFFFFFFFFFFFFF DIV DUP4 GT DUP3 ISZERO ISZERO AND ISZERO PUSH3 0x172C JUMPI PUSH3 0x172B PUSH3 0x1777 JUMP JUMPDEST JUMPDEST DUP3 DUP3 MUL SWAP1 POP SWAP3 SWAP2 POP POP JUMP JUMPDEST PUSH1 0x0 DUP2 SWAP1 POP SWAP2 SWAP1 POP JUMP JUMPDEST PUSH1 0x0 PUSH1 0x2 DUP3 DIV SWAP1 POP PUSH1 0x1 DUP3 AND DUP1 PUSH3 0x175A JUMPI PUSH1 0x7F DUP3 AND SWAP2 POP JUMPDEST PUSH1 0x20 DUP3 LT DUP2 EQ ISZERO PUSH3 0x1771 JUMPI PUSH3 0x1770 PUSH3 0x17A6 JUMP JUMPDEST JUMPDEST POP SWAP2 SWAP1 POP JUMP JUMPDEST PUSH32 0x4E487B7100000000000000000000000000000000000000000000000000000000 PUSH1 0x0 MSTORE PUSH1 0x11 PUSH1 0x4 MSTORE PUSH1 0x24 PUSH1 0x0 REVERT JUMPDEST PUSH32 0x4E487B7100000000000000000000000000000000000000000000000000000000 PUSH1 0x0 MSTORE PUSH1 0x22 PUSH1 0x4 MSTORE PUSH1 0x24 PUSH1 0x0 REVERT JUMPDEST PUSH32 0x4E487B7100000000000000000000000000000000000000000000000000000000 PUSH1 0x0 MSTORE PUSH1 0x32 PUSH1 0x4 MSTORE PUSH1 0x24 PUSH1 0x0 REVERT JUMPDEST PUSH32 0x45524332303A206D696E7420746F20746865207A65726F206164647265737300 PUSH1 0x0 DUP3 ADD MSTORE POP JUMP JUMPDEST PUSH2 0x47E5 DUP1 PUSH3 0x183D PUSH1 0x0 CODECOPY PUSH1 0x0 RETURN INVALID PUSH1 0x80 PUSH1 0x40 MSTORE PUSH1 0x4 CALLDATASIZE LT PUSH2 0x16A JUMPI PUSH1 0x0 CALLDATALOAD PUSH1 0xE0 SHR DUP1 PUSH4 0x54FD4D50 GT PUSH2 0xD1 JUMPI DUP1 PUSH4 0x95D89B41 GT PUSH2 0x8A JUMPI DUP1 PUSH4 0xA9059CBB GT PUSH2 0x64 JUMPI DUP1 PUSH4 0xA9059CBB EQ PUSH2 0x56E JUMPI DUP1 PUSH4 0xDD62ED3E EQ PUSH2 0x5AB JUMPI DUP1 PUSH4 0xE941FA78 EQ PUSH2 0x5E8 JUMPI DUP1 PUSH4 0xF2FDE38B EQ PUSH2 0x5FF JUMPI PUSH2 0x179 JUMP JUMPDEST DUP1 PUSH4 0x95D89B41 EQ PUSH2 0x4DB JUMPI DUP1 PUSH4 0xA10954FE EQ PUSH2 0x506 JUMPI DUP1 PUSH4 0xA457C2D7 EQ PUSH2 0x531 JUMPI PUSH2 0x179 JUMP JUMPDEST DUP1 PUSH4 0x54FD4D50 EQ PUSH2 0x3CB JUMPI DUP1 PUSH4 0x70A08231 EQ PUSH2 0x3F6 JUMPI DUP1 PUSH4 0x715018A6 EQ PUSH2 0x433 JUMPI DUP1 PUSH4 0x79CC6790 EQ PUSH2 0x44A JUMPI DUP1 PUSH4 0x8DA5CB5B EQ PUSH2 0x473 JUMPI DUP1 PUSH4 0x90F0C2EA EQ PUSH2 0x49E JUMPI PUSH2 0x179 JUMP JUMPDEST DUP1 PUSH4 0x28C3D701 GT PUSH2 0x123 JUMPI DUP1 PUSH4 0x28C3D701 EQ PUSH2 0x283 JUMPI DUP1 PUSH4 0x29A00E7C EQ PUSH2 0x2C0 JUMPI DUP1 PUSH4 0x313CE567 EQ PUSH2 0x2FD JUMPI DUP1 PUSH4 0x39509351 EQ PUSH2 0x328 JUMPI DUP1 PUSH4 0x42966C68 EQ PUSH2 0x365 JUMPI DUP1 PUSH4 0x49F9B0F7 EQ PUSH2 0x38E JUMPI PUSH2 0x179 JUMP JUMPDEST DUP1 PUSH4 0x6FDDE03 EQ PUSH2 0x17E JUMPI DUP1 PUSH4 0x95EA7B3 EQ PUSH2 0x1A9 JUMPI DUP1 PUSH4 0x1249C58B EQ PUSH2 0x1E6 JUMPI DUP1 PUSH4 0x18160DDD EQ PUSH2 0x1F0 JUMPI DUP1 PUSH4 0x1DF4CCFC EQ PUSH2 0x21B JUMPI DUP1 PUSH4 0x23B872DD EQ PUSH2 0x246 JUMPI PUSH2 0x179 JUMP JUMPDEST CALLDATASIZE PUSH2 0x179 JUMPI PUSH2 0x177 PUSH2 0x628 JUMP JUMPDEST STOP JUMPDEST PUSH1 0x0 DUP1 REVERT JUMPDEST CALLVALUE DUP1 ISZERO PUSH2 0x18A JUMPI PUSH1 0x0 DUP1 REVERT JUMPDEST POP PUSH2 0x193 PUSH2 0x677 JUMP JUMPDEST PUSH1 0x40 MLOAD PUSH2 0x1A0 SWAP2 SWAP1 PUSH2 0x3B03 JUMP JUMPDEST PUSH1 0x40 MLOAD DUP1 SWAP2 SUB SWAP1 RETURN JUMPDEST CALLVALUE DUP1 ISZERO PUSH2 0x1B5 JUMPI PUSH1 0x0 DUP1 REVERT JUMPDEST POP PUSH2 0x1D0 PUSH1 0x4 DUP1 CALLDATASIZE SUB DUP2 ADD SWAP1 PUSH2 0x1CB SWAP2 SWAP1 PUSH2 0x364A JUMP JUMPDEST PUSH2 0x709 JUMP JUMPDEST PUSH1 0x40 MLOAD PUSH2 0x1DD SWAP2 SWAP1 PUSH2 0x3AE8 JUMP JUMPDEST PUSH1 0x40 MLOAD DUP1 SWAP2 SUB SWAP1 RETURN JUMPDEST PUSH2 0x1EE PUSH2 0x628 JUMP JUMPDEST STOP JUMPDEST CALLVALUE DUP1 ISZERO PUSH2 0x1FC JUMPI PUSH1 0x0 DUP1 REVERT JUMPDEST POP PUSH2 0x205 PUSH2 0x72C JUMP JUMPDEST PUSH1 0x40 MLOAD PUSH2 0x212 SWAP2 SWAP1 PUSH2 0x3DE5 JUMP JUMPDEST PUSH1 0x40 MLOAD DUP1 SWAP2 SUB SWAP1 RETURN JUMPDEST CALLVALUE DUP1 ISZERO PUSH2 0x227 JUMPI PUSH1 0x0 DUP1 REVERT JUMPDEST POP PUSH2 0x230 PUSH2 0x736 JUMP JUMPDEST PUSH1 0x40 MLOAD PUSH2 0x23D SWAP2 SWAP1 PUSH2 0x3DE5 JUMP JUMPDEST PUSH1 0x40 MLOAD DUP1 SWAP2 SUB SWAP1 RETURN JUMPDEST CALLVALUE DUP1 ISZERO PUSH2 0x252 JUMPI PUSH1 0x0 DUP1 REVERT JUMPDEST POP PUSH2 0x26D PUSH1 0x4 DUP1 CALLDATASIZE SUB DUP2 ADD SWAP1 PUSH2 0x268 SWAP2 SWAP1 PUSH2 0x35F7 JUMP JUMPDEST PUSH2 0x73C JUMP JUMPDEST PUSH1 0x40 MLOAD PUSH2 0x27A SWAP2 SWAP1 PUSH2 0x3AE8 JUMP JUMPDEST PUSH1 0x40 MLOAD DUP1 SWAP2 SUB SWAP1 RETURN JUMPDEST CALLVALUE DUP1 ISZERO PUSH2 0x28F JUMPI PUSH1 0x0 DUP1 REVERT JUMPDEST POP PUSH2 0x2AA PUSH1 0x4 DUP1 CALLDATASIZE SUB DUP2 ADD SWAP1 PUSH2 0x2A5 SWAP2 SWAP1 PUSH2 0x368A JUMP JUMPDEST PUSH2 0x76B JUMP JUMPDEST PUSH1 0x40 MLOAD PUSH2 0x2B7 SWAP2 SWAP1 PUSH2 0x3DE5 JUMP JUMPDEST PUSH1 0x40 MLOAD DUP1 SWAP2 SUB SWAP1 RETURN JUMPDEST CALLVALUE DUP1 ISZERO PUSH2 0x2CC JUMPI PUSH1 0x0 DUP1 REVERT JUMPDEST POP PUSH2 0x2E7 PUSH1 0x4 DUP1 CALLDATASIZE SUB DUP2 ADD SWAP1 PUSH2 0x2E2 SWAP2 SWAP1 PUSH2 0x36B7 JUMP JUMPDEST PUSH2 0x78C JUMP JUMPDEST PUSH1 0x40 MLOAD PUSH2 0x2F4 SWAP2 SWAP1 PUSH2 0x3DE5 JUMP JUMPDEST PUSH1 0x40 MLOAD DUP1 SWAP2 SUB SWAP1 RETURN JUMPDEST CALLVALUE DUP1 ISZERO PUSH2 0x309 JUMPI PUSH1 0x0 DUP1 REVERT JUMPDEST POP PUSH2 0x312 PUSH2 0x875 JUMP JUMPDEST PUSH1 0x40 MLOAD PUSH2 0x31F SWAP2 SWAP1 PUSH2 0x3E00 JUMP JUMPDEST PUSH1 0x40 MLOAD DUP1 SWAP2 SUB SWAP1 RETURN JUMPDEST CALLVALUE DUP1 ISZERO PUSH2 0x334 JUMPI PUSH1 0x0 DUP1 REVERT JUMPDEST POP PUSH2 0x34F PUSH1 0x4 DUP1 CALLDATASIZE SUB DUP2 ADD SWAP1 PUSH2 0x34A SWAP2 SWAP1 PUSH2 0x364A JUMP JUMPDEST PUSH2 0x87E JUMP JUMPDEST PUSH1 0x40 MLOAD PUSH2 0x35C SWAP2 SWAP1 PUSH2 0x3AE8 JUMP JUMPDEST PUSH1 0x40 MLOAD DUP1 SWAP2 SUB SWAP1 RETURN JUMPDEST CALLVALUE DUP1 ISZERO PUSH2 0x371 JUMPI PUSH1 0x0 DUP1 REVERT JUMPDEST POP PUSH2 0x38C PUSH1 0x4 DUP1 CALLDATASIZE SUB DUP2 ADD SWAP1 PUSH2 0x387 SWAP2 SWAP1 PUSH2 0x368A JUMP JUMPDEST PUSH2 0x8B5 JUMP JUMPDEST STOP JUMPDEST CALLVALUE DUP1 ISZERO PUSH2 0x39A JUMPI PUSH1 0x0 DUP1 REVERT JUMPDEST POP PUSH2 0x3B5 PUSH1 0x4 DUP1 CALLDATASIZE SUB DUP2 ADD SWAP1 PUSH2 0x3B0 SWAP2 SWAP1 PUSH2 0x36B7 JUMP JUMPDEST PUSH2 0x973 JUMP JUMPDEST PUSH1 0x40 MLOAD PUSH2 0x3C2 SWAP2 SWAP1 PUSH2 0x3DE5 JUMP JUMPDEST PUSH1 0x40 MLOAD DUP1 SWAP2 SUB SWAP1 RETURN JUMPDEST CALLVALUE DUP1 ISZERO PUSH2 0x3D7 JUMPI PUSH1 0x0 DUP1 REVERT JUMPDEST POP PUSH2 0x3E0 PUSH2 0xA89 JUMP JUMPDEST PUSH1 0x40 MLOAD PUSH2 0x3ED SWAP2 SWAP1 PUSH2 0x3B03 JUMP JUMPDEST PUSH1 0x40 MLOAD DUP1 SWAP2 SUB SWAP1 RETURN JUMPDEST CALLVALUE DUP1 ISZERO PUSH2 0x402 JUMPI PUSH1 0x0 DUP1 REVERT JUMPDEST POP PUSH2 0x41D PUSH1 0x4 DUP1 CALLDATASIZE SUB DUP2 ADD SWAP1 PUSH2 0x418 SWAP2 SWAP1 PUSH2 0x358A JUMP JUMPDEST PUSH2 0xB17 JUMP JUMPDEST PUSH1 0x40 MLOAD PUSH2 0x42A SWAP2 SWAP1 PUSH2 0x3DE5 JUMP JUMPDEST PUSH1 0x40 MLOAD DUP1 SWAP2 SUB SWAP1 RETURN JUMPDEST CALLVALUE DUP1 ISZERO PUSH2 0x43F JUMPI PUSH1 0x0 DUP1 REVERT JUMPDEST POP PUSH2 0x448 PUSH2 0xB60 JUMP JUMPDEST STOP JUMPDEST CALLVALUE DUP1 ISZERO PUSH2 0x456 JUMPI PUSH1 0x0 DUP1 REVERT JUMPDEST POP PUSH2 0x471 PUSH1 0x4 DUP1 CALLDATASIZE SUB DUP2 ADD SWAP1 PUSH2 0x46C SWAP2 SWAP1 PUSH2 0x364A JUMP JUMPDEST PUSH2 0xB74 JUMP JUMPDEST STOP JUMPDEST CALLVALUE DUP1 ISZERO PUSH2 0x47F JUMPI PUSH1 0x0 DUP1 REVERT JUMPDEST POP PUSH2 0x488 PUSH2 0xB94 JUMP JUMPDEST PUSH1 0x40 MLOAD PUSH2 0x495 SWAP2 SWAP1 PUSH2 0x3ACD JUMP JUMPDEST PUSH1 0x40 MLOAD DUP1 SWAP2 SUB SWAP1 RETURN JUMPDEST CALLVALUE DUP1 ISZERO PUSH2 0x4AA JUMPI PUSH1 0x0 DUP1 REVERT JUMPDEST POP PUSH2 0x4C5 PUSH1 0x4 DUP1 CALLDATASIZE SUB DUP2 ADD SWAP1 PUSH2 0x4C0 SWAP2 SWAP1 PUSH2 0x368A JUMP JUMPDEST PUSH2 0xBBE JUMP JUMPDEST PUSH1 0x40 MLOAD PUSH2 0x4D2 SWAP2 SWAP1 PUSH2 0x3DE5 JUMP JUMPDEST PUSH1 0x40 MLOAD DUP1 SWAP2 SUB SWAP1 RETURN JUMPDEST CALLVALUE DUP1 ISZERO PUSH2 0x4E7 JUMPI PUSH1 0x0 DUP1 REVERT JUMPDEST POP PUSH2 0x4F0 PUSH2 0xBDF JUMP JUMPDEST PUSH1 0x40 MLOAD PUSH2 0x4FD SWAP2 SWAP1 PUSH2 0x3B03 JUMP JUMPDEST PUSH1 0x40 MLOAD DUP1 SWAP2 SUB SWAP1 RETURN JUMPDEST CALLVALUE DUP1 ISZERO PUSH2 0x512 JUMPI PUSH1 0x0 DUP1 REVERT JUMPDEST POP PUSH2 0x51B PUSH2 0xC71 JUMP JUMPDEST PUSH1 0x40 MLOAD PUSH2 0x528 SWAP2 SWAP1 PUSH2 0x3DE5 JUMP JUMPDEST PUSH1 0x40 MLOAD DUP1 SWAP2 SUB SWAP1 RETURN JUMPDEST CALLVALUE DUP1 ISZERO PUSH2 0x53D JUMPI PUSH1 0x0 DUP1 REVERT JUMPDEST POP PUSH2 0x558 PUSH1 0x4 DUP1 CALLDATASIZE SUB DUP2 ADD SWAP1 PUSH2 0x553 SWAP2 SWAP1 PUSH2 0x364A JUMP JUMPDEST PUSH2 0xC77 JUMP JUMPDEST PUSH1 0x40 MLOAD PUSH2 0x565 SWAP2 SWAP1 PUSH2 0x3AE8 JUMP JUMPDEST PUSH1 0x40 MLOAD DUP1 SWAP2 SUB SWAP1 RETURN JUMPDEST CALLVALUE DUP1 ISZERO PUSH2 0x57A JUMPI PUSH1 0x0 DUP1 REVERT JUMPDEST POP PUSH2 0x595 PUSH1 0x4 DUP1 CALLDATASIZE SUB DUP2 ADD SWAP1 PUSH2 0x590 SWAP2 SWAP1 PUSH2 0x364A JUMP JUMPDEST PUSH2 0xCEE JUMP JUMPDEST PUSH1 0x40 MLOAD PUSH2 0x5A2 SWAP2 SWAP1 PUSH2 0x3AE8 JUMP JUMPDEST PUSH1 0x40 MLOAD DUP1 SWAP2 SUB SWAP1 RETURN JUMPDEST CALLVALUE DUP1 ISZERO PUSH2 0x5B7 JUMPI PUSH1 0x0 DUP1 REVERT JUMPDEST POP PUSH2 0x5D2 PUSH1 0x4 DUP1 CALLDATASIZE SUB DUP2 ADD SWAP1 PUSH2 0x5CD SWAP2 SWAP1 PUSH2 0x35B7 JUMP JUMPDEST PUSH2 0xD11 JUMP JUMPDEST PUSH1 0x40 MLOAD PUSH2 0x5DF SWAP2 SWAP1 PUSH2 0x3DE5 JUMP JUMPDEST PUSH1 0x40 MLOAD DUP1 SWAP2 SUB SWAP1 RETURN JUMPDEST CALLVALUE DUP1 ISZERO PUSH2 0x5F4 JUMPI PUSH1 0x0 DUP1 REVERT JUMPDEST POP PUSH2 0x5FD PUSH2 0xD98 JUMP JUMPDEST STOP JUMPDEST CALLVALUE DUP1 ISZERO PUSH2 0x60B JUMPI PUSH1 0x0 DUP1 REVERT JUMPDEST POP PUSH2 0x626 PUSH1 0x4 DUP1 CALLDATASIZE SUB DUP2 ADD SWAP1 PUSH2 0x621 SWAP2 SWAP1 PUSH2 0x358A JUMP JUMPDEST PUSH2 0xEA4 JUMP JUMPDEST STOP JUMPDEST PUSH1 0x0 CALLVALUE GT PUSH2 0x66B JUMPI PUSH1 0x40 MLOAD PUSH32 0x8C379A000000000000000000000000000000000000000000000000000000000 DUP2 MSTORE PUSH1 0x4 ADD PUSH2 0x662 SWAP1 PUSH2 0x3C25 JUMP JUMPDEST PUSH1 0x40 MLOAD DUP1 SWAP2 SUB SWAP1 REVERT JUMPDEST PUSH2 0x674 CALLVALUE PUSH2 0xF28 JUMP JUMPDEST POP JUMP JUMPDEST PUSH1 0x60 PUSH1 0x84 DUP1 SLOAD PUSH2 0x686 SWAP1 PUSH2 0x40B5 JUMP JUMPDEST DUP1 PUSH1 0x1F ADD PUSH1 0x20 DUP1 SWAP2 DIV MUL PUSH1 0x20 ADD PUSH1 0x40 MLOAD SWAP1 DUP2 ADD PUSH1 0x40 MSTORE DUP1 SWAP3 SWAP2 SWAP1 DUP2 DUP2 MSTORE PUSH1 0x20 ADD DUP3 DUP1 SLOAD PUSH2 0x6B2 SWAP1 PUSH2 0x40B5 JUMP JUMPDEST DUP1 ISZERO PUSH2 0x6FF JUMPI DUP1 PUSH1 0x1F LT PUSH2 0x6D4 JUMPI PUSH2 0x100 DUP1 DUP4 SLOAD DIV MUL DUP4 MSTORE SWAP2 PUSH1 0x20 ADD SWAP2 PUSH2 0x6FF JUMP JUMPDEST DUP3 ADD SWAP2 SWAP1 PUSH1 0x0 MSTORE PUSH1 0x20 PUSH1 0x0 KECCAK256 SWAP1 JUMPDEST DUP2 SLOAD DUP2 MSTORE SWAP1 PUSH1 0x1 ADD SWAP1 PUSH1 0x20 ADD DUP1 DUP4 GT PUSH2 0x6E2 JUMPI DUP3 SWAP1 SUB PUSH1 0x1F AND DUP3 ADD SWAP2 JUMPDEST POP POP POP POP POP SWAP1 POP SWAP1 JUMP JUMPDEST PUSH1 0x0 DUP1 PUSH2 0x714 PUSH2 0xFA5 JUMP JUMPDEST SWAP1 POP PUSH2 0x721 DUP2 DUP6 DUP6 PUSH2 0xFAD JUMP JUMPDEST PUSH1 0x1 SWAP2 POP POP SWAP3 SWAP2 POP POP JUMP JUMPDEST PUSH1 0x0 PUSH1 0x83 SLOAD SWAP1 POP SWAP1 JUMP JUMPDEST PUSH1 0x88 SLOAD DUP2 JUMP JUMPDEST PUSH1 0x0 DUP1 PUSH2 0x747 PUSH2 0xFA5 JUMP JUMPDEST SWAP1 POP PUSH2 0x754 DUP6 DUP3 DUP6 PUSH2 0x1178 JUMP JUMPDEST PUSH2 0x75F DUP6 DUP6 DUP6 PUSH2 0x1204 JUMP JUMPDEST PUSH1 0x1 SWAP2 POP POP SWAP4 SWAP3 POP POP POP JUMP JUMPDEST PUSH1 0x0 PUSH2 0x785 PUSH2 0x778 PUSH2 0x72C JUMP JUMPDEST PUSH1 0x87 SLOAD PUSH3 0x7A120 DUP6 PUSH2 0x78C JUMP JUMPDEST SWAP1 POP SWAP2 SWAP1 POP JUMP JUMPDEST PUSH1 0x0 DUP1 DUP6 GT DUP1 ISZERO PUSH2 0x79D JUMPI POP PUSH1 0x0 DUP5 GT JUMPDEST DUP1 ISZERO PUSH2 0x7AF JUMPI POP PUSH1 0x0 DUP4 PUSH4 0xFFFFFFFF AND GT JUMPDEST DUP1 ISZERO PUSH2 0x7CA JUMPI POP PUSH3 0xF4240 PUSH4 0xFFFFFFFF AND DUP4 PUSH4 0xFFFFFFFF AND GT ISZERO JUMPDEST PUSH2 0x7D3 JUMPI PUSH1 0x0 DUP1 REVERT JUMPDEST PUSH1 0x0 DUP3 EQ ISZERO PUSH2 0x7E5 JUMPI PUSH1 0x0 SWAP1 POP PUSH2 0x86D JUMP JUMPDEST PUSH3 0xF4240 PUSH4 0xFFFFFFFF AND DUP4 PUSH4 0xFFFFFFFF AND EQ ISZERO PUSH2 0x81A JUMPI DUP4 DUP3 DUP7 PUSH2 0x809 SWAP2 SWAP1 PUSH2 0x3F31 JUMP JUMPDEST PUSH2 0x813 SWAP2 SWAP1 PUSH2 0x3ECF JUMP JUMPDEST SWAP1 POP PUSH2 0x86D JUMP JUMPDEST PUSH1 0x0 DUP1 PUSH1 0x0 DUP7 DUP6 PUSH2 0x82B SWAP2 SWAP1 PUSH2 0x3E42 JUMP JUMPDEST SWAP1 POP PUSH2 0x83C DUP2 DUP9 DUP9 PUSH3 0xF4240 PUSH2 0x147F JUMP JUMPDEST DUP1 SWAP4 POP DUP2 SWAP5 POP POP POP PUSH1 0x0 DUP3 PUSH1 0xFF AND DUP5 DUP11 PUSH2 0x856 SWAP2 SWAP1 PUSH2 0x3F31 JUMP JUMPDEST SWAP1 SHR SWAP1 POP DUP9 DUP2 PUSH2 0x866 SWAP2 SWAP1 PUSH2 0x3F8B JUMP JUMPDEST SWAP5 POP POP POP POP POP JUMPDEST SWAP5 SWAP4 POP POP POP POP JUMP JUMPDEST PUSH1 0x0 PUSH1 0x12 SWAP1 POP SWAP1 JUMP JUMPDEST PUSH1 0x0 DUP1 PUSH2 0x889 PUSH2 0xFA5 JUMP JUMPDEST SWAP1 POP PUSH2 0x8AA DUP2 DUP6 DUP6 PUSH2 0x89B DUP6 DUP10 PUSH2 0xD11 JUMP JUMPDEST PUSH2 0x8A5 SWAP2 SWAP1 PUSH2 0x3E42 JUMP JUMPDEST PUSH2 0xFAD JUMP JUMPDEST PUSH1 0x1 SWAP2 POP POP SWAP3 SWAP2 POP POP JUMP JUMPDEST PUSH1 0x0 PUSH2 0x8C0 DUP3 PUSH2 0x160C JUMP JUMPDEST SWAP1 POP PUSH1 0x0 CALLER PUSH20 0xFFFFFFFFFFFFFFFFFFFFFFFFFFFFFFFFFFFFFFFF AND DUP3 PUSH1 0x40 MLOAD PUSH2 0x8E8 SWAP1 PUSH2 0x3AB8 JUMP JUMPDEST PUSH1 0x0 PUSH1 0x40 MLOAD DUP1 DUP4 SUB DUP2 DUP6 DUP8 GAS CALL SWAP3 POP POP POP RETURNDATASIZE DUP1 PUSH1 0x0 DUP2 EQ PUSH2 0x925 JUMPI PUSH1 0x40 MLOAD SWAP2 POP PUSH1 0x1F NOT PUSH1 0x3F RETURNDATASIZE ADD AND DUP3 ADD PUSH1 0x40 MSTORE RETURNDATASIZE DUP3 MSTORE RETURNDATASIZE PUSH1 0x0 PUSH1 0x20 DUP5 ADD RETURNDATACOPY PUSH2 0x92A JUMP JUMPDEST PUSH1 0x60 SWAP2 POP JUMPDEST POP POP SWAP1 POP DUP1 PUSH2 0x96E JUMPI PUSH1 0x40 MLOAD PUSH32 0x8C379A000000000000000000000000000000000000000000000000000000000 DUP2 MSTORE PUSH1 0x4 ADD PUSH2 0x965 SWAP1 PUSH2 0x3D85 JUMP JUMPDEST PUSH1 0x40 MLOAD DUP1 SWAP2 SUB SWAP1 REVERT JUMPDEST POP POP POP JUMP JUMPDEST PUSH1 0x0 DUP1 DUP6 GT DUP1 ISZERO PUSH2 0x984 JUMPI POP PUSH1 0x0 DUP5 GT JUMPDEST DUP1 ISZERO PUSH2 0x996 JUMPI POP PUSH1 0x0 DUP4 PUSH4 0xFFFFFFFF AND GT JUMPDEST DUP1 ISZERO PUSH2 0x9B1 JUMPI POP PUSH3 0xF4240 PUSH4 0xFFFFFFFF AND DUP4 PUSH4 0xFFFFFFFF AND GT ISZERO JUMPDEST DUP1 ISZERO PUSH2 0x9BD JUMPI POP DUP5 DUP3 GT ISZERO JUMPDEST PUSH2 0x9C6 JUMPI PUSH1 0x0 DUP1 REVERT JUMPDEST PUSH1 0x0 DUP3 EQ ISZERO PUSH2 0x9D8 JUMPI PUSH1 0x0 SWAP1 POP PUSH2 0xA81 JUMP JUMPDEST DUP5 DUP3 EQ ISZERO PUSH2 0x9E8 JUMPI DUP4 SWAP1 POP PUSH2 0xA81 JUMP JUMPDEST PUSH3 0xF4240 PUSH4 0xFFFFFFFF AND DUP4 PUSH4 0xFFFFFFFF AND EQ ISZERO PUSH2 0xA1D JUMPI DUP5 DUP3 DUP6 PUSH2 0xA0C SWAP2 SWAP1 PUSH2 0x3F31 JUMP JUMPDEST PUSH2 0xA16 SWAP2 SWAP1 PUSH2 0x3ECF JUMP JUMPDEST SWAP1 POP PUSH2 0xA81 JUMP JUMPDEST PUSH1 0x0 DUP1 PUSH1 0x0 DUP5 DUP9 PUSH2 0xA2E SWAP2 SWAP1 PUSH2 0x3F8B JUMP JUMPDEST SWAP1 POP PUSH2 0xA3F DUP9 DUP3 PUSH3 0xF4240 DUP10 PUSH2 0x147F JUMP JUMPDEST DUP1 SWAP4 POP DUP2 SWAP5 POP POP POP PUSH1 0x0 DUP4 DUP9 PUSH2 0xA55 SWAP2 SWAP1 PUSH2 0x3F31 JUMP JUMPDEST SWAP1 POP PUSH1 0x0 DUP4 PUSH1 0xFF AND DUP10 SWAP1 SHL SWAP1 POP DUP5 DUP2 DUP4 PUSH2 0xA6F SWAP2 SWAP1 PUSH2 0x3F8B JUMP JUMPDEST PUSH2 0xA79 SWAP2 SWAP1 PUSH2 0x3ECF JUMP JUMPDEST SWAP6 POP POP POP POP POP POP JUMPDEST SWAP5 SWAP4 POP POP POP POP JUMP JUMPDEST PUSH1 0x0 DUP1 SLOAD PUSH2 0xA96 SWAP1 PUSH2 0x40B5 JUMP JUMPDEST DUP1 PUSH1 0x1F ADD PUSH1 0x20 DUP1 SWAP2 DIV MUL PUSH1 0x20 ADD PUSH1 0x40 MLOAD SWAP1 DUP2 ADD PUSH1 0x40 MSTORE DUP1 SWAP3 SWAP2 SWAP1 DUP2 DUP2 MSTORE PUSH1 0x20 ADD DUP3 DUP1 SLOAD PUSH2 0xAC2 SWAP1 PUSH2 0x40B5 JUMP JUMPDEST DUP1 ISZERO PUSH2 0xB0F JUMPI DUP1 PUSH1 0x1F LT PUSH2 0xAE4 JUMPI PUSH2 0x100 DUP1 DUP4 SLOAD DIV MUL DUP4 MSTORE SWAP2 PUSH1 0x20 ADD SWAP2 PUSH2 0xB0F JUMP JUMPDEST DUP3 ADD SWAP2 SWAP1 PUSH1 0x0 MSTORE PUSH1 0x20 PUSH1 0x0 KECCAK256 SWAP1 JUMPDEST DUP2 SLOAD DUP2 MSTORE SWAP1 PUSH1 0x1 ADD SWAP1 PUSH1 0x20 ADD DUP1 DUP4 GT PUSH2 0xAF2 JUMPI DUP3 SWAP1 SUB PUSH1 0x1F AND DUP3 ADD SWAP2 JUMPDEST POP POP POP POP POP DUP2 JUMP JUMPDEST PUSH1 0x0 PUSH1 0x81 PUSH1 0x0 DUP4 PUSH20 0xFFFFFFFFFFFFFFFFFFFFFFFFFFFFFFFFFFFFFFFF AND PUSH20 0xFFFFFFFFFFFFFFFFFFFFFFFFFFFFFFFFFFFFFFFF AND DUP2 MSTORE PUSH1 0x20 ADD SWAP1 DUP2 MSTORE PUSH1 0x20 ADD PUSH1 0x0 KECCAK256 SLOAD SWAP1 POP SWAP2 SWAP1 POP JUMP JUMPDEST PUSH2 0xB68 PUSH2 0x1706 JUMP JUMPDEST PUSH2 0xB72 PUSH1 0x0 PUSH2 0x1784 JUMP JUMPDEST JUMP JUMPDEST PUSH2 0xB86 DUP3 PUSH2 0xB80 PUSH2 0xFA5 JUMP JUMPDEST DUP4 PUSH2 0x1178 JUMP JUMPDEST PUSH2 0xB90 DUP3 DUP3 PUSH2 0x184A JUMP JUMPDEST POP POP JUMP JUMPDEST PUSH1 0x0 PUSH1 0x86 PUSH1 0x0 SWAP1 SLOAD SWAP1 PUSH2 0x100 EXP SWAP1 DIV PUSH20 0xFFFFFFFFFFFFFFFFFFFFFFFFFFFFFFFFFFFFFFFF AND SWAP1 POP SWAP1 JUMP JUMPDEST PUSH1 0x0 PUSH2 0xBD8 PUSH2 0xBCB PUSH2 0x72C JUMP JUMPDEST PUSH1 0x87 SLOAD PUSH3 0x7A120 DUP6 PUSH2 0x973 JUMP JUMPDEST SWAP1 POP SWAP2 SWAP1 POP JUMP JUMPDEST PUSH1 0x60 PUSH1 0x85 DUP1 SLOAD PUSH2 0xBEE SWAP1 PUSH2 0x40B5 JUMP JUMPDEST DUP1 PUSH1 0x1F ADD PUSH1 0x20 DUP1 SWAP2 DIV MUL PUSH1 0x20 ADD PUSH1 0x40 MLOAD SWAP1 DUP2 ADD PUSH1 0x40 MSTORE DUP1 SWAP3 SWAP2 SWAP1 DUP2 DUP2 MSTORE PUSH1 0x20 ADD DUP3 DUP1 SLOAD PUSH2 0xC1A SWAP1 PUSH2 0x40B5 JUMP JUMPDEST DUP1 ISZERO PUSH2 0xC67 JUMPI DUP1 PUSH1 0x1F LT PUSH2 0xC3C JUMPI PUSH2 0x100 DUP1 DUP4 SLOAD DIV MUL DUP4 MSTORE SWAP2 PUSH1 0x20 ADD SWAP2 PUSH2 0xC67 JUMP JUMPDEST DUP3 ADD SWAP2 SWAP1 PUSH1 0x0 MSTORE PUSH1 0x20 PUSH1 0x0 KECCAK256 SWAP1 JUMPDEST DUP2 SLOAD DUP2 MSTORE SWAP1 PUSH1 0x1 ADD SWAP1 PUSH1 0x20 ADD DUP1 DUP4 GT PUSH2 0xC4A JUMPI DUP3 SWAP1 SUB PUSH1 0x1F AND DUP3 ADD SWAP2 JUMPDEST POP POP POP POP POP SWAP1 POP SWAP1 JUMP JUMPDEST PUSH1 0x87 SLOAD DUP2 JUMP JUMPDEST PUSH1 0x0 DUP1 PUSH2 0xC82 PUSH2 0xFA5 JUMP JUMPDEST SWAP1 POP PUSH1 0x0 PUSH2 0xC90 DUP3 DUP7 PUSH2 0xD11 JUMP JUMPDEST SWAP1 POP DUP4 DUP2 LT ISZERO PUSH2 0xCD5 JUMPI PUSH1 0x40 MLOAD PUSH32 0x8C379A000000000000000000000000000000000000000000000000000000000 DUP2 MSTORE PUSH1 0x4 ADD PUSH2 0xCCC SWAP1 PUSH2 0x3DA5 JUMP JUMPDEST PUSH1 0x40 MLOAD DUP1 SWAP2 SUB SWAP1 REVERT JUMPDEST PUSH2 0xCE2 DUP3 DUP7 DUP7 DUP5 SUB PUSH2 0xFAD JUMP JUMPDEST PUSH1 0x1 SWAP3 POP POP POP SWAP3 SWAP2 POP POP JUMP JUMPDEST PUSH1 0x0 DUP1 PUSH2 0xCF9 PUSH2 0xFA5 JUMP JUMPDEST SWAP1 POP PUSH2 0xD06 DUP2 DUP6 DUP6 PUSH2 0x1204 JUMP JUMPDEST PUSH1 0x1 SWAP2 POP POP SWAP3 SWAP2 POP POP JUMP JUMPDEST PUSH1 0x0 PUSH1 0x82 PUSH1 0x0 DUP5 PUSH20 0xFFFFFFFFFFFFFFFFFFFFFFFFFFFFFFFFFFFFFFFF AND PUSH20 0xFFFFFFFFFFFFFFFFFFFFFFFFFFFFFFFFFFFFFFFF AND DUP2 MSTORE PUSH1 0x20 ADD SWAP1 DUP2 MSTORE PUSH1 0x20 ADD PUSH1 0x0 KECCAK256 PUSH1 0x0 DUP4 PUSH20 0xFFFFFFFFFFFFFFFFFFFFFFFFFFFFFFFFFFFFFFFF AND PUSH20 0xFFFFFFFFFFFFFFFFFFFFFFFFFFFFFFFFFFFFFFFF AND DUP2 MSTORE PUSH1 0x20 ADD SWAP1 DUP2 MSTORE PUSH1 0x20 ADD PUSH1 0x0 KECCAK256 SLOAD SWAP1 POP SWAP3 SWAP2 POP POP JUMP JUMPDEST PUSH2 0xDA0 PUSH2 0x1706 JUMP JUMPDEST PUSH1 0x0 PUSH1 0x88 SLOAD GT PUSH2 0xDE5 JUMPI PUSH1 0x40 MLOAD PUSH32 0x8C379A000000000000000000000000000000000000000000000000000000000 DUP2 MSTORE PUSH1 0x4 ADD PUSH2 0xDDC SWAP1 PUSH2 0x3BE5 JUMP JUMPDEST PUSH1 0x40 MLOAD DUP1 SWAP2 SUB SWAP1 REVERT JUMPDEST PUSH1 0x0 PUSH1 0x88 SLOAD SWAP1 POP PUSH1 0x0 PUSH1 0x88 DUP2 SWAP1 SSTORE POP PUSH1 0x0 CALLER PUSH20 0xFFFFFFFFFFFFFFFFFFFFFFFFFFFFFFFFFFFFFFFF AND DUP3 PUSH1 0x40 MLOAD PUSH2 0xE1A SWAP1 PUSH2 0x3AB8 JUMP JUMPDEST PUSH1 0x0 PUSH1 0x40 MLOAD DUP1 DUP4 SUB DUP2 DUP6 DUP8 GAS CALL SWAP3 POP POP POP RETURNDATASIZE DUP1 PUSH1 0x0 DUP2 EQ PUSH2 0xE57 JUMPI PUSH1 0x40 MLOAD SWAP2 POP PUSH1 0x1F NOT PUSH1 0x3F RETURNDATASIZE ADD AND DUP3 ADD PUSH1 0x40 MSTORE RETURNDATASIZE DUP3 MSTORE RETURNDATASIZE PUSH1 0x0 PUSH1 0x20 DUP5 ADD RETURNDATACOPY PUSH2 0xE5C JUMP JUMPDEST PUSH1 0x60 SWAP2 POP JUMPDEST POP POP SWAP1 POP DUP1 PUSH2 0xEA0 JUMPI PUSH1 0x40 MLOAD PUSH32 0x8C379A000000000000000000000000000000000000000000000000000000000 DUP2 MSTORE PUSH1 0x4 ADD PUSH2 0xE97 SWAP1 PUSH2 0x3D65 JUMP JUMPDEST PUSH1 0x40 MLOAD DUP1 SWAP2 SUB SWAP1 REVERT JUMPDEST POP POP JUMP JUMPDEST PUSH2 0xEAC PUSH2 0x1706 JUMP JUMPDEST PUSH1 0x0 PUSH20 0xFFFFFFFFFFFFFFFFFFFFFFFFFFFFFFFFFFFFFFFF AND DUP2 PUSH20 0xFFFFFFFFFFFFFFFFFFFFFFFFFFFFFFFFFFFFFFFF AND EQ ISZERO PUSH2 0xF1C JUMPI PUSH1 0x40 MLOAD PUSH32 0x8C379A000000000000000000000000000000000000000000000000000000000 DUP2 MSTORE PUSH1 0x4 ADD PUSH2 0xF13 SWAP1 PUSH2 0x3BA5 JUMP JUMPDEST PUSH1 0x40 MLOAD DUP1 SWAP2 SUB SWAP1 REVERT JUMPDEST PUSH2 0xF25 DUP2 PUSH2 0x1784 JUMP JUMPDEST POP JUMP JUMPDEST PUSH1 0x0 DUP1 DUP3 GT PUSH2 0xF6C JUMPI PUSH1 0x40 MLOAD PUSH32 0x8C379A000000000000000000000000000000000000000000000000000000000 DUP2 MSTORE PUSH1 0x4 ADD PUSH2 0xF63 SWAP1 PUSH2 0x3B85 JUMP JUMPDEST PUSH1 0x40 MLOAD DUP1 SWAP2 SUB SWAP1 REVERT JUMPDEST PUSH1 0x0 PUSH2 0xF77 DUP4 PUSH2 0x76B JUMP JUMPDEST SWAP1 POP PUSH2 0xF83 CALLER DUP3 PUSH2 0x1A1A JUMP JUMPDEST DUP3 PUSH1 0x87 PUSH1 0x0 DUP3 DUP3 SLOAD PUSH2 0xF95 SWAP2 SWAP1 PUSH2 0x3E42 JUMP JUMPDEST SWAP3 POP POP DUP2 SWAP1 SSTORE POP DUP1 SWAP2 POP POP SWAP2 SWAP1 POP JUMP JUMPDEST PUSH1 0x0 CALLER SWAP1 POP SWAP1 JUMP JUMPDEST PUSH1 0x0 PUSH20 0xFFFFFFFFFFFFFFFFFFFFFFFFFFFFFFFFFFFFFFFF AND DUP4 PUSH20 0xFFFFFFFFFFFFFFFFFFFFFFFFFFFFFFFFFFFFFFFF AND EQ ISZERO PUSH2 0x101D JUMPI PUSH1 0x40 MLOAD PUSH32 0x8C379A000000000000000000000000000000000000000000000000000000000 DUP2 MSTORE PUSH1 0x4 ADD PUSH2 0x1014 SWAP1 PUSH2 0x3D45 JUMP JUMPDEST PUSH1 0x40 MLOAD DUP1 SWAP2 SUB SWAP1 REVERT JUMPDEST PUSH1 0x0 PUSH20 0xFFFFFFFFFFFFFFFFFFFFFFFFFFFFFFFFFFFFFFFF AND DUP3 PUSH20 0xFFFFFFFFFFFFFFFFFFFFFFFFFFFFFFFFFFFFFFFF AND EQ ISZERO PUSH2 0x108D JUMPI PUSH1 0x40 MLOAD PUSH32 0x8C379A000000000000000000000000000000000000000000000000000000000 DUP2 MSTORE PUSH1 0x4 ADD PUSH2 0x1084 SWAP1 PUSH2 0x3BC5 JUMP JUMPDEST PUSH1 0x40 MLOAD DUP1 SWAP2 SUB SWAP1 REVERT JUMPDEST DUP1 PUSH1 0x82 PUSH1 0x0 DUP6 PUSH20 0xFFFFFFFFFFFFFFFFFFFFFFFFFFFFFFFFFFFFFFFF AND PUSH20 0xFFFFFFFFFFFFFFFFFFFFFFFFFFFFFFFFFFFFFFFF AND DUP2 MSTORE PUSH1 0x20 ADD SWAP1 DUP2 MSTORE PUSH1 0x20 ADD PUSH1 0x0 KECCAK256 PUSH1 0x0 DUP5 PUSH20 0xFFFFFFFFFFFFFFFFFFFFFFFFFFFFFFFFFFFFFFFF AND PUSH20 0xFFFFFFFFFFFFFFFFFFFFFFFFFFFFFFFFFFFFFFFF AND DUP2 MSTORE PUSH1 0x20 ADD SWAP1 DUP2 MSTORE PUSH1 0x20 ADD PUSH1 0x0 KECCAK256 DUP2 SWAP1 SSTORE POP DUP2 PUSH20 0xFFFFFFFFFFFFFFFFFFFFFFFFFFFFFFFFFFFFFFFF AND DUP4 PUSH20 0xFFFFFFFFFFFFFFFFFFFFFFFFFFFFFFFFFFFFFFFF AND PUSH32 0x8C5BE1E5EBEC7D5BD14F71427D1E84F3DD0314C0F7B2291E5B200AC8C7C3B925 DUP4 PUSH1 0x40 MLOAD PUSH2 0x116B SWAP2 SWAP1 PUSH2 0x3DE5 JUMP JUMPDEST PUSH1 0x40 MLOAD DUP1 SWAP2 SUB SWAP1 LOG3 POP POP POP JUMP JUMPDEST PUSH1 0x0 PUSH2 0x1184 DUP5 DUP5 PUSH2 0xD11 JUMP JUMPDEST SWAP1 POP PUSH32 0xFFFFFFFFFFFFFFFFFFFFFFFFFFFFFFFFFFFFFFFFFFFFFFFFFFFFFFFFFFFFFFFF DUP2 EQ PUSH2 0x11FE JUMPI DUP2 DUP2 LT ISZERO PUSH2 0x11F0 JUMPI PUSH1 0x40 MLOAD PUSH32 0x8C379A000000000000000000000000000000000000000000000000000000000 DUP2 MSTORE PUSH1 0x4 ADD PUSH2 0x11E7 SWAP1 PUSH2 0x3C05 JUMP JUMPDEST PUSH1 0x40 MLOAD DUP1 SWAP2 SUB SWAP1 REVERT JUMPDEST PUSH2 0x11FD DUP5 DUP5 DUP5 DUP5 SUB PUSH2 0xFAD JUMP JUMPDEST JUMPDEST POP POP POP POP JUMP JUMPDEST PUSH1 0x0 PUSH20 0xFFFFFFFFFFFFFFFFFFFFFFFFFFFFFFFFFFFFFFFF AND DUP4 PUSH20 0xFFFFFFFFFFFFFFFFFFFFFFFFFFFFFFFFFFFFFFFF AND EQ ISZERO PUSH2 0x1274 JUMPI PUSH1 0x40 MLOAD PUSH32 0x8C379A000000000000000000000000000000000000000000000000000000000 DUP2 MSTORE PUSH1 0x4 ADD PUSH2 0x126B SWAP1 PUSH2 0x3D25 JUMP JUMPDEST PUSH1 0x40 MLOAD DUP1 SWAP2 SUB SWAP1 REVERT JUMPDEST PUSH1 0x0 PUSH20 0xFFFFFFFFFFFFFFFFFFFFFFFFFFFFFFFFFFFFFFFF AND DUP3 PUSH20 0xFFFFFFFFFFFFFFFFFFFFFFFFFFFFFFFFFFFFFFFF AND EQ ISZERO PUSH2 0x12E4 JUMPI PUSH1 0x40 MLOAD PUSH32 0x8C379A000000000000000000000000000000000000000000000000000000000 DUP2 MSTORE PUSH1 0x4 ADD PUSH2 0x12DB SWAP1 PUSH2 0x3B25 JUMP JUMPDEST PUSH1 0x40 MLOAD DUP1 SWAP2 SUB SWAP1 REVERT JUMPDEST PUSH2 0x12EF DUP4 DUP4 DUP4 PUSH2 0x1B72 JUMP JUMPDEST PUSH1 0x0 PUSH1 0x81 PUSH1 0x0 DUP6 PUSH20 0xFFFFFFFFFFFFFFFFFFFFFFFFFFFFFFFFFFFFFFFF AND PUSH20 0xFFFFFFFFFFFFFFFFFFFFFFFFFFFFFFFFFFFFFFFF AND DUP2 MSTORE PUSH1 0x20 ADD SWAP1 DUP2 MSTORE PUSH1 0x20 ADD PUSH1 0x0 KECCAK256 SLOAD SWAP1 POP DUP2 DUP2 LT ISZERO PUSH2 0x1376 JUMPI PUSH1 0x40 MLOAD PUSH32 0x8C379A000000000000000000000000000000000000000000000000000000000 DUP2 MSTORE PUSH1 0x4 ADD PUSH2 0x136D SWAP1 PUSH2 0x3C45 JUMP JUMPDEST PUSH1 0x40 MLOAD DUP1 SWAP2 SUB SWAP1 REVERT JUMPDEST DUP2 DUP2 SUB PUSH1 0x81 PUSH1 0x0 DUP7 PUSH20 0xFFFFFFFFFFFFFFFFFFFFFFFFFFFFFFFFFFFFFFFF AND PUSH20 0xFFFFFFFFFFFFFFFFFFFFFFFFFFFFFFFFFFFFFFFF AND DUP2 MSTORE PUSH1 0x20 ADD SWAP1 DUP2 MSTORE PUSH1 0x20 ADD PUSH1 0x0 KECCAK256 DUP2 SWAP1 SSTORE POP DUP2 PUSH1 0x81 PUSH1 0x0 DUP6 PUSH20 0xFFFFFFFFFFFFFFFFFFFFFFFFFFFFFFFFFFFFFFFF AND PUSH20 0xFFFFFFFFFFFFFFFFFFFFFFFFFFFFFFFFFFFFFFFF AND DUP2 MSTORE PUSH1 0x20 ADD SWAP1 DUP2 MSTORE PUSH1 0x20 ADD PUSH1 0x0 KECCAK256 PUSH1 0x0 DUP3 DUP3 SLOAD ADD SWAP3 POP POP DUP2 SWAP1 SSTORE POP DUP3 PUSH20 0xFFFFFFFFFFFFFFFFFFFFFFFFFFFFFFFFFFFFFFFF AND DUP5 PUSH20 0xFFFFFFFFFFFFFFFFFFFFFFFFFFFFFFFFFFFFFFFF AND PUSH32 0xDDF252AD1BE2C89B69C2B068FC378DAA952BA7F163C4A11628F55A4DF523B3EF DUP5 PUSH1 0x40 MLOAD PUSH2 0x1466 SWAP2 SWAP1 PUSH2 0x3DE5 JUMP JUMPDEST PUSH1 0x40 MLOAD DUP1 SWAP2 SUB SWAP1 LOG3 PUSH2 0x1479 DUP5 DUP5 DUP5 PUSH2 0x1B77 JUMP JUMPDEST POP POP POP POP JUMP JUMPDEST PUSH1 0x0 DUP1 PUSH17 0x200000000000000000000000000000000 DUP7 LT PUSH2 0x14D5 JUMPI PUSH1 0x40 MLOAD PUSH32 0x8C379A000000000000000000000000000000000000000000000000000000000 DUP2 MSTORE PUSH1 0x4 ADD PUSH2 0x14CC SWAP1 PUSH2 0x3CE5 JUMP JUMPDEST PUSH1 0x40 MLOAD DUP1 SWAP2 SUB SWAP1 REVERT JUMPDEST DUP5 DUP7 LT ISZERO PUSH2 0x1518 JUMPI PUSH1 0x40 MLOAD PUSH32 0x8C379A000000000000000000000000000000000000000000000000000000000 DUP2 MSTORE PUSH1 0x4 ADD PUSH2 0x150F SWAP1 PUSH2 0x3CC5 JUMP JUMPDEST PUSH1 0x40 MLOAD DUP1 SWAP2 SUB SWAP1 REVERT JUMPDEST PUSH1 0x0 DUP1 DUP7 PUSH16 0x80000000000000000000000000000000 DUP10 PUSH2 0x1538 SWAP2 SWAP1 PUSH2 0x3F31 JUMP JUMPDEST PUSH2 0x1542 SWAP2 SWAP1 PUSH2 0x3ECF JUMP JUMPDEST SWAP1 POP PUSH17 0x15BF0A8B1457695355FB8AC404E7A79E3 DUP2 LT ISZERO PUSH2 0x156D JUMPI PUSH2 0x1566 DUP2 PUSH2 0x1B7C JUMP JUMPDEST SWAP2 POP PUSH2 0x1579 JUMP JUMPDEST PUSH2 0x1576 DUP2 PUSH2 0x22F5 JUMP JUMPDEST SWAP2 POP JUMPDEST PUSH1 0x0 DUP6 PUSH4 0xFFFFFFFF AND DUP8 PUSH4 0xFFFFFFFF AND DUP5 PUSH2 0x1594 SWAP2 SWAP1 PUSH2 0x3F31 JUMP JUMPDEST PUSH2 0x159E SWAP2 SWAP1 PUSH2 0x3ECF JUMP JUMPDEST SWAP1 POP PUSH17 0x800000000000000000000000000000000 DUP2 LT ISZERO PUSH2 0x15D0 JUMPI PUSH2 0x15C2 DUP2 PUSH2 0x2455 JUMP JUMPDEST PUSH1 0x7F SWAP5 POP SWAP5 POP POP POP POP PUSH2 0x1603 JUMP JUMPDEST PUSH1 0x0 PUSH2 0x15DB DUP3 PUSH2 0x2C59 JUMP JUMPDEST SWAP1 POP PUSH2 0x15F9 DUP2 PUSH1 0x7F PUSH2 0x15ED SWAP2 SWAP1 PUSH2 0x3FBF JUMP JUMPDEST PUSH1 0xFF AND DUP4 SWAP1 SHR DUP3 PUSH2 0x2D3B JUMP JUMPDEST DUP2 SWAP6 POP SWAP6 POP POP POP POP POP JUMPDEST SWAP5 POP SWAP5 SWAP3 POP POP POP JUMP JUMPDEST PUSH1 0x0 DUP1 DUP3 GT PUSH2 0x1650 JUMPI PUSH1 0x40 MLOAD PUSH32 0x8C379A000000000000000000000000000000000000000000000000000000000 DUP2 MSTORE PUSH1 0x4 ADD PUSH2 0x1647 SWAP1 PUSH2 0x3C65 JUMP JUMPDEST PUSH1 0x40 MLOAD DUP1 SWAP2 SUB SWAP1 REVERT JUMPDEST DUP2 PUSH2 0x165A CALLER PUSH2 0xB17 JUMP JUMPDEST LT ISZERO PUSH2 0x169B JUMPI PUSH1 0x40 MLOAD PUSH32 0x8C379A000000000000000000000000000000000000000000000000000000000 DUP2 MSTORE PUSH1 0x4 ADD PUSH2 0x1692 SWAP1 PUSH2 0x3C85 JUMP JUMPDEST PUSH1 0x40 MLOAD DUP1 SWAP2 SUB SWAP1 REVERT JUMPDEST PUSH1 0x0 PUSH2 0x16A6 DUP4 PUSH2 0xBBE JUMP JUMPDEST SWAP1 POP DUP1 PUSH1 0x87 PUSH1 0x0 DUP3 DUP3 SLOAD PUSH2 0x16BA SWAP2 SWAP1 PUSH2 0x3F8B JUMP JUMPDEST SWAP3 POP POP DUP2 SWAP1 SSTORE POP PUSH1 0x0 PUSH2 0x16CC DUP3 PUSH2 0x344A JUMP JUMPDEST SWAP1 POP DUP1 PUSH1 0x88 PUSH1 0x0 DUP3 DUP3 SLOAD PUSH2 0x16E0 SWAP2 SWAP1 PUSH2 0x3E42 JUMP JUMPDEST SWAP3 POP POP DUP2 SWAP1 SSTORE POP PUSH2 0x16F1 CALLER DUP6 PUSH2 0x184A JUMP JUMPDEST DUP1 DUP3 PUSH2 0x16FD SWAP2 SWAP1 PUSH2 0x3F8B JUMP JUMPDEST SWAP3 POP POP POP SWAP2 SWAP1 POP JUMP JUMPDEST PUSH2 0x170E PUSH2 0xFA5 JUMP JUMPDEST PUSH20 0xFFFFFFFFFFFFFFFFFFFFFFFFFFFFFFFFFFFFFFFF AND PUSH2 0x172C PUSH2 0xB94 JUMP JUMPDEST PUSH20 0xFFFFFFFFFFFFFFFFFFFFFFFFFFFFFFFFFFFFFFFF AND EQ PUSH2 0x1782 JUMPI PUSH1 0x40 MLOAD PUSH32 0x8C379A000000000000000000000000000000000000000000000000000000000 DUP2 MSTORE PUSH1 0x4 ADD PUSH2 0x1779 SWAP1 PUSH2 0x3CA5 JUMP JUMPDEST PUSH1 0x40 MLOAD DUP1 SWAP2 SUB SWAP1 REVERT JUMPDEST JUMP JUMPDEST PUSH1 0x0 PUSH1 0x86 PUSH1 0x0 SWAP1 SLOAD SWAP1 PUSH2 0x100 EXP SWAP1 DIV PUSH20 0xFFFFFFFFFFFFFFFFFFFFFFFFFFFFFFFFFFFFFFFF AND SWAP1 POP DUP2 PUSH1 0x86 PUSH1 0x0 PUSH2 0x100 EXP DUP2 SLOAD DUP2 PUSH20 0xFFFFFFFFFFFFFFFFFFFFFFFFFFFFFFFFFFFFFFFF MUL NOT AND SWAP1 DUP4 PUSH20 0xFFFFFFFFFFFFFFFFFFFFFFFFFFFFFFFFFFFFFFFF AND MUL OR SWAP1 SSTORE POP DUP2 PUSH20 0xFFFFFFFFFFFFFFFFFFFFFFFFFFFFFFFFFFFFFFFF AND DUP2 PUSH20 0xFFFFFFFFFFFFFFFFFFFFFFFFFFFFFFFFFFFFFFFF AND PUSH32 0x8BE0079C531659141344CD1FD0A4F28419497F9722A3DAAFE3B4186F6B6457E0 PUSH1 0x40 MLOAD PUSH1 0x40 MLOAD DUP1 SWAP2 SUB SWAP1 LOG3 POP POP JUMP JUMPDEST PUSH1 0x0 PUSH20 0xFFFFFFFFFFFFFFFFFFFFFFFFFFFFFFFFFFFFFFFF AND DUP3 PUSH20 0xFFFFFFFFFFFFFFFFFFFFFFFFFFFFFFFFFFFFFFFF AND EQ ISZERO PUSH2 0x18BA JUMPI PUSH1 0x40 MLOAD PUSH32 0x8C379A000000000000000000000000000000000000000000000000000000000 DUP2 MSTORE PUSH1 0x4 ADD PUSH2 0x18B1 SWAP1 PUSH2 0x3D05 JUMP JUMPDEST PUSH1 0x40 MLOAD DUP1 SWAP2 SUB SWAP1 REVERT JUMPDEST PUSH2 0x18C6 DUP3 PUSH1 0x0 DUP4 PUSH2 0x1B72 JUMP JUMPDEST PUSH1 0x0 PUSH1 0x81 PUSH1 0x0 DUP5 PUSH20 0xFFFFFFFFFFFFFFFFFFFFFFFFFFFFFFFFFFFFFFFF AND PUSH20 0xFFFFFFFFFFFFFFFFFFFFFFFFFFFFFFFFFFFFFFFF AND DUP2 MSTORE PUSH1 0x20 ADD SWAP1 DUP2 MSTORE PUSH1 0x20 ADD PUSH1 0x0 KECCAK256 SLOAD SWAP1 POP DUP2 DUP2 LT ISZERO PUSH2 0x194D JUMPI PUSH1 0x40 MLOAD PUSH32 0x8C379A000000000000000000000000000000000000000000000000000000000 DUP2 MSTORE PUSH1 0x4 ADD PUSH2 0x1944 SWAP1 PUSH2 0x3B45 JUMP JUMPDEST PUSH1 0x40 MLOAD DUP1 SWAP2 SUB SWAP1 REVERT JUMPDEST DUP2 DUP2 SUB PUSH1 0x81 PUSH1 0x0 DUP6 PUSH20 0xFFFFFFFFFFFFFFFFFFFFFFFFFFFFFFFFFFFFFFFF AND PUSH20 0xFFFFFFFFFFFFFFFFFFFFFFFFFFFFFFFFFFFFFFFF AND DUP2 MSTORE PUSH1 0x20 ADD SWAP1 DUP2 MSTORE PUSH1 0x20 ADD PUSH1 0x0 KECCAK256 DUP2 SWAP1 SSTORE POP DUP2 PUSH1 0x83 PUSH1 0x0 DUP3 DUP3 SLOAD SUB SWAP3 POP POP DUP2 SWAP1 SSTORE POP PUSH1 0x0 PUSH20 0xFFFFFFFFFFFFFFFFFFFFFFFFFFFFFFFFFFFFFFFF AND DUP4 PUSH20 0xFFFFFFFFFFFFFFFFFFFFFFFFFFFFFFFFFFFFFFFF AND PUSH32 0xDDF252AD1BE2C89B69C2B068FC378DAA952BA7F163C4A11628F55A4DF523B3EF DUP5 PUSH1 0x40 MLOAD PUSH2 0x1A01 SWAP2 SWAP1 PUSH2 0x3DE5 JUMP JUMPDEST PUSH1 0x40 MLOAD DUP1 SWAP2 SUB SWAP1 LOG3 PUSH2 0x1A15 DUP4 PUSH1 0x0 DUP5 PUSH2 0x1B77 JUMP JUMPDEST POP POP POP JUMP JUMPDEST PUSH1 0x0 PUSH20 0xFFFFFFFFFFFFFFFFFFFFFFFFFFFFFFFFFFFFFFFF AND DUP3 PUSH20 0xFFFFFFFFFFFFFFFFFFFFFFFFFFFFFFFFFFFFFFFF AND EQ ISZERO PUSH2 0x1A8A JUMPI PUSH1 0x40 MLOAD PUSH32 0x8C379A000000000000000000000000000000000000000000000000000000000 DUP2 MSTORE PUSH1 0x4 ADD PUSH2 0x1A81 SWAP1 PUSH2 0x3DC5 JUMP JUMPDEST PUSH1 0x40 MLOAD DUP1 SWAP2 SUB SWAP1 REVERT JUMPDEST PUSH2 0x1A96 PUSH1 0x0 DUP4 DUP4 PUSH2 0x1B72 JUMP JUMPDEST DUP1 PUSH1 0x83 PUSH1 0x0 DUP3 DUP3 SLOAD PUSH2 0x1AA8 SWAP2 SWAP1 PUSH2 0x3E42 JUMP JUMPDEST SWAP3 POP POP DUP2 SWAP1 SSTORE POP DUP1 PUSH1 0x81 PUSH1 0x0 DUP5 PUSH20 0xFFFFFFFFFFFFFFFFFFFFFFFFFFFFFFFFFFFFFFFF AND PUSH20 0xFFFFFFFFFFFFFFFFFFFFFFFFFFFFFFFFFFFFFFFF AND DUP2 MSTORE PUSH1 0x20 ADD SWAP1 DUP2 MSTORE PUSH1 0x20 ADD PUSH1 0x0 KECCAK256 PUSH1 0x0 DUP3 DUP3 SLOAD ADD SWAP3 POP POP DUP2 SWAP1 SSTORE POP DUP2 PUSH20 0xFFFFFFFFFFFFFFFFFFFFFFFFFFFFFFFFFFFFFFFF AND PUSH1 0x0 PUSH20 0xFFFFFFFFFFFFFFFFFFFFFFFFFFFFFFFFFFFFFFFF AND PUSH32 0xDDF252AD1BE2C89B69C2B068FC378DAA952BA7F163C4A11628F55A4DF523B3EF DUP4 PUSH1 0x40 MLOAD PUSH2 0x1B5A SWAP2 SWAP1 PUSH2 0x3DE5 JUMP JUMPDEST PUSH1 0x40 MLOAD DUP1 SWAP2 SUB SWAP1 LOG3 PUSH2 0x1B6E PUSH1 0x0 DUP4 DUP4 PUSH2 0x1B77 JUMP JUMPDEST POP POP JUMP JUMPDEST POP POP POP JUMP JUMPDEST POP POP POP JUMP JUMPDEST PUSH1 0x0 DUP1 PUSH1 0x0 SWAP1 POP PUSH1 0x0 DUP1 PUSH1 0x0 PUSH16 0xD3094C70F034DE4B96FF7D5B6F99FCD8 DUP7 LT PUSH2 0x1BF7 JUMPI PUSH16 0x40000000000000000000000000000000 DUP5 PUSH2 0x1BBB SWAP2 SWAP1 PUSH2 0x3E42 JUMP JUMPDEST SWAP4 POP PUSH16 0xD3094C70F034DE4B96FF7D5B6F99FCD8 PUSH16 0x80000000000000000000000000000000 DUP8 PUSH2 0x1BEA SWAP2 SWAP1 PUSH2 0x3F31 JUMP JUMPDEST PUSH2 0x1BF4 SWAP2 SWAP1 PUSH2 0x3ECF JUMP JUMPDEST SWAP6 POP JUMPDEST PUSH16 0xA45AF1E1F40C333B3DE1DB4DD55F29A7 DUP7 LT PUSH2 0x1C66 JUMPI PUSH16 0x20000000000000000000000000000000 DUP5 PUSH2 0x1C2A SWAP2 SWAP1 PUSH2 0x3E42 JUMP JUMPDEST SWAP4 POP PUSH16 0xA45AF1E1F40C333B3DE1DB4DD55F29A7 PUSH16 0x80000000000000000000000000000000 DUP8 PUSH2 0x1C59 SWAP2 SWAP1 PUSH2 0x3F31 JUMP JUMPDEST PUSH2 0x1C63 SWAP2 SWAP1 PUSH2 0x3ECF JUMP JUMPDEST SWAP6 POP JUMPDEST PUSH16 0x910B022DB7AE67CE76B441C27035C6A1 DUP7 LT PUSH2 0x1CD5 JUMPI PUSH16 0x10000000000000000000000000000000 DUP5 PUSH2 0x1C99 SWAP2 SWAP1 PUSH2 0x3E42 JUMP JUMPDEST SWAP4 POP PUSH16 0x910B022DB7AE67CE76B441C27035C6A1 PUSH16 0x80000000000000000000000000000000 DUP8 PUSH2 0x1CC8 SWAP2 SWAP1 PUSH2 0x3F31 JUMP JUMPDEST PUSH2 0x1CD2 SWAP2 SWAP1 PUSH2 0x3ECF JUMP JUMPDEST SWAP6 POP JUMPDEST PUSH16 0x88415ABBE9A76BEAD8D00CF112E4D4A8 DUP7 LT PUSH2 0x1D44 JUMPI PUSH16 0x8000000000000000000000000000000 DUP5 PUSH2 0x1D08 SWAP2 SWAP1 PUSH2 0x3E42 JUMP JUMPDEST SWAP4 POP PUSH16 0x88415ABBE9A76BEAD8D00CF112E4D4A8 PUSH16 0x80000000000000000000000000000000 DUP8 PUSH2 0x1D37 SWAP2 SWAP1 PUSH2 0x3F31 JUMP JUMPDEST PUSH2 0x1D41 SWAP2 SWAP1 PUSH2 0x3ECF JUMP JUMPDEST SWAP6 POP JUMPDEST PUSH16 0x84102B00893F64C705E841D5D4064BD3 DUP7 LT PUSH2 0x1DB3 JUMPI PUSH16 0x4000000000000000000000000000000 DUP5 PUSH2 0x1D77 SWAP2 SWAP1 PUSH2 0x3E42 JUMP JUMPDEST SWAP4 POP PUSH16 0x84102B00893F64C705E841D5D4064BD3 PUSH16 0x80000000000000000000000000000000 DUP8 PUSH2 0x1DA6 SWAP2 SWAP1 PUSH2 0x3F31 JUMP JUMPDEST PUSH2 0x1DB0 SWAP2 SWAP1 PUSH2 0x3ECF JUMP JUMPDEST SWAP6 POP JUMPDEST PUSH16 0x8204055AAEF1C8BD5C3259F4822735A2 DUP7 LT PUSH2 0x1E22 JUMPI PUSH16 0x2000000000000000000000000000000 DUP5 PUSH2 0x1DE6 SWAP2 SWAP1 PUSH2 0x3E42 JUMP JUMPDEST SWAP4 POP PUSH16 0x8204055AAEF1C8BD5C3259F4822735A2 PUSH16 0x80000000000000000000000000000000 DUP8 PUSH2 0x1E15 SWAP2 SWAP1 PUSH2 0x3F31 JUMP JUMPDEST PUSH2 0x1E1F SWAP2 SWAP1 PUSH2 0x3ECF JUMP JUMPDEST SWAP6 POP JUMPDEST PUSH16 0x810100AB00222D861931C15E39B44E99 DUP7 LT PUSH2 0x1E91 JUMPI PUSH16 0x1000000000000000000000000000000 DUP5 PUSH2 0x1E55 SWAP2 SWAP1 PUSH2 0x3E42 JUMP JUMPDEST SWAP4 POP PUSH16 0x810100AB00222D861931C15E39B44E99 PUSH16 0x80000000000000000000000000000000 DUP8 PUSH2 0x1E84 SWAP2 SWAP1 PUSH2 0x3F31 JUMP JUMPDEST PUSH2 0x1E8E SWAP2 SWAP1 PUSH2 0x3ECF JUMP JUMPDEST SWAP6 POP JUMPDEST PUSH16 0x808040155AABBBE9451521693554F733 DUP7 LT PUSH2 0x1EFF JUMPI PUSH15 0x800000000000000000000000000000 DUP5 PUSH2 0x1EC3 SWAP2 SWAP1 PUSH2 0x3E42 JUMP JUMPDEST SWAP4 POP PUSH16 0x808040155AABBBE9451521693554F733 PUSH16 0x80000000000000000000000000000000 DUP8 PUSH2 0x1EF2 SWAP2 SWAP1 PUSH2 0x3F31 JUMP JUMPDEST PUSH2 0x1EFC SWAP2 SWAP1 PUSH2 0x3ECF JUMP JUMPDEST SWAP6 POP JUMPDEST PUSH16 0x80000000000000000000000000000000 DUP7 PUSH2 0x1F1B SWAP2 SWAP1 PUSH2 0x3F8B JUMP JUMPDEST SWAP3 POP DUP3 SWAP2 POP PUSH16 0x80000000000000000000000000000000 DUP4 DUP5 PUSH2 0x1F3D SWAP2 SWAP1 PUSH2 0x3F31 JUMP JUMPDEST PUSH2 0x1F47 SWAP2 SWAP1 PUSH2 0x3ECF JUMP JUMPDEST SWAP1 POP PUSH17 0x100000000000000000000000000000000 DUP4 PUSH17 0x100000000000000000000000000000000 PUSH2 0x1F78 SWAP2 SWAP1 PUSH2 0x3F8B JUMP JUMPDEST DUP4 PUSH2 0x1F83 SWAP2 SWAP1 PUSH2 0x3F31 JUMP JUMPDEST PUSH2 0x1F8D SWAP2 SWAP1 PUSH2 0x3ECF JUMP JUMPDEST DUP5 PUSH2 0x1F98 SWAP2 SWAP1 PUSH2 0x3E42 JUMP JUMPDEST SWAP4 POP PUSH16 0x80000000000000000000000000000000 DUP2 DUP4 PUSH2 0x1FB7 SWAP2 SWAP1 PUSH2 0x3F31 JUMP JUMPDEST PUSH2 0x1FC1 SWAP2 SWAP1 PUSH2 0x3ECF JUMP JUMPDEST SWAP2 POP PUSH17 0x200000000000000000000000000000000 DUP4 PUSH16 0xAAAAAAAAAAAAAAAAAAAAAAAAAAAAAAAA PUSH2 0x1FF1 SWAP2 SWAP1 PUSH2 0x3F8B JUMP JUMPDEST DUP4 PUSH2 0x1FFC SWAP2 SWAP1 PUSH2 0x3F31 JUMP JUMPDEST PUSH2 0x2006 SWAP2 SWAP1 PUSH2 0x3ECF JUMP JUMPDEST DUP5 PUSH2 0x2011 SWAP2 SWAP1 PUSH2 0x3E42 JUMP JUMPDEST SWAP4 POP PUSH16 0x80000000000000000000000000000000 DUP2 DUP4 PUSH2 0x2030 SWAP2 SWAP1 PUSH2 0x3F31 JUMP JUMPDEST PUSH2 0x203A SWAP2 SWAP1 PUSH2 0x3ECF JUMP JUMPDEST SWAP2 POP PUSH17 0x300000000000000000000000000000000 DUP4 PUSH16 0x99999999999999999999999999999999 PUSH2 0x206A SWAP2 SWAP1 PUSH2 0x3F8B JUMP JUMPDEST DUP4 PUSH2 0x2075 SWAP2 SWAP1 PUSH2 0x3F31 JUMP JUMPDEST PUSH2 0x207F SWAP2 SWAP1 PUSH2 0x3ECF JUMP JUMPDEST DUP5 PUSH2 0x208A SWAP2 SWAP1 PUSH2 0x3E42 JUMP JUMPDEST SWAP4 POP PUSH16 0x80000000000000000000000000000000 DUP2 DUP4 PUSH2 0x20A9 SWAP2 SWAP1 PUSH2 0x3F31 JUMP JUMPDEST PUSH2 0x20B3 SWAP2 SWAP1 PUSH2 0x3ECF JUMP JUMPDEST SWAP2 POP PUSH17 0x400000000000000000000000000000000 DUP4 PUSH16 0x92492492492492492492492492492492 PUSH2 0x20E3 SWAP2 SWAP1 PUSH2 0x3F8B JUMP JUMPDEST DUP4 PUSH2 0x20EE SWAP2 SWAP1 PUSH2 0x3F31 JUMP JUMPDEST PUSH2 0x20F8 SWAP2 SWAP1 PUSH2 0x3ECF JUMP JUMPDEST DUP5 PUSH2 0x2103 SWAP2 SWAP1 PUSH2 0x3E42 JUMP JUMPDEST SWAP4 POP PUSH16 0x80000000000000000000000000000000 DUP2 DUP4 PUSH2 0x2122 SWAP2 SWAP1 PUSH2 0x3F31 JUMP JUMPDEST PUSH2 0x212C SWAP2 SWAP1 PUSH2 0x3ECF JUMP JUMPDEST SWAP2 POP PUSH17 0x500000000000000000000000000000000 DUP4 PUSH16 0x8E38E38E38E38E38E38E38E38E38E38E PUSH2 0x215C SWAP2 SWAP1 PUSH2 0x3F8B JUMP JUMPDEST DUP4 PUSH2 0x2167 SWAP2 SWAP1 PUSH2 0x3F31 JUMP JUMPDEST PUSH2 0x2171 SWAP2 SWAP1 PUSH2 0x3ECF JUMP JUMPDEST DUP5 PUSH2 0x217C SWAP2 SWAP1 PUSH2 0x3E42 JUMP JUMPDEST SWAP4 POP PUSH16 0x80000000000000000000000000000000 DUP2 DUP4 PUSH2 0x219B SWAP2 SWAP1 PUSH2 0x3F31 JUMP JUMPDEST PUSH2 0x21A5 SWAP2 SWAP1 PUSH2 0x3ECF JUMP JUMPDEST SWAP2 POP PUSH17 0x600000000000000000000000000000000 DUP4 PUSH16 0x8BA2E8BA2E8BA2E8BA2E8BA2E8BA2E8B PUSH2 0x21D5 SWAP2 SWAP1 PUSH2 0x3F8B JUMP JUMPDEST DUP4 PUSH2 0x21E0 SWAP2 SWAP1 PUSH2 0x3F31 JUMP JUMPDEST PUSH2 0x21EA SWAP2 SWAP1 PUSH2 0x3ECF JUMP JUMPDEST DUP5 PUSH2 0x21F5 SWAP2 SWAP1 PUSH2 0x3E42 JUMP JUMPDEST SWAP4 POP PUSH16 0x80000000000000000000000000000000 DUP2 DUP4 PUSH2 0x2214 SWAP2 SWAP1 PUSH2 0x3F31 JUMP JUMPDEST PUSH2 0x221E SWAP2 SWAP1 PUSH2 0x3ECF JUMP JUMPDEST SWAP2 POP PUSH17 0x700000000000000000000000000000000 DUP4 PUSH16 0x89D89D89D89D89D89D89D89D89D89D89 PUSH2 0x224E SWAP2 SWAP1 PUSH2 0x3F8B JUMP JUMPDEST DUP4 PUSH2 0x2259 SWAP2 SWAP1 PUSH2 0x3F31 JUMP JUMPDEST PUSH2 0x2263 SWAP2 SWAP1 PUSH2 0x3ECF JUMP JUMPDEST DUP5 PUSH2 0x226E SWAP2 SWAP1 PUSH2 0x3E42 JUMP JUMPDEST SWAP4 POP PUSH16 0x80000000000000000000000000000000 DUP2 DUP4 PUSH2 0x228D SWAP2 SWAP1 PUSH2 0x3F31 JUMP JUMPDEST PUSH2 0x2297 SWAP2 SWAP1 PUSH2 0x3ECF JUMP JUMPDEST SWAP2 POP PUSH17 0x800000000000000000000000000000000 DUP4 PUSH16 0x88888888888888888888888888888888 PUSH2 0x22C7 SWAP2 SWAP1 PUSH2 0x3F8B JUMP JUMPDEST DUP4 PUSH2 0x22D2 SWAP2 SWAP1 PUSH2 0x3F31 JUMP JUMPDEST PUSH2 0x22DC SWAP2 SWAP1 PUSH2 0x3ECF JUMP JUMPDEST DUP5 PUSH2 0x22E7 SWAP2 SWAP1 PUSH2 0x3E42 JUMP JUMPDEST SWAP4 POP DUP4 SWAP5 POP POP POP POP POP SWAP2 SWAP1 POP JUMP JUMPDEST PUSH1 0x0 DUP1 PUSH1 0x0 SWAP1 POP PUSH1 0x0 DUP4 SWAP1 POP PUSH17 0x100000000000000000000000000000000 DUP2 LT PUSH2 0x236D JUMPI PUSH1 0x0 PUSH2 0x233F PUSH16 0x80000000000000000000000000000000 DUP4 PUSH2 0x233A SWAP2 SWAP1 PUSH2 0x3ECF JUMP JUMPDEST PUSH2 0x34C0 JUMP JUMPDEST SWAP1 POP DUP1 PUSH1 0xFF AND DUP3 SWAP1 SHR SWAP2 POP PUSH16 0x80000000000000000000000000000000 DUP2 PUSH1 0xFF AND PUSH2 0x2369 SWAP2 SWAP1 PUSH2 0x3F31 JUMP JUMPDEST SWAP3 POP POP JUMPDEST PUSH16 0x80000000000000000000000000000000 DUP2 GT ISZERO PUSH2 0x2415 JUMPI PUSH1 0x0 PUSH1 0x7F SWAP1 POP JUMPDEST PUSH1 0x0 DUP2 PUSH1 0xFF AND GT ISZERO PUSH2 0x2413 JUMPI PUSH16 0x80000000000000000000000000000000 DUP3 DUP4 PUSH2 0x23B5 SWAP2 SWAP1 PUSH2 0x3F31 JUMP JUMPDEST PUSH2 0x23BF SWAP2 SWAP1 PUSH2 0x3ECF JUMP JUMPDEST SWAP2 POP PUSH17 0x100000000000000000000000000000000 DUP3 LT PUSH2 0x2402 JUMPI PUSH1 0x1 DUP3 SWAP1 SHR SWAP2 POP PUSH1 0x1 DUP2 PUSH2 0x23ED SWAP2 SWAP1 PUSH2 0x3FBF JUMP JUMPDEST PUSH1 0xFF AND PUSH1 0x1 SWAP1 SHL DUP4 PUSH2 0x23FF SWAP2 SWAP1 PUSH2 0x3E42 JUMP JUMPDEST SWAP3 POP JUMPDEST DUP1 PUSH2 0x240C SWAP1 PUSH2 0x408B JUMP JUMPDEST SWAP1 POP PUSH2 0x238C JUMP JUMPDEST POP JUMPDEST PUSH16 0x5B9DE1D10BF4103D647B0955897BA80 PUSH16 0x3F80FE03F80FE03F80FE03F80FE03F8 DUP4 PUSH2 0x2442 SWAP2 SWAP1 PUSH2 0x3F31 JUMP JUMPDEST PUSH2 0x244C SWAP2 SWAP1 PUSH2 0x3ECF JUMP JUMPDEST SWAP3 POP POP POP SWAP2 SWAP1 POP JUMP JUMPDEST PUSH1 0x0 DUP1 PUSH1 0x0 SWAP1 POP PUSH1 0x0 DUP1 PUSH16 0x10000000000000000000000000000000 DUP6 PUSH2 0x247B SWAP2 SWAP1 PUSH2 0x40E7 JUMP JUMPDEST SWAP2 POP DUP2 SWAP1 POP PUSH16 0x80000000000000000000000000000000 DUP3 DUP3 PUSH2 0x249D SWAP2 SWAP1 PUSH2 0x3F31 JUMP JUMPDEST PUSH2 0x24A7 SWAP2 SWAP1 PUSH2 0x3ECF JUMP JUMPDEST SWAP1 POP PUSH8 0x10E1B3BE415A0000 DUP2 PUSH2 0x24BD SWAP2 SWAP1 PUSH2 0x3F31 JUMP JUMPDEST DUP4 PUSH2 0x24C8 SWAP2 SWAP1 PUSH2 0x3E42 JUMP JUMPDEST SWAP3 POP PUSH16 0x80000000000000000000000000000000 DUP3 DUP3 PUSH2 0x24E7 SWAP2 SWAP1 PUSH2 0x3F31 JUMP JUMPDEST PUSH2 0x24F1 SWAP2 SWAP1 PUSH2 0x3ECF JUMP JUMPDEST SWAP1 POP PUSH8 0x5A0913F6B1E0000 DUP2 PUSH2 0x2507 SWAP2 SWAP1 PUSH2 0x3F31 JUMP JUMPDEST DUP4 PUSH2 0x2512 SWAP2 SWAP1 PUSH2 0x3E42 JUMP JUMPDEST SWAP3 POP PUSH16 0x80000000000000000000000000000000 DUP3 DUP3 PUSH2 0x2531 SWAP2 SWAP1 PUSH2 0x3F31 JUMP JUMPDEST PUSH2 0x253B SWAP2 SWAP1 PUSH2 0x3ECF JUMP JUMPDEST SWAP1 POP PUSH8 0x168244FDAC78000 DUP2 PUSH2 0x2551 SWAP2 SWAP1 PUSH2 0x3F31 JUMP JUMPDEST DUP4 PUSH2 0x255C SWAP2 SWAP1 PUSH2 0x3E42 JUMP JUMPDEST SWAP3 POP PUSH16 0x80000000000000000000000000000000 DUP3 DUP3 PUSH2 0x257B SWAP2 SWAP1 PUSH2 0x3F31 JUMP JUMPDEST PUSH2 0x2585 SWAP2 SWAP1 PUSH2 0x3ECF JUMP JUMPDEST SWAP1 POP PUSH7 0x4807432BC18000 DUP2 PUSH2 0x259A SWAP2 SWAP1 PUSH2 0x3F31 JUMP JUMPDEST DUP4 PUSH2 0x25A5 SWAP2 SWAP1 PUSH2 0x3E42 JUMP JUMPDEST SWAP3 POP PUSH16 0x80000000000000000000000000000000 DUP3 DUP3 PUSH2 0x25C4 SWAP2 SWAP1 PUSH2 0x3F31 JUMP JUMPDEST PUSH2 0x25CE SWAP2 SWAP1 PUSH2 0x3ECF JUMP JUMPDEST SWAP1 POP PUSH7 0xC0135DCA04000 DUP2 PUSH2 0x25E3 SWAP2 SWAP1 PUSH2 0x3F31 JUMP JUMPDEST DUP4 PUSH2 0x25EE SWAP2 SWAP1 PUSH2 0x3E42 JUMP JUMPDEST SWAP3 POP PUSH16 0x80000000000000000000000000000000 DUP3 DUP3 PUSH2 0x260D SWAP2 SWAP1 PUSH2 0x3F31 JUMP JUMPDEST PUSH2 0x2617 SWAP2 SWAP1 PUSH2 0x3ECF JUMP JUMPDEST SWAP1 POP PUSH7 0x1B707B1CDC000 DUP2 PUSH2 0x262C SWAP2 SWAP1 PUSH2 0x3F31 JUMP JUMPDEST DUP4 PUSH2 0x2637 SWAP2 SWAP1 PUSH2 0x3E42 JUMP JUMPDEST SWAP3 POP PUSH16 0x80000000000000000000000000000000 DUP3 DUP3 PUSH2 0x2656 SWAP2 SWAP1 PUSH2 0x3F31 JUMP JUMPDEST PUSH2 0x2660 SWAP2 SWAP1 PUSH2 0x3ECF JUMP JUMPDEST SWAP1 POP PUSH6 0x36E0F639B800 DUP2 PUSH2 0x2674 SWAP2 SWAP1 PUSH2 0x3F31 JUMP JUMPDEST DUP4 PUSH2 0x267F SWAP2 SWAP1 PUSH2 0x3E42 JUMP JUMPDEST SWAP3 POP PUSH16 0x80000000000000000000000000000000 DUP3 DUP3 PUSH2 0x269E SWAP2 SWAP1 PUSH2 0x3F31 JUMP JUMPDEST PUSH2 0x26A8 SWAP2 SWAP1 PUSH2 0x3ECF JUMP JUMPDEST SWAP1 POP PUSH6 0x618FEE9F800 DUP2 PUSH2 0x26BC SWAP2 SWAP1 PUSH2 0x3F31 JUMP JUMPDEST DUP4 PUSH2 0x26C7 SWAP2 SWAP1 PUSH2 0x3E42 JUMP JUMPDEST SWAP3 POP PUSH16 0x80000000000000000000000000000000 DUP3 DUP3 PUSH2 0x26E6 SWAP2 SWAP1 PUSH2 0x3F31 JUMP JUMPDEST PUSH2 0x26F0 SWAP2 SWAP1 PUSH2 0x3ECF JUMP JUMPDEST SWAP1 POP PUSH5 0x9C197DCC00 DUP2 PUSH2 0x2703 SWAP2 SWAP1 PUSH2 0x3F31 JUMP JUMPDEST DUP4 PUSH2 0x270E SWAP2 SWAP1 PUSH2 0x3E42 JUMP JUMPDEST SWAP3 POP PUSH16 0x80000000000000000000000000000000 DUP3 DUP3 PUSH2 0x272D SWAP2 SWAP1 PUSH2 0x3F31 JUMP JUMPDEST PUSH2 0x2737 SWAP2 SWAP1 PUSH2 0x3ECF JUMP JUMPDEST SWAP1 POP PUSH5 0xE30DCE400 DUP2 PUSH2 0x274A SWAP2 SWAP1 PUSH2 0x3F31 JUMP JUMPDEST DUP4 PUSH2 0x2755 SWAP2 SWAP1 PUSH2 0x3E42 JUMP JUMPDEST SWAP3 POP PUSH16 0x80000000000000000000000000000000 DUP3 DUP3 PUSH2 0x2774 SWAP2 SWAP1 PUSH2 0x3F31 JUMP JUMPDEST PUSH2 0x277E SWAP2 SWAP1 PUSH2 0x3ECF JUMP JUMPDEST SWAP1 POP PUSH5 0x12EBD1300 DUP2 PUSH2 0x2791 SWAP2 SWAP1 PUSH2 0x3F31 JUMP JUMPDEST DUP4 PUSH2 0x279C SWAP2 SWAP1 PUSH2 0x3E42 JUMP JUMPDEST SWAP3 POP PUSH16 0x80000000000000000000000000000000 DUP3 DUP3 PUSH2 0x27BB SWAP2 SWAP1 PUSH2 0x3F31 JUMP JUMPDEST PUSH2 0x27C5 SWAP2 SWAP1 PUSH2 0x3ECF JUMP JUMPDEST SWAP1 POP PUSH4 0x17499F00 DUP2 PUSH2 0x27D7 SWAP2 SWAP1 PUSH2 0x3F31 JUMP JUMPDEST DUP4 PUSH2 0x27E2 SWAP2 SWAP1 PUSH2 0x3E42 JUMP JUMPDEST SWAP3 POP PUSH16 0x80000000000000000000000000000000 DUP3 DUP3 PUSH2 0x2801 SWAP2 SWAP1 PUSH2 0x3F31 JUMP JUMPDEST PUSH2 0x280B SWAP2 SWAP1 PUSH2 0x3ECF JUMP JUMPDEST SWAP1 POP PUSH4 0x1A9D480 DUP2 PUSH2 0x281D SWAP2 SWAP1 PUSH2 0x3F31 JUMP JUMPDEST DUP4 PUSH2 0x2828 SWAP2 SWAP1 PUSH2 0x3E42 JUMP JUMPDEST SWAP3 POP PUSH16 0x80000000000000000000000000000000 DUP3 DUP3 PUSH2 0x2847 SWAP2 SWAP1 PUSH2 0x3F31 JUMP JUMPDEST PUSH2 0x2851 SWAP2 SWAP1 PUSH2 0x3ECF JUMP JUMPDEST SWAP1 POP PUSH3 0x1C6380 DUP2 PUSH2 0x2862 SWAP2 SWAP1 PUSH2 0x3F31 JUMP JUMPDEST DUP4 PUSH2 0x286D SWAP2 SWAP1 PUSH2 0x3E42 JUMP JUMPDEST SWAP3 POP PUSH16 0x80000000000000000000000000000000 DUP3 DUP3 PUSH2 0x288C SWAP2 SWAP1 PUSH2 0x3F31 JUMP JUMPDEST PUSH2 0x2896 SWAP2 SWAP1 PUSH2 0x3ECF JUMP JUMPDEST SWAP1 POP PUSH3 0x1C638 DUP2 PUSH2 0x28A7 SWAP2 SWAP1 PUSH2 0x3F31 JUMP JUMPDEST DUP4 PUSH2 0x28B2 SWAP2 SWAP1 PUSH2 0x3E42 JUMP JUMPDEST SWAP3 POP PUSH16 0x80000000000000000000000000000000 DUP3 DUP3 PUSH2 0x28D1 SWAP2 SWAP1 PUSH2 0x3F31 JUMP JUMPDEST PUSH2 0x28DB SWAP2 SWAP1 PUSH2 0x3ECF JUMP JUMPDEST SWAP1 POP PUSH2 0x1AB8 DUP2 PUSH2 0x28EB SWAP2 SWAP1 PUSH2 0x3F31 JUMP JUMPDEST DUP4 PUSH2 0x28F6 SWAP2 SWAP1 PUSH2 0x3E42 JUMP JUMPDEST SWAP3 POP PUSH16 0x80000000000000000000000000000000 DUP3 DUP3 PUSH2 0x2915 SWAP2 SWAP1 PUSH2 0x3F31 JUMP JUMPDEST PUSH2 0x291F SWAP2 SWAP1 PUSH2 0x3ECF JUMP JUMPDEST SWAP1 POP PUSH2 0x17C DUP2 PUSH2 0x292F SWAP2 SWAP1 PUSH2 0x3F31 JUMP JUMPDEST DUP4 PUSH2 0x293A SWAP2 SWAP1 PUSH2 0x3E42 JUMP JUMPDEST SWAP3 POP PUSH16 0x80000000000000000000000000000000 DUP3 DUP3 PUSH2 0x2959 SWAP2 SWAP1 PUSH2 0x3F31 JUMP JUMPDEST PUSH2 0x2963 SWAP2 SWAP1 PUSH2 0x3ECF JUMP JUMPDEST SWAP1 POP PUSH1 0x14 DUP2 PUSH2 0x2972 SWAP2 SWAP1 PUSH2 0x3F31 JUMP JUMPDEST DUP4 PUSH2 0x297D SWAP2 SWAP1 PUSH2 0x3E42 JUMP JUMPDEST SWAP3 POP PUSH16 0x80000000000000000000000000000000 DUP3 DUP3 PUSH2 0x299C SWAP2 SWAP1 PUSH2 0x3F31 JUMP JUMPDEST PUSH2 0x29A6 SWAP2 SWAP1 PUSH2 0x3ECF JUMP JUMPDEST SWAP1 POP PUSH1 0x1 DUP2 PUSH2 0x29B5 SWAP2 SWAP1 PUSH2 0x3F31 JUMP JUMPDEST DUP4 PUSH2 0x29C0 SWAP2 SWAP1 PUSH2 0x3E42 JUMP JUMPDEST SWAP3 POP PUSH16 0x80000000000000000000000000000000 DUP3 PUSH8 0x21C3677C82B40000 DUP6 PUSH2 0x29E8 SWAP2 SWAP1 PUSH2 0x3ECF JUMP JUMPDEST PUSH2 0x29F2 SWAP2 SWAP1 PUSH2 0x3E42 JUMP JUMPDEST PUSH2 0x29FC SWAP2 SWAP1 PUSH2 0x3E42 JUMP JUMPDEST SWAP3 POP PUSH1 0x0 PUSH16 0x10000000000000000000000000000000 DUP7 AND EQ PUSH2 0x2A54 JUMPI PUSH17 0x18EBEF9EAC820AE8682B9793AC6D1E776 PUSH17 0x1C3D6A24ED82218787D624D3E5EBA95F9 DUP5 PUSH2 0x2A47 SWAP2 SWAP1 PUSH2 0x3F31 JUMP JUMPDEST PUSH2 0x2A51 SWAP2 SWAP1 PUSH2 0x3ECF JUMP JUMPDEST SWAP3 POP JUMPDEST PUSH1 0x0 PUSH16 0x20000000000000000000000000000000 DUP7 AND EQ PUSH2 0x2AAA JUMPI PUSH17 0x1368B2FC6F9609FE7ACEB46AA619BAED4 PUSH17 0x18EBEF9EAC820AE8682B9793AC6D1E778 DUP5 PUSH2 0x2A9D SWAP2 SWAP1 PUSH2 0x3F31 JUMP JUMPDEST PUSH2 0x2AA7 SWAP2 SWAP1 PUSH2 0x3ECF JUMP JUMPDEST SWAP3 POP JUMPDEST PUSH1 0x0 PUSH16 0x40000000000000000000000000000000 DUP7 AND EQ PUSH2 0x2AFF JUMPI PUSH16 0xBC5AB1B16779BE3575BD8F0520A9F21F PUSH17 0x1368B2FC6F9609FE7ACEB46AA619BAED5 DUP5 PUSH2 0x2AF2 SWAP2 SWAP1 PUSH2 0x3F31 JUMP JUMPDEST PUSH2 0x2AFC SWAP2 SWAP1 PUSH2 0x3ECF JUMP JUMPDEST SWAP3 POP JUMPDEST PUSH1 0x0 PUSH16 0x80000000000000000000000000000000 DUP7 AND EQ PUSH2 0x2B53 JUMPI PUSH16 0x454AAA8EFE072E7F6DDBAB84B40A55C9 PUSH16 0xBC5AB1B16779BE3575BD8F0520A9F21E DUP5 PUSH2 0x2B46 SWAP2 SWAP1 PUSH2 0x3F31 JUMP JUMPDEST PUSH2 0x2B50 SWAP2 SWAP1 PUSH2 0x3ECF JUMP JUMPDEST SWAP3 POP JUMPDEST PUSH1 0x0 PUSH17 0x100000000000000000000000000000000 DUP7 AND EQ PUSH2 0x2BA8 JUMPI PUSH16 0x960AADC109E7A3BF4578099615711EA PUSH16 0x454AAA8EFE072E7F6DDBAB84B40A55C5 DUP5 PUSH2 0x2B9B SWAP2 SWAP1 PUSH2 0x3F31 JUMP JUMPDEST PUSH2 0x2BA5 SWAP2 SWAP1 PUSH2 0x3ECF JUMP JUMPDEST SWAP3 POP JUMPDEST PUSH1 0x0 PUSH17 0x200000000000000000000000000000000 DUP7 AND EQ PUSH2 0x2BFC JUMPI PUSH15 0x2BF84208204F5977F9A8CF01FDCE3D PUSH16 0x960AADC109E7A3BF4578099615711D7 DUP5 PUSH2 0x2BEF SWAP2 SWAP1 PUSH2 0x3F31 JUMP JUMPDEST PUSH2 0x2BF9 SWAP2 SWAP1 PUSH2 0x3ECF JUMP JUMPDEST SWAP3 POP JUMPDEST PUSH1 0x0 PUSH17 0x400000000000000000000000000000000 DUP7 AND EQ PUSH2 0x2C4E JUMPI PUSH14 0x3C6AB775DD0B95B4CBEE7E65D11 PUSH15 0x2BF84208204F5977F9A8CF01FDC307 DUP5 PUSH2 0x2C41 SWAP2 SWAP1 PUSH2 0x3F31 JUMP JUMPDEST PUSH2 0x2C4B SWAP2 SWAP1 PUSH2 0x3ECF JUMP JUMPDEST SWAP3 POP JUMPDEST DUP3 SWAP4 POP POP POP POP SWAP2 SWAP1 POP JUMP JUMPDEST PUSH1 0x0 DUP1 PUSH1 0x20 SWAP1 POP PUSH1 0x0 PUSH1 0x7F SWAP1 POP JUMPDEST DUP1 PUSH1 0xFF AND PUSH1 0x1 DUP4 PUSH2 0x2C78 SWAP2 SWAP1 PUSH2 0x3E98 JUMP JUMPDEST PUSH1 0xFF AND LT ISZERO PUSH2 0x2CCE JUMPI PUSH1 0x0 PUSH1 0x2 DUP3 DUP5 PUSH2 0x2C91 SWAP2 SWAP1 PUSH2 0x3E98 JUMP JUMPDEST PUSH2 0x2C9B SWAP2 SWAP1 PUSH2 0x3F00 JUMP JUMPDEST SWAP1 POP DUP5 PUSH1 0x1 DUP3 PUSH1 0xFF AND PUSH1 0x80 DUP2 LT PUSH2 0x2CB5 JUMPI PUSH2 0x2CB4 PUSH2 0x41D4 JUMP JUMPDEST JUMPDEST ADD SLOAD LT PUSH2 0x2CC4 JUMPI DUP1 SWAP3 POP PUSH2 0x2CC8 JUMP JUMPDEST DUP1 SWAP2 POP JUMPDEST POP PUSH2 0x2C67 JUMP JUMPDEST DUP4 PUSH1 0x1 DUP3 PUSH1 0xFF AND PUSH1 0x80 DUP2 LT PUSH2 0x2CE6 JUMPI PUSH2 0x2CE5 PUSH2 0x41D4 JUMP JUMPDEST JUMPDEST ADD SLOAD LT PUSH2 0x2CF7 JUMPI DUP1 SWAP3 POP POP POP PUSH2 0x2D36 JUMP JUMPDEST DUP4 PUSH1 0x1 DUP4 PUSH1 0xFF AND PUSH1 0x80 DUP2 LT PUSH2 0x2D0F JUMPI PUSH2 0x2D0E PUSH2 0x41D4 JUMP JUMPDEST JUMPDEST ADD SLOAD LT PUSH2 0x2D20 JUMPI DUP2 SWAP3 POP POP POP PUSH2 0x2D36 JUMP JUMPDEST PUSH1 0x0 PUSH2 0x2D2F JUMPI PUSH2 0x2D2E PUSH2 0x4118 JUMP JUMPDEST JUMPDEST PUSH1 0x0 SWAP3 POP POP POP JUMPDEST SWAP2 SWAP1 POP JUMP JUMPDEST PUSH1 0x0 DUP1 DUP4 SWAP1 POP PUSH1 0x0 DUP4 PUSH1 0xFF AND DUP6 DUP4 PUSH2 0x2D53 SWAP2 SWAP1 PUSH2 0x3F31 JUMP JUMPDEST SWAP1 SHR SWAP2 POP PUSH16 0x3442C4E6074A82F1797F72AC0000000 DUP3 PUSH2 0x2D73 SWAP2 SWAP1 PUSH2 0x3F31 JUMP JUMPDEST DUP2 PUSH2 0x2D7E SWAP2 SWAP1 PUSH2 0x3E42 JUMP JUMPDEST SWAP1 POP DUP4 PUSH1 0xFF AND DUP6 DUP4 PUSH2 0x2D90 SWAP2 SWAP1 PUSH2 0x3F31 JUMP JUMPDEST SWAP1 SHR SWAP2 POP PUSH16 0x116B96F757C380FB287FD0E40000000 DUP3 PUSH2 0x2DB0 SWAP2 SWAP1 PUSH2 0x3F31 JUMP JUMPDEST DUP2 PUSH2 0x2DBB SWAP2 SWAP1 PUSH2 0x3E42 JUMP JUMPDEST SWAP1 POP DUP4 PUSH1 0xFF AND DUP6 DUP4 PUSH2 0x2DCD SWAP2 SWAP1 PUSH2 0x3F31 JUMP JUMPDEST SWAP1 SHR SWAP2 POP PUSH15 0x45AE5BDD5F0E03ECA1FF4390000000 DUP3 PUSH2 0x2DEC SWAP2 SWAP1 PUSH2 0x3F31 JUMP JUMPDEST DUP2 PUSH2 0x2DF7 SWAP2 SWAP1 PUSH2 0x3E42 JUMP JUMPDEST SWAP1 POP DUP4 PUSH1 0xFF AND DUP6 DUP4 PUSH2 0x2E09 SWAP2 SWAP1 PUSH2 0x3F31 JUMP JUMPDEST SWAP1 SHR SWAP2 POP PUSH15 0xDEFABF91302CD95B9FFDA50000000 DUP3 PUSH2 0x2E28 SWAP2 SWAP1 PUSH2 0x3F31 JUMP JUMPDEST DUP2 PUSH2 0x2E33 SWAP2 SWAP1 PUSH2 0x3E42 JUMP JUMPDEST SWAP1 POP DUP4 PUSH1 0xFF AND DUP6 DUP4 PUSH2 0x2E45 SWAP2 SWAP1 PUSH2 0x3F31 JUMP JUMPDEST SWAP1 SHR SWAP2 POP PUSH15 0x2529CA9832B22439EFFF9B8000000 DUP3 PUSH2 0x2E64 SWAP2 SWAP1 PUSH2 0x3F31 JUMP JUMPDEST DUP2 PUSH2 0x2E6F SWAP2 SWAP1 PUSH2 0x3E42 JUMP JUMPDEST SWAP1 POP DUP4 PUSH1 0xFF AND DUP6 DUP4 PUSH2 0x2E81 SWAP2 SWAP1 PUSH2 0x3F31 JUMP JUMPDEST SWAP1 SHR SWAP2 POP PUSH14 0x54F1CF12BD04E516B6DA88000000 DUP3 PUSH2 0x2E9F SWAP2 SWAP1 PUSH2 0x3F31 JUMP JUMPDEST DUP2 PUSH2 0x2EAA SWAP2 SWAP1 PUSH2 0x3E42 JUMP JUMPDEST SWAP1 POP DUP4 PUSH1 0xFF AND DUP6 DUP4 PUSH2 0x2EBC SWAP2 SWAP1 PUSH2 0x3F31 JUMP JUMPDEST SWAP1 SHR SWAP2 POP PUSH14 0xA9E39E257A09CA2D6DB51000000 DUP3 PUSH2 0x2EDA SWAP2 SWAP1 PUSH2 0x3F31 JUMP JUMPDEST DUP2 PUSH2 0x2EE5 SWAP2 SWAP1 PUSH2 0x3E42 JUMP JUMPDEST SWAP1 POP DUP4 PUSH1 0xFF AND DUP6 DUP4 PUSH2 0x2EF7 SWAP2 SWAP1 PUSH2 0x3F31 JUMP JUMPDEST SWAP1 SHR SWAP2 POP PUSH14 0x12E066E7B839FA050C309000000 DUP3 PUSH2 0x2F15 SWAP2 SWAP1 PUSH2 0x3F31 JUMP JUMPDEST DUP2 PUSH2 0x2F20 SWAP2 SWAP1 PUSH2 0x3E42 JUMP JUMPDEST SWAP1 POP DUP4 PUSH1 0xFF AND DUP6 DUP4 PUSH2 0x2F32 SWAP2 SWAP1 PUSH2 0x3F31 JUMP JUMPDEST SWAP1 SHR SWAP2 POP PUSH13 0x1E33D7D926C329A1AD1A800000 DUP3 PUSH2 0x2F4F SWAP2 SWAP1 PUSH2 0x3F31 JUMP JUMPDEST DUP2 PUSH2 0x2F5A SWAP2 SWAP1 PUSH2 0x3E42 JUMP JUMPDEST SWAP1 POP DUP4 PUSH1 0xFF AND DUP6 DUP4 PUSH2 0x2F6C SWAP2 SWAP1 PUSH2 0x3F31 JUMP JUMPDEST SWAP1 SHR SWAP2 POP PUSH13 0x2BEE513BDB4A6B19B5F800000 DUP3 PUSH2 0x2F89 SWAP2 SWAP1 PUSH2 0x3F31 JUMP JUMPDEST DUP2 PUSH2 0x2F94 SWAP2 SWAP1 PUSH2 0x3E42 JUMP JUMPDEST SWAP1 POP DUP4 PUSH1 0xFF AND DUP6 DUP4 PUSH2 0x2FA6 SWAP2 SWAP1 PUSH2 0x3F31 JUMP JUMPDEST SWAP1 SHR SWAP2 POP PUSH12 0x3A9316FA79B88ECCF2A00000 DUP3 PUSH2 0x2FC2 SWAP2 SWAP1 PUSH2 0x3F31 JUMP JUMPDEST DUP2 PUSH2 0x2FCD SWAP2 SWAP1 PUSH2 0x3E42 JUMP JUMPDEST SWAP1 POP DUP4 PUSH1 0xFF AND DUP6 DUP4 PUSH2 0x2FDF SWAP2 SWAP1 PUSH2 0x3F31 JUMP JUMPDEST SWAP1 SHR SWAP2 POP PUSH12 0x48177EBE1FA812375200000 DUP3 PUSH2 0x2FFB SWAP2 SWAP1 PUSH2 0x3F31 JUMP JUMPDEST DUP2 PUSH2 0x3006 SWAP2 SWAP1 PUSH2 0x3E42 JUMP JUMPDEST SWAP1 POP DUP4 PUSH1 0xFF AND DUP6 DUP4 PUSH2 0x3018 SWAP2 SWAP1 PUSH2 0x3F31 JUMP JUMPDEST SWAP1 SHR SWAP2 POP PUSH11 0x5263FE90242DCBACF00000 DUP3 PUSH2 0x3033 SWAP2 SWAP1 PUSH2 0x3F31 JUMP JUMPDEST DUP2 PUSH2 0x303E SWAP2 SWAP1 PUSH2 0x3E42 JUMP JUMPDEST SWAP1 POP DUP4 PUSH1 0xFF AND DUP6 DUP4 PUSH2 0x3050 SWAP2 SWAP1 PUSH2 0x3F31 JUMP JUMPDEST SWAP1 SHR SWAP2 POP PUSH11 0x57E22099C030D94100000 DUP3 PUSH2 0x306B SWAP2 SWAP1 PUSH2 0x3F31 JUMP JUMPDEST DUP2 PUSH2 0x3076 SWAP2 SWAP1 PUSH2 0x3E42 JUMP JUMPDEST SWAP1 POP DUP4 PUSH1 0xFF AND DUP6 DUP4 PUSH2 0x3088 SWAP2 SWAP1 PUSH2 0x3F31 JUMP JUMPDEST SWAP1 SHR SWAP2 POP PUSH10 0x57E22099C030D9410000 DUP3 PUSH2 0x30A2 SWAP2 SWAP1 PUSH2 0x3F31 JUMP JUMPDEST DUP2 PUSH2 0x30AD SWAP2 SWAP1 PUSH2 0x3E42 JUMP JUMPDEST SWAP1 POP DUP4 PUSH1 0xFF AND DUP6 DUP4 PUSH2 0x30BF SWAP2 SWAP1 PUSH2 0x3F31 JUMP JUMPDEST SWAP1 SHR SWAP2 POP PUSH10 0x52B6B54569976310000 DUP3 PUSH2 0x30D9 SWAP2 SWAP1 PUSH2 0x3F31 JUMP JUMPDEST DUP2 PUSH2 0x30E4 SWAP2 SWAP1 PUSH2 0x3E42 JUMP JUMPDEST SWAP1 POP DUP4 PUSH1 0xFF AND DUP6 DUP4 PUSH2 0x30F6 SWAP2 SWAP1 PUSH2 0x3F31 JUMP JUMPDEST SWAP1 SHR SWAP2 POP PUSH9 0x4985F67696BF748000 DUP3 PUSH2 0x310F SWAP2 SWAP1 PUSH2 0x3F31 JUMP JUMPDEST DUP2 PUSH2 0x311A SWAP2 SWAP1 PUSH2 0x3E42 JUMP JUMPDEST SWAP1 POP DUP4 PUSH1 0xFF AND DUP6 DUP4 PUSH2 0x312C SWAP2 SWAP1 PUSH2 0x3F31 JUMP JUMPDEST SWAP1 SHR SWAP2 POP PUSH9 0x3DEA12EA99E498000 DUP3 PUSH2 0x3145 SWAP2 SWAP1 PUSH2 0x3F31 JUMP JUMPDEST DUP2 PUSH2 0x3150 SWAP2 SWAP1 PUSH2 0x3E42 JUMP JUMPDEST SWAP1 POP DUP4 PUSH1 0xFF AND DUP6 DUP4 PUSH2 0x3162 SWAP2 SWAP1 PUSH2 0x3F31 JUMP JUMPDEST SWAP1 SHR SWAP2 POP PUSH8 0x31880F2214B6E000 DUP3 PUSH2 0x317A SWAP2 SWAP1 PUSH2 0x3F31 JUMP JUMPDEST DUP2 PUSH2 0x3185 SWAP2 SWAP1 PUSH2 0x3E42 JUMP JUMPDEST SWAP1 POP DUP4 PUSH1 0xFF AND DUP6 DUP4 PUSH2 0x3197 SWAP2 SWAP1 PUSH2 0x3F31 JUMP JUMPDEST SWAP1 SHR SWAP2 POP PUSH8 0x25BCFF56EB36000 DUP3 PUSH2 0x31AF SWAP2 SWAP1 PUSH2 0x3F31 JUMP JUMPDEST DUP2 PUSH2 0x31BA SWAP2 SWAP1 PUSH2 0x3E42 JUMP JUMPDEST SWAP1 POP DUP4 PUSH1 0xFF AND DUP6 DUP4 PUSH2 0x31CC SWAP2 SWAP1 PUSH2 0x3F31 JUMP JUMPDEST SWAP1 SHR SWAP2 POP PUSH7 0x1B722E10AB1000 DUP3 PUSH2 0x31E3 SWAP2 SWAP1 PUSH2 0x3F31 JUMP JUMPDEST DUP2 PUSH2 0x31EE SWAP2 SWAP1 PUSH2 0x3E42 JUMP JUMPDEST SWAP1 POP DUP4 PUSH1 0xFF AND DUP6 DUP4 PUSH2 0x3200 SWAP2 SWAP1 PUSH2 0x3F31 JUMP JUMPDEST SWAP1 SHR SWAP2 POP PUSH7 0x1317C70077000 DUP3 PUSH2 0x3217 SWAP2 SWAP1 PUSH2 0x3F31 JUMP JUMPDEST DUP2 PUSH2 0x3222 SWAP2 SWAP1 PUSH2 0x3E42 JUMP JUMPDEST SWAP1 POP DUP4 PUSH1 0xFF AND DUP6 DUP4 PUSH2 0x3234 SWAP2 SWAP1 PUSH2 0x3F31 JUMP JUMPDEST SWAP1 SHR SWAP2 POP PUSH6 0xCBA84AAFA00 DUP3 PUSH2 0x324A SWAP2 SWAP1 PUSH2 0x3F31 JUMP JUMPDEST DUP2 PUSH2 0x3255 SWAP2 SWAP1 PUSH2 0x3E42 JUMP JUMPDEST SWAP1 POP DUP4 PUSH1 0xFF AND DUP6 DUP4 PUSH2 0x3267 SWAP2 SWAP1 PUSH2 0x3F31 JUMP JUMPDEST SWAP1 SHR SWAP2 POP PUSH5 0x82573A0A00 DUP3 PUSH2 0x327C SWAP2 SWAP1 PUSH2 0x3F31 JUMP JUMPDEST DUP2 PUSH2 0x3287 SWAP2 SWAP1 PUSH2 0x3E42 JUMP JUMPDEST SWAP1 POP DUP4 PUSH1 0xFF AND DUP6 DUP4 PUSH2 0x3299 SWAP2 SWAP1 PUSH2 0x3F31 JUMP JUMPDEST SWAP1 SHR SWAP2 POP PUSH5 0x5035AD900 DUP3 PUSH2 0x32AE SWAP2 SWAP1 PUSH2 0x3F31 JUMP JUMPDEST DUP2 PUSH2 0x32B9 SWAP2 SWAP1 PUSH2 0x3E42 JUMP JUMPDEST SWAP1 POP DUP4 PUSH1 0xFF AND DUP6 DUP4 PUSH2 0x32CB SWAP2 SWAP1 PUSH2 0x3F31 JUMP JUMPDEST SWAP1 SHR SWAP2 POP PUSH4 0x2F881B00 DUP3 PUSH2 0x32DF SWAP2 SWAP1 PUSH2 0x3F31 JUMP JUMPDEST DUP2 PUSH2 0x32EA SWAP2 SWAP1 PUSH2 0x3E42 JUMP JUMPDEST SWAP1 POP DUP4 PUSH1 0xFF AND DUP6 DUP4 PUSH2 0x32FC SWAP2 SWAP1 PUSH2 0x3F31 JUMP JUMPDEST SWAP1 SHR SWAP2 POP PUSH4 0x1B29340 DUP3 PUSH2 0x3310 SWAP2 SWAP1 PUSH2 0x3F31 JUMP JUMPDEST DUP2 PUSH2 0x331B SWAP2 SWAP1 PUSH2 0x3E42 JUMP JUMPDEST SWAP1 POP DUP4 PUSH1 0xFF AND DUP6 DUP4 PUSH2 0x332D SWAP2 SWAP1 PUSH2 0x3F31 JUMP JUMPDEST SWAP1 SHR SWAP2 POP PUSH3 0xEFC40 DUP3 PUSH2 0x3340 SWAP2 SWAP1 PUSH2 0x3F31 JUMP JUMPDEST DUP2 PUSH2 0x334B SWAP2 SWAP1 PUSH2 0x3E42 JUMP JUMPDEST SWAP1 POP DUP4 PUSH1 0xFF AND DUP6 DUP4 PUSH2 0x335D SWAP2 SWAP1 PUSH2 0x3F31 JUMP JUMPDEST SWAP1 SHR SWAP2 POP PUSH2 0x7FE0 DUP3 PUSH2 0x336F SWAP2 SWAP1 PUSH2 0x3F31 JUMP JUMPDEST DUP2 PUSH2 0x337A SWAP2 SWAP1 PUSH2 0x3E42 JUMP JUMPDEST SWAP1 POP DUP4 PUSH1 0xFF AND DUP6 DUP4 PUSH2 0x338C SWAP2 SWAP1 PUSH2 0x3F31 JUMP JUMPDEST SWAP1 SHR SWAP2 POP PUSH2 0x420 DUP3 PUSH2 0x339E SWAP2 SWAP1 PUSH2 0x3F31 JUMP JUMPDEST DUP2 PUSH2 0x33A9 SWAP2 SWAP1 PUSH2 0x3E42 JUMP JUMPDEST SWAP1 POP DUP4 PUSH1 0xFF AND DUP6 DUP4 PUSH2 0x33BB SWAP2 SWAP1 PUSH2 0x3F31 JUMP JUMPDEST SWAP1 SHR SWAP2 POP PUSH1 0x21 DUP3 PUSH2 0x33CC SWAP2 SWAP1 PUSH2 0x3F31 JUMP JUMPDEST DUP2 PUSH2 0x33D7 SWAP2 SWAP1 PUSH2 0x3E42 JUMP JUMPDEST SWAP1 POP DUP4 PUSH1 0xFF AND DUP6 DUP4 PUSH2 0x33E9 SWAP2 SWAP1 PUSH2 0x3F31 JUMP JUMPDEST SWAP1 SHR SWAP2 POP PUSH1 0x1 DUP3 PUSH2 0x33FA SWAP2 SWAP1 PUSH2 0x3F31 JUMP JUMPDEST DUP2 PUSH2 0x3405 SWAP2 SWAP1 PUSH2 0x3E42 JUMP JUMPDEST SWAP1 POP DUP4 PUSH1 0xFF AND PUSH1 0x1 SWAP1 SHL DUP6 PUSH16 0x688589CC0E9505E2F2FEE5580000000 DUP4 PUSH2 0x342C SWAP2 SWAP1 PUSH2 0x3ECF JUMP JUMPDEST PUSH2 0x3436 SWAP2 SWAP1 PUSH2 0x3E42 JUMP JUMPDEST PUSH2 0x3440 SWAP2 SWAP1 PUSH2 0x3E42 JUMP JUMPDEST SWAP3 POP POP POP SWAP3 SWAP2 POP POP JUMP JUMPDEST PUSH1 0x0 PUSH2 0x2710 PUSH2 0x3E8 DUP4 PUSH2 0x345D SWAP2 SWAP1 PUSH2 0x3F31 JUMP JUMPDEST LT ISZERO PUSH2 0x349E JUMPI PUSH1 0x40 MLOAD PUSH32 0x8C379A000000000000000000000000000000000000000000000000000000000 DUP2 MSTORE PUSH1 0x4 ADD PUSH2 0x3495 SWAP1 PUSH2 0x3B65 JUMP JUMPDEST PUSH1 0x40 MLOAD DUP1 SWAP2 SUB SWAP1 REVERT JUMPDEST PUSH2 0x2710 PUSH2 0x3E8 DUP4 PUSH2 0x34AF SWAP2 SWAP1 PUSH2 0x3F31 JUMP JUMPDEST PUSH2 0x34B9 SWAP2 SWAP1 PUSH2 0x3ECF JUMP JUMPDEST SWAP1 POP SWAP2 SWAP1 POP JUMP JUMPDEST PUSH1 0x0 DUP1 PUSH1 0x0 SWAP1 POP PUSH1 0x0 DUP4 SWAP1 POP PUSH2 0x100 DUP2 LT ISZERO PUSH2 0x3500 JUMPI JUMPDEST PUSH1 0x1 DUP2 GT ISZERO PUSH2 0x34FB JUMPI PUSH1 0x1 DUP2 SWAP1 SHR SWAP1 POP PUSH1 0x1 DUP3 PUSH2 0x34F4 SWAP2 SWAP1 PUSH2 0x3E98 JUMP JUMPDEST SWAP2 POP PUSH2 0x34D7 JUMP JUMPDEST PUSH2 0x3541 JUMP JUMPDEST PUSH1 0x0 PUSH1 0x80 SWAP1 POP JUMPDEST PUSH1 0x0 DUP2 PUSH1 0xFF AND GT ISZERO PUSH2 0x353F JUMPI DUP1 PUSH1 0xFF AND PUSH1 0x1 SWAP1 SHL DUP3 LT PUSH2 0x3530 JUMPI DUP1 PUSH1 0xFF AND DUP3 SWAP1 SHR SWAP2 POP DUP1 DUP4 OR SWAP3 POP JUMPDEST PUSH1 0x1 DUP2 PUSH1 0xFF AND SWAP1 SHR SWAP1 POP PUSH2 0x3507 JUMP JUMPDEST POP JUMPDEST DUP2 SWAP3 POP POP POP SWAP2 SWAP1 POP JUMP JUMPDEST PUSH1 0x0 DUP2 CALLDATALOAD SWAP1 POP PUSH2 0x355A DUP2 PUSH2 0x476A JUMP JUMPDEST SWAP3 SWAP2 POP POP JUMP JUMPDEST PUSH1 0x0 DUP2 CALLDATALOAD SWAP1 POP PUSH2 0x356F DUP2 PUSH2 0x4781 JUMP JUMPDEST SWAP3 SWAP2 POP POP JUMP JUMPDEST PUSH1 0x0 DUP2 CALLDATALOAD SWAP1 POP PUSH2 0x3584 DUP2 PUSH2 0x4798 JUMP JUMPDEST SWAP3 SWAP2 POP POP JUMP JUMPDEST PUSH1 0x0 PUSH1 0x20 DUP3 DUP5 SUB SLT ISZERO PUSH2 0x35A0 JUMPI PUSH2 0x359F PUSH2 0x4203 JUMP JUMPDEST JUMPDEST PUSH1 0x0 PUSH2 0x35AE DUP5 DUP3 DUP6 ADD PUSH2 0x354B JUMP JUMPDEST SWAP2 POP POP SWAP3 SWAP2 POP POP JUMP JUMPDEST PUSH1 0x0 DUP1 PUSH1 0x40 DUP4 DUP6 SUB SLT ISZERO PUSH2 0x35CE JUMPI PUSH2 0x35CD PUSH2 0x4203 JUMP JUMPDEST JUMPDEST PUSH1 0x0 PUSH2 0x35DC DUP6 DUP3 DUP7 ADD PUSH2 0x354B JUMP JUMPDEST SWAP3 POP POP PUSH1 0x20 PUSH2 0x35ED DUP6 DUP3 DUP7 ADD PUSH2 0x354B JUMP JUMPDEST SWAP2 POP POP SWAP3 POP SWAP3 SWAP1 POP JUMP JUMPDEST PUSH1 0x0 DUP1 PUSH1 0x0 PUSH1 0x60 DUP5 DUP7 SUB SLT ISZERO PUSH2 0x3610 JUMPI PUSH2 0x360F PUSH2 0x4203 JUMP JUMPDEST JUMPDEST PUSH1 0x0 PUSH2 0x361E DUP7 DUP3 DUP8 ADD PUSH2 0x354B JUMP JUMPDEST SWAP4 POP POP PUSH1 0x20 PUSH2 0x362F DUP7 DUP3 DUP8 ADD PUSH2 0x354B JUMP JUMPDEST SWAP3 POP POP PUSH1 0x40 PUSH2 0x3640 DUP7 DUP3 DUP8 ADD PUSH2 0x3560 JUMP JUMPDEST SWAP2 POP POP SWAP3 POP SWAP3 POP SWAP3 JUMP JUMPDEST PUSH1 0x0 DUP1 PUSH1 0x40 DUP4 DUP6 SUB SLT ISZERO PUSH2 0x3661 JUMPI PUSH2 0x3660 PUSH2 0x4203 JUMP JUMPDEST JUMPDEST PUSH1 0x0 PUSH2 0x366F DUP6 DUP3 DUP7 ADD PUSH2 0x354B JUMP JUMPDEST SWAP3 POP POP PUSH1 0x20 PUSH2 0x3680 DUP6 DUP3 DUP7 ADD PUSH2 0x3560 JUMP JUMPDEST SWAP2 POP POP SWAP3 POP SWAP3 SWAP1 POP JUMP JUMPDEST PUSH1 0x0 PUSH1 0x20 DUP3 DUP5 SUB SLT ISZERO PUSH2 0x36A0 JUMPI PUSH2 0x369F PUSH2 0x4203 JUMP JUMPDEST JUMPDEST PUSH1 0x0 PUSH2 0x36AE DUP5 DUP3 DUP6 ADD PUSH2 0x3560 JUMP JUMPDEST SWAP2 POP POP SWAP3 SWAP2 POP POP JUMP JUMPDEST PUSH1 0x0 DUP1 PUSH1 0x0 DUP1 PUSH1 0x80 DUP6 DUP8 SUB SLT ISZERO PUSH2 0x36D1 JUMPI PUSH2 0x36D0 PUSH2 0x4203 JUMP JUMPDEST JUMPDEST PUSH1 0x0 PUSH2 0x36DF DUP8 DUP3 DUP9 ADD PUSH2 0x3560 JUMP JUMPDEST SWAP5 POP POP PUSH1 0x20 PUSH2 0x36F0 DUP8 DUP3 DUP9 ADD PUSH2 0x3560 JUMP JUMPDEST SWAP4 POP POP PUSH1 0x40 PUSH2 0x3701 DUP8 DUP3 DUP9 ADD PUSH2 0x3575 JUMP JUMPDEST SWAP3 POP POP PUSH1 0x60 PUSH2 0x3712 DUP8 DUP3 DUP9 ADD PUSH2 0x3560 JUMP JUMPDEST SWAP2 POP POP SWAP3 SWAP6 SWAP2 SWAP5 POP SWAP3 POP JUMP JUMPDEST PUSH2 0x3727 DUP2 PUSH2 0x3FF3 JUMP JUMPDEST DUP3 MSTORE POP POP JUMP JUMPDEST PUSH2 0x3736 DUP2 PUSH2 0x4005 JUMP JUMPDEST DUP3 MSTORE POP POP JUMP JUMPDEST PUSH1 0x0 PUSH2 0x3747 DUP3 PUSH2 0x3E1B JUMP JUMPDEST PUSH2 0x3751 DUP2 DUP6 PUSH2 0x3E31 JUMP JUMPDEST SWAP4 POP PUSH2 0x3761 DUP2 DUP6 PUSH1 0x20 DUP7 ADD PUSH2 0x4058 JUMP JUMPDEST PUSH2 0x376A DUP2 PUSH2 0x4208 JUMP JUMPDEST DUP5 ADD SWAP2 POP POP SWAP3 SWAP2 POP POP JUMP JUMPDEST PUSH1 0x0 PUSH2 0x3782 PUSH1 0x23 DUP4 PUSH2 0x3E31 JUMP JUMPDEST SWAP2 POP PUSH2 0x378D DUP3 PUSH2 0x4219 JUMP JUMPDEST PUSH1 0x40 DUP3 ADD SWAP1 POP SWAP2 SWAP1 POP JUMP JUMPDEST PUSH1 0x0 PUSH2 0x37A5 PUSH1 0x22 DUP4 PUSH2 0x3E31 JUMP JUMPDEST SWAP2 POP PUSH2 0x37B0 DUP3 PUSH2 0x4268 JUMP JUMPDEST PUSH1 0x40 DUP3 ADD SWAP1 POP SWAP2 SWAP1 POP JUMP JUMPDEST PUSH1 0x0 PUSH2 0x37C8 PUSH1 0x28 DUP4 PUSH2 0x3E31 JUMP JUMPDEST SWAP2 POP PUSH2 0x37D3 DUP3 PUSH2 0x42B7 JUMP JUMPDEST PUSH1 0x40 DUP3 ADD SWAP1 POP SWAP2 SWAP1 POP JUMP JUMPDEST PUSH1 0x0 PUSH2 0x37EB PUSH1 0x20 DUP4 PUSH2 0x3E31 JUMP JUMPDEST SWAP2 POP PUSH2 0x37F6 DUP3 PUSH2 0x4306 JUMP JUMPDEST PUSH1 0x20 DUP3 ADD SWAP1 POP SWAP2 SWAP1 POP JUMP JUMPDEST PUSH1 0x0 PUSH2 0x380E PUSH1 0x26 DUP4 PUSH2 0x3E31 JUMP JUMPDEST SWAP2 POP PUSH2 0x3819 DUP3 PUSH2 0x432F JUMP JUMPDEST PUSH1 0x40 DUP3 ADD SWAP1 POP SWAP2 SWAP1 POP JUMP JUMPDEST PUSH1 0x0 PUSH2 0x3831 PUSH1 0x22 DUP4 PUSH2 0x3E31 JUMP JUMPDEST SWAP2 POP PUSH2 0x383C DUP3 PUSH2 0x437E JUMP JUMPDEST PUSH1 0x40 DUP3 ADD SWAP1 POP SWAP2 SWAP1 POP JUMP JUMPDEST PUSH1 0x0 PUSH2 0x3854 PUSH1 0x1E DUP4 PUSH2 0x3E31 JUMP JUMPDEST SWAP2 POP PUSH2 0x385F DUP3 PUSH2 0x43CD JUMP JUMPDEST PUSH1 0x20 DUP3 ADD SWAP1 POP SWAP2 SWAP1 POP JUMP JUMPDEST PUSH1 0x0 PUSH2 0x3877 PUSH1 0x1D DUP4 PUSH2 0x3E31 JUMP JUMPDEST SWAP2 POP PUSH2 0x3882 DUP3 PUSH2 0x43F6 JUMP JUMPDEST PUSH1 0x20 DUP3 ADD SWAP1 POP SWAP2 SWAP1 POP JUMP JUMPDEST PUSH1 0x0 PUSH2 0x389A PUSH1 0x25 DUP4 PUSH2 0x3E31 JUMP JUMPDEST SWAP2 POP PUSH2 0x38A5 DUP3 PUSH2 0x441F JUMP JUMPDEST PUSH1 0x40 DUP3 ADD SWAP1 POP SWAP2 SWAP1 POP JUMP JUMPDEST PUSH1 0x0 PUSH2 0x38BD PUSH1 0x26 DUP4 PUSH2 0x3E31 JUMP JUMPDEST SWAP2 POP PUSH2 0x38C8 DUP3 PUSH2 0x446E JUMP JUMPDEST PUSH1 0x40 DUP3 ADD SWAP1 POP SWAP2 SWAP1 POP JUMP JUMPDEST PUSH1 0x0 PUSH2 0x38E0 PUSH1 0x1F DUP4 PUSH2 0x3E31 JUMP JUMPDEST SWAP2 POP PUSH2 0x38EB DUP3 PUSH2 0x44BD JUMP JUMPDEST PUSH1 0x20 DUP3 ADD SWAP1 POP SWAP2 SWAP1 POP JUMP JUMPDEST PUSH1 0x0 PUSH2 0x3903 PUSH1 0x23 DUP4 PUSH2 0x3E31 JUMP JUMPDEST SWAP2 POP PUSH2 0x390E DUP3 PUSH2 0x44E6 JUMP JUMPDEST PUSH1 0x40 DUP3 ADD SWAP1 POP SWAP2 SWAP1 POP JUMP JUMPDEST PUSH1 0x0 PUSH2 0x3926 PUSH1 0x20 DUP4 PUSH2 0x3E31 JUMP JUMPDEST SWAP2 POP PUSH2 0x3931 DUP3 PUSH2 0x4535 JUMP JUMPDEST PUSH1 0x20 DUP3 ADD SWAP1 POP SWAP2 SWAP1 POP JUMP JUMPDEST PUSH1 0x0 PUSH2 0x3949 PUSH1 0x1C DUP4 PUSH2 0x3E31 JUMP JUMPDEST SWAP2 POP PUSH2 0x3954 DUP3 PUSH2 0x455E JUMP JUMPDEST PUSH1 0x20 DUP3 ADD SWAP1 POP SWAP2 SWAP1 POP JUMP JUMPDEST PUSH1 0x0 PUSH2 0x396C PUSH1 0x18 DUP4 PUSH2 0x3E31 JUMP JUMPDEST SWAP2 POP PUSH2 0x3977 DUP3 PUSH2 0x4587 JUMP JUMPDEST PUSH1 0x20 DUP3 ADD SWAP1 POP SWAP2 SWAP1 POP JUMP JUMPDEST PUSH1 0x0 PUSH2 0x398F PUSH1 0x21 DUP4 PUSH2 0x3E31 JUMP JUMPDEST SWAP2 POP PUSH2 0x399A DUP3 PUSH2 0x45B0 JUMP JUMPDEST PUSH1 0x40 DUP3 ADD SWAP1 POP SWAP2 SWAP1 POP JUMP JUMPDEST PUSH1 0x0 PUSH2 0x39B2 PUSH1 0x25 DUP4 PUSH2 0x3E31 JUMP JUMPDEST SWAP2 POP PUSH2 0x39BD DUP3 PUSH2 0x45FF JUMP JUMPDEST PUSH1 0x40 DUP3 ADD SWAP1 POP SWAP2 SWAP1 POP JUMP JUMPDEST PUSH1 0x0 PUSH2 0x39D5 PUSH1 0x0 DUP4 PUSH2 0x3E26 JUMP JUMPDEST SWAP2 POP PUSH2 0x39E0 DUP3 PUSH2 0x464E JUMP JUMPDEST PUSH1 0x0 DUP3 ADD SWAP1 POP SWAP2 SWAP1 POP JUMP JUMPDEST PUSH1 0x0 PUSH2 0x39F8 PUSH1 0x24 DUP4 PUSH2 0x3E31 JUMP JUMPDEST SWAP2 POP PUSH2 0x3A03 DUP3 PUSH2 0x4651 JUMP JUMPDEST PUSH1 0x40 DUP3 ADD SWAP1 POP SWAP2 SWAP1 POP JUMP JUMPDEST PUSH1 0x0 PUSH2 0x3A1B PUSH1 0x1D DUP4 PUSH2 0x3E31 JUMP JUMPDEST SWAP2 POP PUSH2 0x3A26 DUP3 PUSH2 0x46A0 JUMP JUMPDEST PUSH1 0x20 DUP3 ADD SWAP1 POP SWAP2 SWAP1 POP JUMP JUMPDEST PUSH1 0x0 PUSH2 0x3A3E PUSH1 0x19 DUP4 PUSH2 0x3E31 JUMP JUMPDEST SWAP2 POP PUSH2 0x3A49 DUP3 PUSH2 0x46C9 JUMP JUMPDEST PUSH1 0x20 DUP3 ADD SWAP1 POP SWAP2 SWAP1 POP JUMP JUMPDEST PUSH1 0x0 PUSH2 0x3A61 PUSH1 0x25 DUP4 PUSH2 0x3E31 JUMP JUMPDEST SWAP2 POP PUSH2 0x3A6C DUP3 PUSH2 0x46F2 JUMP JUMPDEST PUSH1 0x40 DUP3 ADD SWAP1 POP SWAP2 SWAP1 POP JUMP JUMPDEST PUSH1 0x0 PUSH2 0x3A84 PUSH1 0x1F DUP4 PUSH2 0x3E31 JUMP JUMPDEST SWAP2 POP PUSH2 0x3A8F DUP3 PUSH2 0x4741 JUMP JUMPDEST PUSH1 0x20 DUP3 ADD SWAP1 POP SWAP2 SWAP1 POP JUMP JUMPDEST PUSH2 0x3AA3 DUP2 PUSH2 0x4031 JUMP JUMPDEST DUP3 MSTORE POP POP JUMP JUMPDEST PUSH2 0x3AB2 DUP2 PUSH2 0x404B JUMP JUMPDEST DUP3 MSTORE POP POP JUMP JUMPDEST PUSH1 0x0 PUSH2 0x3AC3 DUP3 PUSH2 0x39C8 JUMP JUMPDEST SWAP2 POP DUP2 SWAP1 POP SWAP2 SWAP1 POP JUMP JUMPDEST PUSH1 0x0 PUSH1 0x20 DUP3 ADD SWAP1 POP PUSH2 0x3AE2 PUSH1 0x0 DUP4 ADD DUP5 PUSH2 0x371E JUMP JUMPDEST SWAP3 SWAP2 POP POP JUMP JUMPDEST PUSH1 0x0 PUSH1 0x20 DUP3 ADD SWAP1 POP PUSH2 0x3AFD PUSH1 0x0 DUP4 ADD DUP5 PUSH2 0x372D JUMP JUMPDEST SWAP3 SWAP2 POP POP JUMP JUMPDEST PUSH1 0x0 PUSH1 0x20 DUP3 ADD SWAP1 POP DUP2 DUP2 SUB PUSH1 0x0 DUP4 ADD MSTORE PUSH2 0x3B1D DUP2 DUP5 PUSH2 0x373C JUMP JUMPDEST SWAP1 POP SWAP3 SWAP2 POP POP JUMP JUMPDEST PUSH1 0x0 PUSH1 0x20 DUP3 ADD SWAP1 POP DUP2 DUP2 SUB PUSH1 0x0 DUP4 ADD MSTORE PUSH2 0x3B3E DUP2 PUSH2 0x3775 JUMP JUMPDEST SWAP1 POP SWAP2 SWAP1 POP JUMP JUMPDEST PUSH1 0x0 PUSH1 0x20 DUP3 ADD SWAP1 POP DUP2 DUP2 SUB PUSH1 0x0 DUP4 ADD MSTORE PUSH2 0x3B5E DUP2 PUSH2 0x3798 JUMP JUMPDEST SWAP1 POP SWAP2 SWAP1 POP JUMP JUMPDEST PUSH1 0x0 PUSH1 0x20 DUP3 ADD SWAP1 POP DUP2 DUP2 SUB PUSH1 0x0 DUP4 ADD MSTORE PUSH2 0x3B7E DUP2 PUSH2 0x37BB JUMP JUMPDEST SWAP1 POP SWAP2 SWAP1 POP JUMP JUMPDEST PUSH1 0x0 PUSH1 0x20 DUP3 ADD SWAP1 POP DUP2 DUP2 SUB PUSH1 0x0 DUP4 ADD MSTORE PUSH2 0x3B9E DUP2 PUSH2 0x37DE JUMP JUMPDEST SWAP1 POP SWAP2 SWAP1 POP JUMP JUMPDEST PUSH1 0x0 PUSH1 0x20 DUP3 ADD SWAP1 POP DUP2 DUP2 SUB PUSH1 0x0 DUP4 ADD MSTORE PUSH2 0x3BBE DUP2 PUSH2 0x3801 JUMP JUMPDEST SWAP1 POP SWAP2 SWAP1 POP JUMP JUMPDEST PUSH1 0x0 PUSH1 0x20 DUP3 ADD SWAP1 POP DUP2 DUP2 SUB PUSH1 0x0 DUP4 ADD MSTORE PUSH2 0x3BDE DUP2 PUSH2 0x3824 JUMP JUMPDEST SWAP1 POP SWAP2 SWAP1 POP JUMP JUMPDEST PUSH1 0x0 PUSH1 0x20 DUP3 ADD SWAP1 POP DUP2 DUP2 SUB PUSH1 0x0 DUP4 ADD MSTORE PUSH2 0x3BFE DUP2 PUSH2 0x3847 JUMP JUMPDEST SWAP1 POP SWAP2 SWAP1 POP JUMP JUMPDEST PUSH1 0x0 PUSH1 0x20 DUP3 ADD SWAP1 POP DUP2 DUP2 SUB PUSH1 0x0 DUP4 ADD MSTORE PUSH2 0x3C1E DUP2 PUSH2 0x386A JUMP JUMPDEST SWAP1 POP SWAP2 SWAP1 POP JUMP JUMPDEST PUSH1 0x0 PUSH1 0x20 DUP3 ADD SWAP1 POP DUP2 DUP2 SUB PUSH1 0x0 DUP4 ADD MSTORE PUSH2 0x3C3E DUP2 PUSH2 0x388D JUMP JUMPDEST SWAP1 POP SWAP2 SWAP1 POP JUMP JUMPDEST PUSH1 0x0 PUSH1 0x20 DUP3 ADD SWAP1 POP DUP2 DUP2 SUB PUSH1 0x0 DUP4 ADD MSTORE PUSH2 0x3C5E DUP2 PUSH2 0x38B0 JUMP JUMPDEST SWAP1 POP SWAP2 SWAP1 POP JUMP JUMPDEST PUSH1 0x0 PUSH1 0x20 DUP3 ADD SWAP1 POP DUP2 DUP2 SUB PUSH1 0x0 DUP4 ADD MSTORE PUSH2 0x3C7E DUP2 PUSH2 0x38D3 JUMP JUMPDEST SWAP1 POP SWAP2 SWAP1 POP JUMP JUMPDEST PUSH1 0x0 PUSH1 0x20 DUP3 ADD SWAP1 POP DUP2 DUP2 SUB PUSH1 0x0 DUP4 ADD MSTORE PUSH2 0x3C9E DUP2 PUSH2 0x38F6 JUMP JUMPDEST SWAP1 POP SWAP2 SWAP1 POP JUMP JUMPDEST PUSH1 0x0 PUSH1 0x20 DUP3 ADD SWAP1 POP DUP2 DUP2 SUB PUSH1 0x0 DUP4 ADD MSTORE PUSH2 0x3CBE DUP2 PUSH2 0x3919 JUMP JUMPDEST SWAP1 POP SWAP2 SWAP1 POP JUMP JUMPDEST PUSH1 0x0 PUSH1 0x20 DUP3 ADD SWAP1 POP DUP2 DUP2 SUB PUSH1 0x0 DUP4 ADD MSTORE PUSH2 0x3CDE DUP2 PUSH2 0x393C JUMP JUMPDEST SWAP1 POP SWAP2 SWAP1 POP JUMP JUMPDEST PUSH1 0x0 PUSH1 0x20 DUP3 ADD SWAP1 POP DUP2 DUP2 SUB PUSH1 0x0 DUP4 ADD MSTORE PUSH2 0x3CFE DUP2 PUSH2 0x395F JUMP JUMPDEST SWAP1 POP SWAP2 SWAP1 POP JUMP JUMPDEST PUSH1 0x0 PUSH1 0x20 DUP3 ADD SWAP1 POP DUP2 DUP2 SUB PUSH1 0x0 DUP4 ADD MSTORE PUSH2 0x3D1E DUP2 PUSH2 0x3982 JUMP JUMPDEST SWAP1 POP SWAP2 SWAP1 POP JUMP JUMPDEST PUSH1 0x0 PUSH1 0x20 DUP3 ADD SWAP1 POP DUP2 DUP2 SUB PUSH1 0x0 DUP4 ADD MSTORE PUSH2 0x3D3E DUP2 PUSH2 0x39A5 JUMP JUMPDEST SWAP1 POP SWAP2 SWAP1 POP JUMP JUMPDEST PUSH1 0x0 PUSH1 0x20 DUP3 ADD SWAP1 POP DUP2 DUP2 SUB PUSH1 0x0 DUP4 ADD MSTORE PUSH2 0x3D5E DUP2 PUSH2 0x39EB JUMP JUMPDEST SWAP1 POP SWAP2 SWAP1 POP JUMP JUMPDEST PUSH1 0x0 PUSH1 0x20 DUP3 ADD SWAP1 POP DUP2 DUP2 SUB PUSH1 0x0 DUP4 ADD MSTORE PUSH2 0x3D7E DUP2 PUSH2 0x3A0E JUMP JUMPDEST SWAP1 POP SWAP2 SWAP1 POP JUMP JUMPDEST PUSH1 0x0 PUSH1 0x20 DUP3 ADD SWAP1 POP DUP2 DUP2 SUB PUSH1 0x0 DUP4 ADD MSTORE PUSH2 0x3D9E DUP2 PUSH2 0x3A31 JUMP JUMPDEST SWAP1 POP SWAP2 SWAP1 POP JUMP JUMPDEST PUSH1 0x0 PUSH1 0x20 DUP3 ADD SWAP1 POP DUP2 DUP2 SUB PUSH1 0x0 DUP4 ADD MSTORE PUSH2 0x3DBE DUP2 PUSH2 0x3A54 JUMP JUMPDEST SWAP1 POP SWAP2 SWAP1 POP JUMP JUMPDEST PUSH1 0x0 PUSH1 0x20 DUP3 ADD SWAP1 POP DUP2 DUP2 SUB PUSH1 0x0 DUP4 ADD MSTORE PUSH2 0x3DDE DUP2 PUSH2 0x3A77 JUMP JUMPDEST SWAP1 POP SWAP2 SWAP1 POP JUMP JUMPDEST PUSH1 0x0 PUSH1 0x20 DUP3 ADD SWAP1 POP PUSH2 0x3DFA PUSH1 0x0 DUP4 ADD DUP5 PUSH2 0x3A9A JUMP JUMPDEST SWAP3 SWAP2 POP POP JUMP JUMPDEST PUSH1 0x0 PUSH1 0x20 DUP3 ADD SWAP1 POP PUSH2 0x3E15 PUSH1 0x0 DUP4 ADD DUP5 PUSH2 0x3AA9 JUMP JUMPDEST SWAP3 SWAP2 POP POP JUMP JUMPDEST PUSH1 0x0 DUP2 MLOAD SWAP1 POP SWAP2 SWAP1 POP JUMP JUMPDEST PUSH1 0x0 DUP2 SWAP1 POP SWAP3 SWAP2 POP POP JUMP JUMPDEST PUSH1 0x0 DUP3 DUP3 MSTORE PUSH1 0x20 DUP3 ADD SWAP1 POP SWAP3 SWAP2 POP POP JUMP JUMPDEST PUSH1 0x0 PUSH2 0x3E4D DUP3 PUSH2 0x4031 JUMP JUMPDEST SWAP2 POP PUSH2 0x3E58 DUP4 PUSH2 0x4031 JUMP JUMPDEST SWAP3 POP DUP3 PUSH32 0xFFFFFFFFFFFFFFFFFFFFFFFFFFFFFFFFFFFFFFFFFFFFFFFFFFFFFFFFFFFFFFFF SUB DUP3 GT ISZERO PUSH2 0x3E8D JUMPI PUSH2 0x3E8C PUSH2 0x4147 JUMP JUMPDEST JUMPDEST DUP3 DUP3 ADD SWAP1 POP SWAP3 SWAP2 POP POP JUMP JUMPDEST PUSH1 0x0 PUSH2 0x3EA3 DUP3 PUSH2 0x404B JUMP JUMPDEST SWAP2 POP PUSH2 0x3EAE DUP4 PUSH2 0x404B JUMP JUMPDEST SWAP3 POP DUP3 PUSH1 0xFF SUB DUP3 GT ISZERO PUSH2 0x3EC4 JUMPI PUSH2 0x3EC3 PUSH2 0x4147 JUMP JUMPDEST JUMPDEST DUP3 DUP3 ADD SWAP1 POP SWAP3 SWAP2 POP POP JUMP JUMPDEST PUSH1 0x0 PUSH2 0x3EDA DUP3 PUSH2 0x4031 JUMP JUMPDEST SWAP2 POP PUSH2 0x3EE5 DUP4 PUSH2 0x4031 JUMP JUMPDEST SWAP3 POP DUP3 PUSH2 0x3EF5 JUMPI PUSH2 0x3EF4 PUSH2 0x4176 JUMP JUMPDEST JUMPDEST DUP3 DUP3 DIV SWAP1 POP SWAP3 SWAP2 POP POP JUMP JUMPDEST PUSH1 0x0 PUSH2 0x3F0B DUP3 PUSH2 0x404B JUMP JUMPDEST SWAP2 POP PUSH2 0x3F16 DUP4 PUSH2 0x404B JUMP JUMPDEST SWAP3 POP DUP3 PUSH2 0x3F26 JUMPI PUSH2 0x3F25 PUSH2 0x4176 JUMP JUMPDEST JUMPDEST DUP3 DUP3 DIV SWAP1 POP SWAP3 SWAP2 POP POP JUMP JUMPDEST PUSH1 0x0 PUSH2 0x3F3C DUP3 PUSH2 0x4031 JUMP JUMPDEST SWAP2 POP PUSH2 0x3F47 DUP4 PUSH2 0x4031 JUMP JUMPDEST SWAP3 POP DUP2 PUSH32 0xFFFFFFFFFFFFFFFFFFFFFFFFFFFFFFFFFFFFFFFFFFFFFFFFFFFFFFFFFFFFFFFF DIV DUP4 GT DUP3 ISZERO ISZERO AND ISZERO PUSH2 0x3F80 JUMPI PUSH2 0x3F7F PUSH2 0x4147 JUMP JUMPDEST JUMPDEST DUP3 DUP3 MUL SWAP1 POP SWAP3 SWAP2 POP POP JUMP JUMPDEST PUSH1 0x0 PUSH2 0x3F96 DUP3 PUSH2 0x4031 JUMP JUMPDEST SWAP2 POP PUSH2 0x3FA1 DUP4 PUSH2 0x4031 JUMP JUMPDEST SWAP3 POP DUP3 DUP3 LT ISZERO PUSH2 0x3FB4 JUMPI PUSH2 0x3FB3 PUSH2 0x4147 JUMP JUMPDEST JUMPDEST DUP3 DUP3 SUB SWAP1 POP SWAP3 SWAP2 POP POP JUMP JUMPDEST PUSH1 0x0 PUSH2 0x3FCA DUP3 PUSH2 0x404B JUMP JUMPDEST SWAP2 POP PUSH2 0x3FD5 DUP4 PUSH2 0x404B JUMP JUMPDEST SWAP3 POP DUP3 DUP3 LT ISZERO PUSH2 0x3FE8 JUMPI PUSH2 0x3FE7 PUSH2 0x4147 JUMP JUMPDEST JUMPDEST DUP3 DUP3 SUB SWAP1 POP SWAP3 SWAP2 POP POP JUMP JUMPDEST PUSH1 0x0 PUSH2 0x3FFE DUP3 PUSH2 0x4011 JUMP JUMPDEST SWAP1 POP SWAP2 SWAP1 POP JUMP JUMPDEST PUSH1 0x0 DUP2 ISZERO ISZERO SWAP1 POP SWAP2 SWAP1 POP JUMP JUMPDEST PUSH1 0x0 PUSH20 0xFFFFFFFFFFFFFFFFFFFFFFFFFFFFFFFFFFFFFFFF DUP3 AND SWAP1 POP SWAP2 SWAP1 POP JUMP JUMPDEST PUSH1 0x0 DUP2 SWAP1 POP SWAP2 SWAP1 POP JUMP JUMPDEST PUSH1 0x0 PUSH4 0xFFFFFFFF DUP3 AND SWAP1 POP SWAP2 SWAP1 POP JUMP JUMPDEST PUSH1 0x0 PUSH1 0xFF DUP3 AND SWAP1 POP SWAP2 SWAP1 POP JUMP JUMPDEST PUSH1 0x0 JUMPDEST DUP4 DUP2 LT ISZERO PUSH2 0x4076 JUMPI DUP1 DUP3 ADD MLOAD DUP2 DUP5 ADD MSTORE PUSH1 0x20 DUP2 ADD SWAP1 POP PUSH2 0x405B JUMP JUMPDEST DUP4 DUP2 GT ISZERO PUSH2 0x4085 JUMPI PUSH1 0x0 DUP5 DUP5 ADD MSTORE JUMPDEST POP POP POP POP JUMP JUMPDEST PUSH1 0x0 PUSH2 0x4096 DUP3 PUSH2 0x404B JUMP JUMPDEST SWAP2 POP PUSH1 0x0 DUP3 EQ ISZERO PUSH2 0x40AA JUMPI PUSH2 0x40A9 PUSH2 0x4147 JUMP JUMPDEST JUMPDEST PUSH1 0x1 DUP3 SUB SWAP1 POP SWAP2 SWAP1 POP JUMP JUMPDEST PUSH1 0x0 PUSH1 0x2 DUP3 DIV SWAP1 POP PUSH1 0x1 DUP3 AND DUP1 PUSH2 0x40CD JUMPI PUSH1 0x7F DUP3 AND SWAP2 POP JUMPDEST PUSH1 0x20 DUP3 LT DUP2 EQ ISZERO PUSH2 0x40E1 JUMPI PUSH2 0x40E0 PUSH2 0x41A5 JUMP JUMPDEST JUMPDEST POP SWAP2 SWAP1 POP JUMP JUMPDEST PUSH1 0x0 PUSH2 0x40F2 DUP3 PUSH2 0x4031 JUMP JUMPDEST SWAP2 POP PUSH2 0x40FD DUP4 PUSH2 0x4031 JUMP JUMPDEST SWAP3 POP DUP3 PUSH2 0x410D JUMPI PUSH2 0x410C PUSH2 0x4176 JUMP JUMPDEST JUMPDEST DUP3 DUP3 MOD SWAP1 POP SWAP3 SWAP2 POP POP JUMP JUMPDEST PUSH32 0x4E487B7100000000000000000000000000000000000000000000000000000000 PUSH1 0x0 MSTORE PUSH1 0x1 PUSH1 0x4 MSTORE PUSH1 0x24 PUSH1 0x0 REVERT JUMPDEST PUSH32 0x4E487B7100000000000000000000000000000000000000000000000000000000 PUSH1 0x0 MSTORE PUSH1 0x11 PUSH1 0x4 MSTORE PUSH1 0x24 PUSH1 0x0 REVERT JUMPDEST PUSH32 0x4E487B7100000000000000000000000000000000000000000000000000000000 PUSH1 0x0 MSTORE PUSH1 0x12 PUSH1 0x4 MSTORE PUSH1 0x24 PUSH1 0x0 REVERT JUMPDEST PUSH32 0x4E487B7100000000000000000000000000000000000000000000000000000000 PUSH1 0x0 MSTORE PUSH1 0x22 PUSH1 0x4 MSTORE PUSH1 0x24 PUSH1 0x0 REVERT JUMPDEST PUSH32 0x4E487B7100000000000000000000000000000000000000000000000000000000 PUSH1 0x0 MSTORE PUSH1 0x32 PUSH1 0x4 MSTORE PUSH1 0x24 PUSH1 0x0 REVERT JUMPDEST PUSH1 0x0 DUP1 REVERT JUMPDEST PUSH1 0x0 PUSH1 0x1F NOT PUSH1 0x1F DUP4 ADD AND SWAP1 POP SWAP2 SWAP1 POP JUMP JUMPDEST PUSH32 0x45524332303A207472616E7366657220746F20746865207A65726F2061646472 PUSH1 0x0 DUP3 ADD MSTORE PUSH32 0x6573730000000000000000000000000000000000000000000000000000000000 PUSH1 0x20 DUP3 ADD MSTORE POP JUMP JUMPDEST PUSH32 0x45524332303A206275726E20616D6F756E7420657863656564732062616C616E PUSH1 0x0 DUP3 ADD MSTORE PUSH32 0x6365000000000000000000000000000000000000000000000000000000000000 PUSH1 0x20 DUP3 ADD MSTORE POP JUMP JUMPDEST PUSH32 0x45524332303A20546F6B656E2073656C6C20616D6F756E74206D757374206265 PUSH1 0x0 DUP3 ADD MSTORE PUSH32 0x206269676765722E000000000000000000000000000000000000000000000000 PUSH1 0x20 DUP3 ADD MSTORE POP JUMP JUMPDEST PUSH32 0x45524332303A204465706F736974206D757374206265206E6F6E2D7A65726F2E PUSH1 0x0 DUP3 ADD MSTORE POP JUMP JUMPDEST PUSH32 0x4F776E61626C653A206E6577206F776E657220697320746865207A65726F2061 PUSH1 0x0 DUP3 ADD MSTORE PUSH32 0x6464726573730000000000000000000000000000000000000000000000000000 PUSH1 0x20 DUP3 ADD MSTORE POP JUMP JUMPDEST PUSH32 0x45524332303A20617070726F766520746F20746865207A65726F206164647265 PUSH1 0x0 DUP3 ADD MSTORE PUSH32 0x7373000000000000000000000000000000000000000000000000000000000000 PUSH1 0x20 DUP3 ADD MSTORE POP JUMP JUMPDEST PUSH32 0x45524332303A204E6F206665657320666F72207769746864726177616C2E0000 PUSH1 0x0 DUP3 ADD MSTORE POP JUMP JUMPDEST PUSH32 0x45524332303A20696E73756666696369656E7420616C6C6F77616E6365000000 PUSH1 0x0 DUP3 ADD MSTORE POP JUMP JUMPDEST PUSH32 0x45524332303A204D7573742073656E6420657468657220746F2062757920746F PUSH1 0x0 DUP3 ADD MSTORE PUSH32 0x6B656E732E000000000000000000000000000000000000000000000000000000 PUSH1 0x20 DUP3 ADD MSTORE POP JUMP JUMPDEST PUSH32 0x45524332303A207472616E7366657220616D6F756E7420657863656564732062 PUSH1 0x0 DUP3 ADD MSTORE PUSH32 0x616C616E63650000000000000000000000000000000000000000000000000000 PUSH1 0x20 DUP3 ADD MSTORE POP JUMP JUMPDEST PUSH32 0x45524332303A20416D6F756E74206D757374206265206E6F6E2D7A65726F2E00 PUSH1 0x0 DUP3 ADD MSTORE POP JUMP JUMPDEST PUSH32 0x45524332303A20496E73756666696369656E7420746F6B656E7320746F206275 PUSH1 0x0 DUP3 ADD MSTORE PUSH32 0x726E2E0000000000000000000000000000000000000000000000000000000000 PUSH1 0x20 DUP3 ADD MSTORE POP JUMP JUMPDEST PUSH32 0x4F776E61626C653A2063616C6C6572206973206E6F7420746865206F776E6572 PUSH1 0x0 DUP3 ADD MSTORE POP JUMP JUMPDEST PUSH32 0x4261736573203C203120617265206E6F7420737570706F727465642E00000000 PUSH1 0x0 DUP3 ADD MSTORE POP JUMP JUMPDEST PUSH32 0x626173654E2065786365656473206D61782076616C75652E0000000000000000 PUSH1 0x0 DUP3 ADD MSTORE POP JUMP JUMPDEST PUSH32 0x45524332303A206275726E2066726F6D20746865207A65726F20616464726573 PUSH1 0x0 DUP3 ADD MSTORE PUSH32 0x7300000000000000000000000000000000000000000000000000000000000000 PUSH1 0x20 DUP3 ADD MSTORE POP JUMP JUMPDEST PUSH32 0x45524332303A207472616E736665722066726F6D20746865207A65726F206164 PUSH1 0x0 DUP3 ADD MSTORE PUSH32 0x6472657373000000000000000000000000000000000000000000000000000000 PUSH1 0x20 DUP3 ADD MSTORE POP JUMP JUMPDEST POP JUMP JUMPDEST PUSH32 0x45524332303A20617070726F76652066726F6D20746865207A65726F20616464 PUSH1 0x0 DUP3 ADD MSTORE PUSH32 0x7265737300000000000000000000000000000000000000000000000000000000 PUSH1 0x20 DUP3 ADD MSTORE POP JUMP JUMPDEST PUSH32 0x45524332303A20466565207769746864726177616C206661696C65642E000000 PUSH1 0x0 DUP3 ADD MSTORE POP JUMP JUMPDEST PUSH32 0x45524332303A20546F6B656E2073656C6C206661696C65642E00000000000000 PUSH1 0x0 DUP3 ADD MSTORE POP JUMP JUMPDEST PUSH32 0x45524332303A2064656372656173656420616C6C6F77616E63652062656C6F77 PUSH1 0x0 DUP3 ADD MSTORE PUSH32 0x207A65726F000000000000000000000000000000000000000000000000000000 PUSH1 0x20 DUP3 ADD MSTORE POP JUMP JUMPDEST PUSH32 0x45524332303A206D696E7420746F20746865207A65726F206164647265737300 PUSH1 0x0 DUP3 ADD MSTORE POP JUMP JUMPDEST PUSH2 0x4773 DUP2 PUSH2 0x3FF3 JUMP JUMPDEST DUP2 EQ PUSH2 0x477E JUMPI PUSH1 0x0 DUP1 REVERT JUMPDEST POP JUMP JUMPDEST PUSH2 0x478A DUP2 PUSH2 0x4031 JUMP JUMPDEST DUP2 EQ PUSH2 0x4795 JUMPI PUSH1 0x0 DUP1 REVERT JUMPDEST POP JUMP JUMPDEST PUSH2 0x47A1 DUP2 PUSH2 0x403B JUMP JUMPDEST DUP2 EQ PUSH2 0x47AC JUMPI PUSH1 0x0 DUP1 REVERT JUMPDEST POP JUMP INVALID LOG2 PUSH5 0x6970667358 0x22 SLT KECCAK256 DELEGATECALL 0x4D CODESIZE 0x24 LOG3 SSTORE SWAP14 0xE 0x4B TIMESTAMP SDIV DUP5 0x28 BALANCE 0x23 0xAE 0xB9 MLOAD DUP11 0xBE SWAP8 DUP14 EXTCODEHASH 0xD8 0x21 0xE1 0xE0 LT POP 0xF8 PUSH10 0x1A64736F6C6343000807 STOP CALLER "
		},
		"gasEstimates": {
			"creation": {
				"codeDepositCost": "3681000",
				"executionCost": "infinite",
				"totalCost": "infinite"
			},
			"external": {
				"allowance(address,address)": "infinite",
				"approve(address,uint256)": "infinite",
				"balanceOf(address)": "2886",
				"burn(uint256)": "infinite",
				"burnFrom(address,uint256)": "infinite",
				"calculateContinuousBurnReturn(uint256)": "infinite",
				"calculateContinuousMintReturn(uint256)": "infinite",
				"calculatePurchaseReturn(uint256,uint256,uint32,uint256)": "infinite",
				"calculateSaleReturn(uint256,uint256,uint32,uint256)": "infinite",
				"decimals()": "410",
				"decreaseAllowance(address,uint256)": "infinite",
				"increaseAllowance(address,uint256)": "infinite",
				"mint()": "infinite",
				"name()": "infinite",
				"owner()": "2633",
				"renounceOwnership()": "30465",
				"reserveBalance()": "2496",
				"symbol()": "infinite",
				"totalFee()": "2541",
				"totalSupply()": "2527",
				"transfer(address,uint256)": "infinite",
				"transferFrom(address,address,uint256)": "infinite",
				"transferOwnership(address)": "30857",
				"version()": "infinite",
				"withdrawFee()": "infinite"
			},
			"internal": {
				"_calculateFee(uint256)": "infinite",
				"_continuousBurn(uint256)": "infinite",
				"_continuousMint(uint256)": "infinite"
			}
		},
		"methodIdentifiers": {
			"allowance(address,address)": "dd62ed3e",
			"approve(address,uint256)": "095ea7b3",
			"balanceOf(address)": "70a08231",
			"burn(uint256)": "42966c68",
			"burnFrom(address,uint256)": "79cc6790",
			"calculateContinuousBurnReturn(uint256)": "90f0c2ea",
			"calculateContinuousMintReturn(uint256)": "28c3d701",
			"calculatePurchaseReturn(uint256,uint256,uint32,uint256)": "29a00e7c",
			"calculateSaleReturn(uint256,uint256,uint32,uint256)": "49f9b0f7",
			"decimals()": "313ce567",
			"decreaseAllowance(address,uint256)": "a457c2d7",
			"increaseAllowance(address,uint256)": "39509351",
			"mint()": "1249c58b",
			"name()": "06fdde03",
			"owner()": "8da5cb5b",
			"renounceOwnership()": "715018a6",
			"reserveBalance()": "a10954fe",
			"symbol()": "95d89b41",
			"totalFee()": "1df4ccfc",
			"totalSupply()": "18160ddd",
			"transfer(address,uint256)": "a9059cbb",
			"transferFrom(address,address,uint256)": "23b872dd",
			"transferOwnership(address)": "f2fde38b",
			"version()": "54fd4d50",
			"withdrawFee()": "e941fa78"
		}
	},
	"abi": [
		{
			"inputs": [],
			"stateMutability": "nonpayable",
			"type": "constructor"
		},
		{
			"anonymous": false,
			"inputs": [
				{
					"indexed": true,
					"internalType": "address",
					"name": "owner",
					"type": "address"
				},
				{
					"indexed": true,
					"internalType": "address",
					"name": "spender",
					"type": "address"
				},
				{
					"indexed": false,
					"internalType": "uint256",
					"name": "value",
					"type": "uint256"
				}
			],
			"name": "Approval",
			"type": "event"
		},
		{
			"anonymous": false,
			"inputs": [
				{
					"indexed": true,
					"internalType": "address",
					"name": "previousOwner",
					"type": "address"
				},
				{
					"indexed": true,
					"internalType": "address",
					"name": "newOwner",
					"type": "address"
				}
			],
			"name": "OwnershipTransferred",
			"type": "event"
		},
		{
			"anonymous": false,
			"inputs": [
				{
					"indexed": true,
					"internalType": "address",
					"name": "from",
					"type": "address"
				},
				{
					"indexed": true,
					"internalType": "address",
					"name": "to",
					"type": "address"
				},
				{
					"indexed": false,
					"internalType": "uint256",
					"name": "value",
					"type": "uint256"
				}
			],
			"name": "Transfer",
			"type": "event"
		},
		{
			"inputs": [
				{
					"internalType": "address",
					"name": "owner",
					"type": "address"
				},
				{
					"internalType": "address",
					"name": "spender",
					"type": "address"
				}
			],
			"name": "allowance",
			"outputs": [
				{
					"internalType": "uint256",
					"name": "",
					"type": "uint256"
				}
			],
			"stateMutability": "view",
			"type": "function"
		},
		{
			"inputs": [
				{
					"internalType": "address",
					"name": "spender",
					"type": "address"
				},
				{
					"internalType": "uint256",
					"name": "amount",
					"type": "uint256"
				}
			],
			"name": "approve",
			"outputs": [
				{
					"internalType": "bool",
					"name": "",
					"type": "bool"
				}
			],
			"stateMutability": "nonpayable",
			"type": "function"
		},
		{
			"inputs": [
				{
					"internalType": "address",
					"name": "account",
					"type": "address"
				}
			],
			"name": "balanceOf",
			"outputs": [
				{
					"internalType": "uint256",
					"name": "",
					"type": "uint256"
				}
			],
			"stateMutability": "view",
			"type": "function"
		},
		{
			"inputs": [
				{
					"internalType": "uint256",
					"name": "_amount",
					"type": "uint256"
				}
			],
			"name": "burn",
			"outputs": [],
			"stateMutability": "nonpayable",
			"type": "function"
		},
		{
			"inputs": [
				{
					"internalType": "address",
					"name": "account",
					"type": "address"
				},
				{
					"internalType": "uint256",
					"name": "amount",
					"type": "uint256"
				}
			],
			"name": "burnFrom",
			"outputs": [],
			"stateMutability": "nonpayable",
			"type": "function"
		},
		{
			"inputs": [
				{
					"internalType": "uint256",
					"name": "_amount",
					"type": "uint256"
				}
			],
			"name": "calculateContinuousBurnReturn",
			"outputs": [
				{
					"internalType": "uint256",
					"name": "burnAmount",
					"type": "uint256"
				}
			],
			"stateMutability": "view",
			"type": "function"
		},
		{
			"inputs": [
				{
					"internalType": "uint256",
					"name": "_amount",
					"type": "uint256"
				}
			],
			"name": "calculateContinuousMintReturn",
			"outputs": [
				{
					"internalType": "uint256",
					"name": "mintAmount",
					"type": "uint256"
				}
			],
			"stateMutability": "view",
			"type": "function"
		},
		{
			"inputs": [
				{
					"internalType": "uint256",
					"name": "_supply",
					"type": "uint256"
				},
				{
					"internalType": "uint256",
					"name": "_reserveBalance",
					"type": "uint256"
				},
				{
					"internalType": "uint32",
					"name": "_reserveRatio",
					"type": "uint32"
				},
				{
					"internalType": "uint256",
					"name": "_depositAmount",
					"type": "uint256"
				}
			],
			"name": "calculatePurchaseReturn",
			"outputs": [
				{
					"internalType": "uint256",
					"name": "",
					"type": "uint256"
				}
			],
			"stateMutability": "view",
			"type": "function"
		},
		{
			"inputs": [
				{
					"internalType": "uint256",
					"name": "_supply",
					"type": "uint256"
				},
				{
					"internalType": "uint256",
					"name": "_reserveBalance",
					"type": "uint256"
				},
				{
					"internalType": "uint32",
					"name": "_reserveRatio",
					"type": "uint32"
				},
				{
					"internalType": "uint256",
					"name": "_sellAmount",
					"type": "uint256"
				}
			],
			"name": "calculateSaleReturn",
			"outputs": [
				{
					"internalType": "uint256",
					"name": "",
					"type": "uint256"
				}
			],
			"stateMutability": "view",
			"type": "function"
		},
		{
			"inputs": [],
			"name": "decimals",
			"outputs": [
				{
					"internalType": "uint8",
					"name": "",
					"type": "uint8"
				}
			],
			"stateMutability": "view",
			"type": "function"
		},
		{
			"inputs": [
				{
					"internalType": "address",
					"name": "spender",
					"type": "address"
				},
				{
					"internalType": "uint256",
					"name": "subtractedValue",
					"type": "uint256"
				}
			],
			"name": "decreaseAllowance",
			"outputs": [
				{
					"internalType": "bool",
					"name": "",
					"type": "bool"
				}
			],
			"stateMutability": "nonpayable",
			"type": "function"
		},
		{
			"inputs": [
				{
					"internalType": "address",
					"name": "spender",
					"type": "address"
				},
				{
					"internalType": "uint256",
					"name": "addedValue",
					"type": "uint256"
				}
			],
			"name": "increaseAllowance",
			"outputs": [
				{
					"internalType": "bool",
					"name": "",
					"type": "bool"
				}
			],
			"stateMutability": "nonpayable",
			"type": "function"
		},
		{
			"inputs": [],
			"name": "mint",
			"outputs": [],
			"stateMutability": "payable",
			"type": "function"
		},
		{
			"inputs": [],
			"name": "name",
			"outputs": [
				{
					"internalType": "string",
					"name": "",
					"type": "string"
				}
			],
			"stateMutability": "view",
			"type": "function"
		},
		{
			"inputs": [],
			"name": "owner",
			"outputs": [
				{
					"internalType": "address",
					"name": "",
					"type": "address"
				}
			],
			"stateMutability": "view",
			"type": "function"
		},
		{
			"inputs": [],
			"name": "renounceOwnership",
			"outputs": [],
			"stateMutability": "nonpayable",
			"type": "function"
		},
		{
			"inputs": [],
			"name": "reserveBalance",
			"outputs": [
				{
					"internalType": "uint256",
					"name": "",
					"type": "uint256"
				}
			],
			"stateMutability": "view",
			"type": "function"
		},
		{
			"inputs": [],
			"name": "symbol",
			"outputs": [
				{
					"internalType": "string",
					"name": "",
					"type": "string"
				}
			],
			"stateMutability": "view",
			"type": "function"
		},
		{
			"inputs": [],
			"name": "totalFee",
			"outputs": [
				{
					"internalType": "uint256",
					"name": "",
					"type": "uint256"
				}
			],
			"stateMutability": "view",
			"type": "function"
		},
		{
			"inputs": [],
			"name": "totalSupply",
			"outputs": [
				{
					"internalType": "uint256",
					"name": "",
					"type": "uint256"
				}
			],
			"stateMutability": "view",
			"type": "function"
		},
		{
			"inputs": [
				{
					"internalType": "address",
					"name": "to",
					"type": "address"
				},
				{
					"internalType": "uint256",
					"name": "amount",
					"type": "uint256"
				}
			],
			"name": "transfer",
			"outputs": [
				{
					"internalType": "bool",
					"name": "",
					"type": "bool"
				}
			],
			"stateMutability": "nonpayable",
			"type": "function"
		},
		{
			"inputs": [
				{
					"internalType": "address",
					"name": "from",
					"type": "address"
				},
				{
					"internalType": "address",
					"name": "to",
					"type": "address"
				},
				{
					"internalType": "uint256",
					"name": "amount",
					"type": "uint256"
				}
			],
			"name": "transferFrom",
			"outputs": [
				{
					"internalType": "bool",
					"name": "",
					"type": "bool"
				}
			],
			"stateMutability": "nonpayable",
			"type": "function"
		},
		{
			"inputs": [
				{
					"internalType": "address",
					"name": "newOwner",
					"type": "address"
				}
			],
			"name": "transferOwnership",
			"outputs": [],
			"stateMutability": "nonpayable",
			"type": "function"
		},
		{
			"inputs": [],
			"name": "version",
			"outputs": [
				{
					"internalType": "string",
					"name": "",
					"type": "string"
				}
			],
			"stateMutability": "view",
			"type": "function"
		},
		{
			"inputs": [],
			"name": "withdrawFee",
			"outputs": [],
			"stateMutability": "nonpayable",
			"type": "function"
		},
		{
			"stateMutability": "payable",
			"type": "receive"
		}
	]
}