{
	"data": {
		"bytecode": {
			"linkReferences": {},
			"object": "60806040526040518060400160405280600381526020017f302e3300000000000000000000000000000000000000000000000000000000008152506000908051906020019062000051929190620011f6565b503480156200005f57600080fd5b50701c35fedd14ffffffffffffffffffffffff60016020608081106200008a57620000896200130b565b5b0181905550701b0ce43b323fffffffffffffffffffffff6001602160808110620000b957620000b86200130b565b5b01819055507019f0028ec1ffffffffffffffffffffffff6001602260808110620000e857620000e76200130b565b5b01819055507018ded91f0e7fffffffffffffffffffffff60016023608081106200011757620001166200130b565b5b01819055507017d8ec7f0417ffffffffffffffffffffff60016024608081106200014657620001456200130b565b5b01819055507016ddc6556cdbffffffffffffffffffffff60016025608081106200017557620001746200130b565b5b01819055507015ecf52776a1ffffffffffffffffffffff6001602660808110620001a457620001a36200130b565b5b01819055507015060c256cb2ffffffffffffffffffffff6001602760808110620001d357620001d26200130b565b5b0181905550701428a2f98d72ffffffffffffffffffffff60016028608081106200020257620002016200130b565b5b01819055507013545598e5c23fffffffffffffffffffff60016029608081106200023157620002306200130b565b5b0181905550701288c4161ce1dfffffffffffffffffffff6001602a6080811062000260576200025f6200130b565b5b01819055507011c592761c666fffffffffffffffffffff6001602b608081106200028f576200028e6200130b565b5b018190555070110a688680a757ffffffffffffffffffff6001602c60808110620002be57620002bd6200130b565b5b0181905550701056f1b5bedf77ffffffffffffffffffff6001602d60808110620002ed57620002ec6200130b565b5b0181905550700faadceceeff8bffffffffffffffffffff6001602e608081106200031c576200031b6200130b565b5b0181905550700f05dc6b27edadffffffffffffffffffff6001602f608081106200034b576200034a6200130b565b5b0181905550700e67a5a25da4107fffffffffffffffffff60016030608081106200037a57620003796200130b565b5b0181905550700dcff115b14eedffffffffffffffffffff6001603160808110620003a957620003a86200130b565b5b0181905550700d3e7a392431239fffffffffffffffffff6001603260808110620003d857620003d76200130b565b5b0181905550700cb2ff529eb71e4fffffffffffffffffff60016033608081106200040757620004066200130b565b5b0181905550700c2d415c3db974afffffffffffffffffff60016034608081106200043657620004356200130b565b5b0181905550700bad03e7d883f69bffffffffffffffffff60016035608081106200046557620004646200130b565b5b0181905550700b320d03b2c343d5ffffffffffffffffff60016036608081106200049457620004936200130b565b5b0181905550700abc25204e02828dffffffffffffffffff6001603760808110620004c357620004c26200130b565b5b0181905550700a4b16f74ee4bb207fffffffffffffffff6001603860808110620004f257620004f16200130b565b5b01819055507009deaf736ac1f569ffffffffffffffffff60016039608081106200052157620005206200130b565b5b0181905550700976bd9952c7aa957fffffffffffffffff6001603a6080811062000550576200054f6200130b565b5b01819055507009131271922eaa606fffffffffffffffff6001603b608081106200057f576200057e6200130b565b5b01819055507008b380f3558668c46fffffffffffffffff6001603c60808110620005ae57620005ad6200130b565b5b0181905550700857ddf0117efa215bffffffffffffffff6001603d60808110620005dd57620005dc6200130b565b5b01819055507007ffffffffffffffffffffffffffffffff6001603e608081106200060c576200060b6200130b565b5b01819055507007abbf6f6abb9d087fffffffffffffffff6001603f608081106200063b576200063a6200130b565b5b018190555070075af62cbac95f7dfa7fffffffffffffff60016040608081106200066a57620006696200130b565b5b018190555070070d7fb7452e187ac13fffffffffffffff60016041608081106200069957620006986200130b565b5b01819055507006c3390ecc8af379295fffffffffffffff6001604260808110620006c857620006c76200130b565b5b018190555070067c00a3b07ffc01fd6fffffffffffffff6001604360808110620006f757620006f66200130b565b5b0181905550700637b647c39cbb9d3d27ffffffffffffff60016044608081106200072657620007256200130b565b5b01819055507005f63b1fc104dbd39587ffffffffffffff60016045608081106200075557620007546200130b565b5b01819055507005b771955b36e12f7235ffffffffffffff60016046608081106200078457620007836200130b565b5b018190555070057b3d49dda84556d6f6ffffffffffffff6001604760808110620007b357620007b26200130b565b5b018190555070054183095b2c8ececf30ffffffffffffff6001604860808110620007e257620007e16200130b565b5b018190555070050a28be635ca2b888f77fffffffffffff60016049608081106200081157620008106200130b565b5b01819055507004d5156639708c9db33c3fffffffffffff6001604a6080811062000840576200083f6200130b565b5b01819055507004a23105873875bd52dfdfffffffffffff6001604b608081106200086f576200086e6200130b565b5b0181905550700471649d87199aa990756fffffffffffff6001604c608081106200089e576200089d6200130b565b5b01819055507004429a21a029d4c1457cfbffffffffffff6001604d60808110620008cd57620008cc6200130b565b5b0181905550700415bc6d6fb7dd71af2cb3ffffffffffff6001604e60808110620008fc57620008fb6200130b565b5b01819055507003eab73b3bbfe282243ce1ffffffffffff6001604f608081106200092b576200092a6200130b565b5b01819055507003c1771ac9fb6b4c18e229ffffffffffff60016050608081106200095a57620009596200130b565b5b0181905550700399e96897690418f785257fffffffffff60016051608081106200098957620009886200130b565b5b0181905550700373fc456c53bb779bf0ea9fffffffffff6001605260808110620009b857620009b76200130b565b5b018190555070034f9e8e490c48e67e6ab8bfffffffffff6001605360808110620009e757620009e66200130b565b5b018190555070032cbfd4a7adc790560b3337ffffffffff600160546080811062000a165762000a156200130b565b5b018190555070030b50570f6e5d2acca94613ffffffffff600160556080811062000a455762000a446200130b565b5b01819055507002eb40f9f620fda6b56c2861ffffffffff600160566080811062000a745762000a736200130b565b5b01819055507002cc8340ecb0d0f520a6af58ffffffffff600160576080811062000aa35762000aa26200130b565b5b01819055507002af09481380a0a35cf1ba02ffffffffff600160586080811062000ad25762000ad16200130b565b5b0181905550700292c5bdd3b92ec810287b1b3fffffffff600160596080811062000b015762000b006200130b565b5b0181905550700277abdcdab07d5a77ac6d6b9fffffffff6001605a6080811062000b305762000b2f6200130b565b5b018190555070025daf6654b1eaa55fd64df5efffffffff6001605b6080811062000b5f5762000b5e6200130b565b5b0181905550700244c49c648baa98192dce88b7ffffffff6001605c6080811062000b8e5762000b8d6200130b565b5b018190555070022ce03cd5619a311b2471268bffffffff6001605d6080811062000bbd5762000bbc6200130b565b5b0181905550700215f77c045fbe885654a44a0fffffffff6001605e6080811062000bec5762000beb6200130b565b5b01819055507001ffffffffffffffffffffffffffffffff6001605f6080811062000c1b5762000c1a6200130b565b5b01819055507001eaefdbdaaee7421fc4d3ede5ffffffff600160606080811062000c4a5762000c496200130b565b5b01819055507001d6bd8b2eb257df7e8ca57b09bfffffff600160616080811062000c795762000c786200130b565b5b01819055507001c35fedd14b861eb0443f7f133fffffff600160626080811062000ca85762000ca76200130b565b5b01819055507001b0ce43b322bcde4a56e8ada5afffffff600160636080811062000cd75762000cd66200130b565b5b018190555070019f0028ec1fff007f5a195a39dfffffff600160646080811062000d065762000d056200130b565b5b018190555070018ded91f0e72ee74f49b15ba527ffffff600160656080811062000d355762000d346200130b565b5b018190555070017d8ec7f04136f4e5615fd41a63ffffff600160666080811062000d645762000d636200130b565b5b018190555070016ddc6556cdb84bdc8d12d22e6fffffff600160676080811062000d935762000d926200130b565b5b018190555070015ecf52776a1155b5bd8395814f7fffff600160686080811062000dc25762000dc16200130b565b5b018190555070015060c256cb23b3b3cc3754cf40ffffff600160696080811062000df15762000df06200130b565b5b01819055507001428a2f98d728ae223ddab715be3fffff6001606a6080811062000e205762000e1f6200130b565b5b018190555070013545598e5c23276ccf0ede68034fffff6001606b6080811062000e4f5762000e4e6200130b565b5b01819055507001288c4161ce1d6f54b7f61081194fffff6001606c6080811062000e7e5762000e7d6200130b565b5b018190555070011c592761c666aa641d5a01a40f17ffff6001606d6080811062000ead5762000eac6200130b565b5b0181905550700110a688680a7530515f3e6e6cfdcdffff6001606e6080811062000edc5762000edb6200130b565b5b01819055507001056f1b5bedf75c6bcb2ce8aed428ffff6001606f6080811062000f0b5762000f0a6200130b565b5b01819055506ffaadceceeff8a0890f3875f008277fff600160706080811062000f395762000f386200130b565b5b01819055506ff05dc6b27edad306388a600f6ba0bfff600160716080811062000f675762000f666200130b565b5b01819055506fe67a5a25da41063de1495d5b18cdbfff600160726080811062000f955762000f946200130b565b5b01819055506fdcff115b14eedde6fc3aa5353f2e4fff600160736080811062000fc35762000fc26200130b565b5b01819055506fd3e7a3924312399f9aae2e0f868f8fff600160746080811062000ff15762000ff06200130b565b5b01819055506fcb2ff529eb71e41582cccd5a1ee26fff60016075608081106200101f576200101e6200130b565b5b01819055506fc2d415c3db974ab32a51840c0b67edff60016076608081106200104d576200104c6200130b565b5b01819055506fbad03e7d883f69ad5b0a186184e06bff60016077608081106200107b576200107a6200130b565b5b01819055506fb320d03b2c343d4829abd6075f0cc5ff6001607860808110620010a957620010a86200130b565b5b01819055506fabc25204e02828d73c6e80bcdb1a95bf6001607960808110620010d757620010d66200130b565b5b01819055506fa4b16f74ee4bb2040a1ec6c15fbbf2df6001607a608081106200110557620011046200130b565b5b01819055506f9deaf736ac1f569deb1b5ae3f36c130f6001607b608081106200113357620011326200130b565b5b01819055506f976bd9952c7aa957f5937d790ef650376001607c608081106200116157620011606200130b565b5b01819055506f9131271922eaa6064b73a22d0bd4f2bf6001607d608081106200118f576200118e6200130b565b5b01819055506f8b380f3558668c46c91c49a2f8e967b96001607e60808110620011bd57620011bc6200130b565b5b01819055506f857ddf0117efa215952912839f6473e66001607f60808110620011eb57620011ea6200130b565b5b01819055506200133a565b8280546200120490620012a6565b90600052602060002090601f01602090048101928262001228576000855562001274565b82601f106200124357805160ff191683800117855562001274565b8280016001018555821562001274579182015b828111156200127357825182559160200191906001019062001256565b5b50905062001283919062001287565b5090565b5b80821115620012a257600081600090555060010162001288565b5090565b60006002820490506001821680620012bf57607f821691505b60208210811415620012d657620012d5620012dc565b5b50919050565b7f4e487b7100000000000000000000000000000000000000000000000000000000600052602260045260246000fd5b7f4e487b7100000000000000000000000000000000000000000000000000000000600052603260045260246000fd5b61022e806200134a6000396000f3fe608060405234801561001057600080fd5b506004361061002b5760003560e01c806354fd4d5014610030575b600080fd5b61003861004e565b6040516100459190610115565b60405180910390f35b6000805461005b90610186565b80601f016020809104026020016040519081016040528092919081815260200182805461008790610186565b80156100d45780601f106100a9576101008083540402835291602001916100d4565b820191906000526020600020905b8154815290600101906020018083116100b757829003601f168201915b505050505081565b60006100e782610137565b6100f18185610142565b9350610101818560208601610153565b61010a816101e7565b840191505092915050565b6000602082019050818103600083015261012f81846100dc565b905092915050565b600081519050919050565b600082825260208201905092915050565b60005b83811015610171578082015181840152602081019050610156565b83811115610180576000848401525b50505050565b6000600282049050600182168061019e57607f821691505b602082108114156101b2576101b16101b8565b5b50919050565b7f4e487b7100000000000000000000000000000000000000000000000000000000600052602260045260246000fd5b6000601f19601f830116905091905056fea2646970667358221220867a26bec764136fedf41e96e0b645caf32aae434aa983ba33062e75a2f45c6464736f6c63430008070033",
			"opcodes": "PUSH1 0x80 PUSH1 0x40 MSTORE PUSH1 0x40 MLOAD DUP1 PUSH1 0x40 ADD PUSH1 0x40 MSTORE DUP1 PUSH1 0x3 DUP2 MSTORE PUSH1 0x20 ADD PUSH32 0x302E330000000000000000000000000000000000000000000000000000000000 DUP2 MSTORE POP PUSH1 0x0 SWAP1 DUP1 MLOAD SWAP1 PUSH1 0x20 ADD SWAP1 PUSH3 0x51 SWAP3 SWAP2 SWAP1 PUSH3 0x11F6 JUMP JUMPDEST POP CALLVALUE DUP1 ISZERO PUSH3 0x5F JUMPI PUSH1 0x0 DUP1 REVERT JUMPDEST POP PUSH17 0x1C35FEDD14FFFFFFFFFFFFFFFFFFFFFFFF PUSH1 0x1 PUSH1 0x20 PUSH1 0x80 DUP2 LT PUSH3 0x8A JUMPI PUSH3 0x89 PUSH3 0x130B JUMP JUMPDEST JUMPDEST ADD DUP2 SWAP1 SSTORE POP PUSH17 0x1B0CE43B323FFFFFFFFFFFFFFFFFFFFFFF PUSH1 0x1 PUSH1 0x21 PUSH1 0x80 DUP2 LT PUSH3 0xB9 JUMPI PUSH3 0xB8 PUSH3 0x130B JUMP JUMPDEST JUMPDEST ADD DUP2 SWAP1 SSTORE POP PUSH17 0x19F0028EC1FFFFFFFFFFFFFFFFFFFFFFFF PUSH1 0x1 PUSH1 0x22 PUSH1 0x80 DUP2 LT PUSH3 0xE8 JUMPI PUSH3 0xE7 PUSH3 0x130B JUMP JUMPDEST JUMPDEST ADD DUP2 SWAP1 SSTORE POP PUSH17 0x18DED91F0E7FFFFFFFFFFFFFFFFFFFFFFF PUSH1 0x1 PUSH1 0x23 PUSH1 0x80 DUP2 LT PUSH3 0x117 JUMPI PUSH3 0x116 PUSH3 0x130B JUMP JUMPDEST JUMPDEST ADD DUP2 SWAP1 SSTORE POP PUSH17 0x17D8EC7F0417FFFFFFFFFFFFFFFFFFFFFF PUSH1 0x1 PUSH1 0x24 PUSH1 0x80 DUP2 LT PUSH3 0x146 JUMPI PUSH3 0x145 PUSH3 0x130B JUMP JUMPDEST JUMPDEST ADD DUP2 SWAP1 SSTORE POP PUSH17 0x16DDC6556CDBFFFFFFFFFFFFFFFFFFFFFF PUSH1 0x1 PUSH1 0x25 PUSH1 0x80 DUP2 LT PUSH3 0x175 JUMPI PUSH3 0x174 PUSH3 0x130B JUMP JUMPDEST JUMPDEST ADD DUP2 SWAP1 SSTORE POP PUSH17 0x15ECF52776A1FFFFFFFFFFFFFFFFFFFFFF PUSH1 0x1 PUSH1 0x26 PUSH1 0x80 DUP2 LT PUSH3 0x1A4 JUMPI PUSH3 0x1A3 PUSH3 0x130B JUMP JUMPDEST JUMPDEST ADD DUP2 SWAP1 SSTORE POP PUSH17 0x15060C256CB2FFFFFFFFFFFFFFFFFFFFFF PUSH1 0x1 PUSH1 0x27 PUSH1 0x80 DUP2 LT PUSH3 0x1D3 JUMPI PUSH3 0x1D2 PUSH3 0x130B JUMP JUMPDEST JUMPDEST ADD DUP2 SWAP1 SSTORE POP PUSH17 0x1428A2F98D72FFFFFFFFFFFFFFFFFFFFFF PUSH1 0x1 PUSH1 0x28 PUSH1 0x80 DUP2 LT PUSH3 0x202 JUMPI PUSH3 0x201 PUSH3 0x130B JUMP JUMPDEST JUMPDEST ADD DUP2 SWAP1 SSTORE POP PUSH17 0x13545598E5C23FFFFFFFFFFFFFFFFFFFFF PUSH1 0x1 PUSH1 0x29 PUSH1 0x80 DUP2 LT PUSH3 0x231 JUMPI PUSH3 0x230 PUSH3 0x130B JUMP JUMPDEST JUMPDEST ADD DUP2 SWAP1 SSTORE POP PUSH17 0x1288C4161CE1DFFFFFFFFFFFFFFFFFFFFF PUSH1 0x1 PUSH1 0x2A PUSH1 0x80 DUP2 LT PUSH3 0x260 JUMPI PUSH3 0x25F PUSH3 0x130B JUMP JUMPDEST JUMPDEST ADD DUP2 SWAP1 SSTORE POP PUSH17 0x11C592761C666FFFFFFFFFFFFFFFFFFFFF PUSH1 0x1 PUSH1 0x2B PUSH1 0x80 DUP2 LT PUSH3 0x28F JUMPI PUSH3 0x28E PUSH3 0x130B JUMP JUMPDEST JUMPDEST ADD DUP2 SWAP1 SSTORE POP PUSH17 0x110A688680A757FFFFFFFFFFFFFFFFFFFF PUSH1 0x1 PUSH1 0x2C PUSH1 0x80 DUP2 LT PUSH3 0x2BE JUMPI PUSH3 0x2BD PUSH3 0x130B JUMP JUMPDEST JUMPDEST ADD DUP2 SWAP1 SSTORE POP PUSH17 0x1056F1B5BEDF77FFFFFFFFFFFFFFFFFFFF PUSH1 0x1 PUSH1 0x2D PUSH1 0x80 DUP2 LT PUSH3 0x2ED JUMPI PUSH3 0x2EC PUSH3 0x130B JUMP JUMPDEST JUMPDEST ADD DUP2 SWAP1 SSTORE POP PUSH17 0xFAADCECEEFF8BFFFFFFFFFFFFFFFFFFFF PUSH1 0x1 PUSH1 0x2E PUSH1 0x80 DUP2 LT PUSH3 0x31C JUMPI PUSH3 0x31B PUSH3 0x130B JUMP JUMPDEST JUMPDEST ADD DUP2 SWAP1 SSTORE POP PUSH17 0xF05DC6B27EDADFFFFFFFFFFFFFFFFFFFF PUSH1 0x1 PUSH1 0x2F PUSH1 0x80 DUP2 LT PUSH3 0x34B JUMPI PUSH3 0x34A PUSH3 0x130B JUMP JUMPDEST JUMPDEST ADD DUP2 SWAP1 SSTORE POP PUSH17 0xE67A5A25DA4107FFFFFFFFFFFFFFFFFFF PUSH1 0x1 PUSH1 0x30 PUSH1 0x80 DUP2 LT PUSH3 0x37A JUMPI PUSH3 0x379 PUSH3 0x130B JUMP JUMPDEST JUMPDEST ADD DUP2 SWAP1 SSTORE POP PUSH17 0xDCFF115B14EEDFFFFFFFFFFFFFFFFFFFF PUSH1 0x1 PUSH1 0x31 PUSH1 0x80 DUP2 LT PUSH3 0x3A9 JUMPI PUSH3 0x3A8 PUSH3 0x130B JUMP JUMPDEST JUMPDEST ADD DUP2 SWAP1 SSTORE POP PUSH17 0xD3E7A392431239FFFFFFFFFFFFFFFFFFF PUSH1 0x1 PUSH1 0x32 PUSH1 0x80 DUP2 LT PUSH3 0x3D8 JUMPI PUSH3 0x3D7 PUSH3 0x130B JUMP JUMPDEST JUMPDEST ADD DUP2 SWAP1 SSTORE POP PUSH17 0xCB2FF529EB71E4FFFFFFFFFFFFFFFFFFF PUSH1 0x1 PUSH1 0x33 PUSH1 0x80 DUP2 LT PUSH3 0x407 JUMPI PUSH3 0x406 PUSH3 0x130B JUMP JUMPDEST JUMPDEST ADD DUP2 SWAP1 SSTORE POP PUSH17 0xC2D415C3DB974AFFFFFFFFFFFFFFFFFFF PUSH1 0x1 PUSH1 0x34 PUSH1 0x80 DUP2 LT PUSH3 0x436 JUMPI PUSH3 0x435 PUSH3 0x130B JUMP JUMPDEST JUMPDEST ADD DUP2 SWAP1 SSTORE POP PUSH17 0xBAD03E7D883F69BFFFFFFFFFFFFFFFFFF PUSH1 0x1 PUSH1 0x35 PUSH1 0x80 DUP2 LT PUSH3 0x465 JUMPI PUSH3 0x464 PUSH3 0x130B JUMP JUMPDEST JUMPDEST ADD DUP2 SWAP1 SSTORE POP PUSH17 0xB320D03B2C343D5FFFFFFFFFFFFFFFFFF PUSH1 0x1 PUSH1 0x36 PUSH1 0x80 DUP2 LT PUSH3 0x494 JUMPI PUSH3 0x493 PUSH3 0x130B JUMP JUMPDEST JUMPDEST ADD DUP2 SWAP1 SSTORE POP PUSH17 0xABC25204E02828DFFFFFFFFFFFFFFFFFF PUSH1 0x1 PUSH1 0x37 PUSH1 0x80 DUP2 LT PUSH3 0x4C3 JUMPI PUSH3 0x4C2 PUSH3 0x130B JUMP JUMPDEST JUMPDEST ADD DUP2 SWAP1 SSTORE POP PUSH17 0xA4B16F74EE4BB207FFFFFFFFFFFFFFFFF PUSH1 0x1 PUSH1 0x38 PUSH1 0x80 DUP2 LT PUSH3 0x4F2 JUMPI PUSH3 0x4F1 PUSH3 0x130B JUMP JUMPDEST JUMPDEST ADD DUP2 SWAP1 SSTORE POP PUSH17 0x9DEAF736AC1F569FFFFFFFFFFFFFFFFFF PUSH1 0x1 PUSH1 0x39 PUSH1 0x80 DUP2 LT PUSH3 0x521 JUMPI PUSH3 0x520 PUSH3 0x130B JUMP JUMPDEST JUMPDEST ADD DUP2 SWAP1 SSTORE POP PUSH17 0x976BD9952C7AA957FFFFFFFFFFFFFFFFF PUSH1 0x1 PUSH1 0x3A PUSH1 0x80 DUP2 LT PUSH3 0x550 JUMPI PUSH3 0x54F PUSH3 0x130B JUMP JUMPDEST JUMPDEST ADD DUP2 SWAP1 SSTORE POP PUSH17 0x9131271922EAA606FFFFFFFFFFFFFFFFF PUSH1 0x1 PUSH1 0x3B PUSH1 0x80 DUP2 LT PUSH3 0x57F JUMPI PUSH3 0x57E PUSH3 0x130B JUMP JUMPDEST JUMPDEST ADD DUP2 SWAP1 SSTORE POP PUSH17 0x8B380F3558668C46FFFFFFFFFFFFFFFFF PUSH1 0x1 PUSH1 0x3C PUSH1 0x80 DUP2 LT PUSH3 0x5AE JUMPI PUSH3 0x5AD PUSH3 0x130B JUMP JUMPDEST JUMPDEST ADD DUP2 SWAP1 SSTORE POP PUSH17 0x857DDF0117EFA215BFFFFFFFFFFFFFFFF PUSH1 0x1 PUSH1 0x3D PUSH1 0x80 DUP2 LT PUSH3 0x5DD JUMPI PUSH3 0x5DC PUSH3 0x130B JUMP JUMPDEST JUMPDEST ADD DUP2 SWAP1 SSTORE POP PUSH17 0x7FFFFFFFFFFFFFFFFFFFFFFFFFFFFFFFF PUSH1 0x1 PUSH1 0x3E PUSH1 0x80 DUP2 LT PUSH3 0x60C JUMPI PUSH3 0x60B PUSH3 0x130B JUMP JUMPDEST JUMPDEST ADD DUP2 SWAP1 SSTORE POP PUSH17 0x7ABBF6F6ABB9D087FFFFFFFFFFFFFFFFF PUSH1 0x1 PUSH1 0x3F PUSH1 0x80 DUP2 LT PUSH3 0x63B JUMPI PUSH3 0x63A PUSH3 0x130B JUMP JUMPDEST JUMPDEST ADD DUP2 SWAP1 SSTORE POP PUSH17 0x75AF62CBAC95F7DFA7FFFFFFFFFFFFFFF PUSH1 0x1 PUSH1 0x40 PUSH1 0x80 DUP2 LT PUSH3 0x66A JUMPI PUSH3 0x669 PUSH3 0x130B JUMP JUMPDEST JUMPDEST ADD DUP2 SWAP1 SSTORE POP PUSH17 0x70D7FB7452E187AC13FFFFFFFFFFFFFFF PUSH1 0x1 PUSH1 0x41 PUSH1 0x80 DUP2 LT PUSH3 0x699 JUMPI PUSH3 0x698 PUSH3 0x130B JUMP JUMPDEST JUMPDEST ADD DUP2 SWAP1 SSTORE POP PUSH17 0x6C3390ECC8AF379295FFFFFFFFFFFFFFF PUSH1 0x1 PUSH1 0x42 PUSH1 0x80 DUP2 LT PUSH3 0x6C8 JUMPI PUSH3 0x6C7 PUSH3 0x130B JUMP JUMPDEST JUMPDEST ADD DUP2 SWAP1 SSTORE POP PUSH17 0x67C00A3B07FFC01FD6FFFFFFFFFFFFFFF PUSH1 0x1 PUSH1 0x43 PUSH1 0x80 DUP2 LT PUSH3 0x6F7 JUMPI PUSH3 0x6F6 PUSH3 0x130B JUMP JUMPDEST JUMPDEST ADD DUP2 SWAP1 SSTORE POP PUSH17 0x637B647C39CBB9D3D27FFFFFFFFFFFFFF PUSH1 0x1 PUSH1 0x44 PUSH1 0x80 DUP2 LT PUSH3 0x726 JUMPI PUSH3 0x725 PUSH3 0x130B JUMP JUMPDEST JUMPDEST ADD DUP2 SWAP1 SSTORE POP PUSH17 0x5F63B1FC104DBD39587FFFFFFFFFFFFFF PUSH1 0x1 PUSH1 0x45 PUSH1 0x80 DUP2 LT PUSH3 0x755 JUMPI PUSH3 0x754 PUSH3 0x130B JUMP JUMPDEST JUMPDEST ADD DUP2 SWAP1 SSTORE POP PUSH17 0x5B771955B36E12F7235FFFFFFFFFFFFFF PUSH1 0x1 PUSH1 0x46 PUSH1 0x80 DUP2 LT PUSH3 0x784 JUMPI PUSH3 0x783 PUSH3 0x130B JUMP JUMPDEST JUMPDEST ADD DUP2 SWAP1 SSTORE POP PUSH17 0x57B3D49DDA84556D6F6FFFFFFFFFFFFFF PUSH1 0x1 PUSH1 0x47 PUSH1 0x80 DUP2 LT PUSH3 0x7B3 JUMPI PUSH3 0x7B2 PUSH3 0x130B JUMP JUMPDEST JUMPDEST ADD DUP2 SWAP1 SSTORE POP PUSH17 0x54183095B2C8ECECF30FFFFFFFFFFFFFF PUSH1 0x1 PUSH1 0x48 PUSH1 0x80 DUP2 LT PUSH3 0x7E2 JUMPI PUSH3 0x7E1 PUSH3 0x130B JUMP JUMPDEST JUMPDEST ADD DUP2 SWAP1 SSTORE POP PUSH17 0x50A28BE635CA2B888F77FFFFFFFFFFFFF PUSH1 0x1 PUSH1 0x49 PUSH1 0x80 DUP2 LT PUSH3 0x811 JUMPI PUSH3 0x810 PUSH3 0x130B JUMP JUMPDEST JUMPDEST ADD DUP2 SWAP1 SSTORE POP PUSH17 0x4D5156639708C9DB33C3FFFFFFFFFFFFF PUSH1 0x1 PUSH1 0x4A PUSH1 0x80 DUP2 LT PUSH3 0x840 JUMPI PUSH3 0x83F PUSH3 0x130B JUMP JUMPDEST JUMPDEST ADD DUP2 SWAP1 SSTORE POP PUSH17 0x4A23105873875BD52DFDFFFFFFFFFFFFF PUSH1 0x1 PUSH1 0x4B PUSH1 0x80 DUP2 LT PUSH3 0x86F JUMPI PUSH3 0x86E PUSH3 0x130B JUMP JUMPDEST JUMPDEST ADD DUP2 SWAP1 SSTORE POP PUSH17 0x471649D87199AA990756FFFFFFFFFFFFF PUSH1 0x1 PUSH1 0x4C PUSH1 0x80 DUP2 LT PUSH3 0x89E JUMPI PUSH3 0x89D PUSH3 0x130B JUMP JUMPDEST JUMPDEST ADD DUP2 SWAP1 SSTORE POP PUSH17 0x4429A21A029D4C1457CFBFFFFFFFFFFFF PUSH1 0x1 PUSH1 0x4D PUSH1 0x80 DUP2 LT PUSH3 0x8CD JUMPI PUSH3 0x8CC PUSH3 0x130B JUMP JUMPDEST JUMPDEST ADD DUP2 SWAP1 SSTORE POP PUSH17 0x415BC6D6FB7DD71AF2CB3FFFFFFFFFFFF PUSH1 0x1 PUSH1 0x4E PUSH1 0x80 DUP2 LT PUSH3 0x8FC JUMPI PUSH3 0x8FB PUSH3 0x130B JUMP JUMPDEST JUMPDEST ADD DUP2 SWAP1 SSTORE POP PUSH17 0x3EAB73B3BBFE282243CE1FFFFFFFFFFFF PUSH1 0x1 PUSH1 0x4F PUSH1 0x80 DUP2 LT PUSH3 0x92B JUMPI PUSH3 0x92A PUSH3 0x130B JUMP JUMPDEST JUMPDEST ADD DUP2 SWAP1 SSTORE POP PUSH17 0x3C1771AC9FB6B4C18E229FFFFFFFFFFFF PUSH1 0x1 PUSH1 0x50 PUSH1 0x80 DUP2 LT PUSH3 0x95A JUMPI PUSH3 0x959 PUSH3 0x130B JUMP JUMPDEST JUMPDEST ADD DUP2 SWAP1 SSTORE POP PUSH17 0x399E96897690418F785257FFFFFFFFFFF PUSH1 0x1 PUSH1 0x51 PUSH1 0x80 DUP2 LT PUSH3 0x989 JUMPI PUSH3 0x988 PUSH3 0x130B JUMP JUMPDEST JUMPDEST ADD DUP2 SWAP1 SSTORE POP PUSH17 0x373FC456C53BB779BF0EA9FFFFFFFFFFF PUSH1 0x1 PUSH1 0x52 PUSH1 0x80 DUP2 LT PUSH3 0x9B8 JUMPI PUSH3 0x9B7 PUSH3 0x130B JUMP JUMPDEST JUMPDEST ADD DUP2 SWAP1 SSTORE POP PUSH17 0x34F9E8E490C48E67E6AB8BFFFFFFFFFFF PUSH1 0x1 PUSH1 0x53 PUSH1 0x80 DUP2 LT PUSH3 0x9E7 JUMPI PUSH3 0x9E6 PUSH3 0x130B JUMP JUMPDEST JUMPDEST ADD DUP2 SWAP1 SSTORE POP PUSH17 0x32CBFD4A7ADC790560B3337FFFFFFFFFF PUSH1 0x1 PUSH1 0x54 PUSH1 0x80 DUP2 LT PUSH3 0xA16 JUMPI PUSH3 0xA15 PUSH3 0x130B JUMP JUMPDEST JUMPDEST ADD DUP2 SWAP1 SSTORE POP PUSH17 0x30B50570F6E5D2ACCA94613FFFFFFFFFF PUSH1 0x1 PUSH1 0x55 PUSH1 0x80 DUP2 LT PUSH3 0xA45 JUMPI PUSH3 0xA44 PUSH3 0x130B JUMP JUMPDEST JUMPDEST ADD DUP2 SWAP1 SSTORE POP PUSH17 0x2EB40F9F620FDA6B56C2861FFFFFFFFFF PUSH1 0x1 PUSH1 0x56 PUSH1 0x80 DUP2 LT PUSH3 0xA74 JUMPI PUSH3 0xA73 PUSH3 0x130B JUMP JUMPDEST JUMPDEST ADD DUP2 SWAP1 SSTORE POP PUSH17 0x2CC8340ECB0D0F520A6AF58FFFFFFFFFF PUSH1 0x1 PUSH1 0x57 PUSH1 0x80 DUP2 LT PUSH3 0xAA3 JUMPI PUSH3 0xAA2 PUSH3 0x130B JUMP JUMPDEST JUMPDEST ADD DUP2 SWAP1 SSTORE POP PUSH17 0x2AF09481380A0A35CF1BA02FFFFFFFFFF PUSH1 0x1 PUSH1 0x58 PUSH1 0x80 DUP2 LT PUSH3 0xAD2 JUMPI PUSH3 0xAD1 PUSH3 0x130B JUMP JUMPDEST JUMPDEST ADD DUP2 SWAP1 SSTORE POP PUSH17 0x292C5BDD3B92EC810287B1B3FFFFFFFFF PUSH1 0x1 PUSH1 0x59 PUSH1 0x80 DUP2 LT PUSH3 0xB01 JUMPI PUSH3 0xB00 PUSH3 0x130B JUMP JUMPDEST JUMPDEST ADD DUP2 SWAP1 SSTORE POP PUSH17 0x277ABDCDAB07D5A77AC6D6B9FFFFFFFFF PUSH1 0x1 PUSH1 0x5A PUSH1 0x80 DUP2 LT PUSH3 0xB30 JUMPI PUSH3 0xB2F PUSH3 0x130B JUMP JUMPDEST JUMPDEST ADD DUP2 SWAP1 SSTORE POP PUSH17 0x25DAF6654B1EAA55FD64DF5EFFFFFFFFF PUSH1 0x1 PUSH1 0x5B PUSH1 0x80 DUP2 LT PUSH3 0xB5F JUMPI PUSH3 0xB5E PUSH3 0x130B JUMP JUMPDEST JUMPDEST ADD DUP2 SWAP1 SSTORE POP PUSH17 0x244C49C648BAA98192DCE88B7FFFFFFFF PUSH1 0x1 PUSH1 0x5C PUSH1 0x80 DUP2 LT PUSH3 0xB8E JUMPI PUSH3 0xB8D PUSH3 0x130B JUMP JUMPDEST JUMPDEST ADD DUP2 SWAP1 SSTORE POP PUSH17 0x22CE03CD5619A311B2471268BFFFFFFFF PUSH1 0x1 PUSH1 0x5D PUSH1 0x80 DUP2 LT PUSH3 0xBBD JUMPI PUSH3 0xBBC PUSH3 0x130B JUMP JUMPDEST JUMPDEST ADD DUP2 SWAP1 SSTORE POP PUSH17 0x215F77C045FBE885654A44A0FFFFFFFFF PUSH1 0x1 PUSH1 0x5E PUSH1 0x80 DUP2 LT PUSH3 0xBEC JUMPI PUSH3 0xBEB PUSH3 0x130B JUMP JUMPDEST JUMPDEST ADD DUP2 SWAP1 SSTORE POP PUSH17 0x1FFFFFFFFFFFFFFFFFFFFFFFFFFFFFFFF PUSH1 0x1 PUSH1 0x5F PUSH1 0x80 DUP2 LT PUSH3 0xC1B JUMPI PUSH3 0xC1A PUSH3 0x130B JUMP JUMPDEST JUMPDEST ADD DUP2 SWAP1 SSTORE POP PUSH17 0x1EAEFDBDAAEE7421FC4D3EDE5FFFFFFFF PUSH1 0x1 PUSH1 0x60 PUSH1 0x80 DUP2 LT PUSH3 0xC4A JUMPI PUSH3 0xC49 PUSH3 0x130B JUMP JUMPDEST JUMPDEST ADD DUP2 SWAP1 SSTORE POP PUSH17 0x1D6BD8B2EB257DF7E8CA57B09BFFFFFFF PUSH1 0x1 PUSH1 0x61 PUSH1 0x80 DUP2 LT PUSH3 0xC79 JUMPI PUSH3 0xC78 PUSH3 0x130B JUMP JUMPDEST JUMPDEST ADD DUP2 SWAP1 SSTORE POP PUSH17 0x1C35FEDD14B861EB0443F7F133FFFFFFF PUSH1 0x1 PUSH1 0x62 PUSH1 0x80 DUP2 LT PUSH3 0xCA8 JUMPI PUSH3 0xCA7 PUSH3 0x130B JUMP JUMPDEST JUMPDEST ADD DUP2 SWAP1 SSTORE POP PUSH17 0x1B0CE43B322BCDE4A56E8ADA5AFFFFFFF PUSH1 0x1 PUSH1 0x63 PUSH1 0x80 DUP2 LT PUSH3 0xCD7 JUMPI PUSH3 0xCD6 PUSH3 0x130B JUMP JUMPDEST JUMPDEST ADD DUP2 SWAP1 SSTORE POP PUSH17 0x19F0028EC1FFF007F5A195A39DFFFFFFF PUSH1 0x1 PUSH1 0x64 PUSH1 0x80 DUP2 LT PUSH3 0xD06 JUMPI PUSH3 0xD05 PUSH3 0x130B JUMP JUMPDEST JUMPDEST ADD DUP2 SWAP1 SSTORE POP PUSH17 0x18DED91F0E72EE74F49B15BA527FFFFFF PUSH1 0x1 PUSH1 0x65 PUSH1 0x80 DUP2 LT PUSH3 0xD35 JUMPI PUSH3 0xD34 PUSH3 0x130B JUMP JUMPDEST JUMPDEST ADD DUP2 SWAP1 SSTORE POP PUSH17 0x17D8EC7F04136F4E5615FD41A63FFFFFF PUSH1 0x1 PUSH1 0x66 PUSH1 0x80 DUP2 LT PUSH3 0xD64 JUMPI PUSH3 0xD63 PUSH3 0x130B JUMP JUMPDEST JUMPDEST ADD DUP2 SWAP1 SSTORE POP PUSH17 0x16DDC6556CDB84BDC8D12D22E6FFFFFFF PUSH1 0x1 PUSH1 0x67 PUSH1 0x80 DUP2 LT PUSH3 0xD93 JUMPI PUSH3 0xD92 PUSH3 0x130B JUMP JUMPDEST JUMPDEST ADD DUP2 SWAP1 SSTORE POP PUSH17 0x15ECF52776A1155B5BD8395814F7FFFFF PUSH1 0x1 PUSH1 0x68 PUSH1 0x80 DUP2 LT PUSH3 0xDC2 JUMPI PUSH3 0xDC1 PUSH3 0x130B JUMP JUMPDEST JUMPDEST ADD DUP2 SWAP1 SSTORE POP PUSH17 0x15060C256CB23B3B3CC3754CF40FFFFFF PUSH1 0x1 PUSH1 0x69 PUSH1 0x80 DUP2 LT PUSH3 0xDF1 JUMPI PUSH3 0xDF0 PUSH3 0x130B JUMP JUMPDEST JUMPDEST ADD DUP2 SWAP1 SSTORE POP PUSH17 0x1428A2F98D728AE223DDAB715BE3FFFFF PUSH1 0x1 PUSH1 0x6A PUSH1 0x80 DUP2 LT PUSH3 0xE20 JUMPI PUSH3 0xE1F PUSH3 0x130B JUMP JUMPDEST JUMPDEST ADD DUP2 SWAP1 SSTORE POP PUSH17 0x13545598E5C23276CCF0EDE68034FFFFF PUSH1 0x1 PUSH1 0x6B PUSH1 0x80 DUP2 LT PUSH3 0xE4F JUMPI PUSH3 0xE4E PUSH3 0x130B JUMP JUMPDEST JUMPDEST ADD DUP2 SWAP1 SSTORE POP PUSH17 0x1288C4161CE1D6F54B7F61081194FFFFF PUSH1 0x1 PUSH1 0x6C PUSH1 0x80 DUP2 LT PUSH3 0xE7E JUMPI PUSH3 0xE7D PUSH3 0x130B JUMP JUMPDEST JUMPDEST ADD DUP2 SWAP1 SSTORE POP PUSH17 0x11C592761C666AA641D5A01A40F17FFFF PUSH1 0x1 PUSH1 0x6D PUSH1 0x80 DUP2 LT PUSH3 0xEAD JUMPI PUSH3 0xEAC PUSH3 0x130B JUMP JUMPDEST JUMPDEST ADD DUP2 SWAP1 SSTORE POP PUSH17 0x110A688680A7530515F3E6E6CFDCDFFFF PUSH1 0x1 PUSH1 0x6E PUSH1 0x80 DUP2 LT PUSH3 0xEDC JUMPI PUSH3 0xEDB PUSH3 0x130B JUMP JUMPDEST JUMPDEST ADD DUP2 SWAP1 SSTORE POP PUSH17 0x1056F1B5BEDF75C6BCB2CE8AED428FFFF PUSH1 0x1 PUSH1 0x6F PUSH1 0x80 DUP2 LT PUSH3 0xF0B JUMPI PUSH3 0xF0A PUSH3 0x130B JUMP JUMPDEST JUMPDEST ADD DUP2 SWAP1 SSTORE POP PUSH16 0xFAADCECEEFF8A0890F3875F008277FFF PUSH1 0x1 PUSH1 0x70 PUSH1 0x80 DUP2 LT PUSH3 0xF39 JUMPI PUSH3 0xF38 PUSH3 0x130B JUMP JUMPDEST JUMPDEST ADD DUP2 SWAP1 SSTORE POP PUSH16 0xF05DC6B27EDAD306388A600F6BA0BFFF PUSH1 0x1 PUSH1 0x71 PUSH1 0x80 DUP2 LT PUSH3 0xF67 JUMPI PUSH3 0xF66 PUSH3 0x130B JUMP JUMPDEST JUMPDEST ADD DUP2 SWAP1 SSTORE POP PUSH16 0xE67A5A25DA41063DE1495D5B18CDBFFF PUSH1 0x1 PUSH1 0x72 PUSH1 0x80 DUP2 LT PUSH3 0xF95 JUMPI PUSH3 0xF94 PUSH3 0x130B JUMP JUMPDEST JUMPDEST ADD DUP2 SWAP1 SSTORE POP PUSH16 0xDCFF115B14EEDDE6FC3AA5353F2E4FFF PUSH1 0x1 PUSH1 0x73 PUSH1 0x80 DUP2 LT PUSH3 0xFC3 JUMPI PUSH3 0xFC2 PUSH3 0x130B JUMP JUMPDEST JUMPDEST ADD DUP2 SWAP1 SSTORE POP PUSH16 0xD3E7A3924312399F9AAE2E0F868F8FFF PUSH1 0x1 PUSH1 0x74 PUSH1 0x80 DUP2 LT PUSH3 0xFF1 JUMPI PUSH3 0xFF0 PUSH3 0x130B JUMP JUMPDEST JUMPDEST ADD DUP2 SWAP1 SSTORE POP PUSH16 0xCB2FF529EB71E41582CCCD5A1EE26FFF PUSH1 0x1 PUSH1 0x75 PUSH1 0x80 DUP2 LT PUSH3 0x101F JUMPI PUSH3 0x101E PUSH3 0x130B JUMP JUMPDEST JUMPDEST ADD DUP2 SWAP1 SSTORE POP PUSH16 0xC2D415C3DB974AB32A51840C0B67EDFF PUSH1 0x1 PUSH1 0x76 PUSH1 0x80 DUP2 LT PUSH3 0x104D JUMPI PUSH3 0x104C PUSH3 0x130B JUMP JUMPDEST JUMPDEST ADD DUP2 SWAP1 SSTORE POP PUSH16 0xBAD03E7D883F69AD5B0A186184E06BFF PUSH1 0x1 PUSH1 0x77 PUSH1 0x80 DUP2 LT PUSH3 0x107B JUMPI PUSH3 0x107A PUSH3 0x130B JUMP JUMPDEST JUMPDEST ADD DUP2 SWAP1 SSTORE POP PUSH16 0xB320D03B2C343D4829ABD6075F0CC5FF PUSH1 0x1 PUSH1 0x78 PUSH1 0x80 DUP2 LT PUSH3 0x10A9 JUMPI PUSH3 0x10A8 PUSH3 0x130B JUMP JUMPDEST JUMPDEST ADD DUP2 SWAP1 SSTORE POP PUSH16 0xABC25204E02828D73C6E80BCDB1A95BF PUSH1 0x1 PUSH1 0x79 PUSH1 0x80 DUP2 LT PUSH3 0x10D7 JUMPI PUSH3 0x10D6 PUSH3 0x130B JUMP JUMPDEST JUMPDEST ADD DUP2 SWAP1 SSTORE POP PUSH16 0xA4B16F74EE4BB2040A1EC6C15FBBF2DF PUSH1 0x1 PUSH1 0x7A PUSH1 0x80 DUP2 LT PUSH3 0x1105 JUMPI PUSH3 0x1104 PUSH3 0x130B JUMP JUMPDEST JUMPDEST ADD DUP2 SWAP1 SSTORE POP PUSH16 0x9DEAF736AC1F569DEB1B5AE3F36C130F PUSH1 0x1 PUSH1 0x7B PUSH1 0x80 DUP2 LT PUSH3 0x1133 JUMPI PUSH3 0x1132 PUSH3 0x130B JUMP JUMPDEST JUMPDEST ADD DUP2 SWAP1 SSTORE POP PUSH16 0x976BD9952C7AA957F5937D790EF65037 PUSH1 0x1 PUSH1 0x7C PUSH1 0x80 DUP2 LT PUSH3 0x1161 JUMPI PUSH3 0x1160 PUSH3 0x130B JUMP JUMPDEST JUMPDEST ADD DUP2 SWAP1 SSTORE POP PUSH16 0x9131271922EAA6064B73A22D0BD4F2BF PUSH1 0x1 PUSH1 0x7D PUSH1 0x80 DUP2 LT PUSH3 0x118F JUMPI PUSH3 0x118E PUSH3 0x130B JUMP JUMPDEST JUMPDEST ADD DUP2 SWAP1 SSTORE POP PUSH16 0x8B380F3558668C46C91C49A2F8E967B9 PUSH1 0x1 PUSH1 0x7E PUSH1 0x80 DUP2 LT PUSH3 0x11BD JUMPI PUSH3 0x11BC PUSH3 0x130B JUMP JUMPDEST JUMPDEST ADD DUP2 SWAP1 SSTORE POP PUSH16 0x857DDF0117EFA215952912839F6473E6 PUSH1 0x1 PUSH1 0x7F PUSH1 0x80 DUP2 LT PUSH3 0x11EB JUMPI PUSH3 0x11EA PUSH3 0x130B JUMP JUMPDEST JUMPDEST ADD DUP2 SWAP1 SSTORE POP PUSH3 0x133A JUMP JUMPDEST DUP3 DUP1 SLOAD PUSH3 0x1204 SWAP1 PUSH3 0x12A6 JUMP JUMPDEST SWAP1 PUSH1 0x0 MSTORE PUSH1 0x20 PUSH1 0x0 KECCAK256 SWAP1 PUSH1 0x1F ADD PUSH1 0x20 SWAP1 DIV DUP2 ADD SWAP3 DUP3 PUSH3 0x1228 JUMPI PUSH1 0x0 DUP6 SSTORE PUSH3 0x1274 JUMP JUMPDEST DUP3 PUSH1 0x1F LT PUSH3 0x1243 JUMPI DUP1 MLOAD PUSH1 0xFF NOT AND DUP4 DUP1 ADD OR DUP6 SSTORE PUSH3 0x1274 JUMP JUMPDEST DUP3 DUP1 ADD PUSH1 0x1 ADD DUP6 SSTORE DUP3 ISZERO PUSH3 0x1274 JUMPI SWAP2 DUP3 ADD JUMPDEST DUP3 DUP2 GT ISZERO PUSH3 0x1273 JUMPI DUP3 MLOAD DUP3 SSTORE SWAP2 PUSH1 0x20 ADD SWAP2 SWAP1 PUSH1 0x1 ADD SWAP1 PUSH3 0x1256 JUMP JUMPDEST JUMPDEST POP SWAP1 POP PUSH3 0x1283 SWAP2 SWAP1 PUSH3 0x1287 JUMP JUMPDEST POP SWAP1 JUMP JUMPDEST JUMPDEST DUP1 DUP3 GT ISZERO PUSH3 0x12A2 JUMPI PUSH1 0x0 DUP2 PUSH1 0x0 SWAP1 SSTORE POP PUSH1 0x1 ADD PUSH3 0x1288 JUMP JUMPDEST POP SWAP1 JUMP JUMPDEST PUSH1 0x0 PUSH1 0x2 DUP3 DIV SWAP1 POP PUSH1 0x1 DUP3 AND DUP1 PUSH3 0x12BF JUMPI PUSH1 0x7F DUP3 AND SWAP2 POP JUMPDEST PUSH1 0x20 DUP3 LT DUP2 EQ ISZERO PUSH3 0x12D6 JUMPI PUSH3 0x12D5 PUSH3 0x12DC JUMP JUMPDEST JUMPDEST POP SWAP2 SWAP1 POP JUMP JUMPDEST PUSH32 0x4E487B7100000000000000000000000000000000000000000000000000000000 PUSH1 0x0 MSTORE PUSH1 0x22 PUSH1 0x4 MSTORE PUSH1 0x24 PUSH1 0x0 REVERT JUMPDEST PUSH32 0x4E487B7100000000000000000000000000000000000000000000000000000000 PUSH1 0x0 MSTORE PUSH1 0x32 PUSH1 0x4 MSTORE PUSH1 0x24 PUSH1 0x0 REVERT JUMPDEST PUSH2 0x22E DUP1 PUSH3 0x134A PUSH1 0x0 CODECOPY PUSH1 0x0 RETURN INVALID PUSH1 0x80 PUSH1 0x40 MSTORE CALLVALUE DUP1 ISZERO PUSH2 0x10 JUMPI PUSH1 0x0 DUP1 REVERT JUMPDEST POP PUSH1 0x4 CALLDATASIZE LT PUSH2 0x2B JUMPI PUSH1 0x0 CALLDATALOAD PUSH1 0xE0 SHR DUP1 PUSH4 0x54FD4D50 EQ PUSH2 0x30 JUMPI JUMPDEST PUSH1 0x0 DUP1 REVERT JUMPDEST PUSH2 0x38 PUSH2 0x4E JUMP JUMPDEST PUSH1 0x40 MLOAD PUSH2 0x45 SWAP2 SWAP1 PUSH2 0x115 JUMP JUMPDEST PUSH1 0x40 MLOAD DUP1 SWAP2 SUB SWAP1 RETURN JUMPDEST PUSH1 0x0 DUP1 SLOAD PUSH2 0x5B SWAP1 PUSH2 0x186 JUMP JUMPDEST DUP1 PUSH1 0x1F ADD PUSH1 0x20 DUP1 SWAP2 DIV MUL PUSH1 0x20 ADD PUSH1 0x40 MLOAD SWAP1 DUP2 ADD PUSH1 0x40 MSTORE DUP1 SWAP3 SWAP2 SWAP1 DUP2 DUP2 MSTORE PUSH1 0x20 ADD DUP3 DUP1 SLOAD PUSH2 0x87 SWAP1 PUSH2 0x186 JUMP JUMPDEST DUP1 ISZERO PUSH2 0xD4 JUMPI DUP1 PUSH1 0x1F LT PUSH2 0xA9 JUMPI PUSH2 0x100 DUP1 DUP4 SLOAD DIV MUL DUP4 MSTORE SWAP2 PUSH1 0x20 ADD SWAP2 PUSH2 0xD4 JUMP JUMPDEST DUP3 ADD SWAP2 SWAP1 PUSH1 0x0 MSTORE PUSH1 0x20 PUSH1 0x0 KECCAK256 SWAP1 JUMPDEST DUP2 SLOAD DUP2 MSTORE SWAP1 PUSH1 0x1 ADD SWAP1 PUSH1 0x20 ADD DUP1 DUP4 GT PUSH2 0xB7 JUMPI DUP3 SWAP1 SUB PUSH1 0x1F AND DUP3 ADD SWAP2 JUMPDEST POP POP POP POP POP DUP2 JUMP JUMPDEST PUSH1 0x0 PUSH2 0xE7 DUP3 PUSH2 0x137 JUMP JUMPDEST PUSH2 0xF1 DUP2 DUP6 PUSH2 0x142 JUMP JUMPDEST SWAP4 POP PUSH2 0x101 DUP2 DUP6 PUSH1 0x20 DUP7 ADD PUSH2 0x153 JUMP JUMPDEST PUSH2 0x10A DUP2 PUSH2 0x1E7 JUMP JUMPDEST DUP5 ADD SWAP2 POP POP SWAP3 SWAP2 POP POP JUMP JUMPDEST PUSH1 0x0 PUSH1 0x20 DUP3 ADD SWAP1 POP DUP2 DUP2 SUB PUSH1 0x0 DUP4 ADD MSTORE PUSH2 0x12F DUP2 DUP5 PUSH2 0xDC JUMP JUMPDEST SWAP1 POP SWAP3 SWAP2 POP POP JUMP JUMPDEST PUSH1 0x0 DUP2 MLOAD SWAP1 POP SWAP2 SWAP1 POP JUMP JUMPDEST PUSH1 0x0 DUP3 DUP3 MSTORE PUSH1 0x20 DUP3 ADD SWAP1 POP SWAP3 SWAP2 POP POP JUMP JUMPDEST PUSH1 0x0 JUMPDEST DUP4 DUP2 LT ISZERO PUSH2 0x171 JUMPI DUP1 DUP3 ADD MLOAD DUP2 DUP5 ADD MSTORE PUSH1 0x20 DUP2 ADD SWAP1 POP PUSH2 0x156 JUMP JUMPDEST DUP4 DUP2 GT ISZERO PUSH2 0x180 JUMPI PUSH1 0x0 DUP5 DUP5 ADD MSTORE JUMPDEST POP POP POP POP JUMP JUMPDEST PUSH1 0x0 PUSH1 0x2 DUP3 DIV SWAP1 POP PUSH1 0x1 DUP3 AND DUP1 PUSH2 0x19E JUMPI PUSH1 0x7F DUP3 AND SWAP2 POP JUMPDEST PUSH1 0x20 DUP3 LT DUP2 EQ ISZERO PUSH2 0x1B2 JUMPI PUSH2 0x1B1 PUSH2 0x1B8 JUMP JUMPDEST JUMPDEST POP SWAP2 SWAP1 POP JUMP JUMPDEST PUSH32 0x4E487B7100000000000000000000000000000000000000000000000000000000 PUSH1 0x0 MSTORE PUSH1 0x22 PUSH1 0x4 MSTORE PUSH1 0x24 PUSH1 0x0 REVERT JUMPDEST PUSH1 0x0 PUSH1 0x1F NOT PUSH1 0x1F DUP4 ADD AND SWAP1 POP SWAP2 SWAP1 POP JUMP INVALID LOG2 PUSH5 0x6970667358 0x22 SLT KECCAK256 DUP7 PUSH27 0x26BEC764136FEDF41E96E0B645CAF32AAE434AA983BA33062E75A2 DELEGATECALL 0x5C PUSH5 0x64736F6C63 NUMBER STOP ADDMOD SMOD STOP CALLER "
		},
		"gasEstimates": {
			"creation": {
				"codeDepositCost": "111600",
				"executionCost": "infinite",
				"totalCost": "infinite"
			},
			"external": {
				"version()": "infinite"
			},
			"internal": {
				"findPositionInMaxExpArray(uint256)": "infinite",
				"floorLog2(uint256)": "infinite",
				"generalExp(uint256,uint8)": "infinite",
				"generalLog(uint256)": "infinite",
				"optimalExp(uint256)": "infinite",
				"optimalLog(uint256)": "infinite",
				"power(uint256,uint256,uint32,uint32)": "infinite"
			}
		},
		"methodIdentifiers": {
			"version()": "54fd4d50"
		}
	},
	"abi": [
		{
			"inputs": [],
			"stateMutability": "nonpayable",
			"type": "constructor"
		},
		{
			"inputs": [],
			"name": "version",
			"outputs": [
				{
					"internalType": "string",
					"name": "",
					"type": "string"
				}
			],
			"stateMutability": "view",
			"type": "function"
		}
	]
}